Y605571210096078609920ORTIZ                      CUEVAS                     DORIAN LUIS                00945900000010002052016000  080000009614703                     9
Y605571210029129108974TAPIA                      ZAMORANO                   OCTAVIO DANIEL             00945900000010002052016000  080000009614803                     9
Y605571210096058703420HUERTA                     FUENTES                    JOSE ANTONIO               00945900000010002052016000  080000009614903                     9
Y605571210082139501546LLANOS                     MEZA                       DIEGO                      00945900000010002052016000  080000009615003                     9
Y605571210041048611770GUZMAN                     HERNANDEZ                  JAMILETH                   00945900000010002052016000  080000019001302                     9
Y605571210041089005478RESENDIZ                   MARTINEZ                   DONATO                     00945900000010002052016000  080000019072503                     9
Y605571210071089010624RODRIGUEZ                  GOMEZ                      ALDO IVAN                  00945900000010002052016000  080000027054203                     9
Y605571210083098910033VILCHIS                    RAMOS                      CHRISTOPHER GIOVANY        00945900000010002052016000  080000027054303                     9
Y605571210083028510986RODRIGUEZ                  GOMEZ                      ARTURO MARLON              00945900000010002052016000  080000027054403                     9
Y605571210083129342164VILCHIS                    RAMOS                      JOSE ANGEL                 00945900000010002052016000  080000027054503                     9
Y605571210082028222402MORALES                    GONZALEZ                   JOSE LUIS                  00945900000010002052016000  080000027054603                     9
