A836767410961007900717CARMONA                    YAUTENTZI                  ANDRES                     00945900000010019072017000  080000002060203                     9
A836767410942896605161SANDOVAL                   VALENCIA                   FRANCISCA                  00945900000010019072017000  080000002060303                     9
A836767410943976607036RUBALCABA                  ESPINOSA                   JOSE LUIS                  00945900000010019072017000  080000008067503                     9
A836767410933086900652OCHOA                      GOMEZ                      JUAN MANUEL                00945900000010019072017000  080000008072503                     9
A836767410923008548606BOJORQUEZ                  MELENDREZ                  MARIA EDUVIGES             00945900000010019072017000  080000008078003                     9
A836767410923129329589SALMERON                   ARCUVIA                    JOSE LUIS                  00945900000010019072017000  080000008078203                     9
