Y605571210092097301268PEREZ                      FLORES                     JOSE DANIEL                00945900000010003022017000  080000009680803                     9
Y605571210039907223869HERNANDEZ                  GARCIA                     JOSE ANTONIO               00945900000010003022017000  080000009680903                     9
Y605571210030038006190SALGADO                    CORTES                     ARTURO                     00945900000010003022017000  080000009681003                     9
Y605571210042008302624GONZALEZ                   HUERTA                     ARTURO                     00945900000010003022017000  080000009681103                     9
Y605571210072159703916OROZCO                     CUICAS                     PEDRO                      00945900000010003022017000  080000009681203                     9
Y605571210030976901378SAAVEDRA                   VALADEZ                    GRACIELA                   00945900000010003022017000  080000009681303                     9
Y605571210062169705985ALEGRIA                    SAAVEDRA                   MARIANA                    00945900000010003022017000  080000009681403                     9
Y605571210016109008116TADEO                      CHAVEZ                     ANGEL ANDRES               00945900000010003022017000  080000009681503                     9
Y605571210026169549776LOPEZ                      PEÑA                       MIGUEL ANGEL               00945900000010003022017000  080000015190603                     9
Y605571210016048419077FLORES                     SANTAMARIA                 YESICA                     00945900000010003022017000  080000015190703                     9
Y605571210094119626748FRANCO                     MELENDREZ                  OSVALDO                    00945900000010003022017000  080000015190903                     9
Y605571210049937780838ARTEAGA                                               JUAN DE DIOS               00945900000010003022017000  080000019002602                     9
Y605571210043058641580SANCHEZ                    CAMPOS                     JUAN EDUARDO               00945900000010003022017000  080000019101303                     9
Y605571210083118305842LOPEZ                      DE LA CRUZ                 MAGALYS                    00945900000010003022017000  080000019101403                     9
Y605571210057169733987JIMENEZ                    VILLANUEVA                 BRAYAN JESUS               00945900000010003022017000  080000028038903                     9
Y605571210009078611903AGUILAR                    ROJAS                      ADRIAN MISSAEL             00945900000010003022017000  080000028039003                     9
Y605571210067079021597LOPEZ                      BAZAN                      PABLO                      00945900000010003022017000  080000030135803                     9
Y605571210083098912302OLAN                       JIMENEZ                    EDUARDO                    00945900000010003022017000  080000030135903                     9
