A836767410921129474504SANCHEZ                    CABRALES                   CHRISTOPHER MAGDALENO      00945900000010027042017000  080000002053103                     9
A836767410953806203633GARCIA                     PRIETO                     DEMETRIO                   00945900000010027042017000  080000002053203                     9
A836767410917169180639HERRERA                    GONZALEZ                   RAQUEL                     00945900000010027042017000  080000002053303                     9
A836767410921099056471LOPEZ                      OJEDA                      JESUS OMAR                 00945900000010027042017000  080000002053403                     9
A836767410965149409776OLGUIN                     ARROY                      ISELA MONSERRAT            00945900000010027042017000  080000002053503                     9
A836767410923089145637LOPEZ                      SALAS                      JOSE FRANCISCO             00945900000010027042017000  080000002053603                     9
A836767410972877300953SALGADO                    VAZQUEZ                    DAVID                      00945900000010027042017000  080000002053703                     9
A836767410925048808346LOPEZ                      GUTIERREZ                  YURIDIANA                  00945900000010027042017000  080000002053803                     9
