R143868210304018078040CARDONA                    REGLA                      ALBERTO CARLOS             00945900000010019062017000  080000014120203                     9
R143868210304745407512GARCIA                     BEDOY                      JOAQUIN                    00945900000010019062017000  080000014129703                     9
R143868210354765515579GARZA                      DORANTES                   RUBEN                      00945900000010019062017000  080000014133903                     9
R143868210304906848124SANTOYO                    RAMIREZ                    ROSA MARIA                 00945900000010019062017000  080000014134003                     9
R143868210302179508060CABRERA                    BRISEÒO                    JOSE LUIS                  00945900000010019062017000  080000014134103                     9
R143868210354897219447SILVA                      OLIVARES                   SERGIO                     00945900000010019062017000  080000014134203                     9
R143868210303148258274CAMPOS                     CARMONA                    JOSE ALFREDO               00945900000010019062017000  080000014134303                     9
R143868210304099121560CHAVARIN                   RODRIGUEZ                  GERARDO                    00945900000010019062017000  080000014134403                     9
