A836767410935988039869GURROLA                    VALENZUELA                 FERNANDO                   00945900000010030092016000  080000008060203                     9
A836767410919149666810TORRES                     PASTOR                     JOSEPH                     00945900000010030092016000  080000008060403                     9
A836767410931089105535MORA                       YAÒEZ                      JULIO ADRIAN               00945900000010030092016000  080000008060503                     9
