Y605571210015937504486MORELOS                    VELAZQUEZ                  ULISES SALVADOR            00945900000010009062016000  080000009619503                     9
Y605571210045068755250GUTIERREZ                  PADRON                     JULIO ADRIAN               00945900000010009062016000  080000009619603                     9
Y605571210012917266103ESTRADA                    ALAMILLA                   JUAN                       00945900000010009062016000  080000011084103                     9
Y605571210092988044209MARQUEZ                    AGUILERA                   GREGORIO                   00945900000010009062016000  080000015175003                     9
Y605571210043887175776RAMIREZ                    RUIZ                       ADAN                       00945900000010009062016000  080000019080303                     9
Y605571210001907256745MORALES                    MORALES                    ANGEL ALBERTO              00945900000010009062016000  080000022045503                     9
Y605571210002165516176REYES                      MELIAN                     JUAN MANUEL                00945900000010009062016000  080000028032103                     9
Y605571210012887143407MENDOZA                    TENIENTE                   JUAN ANTONIO               00945900000010009062016000  080000028032203                     9
Y605571210049927703956GARCIA                     BERNAL                     JESUS ABRAHAM              00945900000010009062016000  080000028032303                     9
Y605571210081038300810OLIVA                      NARANJO                    SAMUEL                     00945900000010009062016000  080000028032403                     9
Y605571210009887036516CONTRERAS                  CRUZ                       LUIS LAURO                 00945900000010009062016000  080000028032503                     9
Y605571210039139736555RICO                       ANDRES                     JOSE ENRIQUE               00945900000010009062016000  080000030117003                     9
Y605571210003168618241RIVERA                     MANUEL                     SEVERO                     00945900000010009062016000  080000030117103                     9
Y605571210011169576573VAZQUEZ                    RAMOS                      IMELDA                     00945900000010009062016000  080000030117203                     9
Y605571210007998210285REYES                      VALENCIA                   JUAN                       00945900000010009062016000  080000030117303                     9
