Y605571210001917445320VARELA                     VICTORIA                   PEDRO                      00945900000010019072017000  080000009719703                     9
Y605571210042119320275SILVERIO                   CHONA                      VICTOR MANUEL              00945900000010019072017000  080000009719803                     9
Y605571210045988016403GALVAN                     SUAREZ                     ERICK                      00945900000010019072017000  080000009719903                     9
Y605571210096089059917REYNOSA                    LOMAS                      JAVIER                     00945900000010019072017000  080000009720003                     9
Y605571210090169822021MARTINEZ                   GREGORIO                   CARLOS JESUS               00945900000010019072017000  080000009720103                     9
Y605571210037976601569MARTINEZ                   PEREZ                      JAIME JUAN                 00945900000010019072017000  080000009720203                     9
Y605571210092916513655MARTINEZ                   CASTILLO                   FLORENTINO                 00945900000010019072017000  080000015010103                     9
Y605571210016886933536JUAREZ                     SANTANA                    OSCAR                      00945900000010019072017000  080000015215603                     9
Y605571210034038613443MENDEZ                     RAYGOZA                    ROBERTO                    00945900000010019072017000  080000022064203                     9
Y605571210037037602853JIMENEZ                    GAMEN                      JOSE MANUEL                00945900000010019072017000  080000022064303                     9
Y605571210002169714603PALACIOS                   DIAZ                       ALONDRA                    00945900000010019072017000  080000022064403                     9
Y605571210068937405030CHAVEZ                     HERNANDEZ                  HECTOR SAUL                00945900000010019072017000  080000022064503                     9
Y605571210010179440895ZACARIAS                   CORTEZ                     XIOMARA JACQUELINE         00945900000010019072017000  080000022064603                     9
Y605571210082998205510LEON                       SUAREZ                     DIANA GABRIELA             00945900000010019072017000  080000023049103                     9
Y605571210083139453613CRUZ                       BOLAINA                    LEANDRO GUADALUPE          00945900000010019072017000  080000027063403                     9
Y605571210041947703165MARTINEZ                   CARRILLO                   BENJAMIN                   00945900000010019072017000  080000028042103                     9
Y605571210067068801215MEZA                       LUIS                       NEMESIO                    00945900000010019072017000  080000030152003                     9
