Y605571210096098944661RUIZ                       TEJADA                     SAMANTA                    00945900000010001092016000  080000009642003                     9
Y605571210042139718151ALATRISTE                  COLUNGA                    ELIAS MOISES               00945900000010001092016000  080000009642103                     9
Y605571210012896705386ALARCON                    ZENDEJAS                   FRANCISCO                  00945900000010001092016000  080000011088803                     9
Y605571210094018407455BOLAÒOS                    GUTIERREZ                  JHANCARLO                  00945900000010001092016000  080000015181403                     9
Y605571210094088845360SALAZAR                    MERCADO                    JOSUE FELIPE               00945900000010001092016000  080000015181503                     9
Y605571210094987706804MANDUJANO                  PE—A                       JAIME ARMANDO              00945900000010001092016000  080000015181603                     9
Y605571210043896882693CASIANO                    GONZALEZ                   SAMUEL                     00945900000010001092016000  080000019085403                     9
Y605571210043116800459RINCON                     MACARENO                   MA ELENA                   00945900000010001092016000  080000019086403                     9
