Y605571210081957401995TUZ                        POLANCO                    WILBERTH ANTONIO           00945900000010008082017000  080000004011703                     9
Y605571210026179986380CASTRO                     CONTRERAS                  BRAYAN URIEL               00945900000010008082017000  080000009724003                     9
Y605571210042967208853CARBENTE                   ORTIZ                      ROSA MARIA                 00945900000010008082017000  080000009724103                     9
Y605571210042997610169PALACIOS                   SALVADOR                   ALEJANDRO                  00945900000010008082017000  080000009724203                     9
Y605571210092119155171REYES                      DEL VALLE                  MARLENE                    00945900000010008082017000  080000015217103                     9
Y605571210094897306885VILLANUEVA                 RANGEL                     SILVIA                     00945900000010008082017000  080000015217403                     9
Y605571210053128407870CARDOSO                    PATIÒO                     JAVIER                     00945900000010008082017000  080000016012103                     9
Y605571210062169477460CAYETANO                   CHAN                       ALEJANDRA                  00945900000010008082017000  080000023050903                     9
