A836767410921119205769MARTINEZ                   RAVELO                     CARLOS ALBERTO             00945900000010024042017000  080000002052203                     9
A836767410921805912231RIVERA                     HERNANDEZ                  ENRIQUE                    00945900000010024042017000  080000002052303                     9
A836767410923998308268SAÒUDO                     ZAVALA                     BEATRIZ SELENE             00945900000010024042017000  080000002052403                     9
A836767410978855900912MARTINEZ                   ORTIZ                      DANIEL                     00945900000010024042017000  080000008049303                     9
A836767410931038611047JIMENEZ                    ALCALA                     MAURICIO                   00945900000010024042017000  080000008073603                     9
A836767410903179299379CHAVEZ                     BUSTILLOS                  ROSA KARINA                00945900000010024042017000  080000008073703                     9
