Z064567510812066003042VILLA                      MORALES                    JUAN JOSE                  00945900000010030082017000  080000011098603                     9
Z064567510864149657591ALCALA                     MARQUEZ                    LUIS ANTONIO               00945900000010030082017000  080000011099303                     9
Z064567510863159714714REYES                      BUSTOS                     OSCAR                      00945900000010030082017000  080000011104303                     9
Z064567510810149762337MORENO                     VENEGAS                    MIGUEL ANGEL               00945900000010030082017000  080000011104403                     9
Z064567510860149538740PEREZ                      FLORES                     EDUARDO LUIS               00945900000010030082017000  080000011104503                     9
Z064567510801786096279CONTRERAS                  JIMENEZ                    JAVIER                     00945900000010030082017000  080000025001803                     9
