Y605571210002179643156VALENCIA                   CHAN                       JESUS GABRIEL              00945900000010021032017000  080000004010603                     9
Y605571210071836407826HERNANDEZ                  GOMEZ                      MARCELINO                  00945900000010021032017000  080000007018103                     9
Y605571210007047100693SANTOS                     RIOS                       DAVID                      00945900000010021032017000  080000007018203                     9
Y605571210071988314606HUESO                      TRUJILLO                   JOSE ERNESTO               00945900000010021032017000  080000007018303                     9
Y605571210039937768024RIOS                       FLORES                     JOSEFINA                   00945900000010021032017000  080000009042402                     9
Y605571210005179512065VIZCAINO                   MENDOZA                    YEYETZI LIZBETH            00945900000010021032017000  080000009690703                     9
Y605571210096917247809DENA                       CABRERA                    MANUEL                     00945900000010021032017000  080000009690803                     9
Y605571210028008212665ROMERO                     VILLARROEL                 JUAN CARLOS                00945900000010021032017000  080000009690903                     9
Y605571210002166827937ZALETA                     GONZALEZ                   CRISPIN                    00945900000010021032017000  080000019077303                     9
Y605571210009017801169REYES                      QUINTERO                   ADALBERTO                  00945900000010021032017000  080000019094103                     9
Y605571210059159526611VENTURA                    JUANA                      ALEJANDRA                  00945900000010021032017000  080000019106003                     9
Y605571210043099065906GARCIA                     MANCILLA                   ANA CRISTINA               00945900000010021032017000  080000019106103                     9
Y605571210012069050255CAUDILLO                   SIERRA                     MARIA CRUZ                 00945900000010021032017000  080000019106203                     9
Y605571210014997304325ANACLETO                   JERONIMO                   CANDIDO                    00945900000010021032017000  080000022054003                     9
Y605571210014028540962HERNANDEZ                  JUAREZ                     MIGUEL ANGEL               00945900000010021032017000  080000022059303                     9
Y605571210014018221250ARAUJO                     ALVAREZ                    OMAR                       00945900000010021032017000  080000022059403                     9
Y605571210083109121489CORDOVA                    CLEMENTE                   ESMERALDA                  00945900000010021032017000  080000023025603                     9
Y605571210003149591152VELAZQUEZ                  ULIN                       ALEXANDER                  00945900000010021032017000  080000023034903                     9
Y605571210002178033730REGULES                    HERNANDEZ                  ANTONIO                    00945900000010021032017000  080000023043803                     9
Y605571210021058761061GALLARDO                   SUMUANO                    JOSE EMMANUEL              00945900000010021032017000  080000023043903                     9
Y605571210067119405396MARTINEZ                   GONZALEZ                   DAVID                      00945900000010021032017000  080000023044003                     9
Y605571210003179368232TORRES                     FELIX                      VALERIA                    00945900000010021032017000  080000025014603                     9
Y605571210038149590127LOPEZ                      FALCON                     JORGE                      00945900000010021032017000  080000027061003                     9
Y605571210009128605459VILLA                      TEJERO                     MIGUEL ANGEL               00945900000010021032017000  080000027061103                     9
Y605571210009036603638MENDEZ                     MARQUEZ                    SILVIA                     00945900000010021032017000  080000028040203                     9
Y605571210072169816641RAMOS                      SORCIA                     JOHANN OSVALDO             00945900000010021032017000  080000030143203                     9
Y605571210067907307507HERRERA                    OCHOA                      ROBERTO                    00945900000010021032017000  080000030143303                     9
Y605571210006139621186ESTEVEZ                    GONZALEZ                   SERGIO ANTONIO             00945900000010021032017000  080000030143403                     9
Y605571210067008118548HERNANDEZ                  BLANCO                     JUAN PABLO                 00945900000010021032017000  080000030143503                     9
