R143868210304129185932VAZQUEZ                    BOITES                     PABLO                      00945900000010001062016000  080000014072203                     9
R143868210354846217690MORONES                    DE LA CERDA                MIGUEL ANGEL               00945900000010001062016000  080000014076103                     9
R143868210304067915431VARGAS                     MORENO                     LUIS ALBERTO               00945900000010001062016000  080000014077203                     9
R143868210371876607061JIMENEZ                    ESPINOZA                   ANTONIO                    00945900000010001062016000  080000014077303                     9
R143868210304028737585HERNANDEZ                  VILLARRUEL                 ISRAEL                     00945900000010001062016000  080000014085003                     9
R143868210302159062534VAZQUEZ                    VALENTIN                   JOSE LUIS                  00945900000010001062016000  080000014085603                     9
R143868210354816612409HERNANDEZ                  AGUILAR                    J DE JESUS                 00945900000010001062016000  080000014087503                     9
R143868210375129457208MUÒOZ                      MADRIGAL                   MARIO                      00945900000010001062016000  080000014088703                     9
R143868210354946805360VARGAS                     CAMPOS                     RIGOBERTO                  00945900000010001062016000  080000014092403                     9
R143868210372926404905MENDEZ                     NUÒEZ                      INES                       00945900000010001062016000  080000014094103                     9
R143868210304048014239AGUIRRE                    HERNANDEZ                  ERNESTO ALONSO             00945900000010001062016000  080000014094203                     9
R143868210308158808074HERNANDEZ                  ROJAS                      JONATHAN                   00945900000010001062016000  080000014094303                     9
R143868210356887023523BALBUENA                   GARCIA                     LUIS FERNANDO              00945900000010001062016000  080000014097103                     9
R143868210331927551312NUÒEZ                      SOTO                       JUAN CARLOS                00945900000010001062016000  080000014099503                     9
R143868210304139559027ESQUIVEL                   GONZALEZ                   VICTOR ALFONSO             00945900000010001062016000  080000014100103                     9
R143868210304137400612GUERRERO                   BENITES                    LUIS ALONSO                00945900000010001062016000  080000014100503                     9
R143868210304038658193ACEVES                     MERCADO                    LORENA                     00945900000010001062016000  080000014101003                     9
R143868210334057101031ALFARO                     GUERRERO                   JACINTO                    00945900000010001062016000  080000014101203                     9
R143868210304987942978CASTELLANOS                ABASCAL                    JOSE DE JESUS ADRIAN       00945900000010001062016000  080000014101603                     9
R143868210304088975570AGUIÒIGA                   PONCE                      SANDRA ARACELI             00945900000010001062016000  080000014102003                     9
R143868210304917320956SANCHEZ                    CHAVEZ                     FERNANDO                   00945900000010001062016000  080000014103303                     9
R143868210304136602655GUTIERREZ                  RAMOS                      SERGIO MARTIN              00945900000010001062016000  080000014104103                     9
R143868210304106602503SALMERON                   ARREGUIN                   RAMON                      00945900000010001062016000  080000014104303                     9
R143868210325998146937ARMENTA                    RUELAS                     JUAN CARLOS                00945900000010001062016000  080000014104703                     9
R143868210304887160952TOVAR                      GARCIA                     JULIO ANTONIO              00945900000010001062016000  080000014105603                     9
R143868210304058783905GONZALEZ                   MEDINA                     ROSENDO ISMAEL             00945900000010001062016000  080000014105803                     9
R143868210375058819378GUTIERREZ                  LOPEZ                      SINHUE VICENTE             00945900000010001062016000  080000014105903                     9
R143868210375947743904VELAZQUEZ                  CAMPOS                     JUAN                       00945900000010001062016000  080000014106203                     9
R143868210308169340083MARIN                      MEJIA                      GUADALUPE                  00945900000010001062016000  080000014107203                     9
R143868210354967900215CARDENAS                   CHAPULA                    LUIS ALBERTO               00945900000010001062016000  080000014107403                     9
R143868210360159742794BARBA                      HERNANDEZ                  MARIA ESTHER               00945900000010001062016000  080000014108503                     9
R143868210366159672832CORDOBA                    RAMOS                      ALEXANDRA                  00945900000010001062016000  080000014108603                     9
R143868210304139437885PRECIADO                   CORTES                     SELENE NOEMI               00945900000010001062016000  080000014108903                     9
R143868210304048465688GUTIERREZ                  CABRERA                    ROSA SOLEDAD DE JESUS      00945900000010001062016000  080000014109003                     9
R143868210304119608281JIMENEZ                    NAVARRO                    ADAN ALEJANDRO             00945900000010001062016000  080000014109503                     9
R143868210356907088860JIMENEZ                    RODRIGUEZ                  ANTONIO                    00945900000010001062016000  080000014109703                     9
R143868210304129596385RUIZ                       PATIÒO                     SERGIO ALFONSO             00945900000010001062016000  080000014109903                     9
R143868210378028212104AGUDO                      CANSECO                    AMADOR                     00945900000010001062016000  080000014110603                     9
R143868210353937804556HERNANDEZ                  CHAVEZ                     BRENDA YADIRA              00945900000010001062016000  080000014110903                     9
R143868210375937010009RIVERA                     JUAN                       MANUEL                     00945900000010001062016000  080000014111103                     9
R143868210304058898794GUERRERO                   DOMINGUEZ                  ARMANDO                    00945900000010001062016000  080000014112103                     9
R143868210375129337442HERNANDEZ                  QUIRINO                    JAVIER                     00945900000010001062016000  080000014112203                     9
R143868210304118631144ARMENTA                    AMBRIZ                     JOSE MANUEL                00945900000010001062016000  080000014112503                     9
R143868210335149647006FLORES                     LEYVA                      DALIA VANESSA              00945900000010001062016000  080000014112603                     9
R143868210382987812235ALVARADO                   CORDOVA                    ALFREDO                    00945900000010001062016000  080000014112703                     9
R143868210304876874431CHAVEZ                     IBARRA                     JUAN JOSE                  00945900000010001062016000  080000014112803                     9
R143868210304129462844I—IGUEZ                    GARCIA                     JUDAS MANUEL               00945900000010001062016000  080000014113103                     9
R143868210341806228080PUENTE                     RUIZ                       ENRIQUE                    00945900000010001062016000  080000014113403                     9
R143868210385149547169CONTRERAS                  NAVARRO                    ERNESTO ALONSO             00945900000010001062016000  080000014113503                     9
R143868210302168695928RAFAEL                     BECERRA                    CARLOS                     00945900000010001062016000  080000014113603                     9
R143868210304006208757SANDOVAL                   ESCOBAR                    JORGE ALBERTO              00945900000010001062016000  080000014113903                     9
R143868210304987842921RIVERA                     GARCIA                     JOSE                       00945900000010001062016000  080000014114003                     9
R143868210304028164418ZAMORA                     CHAVEZ                     PABLO                      00945900000010001062016000  080000014114103                     9
R143868210375998111142ZEFERINO                   SALAZAR                    RICARDO                    00945900000010001062016000  080000014114203                     9
R143868210333996707932GARCIA                     FLORES                     ARMANDO                    00945900000010001062016000  080000014114303                     9
R143868210304877016669VARGAS                     SALDIVAR                   ALBERTO                    00945900000010001062016000  080000014114403                     9
R143868210352867103229CARMONA                    PALOMARES                  SOCORRO                    00945900000010001062016000  080000014114503                     9
R143868210352028101153OLVIRA                     MEDINA                     JOSE                       00945900000010001062016000  080000014114603                     9
R143868210325966805878HERNANDEZ                  HERNANDEZ                  JOSE DE JESUS              00945900000010001062016000  080000014114703                     9
R143868210354806264468ANGEL                      ORDORICA                   JUAN MARTIN                00945900000010007062016000  080000014115203                     9
