Y605571210071078204279LOPEZ                      JIMENEZ                    SANDRA                     00945900000010001082016000  080000007001902                     9
Y605571210037896707124GARCIA                     CHAVARRIA                  FERNANDO                   00945900000010001082016000  080000009017402                     9
Y605571210001765719263VAZQUEZ                    ESCALONA                   JOSE VICENTE               02999900000010001082016000  080000009027902                     9
Y605571210096108409226MARTINEZ                   MEJORADA                   CRISTIAN JOVAN             00945900000010001082016000  080000009623703                     9
Y605571210090028417518CABRERA                    FLORES                     JAVIER                     00945900000010001082016000  080000009631803                     9
Y605571210012058838785PI—A                       DUARTE                     LUIS ARMANDO               00945900000010001082016000  080000011087003                     9
Y605571210016917011286GUZMAN                     AYALA                      LUZ MARIA                  00945900000010001082016000  080000015172003                     9
Y605571210016048552612CABALLERO                  SAUCEDO                    MARIA NANCY                00945900000010001082016000  080000015173003                     9
Y605571210053057606542SALAZAR                    ROSALES                    ISRAEL                     00945900000010001082016000  080000015173103                     9
Y605571210092087501521BLANCAS                    LARA                       LEONARDO                   00945900000010001082016000  080000015179403                     9
Y605571210023058323165ZAMORANO                   HIGUERA                    JORGE ALBERTO              00945900000010001082016000  080000019002202                     9
Y605571210043139607543LOPEZ                      VASQUEZ                    ALEJANDRO SALOMON          00945900000010001082016000  080000019082203                     9
Y605571210023139343935GARCIA                     GOMEZ                      FRANCISCO SAMUEL           00945900000010001082016000  080000025005103                     9
Y605571210021078885205MELLADO                    SAINZ                      SOFIA MICHELLE             00945900000010001082016000  080000025005203                     9
Y605571210023109509804LOPEZ                      ESPARZA                    JOSE FRANCISCO             00945900000010001082016000  080000025005303                     9
Y605571210049169708754CARRASCO                   VIDAÒA                     ARACELI                    00945900000010001082016000  080000030002202                     9
Y605571210067816361868JOAQUIN                    MARGARITO                  TRINIDAD                   00945900000010001082016000  080000030077703                     9
Y605571210058169784103ROMERO                     TUFI—O                     ILIANY DOLORES             00945900000010001082016000  080000030120803                     9
Y605571210065058521546ZAYAS                      BARRIENTOS                 JAIR                       00945900000010001082016000  080000030120903                     9
Y605571210067109130095COVARRUBIAS                HERNANDEZ                  RICARDO                    00945900000010001082016000  080000030121003                     9
