A836767410933079115466SANCHEZ                    VALENCIA                   VICTOR HUGO                00945900000010008082016000  080000008054503                     9
A836767410917159244171FLORES                     HERNANDEZ                  JESUS MANUEL               00945900000010008082016000  080000008054603                     9
A836767410931826308731TORRES                     SANTANA                    GILDARDO                   00945900000010008082016000  080000008054703                     9
A836767410935998254938TRUJILLO                   CASTILLO                   MANUEL DAVID               00945900000010008082016000  080000008054803                     9
A836767410933068017681SARABIA                    MARTINEZ                   ANTONIO                    00945900000010008082016000  080000008054903                     9
