Y605571210063159708757VALDEZ                     MU—OZ                      JOSE RICARDO               00945900000010019042017000  080000009695003                     9
Y605571210017159496508BARCENA                    DIAZ                       AYRTON JAVIER              00945900000010019042017000  080000009696403                     9
Y605571210096068861416BARCENA                    DIAZ                       GABRIEL DIRCEU             00945900000010019042017000  080000009696503                     9
Y605571210096008118778AVENDA—O                   GARCIA                     CARLOS                     00945900000010019042017000  080000009696603                     9
Y605571210017179897107TORRES                     DIAZ                       ANDRES MICHELL             00945900000010019042017000  080000009696703                     9
Y605571210042119623660CISNEROS                   TORRES                     BRANDON NIUZET             00945900000010019042017000  080000009696803                     9
Y605571210028027601005HERNANDEZ                  ORTEGA                     JORGE                      00945900000010019042017000  080000015153203                     9
Y605571210049756004534TAPIA                      CONTRERAS                  GUSTAVO                    00945900000010019042017000  080000015202803                     9
Y605571210016028507594MARIN                      MERCADO                    KARINA                     00945900000010019042017000  080000015203203                     9
Y605571210043937427011CRUZ                       SANCHEZ                    REYNA GUADALUPE            00945900000010019042017000  080000019053403                     9
Y605571210043008130973CORONA                     CAMACHO                    RAMON AMADO                00945900000010019042017000  080000019066503                     9
Y605571210053038337688ZUÒIGA                     VILLA                      CELESTINO                  00945900000010019042017000  080000019108203                     9
