Y605571210001088921638CHAVEZ                     VILLA                      BRANDON                    00945900000010027072016000  080000001008003                     9
Y605571210017169294075LEDEZMA                    PINEDA                     MARIANA ARACELI            00945900000010027072016000  080000001008103                     9
Y605571210053927322833RICO                       MEDINA                     JAVIER                     01194600000010027072016000  080000002026103                     9
Y605571210062826123796SOSA                       DIAZ                       MARIA TERESA               01194600000010027072016000  080000002045703                     9
Y605571210021988263873FABIAN                     AMBRIZ                     DANIEL FRANCISCO           01194600000010027072016000  080000002049803                     9
Y605571210067058600072ANGULO                     RODRIGUEZ                  ANTONIO                    00945900000010027072016000  080000004007003                     9
Y605571210083816126433HERNANDEZ                  HERNANDEZ                  GUADALUPE                  00945900000010027072016000  080000004007103                     9
Y605571210081876002049VELUETA                    GUZMAN                     MANUEL                     00945900000010027072016000  080000004007203                     9
Y605571210082998128043CARRANZA                   MIRELES                    PEDRO                      00945900000010027072016000  080000004007303                     9
Y605571210044169653332VARGAS                     VARGAS                     ISAIAS                     00945900000010027072016000  080000004007403                     9
Y605571210081119402246VARGAS                     VARGAS                     DIANA LAURA                00945900000010027072016000  080000004007503                     9
Y605571210081138804026VARGAS                     VARGAS                     VERONICA                   00945900000010027072016000  080000004007603                     9
Y605571210081906701321VIDAL                      CABALLERO                  LUIS ALFONSO               00945900000010027072016000  080000004007703                     9
Y605571210081018401273LEON                       DE LA CRUZ                 ARTURO DEL CARMEN          00945900000010027072016000  080000004007803                     9
Y605571210083109117222DE LA CRUZ                 HERNANDEZ                  SERGIO                     00945900000010027072016000  080000004007903                     9
Y605571210096098810276CRUZ                       BALBUENA                   GONZALO                    00945900000010027072016000  080000009038802                     9
Y605571210094077905654MIRANDA                    DE JESUS                   HONORIO                    00945900000010027072016000  080000009357103                     9
Y605571210012119100761VELAZQUEZ                  CRUZ                       ANAHI                      00945900000010027072016000  080000009606503                     9
Y605571210094916306379MORA                       CHAVEZ                     JOSE LUIS                  00945900000010027072016000  080000009628903                     9
Y605571210020937701272ESCOBAR                    CORRAL                     ALEJANDRO                  00945900000010027072016000  080000009630203                     9
Y605571210003147673531LUJANO                     PINEDA                     FELISA                     00945900000010027072016000  080000009630303                     9
Y605571210010169153383PRIETO                     BAUTISTA                   MARIELA                    00945900000010027072016000  080000009630403                     9
Y605571210045057910239GARCIA                     TELLEZ                     FREDY                      00945900000010027072016000  080000009630503                     9
Y605571210042968002719MONTAÒO                    VARGAS                     CARLOS ALBERTO             00945900000010027072016000  080000009630603                     9
Y605571210012886410617CANO                                                  JORGE  JESUS               00945900000010027072016000  080000011086703                     9
Y605571210016988101644COLIN                      MONROY                     ERASTO                     00945900000010027072016000  080000015178903                     9
Y605571210090896925402ESCOBAR                    CORRAL                     LETICIA                    00945900000010027072016000  080000015179103                     9
Y605571210042988118164JIMENEZ                    LOPEZ                      SONIA                      00945900000010027072016000  080000015179203                     9
Y605571210002159659669SAENZ                      ARMENTA                    JESUS ELISEO               00945900000010027072016000  080000019050703                     9
Y605571210043927604587CASTA—EDA                  GONZALEZ                   JOSE PEDRO                 00945900000010027072016000  080000019084403                     9
Y605571210043947846481SILVA                      LOPEZ                      ABEL                       00945900000010027072016000  080000019084503                     9
Y605571210014109369588GARCIA                     OSORNIO                    CARLO EMILIO               00945900000010027072016000  080000022048703                     9
Y605571210058169709282YANES                      GOMEZ                      YESSICA DEL CARMEN         00945900000010027072016000  080000023031503                     9
Y605571210083047502634PALMA                      CORONEL                    GRACIELA                   00945900000010027072016000  080000023031603                     9
Y605571210083078801905JIMENEZ                    GAMAS                      IGNACIO                    00945900000010027072016000  080000023031703                     9
Y605571210082977917002BURGOS                     CABRERA                    JESUS ARTURO               00945900000010027072016000  080000023031803                     9
Y605571210023907312328GARCIA                     SALAZAR                    CORIN ALBERTO              00945900000010027072016000  080000025003303                     9
Y605571210023968000317ROMERO                     BUSTAMANTE                 CLAUDIO                    00945900000010027072016000  080000025003403                     9
Y605571210023906505344BUENO                      MARTINEZ                   MARIA ISABEL               00945900000010027072016000  080000025004303                     9
