Y605571210081967711706MORENO                     DELGADO                    MIGUEL ANGEL               00945900000010014112016000  080000004009203                     9
Y605571210039007816216HERNANDEZ                  OLVERA                     NANCY CLAUDIA              00945900000010014112016000  080000009658003                     9
Y605571210046897102813ARELLANO                   MUÒIZ                      ROGELIO                    00945900000010014112016000  080000009658103                     9
Y605571210001957711433PEREZ                      HUERTA                     DANIEL                     00945900000010014112016000  080000009658203                     9
Y605571210001926808971HIDALGO                    REYES                      HECTOR FRANCISCO           00945900000010014112016000  080000015185303                     9
Y605571210092038333511JIMENEZ                    REYES                      ANDRES                     00945900000010014112016000  080000015185403                     9
Y605571210090129452885PALAFOX                    HERMENEGILDO               ANGELICA                   00945900000010014112016000  080000015185503                     9
Y605571210042816483061HERNANDEZ                  BARAJAS                    EFRAIN ARTURO              00945900000010014112016000  080000015185603                     9
Y605571210053986204195SANCHEZ                    GONZALEZ                   J. JESUS                   00945900000010014112016000  080000016009603                     9
Y605571210047947770997FLORES                     OLIVO                      NESTOR DAVID               00945900000010014112016000  080000019087503                     9
Y605571210002167328810RUIZ                       ESQUIVEL                   MA. MAGDALENA              00945900000010014112016000  080000019092703                     9
Y605571210009139602685ENRIQUEZ                   GONZALEZ                   JUAN CARLOS                00945900000010014112016000  080000028036503                     9
Y605571210067139476633BERNABE                    TELLEZ                     JOSE EDMUNDO               00945900000010014112016000  080000030043703                     9
