A836767410933836755695RAMIREZ                    ROMERO                     MARTHA ORALIA              00945900000010025102016000  080000008008003                     9
A836767410933846663277GRANILLO                   MIRAMONTES                 JOSE JESUS                 00945900000010025102016000  080000008063003                     9
A836767410935008431500GARCIA                     MARQUEZ                    JORGE ALBERTO              00945900000010025102016000  080000008063103                     9
A836767410975816305652CASTELAN                   GUTIERREZ                  ADOLFO GUILLERMO           00945900000010025102016000  080000008063203                     9
