Y605571210039139442469ANGELES                    CRUZ                       JUAN                       00945900000010022062017000  080000009714203                     9
Y605571210024957514482GARCIA                     HERNANDEZ                  ALVARO JOSE ALONSO         00945900000010022062017000  080000015129603                     9
Y605571210046159436842OLIN                       GARCIA                     ALBERTO                    00945900000010022062017000  080000015210103                     9
Y605571210021067405346PACHECO                    MARQUEZ                    JUDITH                     00945900000010022062017000  080000015213403                     9
Y605571210083967926615HERNANDEZ                  CRUZ                       RICARDO                    00945900000010022062017000  080000023047803                     9
Y605571210081068201102VALENCIA                   GARCIA                     JOSE                       00945900000010022062017000  080000027062703                     9
Y605571210067029600284ALEGRIA                    ALEMAN                     JORGE HERNAN               00945900000010022062017000  080000030151503                     9
Y605571210009169766277DOMINGUEZ                  ESPRONCEDA                 JOSE GUILLERMO             00945900000010022062017000  080000030151703                     9
