Y605571210045018013966RAYA                       BONILLA                    NANCY ARELI                00945900000010018072017000  080000009656203                     9
Y605571210008179396604HERNANDEZ                  ARENAS                     TONATIUH PEDRO             00945900000010018072017000  080000009719403                     9
Y605571210096139458390HERNANDEZ                  RAMOS                      JESUS URIEL                00945900000010018072017000  080000009719503                     9
Y605571210043109397224ALVAREZ                    OBREGON                    STEPHANIE                  00945900000010018072017000  080000009719603                     9
Y605571210018159582180MARTINEZ                   PAVANA                     GONZALO                    00945900000010018072017000  080000015163203                     9
Y605571210045997715425CAMARGO                    ISLAS                      MARIA JOSEFINA             00945900000010018072017000  080000015215303                     9
Y605571210035169632482SERRATOS                   CUEVAS                     JAQUELIN                   00945900000010018072017000  080000015215403                     9
Y605571210092139867656ESPINOSA                   REYES                      PEDRO RICARDO              00945900000010018072017000  080000015215503                     9
Y605571210001796130795SOTO                       MENDOZA                    RENE ALEJANDRO             00945900000010018072017000  080000023049003                     9
Y605571210083048513036MENDEZ                     CASTELLANOS                JESUS                      00945900000010018072017000  080000027063303                     9
