Y605571210042907342549HERNANDEZ                  FLORES                     ARACELI                    00945900000010030062017000  080000009715403                     9
Y605571210042967404510CARRALES                   VALLE                      CECILIA                    00945900000010030062017000  080000009715503                     9
Y605571210016057907970MEDINA                     GUTIERREZ                  MARGARITA                  00945900000010030062017000  080000015199703                     9
Y605571210090077402221ALARCON                    RAMIREZ                    JORGE                      00945900000010030062017000  080000015213603                     9
Y605571210083826112589ABREGO                     ROSAS                      FRANCISCO                  00945900000010030062017000  080000019116603                     9
Y605571210043866726656ROLDAN                     LOPEZ                      LINO ALBERTO               00945900000010030062017000  080000019116703                     9
Y605571210043957072143GOMEZ                      LOPEZ                      LAURA NELLY                00945900000010030062017000  080000019116803                     9
Y605571210023059006934CASTRO                     ORDUÒO                     GERARDO                    00945900000010030062017000  080000025017803                     9
