Y605571210067119136934ZAMORA                     CONTRERAS                  VICTOR MANUEL              00945900000010030082016000  080000009641603                     9
Y605571210078096300260OSORIO                     SANTIAGO                   ELADIO                     00945900000010030082016000  080000020026803                     9
Y605571210027149772447TORRES                     MARQUEZ                    JUAN ANGEL                 00945900000010030082016000  080000028034503                     9
