Y605571210032018212814NOLAZCO                    MONTOYA                    JUAN MANUEL                00945900000010023032017000  080000005012703                     9
Y605571210022937804205ORTIZ                      MIGUEL                     CAYETANO                   00945900000010023032017000  080000009691103                     9
Y605571210003179126184HERNANDEZ                  ARCIA                      FELIPE                     00945900000010023032017000  080000009691203                     9
Y605571210092109127404HERNANDEZ                  ZAVALA                     VICTOR                     00945900000010023032017000  080000015199203                     9
Y605571210094926401293GARCIA                     SANTIAGO                   BASILIA                    00945900000010023032017000  080000015199303                     9
Y605571210094906202547RIZO                       SOLORIO                    DELFINA                    00945900000010023032017000  080000015199403                     9
Y605571210035988198079MUÒOZ                      SANDOVAL                   LIONEL                     00945900000010023032017000  080000019106603                     9
Y605571210014978020775ESPINOZA                   LUGO                       NANCY LETICIA              00945900000010023032017000  080000022059603                     9
Y605571210094038501345JUAREZ                     AVILA                      ERNESTO                    00945900000010023032017000  080000022059803                     9
Y605571210022796006850QUINTERO                   MARTINEZ                   BRUNO                      00945900000010023032017000  080000025014903                     9
Y605571210031119311681TORRES                     REYES                      JOSE ISMAEL                00945900000010023032017000  080000025015003                     9
Y605571210023856557329BARRERAS                   REYNAGA                    GUSTAVO MANUEL             00945900000010023032017000  080000025015103                     9
Y605571210003167405913RODRIGUEZ                  MIER                       J. ACENCION                00945900000010023032017000  080000028040403                     9
Y605571210038159268895SANCHEZ                    SANTOS                     CUTBERTO                   00945900000010023032017000  080000030102603                     9
Y605571210067988112727ORDINOLA                   TRUJILLO                   ANA ISABEL                 00945900000010023032017000  080000030143803                     9
