Y605571210012109153879BOLAÑOS                    RIVERA                     TOMAS                      00945900000010027072016000  080000011086803                     9
Y605571210071937434844GURRION                    GARCIA                     ANTONIO ADOLFO             00945900000010027072016000  080000020025803                     9
Y605571210050159689624PUCHETA                    ALDANA                     ANA ISABEL                 00945900000010027072016000  080000022048203                     9
Y605571210067977819332HERNANDEZ                  PUCHETA                    JOSE ANTONIO               00945900000010027072016000  080000022048303                     9
Y605571210090088708640PEREZ                      ALDANA                     MARIA DE LA PAZ            00945900000010027072016000  080000022048403                     9
Y605571210017148667888PUCHETA                    FABIAN                     FREDDY                     00945900000010027072016000  080000022048503                     9
Y605571210064159629753PUCHETA                    QUINO                      ISRAEL                     00945900000010027072016000  080000022048603                     9
Y605571210008148570453DOMINGUEZ                  HIDALGO                    JANET                      00945900000010027072016000  080000023031303                     9
