Y605571210045887002579HERNANDEZ                  LOPEZ                      DANIEL ALFONSO             00945900000010020072017000  080000009720303                     9
Y605571210096139712259MARTINEZ                   GARCIA                     ERICK ADAN                 00945900000010020072017000  080000009720403                     9
Y605571210039159903929RODRIGUEZ                  URBINA                     ISRAEL ROMAN               00945900000010020072017000  080000009720503                     9
Y605571210039876918739HERNANDEZ                  MIRANDA                    EVA                        00945900000010020072017000  080000009720603                     9
Y605571210046159535015PEREZ                      SANCHEZ                    VIDAL JECSAN               00945900000010020072017000  080000015215703                     9
Y605571210004068030479BOCANEGRA                  NUÒEZ                      FRANCISCO JAVIER           00945900000010020072017000  080000018001303                     9
Y605571210043765518097FERNANDEZ                  LOPEZ                      SANTOS                     00945900000010020072017000  080000019119203                     9
Y605571210005149443342ARREDONDO                  ESTRELLA                   LORENA                     00945900000010020072017000  080000019119303                     9
Y605571210021099212868PEREZ                      DIAZ                       AMELIA                     00945900000010020072017000  080000019119403                     9
Y605571210008148321519FELIPE                     GUTIERREZ                  LETICIA                    00945900000010020072017000  080000019119503                     9
Y605571210065089006046PAULINO                    CASTELLANOS                JESUS IVAN                 00945900000010020072017000  080000019119603                     9
