Y702574710106856711707SUAREZ                     PERPIÑA                    JOSE GABRIEL               00945900000010003042017000  080000031036103                     9
Y702574710171786107384CHANDOMY                   VICENTE                    JULIO CESAR                00945900000010003042017000  080000031036203                     9
Y702574710182977709482MENDOZA                    SOSA                       CARLOS HUMBERTO            00945900000010003042017000  080000031036303                     9
