Y462621510948099209404JIMENEZ                    CARCAMO                    IVAN                       00945900000010005092016000  080000021154003                     9
Y462621510927159407181ALMANZA                    MADRID                     FERNANDO                   00945900000010005092016000  080000021154103                     9
Y462621510928907227293MARIN                      MORENO                     MAXIMINO                   00945900000010005092016000  080000021154203                     9
