Y605571210018169700962RIOS                       ALVARADO                   ABRAHAM                    00945900000010010072017000  080000009717403                     9
Y605571210008159529539CRUZ                       CRUZ                       ERICK ABEL                 00945900000010010072017000  080000009717503                     9
Y605571210092119312269GONZALEZ                   SANDOVAL                   ALEJANDRO                  00945900000010010072017000  080000009717603                     9
Y605571210001169877212GALVAN                     CURICHE                    BRANDON MIGUEL             00945900000010010072017000  080000009717703                     9
Y605571210042018004012LOPEZ                      BOCARDO                    HUGO RAFAEL                00945900000010010072017000  080000009717803                     9
Y605571210096038306047ANDRADE                    HURTADO                    DANIEL                     00945900000010010072017000  080000009717903                     9
Y605571210096058667062RAMIREZ                    LOZANO                     IVAN                       00945900000010010072017000  080000009718003                     9
Y605571210043906207519RODRIGUEZ                  RAMIREZ                    GONZALO                    00945900000010010072017000  080000019118203                     9
Y605571210050887122658ROJO                       SANCHEZ                    ALFONSO                    00945900000010010072017000  080000025008803                     9
Y605571210023856513942RODRIGUEZ                  SANCHEZ                    VICTOR MANUEL              00945900000010010072017000  080000025017503                     9
Y605571210067937450541LEON                       RIVERA                     JUAN CARLOS                00945900000010010072017000  080000030151803                     9
