Y605571210020119406674GIL                        ROMERO                     MIGUEL ANGEL               00945900000010012052016000  080000009616103                     9
Y605571210067866620106RAMIREZ                    JUAREZ                     BENIGNO                    00945900000010012052016000  080000013011803                     9
Y605571210092977633178MUNIVE                     RODRIGUEZ                  PAULETTE                   00945900000010012052016000  080000015172103                     9
Y605571210043109457754GARCIA                     DAVILA                     ABRAHAM                    00945900000010012052016000  080000019077903                     9
Y605571210010149193236RAMIREZ                    ESTRADA                    ALEJANDRO                  00945900000010012052016000  080000019078003                     9
Y605571210043987901618DAVILA                     SANDOVAL                   JOSE ROBERTO               00945900000010012052016000  080000019078103                     9
Y605571210043776021768ROBLES                     SANCHEZ                    ALFREDO                    00945900000010012052016000  080000019078203                     9
Y605571210043008449878LARA                       GARCIA                     FRANCISCO                  00945900000010012052016000  080000019078303                     9
Y605571210043987512829BUTANDA                    RODRIGUEZ                  JOSE JUAN                  00945900000010012052016000  080000019078403                     9
Y605571210065027002289HERNANDEZ                  MARTINEZ                   JOSE LUIS                  00945900000010012052016000  080000019078503                     9
Y605571210072128807525VELAZQUEZ                  ROMERO                     MARTIN                     00945900000010012052016000  080000019078603                     9
Y605571210050149435492SANCHEZ                    VERA                       LUIS EDUARDO               00945900000010012052016000  080000019078703                     9
Y605571210014755704138PIÒA                       RICO                       MARIA                      00945900000010012052016000  080000022043803                     9
Y605571210003169456989CORONEL                    ALEJANDRES                 TOMAS                      00945900000010012052016000  080000028031503                     9
