Y605571210096937208393UBALDO                     SALAS                      AGUSTIN                    00945900000010008072016000  080000009625203                     9
Y605571210007826508389PINZON                     VALLEJO                    RAYMUNDO SHINNE            00945900000010008072016000  080000009625303                     9
Y605571210025169406615GALICIA                    SEBASTIAN                  EDITH                      00945900000010008072016000  080000009625403                     9
Y605571210012109116314ROSILES                    JIMENEZ                    JOAQUIN MISAEL             00945900000010008072016000  080000011085803                     9
Y605571210003897038539ZAVALA                     CORREA                     PABLO                      00945900000010008072016000  080000019082803                     9
Y605571210043927220145SANTOS                     AYALA                      JOSE LUIS                  00945900000010008072016000  080000019082903                     9
Y605571210082058308600EROSA                      CANTO                      MERCEDES DEL CARMEN        00945900000010008072016000  080000023027403                     9
Y605571210083937210587MORALES                    GARCIA                     SERGIO                     00945900000010008072016000  080000027056403                     9
Y605571210083886818158CARDOSO                    CHABLE                     CARMEN                     00945900000010008072016000  080000027056503                     9
Y605571210083968141040HERNANDEZ                  PARCERO                    BENJAMIN                   00945900000010008072016000  080000027056603                     9
Y605571210083119125041SOLANO                     RODRIGUEZ                  BERTIN                     00945900000010008072016000  080000027056703                     9
Y605571210065967355119CASTRO                     HERRERA                    JESIEL                     00945900000010008072016000  080000030118803                     9
Y605571210065068827172TORRES                     LIMA                       LAURENT EDSAEL             00945900000010008072016000  080000030118903                     9
Y605571210065058325286GARCIA                     HERNANDEZ                  TANIA ESDEYNEB             00945900000010008072016000  080000030119003                     9
Y605571210010169117933TELLEZ                     HERNANDEZ                  YAJAIRA GUADALUPE          00945900000010008072016000  080000030119103                     9
