A836767410942896605161SANDOVAL                   VALENCIA                   FRANCISCA                  00945900000010021082017000  080000002060303                     9
A836767410902177992159MENDOZA                    MARTINEZ                   ADALBERTO                  00945900000010021082017000  080000002062803                     9
A836767410939139406977RUIZ                       FIGUEROA                   JOSE EDUARDO               00945900000010021082017000  080000002062903                     9
A836767410925887217468MADRIGAL                   OCHOA                      ALFREDO                    00945900000010021082017000  080000002063003                     9
A836767410933028527928PALACIOS                   CABALLERO                  ROEL                       00945900000010021082017000  080000008080803                     9
