Y605571210037006600516SAN MIGUEL                 PINEDA                     JUAN MANUEL                00945900000010019062016000  080000009620303                     9
Y605571210090098932602ROSALES                    VAZQUEZ                    GUADALUPE ANTONIO          00945900000010019062016000  080000015176103                     9
Y605571210033078882801HERNANDEZ                  VILLAR                     LUIS ENRIQUE               00945900000010019062016000  080000020025403                     9
Y605571210062149479990MIROS                      CHONTAL                    JOSE DE JESUS              00945900000010019062016000  080000022046303                     9
Y605571210057159739283ROJAS                      APARICIO                   JOSE ARTURO                00945900000010019062016000  080000022046403                     9
Y605571210008169181578CEBA                       CHAGA                      SALVADOR                   00945900000010019062016000  080000022046503                     9
Y605571210065139433703ANTELE                     PALAYOT                    KARINA SUGEY               00945900000010019062016000  080000022046603                     9
Y605571210003146986546ROJAS                      COSME                      JORGE ANTONIO              00945900000010019062016000  080000022046703                     9
Y605571210082097602534ESPINOZA                   CARAVEO                    MARCOS                     00945900000010019062016000  080000023029403                     9
Y605571210083967104833ALVAREZ                    PINTO                      LORENZO                    00945900000010019062016000  080000027055603                     9
Y605571210083098716083CHABLE                     LOPEZ                      CARMEN EULALIO             00945900000010019062016000  080000027055703                     9
Y605571210083927412813RODRIGUEZ                  MORENO                     ANTONIO                    00945900000010019062016000  080000027055803                     9
Y605571210083048304691PALACIO                    GARCIA                     ADAN                       00945900000010019062016000  080000027055903                     9
