Y605571210002169112477ORTIZ                      TERAN                      SERGIO                     00945900000010020012017000  080000009667903                     9
Y605571210001169867411ESCOBAR                    ESTEVES                    ISMAEL                     00945900000010020012017000  080000009677203                     9
Y605571210045916903391AGUILAR                    HERNANDEZ                  LUIS ESTEBAN               00945900000010020012017000  080000009677303                     9
Y605571210028018400821HERNANDEZ                  RAZO                       LUIS ALBERTO               00945900000010020012017000  080000009677403                     9
Y605571210026169739997MAGALLON                   MONTES                     EDGAR                      00945900000010020012017000  080000009677503                     9
Y605571210094028314782PLASCENCIA                 HERNANDEZ                  SANDRA                     00945900000010020012017000  080000009677603                     9
Y605571210045008402914ORTIZ                      BECERRA                    ARMANDO OBETH              00945900000010020012017000  080000013016603                     9
Y605571210026169522005MELITON                    OLGUIN                     MARIANA MARTHA             00945900000010020012017000  080000013016703                     9
Y605571210045139023290VAZQUEZ                    HERNANDEZ                  JONATAN                    00945900000010020012017000  080000015188903                     9
Y605571210092978064159ALDACO                     MOSQUEDA                   ESPERANZA                  00945900000010020012017000  080000015189003                     9
Y605571210043846821551MARTINEZ                   LOPEZ                      JUAN MANUEL                00945900000010020012017000  080000019099703                     9
Y605571210001715195572RODRIGUEZ                                             JOSE ANTONIO               00945900000010020012017000  080000022055603                     9
Y605571210067977250918LAGUNAS                    SALINAS                    JULIO CESAR                00945900000010020012017000  080000030133703                     9
Y605571210082118605862RAMOS                      CORDERO                    LUZ ARELY                  00945900000010020012017000  080000030133803                     9
Y605571210003145733345DE LA CRUZ                 SABAS                      ABRAHAM                    00945900000010020012017000  080000030133903                     9
Y605571210067088832919TORRES                     VELAZCO                    GLADYS                     00945900000010020012017000  080000030134003                     9
