R143868210314998109608UGALDE                     TORRES                     JORGE ANTONIO              00945900000010001072016000  080000014001402                     9
R143868210375109155681RUVALCABA                  MORALES                    ZULEMA ELIZABETH           00945900000010001072016000  080000014001602                     9
R143868210308148202149GARCIA                     ARANDA                     JOSE ALEJANDRO             00945900000010001072016000  080000014001702                     9
R143868210354927825734BARAJAS                    HERNANDEZ                  VERONICA                   00945900000010001072016000  080000014089103                     9
