Y605571210051806208644ALVARADO                   CERBANTES                  J LUIZ                     00945900000010002082016000  080000001008303                     9
Y605571210081119304822GOMEZ                      CARRASCO                   JOSE ALBERTO               00945900000010002082016000  080000004008003                     9
Y605571210096159400702MUÑOZ                      MOCIÑOS                    FERNANDO                   00945900000010002082016000  080000009626103                     9
Y605571210028139420229YARZA                      PEREZ                      JESSICA MARLEN             00945900000010002082016000  080000009632003                     9
Y605571210026159262364GONZALEZ                   BARRERA                    ELIZABETH                  00945900000010002082016000  080000009632103                     9
Y605571210096927454700CAYETANO                   CRUZ                       JORGE                      00945900000010002082016000  080000009632203                     9
Y605571210001937803003CISNEROS                   MURILLO                    LEONARDO DANA              00945900000010002082016000  080000009632303                     9
Y605571210045139315704JIMENEZ                     DAMIAN                    REYNALDO                   00945900000010002082016000  080000009632403                     9
Y605571210003147851327GONZALEZ                   GUTIERREZ                  VERONICA                   00945900000010002082016000  080000009632503                     9
Y605571210041068633753OLVERA                     MORALES                    VERONICA                   00945900000010002082016000  080000019085103                     9
Y605571210082028451480LOPEZ                      RAMIREZ                    ADIN                       00945900000010002082016000  080000023031903                     9
Y605571210058159668175PEREZ                      RAMIREZ                    MARCIAL                    00945900000010002082016000  080000024004503                     9
Y605571210065058433445GARCIA                     AMOS                       JOSE ANTONIO               00945900000010002082016000  080000030121103                     9
