A836767410933968071119DE LA O                    RUIZ                       MARTIN                     00945900000010030012017000  080000008069503                     9
A836767410933108602534ZUBIA                      BUSTILLOS                  FRANCISCO ALEJANDRO        00945900000010030012017000  080000008069603                     9
A836767410933886562454MENDEZ                     PEÒA                       JOSE SALVADOR              00945900000010030012017000  080000008069703                     9
A836767410933129383221RIOS                       PEREZ                      EDUARDO IVAN               00945900000010030012017000  080000008069803                     9
