A836767410954897211139TORRES                     RODRIGUEZ                  VERONICA                   00945900000010020062017000  080000002055703                     9
A836767410953897149174MARTINEZ                   TORRES                     FRANCISCO JAVIER           00945900000010020062017000  080000002057203                     9
A836767410921069007942MONTOYA                    SALAZAR                    ERICK JESUS                00945900000010020062017000  080000008061203                     9
