A836767410935998311613CRUZ                       CRUZ                       ARTURO                     00945900000010015082017000  080000008080203                     9
A836767410933058222416GOMEZ                      RANGEL                     GUADALUPE                  00945900000010015082017000  080000008080303                     9
A836767410933058987638RUELAS                     NUÒEZ                      DANIEL APOLONIO            00945900000010015082017000  080000008080403                     9
A836767410933078405512MUÒOZ                      HERRERA                    SALVADOR                   00945900000010015082017000  080000008080503                     9
A836767410933765815643OLIVAS                     SEGURA                     JESUS                      00945900000010015082017000  080000008080603                     9
