Y605571210023018437015OVIEDO                     ESCAREÒO                   FELIX ESTEBAN              00945900000010024112016000  080000005011603                     9
Y605571210045958000023VARGAS                     CRUZ                       RICARDO                    00945900000010024112016000  080000009661003                     9
Y605571210076937201325MENDOZA                    HERNANDEZ                  VERONICA                   00945900000010024112016000  080000009661103                     9
Y605571210045876830204SOTO                       RIOS                       JAVIER                     00945900000010024112016000  080000009661203                     9
Y605571210096108414903MILL                       MARTINEZ                   MISAEL                     00945900000010024112016000  080000009661303                     9
Y605571210028096000352JUAREZ                     TORRES                     J JESUS                    00945900000010024112016000  080000009661403                     9
Y605571210069159717367FUENTES                    SANTIAGO                   MARTHA ESTELA              00945900000010024112016000  080000009661503                     9
Y605571210001816107815MENESES                    GARCIA                     SILVERIO ALFREDO           00945900000010024112016000  080000009661603                     9
Y605571210017846407157PALIZADA                   VALENCIA                   ALFREDO                    00945900000010024112016000  080000009661703                     9
Y605571210045987200909CONSTANTINO                RAMIREZ                    RODRIGO JUAN DE DIOS       00945900000010024112016000  080000009661803                     9
Y605571210039927527273VILLAR                     MUÒOZ                      OSCAR ISMAEL               00945900000010024112016000  080000009661903                     9
Y605571210002167090006CRISTOBAL                  CRUZ                       GERMAN                     00945900000010024112016000  080000011091003                     9
Y605571210094088611515DELGADO                    HUERTA                     EDGAR PABLO                00945900000010024112016000  080000015126203                     9
Y605571210032028206988CASTILLO                   ALAMILLO                   HUGO ALEJANDRO             00945900000010024112016000  080000019093803                     9
Y605571210033018017633GONZALEZ                   ALMEDA                     PEDRO                      00945900000010024112016000  080000019093903                     9
Y605571210049877062585SANTILLAN                  CORPUS                     RUBEN                      00945900000010024112016000  080000019094003                     9
Y605571210083058704681VAZQUEZ                    MORENO                     BENJAMIN                   00945900000010024112016000  080000022053103                     9
Y605571210018169777853SANCHEZ                    HERNANDEZ                  MEHIDA YUSET               00945900000010024112016000  080000023039103                     9
Y605571210084887029043PEREZ                      PEREGRINO                  SATURNINO ELEAZAR          00945900000010024112016000  080000023039203                     9
Y605571210019159133537GOMEZ                      MOHENO                     OVIDIO                     00945900000010024112016000  080000023039303                     9
Y605571210082987949037CHAN                       GUILLERMO                  JOSE GUADALUPE             00945900000010024112016000  080000023039403                     9
Y605571210065866622593CABALLERO                  VERA                       RUFINO                     00945900000010024112016000  080000030129603                     9
Y605571210065078402255DELGADO                    SALINAS                    ABEL                       00945900000010024112016000  080000030129703                     9
Y605571210065109132467GONZALEZ                   MARTINEZ                   MOISES                     00945900000010024112016000  080000030129803                     9
