Y605571210004917072078HERNANDEZ                  TIRADO                     GERARDO                    00945900000010001122016000  080000009665003                     9
Y605571210005149274119VELEZ                      GARCIA                     ANGEL DAVID                00945900000010001122016000  080000009665103                     9
Y605571210037118200882CRUZ                       ROSALINO                   NADIA                      00945900000010001122016000  080000009665203                     9
Y605571210007917508272AGUILAR                    CALDERON                   JOSE ENRIQUE               00945900000010001122016000  080000009665303                     9
Y605571210001755808803SAGAL                      ANDRADE                    RENE                       00945900000010001122016000  080000009665403                     9
Y605571210094048401056RODRIGUEZ                  HIDALGO                    MARCO ARTURO               00945900000010001122016000  080000009665503                     9
Y605571210039008016782ALONSO                     ALVARADO                   EDUARDO                    00945900000010001122016000  080000009665603                     9
Y605571210004169345206AVILA                      SANCHEZ                    PEDRO ADRIAN               00945900000010001122016000  080000009665703                     9
Y605571210030028004403ARZATE                     PAREDES                    MOISES EDUARDO             00945900000010001122016000  080000009665803                     9
Y605571210016126500103PEREZ                      GUEVARA                    ORLANDO                    00945900000010001122016000  080000015144403                     9
Y605571210007987103434GASCA                      RABAGO                     ANGEL GILDARDO             00945900000010001122016000  080000015186403                     9
Y605571210065866726618GRAJALES                   FLORES                     RAMON                      00945900000010001122016000  080000030130603                     9
Y605571210065057506670MARTINEZ                   ZARATE                     ISABEL                     00945900000010001122016000  080000030130703                     9
Y605571210015887106415MARTINEZ                   RODRIGUEZ                  ANGEL                      00945900000010001122016000  080000030130803                     9
