A836767410921846827794MARTINEZ                   VALLES                     SAUL                       00945900000010023052017000  080000002055503                     9
A836767410933079129491CONTRERAS                  ACEVEDO                    FERNANDO                   00945900000010023052017000  080000008074603                     9
A836767410933138401998SIERRA                     SOTO                       RUBEN                      00945900000010023052017000  080000008074703                     9
