Z064567510812058227112MARTINEZ                   REA                        PEDRO OSVALDO              00945900000010011052017000  080000011098503                     9
Z064567510812066003042VILLA                      MORALES                    JUAN JOSE                  00945900000010011052017000  080000011098603                     9
Z064567510812028479983ALCALA                     MARQUEZ                    CARLOS ALBERTO             00945900000010011052017000  080000011098703                     9
Z064567510812079067307DELGADO                    SANCHEZ                    CARLOS ALFREDO             00945900000010011052017000  080000011098803                     9
