Y605571210026149214210RAMIREZ                    MEJIA                      LUIS FELIPE                00945900000010005072017000  080000007019103                     9
Y605571210096077402434ORTEGA                     FLORES                     VIRGINIA                   00945900000010005072017000  080000009716303                     9
Y605571210072078920609HERNANDEZ                  MORALES                    IVAN                       00945900000010005072017000  080000009716403                     9
Y605571210008169161968SOTO                       OLAIZ                      SANDRA ARELY               00945900000010005072017000  080000009716503                     9
Y605571210096028327029ALVARADO                   CONTRERAS                  AMADO GIOVANNI             00945900000010005072017000  080000009716603                     9
Y605571210030896600316SANCHEZ                                               MIGUEL                     00945900000010005072017000  080000009716703                     9
Y605571210008179790434SERRANO                    SANTIAGO                   LUIS ALBERTO               00945900000010005072017000  080000009716803                     9
Y605571210092907207994RODRIGUEZ                  BASURTO                    LILIANA                    00945900000010005072017000  080000015214103                     9
Y605571210094058603195PASCUAL                    SANTIAGO                   MIGUEL                     00945900000010005072017000  080000015214203                     9
Y605571210090887027861AVELAR                     GUTIERREZ                  MARIA GUADALUPE            00945900000010005072017000  080000015214303                     9
Y605571210026159862460REYES                      RIVERA                     STEPHANY                   00945900000010005072017000  080000015214403                     9
Y605571210043028466464RAMIREZ                    VALLE                      JUAN RAMON                 00945900000010005072017000  080000019083803                     9
Y605571210083058528585MONTEJO                    RAMIREZ                    CRISTOBAL                  00945900000010005072017000  080000023048503                     9
Y605571210021907321935FELIX                      VARELA                     SOTERO                     00945900000010005072017000  080000025018003                     9
Y605571210009119601343MORALES                    VAZQUEZ                    JUAN GABRIEL               00945900000010005072017000  080000028041803                     9
Y605571210003159068679SANCHEZ                    SANTOS                     JAIR                       00945900000010005072017000  080000030084703                     9
Y605571210049169648000PEREZ                      CASTILLO                   MARLEN                     00945900000010005072017000  080000030125003                     9
