Y605571210090897157708BAENA                      ZUÑIGA                     JUAN ANTONIO               00945900000010031102016000  080000009653803                     9
Y605571210096149802626MORALES                    DIAZ                       JAVIER                     00945900000010031102016000  080000009653903                     9
Y605571210004149607378MELCHOR                    LARES                      JEAN PAUL BALTAZAR         00945900000010031102016000  080000018001003                     9
Y605571210002157705282HERNANDEZ                  RAMOS                      ADRIANA ARACELI            00945900000010031102016000  080000019091003                     9
Y605571210043856614821RIVERA                     RODRIGUEZ                  VICENTE                    00945900000010031102016000  080000019091103                     9
Y605571210043007830821MARTINEZ                   ALONSO                     MARIANO                    00945900000010031102016000  080000019091203                     9
