Y605571210071098916688VELASCO                    JUAREZ                     BELIN                      00945900000010017082017000  080000007019503                     9
Y605571210014947002979DUEÒAS                     LARQUE                     VERONICA                   00945900000010017082017000  080000009724903                     9
Y605571210039008111583CAZALES                    TAPIA                      BENIGNO FRANCISCO          00945900000010017082017000  080000009725903                     9
Y605571210096917701607MILLAN                     LEON                       GRACIELA                   00945900000010017082017000  080000009726003                     9
Y605571210037098912324GUTIERREZ                  TINOCO                     ABRAHAM                    00945900000010017082017000  080000009726103                     9
Y605571210096098106048CURICHE                    HERNANDEZ                  MARTHA ALICIA              00945900000010017082017000  080000009726203                     9
Y605571210016129336323CARRILLO                   HERNANDEZ                  JOVANI                     00945900000010017082017000  080000015217803                     9
Y605571210067047104046CUAUTLE                    MARTINEZ                   FRANCISCO                  00945900000010017082017000  080000030154403                     9
