Y605571210096087503643LOPEZ                      PALACIOS                   SILVIA                     00945900000010010012017000  080000009675003                     9
Y605571210002168653075ZARZA                      MATA                       JOSE JORGE                 00945900000010010012017000  080000009675103                     9
Y605571210013129506476MENDEZ                     GARCIA                     MIRIAM MARLEN              00945900000010010012017000  080000013013103                     9
Y605571210013008007844MENESES                    DEL ANGEL                  IRMA OLIVA                 00945900000010010012017000  080000013014103                     9
Y605571210018149105704CANO                       JUAREZ                     JOSE ALFREDO               00945900000010010012017000  080000013014403                     9
Y605571210043088509922GONZALEZ                   ESPINOZA                   EDGAR                      00945900000010010012017000  080000013015203                     9
Y605571210047896947984GUZMAN                     CANTU                      ROLANDO                    00945900000010010012017000  080000019002402                     9
Y605571210047058746570DELGADO                    CHAVEZ                     PEDRO                      00945900000010010012017000  080000019098203                     9
Y605571210065139612504LOPEZ                      VALEN                      JOSE LUIS                  00945900000010010012017000  080000022047703                     9
Y605571210014129329208SALAZAR                    ESCOBEDO                   CESAR IVAN                 00945900000010010012017000  080000022055203                     9
Y605571210072029803086CERVANTES                  MARTINEZ                   JESUS OMAR                 00945900000010010012017000  080000022055303                     9
Y605571210002179708264CRUZ                       MARTINEZ                   LUIS MIGUEL                00945900000010010012017000  080000023041203                     9
Y605571210002178805145RODRIGUEZ                  PAHNKE                     SERGIO ANTONIO             00945900000010010012017000  080000024004803                     9
Y605571210041109407415OCHOA                      ROJAS                      EINAR ZURIEL               00945900000010010012017000  080000024004903                     9
