A836767410933988306776GONZALEZ                   VADILLO                    ALEJO                      00945900000010029062016000  080000008048703                     9
A836767410923008575914PAYAN                      AYALA                      JESUS MANUEL               00945900000010029062016000  080000008049103                     9
A836767410933109002296LOPEZ                      MARTINEZ                   LORENA ANGELINA            00945900000010029062016000  080000008049203                     9
A836767410978855900912MARTINEZ                   ORTIZ                      DANIEL                     00945900000010029062016000  080000008049303                     9
A836767410933887235001OLAYO                      MARTINEZ                   CLAUDIA BEATRIZ            00945900000010029062016000  080000008049403                     9
A836767410933119382670LUJAN                      MARTINEZ                   ANDRES IGNACIO             00945900000010029062016000  080000008049503                     9
A836767410903168407181SANCHEZ                    CHAVARRIA                  RAYMUNDO                   00945900000010029062016000  080000008049603                     9
A836767410933867132293SANCHEZ                    CHACON                     JULIAN ANGEL               00945900000010029062016000  080000008049703                     9
A836767410933139203922CARRILLO                   ROSAS                      CHRISTIAN IVAN             00945900000010029062016000  080000008049803                     9
A836767410944149308486ENRIQUEZ                   CISNEROS                   MIGUEL ANGEL               00945900000010029062016000  080000008049903                     9
