Y605571210042977609165CARDENAS                   LEONOR                     JUAN LUIS                  00945900000010030092016000  080000009648203                     9
Y605571210004139846747GUTIERREZ                  CHIMAL                     MISSAEL                    00945900000010030092016000  080000011089903                     9
Y605571210065128719161NUÑEZ                      CARDEÑA                    BALDEMAR                   00945900000010030092016000  080000019088303                     9
Y605571210071109221961GONZALEZ                   ROBLEDO                    BACILIO RUDIEL             00945900000010030092016000  080000023028903                     9
Y605571210082129510473AKE                        MAY                        JORGE ALEJANDRO            00945900000010030092016000  080000023034803                     9
Y605571210003149591152VELAZQUEZ                  ULIN                       ALEXANDER                  00945900000010030092016000  080000023034903                     9
Y605571210025169394548MORALES                    VELAZQUEZ                  DORA ALICIA                00945900000010030092016000  080000023035003                     9
Y605571210019169759552CHUNAB                     TUN                        RUSSEL RODOLFO             00945900000010030092016000  080000023035103                     9
Y605571210064169296148MENDEZ                     GOMEZ                      DARVEY                     00945900000010030092016000  080000023035203                     9
Y605571210001785990084HUCHIN                     OXTE                       CELSO ELIEZER              00945900000010030092016000  080000023035303                     9
Y605571210066149694334GARCIA                     CRUZ                       FREDY HUMBERTO             00945900000010030092016000  080000023035403                     9
Y605571210049169611875ASCENCIO                   ARCOS                      GUILLERMO                  00945900000010030092016000  080000023035503                     9
Y605571210081139001895LOPEZ                      LUNA                       ARELY MIGUELINA            00945900000010030092016000  080000023035603                     9
