Y607431310445129232760RAMIREZ                    CENTENO                    JONATHAN ALFREDO           02612100000010015022024000  080000009032203                     9
Y607431310496998023996DOMINGUEZ                  MARIN                      ISRAEL                     02612100000010015022024000  080000009032303                     9
Y607431310401897162713GARAY                      JIMENEZ                    JULIETA                    02612100000010015022024000  080000009032403                     9
