Y605571210020937701272ESCOBAR                    CORRAL                     ALEJANDRO                  00945900000010008022017000  080000009630203                     9
Y605571210001169698618MARTINEZ                   RODRIGUEZ                  EDWIN ANTONIO              00945900000010008022017000  080000009681903                     9
Y605571210044149420992MORALES                    LAZARO                     JESUS                      00945900000010008022017000  080000009682003                     9
Y605571210068149516699HERNANDEZ                  ROMERO                     DANIEL ALBERTO             00945900000010008022017000  080000009682103                     9
Y605571210035169755127TORRES                     OSORIO                     KEVIN                      00945900000010008022017000  080000009682203                     9
Y605571210017159352156RAMOS                      DIAZ                       EDILBERTO                  00945900000010008022017000  080000009682303                     9
Y605571210020947812002VALLEJO                    AVELAR                     BERENICE                   00945900000010008022017000  080000015191103                     9
Y605571210065877019904ACEVEDO                    JUAREZ                     EVERARDO                   00945900000010008022017000  080000015191203                     9
Y605571210005179849756ESCOBAR                    VALLEJO                    EDWIN JONATHAN             00945900000010008022017000  080000015191303                     9
Y605571210094119293739RAMIREZ                    MENDOZA                    JOSE ARMANDO               00945900000010008022017000  080000015191403                     9
Y605571210045109121769TREJO                      ARIZMENDI                  ALEJANDRO RODRIGO          00945900000010008022017000  080000015191503                     9
Y605571210048936830958CLEMENTE                   VARGAS                     EFRAIN                     00945900000010008022017000  080000015191603                     9
Y605571210043776207128LUCIO                      CAVAZOS                    JAIME                      00945900000010008022017000  080000019064503                     9
Y605571210001795723442PEREZ                      GARCIA                     MAXIMINO                   00945900000010008022017000  080000019101603                     9
Y605571210049876208353MARQUEZ                    GOMEZ                      GUADALUPE MARTIN           00945900000010008022017000  080000028039103                     9
