Y605571210020109304210ZEPEDA                     PUEBLA                     OMAR                       00945900000010003012017000  080000009648603                     9
Y605571210096127702270SANCHEZ                    DIAZ                       IMELDA                     00945900000010003012017000  080000009672903                     9
Y605571210039008012518HERNANDEZ                  GONZALEZ                   YENNY                      00945900000010003012017000  080000009673003                     9
Y605571210063149584896VEGA                       MORALES                    MERCEDES AYLIN             00945900000010003012017000  080000009673103                     9
Y605571210028008014244EMIGDIO                    VAZQUEZ                    ERIKA                      00945900000010003012017000  080000009673203                     9
Y605571210030108302925GONZALEZ                   HERNANDEZ                  ENRIQUE                    00945900000010003012017000  080000009673303                     9
Y605571210043876207465SILVA                      LARA                       FELICIANO                  00945900000010003012017000  080000019089203                     9
Y605571210065907127693MARURI                     GOMEZ                      JULIO CESAR                00945900000010003012017000  080000019097003                     9
Y605571210014119309681PATIÒO                     ALVAREZ                    FRANCISCO JAVIER           00945900000010003012017000  080000022054703                     9
Y605571210015118905122SANCHEZ                    MARQUINA                   MARIA YULIANA              00945900000010003012017000  080000022054803                     9
