Y605571210045937642853LOPEZ                      MARTINEZ                   JOSE MIGUEL                00945900000010016012017000  080000009668803                     9
Y605571210018159452707HERNANDEZ                  GUTIERREZ                  MONICA YADIRA              00945900000010019012017000  080000009677103                     9
Y605571210024149701666CABALLERO                  LOPEZ                      YADIRA                     00945900000010019012017000  080000013016503                     9
Y605571210042806700151CRUZ                       BARRON                     JORGE                      00945900000010019012017000  080000015113103                     9
Y605571210035149545135AZUETA                     AMBROSIO                   DANIEL                     00945900000010019012017000  080000019099303                     9
Y605571210043785828088VASQUEZ                    CORONADO                   MARIA DE LOURDES           00945900000010019012017000  080000019099403                     9
Y605571210043937552818NAJERA                     SALAZAR                    MATIAS                     00945900000010019012017000  080000019099503                     9
Y605571210043986200830TRUJILLO                   VILLARREAL                 DORA ELIA                  00945900000010019012017000  080000019099603                     9
Y605571210023139556502GUTIERREZ                  NOYOLA                     VICTOR MANUEL              00945900000010019012017000  080000022055503                     9
Y605571210002169841984TORRES                     MENDEZ                     GUSTAVO                    00945900000010019012017000  080000030133603                     9
