Y605571210030109103470ALVAREZ                    MOSCO                      JOSE GUADALUPE             00945900000010011042017000  080000009042702                     9
Y605571210002178945974RIVERA                     ROSAS                      FERNANDO                   00945900000010011042017000  080000009694703                     9
Y605571210096048539108GARCIA                     GALINDO                    FERNANDO EMMANUEL          00945900000010011042017000  080000009694803                     9
Y605571210092078954507GARCIA                     MANCILLA                   MARCO ANTONIO              00945900000010011042017000  080000015201403                     9
Y605571210001088907421CASTA—EDA                  PINEDA                     MARIANA                    00945900000010011042017000  080000015201503                     9
Y605571210092119232715FLANDES                    MARCOS                     CLAUDIA                    00945900000010011042017000  080000015201603                     9
Y605571210002176120174ALVIRDE                    SALVADOR                   LAURA CONSUELO             00945900000010011042017000  080000015201803                     9
Y605571210002166449781ALONZO                     GARCIA                     ADAN                       00945900000010011042017000  080000019107503                     9
Y605571210043775733082VAZQUEZ                    VAZQUEZ                    RUBEN                      00945900000010011042017000  080000019107603                     9
Y605571210043129623385ORTIZ                      DIAZ                       MIGUEL ANGEL               00945900000010011042017000  080000019107703                     9
Y605571210010159493963OCAÒA                      NAVARRETE                  LUIS ENRIQUE               00945900000010011042017000  080000022060503                     9
