A836767410935978026785CARDENAS                   GUARDIOLA                  RAMON ARTURO               00945900000010022112016000  080000008065503                     9
A836767410950897256405HERRERA                    CONTRERAS                  ENRIQUE                    00945900000010022112016000  080000008065603                     9
A836767410933048860572LOPEZ                      GUZMAN                     JOSE ARTURO                00945900000010022112016000  080000008065703                     9
A836767410933129464237CHACON                     ELIZALDE                   FERNANDO ARTURO            00945900000010022112016000  080000008065803                     9
