Y605571210081975701392DE LA CRUZ                 SUAREZ                     LUIS                       00945900000010023122016000  080000004010203                     9
Y605571210030047901498GONZALEZ                   DE JESUS                   VICTOR HUGO                00945900000010019122016000  080000009041202                     9
Y605571210016998044842LAZCANO                    NUÒEZ                      JOSE HERIBERTO             00945900000010023122016000  080000011083103                     9
Y605571210012129446410ABREGO                     HERNANDEZ                  JOSE DE JESUS              00945900000010023122016000  080000011092003                     9
Y605571210072887037785FLORES                     CEBRERO                    ROMAN                      00945900000010023122016000  080000012011703                     9
Y605571210014856709309SANCHEZ                    TORRES                     J GUADALUPE                00945900000010023122016000  080000022054103                     9
Y605571210021119411466VAZQUEZ                    CISNEROS                   JOSE DAVID                 00945900000010023122016000  080000023040403                     9
Y605571210040169845886PEREZ                      DE SANTIAGO                IRVIN ISAAC                00945900000010023122016000  080000024004703                     9
Y605571210023796007948LEYVA                      FAVELA                     RAMON DE JESUS             00945900000010023122016000  080000025011603                     9
Y605571210009119270602VILLA                      HERNANDEZ                  ROBERTO                    00945900000010021122016000  080000028037203                     9
