Y462621510903157850672BAUTISTA                   GAONA                      JOSE                       00945900000010008032017000  080000021165703                     9
Y462621510926149221843SUMUANO                    CORTEZ                     ABRAHAM                    00945900000010008032017000  080000021165803                     9
Y462621510967038800370JIMENEZ                    VICENTE                    HIRAM                      00945900000010008032017000  080000021165903                     9
Y462621510948129267935GARCIA                     LOPEZ                      OMAR                       00945900000010008032017000  080000021166003                     9
