Y605571210003158385462VEGA                       GOMEZ                      JOSE SANTIAGO              00945900000010019082016000  080000001008603                     9
Y605571210003169300781SALDIVAR                   REYES                      RAMIRO                     00945900000010019082016000  080000001008703                     9
Y605571210096078602420CRUZ                       CORTES                     SONIA ELIZABETH            00945900000010019082016000  080000009638403                     9
Y605571210096058622364JUAREZ                     GARCIA                     JONATHAN EMMANUEL          00945900000010019082016000  080000009638503                     9
Y605571210020988106082ALVAREZ                    CARMONA                    GUILLERMO AGUSTIN          00945900000010019082016000  080000009638603                     9
Y605571210027169564419TORRES                     TRUJILLO                   ABIGAIL DENI               00945900000010019082016000  080000009638703                     9
Y605571210096098708009PEREZ                      VILLANUEVA                 ARMANDO                    00945900000010019082016000  080000009638803                     9
Y605571210090099113996FERRER                     SANCHEZ                    ALEJANDRA IVONNE           00945900000010019082016000  080000009638903                     9
Y605571210066149626203JIMENEZ                    RIVERA                     MARIA DE JESUS             00945900000010019082016000  080000009639003                     9
Y605571210039907302333GONZALEZ                   CARRASCO                   JORGE                      00945900000010019082016000  080000009639103                     9
Y605571210044149381996GARCIA                     AGUILAR                    LUIS EDUARDO               00945900000010019082016000  080000009639203                     9
Y605571210016987801822MAÒON                      GUTIERREZ                  JESUS ALBERTO              00945900000010019082016000  080000011000802                     9
Y605571210012068964555MELENDEZ                   PADILLA                    LUZ ADRIANA                00945900000010019082016000  080000011000902                     9
Y605571210012047205088RUIZ                       VARGAS                     SARA                       00945900000010019082016000  080000011088503                     9
Y605571210042917335459AYALA                      VILLARRUEL                 CLARA                      00945900000010019082016000  080000015180403                     9
Y605571210023109318925BEJARANO                   ROMERO                     ANTONIO GUADALUPE          00945900000010019082016000  080000025007603                     9
Y605571210023967711286VALENZUELA                 ARCE                       JOSE ANGEL                 00945900000010019082016000  080000025007703                     9
Y605571210021977616529RAMIREZ                    BAZAN                      JOSE MANUEL                00945900000010019082016000  080000025007803                     9
Y605571210003169784653ZAPOT                      AMBROSIO                   SURI SADAY                 00945900000010019082016000  080000030103703                     9
