Y702574710184046500157TAPIA                      CANTO                      VICTOR FABIAN DE JESUS     00945900000010028072016000  080000031023303                     9
Y702574710154169847438GARCIA                     SERRAT                     MAURO DANIEL               00945900000010028072016000  080000031028703                     9
Y702574710184937702979MORA                       GARRIDO                    RODRIGO                    00945900000010028072016000  080000031028803                     9
