Y462621510948138101497JIMENEZ                    MARTINEZ                   JOSE ELOY                  00945900000010013062016000  080000021135303                     9
Y462621510962826510505CORDERO                    HERNANDEZ                  ARIEL                      00945900000010013062016000  080000021149003                     9
Y462621510902157612983ANTONIO                    GARCIA                     CLEMENTE                   00945900000010013062016000  080000021149103                     9
