Y605571210075866514864VERA                       AVALOS                     GRACIELA EDIT              00945900000010003052016000  080000009607803                     9
Y605571210028129108974TAPIA                      ZAMORANO                   OCTAVIO DANIEL             00945900000010003052016000  080000009614803                     9
Y605571210045118607790ORTIZ                      ARENAS                     GIOVANNI                   00945900000010003052016000  080000009615103                     9
Y605571210042018320947NAVARRETE                  GALEANA                    XAVIER                     00945900000010003052016000  080000009615203                     9
Y605571210015906826175GUTIERREZ                  MARTINEZ                   MIGUEL                     00945900000010003052016000  080000009615303                     9
Y605571210072058613372TORRES                     CARRANZA                   BLANCA NIEVES              00945900000010003052016000  080000009615403                     9
Y605571210025169691406GONZALEZ                   RAMIREZ                    ERICK OMAR                 00945900000010003052016000  080000009615503                     9
Y605571210012998179316MOSQUEDA                   MARTINEZ                   MARIA DEL ROSARIO          00945900000010003052016000  080000011080303                     9
Y605571210019149521643MUJICA                     ARCHUNDIA                  ANGEL                      00945900000010003052016000  080000015094603                     9
Y605571210010785946566DE LA VEGA                 ZERMEÑO                    GUILLERMO MARIANO          00945900000010003052016000  080000022042803                     9
Y605571210065988129188TOTO                       SOSME                      JORGE                      00945900000010003052016000  080000030103903                     9
Y605571210065907282217TORRES                     BERNAL                     ARTURO                     00945900000010003052016000  080000030115203                     9
