A836767410902177452642MENDEZ                     ARZATE                     JOSE ALEJANDRO             00945900000010015062017000  080000002056703                     9
A836767410924107303638MENDEZ                     JACOB                      ANTONIO ROSELIN            00945900000010015062017000  080000002056803                     9
A836767410908169741686ZACARIAS                   FLORES                     LUIS FERNANDO              00945900000010015062017000  080000002056903                     9
A836767410910159988103QUINTERO                   SOTO                       URIEL GERARDO              00945900000010015062017000  080000008075703                     9
