Y605571210083058701810CARBONELL                  LOPEZ                      JULIO ADRIAN               00945900000010019102016000  080000004008903                     9
Y605571210049159653135DIAZ                       MARTINEZ                   ESTEBAN JOSE               00945900000010019102016000  080000004009003                     9
Y605571210028089015011IGNACIO                    MORALES                    ANDRES CARLOS              00945900000010019102016000  080000009651403                     9
Y605571210096988024129GUZMAN                     ROQUE                      FANNY                      00945900000010019102016000  080000009651503                     9
Y605571210005168758000TORRES                     CAMACHO                    VIRGINIA                   00945900000010019102016000  080000011090303                     9
Y605571210016139440297FLORES                     GUADARRAMA                 ABRAHAM MAURICIO           00945900000010019102016000  080000015183603                     9
Y605571210094127502089MONCLOVA                   MONTES                     ARACELI DEL PILAR          00945900000010019102016000  080000015183703                     9
Y605571210043109309807VAZQUEZ                    ROJAS                      JOSE ANTONIO               00945900000010019102016000  080000019002302                     9
Y605571210043796401396HERNANDEZ                  LOPEZ                      RAMON ELADIO               00945900000010019102016000  080000019089703                     9
Y605571210034169658811MORALES                    FLORES                     IRMA                       00945900000010019102016000  080000019089803                     9
Y605571210065967975841TOME                       ZAPO                       JORGE                      00945900000010019102016000  080000030127003                     9
