Y605571210019149217911JUAN                       BERNABE                    GAMALIEL                   00945900000010027042017000  080000009699903                     9
Y605571210001119217766SOLACHE                    HERNANDEZ                  MANOLO MARTIN              00945900000010027042017000  080000009700003                     9
Y605571210005168501335VALDEZ                     RECENDIZ                   GIAN CARLOS                00945900000010027042017000  080000015205203                     9
Y605571210026169727141SANCHEZ                    GUTIERREZ                  VICENTE                    00945900000010027042017000  080000015205303                     9
Y605571210016129251274DE LA CRUZ                 ROMERO                     JOSE EDUARDO               00945900000010027042017000  080000015205403                     9
Y605571210043998507180SALVADOR                   CRUZ                       SANDRA NELLY               00945900000010027042017000  080000019109703                     9
Y605571210007927316351JIMENEZ                    HERNANDEZ                  JAIME                      00945900000010027042017000  080000022060903                     9
Y605571210051996802586AQUINO                     NUÑEZ                      MARIA MAGDALENA            00945900000010027042017000  080000022061003                     9
Y605571210023796306225LOPEZ                      ROSAS                      MARCO ANTONIO              00945900000010027042017000  080000025015703                     9
Y605571210009129483377CHAPA                      SANCHEZ                    JESUS NATANAEL             00945900000010027042017000  080000028036203                     9
