Y605571210021109350609GARCIA                     ALANIS                     JOSE MANUEL                01194600000010006072016000  080000002045103                     9
Y605571210096139364259OSORIO                     CERVANTES                  JOSE ANTONIO               00945900000010006072016000  080000009603603                     9
Y605571210015139871279YARZA                      PEREZ                      KARLA PATRICIA             00945900000010006072016000  080000009624303                     9
Y605571210045099172186ALVAREZ                    CRUZ                       RAUL                       00945900000010006072016000  080000009624403                     9
Y605571210008159527871ROMERO                     PEREZ                      TERRY A.                   00945900000010006072016000  080000009624503                     9
Y605571210045139126549TOMAS                      MENDEZ                     RUBEN MARCOS               00945900000010006072016000  080000009624603                     9
Y605571210042907011037ROSAS                      HERNANDEZ                  CARLOS                     00945900000010006072016000  080000009624703                     9
Y605571210045079108846REA                        GONZALEZ                   CESAR ALEJANDRO            00945900000010006072016000  080000009624803                     9
Y605571210065988248897COTO                       POXTAN                     RAUL ANTONIO               00945900000010006072016000  080000011085603                     9
Y605571210021159773194GUTIERREZ                                             JOSE CARMEN                00945900000010006072016000  080000011085703                     9
Y605571210013129506476MENDEZ                     GARCIA                     MIRIAM MARLEN              00945900000010006072016000  080000013013103                     9
Y605571210013098903753JUAREZ                     HERNANDEZ                  MARICELA                   00945900000010006072016000  080000013013203                     9
Y605571210016119153175PEREA                      HERNANDEZ                  MARCO ANTONIO              00945900000010006072016000  080000015155103                     9
Y605571210007007404077LLAMAS                     MUÒOZ                      FRANCISCO JAVIER           00945900000010006072016000  080000015177803                     9
Y605571210018856701257BERMUDEZ                   ESTRELLA                   AURELIO                    00945900000010006072016000  080000015177903                     9
Y605571210072129009246RADILLA                    PANO                       NATALI                     00945900000010006072016000  080000022047003                     9
Y605571210050149658085ORTEGA                     HERNANDEZ                  CRISTOBAL ALEJANDRO        00945900000010006072016000  080000022047103                     9
