Y605571210006785951747OLAYO                      GARCIA                     JOSE DEL REFUGIO           01194600000010029062016000  080000002049003                     9
Y605571210021018488482RIOS                       RUIZ                       ALEJANDRO                  01194600000010029062016000  080000002049103                     9
Y605571210001038706733ANGELES                    BLANCAS                    DANIEL BRIAN               00945900000010029062016000  080000009554003                     9
Y605571210060149665550PARCERO                    JIMENEZ                    ANAYELI                    00945900000010029062016000  080000009597303                     9
Y605571210045078927790GARRIDO                    FARIAS                     JAVIER IVAN                00945900000010029062016000  080000009621703                     9
Y605571210039088808751RUIZ                       MACHUCA                    JESUS RAUL                 00945900000010029062016000  080000009622003                     9
Y605571210092129126311ORTEGA                     ORTEGA                     JORGE                      00945900000010029062016000  080000009622103                     9
Y605571210094089042173HERNANDEZ                  BERRIOS                    RICARDO ALONSO             00945900000010029062016000  080000009622203                     9
Y605571210096058748334ROJAS                      TENORIO                    DAGOBERTO                  00945900000010029062016000  080000009622303                     9
Y605571210094067400815MOLINA                     GOMEZ                      FRANCISCO RAMIRO           00945900000010029062016000  080000009622403                     9
Y605571210092098902569VILLARREAL                 CASASOLA                   MARIA DE LOS ANGELES       00945900000010029062016000  080000009622503                     9
Y605571210008149246095ROSALES                    ANDRADE                    CRUZ ANTONIO               00945900000010029062016000  080000011085103                     9
Y605571210013129222348LOPEZ                      FUENTES                    LUIS ANTONIO               00945900000010029062016000  080000013012703                     9
Y605571210013937537085HERNANDEZ                  CASTRO                     MAGNO                      00945900000010029062016000  080000013012803                     9
Y605571210090138800512VALERIANO                  RIVEROS                    AGUSTIN VICENTE            00945900000010029062016000  080000015177203                     9
Y605571210008149738091NARVAEZ                    MONROY                     JUAN JOSE                  00945900000010029062016000  080000015177303                     9
Y605571210092897207533OLIVA                      LAGUNA                     MIGUEL ANGEL               00945900000010029062016000  080000015177403                     9
Y605571210092129600778CRUZ                       GONZALEZ                   JHOSELINE ARLETTE          00945900000010029062016000  080000015177503                     9
Y605571210043957856016OSUNA                      COLUNGA                    LUIS RAMON                 00945900000010029062016000  080000019081603                     9
Y605571210084775904083RODRIGUEZ                  PEREZ                      RENE                       00945900000010029062016000  080000023029603                     9
Y605571210021087707689RODRIGUEZ                  MERCADO                    MIGUEL                     00945900000010029062016000  080000028030603                     9
