A836767410935947670515REYES                      ORNELAS                    JESUS                      00945900000010011052016000  080000008042803                     9
A836767410933937683820BARRAZA                    GARCIA                     ERNESTO ALONSO             00945900000010011052016000  080000008042903                     9
A836767410918149228365PORRAS                     ORTEGA                     AGUSTIN                    00945900000010011052016000  080000008043003                     9
A836767410931036700842FAVELA                     RIVAS                      JOSE GUADALUPE             00945900000010011052016000  080000008043103                     9
