Y462621510910169129284MARTINEZ                   MORALES                    GABRIEL DE JESUS           00945900000010019072016000  080000021150303                     9
Y462621510924169402286FLORES                     MARTINEZ                   EMMANUEL                   00945900000010019072016000  080000021150403                     9
Y462621510962907431043ZAMORANO                   MORALES                    ULISES                     00945900000010019072016000  080000021150503                     9
