D6919590101 78058714037SANTOS                     PEREZ                      MARCO ANTONIO              00945900000010001072016000  080000020007303                     9
D6919590101 78138304189FIGUEROA                   REYES                      CRISTINO                   00945900000010001072016000  080000020009603                     9
D6919590101 21896624612PACHECO                    BORJA                      ARGIMIRO EVELIO            00945900000010001072016000  080000020011003                     9
D6919590101 78038802019MONRAGA                    SANCHEZ                    FELIPE DE JESUS            00945900000010001072016000  080000020011303                     9
D6919590101 78977682430CRUZ                       ALBERTO                    SABEL                      00945900000010001072016000  080000020015703                     9
D6919590101 78107901213RUIZ                       LOPES                      TOMAS                      00945900000010001072016000  080000020015803                     9
D6919590101 35149478535MORALES                    HERNANDEZ                  GREGORIO NICOLAS           00945900000010001072016000  080000020017603                     9
D6919590101 78008235752MORALES                    RUIZ                       HUMBERTO                   00945900000010001072016000  080000020018803                     9
D6919590101 78128200827DIAZ                       RAMIREZ                    REYNALDO                   00945900000010001072016000  080000020019503                     9
D6919590101 78107000735PIMENTEL                   HERNANDEZ                  JAIME                      00945900000010001072016000  080000020019903                     9
D6919590101 78957709484CRUZ                       CRUZ                       JESUS ANTONIO              00945900000010001072016000  080000020021303                     9
D6919590101 78017106507RODRIGUEZ                  CARREON                    RAFAEL ELEAZAR             00945900000010001072016000  080000020021903                     9
D6919590101 78139310425LOPEZ                      MARTINEZ                   MARCO ANTONIO              00945900000010001072016000  080000020022103                     9
D6919590101 78856504127ZARATE                     MENDEZ                     JORGE                      00945900000010001072016000  080000020022203                     9
D6919590101 78907409706CRUZ                       LOPEZ                      VICTOR HUGO                00945900000010001072016000  080000020022303                     9
D6919590101 71988026770RODAS                      CARDENAS                   MARCO POLO                 00945900000010001072016000  080000020022503                     9
D6919590101 72947748181MORALES                    GUATEMALA                  HUGO                       00945900000010001072016000  080000020022903                     9
D6919590101 78088417403PEREZ                      MORENO                     ADALBERTO                  00945900000010001072016000  080000020023103                     9
D6919590101 78139333690VAZQUEZ                    GALLEGOS                   FRANCISCO JAVIER           00945900000010001072016000  080000020023203                     9
D6919590101 78906601618ROSAS                      LOPEZ                      REYNALDO                   00945900000010001072016000  080000020023303                     9
D6919590101 78129240624MARTINEZ                   GARNICA                    GUILLERMO                  00945900000010001072016000  080000020023603                     9
D6919590101 78108807286CUEVAS                     MILATO                     RUBEN                      00945900000010001072016000  080000020023803                     9
D6919590101 78129230872MONTES                     VAZQUEZ                    GUILLERMO ENRIQUE          00945900000010001072016000  080000020023903                     9
D6919590101 78866718808FABIAN                     HERNANDEZ                  JULIAN                     00945900000010001072016000  080000020024003                     9
D6919590101 03169341876ROJAS                      ROJAS                      JESUS ALBERTO              00945900000010001072016000  080000020024103                     9
D6919590101 78866706563BOHORQUEZ                  RODRIGUEZ                  GABINO                     00945900000010001072016000  080000020024203                     9
D6919590101 03169037987RAMIREZ                    JUAREZ                     JUAN JOSE                  00945900000010001072016000  080000020024403                     9
D6919590101 78078506611GONZALES                   SANTOS                     SADOT                      00945900000010001072016000  080000020024803                     9
D6919590101 78109003141GUZMAN                     SANTAELLA                  JOSE ANTONIO               00945900000010001072016000  080000020025003                     9
D6919590101 10836439769JUAREZ                     DE LOS SANTOS              JULIO CESAR                00945900000010001072016000  080000020025203                     9
D6919590101 78906921768VAZQUEZ                    LOPEZ                      JAVIER                     00945900000010001072016000  080000020025303                     9
