Y605571210071108919714GOMEZ                      SANTIZ                     AURELIO                    00945900000010013022017000  080000007014603                     9
Y605571210096109200376CID                        MARTINEZ                   LUIS ENRIQUE               00945900000010013022017000  080000009683503                     9
Y605571210096099213645LOPEZ                      RAMIRO                     LOURDES BELEN              00945900000010013022017000  080000009683603                     9
Y605571210092058525954BENITEZ                    SANTOS                     ANA DELHI                  00945900000010013022017000  080000015191903                     9
Y605571210094926800288GUERRERO                   MUÒOZ                      FIDEL                      00945900000010013022017000  080000015192003                     9
Y605571210002179475559CARRILLO                   HERNANDEZ                  DANIELA                    00945900000010013022017000  080000015192203                     9
Y605571210043139417505ESCOBAR                    CANDANOSA                  LUIS ARMANDO               00945900000010013022017000  080000019102003                     9
Y605571210005179887517NIETO                      MORALES                    JOSE RODOLFO               00945900000010013022017000  080000022057203                     9
Y605571210082088966971RODRIGUEZ                  GARCIA                     SERAPIO                    00945900000010013022017000  080000023042303                     9
Y605571210023735701098ALVAREZ                    BARRON                     JUAN ANTONIO               00945900000010013022017000  080000025013003                     9
