Y605571210045886611206DEL TORO                   MENDEZ                     RICARDO                    00945900000010002042016000  080000009603903                     9
Y605571210094998106275BENITEZ                    HERNANDEZ                  JUAN                       00945900000010012042016000  080000015087803                     9
Y605571210094099212956RIVAS                      DIAZ                       FIDEL                      00945900000010002042016000  080000015167103                     9
