A836767410955018101281CASTRO                     RUIZ                       LUIS ALBERTO               00945900000010031052017000  080000002056203                     9
A836767410933806230927GOMEZ                      AVIÑA                      RAMON                      00945900000010031052017000  080000008075003                     9
A836767410966149695034VALENCIA                   SANCHEZ                    ROGELIO                    00945900000010031052017000  080000008075103                     9
A836767410933987708956FLORIDO                    MONTERO                    JOSE ANGEL                 00945900000010031052017000  080000008075203                     9
A836767410950887151095CHAVEZ                     REYES                      JOSE DE LA LUZ             00945900000010031052017000  080000008075303                     9
