Z064567510817816239507ROBLES                                                ESTEBAN REYNALDO           00945900000010013072017000  080000011101603                     9
Z064567510814876603888SORIA                      CARDENAS                   JOSE NORBERTO              00945900000010013072017000  080000011101703                     9
Z064567510812907531979BANDA                      VAZQUEZ                    CIRILO                     00945900000010013072017000  080000011101803                     9
Z064567510812937700891MARTINEZ                   MENDOZA                    ANA LETICIA                00945900000010013072017000  080000011101903                     9
Z064567510855048501856CARRILLO                   CONTRERAS                  EDGAR FRANCISCO            00945900000010013072017000  080000011102003                     9
