Y605571210042078901669HERNANDEZ                  MONTAÑO                    OMAR OSIRIS ATLETL         00945900000010027092016000  080000009039902                     9
Y605571210002167284492ARREGUIN                   GONZALEZ                   SALVADOR                   00945900000010027092016000  080000009647503                     9
Y605571210011007813949FERNANDEZ                  SANTILLAN                  CARLOS ALBERTO             00945900000010027092016000  080000009647603                     9
Y605571210098169821497HERNANDEZ                  HERNANDEZ                  DIANEL BENICIO             00945900000010027092016000  080000009647703                     9
Y605571210041826200572CASTELLANOS                NARVAEZ                    JOSE ALFREDO               00945900000010027092016000  080000011089803                     9
Y605571210092927506219LARA                       GOMEZ                      KARIM                      00945900000010027092016000  080000015182403                     9
Y605571210094947629450OCHOA                      LOZANO                     JUAN CARLOS                00945900000010027092016000  080000015182503                     9
Y605571210053997307128PEREZ                      VARGAS                     CUAUHTEMOC                 00945900000010027092016000  080000016008803                     9
Y605571210002167278023AREVALO                    FLORES                     SERGIO                     00945900000010027092016000  080000016008903                     9
Y605571210019159402825SILVA                      DE LA ROSA                 JOSE ANGEL                 00945900000010027092016000  080000016009003                     9
Y605571210002169446313CRISTIN                    BARRAZA                    JESUS ALBERTO              00945900000010027092016000  080000025009803                     9
Y605571210007916906782MORENO                     BURGOS                     GERARDO ARTURO             00945900000010027092016000  080000027058803                     9
Y605571210065977117434CERVANTES                  MORALES                    ALBERTO                    00945900000010027092016000  080000030125703                     9
Y605571210028007907992CALIX                      CARLIN                     TANIA FABIOLA              00945900000010027092016000  080000030125803                     9
Y605571210065139506102HERRERA                    GARCIA                     BENJAMIN                   00945900000010027092016000  080000030125903                     9
