A836767410921119283899LEON                       ALONSO                     DANIEL                     00945900000010012072017000  080000002059403                     9
A836767410909139679048MENDEZ                     HERNANDEZ                  GABRIELA                   00945900000010012072017000  080000002059503                     9
A836767410925947810070CIGARROA                   SALVADOR                   JOEL                       00945900000010012072017000  080000002059603                     9
A836767410902177668163ZARATE                     QUIROZ                     ARTURO                     00945900000010012072017000  080000002059703                     9
A836767410902177882400ROMERO                     LEMUS                      ALBERTO                    00945900000010012072017000  080000008077103                     9
A836767410903149889341PRIMERO                    AROS                       CRISTIAN ISSAC             00945900000010012072017000  080000008077203                     9
