A836767410953998213341PECINA                     GARCIA                     DAVID LEONARDO             00945900000010009082017000  080000002062103                     9
A836767410925937708375LORA                       CARREÒO                    LEOBARDO                   00945900000010009082017000  080000002062203                     9
A836767410918179908175CHAVEZ                     VAZQUEZ                    FERNANDO MANUEL            00945900000010009082017000  080000002062303                     9
A836767410967139310139VAZQUEZ                    ZACARIAS                   EDGAR                      00945900000010009082017000  080000008058703                     9
