Y462621510962988001103BOLAÑOS                    HERNANDEZ                  DOMINGO                    00945900000010019102016000  080000021156703                     9
Y462621510948027510832NUÑEZ                      GONZALEZ                   HECTOR                     00945900000010019102016000  080000021156803                     9
Y462621510910169618484VILLAR                     VALENCIA                   ENRIQUE OSVALDO            00945900000010019102016000  080000021156903                     9
