Z064567510842916407580SALAZAR                    RAMIREZ                    MARIA CANDELARIA           00945900000010012072017000  080000011101303                     9
Z064567510812079049966ENCINO                     GARCIA                     PEDRO DE JESUS             00945900000010012072017000  080000011101403                     9
Z064567510812129299009GOMEZ                      GOMEZ                      NERY MAURICIO              00945900000010012072017000  080000011101503                     9
