Y605571210025159895736DE LIRA                    LUNA                       LUIS DANIEL                00945900000010025012017000  080000001009203                     9
Y605571210037937423228BUENO                      SOTO                       MARIA GUADALUPE            00945900000010025012017000  080000007002002                     9
Y605571210045129418062RICO                       ALVAREZ                    ISMAEL                     00945900000010025012017000  080000009041902                     9
Y605571210030997908444FLORES                     SILVA                      FRANCISCO                  00945900000010025012017000  080000009592403                     9
Y605571210096139316051MARTINEZ                   AMARO                      FRANCISCO JAVIER           00945900000010025012017000  080000009678703                     9
Y605571210037977736257GOMEZ                      ALVA                       JOSE ANTONIO               00945900000010025012017000  080000009678803                     9
Y605571210045039300194FERNANDEZ                  SUAREZ                     CARLOS RAFAEL              00945900000010025012017000  080000009678903                     9
Y605571210042119109660PADILLA                    DELGADO                    OSCAR                      00945900000010025012017000  080000009679003                     9
Y605571210042978100800DIAZ                       MINO                       OMAR JAVIER                00945900000010025012017000  080000009679103                     9
Y605571210016866701036FERNANDEZ                  RIVERA                     FERMIN                     00945900000010025012017000  080000015189203                     9
Y605571210092907210949ARMENTA                    GONZALEZ                   FERNANDO                   00945900000010025012017000  080000015189403                     9
Y605571210002179462631BARRERA                    FLORES                     JUAN                       00945900000010025012017000  080000016010103                     9
Y605571210049907270893MARTINEZ                   ENRIQUEZ                   AMILCAR                    00945900000010025012017000  080000019043903                     9
Y605571210043998041180VALADEZ                    MARTINEZ                   EDGAR                      00945900000010025012017000  080000019100103                     9
Y605571210043048861470ROJAS                      AMARO                      LAURA STEPHANIE            00945900000010025012017000  080000019100203                     9
Y605571210043107202830SALMERON                   HERNANDEZ                  MARIA DEL CARMEN           00945900000010025012017000  080000019100403                     9
Y605571210047917502669GARCIA                     DE LA CRUZ                 JAVIER                     00945900000010025012017000  080000019100503                     9
Y605571210043978136695LUCIANO                    MARIANO                    DAMIAN                     00945900000010025012017000  080000019100603                     9
