Y605571210094099079348DE LOS SANTOS              GARCIA                     JOSE                       00945900000010013062016000  080000009353403                     9
Y605571210003148155751RODRIGUEZ                  RIVERO                     JESUS ENRIQUE              00945900000010013062016000  080000015175103                     9
Y605571210014119322148PEREZ                      MELO                       LUIS ENRIQUE               00945900000010013062016000  080000022045703                     9
Y605571210053088112957SUAREZ                     OCHOA                      JOSE ANTONIO               00945900000010013062016000  080000022045803                     9
Y605571210014876404311MAQUEDA                    GUEVARA                    ARMANDO ALEJANDRO          00945900000010013062016000  080000022045903                     9
Y605571210083077101364BARABATO                   JIMENEZ                    JOSE ANTONIO               00945900000010013062016000  080000027055303                     9
Y605571210083977507298LOPEZ                      LOPEZ                      NORBERTO                   00945900000010013062016000  080000027055403                     9
Y605571210083138711664VAZQUEZ                    JIMENEZ                    JESUS ADRIAN               00945900000010013062016000  080000027055503                     9
Y605571210067977950855BARTOLO                    PEREZ                      JUAN ANTONIO               00945900000010013062016000  080000030117403                     9
Y605571210067048627599CHAVEZ                     AVILA                      CARLOS ALBERTO             00945900000010013062016000  080000030117503                     9
