A836767410933088923272BARRADAS                   SANCHEZ                    JUAN                       00945900000010025072016000  080000008052203                     9
A836767410933139206412PEREZ                      AGUILAR                    OSCAR NOEL                 00945900000010025072016000  080000008052303                     9
A836767410932947512458GALINDO                    VALERIO                    PORFIRIO                   00945900000010025072016000  080000008052403                     9
