Y605571210063149604470ZENTENO                    DE LA CRUZ                 RAUL DE JESUS              00945900000010024052016000  080000007008903                     9
Y605571210071957503288CEBALLOS                   LOPEZ                      FRANCISCO JAVIER           00945900000010024052016000  080000007015103                     9
Y605571210004967509649AMEZCUA                    GONZALEZ                   JULIO RENATO               00945900000010024052016000  080000014113703                     9
Y605571210004987842921RIVERA                     GARCIA                     JOSE                       00945900000010024052016000  080000014114003                     9
Y605571210043805818481LOZANO                     LIZCANO                    EDUARDO                    00945900000010024052016000  080000019079703                     9
Y605571210017169354648RODRIGUEZ                  BAHENA                     JESUS                      00945900000010024052016000  080000022044303                     9
Y605571210067136901120RUIZ                       AMADOR                     RICARDO                    00945900000010024052016000  080000022044403                     9
Y605571210049886808739ARAUJO                     CORONADO                   ROBERTO                    00945900000010024052016000  080000028031703                     9
