A836767410921896004666                           MADRIZ                     BERTHA ALICIA              00945900000010030062017000  080000002058203                     9
A836767410925977705968CORREA                     NUÒEZ                      JORGE ALBERTO              00945900000010030062017000  080000002058303                     9
A836767410962149601924ORTIZ                      MARTINEZ                   JULIO GUADALUPE            00945900000010030062017000  080000008074903                     9
A836767410902167477336PANDO                      BARRAZA                    BERNARDO ALONSO            00945900000010030062017000  080000008076503                     9
A836767410927159563868GUAJARDO                   DE LUNA                    HECTOR ABIEL               00945900000010030062017000  080000008076603                     9
