Z064567510854785965788LOPEZ                      RODRIGUEZ                  ELEUTERIO                  00945900000010030012017000  080000011073403                     9
Z064567510812058854360GONZALEZ                   LOPEZ                      JUAN CARLOS                00945900000010030012017000  080000011093903                     9
Z064567510812967131199MORENO                     RAMIREZ                    EFREN DANIEL               00945900000010030012017000  080000011094003                     9
Z064567510812078867442MIRANDA                    DELGADO                    JOSE LUIS                  00945900000010030012017000  080000011094103                     9
Z064567510863927509644GARCIA                     BELMAN                     TOMAS                      00945900000010030012017000  080000011094203                     9
Z064567510812846404619RODRIGUEZ                  BERMUDEZ                   FIDEL                      00945900000010030012017000  080000011094303                     9
Z064567510812977820419GARCIA                     MOJICA                     JUAN MANUEL                00945900000010030012017000  080000011094403                     9
