A836767410933119302173CONTRERAS                  HERNANDEZ                  JESUS                      00945900000010023062016000  080000008048203                     9
A836767410933846743723LOPEZ                      CHAVEZ                     JAIME MARTIN               00945900000010023062016000  080000008048303                     9
A836767410933139307012ARREGUIN                   PAYAN                      FLOR IVETTE                00945900000010023062016000  080000008048403                     9
A836767410935947416679TALAMANTES                 ALDERETE                   ROSA MARIA                 00945900000010023062016000  080000008048503                     9
