A836767410953119209848MORENO                     GARCIA                     ABEL                       00945900000010020042017000  080000002051503                     9
A836767410921129394546PACHECO                    CORRALES                   REYNA ISABEL               00945900000010020042017000  080000002051603                     9
A836767410925957813873ARVIZU                     CHAVEZ                     ARACELI                    00945900000010020042017000  080000002051703                     9
A836767410925048739756FLORES                     INZUNZA                    SALVADOR                   00945900000010020042017000  080000002051803                     9
A836767410921118408661HEREDIA                    RUIZ                       ANDRES                     00945900000010020042017000  080000002051903                     9
A836767410921099264000GUZMAN                     CARRILLO                   ALEJANDRO                  00945900000010020042017000  080000002052003                     9
A836767410923987004522PEREZ                      GARCIA                     JOSE ISMAEL                00945900000010020042017000  080000002052103                     9
A836767410902156854818NEVAREZ                                               DANIELA                    00945900000010020042017000  080000008073503                     9
