Y605571210037907255592VAZQUEZ                    AVILA                      JUAN IGNACIO               00945900000010022122016000  080000009671103                     9
Y605571210003159636236DORANTES                   FABELA                     CARLOS RAMSES              00945900000010022122016000  080000009671203                     9
Y605571210045987719783GALICIA                    XOLALPA                    CONCEPCION                 00945900000010022122016000  080000009671303                     9
Y605571210064865702043MORENO                     LECHUGA                    JOSE LUIS                  00945900000010022122016000  080000009671403                     9
Y605571210039917237701RAMIREZ                    BENITEZ                    FRANCISCO                  00945900000010022122016000  080000009671503                     9
Y605571210043028699528CASTILLO                   MARTINEZ                   CARLOS FRANCISCO           00945900000010022122016000  080000019097203                     9
Y605571210043876905407BRAVO                      FLORES                     JOSE CONCEPCION            00945900000010022122016000  080000019097303                     9
Y605571210043877064220MARTINEZ                   GALLEGOS                   FRANCISCO JAVIER           00945900000010022122016000  080000019097403                     9
Y605571210050169754699RUIZ                       CRUZ                       EZEQUIEL                   00945900000010022122016000  080000023040303                     9
