A482760210352048300116CARRILLO                   PONCE                      JORGE LUIS                 00945900000010031102016000  080000006004603                     9
A482760210352129101201PEREZ                      ESTOPIN                    LUIS CARLOS                00945900000010031102016000  080000006004703                     9
A482760210352139601968CARDENAS                   HUERTA                     OSCAR MIGUEL               00945900000010031102016000  080000006004803                     9
