A836767410933026703026CRUZ                       DUARTE                     SILVIA                     00945900000010015062016000  080000008047103                     9
A836767410971068727149LOPEZ                      HERNANDEZ                  MARTIN DE JESUS            00945900000010015062016000  080000008047203                     9
A836767410933119443621RAMOS                      PROA                       OMAR ANTONIO               00945900000010015062016000  080000008047303                     9
A836767410959159661277MACIAS                     JURADO                     RUBEN                      00945900000010015062016000  080000008047503                     9
A836767410935129457186ADAME                      ESCANDON                   MIGUEL ANGEL               00945900000010015062016000  080000008047603                     9
A836767410933078921351CAMPOS                     MUÒOZ                      LUIS ENRIQUE               00945900000010015062016000  080000008047703                     9
