Y605571210090038711611HERNANDEZ                  CAMERO                     MARIO                      00945900000010020042016000  080000009517503                     9
Y605571210005169599478ESPINOZA                   ROLDAN                     RENATA                     00945900000010020042016000  080000009610203                     9
Y605571210045006303239CURIEL                     ANAYA                      MARIBEL CALIXTRA           00945900000010020042016000  080000009610303                     9
Y605571210007109002431BUSTAMANTE                 ZARATE                     JESUS MARIO                00945900000010020042016000  080000009610403                     9
Y605571210045139460427CAMPOS                     ROJAS                      CRISTIAN ADAN              00945900000010020042016000  080000009610503                     9
Y605571210094097801370PARDINEZ                   ORTIZ                      GICELA                     00945900000010020042016000  080000009610603                     9
Y605571210007866802569VILLEDA                    AGUILAR                    SERGIO                     00945900000010020042016000  080000009610703                     9
Y605571210096089111510PEREZ                      HERNANDEZ                  MARIO ANTONIO              00945900000010020042016000  080000009610803                     9
Y605571210075129497386SALGADO                    RIOS                       LUIS IGNACIO               00945900000010022032016000  080000014111503                     9
