Y605571210045078839789ALMAZAN                    SANTANA                    ANGELICA                   00945900000010007082017000  080000009044102                     9
Y605571210050149435625ALCANTARA                  ROJAS                      NATALIA                    00945900000010007082017000  080000009693803                     9
Y605571210002169335623GONZALEZ                   MARTINEZ                   JOSE MANUEL                00945900000010007082017000  080000009713903                     9
Y605571210096058667062RAMIREZ                    LOZANO                     IVAN                       00945900000010007082017000  080000009718003                     9
Y605571210096088630734PALOMINO                   MARTINEZ                   ALBERTO                    00945900000010007082017000  080000009723703                     9
Y605571210011987719777ALFARO                     LUNA                       MARIA DE JESUS             00945900000010007082017000  080000009723803                     9
Y605571210096129204580MEDINA                     MOSQUEDA                   VICTOR HUGO                00945900000010007082017000  080000009723903                     9
Y605571210009089000294PEREZ                      MENDOZA                    LUISA SARAI                00945900000010007082017000  080000015217303                     9
Y605571210067058306019PAZ                        GARDUZA                    ANGEL                      00945900000010007082017000  080000019121803                     9
Y605571210067139604879CHAN                       REYES                      JOEL ABISAI                00945900000010007082017000  080000019121903                     9
Y605571210033048733167GRAJALES                   HERNANDEZ                  NAHUM                      00945900000010007082017000  080000019122003                     9
Y605571210067139532989LUNA                       CORTES                     OSCAR HUBEYMAR             00945900000010007082017000  080000019122103                     9
Y605571210040169754625DIAZ                       RUIZ                       LUIS GABRIEL               00945900000010007082017000  080000023050703                     9
Y605571210067897272067IZQUIERDO                  IBARRA                     IGNACIO                    00945900000010007082017000  080000023050803                     9
Y605571210083068209234MARIN                      PINZON                     ALFREDO                    00945900000010007082017000  080000027063503                     9
Y605571210021129458879MEDINA                     BLANCO                     FLAVIO ISAI                00945900000010007082017000  080000030153703                     9
