R143868210325149155860ALVAREZ                    MORALES                    DIEGO                      00945900000010017112016000  080000014002302                     9
R143868210325988025638ANDRADE                    SAINZ                      MARTIN ANTONIO             00945900000010017112016000  080000014124503                     9
R143868210304897285880MUÑOZ                      GALLARDO                   FERNANDO                   00945900000010017112016000  080000014124603                     9
R143868210304139367819SOTO                       ANDUAGA                    FRANCISCO RUBEN            00945900000010017112016000  080000014124703                     9
