Y605571210026149354040MENDOZA                    BARANDA                    LUIS ANTONIO               00945900000010029092016000  080000009647903                     9
Y605571210003168023202ROBLERO                    PEREZ                      OSIEL                      00945900000010029092016000  080000009648003                     9
Y605571210002169667645SALGADO                    ARTEAGA                    JESUS ANDRES               00945900000010029092016000  080000009648103                     9
Y605571210071775902969OLAZO                      VALENCIA                   TORIBIO                    00945900000010029092016000  080000013015703                     9
Y605571210065078432393GUERRERO                   GARCIA                     GLORIA                     00945900000010029092016000  080000019088203                     9
Y605571210081119006567ACOSTA                     GONZALEZ                   ENRIQUETA                  00945900000010029092016000  080000023034203                     9
Y605571210083998206201PALACIOS                   HERNANDEZ                  ARMANDO ARTURO             00945900000010029092016000  080000023034303                     9
Y605571210084998312411MEDINA                     SANTOS                     JAMILY MARITZA             00945900000010029092016000  080000023034403                     9
Y605571210082119329892MUKUL                      GOMEZ                      ANGEL JESUS                00945900000010029092016000  080000023034503                     9
Y605571210092896934996TORRES                     MUÑOZ                      ANTONIO                    00945900000010029092016000  080000023034603                     9
Y605571210019169610961PEREZ                      GUTIERREZ                  LILIANA                    00945900000010029092016000  080000023034703                     9
