Y605571210071077808849RAMIREZ                    ALFARO                     MARICELIA                  00945900000010006052016000  080000007014703                     9
Y605571210035149660074MENDOZA                    ROMO                       ERICK ANTONIO              00945900000010006052016000  080000009615903                     9
Y605571210094008000047GARCIA                     HERNANDEZ                  DANIEL                     00945900000010006052016000  080000015171703                     9
Y605571210013159766651RAMIREZ                    HERNANDEZ                  OSCAR                      00945900000010006052016000  080000015171803                     9
Y605571210096139478729RODRIGUEZ                  LOPEZ                      GUSTAVO ARMANDO            00945900000010006052016000  080000015171903                     9
Y605571210009947621216TORRES                     BRANDT                     DAVID DANIEL               00945900000010006052016000  080000019001402                     9
Y605571210092088953226DOMINGUEZ                  LERDO                      ANDRES                     00945900000010006052016000  080000022043203                     9
Y605571210092109407913SANTOS                     MIL                        ANTONIO                    00945900000010006052016000  080000022043303                     9
Y605571210023967714934HERRERA                    SALAS                      RAMON ANGEL                00945900000010006052016000  080000025000102                     9
Y605571210067836152776JARVIO                     OSORIO                     JUAN EFREN                 00945900000010006052016000  080000030082903                     9
Y605571210067058802405AGUIRRE                    MENDEZ                     JOSE MANUEL                00945900000010006052016000  080000030115503                     9
Y605571210067917515420CHARREZ                    BAUTISTA                   ROBERTO                    00945900000010006052016000  080000030115703                     9
Y605571210067765716294BAEZ                       PRIETO                     EUSEBIO                    00945900000010006052016000  080000030115803                     9
Y605571210067077605870DELFIN                     ESCOBAR                    JOAQUIN                    00945900000010006052016000  080000030115903                     9
