Y605571210051978150350DE LA ROSA                 CASTILLO                   JOSE ALEJANDRO             00945900000010003062016000  080000001006403                     9
Y605571210027169680942AVENDAÑO                   JIMENEZ                    DIEGO                      00945900000010003062016000  080000009037602                     9
Y605571210094037100560TRUJILLO                   OLGUIN                     JUAN CARLOS                00945900000010003062016000  080000009618403                     9
Y605571210096927448371PATIÑO                     LOZANO                     MARCOS                     00945900000010003062016000  080000009618503                     9
Y605571210001877023448GARCIA                     RAMIREZ                    JOSE ANTONIO               00945900000010003062016000  080000009618603                     9
Y605571210030056900555PINEDA                     DIAZ                       SERGIO                     00945900000010003062016000  080000009618703                     9
Y605571210004856936697PEREZ                      PADILLA                    JOSE MANUEL                00945900000010003062016000  080000011083503                     9
Y605571210094977303315GUZMAN                     HUIDOBRO                   ANICETO                    00945900000010003062016000  080000015173903                     9
Y605571210083129328254CRUZ                       GARCIA                     ERICK                      00945900000010003062016000  080000027055203                     9
Y605571210065997515542ROJAS                      COBOS                      SATURNINO                  00945900000010003062016000  080000030116803                     9
Y605571210065977816217COVARRUBIAS                SOTO                       JULIO                      00945900000010003062016000  080000030116903                     9
