Y605571210081058402611VELUETA                    SANCHEZ                    MANUEL ALFREDO             00945900000010013072016000  080000004006503                     9
Y605571210081068900158FUENTES                    MARTINEZ                   ANTONIO DEL JESUS          00945900000010013072016000  080000004006603                     9
Y605571210033038564838SANCHEZ                    RAMOS                      ELIEZER DAVID              00945900000010013072016000  080000009562203                     9
Y605571210003159294341APARICIO                   CANO                       CARLOS                     00945900000010013072016000  080000009626003                     9
Y605571210007877001979DE LIRA                    TAPIA                      JORGE                      00945900000010013072016000  080000009626203                     9
Y605571210049169897151MERCENARIO                 PROCOPIO                   LUIS DAVID                 00945900000010013072016000  080000011085903                     9
Y605571210067018115872HERNANDEZ                  TRUJILLO                   LUIS ARTURO                00945900000010013072016000  080000022047203                     9
Y605571210014866817803SANCHEZ                    RESENDIZ                   SANTIAGO                   00945900000010013072016000  080000022047303                     9
Y605571210082108706563AYALA                      RINCON                     ALVARO                     00945900000010013072016000  080000023030703                     9
Y605571210005158565266GARCIA                     MORALES                    ABDI LENIN                 00945900000010013072016000  080000023030803                     9
Y605571210083997307406GOMEZ                      HERNANDEZ                  ARACELI                    00945900000010013072016000  080000023030903                     9
Y605571210004169307677CAHUICH                    EK                         YENIFER AZENETH            00945900000010013072016000  080000023031003                     9
Y605571210019169701679CALDERON                   CORONEL                    JAVIER                     00945900000010013072016000  080000023031103                     9
Y605571210020139886749BERNARDO                   GALLEGOS                   JUAN HUMBERTO              00945900000010013072016000  080000023031203                     9
Y605571210009037608628ZAPETA                     LOPEZ                      HECTOR                     00945900000010013072016000  080000028029203                     9
Y605571210049836370921RAZO                       AGUILAR                    SIMON PEDRO                00945900000010013072016000  080000028033103                     9
Y605571210026169583122MARCIAL                    ROMAN                      JUAN CARLOS                00945900000010013072016000  080000030119603                     9
