Y605571210008159664047CORTES                     YA—EZ                      LUIS ENRIQUE               00945900000010013012017000  080000009570603                     9
Y605571210037068902099MAYORGA                    YAÒEZ                      MIGUEL ANGEL               00945900000010013012017000  080000009676003                     9
Y605571210096957500521ARENAS                     CORONA                     FLOR                       00945900000010013012017000  080000009676103                     9
Y605571210028927400227FLORES                     ALVA                       JESUS CARLOS               00945900000010013012017000  080000009676203                     9
Y605571210094108603815CASTRO                     GONZALEZ                   ANGEL                      00945900000010013012017000  080000015188203                     9
Y605571210028886000414LARA                       YRIZAR                     JESUS                      00945900000010013012017000  080000015188303                     9
Y605571210043805902111GARCIA                     GONZALEZ                   ALBERTO                    00945900000010013012017000  080000019098503                     9
Y605571210023816403374CASTAÒEDA                  VILLA                      ROBERTO AGUSTIN            00945900000010013012017000  080000025012203                     9
Y605571210083008124287RODRIGUEZ                  GUZMAN                     BARTOLO                    00945900000010013012017000  080000027059303                     9
Y605571210002179221391MOLINA                     BALDERAS                   ANAI MARISOL               00945900000010013012017000  080000028000102                     9
