Y605571210071128510964LOPEZ                      MENDEZ                     ALFONSO                    00945900000010017032017000  080000007018003                     9
Y605571210008159287302OROZCO                     TORIZ                      FRANCISCO JAVIER           00945900000010017032017000  080000009564403                     9
Y605571210002159660998PEÒA                       MARTINEZ                   FILIBERTO                  00945900000010017032017000  080000009690403                     9
Y605571210042028203380SOTELO                     FERIA                      GABRIEL                    00945900000010017032017000  080000009690503                     9
Y605571210045907126770ALICEA                     LOPEZ                      OSCAR                      00945900000010017032017000  080000009690603                     9
Y605571210094007302642RODRIGUEZ                  MIRANDA                    SANTOS APOLONIA            00945900000010017032017000  080000015198603                     9
Y605571210001047602071MENDOZA                    GUZMAN                     PABLO REYNALDO             00945900000010017032017000  080000015198703                     9
Y605571210043008411233ESPINOZA                   MOLINA                     FIDEL                      00945900000010017032017000  080000019101503                     9
Y605571210003169800905HERNANDEZ                  REYES                      GIOVANNY                   00945900000010017032017000  080000022057103                     9
Y605571210014025600710ALACIO                     CHAVEZ                     MARCOS VINICIO             00945900000010017032017000  080000022059203                     9
Y605571210023785916455SANCHEZ                    MONJARDIN                  SAUL IGNACIO               00945900000010017032017000  080000025014203                     9
Y605571210023937723908CORRAL                     GARCIA                     ERIC ENOC                  00945900000010017032017000  080000025014303                     9
Y605571210073947701097SEPULVEDA                  CARDENAS                   ELVIA KARINA               00945900000010017032017000  080000025014403                     9
Y605571210023846603423LOPEZ                      IBARRA                     RAFAEL                     00945900000010017032017000  080000025014503                     9
Y605571210083806501587SANCHEZ                    MIRANDA                    NATIVIDAD                  00945900000010017032017000  080000027060903                     9
Y605571210027149025515TRUJILLO                   LOPEZ                      OZIEL                      00945900000010017032017000  080000028040103                     9
Y605571210067765716294BAEZ                       PRIETO                     EUSEBIO                    00945900000010017032017000  080000030115803                     9
Y605571210078795912555VAZQUEZ                    VELAZCO                    ARMANDO                    00945900000010017032017000  080000030143003                     9
Y605571210078776005510TENORIO                    FERNANDEZ                  RAUL                       00945900000010017032017000  080000030143103                     9
