Y605571210004998137899LOPEZ                      QUEZADA                    PEDRO                      01194600000010021072016000  080000002049503                     9
Y605571210016139589655FLORES                     CRUZ                       AHIZER ELIAS               01194600000010021072016000  080000002049603                     9
Y605571210015077503389GARCIA                     SANCHEZ                    EDGAR                      01194600000010021072016000  080000002049703                     9
Y605571210020058301258HERNANDEZ                  DOMINGUEZ                  ANGELA                     00945900000010021072016000  080000009628103                     9
Y605571210037988204345MEZA                       ENCINAS                    FRANCISCO JAVIER           00945900000010021072016000  080000011086503                     9
Y605571210015109020022BALMACEDA                  ROSALES                    PABLO                      00945900000010021072016000  080000011086603                     9
Y605571210013099212907GARCIA                     RODRIGUEZ                  ROSALIO                    00945900000010021072016000  080000013014003                     9
Y605571210043138300231HERNANDEZ                  RAMIREZ                    JOSE LUIS                  00945900000010021072016000  080000019079003                     9
Y605571210043028466464RAMIREZ                    VALLE                      JUAN RAMON                 00945900000010021072016000  080000019083803                     9
Y605571210023978004416BARRON                     RUELAS                     JESUS ARTURO               00945900000010021072016000  080000025003203                     9
Y605571210003149189395TRINIDAD                   GRANDA                     NANCY YARELY               00945900000010021072016000  080000030119803                     9
