Y462621510948088833818RAMIREZ                    SANTAMARIA                 JESUS ELIN                 00945900000010019012017000  080000021163303                     9
Y462621510962947360426SAAVEDRA                   DE LA ROSA                 ADRIAN                     00945900000010019012017000  080000021163403                     9
Y462621510948008509613CASTILLO                   MUÒOZ                      FARID                      00945900000010019012017000  080000021163503                     9
Y462621510948077407848PEREZ                      GONZALEZ                   MARCELINO                  00945900000010019012017000  080000021163603                     9
Y462621510953038446976PALACIOS                   TOBON                      HUGO SILVESTRE             00945900000010019012017000  080000021163703                     9
