Z064567510848937031887CASTILLO                   JUAREZ                     JUAN MANUEL                00945900000010029082017000  080000011103703                     9
Z064567510819159886019TREJO                      CAUDILLO                   PEDRO HUMBERTO             00945900000010029082017000  080000011103803                     9
Z064567510812139280791GASCA                      CARRERA                    ISMAEL                     00945900000010029082017000  080000011103903                     9
Z064567510812846817752ARGUELLO                   MORENO                     DOMINGO                    00945900000010029082017000  080000011104003                     9
Z064567510863129408124HERNANDEZ                  FLORES                     ERICK OMAR                 00945900000010029082017000  080000011104103                     9
