A836767410933058893828AVITIA                     FRESCAS                    ANDREA GUADALUPE           00945900000010001062016000  080000008045803                     9
A836767410933845400366REYES                                                 JUAN ANTONIO               00945900000010001062016000  080000008046103                     9
A836767410933907072681ARIAS                      MERAZ                      MARIO ALBERTO              00945900000010001062016000  080000008046203                     9
