Y605571210003816407542MARTINEZ                   ZUBIRIAS                   GUSTAVO                    00945900000010008032017000  080000005012203                     9
Y605571210071118708164AGUILAR                    HERNANDEZ                  EDUARDO JAVIER             00945900000010008032017000  080000007016503                     9
Y605571210092138914582CORREA                     GUTIERREZ                  DAMARIS                    00945900000010008032017000  080000009042302                     9
Y605571210090099303100JIMENEZ                    LOPEZ                      JOSE RAUL                  00945900000010008032017000  080000009606403                     9
Y605571210096089010209DE LA CRUZ                 HERNANDEZ                  MIGUEL ALBERTO             00945900000010008032017000  080000009688003                     9
Y605571210096088925092ZUÒIGA                     MOLINERO                   LUIS ALBERTO               00945900000010008032017000  080000009688103                     9
Y605571210016129251670MONDRAGON                  ALCANTARA                  LEONEL                     00945900000010008032017000  080000015120303                     9
Y605571210064169324031CORONA                     RUFINO                     FRANCISCO                  00945900000010008032017000  080000015197103                     9
Y605571210092087400559RODRIGUEZ                  VAZQUEZ                    MARIA GRISELDA             00945900000010008032017000  080000015197203                     9
Y605571210014008302797RODRIGUEZ                  LOPEZ                      ANTONIO                    00945900000010008032017000  080000015197403                     9
Y605571210092977963591SOLANO                     RUIZ                       ALFREDO                    00945900000010008032017000  080000015197503                     9
Y605571210019149508988CABALLERO                  LARA                       CLAUDIA BERENICE           00945900000010008032017000  080000015197703                     9
Y605571210043069027548MARIN                      GARCIA                     MERARY ELIZABETH           00945900000010008032017000  080000019104403                     9
Y605571210047947413572REYES                      LLANES                     GILBERTO                   00945900000010008032017000  080000019104503                     9
Y605571210014856710778REGALADO                   MARTINEZ                   JUAN MARCOS                00945900000010008032017000  080000022051103                     9
Y605571210014008001399CONTRERAS                  LOPEZ VELARDE              OSCAR                      00945900000010008032017000  080000022058903                     9
Y605571210067087701875RAMIREZ                    FLORES                     JULIO CESAR                00945900000010008032017000  080000030140203                     9
Y605571210067897303540LORENZO                    ROMERO                     ROMAN SERGIO               00945900000010008032017000  080000030140303                     9
