R143868210304078824010ROMAN                      FLORES                     JONATHAN                   00945900000010029082017000  080000014003802                     9
R143868210354786209046MEDINA                     CAMARILLO                  MARIA DEL ROSARIO          00945900000010029082017000  080000014088103                     9
R143868210304856919289CARDENAS                   ESPINOZA                   GUILLERMO                  00945900000010029082017000  080000014137703                     9
R143868210359169761596MARTINEZ                   JUAREZ                     NADIA NAOMI                00945900000010029082017000  080000014137803                     9
R143868210334078813788GONZALEZ                   RIVERA                     JESUS ADAN                 00945900000010029082017000  080000014137903                     9
R143868210331957816676PEREZ                      MONSIVAIS                  JOSE EFRAIN                00945900000010029082017000  080000014138003                     9
