Y605571210032018437015OVIEDO                     ESCAREÒO                   FELIX ESTEBAN              00945900000010025112016000  080000005011603                     9
Y605571210098129400507LUCIO                      POZOS                      ANDRES                     00945900000010025112016000  080000009662503                     9
Y605571210042856818739DIEGO                      HERNANDEZ                  MIGUEL ANGEL               00945900000010025112016000  080000009662603                     9
Y605571210096917622852GASCA                      MEDRANO                    GABINO                     00945900000010025112016000  080000009662703                     9
