R143868210384068212962PEREZ                      HERNANDEZ                  JOEL                       00945900000010018012017000  080000014129203                     9
R143868210304078525765ESTRADA                    ORTIZ                      LUIS ALBERTO               00945900000010018012017000  080000014129403                     9
R143868210354836544889HERNANDEZ                  TORRES                     LUIS GUILLERMO             00945900000010018012017000  080000014129503                     9
R143868210304027521493MARMOLEJO                  SILVA                      JULIO DAMIAN               00945900000010018012017000  080000014129603                     9
