Y605571210081028600252MUÑOZ                      CASANOVA                   ROMERITO DEL JESUS         00945900000010002052017000  080000004011303                     9
Y605571210010179747968MARTINEZ                   PERALTA                    ENRIQUE                    00945900000010002052017000  080000009700203                     9
Y605571210096129222715PERALTA                    BELLO                      JUAN ANTONIO               00945900000010002052017000  080000009700303                     9
Y605571210096088702749ORTIZ                      ARROYO                     JUAN ANTONIO               00945900000010002052017000  080000009700403                     9
Y605571210092119318506ESPINOSA                   DIAZ                       RICARDO ENRIQUE            00945900000010002052017000  080000015166303                     9
Y605571210008179649317BERNAL                     DIAZ                       SANTIAGO                   00945900000010002052017000  080000015206203                     9
Y605571210016129015794PICHARDO                   PEDROZA                    JORGE                      00945900000010002052017000  080000015206303                     9
Y605571210042917420087PALMA                      HERNANDEZ                  AGUSTIN                    00945900000010002052017000  080000015206403                     9
Y605571210043008313009DURAN                      ARREDONDO                  DAVID                      00945900000010002052017000  080000019094403                     9
Y605571210003148201316MENDEZ                     CASARES                    RICARDO                    00945900000010002052017000  080000019109803                     9
Y605571210067098800955SILVA                      BRAVO                      HILARIO                    00945900000010002052017000  080000019109903                     9
Y605571210059149536092VAZQUEZ                    GALLEGOS                   LEONEL                     00945900000010002052017000  080000023045603                     9
Y605571210069159602395SANTOS                     MORALES                    SANTANA                    00945900000010002052017000  080000027058903                     9
Y605571210084966901450LEON                       MORALES                    MARTIN                     00945900000010002052017000  080000028035603                     9
