Y605571210045078923781GONZALEZ                   GONZALEZ                   MARIBEL                    00945900000010024012017000  080000009041702                     9
Y605571210045129250002CRUZ                       DELGADILLO                 BRENDA LILIANA             00945900000010024012017000  080000009678003                     9
Y605571210013169875393VILLEGAS                   BAUTISTA                   RAYMUNDO                   00945900000010024012017000  080000009678103                     9
Y605571210045109247051MIRANDA                    VALENCIA                   JORGE                      00945900000010024012017000  080000009678203                     9
Y605571210045129527375JARA                       OSORIO                     BRANDON                    00945900000010024012017000  080000009678303                     9
Y605571210048108525030CANO                       ALAMILLO                   ERNESTO                    00945900000010024012017000  080000009678403                     9
Y605571210089866526513GIL                        MONROY                     ESPERANZA                  00945900000010024012017000  080000009678503                     9
Y605571210003179702836GUZMAN                     ROJAS                      MIGUEL DE JESUS            00945900000010024012017000  080000009678603                     9
Y605571210016997305756MENDOZA                    CALDERON                   JOSE                       00945900000010024012017000  080000015187403                     9
Y605571210005139423718HERNANDEZ                  GODOY                      JONATHAN                   00945900000010024012017000  080000016010003                     9
Y605571210026159731178PALACIOS                   CASTRO                     ESTEFANIE MICHELLE         00945900000010024012017000  080000019002502                     9
Y605571210003158651814GONZALEZ                   FLORES                     SILVINA                    00945900000010024012017000  080000019095303                     9
Y605571210068149572973AVALOS                     GARCIA                     RUBI ALEJANDRA             00945900000010024012017000  080000019099903                     9
Y605571210043886962141ALANIS                     MORENO                     LINO GUADALUPE             00945900000010024012017000  080000019100003                     9
Y605571210062917478935TAPIA                      LIBRADO                    CARLOS                     00945900000010024012017000  080000023042103                     9
Y605571210009128710614CODINA                     PEREZ                      JORGE IVAN                 00945900000010024012017000  080000028038703                     9
Y605571210067028306552MARTINEZ                   PALOMARES                  GUILLERMO                  00945900000010024012017000  080000030135303                     9
Y605571210067129337019GARCIA                     IZQUIERDO                  JOSE DAVID                 00945900000010024012017000  080000030135403                     9
Y605571210067119355617GONZALEZ                   PEREZ                      BRENDA YAZMIN DEL CARMEN   00945900000010024012017000  080000030135503                     9
Y605571210067896950010PINEDA                     LOPEZ                      CARLOS ALBERTO             00945900000010024012017000  080000030135603                     9
