Y605571210032917377247SALAZAR                    DEL TORO                   MANUEL                     00945900000010001032017000  080000005012503                     9
Y605571210094098501094HERRERA                    LOPEZ                      OMAR                       00945900000010001032017000  080000015002502                     9
Y605571210011917411495GARCIA                     ALDRETE                    SALVADOR                   00945900000010001032017000  080000015087503                     9
Y605571210090937806678JIMENEZ                    JIMENEZ                    RAYMUNDO                   00945900000010001032017000  080000015194903                     9
Y605571210092978151139ORNELAS                    CAMPOS                     SILVIA ARACELI             00945900000010001032017000  080000015195003                     9
Y605571210072128605580AVILA                      AGUILAR                    ELIZABETH                  00945900000010001032017000  080000015195103                     9
Y605571210085169862282CRUZ                       CORTEZ                     JAVIER                     00945900000010001032017000  080000015195203                     9
Y605571210090967917791BASILIO                    CORTES                     LEONARDO                   00945900000010001032017000  080000015195303                     9
Y605571210092018323391HERNANDEZ                  NAVA                       RUBEN                      00945900000010001032017000  080000015195403                     9
Y605571210043106801301GALAVIZ                    LIRA                       JOSE GUADALUPE             00945900000010001032017000  080000019038903                     9
Y605571210009058706541GONZALEZ                   ALEMAN                     BRENDA JUDITH              00945900000010001032017000  080000019103403                     9
Y605571210043078983624TORRES                     MEAVE                      VICTOR VIDAL               00945900000010001032017000  080000019103503                     9
Y605571210043058437013ROBLEDO                    RODRIGUEZ                  BRENDA ELIZABETH           00945900000010001032017000  080000019103603                     9
Y605571210043967916966PEREZ                      CASTAÒUELA                 MONICA FRANCISCA           00945900000010001032017000  080000019103703                     9
Y605571210043028564037YEPEZ                      GONZALEZ                   REYNA PATRICIA             00945900000010001032017000  080000019103803                     9
