Y605571210096048600728LUNA                       SANCHEZ                    HECTOR                     00945900000010005102016000  080000009648903                     9
Y605571210011937023577TORRES                     GARIBAY                    PEDRO                      00945900000010005102016000  080000009649003                     9
Y605571210096088505522ALARCON                    CRUZ                       MARTHA GABRIELA            00945900000010005102016000  080000009649103                     9
Y605571210013169894717MENDOZA                    RUIZ                       JESUS                      00945900000010005102016000  080000009649203                     9
Y605571210022169853789CRUZ                       PAXTIAN                    MARIA ALEJANDRA            00945900000010005102016000  080000011087703                     9
Y605571210016068401286DOMINGUEZ                  TORRES                     ALMA                       00945900000010005102016000  080000015161303                     9
Y605571210014079023686SALAZAR                    PUENTE                     JAVIER ALEJANDRO           00945900000010005102016000  080000022051203                     9
Y605571210014987402352GONZALEZ                   PEREZ                      JOSE SAMUEL                00945900000010005102016000  080000022051303                     9
Y605571210070169847863GALLEGOS                   GONZAGA                    MIGUEL ANGEL               00945900000010005102016000  080000022051403                     9
Y605571210023028378299SANCHEZ                    RODRIGUEZ                  PABLO DAVID                00945900000010005102016000  080000025010003                     9
Y605571210069159602395SANTOS                     MORALES                    SANTANA                    00945900000010005102016000  080000027058903                     9
Y605571210019169589652GOMEZ                      CAMACHO                    JUAN MANUEL                00945900000010005102016000  080000027059103                     9
Y605571210027169466904RODRIGUEZ                  DOMINGUEZ                  ALEXANDER                  00945900000010005102016000  080000030126203                     9
