Y607431310496917312751ESTEBAN                    CARIÑO                     ROBERTO                    01287900000010016012020000  080000009001603                     9
Y607431310467998105745REYES                      SANTIAGO                   GABRIEL                    01287900000010016012020000  080000009001703                     9
Y607431310402176140933BEJARANO                   MUÑOZ                      RAMON                      01287900000010016012020000  080000009001803                     9
Y607431310439998026627SANTANA                    CHAVEZ                     SALVADOR                   01287900000010016012020000  080000009001903                     9
Y607431310420947210447GONZALEZ                   MARTINEZ                   JUAN                       01287900000010016012020000  080000009002003                     9
Y607431310405190111186CORONA                     MARTINEZ                   ARIANA                     01287900000010016012020000  080000009002303                     9
Y607431310445937508831MADRID                     FLORES                     MONICA MARLENNE            01287900000010022012020000  080000009002403                     9
