A836767410903168957813MADRIGAL                   MORALES                    MARIA JUANA                00945900000010017112016000  080000008046503                     9
A836767410933028487396OLMOS                      MALDONADO                  EDGAR ORLANDO              00945900000010017112016000  080000008062803                     9
A836767410925169794853ORTEGA                     CHAIREZ                    LUIS ANGEL                 00945900000010017112016000  080000008065003                     9
