Y605571210011007911081SALDIVAR                   HERREJON                   CARLOS RICARDO             00945900000010004042017000  080000009693503                     9
Y605571210075806227916ESQUIVEL                   GARCIA                     GRACIELA                   00945900000010004042017000  080000009693603                     9
Y605571210063169844527RODRIGUEZ                  MORENO                     BRAYAN                     00945900000010004042017000  080000009693703                     9
Y605571210050149435625ALCANTARA                  ROJAS                      NATALIA                    00945900000010004042017000  080000009693803                     9
Y605571210037007405923HERNANDEZ                  GONZALEZ                   LAURA                      00945900000010004042017000  080000015197003                     9
Y605571210008179852614SOTELO                     CRUZ                       JOSUE ANGEL                00945900000010004042017000  080000015201003                     9
Y605571210096069000113CARRILLO                   HERNANDEZ                  MARIA GUADALUPE            00945900000010004042017000  080000015201103                     9
Y605571210043775955065GRIMALDO                   GALLARDO                   ALEJANDRO                  00945900000010004042017000  080000019107203                     9
Y605571210065139702818LOPEZ                      XOLO                       GERARDO ANTONIO            00945900000010004042017000  080000022060303                     9
Y605571210023876508369BERNAL                     BELTRAN                    ERNESTO                    00945900000010004042017000  080000025015303                     9
Y605571210048997807804HERRERA                    ROMERO                     ALONSO                     00945900000010004042017000  080000030145103                     9
