R143868210309088732681TORRES                     SERNA                      FRANCISCO JAVIER           00945900000010012072016000  080000014002002                     9
R143868210333906701280TORRES                     CRUZ                       NORBERTO                   00945900000010012072016000  080000014117203                     9
R143868210351059003437DURON                      VAZQUEZ                    JOSE SALVADOR              00945900000010012072016000  080000014117303                     9
R143868210352099003171LANDIN                     LOZANO                     ALEJANDRO                  00945900000010012072016000  080000014117403                     9
R143868210352877022906CARDENAS                   LLAMAS                     CESAR MANUEL               00947200000010012072015000  080000014117503                     9
