Y605571210019149703753PANFILO                    BONIFACIO                  ISABEL                     00945900000010017042017000  080000009655203                     9
Y605571210090138809935CASARES                    MARTINEZ                   GUILEBALDO                 00945900000010017042017000  080000009695503                     9
Y605571210007906901587AQUINO                     ESPEJEL                    JOAQUN ANTONIO             00945900000010017042017000  080000009695603                     9
Y605571210018149105704CANO                       JUAREZ                     JOSE ALFREDO               00945900000010017042017000  080000013014403                     9
Y605571210016957903400ARRIAGA                    GARCIA                     JAIR SANTIAGO              00945900000010017042017000  080000015187603                     9
Y605571210002179361171GONZALEZ                   MONJARDIN                  JOSE LUIS                  00945900000010017042017000  080000015189603                     9
Y605571210002179040189MEJIA                      GARCIA                     OMAR DE JESUS              00945900000010017042017000  080000015190303                     9
Y605571210026149728599GONZALEZ                   ESTRADA                    DAVID ALBERTO              00945900000010017042017000  080000015202103                     9
Y605571210012169875627ESTRADA                    RAMIREZ                    JOSE EDUARDO               00945900000010017042017000  080000015202203                     9
Y605571210016037304579IGLESIAS                   RODRIGUEZ                  ROSA ELENA                 00945900000010017042017000  080000015202403                     9
Y605571210014704411512RIOS                       DIAZ                       PAULINO                    00945900000010017042017000  080000019090503                     9
Y605571210043937143030BADILLO                    ALVAREZ                    NORMA PATRICIA             00945900000010017042017000  080000019107903                     9
Y605571210005159583623PEREGRINO                  DOMINGUEZ                  PEDRO                      00945900000010017042017000  080000023045203                     9
Y605571210023987714286DE LA ROCHA                VALENZUELA                 LAMBERTO                   00945900000010017042017000  080000025015503                     9
Y605571210009079211141ARMENDARIZ                 ALMAGUER                   CHRISTIAN ALEJANDRO        00945900000010017042017000  080000028041003                     9
Y605571210067796211976JUAREZ                     RAMIREZ                    RAUL                       00945900000010017042017000  080000030146503                     9
Y605571210013169470419CERON                      LOPEZ                      MARENI                     00945900000010017042017000  080000030146603                     9
