Y605571210013169875393VILLEGAS                   BAUTISTA                   RAYMUNDO                   00945900000010003082017000  080000009678103                     9
Y605571210017139897676VALLE                      VELASCO                    ASLY FERNANDA              00945900000010003082017000  080000009723203                     9
Y605571210044149661900RUIZ                       SALGUERO                   JESUS ALEJANDRO            00945900000010003082017000  080000015216703                     9
Y605571210002168147201DEL VALLE                  GARCIA                     TEODORO                    00945900000010003082017000  080000015216803                     9
Y605571210014129459161TREJO                      SOLIS                      EMMANUEL                   00945900000010003082017000  080000022016403                     9
Y605571210067856875512MARTIN                     TORRES                     ROGERIO                    00945900000010003082017000  080000023050603                     9
Y605571210078149826667VELASQUEZ                  DE JESUS                   FRANCISCO GUADALUPE        00945900000010003082017000  080000030153203                     9
