Y605571210030028432687JUAREZ                     JUAREZ                     ERIK IVAN                  00945900000010011072017000  080000009718103                     9
Y605571210028927415761LIRA                       GARCIA                     ALBERTO                    00945900000010011072017000  080000009718203                     9
Y605571210045906970046CEDILLO                    VENTURA                    JUANA                      00945900000010011072017000  080000015214603                     9
Y605571210094118302879GUERRERO                   GARCIA                     ROCIO MIREYA               00945900000010011072017000  080000015214703                     9
Y605571210043028638112MENDEZ                     RAMIREZ                    DULCE MARIA                00945900000010011072017000  080000019003102                     9
Y605571210043725536551GONZALEZ                   RODRIGUEZ                  JULIAN                     00945900000010011072017000  080000019098803                     9
Y605571210018179744687RAMIREZ                    VIDAL                      HECTOR DANIEL              00945900000010011072017000  080000019118303                     9
Y605571210009068892778ROJAS                      ABREGO                     JUAN CARLOS                00945900000010011072017000  080000019118403                     9
Y605571210035149361665MARTINEZ                   RODRIGUEZ                  LUIS ROBERTO               00945900000010011072017000  080000023048603                     9
Y605571210082078701065MONTIEL                    HERNANDEZ                  KARINA SARAHI              00945900000010011072017000  080000023048703                     9
Y605571210048069012770FLORES                     ORTEGA                     JOSE EDER                  00945900000010011072017000  080000030151903                     9
