Y462621510948139219207JIMENEZ                    OREA                       JOSE LUIS                  00945900000010021092016000  080000021133403                     9
Y462621510948987985891GONZALEZ                   ENRIQUEZ                   LUIS                       00945900000010021092016000  080000021155003                     9
Y462621510966149594328MUÑIZ                      HERNANDEZ                  MIGUEL                     00945900000010021092016000  080000021155103                     9
Y462621510948138501860ROBLES                     VILLANTES                  FRANCISCO                  00945900000010021092016000  080000021155203                     9
