Y605571210039117900736PEREZ                      GARCIA                     JOSE LUIS                  00945900000010025102016000  080000009567003                     9
Y605571210045937416720VERTIZ                     GUTIERREZ                  SATURNINO CARLOS GUSTAVO   00945900000010025102016000  080000009652403                     9
Y605571210026149364395MARTINEZ                   DANES                      JACINTO                    00945900000010025102016000  080000009652503                     9
Y605571210092997904336CARMONA                    CRUZ                       IGNACIO                    00945900000010025102016000  080000013016103                     9
Y605571210093897122557CABALLERO                  PONCE                      JOSE FRANCISCO             00945900000010025102016000  080000015183903                     9
Y605571210043826476657CASTRO                     FABELA                     RUBEN                      00945900000010025102016000  080000019090303                     9
Y605571210014068605980VALE                       MATA                       MELQUIADES ALYNV GASTON    00945900000010025102016000  080000022051603                     9
Y605571210082129517353DZUL                       UC                         DENNYS MANUEL              00945900000010025102016000  080000023037003                     9
Y605571210038149661654PANTI                      CHI                        BRENDA ELIZABETH           00945900000010025102016000  080000023037103                     9
Y605571210082109226850CETZ                       BOLIO                      NANCY MARILY               00945900000010025102016000  080000023037203                     9
Y605571210081988009098ZAPATA                     LOPEZ                      PABLO                      00945900000010025102016000  080000023037303                     9
Y605571210034169856092MENDEZ                     MENDEZ                     GABRIEL                    00945900000010025102016000  080000023037403                     9
Y605571210067018503572RAMOS                      GONZALEZ                   FELIX                      00945900000010025102016000  080000023037503                     9
Y605571210082118817145RODRIGUEZ                  ORTIZ                      MARIELA INES               00945900000010025102016000  080000023037603                     9
Y605571210082047900210MORALES                    GARCIA                     CARLOS ALBERTO             00945900000010025102016000  080000023037703                     9
