Y605571210015169299649RIFKA                      GUILLEN                    SAMANTHA HTAED             00945900000010005052016000  080000015002002                     9
Y605571210016907014902VEGA                       MARIN                      SERGIO                     00945900000010005052016000  080000015111603                     9
Y605571210016119153175PEREA                      HERNANDEZ                  MARCO ANTONIO              00945900000010005052016000  080000015155103                     9
Y605571210092078901300AGUADO                     AMADOR                     OSCAR ALEJANDRO            00945900000010005052016000  080000015171603                     9
Y605571210013089210242VAZQUEZ                    DUARTE                     MICHAEL                    00945900000010005052016000  080000022040703                     9
Y605571210009967714958HERRERA                                               JOSE DAVID                 00945900000010005052016000  080000022043003                     9
Y605571210065108802607ANTELE                     PALAYOT                    ARMANDO                    00945900000010005052016000  080000022043103                     9
Y605571210083139538983YSIDRO                     GERONIMO                   JOSE DARINEL               00945900000010005052016000  080000027054703                     9
Y605571210004067815300GUTIERREZ                  GOMEZ                      FRANCISCO JAVIER           00945900000010005052016000  080000027054803                     9
Y605571210017866407392ESTEBAN                    HERNANDEZ                  SIMON                      00945900000010005052016000  080000028031403                     9
Y605571210067058802405AGUIRRE                    MENDEZ                     JOSE MANUEL                00945900000010005052016000  080000030115503                     9
Y605571210078109009692ESPINOZA                   CORTES                     TITO                       00945900000010005052016000  080000030115603                     9
