Y605571210023846810028GARCIA                     RIVERA                     JULIAN JAVIER              01194600000010019092016000  080000002051003                     9
Y605571210045129451147CRUZ                       FERNANDEZ                  JESUS                      00945900000010019092016000  080000009645703                     9
Y605571210043016903353ARMENTA                    ALGANDAR                   ELVIRA                     00945900000010019092016000  080000019052503                     9
Y605571210023887246066CORTES                     TORRES                     VALENTIN                   00945900000010019092016000  080000025007903                     9
Y605571210005149760729LEON                       SALAS                      JESUS EZEQUIEL             00945900000010019092016000  080000025009203                     9
Y605571210065139011079GUTIERREZ                  MERCADO                    PABLO                      00945900000010019092016000  080000030125503                     9
