Y607431310428047401048JIMENEZ                    RAYA                       MARIO ALBERTO              01481100000010023112021000  080000009014703                     9
Y607431310445078934747GUERRERO                   UGARTE                     BRIAN KEVIN                01481100000010023112021000  080000009014803                     9
Y607431310446179928216GARCIA                     MACARIO                    GUSTAVO ALFONSO            01481100000010023112021000  080000009014903                     9
