Y605571210051836616741SIGALA                     LOMELI                     JORGE                      00945900000010005092016000  080000001005203                     9
Y605571210021139656900HERNANDEZ                  GONZALEZ                   ABRAHAN                    01194600000010005092016000  080000002050803                     9
Y605571210094927433774RIOS                       QUINARD                    ERIKA JOSEFINA             00945900000010005092016000  080000009039702                     9
Y605571210045109137682POBLANO                    HERNANDEZ                  KARLA ESTEPHANIA           00945900000010005092016000  080000009642503                     9
Y605571210073149551670ALFARO                     ARRIAGA                    FELIPE DE JESUS            00945900000010005092016000  080000009642603                     9
Y605571210042997805066GONZALEZ                   PE—A                       EDITH                      00945900000010005092016000  080000009642703                     9
Y605571210013139455177RUIZ                       MACIAS                     DIANA YADIRA               00945900000010005092016000  080000013009903                     9
Y605571210013936617243DE LA ROSA                 PERALTA                    VENANCIO HERIBERTO         00945900000010005092016000  080000013014703                     9
Y605571210005168715083HERNANDEZ                  HERANNDEZ                  MARIA DE JESUS CANDELARIA  00945900000010005092016000  080000013014803                     9
Y605571210021117504072ISLAS                      SOTO                       JESUS                      00945900000010005092016000  080000013014903                     9
Y605571210065018013790OJEDA                      ALAVEZ                     CANDIDO MOISES             00945900000010005092016000  080000030124703                     9
Y605571210026159539209SANGEADO                   MENDEZ                     JOSE                       00945900000010005092016000  080000030124803                     9
Y605571210002169440134PEÒA                       ESTRADA                    LUIS ARTURO                00945900000010005092016000  080000030124903                     9
