A836767410933887033570GARIBAY                    ROSALES                    PATRICIA                   00945900000010013072016000  080000008007603                     9
A836767410949886546602SAENZ                      RIOS                       IRMA JULIA                 00945900000010013072016000  080000008050703                     9
A836767410933119299825REYES                      ORTIZ                      JOSE ENRIQUE               00945900000010013072016000  080000008050803                     9
A836767410933826307218SALAS                                                 SALVADOR                   00945900000010013072016000  080000008050903                     9
