Y605571210009139874078PEREZ                      MALDONADO                  JAVIER ALEXIS              00945900000010009082017000  080000009724303                     9
Y605571210092907187642OSCOY                      RODRIGUEZ                  ISRAEL                     00945900000010009082017000  080000015217503                     9
Y605571210002166886552AGUILAR                    ISLAS                      ROSA                       00945900000010009082017000  080000019122203                     9
Y605571210047068971085AMARO                      COVARRUBIAS                JUAN GREGORIO              00945900000010009082017000  080000019122303                     9
Y605571210003927365811GARIBAY                    MARTINEZ                   JUAN JAVIER                00945900000010009082017000  080000019122403                     9
Y605571210009068213850HERNANDEZ                  GONZALEZ                   JORGE ALBERTO              00945900000010009082017000  080000019122503                     9
Y605571210012169305294BARTOLO                    CRUZ                       RUBICELIA                  00945900000010009082017000  080000019122603                     9
Y605571210005158744515GARCIA                     JIMENEZ                    FRANCISCO                  00945900000010009082017000  080000022065303                     9
Y605571210014079040185MACIAS                     FRANCO                     JOSE JHOVANY               00945900000010009082017000  080000022065403                     9
Y605571210082018212801GARCIA                     AES                        DORIS DEL CARMEN           00945900000010009082017000  080000023040603                     9
Y605571210071067203951DE LA CRUZ                 PEREZ                      MARIA ESTELA               00945900000010009082017000  080000023051003                     9
Y605571210083968141040HERNANDEZ                  PARCERO                    BENJAMIN                   00945900000010009082017000  080000027056603                     9
Y605571210083008203636DE LA CRUZ                 CRUZ                       TITO                       00945900000010009082017000  080000027063603                     9
Y605571210049957015651CANO                       CONDE                      FERMIN                     00945900000010009082017000  080000028022603                     9
Y605571210050159546097PIÑA                       CORDOBA                    LUIS JAVIER                00945900000010009082017000  080000030153803                     9
Y605571210010159969939ARIAS                      RAMIREZ                    HECTOR DE JESUS            00945900000010009082017000  080000030153903                     9
Y605571210007139087949RUIZ                       GALLEGOS                   MIGUEL ANGEL               00945900000010009082017000  080000030154003                     9
Y605571210008169890012VASQUEZ                    LUNA                       ALONSO                     00945900000010009082017000  080000030154103                     9
