Y605571210010867017781LUNA                       CHAVEZ                     GUSTAVO                    00945900000010030052017000  080000009708903                     9
Y605571210094937511890MARTINEZ                   CAMACHO                    LUCIO                      00945900000010030052017000  080000009709103                     9
Y605571210045137100876ALVAREZ                    CHAVEZ                     MA ROMANA                  00945900000010030052017000  080000009709203                     9
Y605571210043846821551MARTINEZ                   LOPEZ                      JUAN MANUEL                00945900000010030052017000  080000019099703                     9
Y605571210006865200874PEREZ                      GONZALEZ                   GREGORIO                   00945900000010030052017000  080000019114803                     9
Y605571210013068106684MARTINEZ                   GONZALEZ                   JAIME                      00945900000010030052017000  080000022039803                     9
Y605571210003149755211AYALA                      GRIMALDO                   ALAN MICHEL                00945900000010030052017000  080000022062603                     9
Y605571210014078957199AGUILAR                    ROBLES                     JOSE ALFREDO               00945900000010030052017000  080000022062703                     9
Y605571210071866601421GUILLEN                    PEREZ                      ARIOSTO                    00945900000010030052017000  080000023046803                     9
