Y462621510948077702917TAPIA                      NIEVES                     GISELA                     00945900000010027072016000  080000021151003                     9
Y462621510957159575257DIAZ                       LUNA                       IGNACIO                    00945900000010027072016000  080000021151103                     9
Y462621510948127002789BERMUDEZ                   OLGUIN                     FRANCISCO                  00945900000010027072016000  080000021151203                     9
