Y605571210038169660420CRISPIN                    PUENTE                     JESUS RAFAEL               00945900000010006122016000  080000005011903                     9
Y605571210096048627697CUEVAS                     RAMIREZ                    LUIS FERNANDO              00945900000010006122016000  080000009502403                     9
Y605571210092129421308GARCIA                     RIVERA                     JESUS                      00945900000010006122016000  080000009659003                     9
Y605571210039877024222VAZQUEZ                    LOPEZ                      ALEJANDRO                  00945900000010006122016000  080000009667103                     9
Y605571210096129362917BURGOS                     GUZMAN                     RICARDO DANIEL             00945900000010006122016000  080000009667203                     9
Y605571210030916100149ROMAN                      SANTANA                    ANGEL                      00945900000010006122016000  080000009667303                     9
Y605571210047089029020TOBANCHE                   ACOSTA                     MARTIN GUADALUPE           00945900000010006122016000  080000019095003                     9
Y605571210003886907793OSEGUEDA                   TAMEZ                      OSCAR                      00945900000010006122016000  080000019095103                     9
Y605571210003158651814GONZALEZ                   FLORES                     SILVINA                    00945900000010006122016000  080000019095303                     9
Y605571210046159625378CALLEJAS                   GARCIA                     MARCO ANTONIO              00945900000010006122016000  080000022050503                     9
Y605571210004169307677CAHUICH                    EK                         YENIFER AZENETH            00945900000010006122016000  080000023031003                     9
Y605571210009089153184ZENDEJAS                   HERNANDEZ                  ABRAHAM                    00945900000010006122016000  080000028036703                     9
Y605571210025169669725SANTIAGO                   CRUZ                       SEBASTIAN                  00945900000010006122016000  080000028037003                     9
