A836767410942048304853 TORRERO                   CARREON                    EMMANUEL ALEJANDRO         00945900000010004052016000  080000008040203                     9
A836767410933886926964ONTIVEROS                  VENEGAS                    PEDRO                      00945900000010004052016000  080000008042403                     9
A836767410933079185105OLVERA                     BARRON                     JOSE MIGUEL                00945900000010004052016000  080000008042503                     9
