Y605571210081016901191GRACIA                     MUÑOZ                      CARLOS MANUEL              00945900000010005062017000  080000004011403                     9
Y605571210048037801858MAGDALENO                  SANCHEZ                    JENY                       00945900000010005062017000  080000009709603                     9
Y605571210096048312530ARTEAGA                    GARCIA                     RAFAEL                     00945900000010005062017000  080000009709703                     9
Y605571210020048412264SANCHEZ                    ARRIETA                    ALONDRA                    00945900000010005062017000  080000009709803                     9
Y605571210018139917431TREJO                      CERVANTES                  VALERIA JAQUELINE          00945900000010005062017000  080000009709903                     9
Y605571210011018409786MEDINA                     GONZALEZ                   HECTOR ESTEBAN             00945900000010005062017000  080000009710003                     9
Y605571210003149402053MARTINEZ                   CRUZ                       JENNIFER                   00945900000010005062017000  080000015212203                     9
Y605571210025038609167RODRIGUEZ                  SALTO                      BRYAN SERGIO               00945900000010005062017000  080000025016703                     9
Y605571210028169841963GOMEZ                      CONTRERAS                  FRANCISCO                  00945900000010005062017000  080000030150603                     9
