Y605571210006826415835ROMANO                     CARMONA                    FLORENCIO                  00945900000010022072016000  080000009504503                     9
Y605571210024927645077PEREZ                      ALVAREZ                    ANGEL                      00945900000010022072016000  080000009596303                     9
Y605571210014099413289SANCHEZ                    PINEDA                     DIANA LAURA                00945900000010022072016000  080000022001702                     9
Y605571210019159603844OVANDO                     DOMINGUEZ                  DANIEL                     00945900000010022072016000  080000027056803                     9
Y605571210008169026062GONZALEZ                   RIVERA                     ROSA                       00945900000010022072016000  080000030119903                     9
