Y605571210096967923911HERNANDEZ                  CORTES                     GERARDO                    00945900000010028122016000  080000009041302                     9
Y605571210064847000862SANCHEZ                    GUTIERREZ                  ADRIAN                     00945900000010028122016000  080000009671703                     9
Y605571210045937716525GOMEZ                      FLORES                     ELSA MIRELLA               00945900000010028122016000  080000009671803                     9
Y605571210096056601394ALVAREZ                    BURGOS                     ROGELIO                    00945900000010028122016000  080000009671903                     9
Y605571210094997910768CASIANO                    CESAREO                    HUGO                       00945900000010028122016000  080000009672003                     9
Y605571210096998215584PEREZ                      SANCHEZ                    DANIEL                     00945900000010028122016000  080000009672103                     9
Y605571210016997305756MENDOZA                    CALDERON                   JOSE                       00945900000010028122016000  080000015187403                     9
Y605571210047998332473GARAY                      RODRIGUEZ                  NORMA YADIRA               00945900000010028122016000  080000019097503                     9
Y605571210019159845221MOLINA                     ESPINOZA                   AMAURY ADALBERTO           00945900000010028122016000  080000022051503                     9
Y605571210033008142722RUIZ                       CRUZ                       JULIO CESAR                00945900000010028122016000  080000022054403                     9
Y605571210005158750629RODRIGUEZ                  CASTILLO                   MARISOL                    00945900000010028122016000  080000022054503                     9
Y605571210082018212801GARCIA                     AES                        DORIS DEL CARMEN           00945900000010028122016000  080000023040603                     9
Y605571210008168702259PEREZ                      CHAN                       MANUEL JESUS               00945900000010028122016000  080000023040703                     9
Y605571210082007615246 UICAB                     PETUL                      JOSE ARMANDO               00945900000010028122016000  080000023040803                     9
Y605571210067018106913SOTO                       GALLEGOS                   MARIO JULIAN               00945900000010028122016000  080000023040903                     9
Y605571210049886765616ORTEGA                     LUCIO                      MARTIN                     00945900000010028122016000  080000028037503                     9
