Y605571210081068107051TUZ                        CHI                        WENTEYA                    00945900000010021022017000  080000004010903                     9
Y605571210045108615746MORENO                     CABELLO                    CHRISTIAN                  00945900000010021022017000  080000009042202                     9
Y605571210094028314782PLASCENCIA                 HERNANDEZ                  SANDRA                     00945900000010021022017000  080000009677603                     9
Y605571210096988113484MORALES                    ARREOLA                    ANDRES                     00945900000010021022017000  080000009684903                     9
Y605571210005129551049BARTOLO                    CARRETERO                  CARLOS ALBERTO             00945900000010021022017000  080000009685003                     9
Y605571210003158977433BENITEZ                    HERNANDEZ                  JONATHAN                   00945900000010021022017000  080000009685103                     9
Y605571210025149761576MANUEL                     NIEVES                     RAFAEL                     00945900000010021022017000  080000009685203                     9
Y605571210002177821721ROMERO                     TURIN                      REBECA                     00945900000010021022017000  080000015193603                     9
Y605571210092129413123VEGA                       RIVERA                     CESAR OSWALDO              00945900000010021022017000  080000015193703                     9
Y605571210092906619298ZERMEÒO                    VILLALPANDO                FRANCISCO                  00945900000010021022017000  080000015193803                     9
Y605571210038169429248RAMIREZ                    GONZALEZ                   MIRIAM LORENA              00945900000010021022017000  080000019102903                     9
Y605571210002178021370MARTINEZ                   MENDEZ                     ROBERTO                    00945900000010021022017000  080000023042603                     9
Y605571210055169729054MORENO                     GARCIA                     JULIO CESAR                00945900000010021022017000  080000023042703                     9
Y605571210082058416189MOO                        CHUC                       MARCIAL                    00945900000010021022017000  080000023042803                     9
Y605571210083098823863GAMAS                      COLORADO                   JESUS ANTONIO              00945900000010021022017000  080000027046803                     9
Y605571210083058002466RUIZ                       OSORIO                     DULCE MARIA                00945900000010021022017000  080000027051503                     9
Y605571210062149439044CRUZ                       LOPEZ                      CONRADO                    00945900000010021022017000  080000027052303                     9
Y605571210009927419508RODRIGUEZ                  FELIX                      ALEJANDRO                  00945900000010021022017000  080000028039303                     9
