Y605571210021058765187ROMERO                     CAMACHO                    JOSE MIGUEL                01194600000010022042016000  080000002048703                     9
Y605571210075927416174VELAZQUEZ                  SOSA                       VICTOR MANUEL              00945900000010022042016000  080000007008103                     9
Y605571210071108919714GOMEZ                      SANTIZ                     AURELIO                    00945900000010022042016000  080000007014603                     9
Y605571210039129426043FERNANDEZ                  MAYA                       ERICK                      00945900000010022042016000  080000009611303                     9
Y605571210007916501013SARABIA                    MONROY                     MARIA VIRGINIA             00945900000010022042016000  080000009611403                     9
Y605571210090108805624VALVERDE                   MORENO                     RAFAEL JONATHAN            00945900000010022042016000  080000009611503                     9
Y605571210030947540883LOYOLA                     SIERRA                     MIGUEL ANGEL               00945900000010022042016000  080000009611603                     9
Y605571210058159511078CASTILLO                   CHAVEZ                     RICARDO ADRIAN             00945900000010022042016000  080000009611703                     9
Y605571210053129311121ARELLANO                   REYNA                      JOSEFA TOMASA              00945900000010022042016000  080000009611803                     9
Y605571210030129413735MENCHACA                   RAZO                       JESUS                      00945900000010022042016000  080000009611903                     9
Y605571210046119310418DAVALOS                    CRUZ                       VICTOR BRANDONN            00945900000010022042016000  080000009612003                     9
Y605571210072028213964GARNELO                    DOLORES                    MANUEL                     00945900000010022042016000  080000009612103                     9
Y605571210007947200239GARCIA                     MARIN                      ALBERTO                    00945900000010022042016000  080000009612203                     9
Y605571210042078608058MOLINA                     GONZALEZ                   FREDY DANIEL               00945900000010022042016000  080000009612303                     9
Y605571210030967906527SANCHEZ                    SILVA                      ELIZABETH                  00945900000010022042016000  080000009612403                     9
Y605571210049149536176ESTRADA                    JUAREZ                     ROBERTO CARLOS             00945900000010022042016000  080000015170703                     9
Y605571210047987924306BURGOS                     RODRIGUEZ                  GUILLERMO                  00945900000010022042016000  080000019076703                     9
Y605571210043109358861ALVAREZ                    MARTINEZ                   ABRAHAM                    00945900000010022042016000  080000019076803                     9
Y605571210015169728712RAMOS                      LOPEZ                      KAREN ESTEPHANY            00945900000010022042016000  080000027054103                     9
