Y605571210096119117339CHAVEZ                     LOPEZ                      DULCE VIRIDIANA            00945900000010027012017000  080000009679503                     9
Y605571210001937420642GONZALEZ                   ESPARZA                    DELFINO HUMBERTO           00945900000010027012017000  080000015178803                     9
Y605571210002179361171GONZALEZ                   MONJARDIN                  JOSE LUIS                  00945900000010027012017000  080000015189603                     9
Y605571210013139859154TREJO                      ALVAREZ                    JOSUE IBRAIN               00945900000010027012017000  080000015189703                     9
Y605571210003147143634TORRES                     CEDILLO                    ABEL                       00945900000010027012017000  080000015189803                     9
Y605571210053139235864AGUILAR                    MARTINEZ                   SALVADOR                   00945900000010027012017000  080000016010203                     9
Y605571210043745412379CARMONA                    MARTINEZ                   MONICA ALEJANDRA           00945900000010027012017000  080000019101003                     9
Y605571210065129271568BAXIN                      MACARIO                    MIGUEL ANGEL               00945900000010027012017000  080000022056203                     9
Y605571210014129408770VELAZQUEZ                  PILAR                      WALDO JAVIER               00945900000010027012017000  080000022056303                     9
