A836767410933957987176MENDOZA                    BARRON                     MARIA ISABEL               00945900000010021072016000  080000008051803                     9
A836767410912998021831BENITEZ                    MORENO                     ARTURO                     00945900000010021072016000  080000008051903                     9
A836767410935119302681VILLALBA                   SOTO                       JESUS  JOSE                00945900000010021072016000  080000008052003                     9
