Y605571210010158846625YAÑEZ                      PEREZ                      JOSE ISABEL                00945900000010014062016000  080000009619703                     9
Y605571210012128818874JIMENEZ                    VASQUEZ                    JORGE LUIS                 00945900000010014062016000  080000011084303                     9
Y605571210090078802924AGUILAR                    RAMIREZ                    EDGAR EDUARDO              00945900000010014062016000  080000015175203                     9
Y605571210062149694812SALGADO                    HUERTA                     HAMLET                     00945900000010014062016000  080000022046003                     9
Y605571210014048516182RANGEL                     NIEVES                     JOSE MARTIN                00945900000010014062016000  080000022046103                     9
Y605571210082088949399LOPEZ                      MORALES                    NEHEMIAS                   00945900000010014062016000  080000023028403                     9
Y605571210083139427963CHABLE                     SANCHEZ                    EDWIN ALBERTO              00945900000010014062016000  080000023028503                     9
Y605571210071078809127LAZARO                     CAMACHO                    LUIS ALBERTO               00945900000010014062016000  080000023028603                     9
Y605571210082109018943VILLANUEVA                 CAMBRANES                  SERGIO GUILLERMO           00945900000010014062016000  080000023028703                     9
Y605571210082007700220CANCHE                     ACOSTA                     ANI DE ROSAURA             00945900000010014062016000  080000023028803                     9
Y605571210071109221961GONZALEZ                   ROBLEDO                    BACILIO RUDIEL             00945900000010014062016000  080000023028903                     9
Y605571210056159546946RAMIREZ                    MORENO                     JESUS                      00945900000010014062016000  080000029005903                     9
Y605571210048089103997MEJIA                      GONZALEZ                   JOSE ENRIQUE               00945900000010014062016000  080000029006003                     9
