Y605571210015169900675ROSAS                      VALLE                      ADRIAN                     00945900000010016022017000  080000009684103                     9
Y605571210003179417245CASTAÑEDA                  SERRANO                    KARLA                      00945900000010016022017000  080000015192103                     9
Y605571210016998156422CONTRERAS                  BECERRIL                   GUSTAVO                    00945900000010016022017000  080000015192903                     9
Y605571210078139446344NIETO                      GONZAGA                    JOSE ARMANDO               00945900000010016022017000  080000022057403                     9
Y605571210071108810079CAMERAS                    GORDILLO                   FRAYDA                     00945900000010016022017000  080000023042403                     9
Y605571210067018414713SAUCEDA                    RODRIGUEZ                  JAIME                      00945900000010016022017000  080000030136503                     9
