Y605571210096139525206APARICIO                   SANCHEZ                    MARIANA DE JESUS           00945900000010028022017000  080000009669103                     9
Y605571210092897059116LOMELI                     RAMIREZ                    MIGUEL ANGEL               00945900000010028022017000  080000009686203                     9
Y605571210028048407531PLATA                      GARCIA                     PEDRO ABRAHAM              00945900000010028022017000  080000009686303                     9
Y605571210020139717894PERCASTEGUI                MONROY                     JESUS ADRIAN               00945900000010028022017000  080000009686403                     9
Y605571210025169250807GUTIERREZ                  VILLEGAS                   GUADALUPE                  00945900000010028022017000  080000023038303                     9
Y605571210067058606129HERNANDEZ                  BARRERA                    ELIAS                      00945900000010028022017000  080000030138003                     9
Y605571210067139307796PALMA                      SARAO                      PABLO                      00945900000010028022017000  080000030138103                     9
Y605571210067058007021NAZARIO                    GALINDO                    ADELA                      00945900000010028022017000  080000030138203                     9
