Y605571210005168846219VAZQUEZ                    PESCADOR                   ANNIE MONSERRAT            00945900000010006092016000  080000009039802                     9
Y605571210096139516981ROSAS                      ZAVALA                     ANTONIO EDWIN              00945900000010006092016000  080000009470303                     9
Y605571210008159064651APARICIO                   CANO                       FELICIANO                  00945900000010006092016000  080000009642803                     9
Y605571210050149488384RODRIGUEZ                  MARTINEZ                   ERNESTO                    00945900000010006092016000  080000009642903                     9
Y605571210047998122262SALAZAR                    GARZA                      MIGUEL ANGEL               00945900000010006092016000  080000019086503                     9
Y605571210071098807895GOMEZ                      GOMEZ                      JOSE FERNANDO              00945900000010006092016000  080000027058303                     9
Y605571210049169648000PEREZ                      CASTILLO                   MARLEN                     00945900000010006092016000  080000030125003                     9
Y605571210067866775744GABRIEL                    ORTIZ                      ESTEBAN                    00945900000010006092016000  080000030125103                     9
