Y605571210096048325557FUENTES                    LOPEZ                      VIOLETA                    00945900000010010112016000  080000009040702                     9
Y605571210045139105253ROJAS                      QUINTERO                   MAURICIO                   00945900000010010112016000  080000009656603                     9
Y605571210009169444875LEON                       REYES                      SERGIO DENIS               00945900000010010112016000  080000009656703                     9
Y605571210027169320895LEON                       REYES                      GABRIEL                    00945900000010010112016000  080000009656803                     9
Y605571210096129322499ESPINOZA                   HERNANDEZ                  ALFREDO                    00945900000010010112016000  080000009656903                     9
Y605571210054169692842MONDRAGON                  LEYVA                      ARMANDO                    00945900000010010112016000  080000009657003                     9
Y605571210078129303885GUZMAN                     HERNANDEZ                  OSCAR AGUSTIN              00945900000010010112016000  080000009657103                     9
Y605571210009998039995MARTINEZ                   BARCENAS                   LUIS ALBERTO               00945900000010010112016000  080000019066003                     9
Y605571210067947692322AMBROSIO                   CAMPECHANO                 JOSE GUADALUPE             00945900000010010112016000  080000019092603                     9
Y605571210021088401670ROSALES                    SANCHEZ                    MANUEL                     00945900000010010112016000  080000025010703                     9
Y605571210023068970013ARIAS                      MENDOZA                    JOSE LUIS                  00945900000010010112016000  080000025010803                     9
Y605571210049978147780SERNA                      INFANTE                    NESTOR DANIEL              00945900000010010112016000  080000028035103                     9
Y605571210049998115270SANCHEZ                    GONZALEZ                   JOSE ANTONIO               00945900000010010112016000  080000028036003                     9
Y605571210007907114701CEQUERA                    GOMEZ                      ALFREDO                    00945900000010010112016000  080000030099403                     9
