Y605571210051877022361MONREAL                    DAVILA                     JUAN JOSE                  00945900000010028072016000  080000001008203                     9
Y605571210045139019900NAVARRETE                  MANZANARES                 JOSE XAVIER                00945900000010028072016000  080000009038902                     9
Y605571210042139202271LOPEZ                      MARTINEZ                   VICTOR SALVADOR            00945900000010028072016000  080000009630703                     9
Y605571210054169851760CRUZ                       AVILA                      ANA ITZEL                  00945900000010028072016000  080000009630803                     9
Y605571210039937662433BELTRAN                    MARTINEZ                   ORLANDO                    00945900000010028072016000  080000009630903                     9
Y605571210028917126444VILLA                      MEJIA                      IRMA                       00945900000010028072016000  080000009631003                     9
Y605571210017856512698ISLAS                      CONTRERAS                  HECTOR ENRIQUE             00945900000010028072016000  080000009631103                     9
Y605571210005169051017MEJIA                      REYES                      AIDEE ABIGAIL              00945900000010028072016000  080000009631203                     9
Y605571210030947318223FLORES                     ESCANDON                   FRANCISCO                  00945900000010028072016000  080000009631303                     9
Y605571210012886410617CANO                                                  JORGE JESUS                00945900000010028072016000  080000011086703                     9
Y605571210060149592838GUTIERREZ                  SILVA                      RUBY MONSERRAT             00945900000010026072016000  080000015179003                     9
Y605571210035877122693GAXIOLA                    DEL HIERRO                 ALMA ROSA                  00945900000010028072016000  080000015179303                     9
Y605571210017149425229PARCERO                    CRUZ                       LEONEL CASTRO              00945900000010028072016000  080000019084603                     9
Y605571210058159738473BENITO                     GOMEZ                      PABLO                      00945900000010028072016000  080000019084703                     9
Y605571210003169464660HERNANDEZ                  PRIMITIVA                  JOSE SANTIAGO              00945900000010028072016000  080000019084803                     9
Y605571210060149667861LOPEZ                      MARTINEZ                   JOSE GUADALUPE             00945900000010028072016000  080000019084903                     9
Y605571210014937018894HERNANDEZ                  SANCHEZ                    DANIEL                     00945900000010028072016000  080000022048803                     9
Y605571210002166437778QUINO                      BAXIN                      MATILDE                    00945900000010028072016000  080000022048903                     9
Y605571210014108506180AGUILAR                    ZAMORANO                   KRISHNA ANGELINA           00945900000010028072016000  080000022049003                     9
Y605571210014907242318MENESES                    LOPEZ                      JULIO                      00945900000010028072016000  080000022049103                     9
Y605571210082099108985AYALA                      RINCON                     AUSENCIO                   00945900000010028072016000  080000023029303                     9
Y605571210023129511111MOLINA                     DAVALOS                    VICTOR GUADALUPE           00945900000010028072016000  080000025004403                     9
Y605571210083037701170SANCHEZ                    CEFERINO                   ANA MARIA                  00945900000010028072016000  080000027051403                     9
Y605571210081088807011CASTILLO                   MAY                        ALEX                       00945900000010028072016000  080000027057303                     9
Y605571210010159006351PACHECO                    JIMENEZ                    MARBELLA AURORA            00945900000010028072016000  080000027057403                     9
Y605571210044149609768RAMON                      BRITO                      JOSE RICARDO               00945900000010028072016000  080000027057503                     9
Y605571210049887123054LIMA                       GOMEZ                      SANTOS MANUEL              00945900000010028072016000  080000028033303                     9
Y605571210067866955536GUTIERREZ                  CORTES                     MIGUEL ANGEL               00945900000010028072016000  080000028033403                     9
Y605571210067129364112BLAS                       SANCHEZ                    CECILIO                    00945900000010028072016000  080000030072103                     9
Y605571210071896850550VILLATORO                  VAZQUEZ                    JOSE LUIS                  00945900000010028072016000  080000030120403                     9
Y605571210075088971777ORTIZ                      ESPINOSA                   ALBERTO                    00945900000010028072016000  080000030120503                     9
Y605571210039947585830JIMENEZ                    SALAZAR                    SEBASTIAN                  00945900000010028072016000  080000030120603                     9
Y605571210065038615152DE LA CRUZ                 SOTO                       RICARDO MANUEL             00945900000010028072016000  080000030120703                     9
