Y462621510948987985891GONZALEZ                   ENRIQUEZ                   LUIS                       00945900000010017022017000  080000021155003                     9
Y462621510948018036268QUINTOS                    RAMIREZ                    JAVIER                     00945900000010017022017000  080000021164703                     9
Y462621510962937523934VAZQUEZ                    MONTERROSAS                ALFREDO                    00945900000010017022017000  080000021164803                     9
Y462621510962886737196LOZANO                     DELGADO                    MARINA                     00945900000010017022017000  080000021164903                     9
