Y605571210090139014501MONTES                     LOPEZ                      CARLOS IVAN                00945900000010025052017000  080000009707903                     9
Y605571210045139624261LEON                       RANGEL                     EDDY SANTIAGO              00945900000010025052017000  080000009708003                     9
Y605571210063805810122BOJORQUEZ                  MAY                        CARLOS ROBERTO             00945900000010025052017000  080000009708103                     9
Y605571210096108818442CEDILLO                    SOLANO                     ELIZABETH                  00945900000010025052017000  080000009708203                     9
Y605571210092139503368MARTINEZ                   PINEDA                     HECTOR                     00945900000010025052017000  080000015211303                     9
Y605571210044159763273SUAREZ                     GUTIERREZ                  FERNANDO IORY ADDI         00945900000010025052017000  080000015211403                     9
Y605571210047139407416DOMINGUEZ                  TIJERINA                   GERARDO GUADALUPE          00945900000010025052017000  080000019114103                     9
Y605571210043826610693FLORES                     GARZA                      JOSE HUMBERTO              00945900000010025052017000  080000019114203                     9
Y605571210047078806164BECERRA                    REGINO                     JOSE ISAAC                 00945900000010025052017000  080000019114303                     9
Y605571210001138868755RAMOS                      HERNANDEZ                  ANA ISABEL                 00945900000010025052017000  080000023046503                     9
Y605571210023099235832VALENZUELA                 FELIX                      ALEXIS ALAN                00945900000010025052017000  080000025016403                     9
Y605571210083836701959VELAZQUEZ                  BAUTISTA                   ORNAN                      00945900000010025052017000  080000027061803                     9
