A836767410921038686198MENDEZ                     HERNANDEZ                  LUIS ENRIQUE               00945900000010011072017000  080000002059203                     9
A836767410925957931444MARISCAL                   PEREO                      ROSALINDA                  00945900000010011072017000  080000002059303                     9
A836767410908179220705ADRIANO                    RAMOS                      JUAN CARLOS                00945900000010011072017000  080000008077003                     9
