A836767410933139370820CUEVAS                     SALAS                      LORENZO ERNESTO            00945900000010007072016000  080000008033403                     9
A836767410933086000032NIEVES                     GARCIA                     ALBERTO                    00945900000010007072016000  080000008050403                     9
A836767410933998246285GALLEGOS                   HERRERA                    ABRAHAM                    00945900000010007072016000  080000008050503                     9
