A836767410933119253335MACIAS                     JURADO                     ILIANA LIZDEBETH           00945900000010023052016000  080000008001502                     9
A836767410950937749328LEDEZMA                    ESPINO                     GUADALUPE ALEJANDRO        00945900000010023052016000  080000008044803                     9
A836767410933947737301HERNANDEZ                  IRACHETA                   FRANCISCO JAVIER           00945900000010023052016000  080000008044903                     9
A836767410921129428864PE—A                       VAZQUEZ                    JOSE MARIO                 00945900000010023052016000  080000008045003                     9
A836767410933816082722VILLALBA                   NUÒEZ                      CARMEN GRACIA              00945900000010023052016000  080000008045103                     9
A836767410950917512415MARQUEZ                    ORONA                      ISIDRA NOHEMI              00945900000010023052016000  080000008045203                     9
A836767410960149573002CRUZ                       RASCON                     JESUS ADRIEL               00945900000010023052016000  080000008045303                     9
