R143868210304745754913MARTINEZ                   AMERICANO                  HUMBERTO MANUEL            00945900000010019012017000  080000014048003                     9
R143868210353937804556HERNANDEZ                  CHAVEZ                     BRENDA YADIRA              00945900000010019012017000  080000014110903                     9
R143868210304876443450MENDOZA                    LOPEZ                      JAVIER                     00945900000010019012017000  080000014129303                     9
R143868210304745407512GARCIA                     BEDOY                      JOAQUIN                    00945900000010019012017000  080000014129703                     9
R143868210304907311676NERI                       REYNAGA                    JAIME                      00945900000010019012017000  080000014129803                     9
