A836767410921118006952CEJA                       SILVESTRE                  NETZAHUALCOYOLT            00945900000010007082017000  080000002061803                     9
A836767410924127600112ONTIVEROS                  RAMIREZ                    JOSE EUGENIO               00945900000010007082017000  080000002061903                     9
A836767410933109212515AREVALO                    AGUILAR                    ANGEL ALEJANDRO            00945900000010007082017000  080000008079703                     9
A836767410935927395596VENEGAS                    IBARRA                     ALMA GUILLERMINA           00945900000010007082017000  080000008079803                     9
A836767410933129252418GUTIERREZ                  BELTRAN                    JESUS ADRIAN               00945900000010007082017000  080000008079903                     9
