R143868210304058556558CONTRERAS                  GUTIERREZ                  VICTOR HUGO                00945900000010021092016000  080000014120603                     9
R143868210304988006567FERNANDEZ                  GOMEZ                      MARCO ANTONIO              00945900000010021092016000  080000014120703                     9
R143868210326148706067RIVERA                     MARTINEZ                   ROBERTO ALEJANDRO          00945900000010021092016000  080000014120803                     9
R143868210354897219520SANCHEZ                    CERVANTES                  ADOLFO                     00945900000010021092016000  080000014120903                     9
