Y605571210039008418715GONZALEZ                   ZARAGOZA                   MARIO                      00945900000010021062016000  080000009492403                     9
Y605571210098129409771PEREZ                      AMBROCIO                   CARLOS ALBERTO             00945900000010021062016000  080000009620603                     9
Y605571210056159543695HERNANDEZ                  AMBROSIO                   RICARDO                    00945900000010021062016000  080000009620703                     9
Y605571210002155816651MARQUEZ                    MONTES                     MOISES                     00945900000010021062016000  080000009620803                     9
Y605571210037089204418SANCHEZ                    SANCHEZ                    ELIASIB                    00945900000010021062016000  080000009620903                     9
Y605571210001998024879GOMEZ                      ESCALANTE                  MOISES                     00945900000010021062016000  080000009621003                     9
Y605571210035149571438CERVANTES                  RODRIGUEZ                  MARCO ANTONIO              00945900000010021062016000  080000009621103                     9
Y605571210054169764286GARCIA                     GARCIA                     OTTONIEL                   00945900000010021062016000  080000009621203                     9
Y605571210063937407912MUÒOZ                      GARCIA                     ALEJANDRO                  00945900000010021062016000  080000011084503                     9
Y605571210035159271960ORTA                       LOPEZ                      EMMANUEL CESAR             00945900000010021062016000  080000013011903                     9
Y605571210007169111106PEREZ                      RESENDIZ                   GUSTAVO                    00945900000010021062016000  080000013012003                     9
Y605571210013129449057GARCIA                     BONETTA                    KEVIN OLAFF                00945900000010021062016000  080000013012103                     9
Y605571210025169588537CASTILLO                   TREJO                      FLORENCIO                  00945900000010021062016000  080000013012203                     9
Y605571210013047504355RAMIREZ                    VEGA                       ANA BERTHA                 00945900000010021062016000  080000013012303                     9
Y605571210013089107802MENDEZ                     CORONA                     YESENIA                    00945900000010021062016000  080000013012403                     9
Y605571210016058612199SANCHEZ                    GONZALEZ                   MARTIN                     00945900000010021062016000  080000015133703                     9
Y605571210039977735172RODRIGUEZ                  GONZALEZ                   MOISES                     00945900000010021062016000  080000015176303                     9
Y605571210014058762064TREJO                      ROJAS                      MARIA ZELENE               00945900000010021062016000  080000022001602                     9
Y605571210014139312814LOPEZ                      HERNANDEZ                  ALEJANDRO                  00945900000010021062016000  080000029006103                     9
Y605571210061876202286CUELLAR                    AGUILA                     FELIPE                     00945900000010021062016000  080000029006203                     9
Y605571210067118911287ROSAS                      ROJAS                      ERNESTO                    00945900000010021062016000  080000030070503                     9
Y605571210065088739910LUNA                       PEREZ                      JOSE ANTONIO               00945900000010021062016000  080000030117803                     9
