Y605571210096159802626MORALES                    DIAZ                       JAVIER                     00945900000010001112016000  080000009653903                     9
Y605571210096139552275RAMOS                      MARTINEZ                   SANDRA                     00945900000010001112016000  080000009654003                     9
Y605571210085149506090REYES                      SANTA CRUZ                 JUAN CARLOS                00945900000010001112016000  080000009654103                     9
Y605571210030998104647LEON                       TORRES                     JOSE MARIA                 00945900000010001112016000  080000009654203                     9
Y605571210042967913387JUAREZ                     CAMACHO                    CRUZ ENRIQUE               00945900000010001112016000  080000009654303                     9
Y605571210037987719517FLORES                     AGUILERA                   ORLANDO JAVIER             00945900000010001112016000  080000009654403                     9
Y605571210048998127160SANTOS                     JIMENEZ                    OSCAR                      00945900000010001112016000  080000009654503                     9
Y605571210042998215570ALVAREZ                    FRANCO                     ALBERTO JORGE              00945900000010001112016000  080000009654603                     9
Y605571210057078905767MU—OZ                      ARREDONDO                  DAVID                      00945900000010001112016000  080000011090403                     9
Y605571210055089004786CASAS                      LOPEZ                      OMAR ALEJANDRO             00945900000010001112016000  080000018001103                     9
Y605571210043016704546PIÒA                       GUEVARA                    EDNA MARCELA               00945900000010001112016000  080000019088903                     9
Y605571210067139451149CRUZ                       CORONADO                   ANGEL DE JESUS             00945900000010001112016000  080000030127403                     9
