Y605571210071077808849RAMIREZ                    ALFARO                     MARICELIA                  00945900000010021092016000  080000007014703                     9
Y605571210096058433788VALDEZ                     RAMIREZ                    JORGE ERASMO               00945900000010021092016000  080000009646203                     9
Y605571210030039200040MARTINEZ                   RIVERA                     JUAN ANTONIO               00945900000010021092016000  080000009646303                     9
Y605571210003167911746VALENCIANO                 REVERIANO                  NAPOLEON                   00945900000010021092016000  080000009646403                     9
Y605571210001129502926JUAREZ                     FERRE                      JORGE EDUARDO              00945900000010021092016000  080000009646503                     9
Y605571210096078833363RAMIREZ                    VELASCO                    JANNETE MARLEN             00945900000010021092016000  080000009646603                     9
Y605571210078119539662RIVERA                     LOPEZ                      ANGELICA JAZMIN            00945900000010021092016000  080000009646703                     9
Y605571210078119344402RIVERA                     ZU—IGA                     ROBERTO                    00945900000010021092016000  080000009646803                     9
Y605571210017169166414GARCIA                     SANTOS                     MARIA ELENA                00945900000010021092016000  080000009646903                     9
Y605571210005169320271LARA                       RODRIGUEZ                  GUSTAVO ALBERTO            00945900000010021092016000  080000013015303                     9
Y605571210065998307816RODRIGUEZ                  CRUZ                       JUAN RICHAR                00945900000010021092016000  080000013015403                     9
Y605571210038169720729DE JESUS                   HERNANDEZ                  CRISTIAN                   00945900000010021092016000  080000013015503                     9
Y605571210016098309509NAVARRETE                  PLATA                      HUGO                       00945900000010021092016000  080000015160003                     9
Y605571210092088815573NIÒO                       GARCIA                     EFRAIN                     00945900000010021092016000  080000015182103                     9
Y605571210043887104925MARTINEZ                   ALVAREZ                    JORGE LUIS                 00945900000010021092016000  080000019087303                     9
Y605571210023967201155LOPEZ                      GARCIA                     JESUS                      00945900000010021092016000  080000025009303                     9
Y605571210023887116053GARCIA                     VALENZUELA                 JOSE GUADALUPE             00945900000010021092016000  080000025009403                     9
Y605571210067128924759LARA                       ORTEGA                     VICTOR ABRAHAM             00945900000010021092016000  080000030125603                     9
