Y605571210019149640419MONTALVO                   FRAUSTO                    LUIS ANDRES                00945900000010028092016000  080000009647803                     9
Y605571210090987819282ESPINDOLA                  BASURTO                    MIGUEL ANGEL               00945900000010028092016000  080000015182603                     9
Y605571210060149667861LOPEZ                      MARTINEZ                   JOSE GUADALUPE             00945900000010028092016000  080000019084903                     9
Y605571210047119205087HERNANDEZ                  HERNANDEZ                  JOSE LUCAS                 00945900000010028092016000  080000019088003                     9
Y605571210047028504224HERNANDEZ                  VALADEZ                    HECTOR                     00945900000010028092016000  080000019088103                     9
Y605571210014856710778REGALADO                   MARTINEZ                   JUAN MARCOS                00945900000010028092016000  080000022051103                     9
Y605571210023977704446RODELA                     MOLINA                     SALVADOR                   00945900000010028092016000  080000025009903                     9
Y605571210025159682704NAJERA                     SANTIAGO                   J. ASUNCION                00945900000010028092016000  080000028035803                     9
Y605571210009129489861NAJERA                     SANTIAGO                   FRANCISCO                  00945900000010028092016000  080000028035903                     9
Y605571210054149608207RODRIGUEZ                  GAMBOA                     RAMON EDUARDO              00945900000010028092016000  080000030126003                     9
