Y462621510937038311322LOPEZ                      MARTINEZ                   REYES                      00945900000010013032017000  080000021166303                     9
Y462621510962977563733MONTIEL                    RIVERA                     ANA LAURA                  00945900000010013032017000  080000021166403                     9
Y462621510949149476654SANCHEZ                    MONTIEL                    ARACELI                    00945900000010013032017000  080000021166503                     9
