Y605571210039977409786SANCHEZ                    MARTINEZ                   JOSE LUIS                  00945900000010028042016000  080000009613603                     9
Y605571210096139513970BARRERA                    SALAS                      OMAR                       00945900000010028042016000  080000009614103                     9
Y605571210045947718529MARTINEZ                   ROSAS                      VICTOR ALEJANDRO           00945900000010028042016000  080000009614203                     9
Y605571210008159616229CADENA                     CASTILLO                   JOSE ALEJANDRO             00945900000010028042016000  080000009614303                     9
Y605571210054766300534JIMENEZ                    ARELLANO                   HIPOLITO                   00945900000010028042016000  080000014107603                     9
Y605571210010169684239ORTEGA                     GONZALEZ                   URIEL                      00945900000010028042016000  080000014111803                     9
Y605571210013139214632CORONA                     PADILLA                    IVAN                       00945900000010028042016000  080000014111903                     9
Y605571210075947301786CHAVEZ                     ROBLES                     LETICIA                    00945900000010028042016000  080000014112003                     9
Y605571210004058898794GUERRERO                   DOMINGUEZ                  ARMANDO                    00945900000010028042016000  080000014112103                     9
Y605571210016139489385VALDEZ                     REYES                      MIGUEL ANGEL               00945900000010028042016000  080000015171203                     9
Y605571210003158797021GONZALEZ                   MORENO                     ALEJANDRA                  00945900000010028042016000  080000016007003                     9
Y605571210047089041165ENRIQUEZ                   COLUNGA                    JESUS HUMBERTO             00945900000010028042016000  080000019065503                     9
Y605571210049785718799IBARRA                     SALAS                      SANTIAGO                   00945900000010028042016000  080000019077203                     9
Y605571210066159661777BAXIN                      PEREZ                      MARIANO                    00945900000010028042016000  080000022042403                     9
Y605571210065119297201ANTELE                     PALAYOT                    ANA VALERIA                00945900000010028042016000  080000022042503                     9
Y605571210082099113191CORDOVA                    ALBERT                     LAURA ISELA                00945900000010028042016000  080000023026603                     9
Y605571210083988026239DE LA CRUZ                 SUAREZ                     LEONARDO                   00945900000010028042016000  080000023026703                     9
Y605571210083109201562ALCUDIA                    GOMEZ                      ABEL                       00945900000010028042016000  080000023026803                     9
Y605571210082139418261PECH                       UC                         HENRY MARTIN               00945900000010028042016000  080000023026903                     9
Y605571210009069108828ESCOBEDO                   DE LA O                    EDGAR ALEJANDRO            00945900000010028042016000  080000028031303                     9
