A836767410933078922201ANCHONDO                   VENZOR                     MONICA                     00945900000010022072016000  080000008002202                     9
A836767410933026101585AGUIRRE                    ROMERO                     CATALINA                   00945900000010022072016000  080000008038703                     9
A836767410933996915097LOPEZ                      RIVERA                     MIRNA TERESA               00945900000010022072016000  080000008044203                     9
A836767410935119302681VILLALBA                   SOTO                       JESUS JOSE                 00945900000010022072016000  080000008052003                     9
