R143868210304028718171UGALDE                     ALGREDO                    ANNAI                      00945900000010028092016000  080000014121103                     9
R143868210304139068417MENDOZA                    GALVAN                     FRANCISCO JAVIER           00945900000010028092016000  080000014121203                     9
R143868210304988129229NUÒEZ                      PADILLA                    HILDA JANETH               00945900000010028092016000  080000014121303                     9
R143868210350169647588VILLALPANDO                PEREZ                      JOSE EDUARDO               00945900000010028092016000  080000014121403                     9
