Y702574710184128919648PEREZ                      FUENTES                    RICARDO ANTONIO            00945900000010021032017000  080000031035503                     9
Y702574710184137300483CUPUL                      LOEZA                      EDUARDO ARIEL              00945900000010021032017000  080000031035603                     9
Y702574710184846411126TORRES                     CRESPO                     JUAN GREGORIO              00945900000010021032017000  080000031035703                     9
