Y605571210081906701321VIDAL                      CABALLERO                  LUIS ALFONSO               00945900000010022052017000  080000004007703                     9
Y605571210008158767817DIAZ                       SARMIENTO                  NUBIA YULIANI              00945900000010022052017000  080000007019003                     9
Y605571210045138508333ROJAS                      DEL VALLE                  SADID                      00945900000010022052017000  080000009706503                     9
Y605571210005179490619CAMPOS                     ALVAREZ                    BRAYAN EDIVANI             00945900000010022052017000  080000009706603                     9
Y605571210045897340266SALVADOR                   SALGUERO                   EDAILIE                    00945900000010022052017000  080000009706703                     9
Y605571210017846429680BURGOS                     RIVERA                     JULIO                      00945900000010022052017000  080000009706803                     9
Y605571210006806210255REYES                      PEREZ                      JOSE LUIS                  00945900000010022052017000  080000009706903                     9
Y605571210093119326929ALONSO                     ALDANA                     VICTOR ALFONSO             00945900000010022052017000  080000015210803                     9
Y605571210002176127278MARTINEZ                   REYES                      JUAN MANUEL                00945900000010022052017000  080000016011403                     9
Y605571210083017900958LOPEZ                      DE LA CRUZ                 FLORICEL                   00945900000010022052017000  080000019113603                     9
Y605571210083119247274GONZALEZ                   GARCIA                     MAGDIEL                    00945900000010022052017000  080000019113703                     9
Y605571210005159790244GONZALEZ                   SANCHEZ                    MANRIQUE                   00945900000010022052017000  080000019113803                     9
Y605571210002165112133MONTALVO                   VILLASANA                  JACINTO                    00945900000010022052017000  080000019113903                     9
Y605571210065118720237ROSALES                    COBOS                      NIMBE TZANAT               00945900000010022052017000  080000022062303                     9
Y605571210023735701098ALVAREZ                    BARRON                     JUAN ANTONIO               00945900000010022052017000  080000025013003                     9
Y605571210023109346058RODRIGUEZ                  ACOSTA                     JOSE IGNACIO               00945900000010022052017000  080000025013803                     9
Y605571210027149772447TORRES                     MARQUEZ                    JUAN ANGEL                 00945900000010022052017000  080000028034503                     9
Y605571210009109420514ARREOLA                    GONZALEZ                   ISAI ALEJANDRO             00945900000010022052017000  080000028039403                     9
Y605571210026169583122MARCIAL                    ROMAN                      JUAN CARLOS                00945900000010022052017000  080000030119603                     9
Y605571210002159469465HERNANDEZ                  CASTILLO                   RODRIGO                    00945900000010022052017000  080000030149203                     9
Y605571210067038322557MORALES                    CRUZ                       JOSE JACOB                 00945900000010022052017000  080000030149303                     9
Y605571210002177858400GUILLEN                    HERNANDEZ                  JOSE LUIS                  00945900000010022052017000  080000030149403                     9
Y605571210067108917856GUATEMALA                  VAZQUEZ                    VICTOR ALBERTO             00945900000010022052017000  080000030149503                     9
