Y605571210051008111471TISCAREÒO                  CISNEROS                   ARTURO                     00945900000010020052016000  080000001006503                     9
Y605571210042088903069VELAZQUEZ                  MARTINEZ                   DWEEZIL JOAQUIN            00945900000010020052016000  080000009616703                     9
Y605571210046907230950MORA                       RESENDIZ                   CESAR                      00945900000010020052016000  080000009616803                     9
Y605571210063008316109ESCOTO                     RAZO                       SODD AGUSTIN               00945900000010020052016000  080000014113303                     9
Y605571210041806228080PUENTE                     RUIZ                       ENRIQUE                    00945900000010020052016000  080000014113403                     9
Y605571210085149547169CONTRERAS                  NAVARRO                    ERNESTO ALONSO             00945900000010020052016000  080000014113503                     9
Y605571210002168695928RAFAEL                     BECERRA                    CARLOS                     00945900000010020052016000  080000014113603                     9
Y605571210094119226507GONZALEZ                   MORO                       ANDRES FAUSTINO            00945900000010020052016000  080000015173303                     9
Y605571210078117800157GUZMAN                     ALLENDE                    JORGE LUIS                 00945900000010020052016000  080000020025103                     9
Y605571210014119618735JIMENEZ                    VELAZQUEZ                  ALONDRA                    00945900000010020052016000  080000022044003                     9
Y605571210008159684755MORA                       MORALES                    LUIS FERNANDO              00945900000010020052016000  080000027049403                     9
Y605571210083139601112LOPEZ                      GASPAR                     JUAN LUIS                  00945900000010020052016000  080000027050603                     9
Y605571210078906719964PALMA                      ROSAS                      JESUS MACARIO              00945900000010020052016000  080000030116103                     9
