Y462621510962927518548JURADO                     REGUEZ                     GUSTAVO                    00945900000010017082016000  080000021152203                     9
Y462621510962977860667GRANADOS                   GARCIA                     LAZARO                     00945900000010017082016000  080000021152703                     9
Y462621510924018309344ESTEBAN                    CHOMIT                     AARON                      00945900000010017082016000  080000021152803                     9
Y462621510948139509300CRUZ                       CRUZ                       EMILIANO                   00945900000010017082016000  080000021152903                     9
