Y605571210042028301291ESCARCEGA                  MATA                       ENRIQUE                    00945900000010004082017000  080000009042902                     9
Y605571210096058737188PEREZ                      GUZMAN                     ELIAS                      00945900000010004082017000  080000009723303                     9
Y605571210030977305900SOLIS                      CORNEJO                    JUAN GABRIEL               00945900000010004082017000  080000009723403                     9
Y605571210090098913784GODINEZ                    BASURTO                    ALEJANDRO                  00945900000010004082017000  080000009723503                     9
Y605571210020977901618LOPEZ                      LUNA                       ROGELIO                    00945900000010004082017000  080000009723603                     9
Y605571210016129401200ORONA                      FUENTES                    GUADALUPE ZULEYMA          00945900000010004082017000  080000015216503                     9
Y605571210001068713815GARCIA                     SANTOS                     FABIOLA VIOLETA            00945900000010004082017000  080000015216903                     9
Y605571210001129218523GARCIA                     SANTOS                     MARIA DE LOS ANGELES       00945900000010004082017000  080000015217003                     9
Y605571210092119155171REYES                      DEL  VALLE                 MARLENE                    00945900000010004082017000  080000015217103                     9
Y605571210094119123837YAÑEZ                      RIVERA                     JHONATAN                   00945900000010004082017000  080000015217203                     9
Y605571210043816456495BUSTOS                     PEREZ                      JESUS                      00945900000010004082017000  080000019121703                     9
Y605571210023907022471HERNANDEZ                  DIAZ                       JOSE CANDELARIO            00945900000010004082017000  080000025003103                     9
Y605571210067927104470JIMENEZ                    SOLANO                     JUAN ANTONIO               00945900000010004082017000  080000030153303                     9
Y605571210050149426723PEREZ                      CRUZ                       YAHIR                      00945900000010004082017000  080000030153403                     9
Y605571210067139549546CRUZ                       DOMINGUEZ                  PEDRO                      00945900000010004082017000  080000030153503                     9
Y605571210067048306152TADEO                      MORALES                    JOSE MARTIN                00945900000010004082017000  080000030153603                     9
