Y605571210010846635182LOPEZ                      ORTIZ                      MA. FERNANDA               00945900000010006102016000  080000009649303                     9
Y605571210013099022371CABRERA                    NARANJO                    JONATHAN                   00945900000010006102016000  080000013015903                     9
Y605571210020927553808PADILLA                    CONTRERAS                  ANGELICA                   00945900000010006102016000  080000015182903                     9
Y605571210006856531923VILLENA                    DIAZ                       ENRIQUE                    00945900000010006102016000  080000019088603                     9
Y605571210023089028858RIOS                       QUINTERO                   LUIS FERNANDO              00945900000010006102016000  080000025005703                     9
Y605571210065977655219BERNAL                     HERRERA                    GONZALO                    00945900000010006102016000  080000030126303                     9
