Y605571210064169390958GARCIA                     REMIGIO                    FIDEL                      00945900000010029082017000  080000009728303                     9
Y605571210044159652633SANCHEZ                    RENDON                     LUIS ANGEL                 00945900000010029082017000  080000009728403                     9
Y605571210018179640935SANCHEZ                    RODRIGUEZ                  LIDIA ADRIANA              00945900000010029082017000  080000015218203                     9
Y605571210092119107081AJA                        CHAVEZ                     VERONICA PAMELA            00945900000010029082017000  080000015218303                     9
Y605571210015048514366SILVA                      RUBIO                      SUSANA                     00945900000010029082017000  080000015218403                     9
Y605571210053139559271RANGEL                     ROBLES                     JOSE ANTONIO               00945900000010029082017000  080000015218503                     9
Y605571210082097602534ESPINOZA                   CARAVEO                    MARCOS                     00945900000010029082017000  080000023029403                     9
Y605571210002179708264CRUZ                       MARTINEZ                   LUIS MIGUEL                00945900000010029082017000  080000023041203                     9
Y605571210067755722385GONZALEZ                   SANTIAGO                   RAUL                       00945900000010029082017000  080000023051803                     9
Y605571210009058733768PORTILLO                   CITALAN                    JORGE DANIEL               00945900000010029082017000  080000023051903                     9
Y605571210005139852601JUAREZ                     LANDERO                    ENCARNACION                00945900000010029082017000  080000023052003                     9
Y605571210094048303229BARRADAS                   CASTRO                     BARBARA EDITH              00945900000010029082017000  080000030154803                     9
