Y605571210051936450595FLORES                     MERAZ                      FRANCISCO JAVIER           00945900000010017052017000  080000001009503                     9
Y605571210003158726665HERNANDEZ                  VALENCIA                   KATIA MARLEN               00945900000010017052017000  080000009521703                     9
Y605571210008149808068TOVAR                      GARCIA                     ANA PATRICIA               00945900000010017052017000  080000009699803                     9
Y605571210050149511672CANELA                     SESEÒA                     CARLOS ALBERTO             00945900000010017052017000  080000009705503                     9
Y605571210027159305302TURBIN                     MORALES                    ISAMAR VIRIDIANA           00945900000010017052017000  080000009705603                     9
Y605571210002176308530ROSAS                      GONZALEZ                   RAUL                       00945900000010017052017000  080000009705703                     9
Y605571210016017805439BERNAL                     LAREDO                     VICTOR ARTURO              00945900000010017052017000  080000015002602                     9
Y605571210016066300639SANCHEZ                    RUFINO                     AGUSTINA                   00945900000010017052017000  080000015202503                     9
Y605571210027149306642GRANADOS                   ESPINOSA                   RAFAEL                     00945900000010017052017000  080000015210203                     9
Y605571210009998284849CEJA                       MORALES                    OSCAR EDUARDO              00945900000010017052017000  080000019113203                     9
Y605571210018169663921MARTINEZ                   DE JESUS                   ERIK DAMIAN                00945900000010017052017000  080000022062103                     9
Y605571210083058506904OLAN                       LAZARO                     GERONIMO                   00945900000010017052017000  080000027050903                     9
Y605571210009078727535CERDA                      GONZALEZ                   ROGELIO                    00945900000010017052017000  080000028041503                     9
Y605571210067109104876IXMATLAHUA                 LOPEZ                      FRANCISCO JESUS            00945900000010017052017000  080000030148103                     9
Y605571210011169181598HEREDIA                    SERRANO                    JESUS                      00945900000010017052017000  080000030148203                     9
Y605571210058129401046REYES                      TERRONES                   JOSE ANGEL                 00945900000010017052017000  080000030148303                     9
Y605571210003179199645VERGARA                    MARTINEZ                   JESUS                      00945900000010017052017000  080000030148403                     9
Y605571210065947473750DIAZ                       AGOSTO                     DAVID                      00945900000010017052017000  080000030148503                     9
