Y605571210012977987895MARTINEZ                   LUVIAN                     JOSE GUADALUPE             00945900000010017082016000  080000009039502                     9
Y605571210003149558094DOMINGUEZ                  GARCIA                     JUAN CARLOS                00945900000010017082016000  080000009467803                     9
Y605571210092906918104ALVAREZ                    CHAVANDO                   J DOLORES                  00945900000010017082016000  080000009620203                     9
Y605571210096028420790GARZON                     GARCIA                     ROBERTO ANTONIO            00945900000010017082016000  080000009637403                     9
Y605571210030109008281RICO                       JIMENEZ                    MARIA GUADALUPE            00945900000010017082016000  080000009637503                     9
Y605571210015099018382JIMENEZ                    SAAVEDRA                   JOSE ALFREDO               00945900000010017082016000  080000009637603                     9
Y605571210045089104744ROMERO                     IBAÑEZ                     EDITH DIANEL               00945900000010017082016000  080000009637703                     9
Y605571210064826200608MALDONADO                  NEGRETE                    LORENZO                    00945900000010017082016000  080000009637803                     9
Y605571210030109200383NAVARRETE                  ANDRADE                    LUIS ERNESTO               00945900000010017082016000  080000009637903                     9
Y605571210030078714794NAVARRETE                  ANDRADE                    ANALLELY MARISOL           00945900000010017082016000  080000009638003                     9
Y605571210096139478729RODRIGUEZ                  LOPEZ                      GUSTAVO ARMANDO            00945900000010017082016000  080000015171903                     9
Y605571210023917539092GARCIA                     FLORES                     HECTOR ALFONSO             00945900000010017082016000  080000025007103                     9
Y605571210002167270269GARCIA                     ALCUDIA                    MARIBEL                    00945900000010017082016000  080000027057903                     9
Y605571210065098818340GUTIERREZ                  MERCADO                    LUIS EDUARDO               00945900000010017082016000  080000030122203                     9
