Y605571210032008235221GODINES                    GUERRERO                   JAVIER ALEJANDRO           00945900000010029112016000  080000005011703                     9
Y605571210032088403384HERNANDEZ                  LUGO                       REYNALDO                   00945900000010029112016000  080000005011803                     9
Y605571210045038514639RAMIREZ                    ESCOBEDO                   DULCE RAQUEL               00945900000010029112016000  080000009007402                     9
Y605571210026169530628VEGA                       JIMENEZ                    PEDRO                      00945900000010029112016000  080000009658903                     9
Y605571210096876401801HERNANDEZ                  BECERRIL                   ABEL                       00945900000010029112016000  080000009663403                     9
Y605571210045018008248VAZQUEZ                    GUZMAN                     ARMANDO                    00945900000010029112016000  080000009663603                     9
Y605571210045098811818CRUZ                       RUIZ                       ALFREDO                    00945900000010029112016000  080000009663703                     9
Y605571210002169786460MORALES                    SIFUENTES                  LISANDRO                   00945900000010029112016000  080000009663803                     9
Y605571210028916918619MARTINEZ                   RODRIGUEZ                  MARIO ALBERTO              00945900000010029112016000  080000009663903                     9
Y605571210058169866322PALMA                      RODRIGUEZ                  JUAN                       00945900000010029112016000  080000009664003                     9
Y605571210090169817062JUAREZ                     ROJAS                      EDUARDO                    00945900000010029112016000  080000009664103                     9
Y605571210096139833436GALVAN                     MORENO                     GUSTAVO                    00945900000010029112016000  080000009664203                     9
Y605571210094109212863LOPEZ                      CARMONA                    ANTONIO DE JESUS           00945900000010029112016000  080000009664303                     9
Y605571210042907327839DAVALOS                    FLORES                     CARLOS ULISES              00945900000010029112016000  080000009664403                     9
Y605571210012836545173ALVAREZ                    LEDEZMA                    GUILLERMO                  00945900000010029112016000  080000011076603                     9
Y605571210072967404616MORA                       MARTINEZ                   LEONEL                     00945900000010029112016000  080000012011503                     9
Y605571210005159291789ESPINOSA                   RESENDIZ                   KARINA                     00945900000010029112016000  080000015002302                     9
Y605571210094129113935ZUÒIGA                     GALVEZ                     MIRIAM                     00945900000010029112016000  080000015180803                     9
Y605571210071109009119MONTES                     VAZQUEZ                    AGUSTIN                    00945900000010029112016000  080000015186203                     9
Y605571210043008313009DURAN                      ARREDONDO                  DAVID                      00945900000010029112016000  080000019094403                     9
Y605571210003149118261GONZALEZ                   CARDENAS                   ERICK ALEJANDRO            00945900000010029112016000  080000019094503                     9
Y605571210043109251496GARCIA                     LOZANO                     CYNTHIA ESMERALDA          00945900000010029112016000  080000019094603                     9
Y605571210003148058823ALMAZAN                    PEREZ                      LESBY NOEMI                00945900000010029112016000  080000023018403                     9
Y605571210046149564612CARDENAS                   DUE—ES                     SHAIN ALEJANDRA            00945900000010029112016000  080000028022803                     9
Y605571210027169351627GARCIA                     VIVEROS                    RAFAEL                     00945900000010029112016000  080000030130303                     9
Y605571210090008400161GERONIMO                   GOMEZ                      FEDERICO                   00945900000010029112016000  080000030130403                     9
Y605571210067088603534FLORES                     FLORES                     ANDRES                     00945900000010029112016000  080000030130503                     9
