Y605571210021129429078HERNANDEZ                  RICO                       URIEL                      01194600000010020072016000  080000002027303                     9
Y605571210092038338288ARZAVE                     PACHECO                    ERIKA                      00945900000010020072016000  080000009038602                     9
Y605571210096088633621PALOMINO                   MARTINEZ                   GILBERTO                   00945900000010020072016000  080000009627603                     9
Y605571210048028543469GARCIA                     GARCIA                     ARNULFO                    00945900000010020072016000  080000009627703                     9
Y605571210037129306496SOTELO                     PEREZ                      EDUARDO NOE                00945900000010020072016000  080000009627803                     9
Y605571210003159747157MACIAS                     RODRIGUEZ                  WILLIAM EDUARDO            00945900000010020072016000  080000009627903                     9
Y605571210094109011349JAIMEZ                     TOLEDO                     HUMBERTO DE JESUS          00945900000010020072016000  080000009628003                     9
Y605571210049149340934ADULFO                     SORELA                     DANIEL                     00945900000010020072016000  080000011086203                     9
Y605571210012877301841GUZMAN                     SANCHEZ                    JUAN PABLO                 00945900000010020072016000  080000011086303                     9
Y605571210015866305814FIGUEROA                   FLORES                     JESUS                      00945900000010020072016000  080000011086403                     9
Y605571210010169210365CAMPOS                     AYALA                      OLIVIA NAYELI              00945900000010020072016000  080000013012503                     9
Y605571210020906601792ESPINOZA                   SANCHEZ                    MARCOS                     00945900000010020072016000  080000015178603                     9
Y605571210047089124029DE LA GARZA                CORPUS                     JUAN ROMAN                 00945900000010020072016000  080000019083503                     9
Y605571210043846303899ZARATE                     BELTRAN                    JOSE LUIS                  00945900000010020072016000  080000019083603                     9
Y605571210044159578945DIAZ                       MEDINA                     JESSICA SARAHI             00945900000010020072016000  080000019083703                     9
Y605571210010159167070MORA                       GUZMAN                     LUZ CONSUELO               00945900000010020072016000  080000025000202                     9
Y605571210083038401952LOPEZ                      DE DIOS                    HUGO ALBERTO               00945900000010018072016000  080000027057203                     9
Y605571210003147497592GOMEZ                      MEJIA                      MARIA DE JESUS             00945900000010016072016000  080000030119703                     9
