A836767410933058965147RAMOS                      PEÒA                       FELIPE DE JESUS            00945900000010026082016000  080000008056903                     9
A836767410933078811016MADRID                     GARZA                      BEATRIZ YOLANDA            00945900000010026082016000  080000008057003                     9
A836767410933129358090MONARES                    HERNANDEZ                  JUAN CARLOS                00945900000010026082016000  080000008057103                     9
A836767410933079188505RUBIO                      URQUIZA                    LUIS MIGUEL                00945900000010026082016000  080000008057203                     9
A836767410933109410838MENDOZA                    SILVA                      MARIO ALBERTO              00945900000010026082016000  080000008057303                     9
