Y605571210021886310768LIZAOLA                    MARISCAL                   JOSE ABRAHAM               01194600000010008092016000  080000002050903                     9
Y605571210037068721093BERNAL                     GARIBAY                    CESAR GABRIEL              00945900000010008092016000  080000009643103                     9
Y605571210012079164252MARES                      SUAREZ                     JOSE ANGEL                 00945900000010008092016000  080000011089103                     9
Y605571210013856757607MENDEZ                     LEDEZMA                    FELIPE                     00945900000010008092016000  080000013015003                     9
Y605571210016028228019MARTINEZ                   ESTEVEZ                    GEOVANNI JESUS             00945900000010008092016000  080000015181903                     9
Y605571210027149157011ANTONIO                    FELIX                      JUAN CARLOS                00945900000010008092016000  080000016008103                     9
Y605571210056956701710LOPEZ                      MARQUEZ                    JOSE RICARDO               00945900000010008092016000  080000016008203                     9
Y605571210053027609667GAYTAN                     ALVARADO                   KARLA SELENE               00945900000010008092016000  080000016008303                     9
Y605571210043917564379BARRERA                    SAUCEDO                    JUAN FRANCISCO             00945900000010008092016000  080000019086903                     9
Y605571210050887122658ROJO                       SANCHEZ                    ALFONSO                    00945900000010008092016000  080000025008803                     9
Y605571210009008336241MALDONADO                  GUZMAN                     CHRISTIAN IVAN             00945900000010008092016000  080000028034703                     9
