Y605571210019148818412FLORES                     RAMIREZ                    MANUEL                     00945900000010021042016000  080000009538103                     9
Y605571210094128100784RODRIGUEZ                  ZAVALA                     CESAR RAFAEL               00945900000010021042016000  080000009610903                     9
Y605571210007946901092ARREOLA                    ESTRADA                    MARIA DE JESUS             00945900000010021042016000  080000009611003                     9
Y605571210045106801066SALINAS                    SANCHEZ                    FIDELIA GUADALUPE          00945900000010021042016000  080000009611103                     9
Y605571210090048417639GARCIA                     MENDOZA                    SILVIA                     00945900000010021042016000  080000009611203                     9
Y605571210008169269142CELIS                      VELAZQUEZ                  MAURICIO RAFAEL            00945900000010021042016000  080000011082503                     9
Y605571210004866724489ROBLES                     FLORES                     ALFREDO EDUARDO            00945900000010021042016000  080000014111603                     9
Y605571210016088966276VALDES                     OCHOA                      ADRIANA                    00945900000010021042016000  080000015170403                     9
Y605571210004109141178BARRERA                    PALOMINO                   LUIS ALBERTO               00945900000010021042016000  080000015170503                     9
Y605571210005159439156CIRILO                     GONZALEZ                   RAUL                       00945900000010021042016000  080000015170603                     9
Y605571210049886992087VALADEZ                                               DAVID                      00945900000010021042016000  080000019074203                     9
Y605571210063129410955ROQUE                      ROJAS                      MARIA JOSE                 00945900000010021042016000  080000022042103                     9
Y605571210002166826772CATALAN                    TERESA                     ROBERTO                    00945900000010021042016000  080000022042203                     9
