Y605571210096098915950MONROY                     RAMIREZ                    SAMUEL                     00945900000010029082016000  080000009641303                     9
Y605571210042129100519MALVAEZ                    GASCA                      ADRIAN                     00945900000010029082016000  080000009641403                     9
Y605571210075129443679RENTERIA                   HERNANDEZ                  CAROLINA                   00945900000010029082016000  080000011001002                     9
Y605571210012826440690MORALES                                               RAUL                       00945900000010029082016000  080000011088703                     9
Y605571210003169537440ESTEBAN                    MARTINEZ                   ELIAZAR                    00945900000010029082016000  080000019072703                     9
Y605571210003897305482ALEMAN                     CAMACHO                    JUAN RENE                  00945900000010029082016000  080000019086303                     9
Y605571210083027302534PEREZ                      CARRASCO                   LIDIA                      00945900000010029082016000  080000023032303                     9
Y605571210069169764219CLIMACO                    TOLEDO                     JOSE LUIS                  00945900000010029082016000  080000023032403                     9
Y605571210083139419341BERNARDO                   JIMENEZ                    MARIO ARTURO               00945900000010029082016000  080000023032503                     9
Y605571210065088614683TEOBA                      HERRERA                    JULIO CESAR                00945900000010029082016000  080000030086203                     9
Y605571210067139030422OSORIO                     PIÑERA                     ABEL GREGORIO              00945900000010029082016000  080000030102503                     9
Y605571210003149330957CELDO                      ZETINA                     GILBERTO                   00945900000010029082016000  080000030124003                     9
Y605571210065088534147TEOBA                      HERRERA                    PABLO DE JESUS             00945900000010029082016000  080000030124203                     9
Y605571210065139230828AMBROS                     CHIGO                      GILBERTO IVAN              00945900000010029082016000  080000030124303                     9
Y605571210065129339316COTO                       MACARIO                    OCTAVIO                    00945900000010029082016000  080000030124403                     9
Y605571210011169067607MACARIO                    ALVARADO                   JOSE LUIS                  00945900000010029082016000  080000030124503                     9
Y605571210065027907479MACARIO                    ALVARADO                   MARTIN                     00945900000010029082016000  080000030124603                     9
