Y605571210016129358814MONROY                     MEJIA                      BRUNO HILARIO              00945900000010004012017000  080000009041402                     9
Y605571210028056100044MANCILLA                   MARTINEZ                   MARIA ALEJANDRA            00945900000010004012017000  080000009673403                     9
Y605571210096068318300BANDA                      BACA                       JONATHAN                   00945900000010004012017000  080000009673503                     9
Y605571210096119513214GARCIA                     ESQUIVEL                   ANDRES DAVID               00945900000010004012017000  080000009673603                     9
Y605571210094067101538AQUINO                     GARCIA                     SARA ALICIA                00945900000010004012017000  080000009673703                     9
Y605571210096119413662ORTIZ                      HERNANDEZ                  JOSE JAVIER                00945900000010004012017000  080000009673803                     9
Y605571210045078636540HERNANDEZ                  CISNEROS                   LUIS REY                   00945900000010004012017000  080000009673903                     9
Y605571210016856608753RODRIGUEZ                  ROSAS                      VICTOR MANUEL              00945900000010004012017000  080000015165503                     9
Y605571210019169726866HERNANDEZ                  BRAVO                      LUIS MANUEL                00945900000010004012017000  080000015187503                     9
Y605571210043008544199MARTINEZ                   DE LUNA                    FERNANDO                   00945900000010004012017000  080000019049303                     9
Y605571210043008304255BARRON                     SAUCEDO                    MARTIN ANGEL               00945900000010004012017000  080000019097803                     9
Y605571210071048211826HERNANDEZ                  PEREZ                      LAURO IVAN                 00945900000010004012017000  080000023041003                     9
Y605571210043897094033DEL VALLE                  MARTINEZ                   JESUS MARIO                00945900000010004012017000  080000030049703                     9
Y605571210067907308026FRAGOSO                    BANDA                      CARLOS                     00945900000010004012017000  080000030132603                     9
