A836767410902179060906ZUÑIGA                     HERNANDEZ                  JORGE IGNACIO              00945900000010015052017000  080000002054503                     9
A836767410911169514111RAMOS                      ACOSTA                     JESUS ELI                  00945900000010015052017000  080000008074103                     9
A836767410933119513738MENDOZA                    MORENO                     CARLOS IVAN                00945900000010015052017000  080000008074203                     9
A836767410933018561143CHAPARRO                   ESTRADA                    LUIS MODESTO               00945900000010015052017000  080000008074303                     9
