Y605571210094988109115CERNA                      VARGUEZ                    EDUARDO ISIDRO             00945900000010023062016000  080000009037902                     9
Y605571210045907505486AVENDAÑO                   LUNA                       MIGUEL ANGEL               00945900000010023062016000  080000009621303                     9
Y605571210039139203341MONDRAGON                  SANCHEZ                    SERGIO                     00945900000010023062016000  080000009621403                     9
Y605571210053988021985HERNANDEZ                  LUGO                       JORGE                      00945900000010023062016000  080000011084803                     9
Y605571210065088710473ANTELE                     PALAYOT                    HUMBERTO                   00945900000010023062016000  080000011084903                     9
Y605571210010169210365CAMPOS                     AYALA                      OLIVIA NAYELI              00945900000010023062016000  080000013012503                     9
Y605571210020957805771DAVALOS                    GARIBAY                    GISELA                     00945900000010023062016000  080000015176503                     9
Y605571210090109152083MARTINEZ                   ELIZALDE                   EDUARDO DE JESUS           00945900000010023062016000  080000015176603                     9
Y605571210002165722030GONZALEZ                   TORRES                     VICENTE                    00945900000010023062016000  080000019081003                     9
