Y605571210096139545188DIAS                       PEREZ                      ALEJANDRO                  00945900000010030012017000  080000009679603                     9
Y605571210096038107510OLIVAREZ                   GONZALEZ                   CESAR                      00945900000010030012017000  080000009679703                     9
Y605571210016937648562LICONA                     NAVA                       LEONEL                     00945900000010030012017000  080000015189903                     9
Y605571210022139825933SOLIS                      AVILA                      AMERICA ABIGAIL            00945900000010030012017000  080000015190003                     9
Y605571210095119205599FLORES                     CERVANTES                  JUANA IRIS                 00945900000010030012017000  080000015190103                     9
Y605571210049169641849RODRIGUEZ                  REYES                      EDGAR ALEJANDRO            00945900000010030012017000  080000016010303                     9
Y605571210043139206338CARMONA                    MARTINEZ                   MONICA ALEJANDRA           00945900000010030012017000  080000019101003                     9
Y605571210041068904469CRUZ                       LOPEZ                      FLORENCIO                  00945900000010030012017000  080000019101103                     9
Y605571210078058707163RUIZ                       CABRERA                    JOSE ARMANDO               00945900000010030012017000  080000022056403                     9
Y605571210005179802839BAXIN                      AMBROCIO                   LUIS ENRIQUE               00945900000010030012017000  080000022056503                     9
