Y605571210092008337906RIVERA                     MELENDEZ                   GUADALUPE OSIRIS           00945900000010024072017000  080000009721003                     9
Y605571210043048786479CASTILLO                   GARCIA                     ABNER                      00945900000010024072017000  080000015215803                     9
Y605571210063149574889CERVANTES                  HERNANDEZ                  BRAULIO                    00945900000010024072017000  080000019119703                     9
Y605571210009058919797CERVANTES                  HERNANDEZ                  MARIA GUADALUPE            00945900000010024072017000  080000019119803                     9
Y605571210009139202296DE LA ROSA                 ARELLANO                   JUAN JOSE                  00945900000010024072017000  080000019119903                     9
Y605571210049836311537GOMEZ                       CAMACHO                   HECTOR MANUEL              00945900000010024072017000  080000019120003                     9
Y605571210003917537536TELLEZ                     CASTRO                     CLEMENTE                   00945900000010024072017000  080000019120103                     9
Y605571210043068965144GUEVARA                    PEREZ                      LUIS ARTURO                00945900000010024072017000  080000019120203                     9
Y605571210011887024070PEREZ                      GARCIA                     ERASMO                     00945900000010024072017000  080000019120303                     9
Y605571210004167804501CRUZ                       CRUZ                       CLAUDIO                    00945900000010024072017000  080000019120403                     9
Y605571210067056702060MEJIA                      ALTAMIRANO                 GABRIEL MANUEL             00945900000010024072017000  080000023049403                     9
Y605571210033078304764HERNANDEZ                  MORENO                     JOSE DAVID                 00945900000010024072017000  080000023049503                     9
Y605571210002156466068LOPEZ                      SALAS                      ROGELIO                    00945900000010024072017000  080000023049603                     9
Y605571210071169945079ARREVILLEGA                UITZIL                     JOSE EMMANUEL              00945900000010024072017000  080000023049703                     9
Y605571210067987927281GALLARDO                   ZAMUDIO                    JOSE ALFREDO               00945900000010024072017000  080000030100203                     9
Y605571210092998158452ALARCON                    MUNGUIA                    MIGUEL ALFREDO             00945900000010024072017000  080000030133503                     9
Y605571210067139505068MONTIEL                    GUILLEN                    ERICK IVAN                 00945900000010024072017000  080000030152203                     9
Y605571210067048523251GALINDO                    LARA                       ANGEL DE JESUS             00945900000010024072017000  080000030152303                     9
