Y605571210045068763205GUEVARA                    ROMO                       VICTOR HUGO                00945900000010015052017000  080000009704203                     9
Y605571210001755647136CAMPO                      HERNANDEZ                  HERIBERTO                  00945900000010015052017000  080000009704303                     9
Y605571210006795810545NAVA                       SANTOS                     FELIX JUAN                 00945900000010015052017000  080000009704403                     9
Y605571210045139334051NABOR                      ZAMORA                     JOSE EDUARDO               00945900000010015052017000  080000009704503                     9
Y605571210003149309225MUÒOZ                      REYES                      RICARDO                    00945900000010015052017000  080000009704603                     9
Y605571210002156459113VILLEDA                    BONILLA                    MARIA ISABEL               00945900000010015052017000  080000009704703                     9
Y605571210045119437528MARTINEZ                   CASTILLO                   HENN DONOVAN               00945900000010015052017000  080000009704803                     9
Y605571210045907219419SANCHEZ                    REYES                      JOSE AGUSTIN               00945900000010015052017000  080000015146703                     9
Y605571210004169750108DIAZ LEAL                  ZETINA                     BRAYAN SAID                00945900000010015052017000  080000015209203                     9
Y605571210016058706330HERNANDEZ                  SALGADO                    ROBERTO CARLOS             00945900000010015052017000  080000015209903                     9
Y605571210065018316987AGUILAR                    HERNANDEZ                  MARIA DEL CARMEN           00945900000010015052017000  080000015210003                     9
Y605571210003685213724DEL TORO                   CONTRERAS                  ROBERTO                    00945900000010015052017000  080000019112503                     9
Y605571210018169353143CARRIZALES                 ESTRADA                    CINTHIA JAZMIN             00945900000010015052017000  080000019112603                     9
Y605571210081997801865NIEVES                     GAMBOA                     MARIA DOLORES              00945900000010015052017000  080000019112703                     9
Y605571210043795714823OSTIGUIN                   MENDIOLA                   PRIMITIVO                  00945900000010015052017000  080000019112803                     9
Y605571210034856701924MARTINEZ                   MONTALVO                   MIGUEL                     00945900000010015052017000  080000022062003                     9
Y605571210002177854847ANTONIO                    ROSALDO                    KARINA                     00945900000010015052017000  080000023046203                     9
Y605571210082118918828OBIL                       ZACARIAS                   CRISTIAN                   00945900000010015052017000  080000023046303                     9
Y605571210067907452956DIAZ                                                  GERMAN                     00945900000010015052017000  080000030148003                     9
