Y605571210049876534154CASTRO                     MU—OZ                      MELITON ARMANDO            00945900000010010102016000  080000004008603                     9
Y605571210081017907601SALVADOR                   LOPEZ                      DORIS CECILIA              00945900000010010102016000  080000004008703                     9
Y605571210011907051558VARGAS                     GARCIA                     MARIA DEL CARMEN           00945900000010010102016000  080000009040002                     9
Y605571210096058638253ANDRADE                    ZERMEÒO                    MELISA ALEJANDRA           00945900000010010102016000  080000009649703                     9
Y605571210096109281327VILLEGAS                   FLORES                     IRVING JOSE                00945900000010010102016000  080000009649803                     9
Y605571210007169636078TORRES                     BAXIN                      LUIS                       00945900000010010102016000  080000011090003                     9
Y605571210012118600951MORENO                     GALICIA                    ROSA MARIA                 00945900000010010102016000  080000011090103                     9
Y605571210098119324816ORTIZ                      GONZALEZ                   DANIEL                     00945900000010010102016000  080000015183003                     9
Y605571210023058932833ARMENTA                    QUIROA                     JOSE EFRAIN                00945900000010010102016000  080000025010103                     9
Y605571210023076904418GARCIA                     MEDINA                     JUANA                      00945900000010010102016000  080000025010203                     9
Y605571210009048424841ARREOLA                    MACIAS                     FROYLAN JESUS              00945900000010010102016000  080000028036103                     9
