Y605571210096108801463GOMEZ                      VELAZQUEZ                  YURIANA ARIEL              00945900000010018072016000  080000009038502                     9
Y605571210020099008797GONZALEZ                   GARCIA                     VICTOR OMAR                00945900000010018072016000  080000009606303                     9
Y605571210030056900555PINEDA                     DIAZ                       SERGIO                     00945900000010018072016000  080000009618703                     9
Y605571210009108717423SANTIAGO                   GARCIA                     ROSA MARIA                 00945900000010018072016000  080000009626703                     9
Y605571210045129360595MONDRAGON                  ROSAS                      JESUS ALBERTO              00945900000010018072016000  080000009626803                     9
Y605571210014058640229DOMINGUEZ                  GOMEZ                      JOVANY                     00945900000010018072016000  080000009626903                     9
Y605571210096048532160FRANCO                     BECERRIL                   IGNACIO FIDEL              00945900000010018072016000  080000009627003                     9
Y605571210044169605860BENITEZ                    PATIÑO                     JOSE REFUGIO               00945900000010018072016000  080000011086003                     9
Y605571210012099500626RUIZ                       FAJARDO                    GERARDO FRANCISCO          00945900000010018072016000  080000011086103                     9
Y605571210016129500431JUNCO                      LUNA                       JOSE ALBERTO               00945900000010018072016000  080000015113703                     9
Y605571210092099103225VIDAL                      GALEANA                    MARIO                      00945900000010018072016000  080000015178403                     9
Y605571210066159609776CARRILLO                   PEREZ                      CESAR DANI                 00945900000010018072016000  080000022047903                     9
Y605571210083099116754PEREZ                      RODRIGUEZ                  PEDRO DAVID                00945900000010018072016000  080000027056903                     9
