Y605571210050149562238LOPEZ                      HERRERA                    PEDRO FRANCISCO            00945900000010001062016000  080000009037502                     9
Y605571210001867106880GARCIA                     SALGADO                    JESUS EDUARDO              00945900000010001062016000  080000011083303                     9
Y605571210056149421721ARREOLA                    GARCIA                     JESUS MIGUEL               00945900000010001062016000  080000011083403                     9
Y605571210096078410444FLORES                     RAMIREZ                    FERNANDO                   00945900000010001062016000  080000015173803                     9
Y605571210032018326762LOPEZ                      CORTES                     OMAR                       00945900000010001062016000  080000019001502                     9
Y605571210043078615531ORTEGA                     GUERRA                     BENITO                     00945900000010001062016000  080000019070303                     9
Y605571210043119558740JUAREZ                     SANCHEZ                    ELIUD                      00945900000010001062016000  080000019071203                     9
Y605571210003978026130ROCHA                      FLORES                     PABLO ALBERTO              00945900000010001062016000  080000019079803                     9
Y605571210067109151695BOBADILLA                  CORTEZ                     MIGUEL ANGEL               00945900000010001062016000  080000022045003                     9
Y605571210011169405120MENDEZ                     PEREZ                      BILMA                      00945900000010001062016000  080000023027803                     9
Y605571210023129450658BORQUEZ                    PEREZ                      EDIEL                      00945900000010001062016000  080000025002703                     9
Y605571210033987001865DELFIN                     COLINA                     JULIO                      00945900000010001062016000  080000030065503                     9
