A836767410921069074025GUZMAN                     CONTRERAS                  MAURICIO EDUARDO           00945900000010025042017000  080000002052503                     9
A836767410902178152357CERVANTES                  RINCON                     J. JESUS                   00945900000010025042017000  080000002052603                     9
A836767410954846722129GOMEZ                      SAUCILLO                   MARIA GUADALUPE            00945900000010025042017000  080000002052703                     9
A836767410921058811478MASCORRO                   HERNANDEZ                  ADAN                       00945900000010025042017000  080000002052803                     9
