Y605571210030088204588LAGOS                      BUSTOS                     LEDIA                      00945900000010016062017000  080000009043502                     9
Y605571210045099156742MOSCO                      GUTIERREZ                  ANDRES                     00945900000010016062017000  080000009713003                     9
Y605571210001876808567LUNA                       BERMUDEZ                   LUZ MARIA                  00945900000010016062017000  080000009713103                     9
Y605571210096088718745PACHECO                    ROMERO                     ANA LAURA                  00945900000010016062017000  080000009713203                     9
Y605571210010179853311MIRANDA                    CRUZ                       VANESSA CITLALI            00945900000010016062017000  080000015203503                     9
Y605571210016078908254CRUZ                       MARIANO                    ANALLELY                   00945900000010016062017000  080000015213003                     9
Y605571210014089210489ANAYA                      TORRES                     JOSE LUIS                  00945900000010016062017000  080000022063303                     9
Y605571210068169405344GOMEZ                      HERNANDEZ                  LUIS LEONARDO              00945900000010016062017000  080000023047603                     9
Y605571210024088815501SANTIAGO                   MARTINEZ                   MARIANA                    00945900000010016062017000  080000025013903                     9
Y605571210023099235832VALENZUELA                 FELIX                      ALEXIS ALAN                00945900000010016062017000  080000025016403                     9
Y605571210005168948130MAY                        ARIAS                      MARIA DE JESUS             00945900000010016062017000  080000027062503                     9
Y605571210067089116056HERNANDEZ                  MARTINEZ                   ROSALINO                   00945900000010016062017000  080000030151203                     9
