A836767410935968041406VARELA                     ARAMBULA                   LILIANA ELISA              00945900000010030112016000  080000008066503                     9
A836767410933987965127SALCIDO                    LOPEZ                      SERGIO                     00945900000010030112016000  080000008066603                     9
A836767410933886947788RETANA                     ZUÒIGA                     HUGO                       00945900000010030112016000  080000008066703                     9
