A836767410972088723043CAMACHO                    MALDONADO                  EDGAR                      00945900000010022062017000  080000002057403                     9
A836767410921159725569GONZALEZ                   RODRIGUEZ                  MARCOS ALEXIS              00945900000010022062017000  080000002057503                     9
A836767410972008324641GUTIERREZ                  SILVA                      MELECIO                    00945900000010022062017000  080000002057603                     9
A836767410915897025894GARCIA                     GAONA                      JORGE                      00945900000010022062017000  080000002057703                     9
