Y605571210096129309066OVIEDO                     GARCIA                     JUAN SALVADOR              00945900000010023062017000  080000009714303                     9
Y605571210013836413727VAZQUEZ                    RAMIREZ                    JESUS GABRIEL              00945900000010023062017000  080000009714403                     9
Y605571210009169172890GARCIA                     DIAZ                       GUILLERMO ESTEBAN          00945900000010023062017000  080000009714503                     9
Y605571210044149681643ESPINDOLA                  QUEZADA                    MARIA FERNANDA             00945900000010023062017000  080000015213503                     9
Y605571210043917454381NAVARRO                    LUNA                       FRANCISCO ROGELIO          00945900000010023062017000  080000019070903                     9
Y605571210010179608624SALAS                      ORTIZ                      LUIS FERNANDO              00945900000010023062017000  080000019116003                     9
Y605571210004139889812IÒIGUEZ                    SALAZAR                    JOSE ADALBERTO             00945900000010023062017000  080000025017703                     9
Y605571210017149415394CABRERA                    GARCIA                     JORGE LUIS                 00945900000010023062017000  080000027062803                     9
Y605571210035159368535MAGAÒA                     BAUTISTA                   VICTOR MANUEL              00945900000010023062017000  080000027062903                     9
Y605571210002155833227ESTRADA                    MARTINEZ                   TIRZO RAMON                00945900000010023062017000  080000028041703                     9
