Y462621510938159625342ALVAREZ                    ROMERO                     JOSE ARMANDO               00945900000010018112016000  080000021114103                     9
Y462621510948129269568CAMPOS                     ORTIZ                      ALFONSO                    00945900000010018112016000  080000021143303                     9
Y462621510910169708467BERNABE                    HERNANDEZ                  JUAN MANUEL                00945900000010018112016000  080000021153003                     9
Y462621510948098908600VAZQUEZ                    MARTINEZ                   LUIS JAVIER                00945900000010018112016000  080000021155303                     9
Y462621510946169513424ESPINO                     HUITZIL                    MANUEL                     00945900000010018112016000  080000021158503                     9
Y462621510948988042791CORDOBA                    MARTINEZ                   FERNANDO                   00945900000010018112016000  080000021158603                     9
Y462621510956149401194ROQUE                      URIBE                      EMMANUEL                   00945900000010018112016000  080000021158703                     9
Y462621510948119211315MORAN                      SANCHEZ                    ERICK ALAN                 00945900000010018112016000  080000021158803                     9
Y462621510948028429636DE LEON                    FLORES                     GUILLERMO                  00945900000010018112016000  080000021158903                     9
Y462621510950149455904PEREZ                      GONZALEZ                   CELSO ALEJANDRO            00945900000010018112016000  080000021159003                     9
