Y605571210096099213520TAVERA                     SERNA                      MIGUEL ANGEL               00945900000010025072016000  080000009628403                     9
Y605571210042139800058RAMIREZ                    LUGARDO                    LUIS GERARDO               00945900000010025072016000  080000009628603                     9
Y605571210003169644394RAMOS                      RENDON                     LUIS ANGEL                 00945900000010025072016000  080000009628703                     9
Y605571210061917700710VAZQUEZ                    SANCHEZ                    QUIRINA                    00945900000010025072016000  080000009628803                     9
Y605571210047058806036ROBLEDO                    CASTAÑEDA                  JULIO CESAR                00945900000010025072016000  080000019084003                     9
Y605571210078906515891ALDERETE                   MARTINEZ                   NELSON                     00945900000010025072016000  080000020025703                     9
Y605571210023119342501HERAS                      GONZALEZ                   MANUEL                     00945900000010025072016000  080000025003503                     9
Y605571210023947104818BARRAZA                    MILLAN                     GUILLERMINA ESPERANZA      00945900000010025072016000  080000025003603                     9
