Y607431310402167827100SARMIENTO                  JUAREZ                     JOSE LUIS                  01481100000010016062021000  080000009011403                     9
Y607431310494088954162NICOLAS                    HUERTA                     MARISELA                   01481100000010016062021000  080000009011503                     9
Y607431310445159902225SAN AGUSTIN                GONZALEZ                   ALEXIS ALBERTO             01481100000010016062021000  080000009011603                     9
