Y605571210096088745037BADILLO                    GALINDO                    MARTHA                     00945900000010030082017000  080000009728503                     9
Y605571210068958055227BELTRAN                    BRAVO                      PAULO CESAR                00945900000010030082017000  080000015218603                     9
Y605571210042806306033GARRIDO                    GARCIA                     SAUL                       00945900000010030082017000  080000015218703                     9
Y605571210094028434002OROPEZA                    GARCIA                     GREGORIO                   00945900000010030082017000  080000015218803                     9
Y605571210068149677459JAVIER                     HERRERA                    ANGEL                      00945900000010030082017000  080000023052103                     9
Y605571210023007808761FLORES                     MAYORQUIN                  RAYMUNDO                   00945900000010030082017000  080000025010503                     9
Y605571210009129023181VILLALON                   ORTEGA                     GUMERCINDO                 00945900000010030082017000  080000028042303                     9
Y605571210010149816083GONZALEZ                   FLORES                     ORLANDO                    00945900000010030082017000  080000028042403                     9
Y605571210005179145569ZARATE                     CRESCENCIO                 CHRISTIAN ADRIAN           00945900000010030082017000  080000030154903                     9
