Y605571210021169508416SERRAT                     MIZET                      JOHAN MANUEL               00945900000010025072016000  080000004006703                     9
Y605571210082068705118CRUZ                       MALPICA                    LUIS ANGEL                 00945900000010025072016000  080000004006803                     9
Y605571210083927406716ESTEBAN                    JAVIER                     JOSE MANUEL                00945900000010025072016000  080000004006903                     9
Y605571210045098509396MONROY                     SANCHEZ                    ERNESTO                    00945900000010031121969000  080000009038702                     9
Y605571210046119310418DAVALOS                    CRUZ                       VICTOR BRANDONN            00945900000010025072016000  080000009612003                     9
Y605571210096129323927PINEDA                     PEREZ                      RAUL MARTIN                00945900000010025072016000  080000009628203                     9
Y605571210096129459275AROSQUETA                  RIVAS                      LUIS ENRIQUE               00945900000010025072016000  080000009628303                     9
Y605571210096129109086PEREDO                     FLORENTINO                 GUSTAVO ADOLFO             00945900000010025072016000  080000009629003                     9
Y605571210045906232694FUENTES                    BAUTISTA                   VICTOR                     00945900000010025072016000  080000009629103                     9
Y605571210050169796955SANCHEZ                    DURAN                      GUSTAVO                    00945900000010025072016000  080000009629203                     9
Y605571210090017800120SALAZAR                    GARCIA                     GUSTAVO                    00945900000010025072016000  080000009629303                     9
Y605571210094077901919CORTES                     RANGEL                     RAUL                       00945900000010025072016000  080000015178703                     9
Y605571210043016903353ARMENTA                    ALGANDAR                   ELVIRA                     00945900000010025072016000  080000019052503                     9
Y605571210043028592111ROSALES                    MARTINEZ                   REGINO                     00945900000010025072016000  080000019084103                     9
Y605571210083078808678IBAÑEZ                     LINARES                    LUIS ENRIQUE               00945900000010025072016000  080000022048003                     9
Y605571210065977848798QUINO                      BAXIN                      IGNACIO                    00945900000010025072016000  080000022048103                     9
Y605571210003148058823ALMAZAN                    PEREZ                      LESBY NOEMI                00945900000010025072016000  080000023018403                     9
Y605571210071109018300VILLAFUERTE                VIDES                      NOE FERNANDO               00945900000010025072016000  080000023031403                     9
Y605571210051027501440LOPEZ                      ROSALES                    MARTHA CECILIA             00945900000010025072016000  080000025003903                     9
Y605571210023917532162VALDERRAMA                 VEGA                       JAZMIN DE JESUS            00945900000010025072016000  080000025004003                     9
Y605571210007988017864MARTINEZ                   CRUZ                       ELEAZAR                    00945900000010025072016000  080000030106603                     9
Y605571210025169754089MARTINEZ                   MARQUEZ                    LUIS EDUARDO               00945900000010025072016000  080000030111803                     9
