Y605571210045109163340SERRATOS                   OSORIO                     JOSE ALBERTO               00945900000010014082017000  080000009044202                     9
Y605571210035149427185CID                        BARRIENTOS                 ISRAEL                     00945900000010014082017000  080000009725103                     9
Y605571210096149107847VILCHIS                    CUEBAS                     VIANEY                     00945900000010014082017000  080000009725203                     9
Y605571210096056600289HERRERA                    ANGELES                    ARTURO                     00945900000010014082017000  080000009725303                     9
Y605571210005149493222CASTILLO                   RIVERA                     ALFREDO                    00945900000010014082017000  080000009725503                     9
Y605571210094008234117GONZALEZ                   CERVANTES                  ESMERALDA YOANA            00945900000010014082017000  080000015217703                     9
Y605571210053816224934GONZALEZ                   SOTO                       JOSE MANUEL                00945900000010014082017000  080000016012203                     9
Y605571210043089329346PEREYRA                    MARTINEZ                   JOSE ALONSO                00945900000010014082017000  080000019082303                     9
Y605571210055169729054MORENO                     GARCIA                     JULIO CESAR                00945900000010014082017000  080000023042703                     9
