Y605571210090038711611HERNANDEZ                  CAMERO                     MARIO                      00945900000010008122016000  080000009517503                     9
Y605571210096048410698AVILA                      SANCHEZ                    LAURA LETICIA              00945900000010008122016000  080000009666903                     9
Y605571210002156969517MELCHOR                    HERNANDEZ                  FROYLAN                    00945900000010008122016000  080000009667603                     9
Y605571210096129112395PALACIOS                   GAMERO                     MICHAEL                    00945900000010008122016000  080000009667703                     9
Y605571210064159838008AVENDA—O                   MARTINEZ                   MANUEL                     00945900000010008122016000  080000009667803                     9
Y605571210002169112477ORTIZ                      TERAN                      SERGIO                     00945900000010008122016000  080000009667903                     9
Y605571210020098908609URIBE                      MARTINEZ                   MIGUEL ANGEL               00945900000010008122016000  080000009668003                     9
Y605571210045988125964CABALLERO                  OCAMPO                     RICARDO                    00945900000010008122016000  080000009668103                     9
Y605571210096099300574BUENDIA                    AGUILAR                    RAYMUNDO RODRIGO           00945900000010008122016000  080000009668203                     9
Y605571210043119114957DE LA ROSA                 RANGEL                     JUAN CARLOS ANTONIO HECTOR 00945900000010008122016000  080000019095803                     9
Y605571210047089153879BOLAÒOS                    ARRIAGA                    CESAR ANTONIO              00945900000010008122016000  080000019095903                     9
Y605571210047119422005ALVAREZ                    SANDOVAL                   ALBERTO FAVIAN             00945900000010008122016000  080000019096003                     9
Y605571210009058504631GUZMAN                     MARTINEZ                   LEVI ISAIAS                00945900000010008122016000  080000019096103                     9
Y605571210058159566809GOMEZ                      HERNANDEZ                  REYNALDA                   00945900000010008122016000  080000030131703                     9
