Y605571210096109273142SILLERO                    CASTILLO                   RUBI CITLALI               00945900000010023112016000  080000009572403                     9
Y605571210042846527010MARTINEZ                   CHAVEZ                     SERGIO                     00945900000010023112016000  080000009660703                     9
Y605571210096068810256GALVAN                     ALVAREZ                    JORGE ALBERTO              00945900000010023112016000  080000009660803                     9
Y605571210063159814373CAZARES                    HERRERA                    ALEXIS FERNANDO            00945900000010023112016000  080000009660903                     9
Y605571210043916872203MARTINEZ                   ORTEGA                     HUMBERTO ANGEL             00945900000010023112016000  080000019080603                     9
Y605571210043795968247RAMIREZ                    RAMIREZ                    RODRIGO                    00945900000010023112016000  080000019082603                     9
Y605571210043988149217MALAGON                    HERNANDEZ                  RODRIGO                    00945900000010023112016000  080000019093503                     9
Y605571210094008219951GONZALEZ                   MONTAÑO                    FELIX                      00945900000010023112016000  080000019093603                     9
Y605571210043857025597MARTINEZ                   MEDINA                     JUAN                       00945900000010023112016000  080000019093703                     9
Y605571210014957722748LOPEZ                      ROJAS                      JOSE GUADALUPE             00945900000010023112016000  080000022052903                     9
Y605571210014018431933ALVARADO                   ESCAMILLA                  PEDRO                      00945900000010023112016000  080000022053003                     9
Y605571210082088961428CANCHE                     CHAN                       EMMANUEL DE JESUS          00945900000010023112016000  080000023038703                     9
Y605571210084037302589DIAZ                       ALVAREZ                    ROSA MARIA                 00945900000010023112016000  080000023038803                     9
Y605571210082067702637FRANCO                     ALCOCER                    ISRAEL                     00945900000010023112016000  080000023039003                     9
Y605571210065007801429GONZALEZ                   SANCHEZ                    CARLOS AMADO               00945900000010023112016000  080000030129203                     9
Y605571210065836703762ROSILES                    GONZALEZ                   JUAN ELISEO                00945900000010023112016000  080000030129303                     9
Y605571210067127901899CONTLA                     MOYA                       ELEAZAR                    00945900000010023112016000  080000030129403                     9
Y605571210056169647239LOPEZ                      BAZAN                      ROBERTO                    00945900000010023112016000  080000030129503                     9
