Y605571210081048305445GOMEZ                      CHAN                       MARCOS                     00945900000010022022017000  080000004011003                     9
Y605571210008149816533HERNANDEZ                  JARAMILLO                  LUIS FERNANDO              00945900000010022022017000  080000005012403                     9
Y605571210045078923781GONZALEZ                   GONZALEZ                   MARIBEL                    00945900000010022022017000  080000009041702                     9
Y605571210004169709955ORTIZ                      LIMA                       CESAR ADAN                 00945900000010022022017000  080000009634603                     9
Y605571210001018305902MEJIA                      SOTELO                     JOSE ERNESTO               00945900000010022022017000  080000009685303                     9
Y605571210045047605196GOMEZ                      CARMONA                    LUCILA                     00945900000010022022017000  080000009685403                     9
Y605571210057169861671GONZALEZ                   RIOJA                      JORGE                      00945900000010022022017000  080000009685503                     9
Y605571210072129107164GOMEZ                      ISLAS                      ROGER ADRIAN               00945900000010022022017000  080000012006603                     9
Y605571210016907014902VEGA                       MARIN                      SERGIO                     00945900000010022022017000  080000015111603                     9
Y605571210007957608081SILVA                      MARIN                      JORGE LEONIDES             00945900000010022022017000  080000015193903                     9
Y605571210047109266065ABUNDIS                    IZAGUIRRE                  BLANCA REINA RUBI          00945900000010022022017000  080000019103003                     9
Y605571210047089143219ZAPATA                     BERNAL                     JESUS EDUARDO              00945900000010022022017000  080000019103103                     9
Y605571210014139316369MARTINEZ                   HERNANDEZ                  APOLO ELIACID VICENTE      00945900000010022022017000  080000022058103                     9
Y605571210067947791298RAMIREZ                    DOMINGUEZ                  JUAN CARLOS                00945900000010022022017000  080000023042903                     9
Y605571210072048516552OLEA                       CASTAÒEDA                  IVAN DAVID                 00945900000010022022017000  080000023043003                     9
Y605571210070159612772SANTAMARIA                 JIMENEZ                    IMELDA ANADIN              00945900000010022022017000  080000023043103                     9
Y605571210009068437608DEL ANGEL                  DEL ANGEL                  ARNULFO                    00945900000010022022017000  080000023043203                     9
Y605571210083139333781TORREZ                     GAMAS                      RICARDO                    00945900000010022022017000  080000027060103                     9
Y605571210083038202210CORNELIO                   HERNANDEZ                  MOISES DE JESUS            00945900000010022022017000  080000027060203                     9
Y605571210067886100543RODRIGUEZ                  SOLANOT                    ROBERTO                    00945900000010022022017000  080000030137603                     9
Y605571210037997409422PEREZ                      VERGARA                    GUADALUPE                  00945900000010022022017000  080000030137703                     9
Y605571210067108805861LUNA                       CALDERON                   LINO GALVINO               00945900000010022022017000  080000030137803                     9
