Y605571210048099026113GONZALEZ                   QUINTERO                   ARMANDO                    00945900000010005012017000  080000009674003                     9
Y605571210045119118623SOTO                       CRUZ                       SELVA MARIA                00945900000010005012017000  080000009674103                     9
Y605571210002158262739LEON                       FLORES                     MAURICIO IVAN              00945900000010005012017000  080000009674203                     9
Y605571210090129116365SALAZAR                    ALVARADO                   RICARDO DE JESUS           00945900000010005012017000  080000015076303                     9
Y605571210043008221905GOMEZ                      DUARTE                     JOSE CASIMIRO              00945900000010005012017000  080000019097903                     9
Y605571210014917326333MANRIQUEZ                  PEREZ                      JOSE LUIS                  00945900000010005012017000  080000022054903                     9
