Y605571210030089006172PEREZ                      TORRES                     JUAN                       00945900000010009052017000  080000009703303                     9
Y605571210044159644200CONTRERAS                  FLORES                     RICARDO ADEMIR             00945900000010009052017000  080000009703403                     9
Y605571210002177435506ROMAN                      NAJERA                     YOLANDA                    00945900000010009052017000  080000015209003                     9
Y605571210020116400175RAMIREZ                    MENDOZA                    HUGO                       00945900000010009052017000  080000015209103                     9
Y605571210024068110857AMARILLAS                  QUIHUIS                    JOSE SANTOS                00945900000010009052017000  080000022061503                     9
Y605571210014725504561RUEDA                      SEGURA                     JUAN                       00945900000010009052017000  080000022061603                     9
Y605571210007977505747RUEDA                      IBARRA                     SOCORRO CONCEPCION         00945900000010009052017000  080000022061703                     9
Y605571210012735300738NAVARRETE                  CAMARGO                    J. CRUZ                    00945900000010009052017000  080000022061803                     9
Y605571210067109223460RODRIGUEZ                  DIAZ                       ROGER                      00945900000010009052017000  080000023046003                     9
Y605571210023068861626CEVALLOS                   CERVERA                    GERARDO DE JESUS           00945900000010009052017000  080000025010903                     9
