R143868210304096901345TOLENTINO                  JAUREGUI                   LETICIA                    00945900000010008122016000  080000014003002                     9
R143868210375917420913LOPEZ                      DELGADO                    ROSENDO                    00945900000010008122016000  080000014123403                     9
R143868210304099086185RIVERA                     RUELAS                     PEDRO IVAN                 00945900000010008122016000  080000014126503                     9
