A836767410933119253335MACIAS                     JURADO                     ILIANA LIZDEBETH           00945900000010023052016000  080000008001502                     9
A836767410965129318419DEL CORTE                  BUSTOS                     JORGE LUIS                 00945900000010024052016000  080000008029903                     9
A836767410950937749328LEDEZMA                    ESPINO                     GUADALUPE ALEJANDRO        00945900000010023052016000  080000008044803                     9
A836767410950917512415MARQUEZ                    ORONA                      ISIDRA NOHEMI              00945900000010023052016000  080000008045203                     9
A836767410960149573002CRUZ                       RASCON                     JESUS ADRIEL               00945900000010023052016000  080000008045303                     9
A836767410933907093299NAVARRO                    CASTRO                     LUIS VIDAL                 00945900000010024052016000  080000008045403                     9
A836767410933095100088MAYNEZ                     TORRES                     ANTONIO                    00945900000010025052016000  080000008045503                     9
