Y462621510962856410592VAZQUEZ                    PEREZ                      JUAN                       00945900000010022112016000  080000021159103                     9
Y462621510954149415504MARTINEZ                   HERNANDEZ                  JOSE MANUEL                00945900000010022112016000  080000021159203                     9
Y462621510962786002006HUERTA                     LEON                       JOSE                       00945900000010022112016000  080000021159303                     9
