Y605571210065109309297GOMEZ                      ESCAMILLA                  FAUSTINO                   00945900000010029122016000  080000009672203                     9
Y605571210017836608475VIDALES                    GUTIERREZ                  LETICIA                    00945900000010029122016000  080000009672303                     9
Y605571210011987715445SERRANO                    RODRIGUEZ                  FRANCISCO JAVIER           00945900000010029122016000  080000009672403                     9
Y605571210049977839528ROQUE                      CAMPOS                     JUANA ELIBET               00945900000010029122016000  080000019097603                     9
