Y605571210092129126311ORTEGA                     ORTEGA                     JORGE                      00945900000010005052017000  080000009622103                     9
Y605571210075826406268CRUZ                       RESENDIZ                   JAVIER                     00945900000010005052017000  080000009701203                     9
Y605571210064159712955APARICIO                   CORTES                     VICTOR DANIEL              00945900000010005052017000  080000009701903                     9
Y605571210045119105018RIVERA                     MU—OZ                      GABRIELA ANAI              00945900000010005052017000  080000009702003                     9
Y605571210045058819462ARANDIA                    RIVERA                     JORGE ALBERTO              00945900000010005052017000  080000009702103                     9
Y605571210061937414334BECERRA                    ORTIZ                      RAQUEL                     00945900000010005052017000  080000009702203                     9
Y605571210028089202163MARTINEZ                   PERALTA                    MIGUEL ANGEL               00945900000010005052017000  080000009702303                     9
Y605571210042946902717MIRANDA                    RENDON                     MARICRUZ                   00945900000010005052017000  080000009702403                     9
Y605571210008179516078BLAS                       MURUA                      ZHAYRA PATRICIA            00945900000010005052017000  080000009702503                     9
Y605571210016907371369JIMENEZ                    LARA                       CRESENCIANO                00945900000010005052017000  080000015207303                     9
Y605571210016826348746BRACAMONTES                VAZQUEZ                    VIRGILIO                   00945900000010005052017000  080000015207403                     9
Y605571210016129471971JIMENEZ                    MARTINEZ                   JUSTINO                    00945900000010005052017000  080000015207703                     9
Y605571210003149571311BALTAZAR                   JIMENEZ                    ARMANDO                    00945900000010005052017000  080000015207803                     9
Y605571210016007613017MERCADO                    QUINTANA                   JIMY                       00945900000010005052017000  080000015208003                     9
Y605571210003907320620LOPEZ                      PEÒA                       ALFREDO                    00945900000010005052017000  080000019110803                     9
Y605571210043875208886FLORES                     RAMOS                      ROSA MARIA                 00945900000010005052017000  080000019110903                     9
Y605571210003816301281ESTUPIÒAN                  RIOS                       NORMA EVITA                00945900000010005052017000  080000019111003                     9
Y605571210005179519425MACILLA                    AVILA                      IVAN                       00945900000010005052017000  080000022061203                     9
Y605571210005179603674GARCIA                     MAYO                       JESUS                      00945900000010005052017000  080000022061303                     9
