Y605571210022937804205ORTIZ                      MIGUEL                     CAYETANO                   00945900000010003052017000  080000009691103                     9
Y605571210037038401248LOPEZ                      RAMOS                      MARICELA                   00945900000010003052017000  080000009700503                     9
Y605571210001169947940COLIN                      DOMINGUEZ                  ANGEL DANIEL               00945900000010003052017000  080000009700603                     9
Y605571210003179735828OLIVARES                   HERNANDEZ                  MIGUEL ANGEL               00945900000010003052017000  080000009700703                     9
Y605571210054169816847RAMIREZ                    ESPINOZA                   JULIO CESAR                00945900000010003052017000  080000009700803                     9
Y605571210039957979519SON                        DELGADO                    CARLOS                     00945900000010003052017000  080000009700903                     9
Y605571210096097000184GASCA                      SOLIS                      MARIA DEL CARMEN           00945900000010003052017000  080000009701003                     9
Y605571210039957753674REYES                      GARCIA                     ARTURO                     00945900000010003052017000  080000009701103                     9
Y605571210094007302642RODRIGUEZ                  MIRANDA                    SANTOS APOLONIA            00945900000010003052017000  080000015198603                     9
Y605571210016109419735ANTONIO                    ANTONIO                    JOSE ARMANDO               00945900000010003052017000  080000015206503                     9
Y605571210094129138486RESENDIZ                   CERVANTES                  JOSE AGUSTIN               00945900000010003052017000  080000015206603                     9
Y605571210016776001253CONTRERAS                  BLAS                       JOSE                       00945900000010003052017000  080000015206703                     9
Y605571210018169810969VASQUEZ                    GARCIA                     LIZBETH                    00945900000010003052017000  080000015206803                     9
Y605571210016776010551FELIPE                     VASQUEZ                    ANTONIO                    00945900000010003052017000  080000015206903                     9
Y605571210035169503790NARVAEZ                    GUTIERREZ                  JONATHAN                   00945900000010003052017000  080000015207003                     9
Y605571210003157317037MORA                       CORTES                     ADAN                       00945900000010003052017000  080000016010503                     9
Y605571210002169403041HERNANDEZ                  GONZALEZ                   ESTHER                     00945900000010003052017000  080000019110003                     9
Y605571210043916009236SANCHEZ                    BOCANEGRA                  CARLOS ARTURO              00945900000010003052017000  080000019110103                     9
Y605571210018179842838CADENA                     NIÒO                       LUIS ALEJANDRO             00945900000010003052017000  080000019110203                     9
Y605571210043119535664BAEZ                       MAR                        DAVID DE JESUS             00945900000010003052017000  080000019110303                     9
Y605571210049856321390SALAZAR                    DEL ANGEL                  MA NATIVIDAD               00945900000010003052017000  080000019110403                     9
Y605571210057927665075DELGADO                    VEGA                       JESUS ANTONIO              00945900000010003052017000  080000025015403                     9
Y605571210054159772778VELASCO                    PLIEGO                     FRANCISCO JAVIER           00945900000010003052017000  080000030147103                     9
Y605571210025159239604FLORES                     TRINIDAD                   RUBEN                      00945900000010003052017000  080000030147203                     9
