A836767410953079121215PANIAGUA                   LARA                       ROBERTO CARLOS             00945900000010011082017000  080000002062403                     9
A836767410921876801859HERNANDEZ                  OROZCO                     JOAQUIN                    00945900000010011082017000  080000002062503                     9
A836767410933786136417AGUILERA                   FLOTTE                     LORENZA AMELIA             00945900000010011082017000  080000008080003                     9
