A836767410925897405913VALDEZ                     VALDEZ                     RAFAEL                     00945900000010017052017000  080000002054603                     9
A836767410923856650579LOREDO                     VAZQUEZ                    FRANCISCO JAVIER           00945900000010017052017000  080000002054703                     9
A836767410971139307194MONROY                     CASTILLO                   JOSE EDUARDO               00945900000010017052017000  080000002054803                     9
A836767410925967525319LOZA                       IBARRA                     HIGINIO                    00945900000010017052017000  080000002054903                     9
A836767410924967827254CARDENAS                   SANTOYO                    JORGE CARLOS               00945900000010017052017000  080000002055003                     9
