R143868210354897219520SANCHEZ                    CERVANTES                  ADOLFO                     00945900000010019042017000  080000014120903                     9
R143868210305169674149RICO                       AMEZCUA                    MARIA FERNANDA             00945900000010019042017000  080000014132603                     9
R143868210374907276948ROMAN                      VELAZQUEZ                  CELIA                      00945900000010019042017000  080000014132903                     9
