Z064567510812927169875ANDRADE                                               GERARDO                    00945900000010029062017000  080000011100703                     9
Z064567510812947630443SERRANO                    PANTOJA                    VICTORINO                  00945900000010029062017000  080000011100803                     9
Z064567510863937809257RAMIREZ                    PALACIOS                   MARIA DE JESUS             00945900000010029062017000  080000011100903                     9
Z064567510812866856532CAMARILLO                  SEGOVIA                    ARMANDO                    00945900000010029062017000  080000011101003                     9
Z064567510808179405397GONZALEZ                   RAMIREZ                    SERGIO                     00945900000010029062017000  080000011101103                     9
Z064567510812978067242HURTADO                    PEREZ                      GONZALO                    00945900000010029062017000  080000011101203                     9
