Y605571210018937706440MEDINA                     MOLINA                     MARIO                      00945900000010002122016000  080000009665903                     9
Y605571210045917537206ESQUIVEL                   MARTINEZ                   JOSE DANIEL                00945900000010002122016000  080000009666003                     9
Y605571210042108902117ZAMORA                     DE LA ROSA                 ADALBERTO                  00945900000010002122016000  080000009666103                     9
Y605571210092089209842GONZALEZ                   LOPEZ                      ROGELIO OMAR               00945900000010002122016000  080000015015203                     9
Y605571210074968200209CERVANTES                  ALANIZ                     PEDRO HILARIO              00945900000010002122016000  080000018001203                     9
Y605571210065119239153GOXCON                     AMBROSIO                   JAIRO ALEJANDRO            00945900000010002122016000  080000030089803                     9
Y605571210013815905156RAMOS                      RAMIREZ                    ADRIAN                     00945900000010002122016000  080000030130903                     9
Y605571210065977922676CEJA                       PICASSO                    EDUARDO                    00945900000010002122016000  080000030131003                     9
Y605571210013007711610SANDOVAL                   SANCHEZ                    LIDIA                      00945900000010002122016000  080000030131103                     9
Y605571210044149445213RAMIREZ                    JUAREZ                     JOSE FERNANDO              00945900000010002122016000  080000032001703                     9
