Y605571210021877199154MENDEZ                     SANCHEZ                    GILBERTO ISRAEL            01194600000010014122016000  080000002051403                     9
Y605571210001139312977MARTINEZ                   ROJAS                      ROSA IGNACIA               00945900000010014122016000  080000009669403                     9
Y605571210019149809642GARCIA                     LOPEZ                      ANDRES                     00945900000010014122016000  080000009669503                     9
Y605571210008148328779FUENTES                    SANTIAGO                   GUADALUPE                  00945900000010014122016000  080000009669603                     9
Y605571210056169722123RODRIGUEZ                  MATAMAOROS                 BRYAN ALEJANDRO            00945900000010014122016000  080000009669703                     9
Y605571210059169735350PINTO                      HERNANDEZ                  JHOANY                     00945900000010014122016000  080000009669803                     9
Y605571210013139002896SIMON                      SIMON                      JOAN                       00945900000010014122016000  080000009669903                     9
Y605571210096088936719PINTO                      HERNANDEZ                  ALAN GABRIEL               00945900000010014122016000  080000009670003                     9
Y605571210012866219020BARAJAS                    LOZA                       J JESUS                    00945900000010014122016000  080000011091703                     9
Y605571210010169854287MONTERO                    NITO                       JUAN FRANCISCO             00945900000010014122016000  080000011091803                     9
Y605571210068149617273CHAROLA                    HERMENEGILDO               ANA FERNANDA               00945900000010014122016000  080000015182303                     9
Y605571210065129493527GOMEZ                      ORTIZ                      LUIS REY                   00945900000010014122016000  080000019096403                     9
Y605571210041997926179 RODRIGUEZ                 PAZARAN                    MIZAEL                     00945900000010014122016000  080000019096503                     9
Y605571210043028439115TICANTE                    HERRERA                    JULIO                      00945900000010014122016000  080000019096603                     9
Y605571210047988190063MORENO                     GARZA                      MARIA GUADALUPE            00945900000010014122016000  080000019096703                     9
Y605571210014099122237NIEVES                     FALCON                     JESUS URIEL                00945900000010014122016000  080000022053803                     9
Y605571210068968013398MARTINEZ                   RODRIGUEZ                  BERTHA                     00945900000010014122016000  080000022053903                     9
Y605571210054169739445FELIPE                     RAMIREZ                    POLICARPO                  00945900000010014122016000  080000023040103                     9
Y605571210082008111260NAVARRETE                  ZETINA                     JAIME                      00945900000010014122016000  080000023040203                     9
