Y462621510992129471444BAUTISTA                   VELAZQUEZ                  ISRAEL                     00945900000010026052017000  080000021167603                     9
Y462621510967118720852OCHOA                      GONZALEZ                   JESUS MICHEL               00945900000010026052017000  080000021169503                     9
Y462621510910149132457GOMEZ                      ESPINOSA                   JAVIER                     00945900000010026052017000  080000021169603                     9
