Y605571210011977703674FLORES                     LUNA                       OMAR DE JESUS              00945900000010008112016000  080000009656003                     9
Y605571210039957705062GALAN                      DIAZ                       JUAN DE DIOS               00945900000010008112016000  080000009656103                     9
Y605571210045018013966RAYA                       BONILLA                    NANCY ARELI                00945900000010008112016000  080000009656203                     9
Y605571210052977408451LEON                       SANTOS                     ROMAN                      00945900000010008112016000  080000009656303                     9
Y605571210005158676568MAYO                       HERNANDEZ                  VIVIANA                    00945900000010008112016000  080000011085203                     9
Y605571210012118600951MORENO                     GALICIA                    ROSA MARIA                 00945900000010008112016000  080000011090103                     9
Y605571210043139704266AVITU                      RODRIGUEZ                  LUIS ANTONIO               00945900000010008112016000  080000019092103                     9
Y605571210019149833550LOPEZ                      ALEJANDRO                  LEONEL                     00945900000010008112016000  080000019092203                     9
Y605571210009008115058SANTIAGO                   HERNANDEZ                  ANTOLIN                    00945900000010008112016000  080000019092303                     9
Y605571210067755702429GONZALEZ                   SANCHEZ                    JOSE LUIS ARTURO           00945900000010008112016000  080000022052203                     9
