Y605571210003149327813HERNANDEZ                  CANDELAS                   JESUS ARMANDO              00945900000010022082016000  080000005011203                     9
Y605571210011988002108MENDOZA                    ORTIZ                      ALBERTA                    00945900000010022082016000  080000009639403                     9
Y605571210003169600016ZALDIVAR                   SANDOVAL                   ERNESTO FERNANDO           00945900000010022082016000  080000009639503                     9
Y605571210042119350074GARCIA                     LEDEZMA                    OMAR ALFONSO               00945900000010022082016000  080000009639603                     9
Y605571210001078302377CLARO                      GUTIERREZ                  ISRAEL                     00945900000010022082016000  080000009639703                     9
Y605571210094088802759URIBE                      MARTINEZ                   YAIR EDUARDO               00945900000010022082016000  080000009639803                     9
Y605571210007018210877PEREZ                      HERNANDEZ                  MARIA DE LOS ANGELES       00945900000010022082016000  080000009639903                     9
Y605571210013169775577MARCIAL                    VELASCO                    CRESCENCIO NARCISO         00945900000010022082016000  080000011088603                     9
Y605571210055067402101PEREZ                      ROSAS                      RAMON                      00945900000010022082016000  080000018000603                     9
Y605571210056907041711HERNANDEZ                  MEZA                       MOISES                     00945900000010022082016000  080000018000703                     9
Y605571210004816451746MARTINEZ                   MONDRGON                   ROBERTO                    00945900000010022082016000  080000018000803                     9
Y605571210027169585653SOSA                       GOMEZ                      ANGEL FRANCISCO            00945900000010022082016000  080000023032203                     9
Y605571210065016700406BARBON                     CRUZ                       JOSE ARMANDO               00945900000010022082016000  080000030067203                     9
Y605571210002167994934HERNANDEZ                  ABURTO                     EUNICE                     00945900000010022082016000  080000030122803                     9
Y605571210050149501608WOOD                       NIETO                      JOSE CARLOS                00945900000010022082016000  080000030122903                     9
Y605571210042169697986ESTEBAN                    SANTOS                     JOSE ANDRES                00945900000010022082016000  080000030123003                     9
Y605571210043109373100VELAZQUEZ                  CRUZ                       VICTOR DOMINGO             00945900000010022082016000  080000030123103                     9
Y605571210067119335031VAZQUEZ                    PIMENTEL                   OSCAR                      00945900000010022082016000  080000030123203                     9
Y605571210026149498912ESTEBAN                    PEREZ                      JESUS                      00945900000010022082016000  080000030123303                     9
Y605571210067139129208RODRIGUEZ                  GARCIA                     HERIBERTO                  00945900000010022082016000  080000030123403                     9
