Y605571210096129389415MENDOZA                    ROMERO                     ERICK ALEJANDRO            00945900000010002012017000  080000009672603                     9
Y605571210096937720942VAZQUEZ                    OLVERA                     ALBERTO                    00945900000010002012017000  080000009672703                     9
Y605571210042018117111ACOSTA                     AVILES                     MONICA                     00945900000010002012017000  080000009672803                     9
Y605571210031947565052SEVILLA                    PEREYRA                    JOSE ALFREDO               00945900000010002012017000  080000010000503                     9
Y605571210014089305271ROMERO                     CHAVEZ                     JOSE DANIEL                00945900000010002012017000  080000022054603                     9
