A836767410921129436834AVILA                      FLORES                     ADOLFO SALVADOR            00945900000010027072017000  080000002001502                     9
A836767410967765800601RAMIREZ                    ESTRADA                    ROGELIO                    00945900000010027072017000  080000002060903                     9
A836767410923077618249VEGA                       FAJARDO                    HUMBERTO                   00945900000010027072017000  080000002061003                     9
A836767410921068642582AGUILAR                    VITAL                      ESTEBAN IGNACIO            00945900000010027072017000  080000002061103                     9
A836767410917159767528MORA                       RAMIREZ                    ISSAC CAMILO               00945900000010027072017000  080000002061203                     9
A836767410921886630835MARTINEZ                   ENRIQUEZ                   JOSE                       00945900000010027072017000  080000002061303                     9
A836767410933866811590MACIAS                     IBARRA                     SILVIA                     00945900000010027052017000  080000008078903                     9
