Z064567510812129043811FALCON                     ZEPEDA                     ERNESTO ALEJANDRO          00945900000010007022017000  080000011094703                     9
Z064567510812088984963OLIVARES                   HERNANDEZ                  JORGE ADRIAN               00945900000010007022017000  080000011094803                     9
Z064567510812058837431VEGA                       LONGORIA                   JUAN JESUS                 00945900000010007022017000  080000011094903                     9
