Y605571210068149516699HERNANDEZ                  ROMERO                     DANIEL ALBERTO             00945900000010004092017000  080000009682103                     9
Y605571210011947506538MARTINEZ                   HERNANDEZ                  ELOY                       00945900000010004092017000  080000009722003                     9
Y605571210096897039150PEÒA                       NAPOLES                    JOSE                       00945900000010004092017000  080000009729103                     9
Y605571210094038203405HERAS                      BARRANCO                   ANGEL                      01678400000010004092017000  080000015042503                     9
Y605571210047079126026ACOSTA                     RODRIGUEZ                  NANCY ARACELY              00945900000010004092017000  080000019117703                     9
Y605571210043785502535RAMIREZ                    PEREZ                      PANFILO                    00945900000010004092017000  080000019125103                     9
Y605571210032028324252ESTUDILLO                  FERNANDEZ                  NAHXELLY NATALIA           00945900000010004092017000  080000019125303                     9
Y605571210043806339412AYALA                      RODRIGUEZ                  JUAN GUADALUPE             00945900000010004092017000  080000019125403                     9
Y605571210003158136295MARTINEZ                   ALMAGUER                   MARIA ALICIA               00945900000010004092017000  080000019125503                     9
Y605571210081937416808JUAREZ                     DE LA CRUZ                 JOSE DE LA CRUZ            00945900000010004092017000  080000023052203                     9
Y605571210082057603902JAVIER                     PUC                        MERILE                     00945900000010004092017000  080000023052303                     9
