Y605571210081129413779MISS                       ORTIZ                      CARLOS ENRIQUE             00945900000010030082016000  080000004008203                     9
Y605571210065007815759BARRIOS                    FERNANDEZ                  JOSE ULISES                00945900000010030082016000  080000022049803                     9
Y605571210065119103615BUSTAMANTE                 BAXIN                      MAURICIO ANDRES            00945900000010030082016000  080000022049903                     9
Y605571210011058111326CORDOBA                    MEDINA                     MARY ANGEL                 00945900000010030082016000  080000022050003                     9
Y605571210065058900641FLORES                     BAXIN                      MARCO ANTONIO              00945900000010030082016000  080000022050103                     9
Y605571210026169432387IXTEPAN                    CAMPOS                     ROBERTO JAVIER             00945900000010030082016000  080000022050203                     9
Y605571210053068711018PACHECO                    URIBE                      JOSUE                      00945900000010030082016000  080000022050303                     9
Y605571210009028461888TORRES                     MARTINEZ                   JOSE LUIS                  00945900000010030082016000  080000022050403                     9
Y605571210067128000162HERNANDEZ                  SANTO                      MARBELLA                   00945900000010030082016000  080000030124103                     9
