Y605571210072078623872TORRES                     MORALES                    ABRAHAM                    00945900000010017112016000  080000012004403                     9
Y605571210072089008618ABARCA                     BEDOLLA                    LUIS ANTONIO               00945900000010016112016000  080000012011403                     9
Y605571210072836002740AYALA                      CRUZ                       SALOMON                    00945900000010022112016000  080000012011603                     9
Y605571210072887037785FLORES                     CEBRERO                    ROMAN                      00945900000010023122016000  080000012011703                     9
