Y605571210025169761977FABIAN                     AMBRIZ                     MANUEL                     01194600000010008082016000  080000002049903                     9
Y605571210027149568928VALLE                      MUÒOZ                      LUIS DANIEL                01194600000010008082016000  080000002050003                     9
Y605571210025139520453PONCE                      PEREZ                      ROBERTO                    01194600000010008082016000  080000002050103                     9
Y605571210089856903102PEREZ                      RESENDIZ                   MARCO ANTONIO              00945900000010008082016000  080000009021802                     9
Y605571210094078928929PALAFOX                    ORTEGA                     ADRIAN                     00945900000010008082016000  080000009039102                     9
Y605571210030936913455REYES                      FERIA                      BRUNO                      00945900000010008082016000  080000009497003                     9
Y605571210078887308373DEHESA                     MARQUEZ                    ARTURO                     00945900000010008082016000  080000009595703                     9
Y605571210015088309347BALMACEDA                  ROSALES                    MIGUEL                     00945900000010008082016000  080000011087103                     9
Y605571210012017108841TORRES                     RAMOS                      MARIA OFELIA DEL PUEBLITO  00945900000010008082016000  080000011087203                     9
Y605571210061149500334SANCHEZ                    HERNANDEZ                  PABLO BRAYAN               00945900000010008082016000  080000013014303                     9
Y605571210018149105704CANO                       JUAREZ                     JOSE ALFREDO               00945900000010008082016000  080000013014403                     9
Y605571210013068509564HERNANDEZ                  LORENZO                    CLARA                      00945900000010008082016000  080000013014503                     9
Y605571210005168804622LUGO                       VILLEGAS                   SANDRA                     00945900000010008082016000  080000015179903                     9
Y605571210013988226554LOPEZ                      MARTINEZ                   EUGENIO                    00945900000010008082016000  080000015180103                     9
Y605571210002167267109GOMEZ                      GOMEZ                      JULIO CESAR                00945900000010008082016000  080000016007303                     9
Y605571210034088407696GOMEZ                      HERNANDEZ                  JUAN CARLOS                00945900000010008082016000  080000022047803                     9
Y605571210041119335697SANCHEZ                    RAMIREZ                    JUAN RAMON                 00945900000010008082016000  080000024004403                     9
Y605571210025159161162CAÒEDO                     XALA                       JORGE ELIAS                00945900000010008082016000  080000030121503                     9
Y605571210067119255262ALCANTARA                  FERNANDEZ                  WILBERT                    00945900000010008082016000  080000030121603                     9
Y605571210065119357476BAUTISTA                   HERNANDEZ                  LUIS ALFREDO               00945900000010008082016000  080000030121703                     9
Y605571210034099207200FLORES                     PUGA                       CARLOS HUMBERTO            00945900000010008082016000  080000032001003                     9
Y605571210034139012297SAUCEDO                    MARTINEZ                   URIEL                      00945900000010008082016000  080000032001203                     9
