Y605571210045058307922HERNANDEZ                  RAMIREZ                    VIRIDIANA                  00945900000010015032017000  080000009689503                     9
Y605571210042038602852GARCIA                     DE LEON                    BLAS                       00945900000010015032017000  080000009689603                     9
Y605571210005179600720ALBINO                     LUCIANO                    MARTIN URIEL               00945900000010015032017000  080000009689703                     9
Y605571210094139609120MONJE                      HERNANDEZ                  FRANCISCO JAVIER           00945900000010015032017000  080000009689803                     9
Y605571210045119309420LOPEZ                      PEREZ                      LUIS ELIAS                 00945900000010015032017000  080000009689903                     9
Y605571210002178656449CORTES                     NERI                       CARMELO                    00945900000010015032017000  080000009690003                     9
Y605571210045129021981PEREZ                      MARTINEZ                   ELIZABETH                  00945900000010015032017000  080000009690103                     9
Y605571210092907169152RODRIGUEZ                  GODINEZ                    JUANA                      00945900000010015032017000  080000015198503                     9
Y605571210043099209249AGUILAR                    RODRIGUEZ                  ANGELICA GUADALUPE         00945900000010015032017000  080000019105603                     9
Y605571210047927567751URBINA                     GUERRERO                   NORBERTO                   00945900000010015032017000  080000019105703                     9
Y605571210047988011004MEDRANO                    HERNANDEZ                  OSCAR                      00945900000010015032017000  080000019105803                     9
Y605571210009078949048AGUILAR                    ROCHA                      JOVANI EMANUEL             00945900000010015032017000  080000019105903                     9
Y605571210024088815501SANTIAGO                   MARTINEZ                   MARIANA                    00945900000010015032017000  080000025013903                     9
Y605571210023116200835AMADOR                     APODACA                    MARIA MAGDALENA            00945900000010015032017000  080000025014003                     9
