Y605571210023098311469NUÒES                      FELIX                      ESTERIA ESPERANZA          00945900000010004012017000  080000025011803                     9
Y605571210023089166609RODRIGUEZ                  ESPINOZA                   JAVIER ANTONIO             00945900000010004012017000  080000025011903                     9
Y605571210023137906360AGUIRRE                    PACHECO                    NIDIA RAMONA               00945900000010004012017000  080000025012003                     9
