Y462621510962846543635ARVEA                      RIVERA                     OCTAVIO                    00945900000010011012017000  080000021162503                     9
Y462621510948068945459ANGELES                    SERRANO                    FERNANDO                   00945900000010011012017000  080000021162603                     9
Y462621510948088744734QUINTERO                   GORDILLO                   MIGUEL ANGEL               00945900000010011012017000  080000021162703                     9
Y462621510910168925914RODRIGUEZ                  XICOHTENCATL               JOEL                       00945900000010011012017000  080000021162803                     9
Y462621510962957803364GONZALEZ                   GOMEZ                      NORBERTO                   00945900000010011012017000  080000021162903                     9
Y462621510948109244995TOME                       SUAREZ                     JUAN ANTONIO               00945900000010011012017000  080000021163003                     9
