Y605571210037008322382GALICIA                    CASTAÑEDA                  JUAN ALFONSO               00945900000010014092016000  080000009471703                     9
Y605571210005129445929CRUZ                       HERNANDEZ                  JOSE ALBERTO               00945900000010014092016000  080000009644503                     9
Y605571210045119226483MENDOZA                    RUIZ                       CHRISTIAN EMMANUEL         00945900000010014092016000  080000009644603                     9
Y605571210030008216407GARCIA                     HERNANDEZ                  ALEJANDRO                  00945900000010014092016000  080000009644703                     9
Y605571210011139300278TAPIA                      GARCIA                     EZEQUIEL ELIHU             00945900000010014092016000  080000009644803                     9
Y605571210048089046295PAISANO                    ENRIQUEZ                   JOEL                       00945900000010014092016000  080000009644903                     9
Y605571210090119101013RUIZ                       CRUZ                       JOSUE                      00945900000010014092016000  080000009645003                     9
Y605571210004078328954RIVERA                     CERON                      CARLOS ALBERTO             00945900000010014092016000  080000009645103                     9
Y605571210083108616653JIMENEZ                    DIAZ                       MATEO                      00945900000010014092016000  080000023032803                     9
Y605571210067997807283GUZMAN                     GOMEZ                      ROBERTO                    00945900000010014092016000  080000023032903                     9
Y605571210071139511290MATEO                      RAMIREZ                    SAMUEL                     00945900000010014092016000  080000023033003                     9
Y605571210006795916185MOLINA                     GARCIA                     MARIO                      00945900000010014092016000  080000023033103                     9
Y605571210054998321001CUEVA                      VILLANUEVA                 HECTOR OMAR                00945900000010014092016000  080000023033203                     9
Y605571210096068802592DOMINGUEZ                  OSORIO                     HEBER                      00945900000010014092016000  080000023033303                     9
Y605571210071038326782RODAS                      PEREZ                      EXAL                       00945900000010014092016000  080000023033503                     9
Y605571210003157513718QUINTERO                   PEREZ                      CLAUDIA CECILIA            00945900000010014092016000  080000025009003                     9
Y605571210023886409129CAMACHO                    PEREZ                      ELOISA                     00945900000010014092016000  080000025009103                     9
