Y605571210025887064431LOPEZ                      CASTRO                     LUIS ADOLFO                01194600000010022092016000  080000002051103                     9
Y605571210045119113657SERRANO                    CONTRERAS                  JULIO                      00945900000010022092016000  080000009592503                     9
Y605571210027159305799MONTES                     FLORES                     ALEJANDRO                  00945900000010022092016000  080000009647003                     9
Y605571210096008306225BUENDIA                    VALVERDE                   ISMAEL                     00945900000010022092016000  080000009647103                     9
Y605571210013079023001CAMPISTRANO                CRISTINO                   JAVIER                     00945900000010022092016000  080000013015603                     9
Y605571210068149617273CHAROLA                    HERMENEGILDO               ANA FERNANDA               00945900000010022092016000  080000015182303                     9
Y605571210071118308510GIRON                      GUILLEN                    CRISTINA                   00945900000010022092016000  080000027058503                     9
Y605571210071008002645LOPEZ                      SANTIAGO                   ADELINA GUADALUPE          00945900000010022092016000  080000027058603                     9
Y605571210049976400827ANTU                       ROCHA                      FRANCISCO HORACIO          00945900000010022092016000  080000028035503                     9
