Y605571210069149622925DELGADILLO                 GODINEZ                    JAZMIN GUADALUPE           00945900000010007062016000  080000009037702                     9
Y605571210045966900552RAMIREZ                    OCAMPO                     JUAN                       00945900000010007062016000  080000009618903                     9
Y605571210005149293580ORTEGA                     CARRASCO                   JESUS                      00945900000010007062016000  080000009619003                     9
Y605571210020008012161RUIZ                       FERNANDEZ                  ALBERTO                    00945900000010007062016000  080000009619103                     9
Y605571210096876825637RAMIREZ                    QUIROZ                     ELEAZAR                    00945900000010007062016000  080000009619203                     9
Y605571210012947882028GONZALEZ                   CALDERON                   JUAN GERARDO               00945900000010007062016000  080000011040703                     9
Y605571210012089176643ALANIS                     BELTRAN                    FROYLAN RICARDO            00945900000010007062016000  080000011083703                     9
Y605571210092007927574IZQUIERDO                  SANTANA                    LUIS ALBERTO               00945900000010007062016000  080000015174303                     9
Y605571210092997937575NUÒEZ                      CAJIGA                     LUIS ALBERTO               00945900000010007062016000  080000015174403                     9
Y605571210016068518386HERRERA                    ARCOS                      JOSE GUILLERMO             00945900000010007062016000  080000015174503                     9
Y605571210003978030637RAMIREZ                    HERRERA                    MONICA ELIZABETH           00945900000010007062016000  080000019001802                     9
Y605571210039169672373TOGA                       TEOBA                      GUSTAVO                    00945900000010007062016000  080000022045103                     9
Y605571210003169449489ZARATE                     MORAGA                     ZITLALI ADRIANA            00945900000010007062016000  080000023028303                     9
