A836767410923866710876SAINZ                      MEDINA                     JOSE ROBERTO               00945900000010007092016000  080000008057903                     9
A836767410933048803812GONZALEZ                   MONTES                     OSVALDO                    00945900000010007092016000  080000008058003                     9
A836767410933967718868GARCIA                     MUÒIZ                      CRISTINA                   00945900000010007092016000  080000008058103                     9
