Y605571210071927532755HERNANDEZ                  FIGUEROA                   JUAN CARLOS                00945900000010006062016000  080000007014303                     9
Y605571210045128001182BELTRAN                    HERNANDEZ                  SAMANTHA                   00945900000010006062016000  080000009618803                     9
Y605571210012096800714TOVAR                      TOVAR                      FILOGONIO                  00945900000010006062016000  080000011068003                     9
Y605571210014897224268ONTIVEROS                  PRADO                      JOSE DE JESUS              00945900000010006062016000  080000011083603                     9
Y605571210012089176643ALANIS                     ESTRADA                    FROYLAN RICARDO            00945900000010006062016000  080000011083703                     9
Y605571210012058305967RAMIREZ                    HERNANDEZ                  HECTOR                     00945900000010006062016000  080000011083803                     9
Y605571210092109401288HERNANDEZ                  DE JESUS                   GUSTAVO                    00945900000010006062016000  080000015174103                     9
Y605571210035149440659VASQUEZ                    LOPEZ                      NUVIA NAYELI               00945900000010006062016000  080000015174203                     9
Y605571210043937759090RAMIREZ                    MARTIN                     JOSE MANUEL                00945900000010006062016000  080000019080003                     9
