R143868210325149155860ALVAREZ                    MORALES                    DIEGO                      00945900000010027072016000  080000014002302                     9
R143868210353026300300CERVANTES                  CARREÒO                    LUIS MIGUEL                00945900000010027072016000  080000014118303                     9
R143868210310169223061GUZMAN                     BECERRA                    ROSALBA                    00945900000010027072016000  080000014118503                     9
