A836767410927149764352ALVAREZ                    DE LA CRUZ                 JUAN EDUARDO               00945900000010018072017000  080000008077703                     9
A836767410933129432630MURUATO                    PALLARES                   LUIS ANTONIO               00945900000010018072017000  080000008077803                     9
A836767410902177972292AGREDA                     MENDEZ                     MAURICIO EDGARDO           00945900000010018072017000  080000008077903                     9
A836767410903157638192CUADROS                    BOLAÒOS                    JORGE ALBERTO              00945900000010018072017000  080000008078103                     9
