R143868210304896936368CARRILLO                   PACAS                      JOSE HUMBERTO              00945900000010001122016000  080000014125903                     9
R143868210364159665575ORTIZ                      RUIZ                       LUIS ANGEL                 00945900000010001122016000  080000014126203                     9
R143868210352957405278RAMIREZ                    MORA                       PAULO IRINEO               00945900000010001122016000  080000014126303                     9
