Y605571210018149499354REMIGIO                    LOPEZ                      WILFRIDO                   00945900000010015082017000  080000009725603                     9
Y605571210002176140933BEJARANO                   MUÒOZ                      RAMON                      00945900000010015082017000  080000009725703                     9
Y605571210047937402072GONZALEZ                   MARTINEZ                   JESUS                      00945900000010015082017000  080000019122903                     9
Y605571210043987006418ESPARZA                    MARTINEZ                   CARLOS ENRIQUE             00945900000010015082017000  080000019123003                     9
Y605571210043119030690DE OCHOA                   BAZAN                      KARLA ALEJANDRA            00945900000010015082017000  080000019123103                     9
