Y605571210030886912622MAZZOCO                    DEL CASTILLO               JESUS                      01194600000010028032017000  080000002000802                     9
Y605571210002178991267ALVAREZ                    SALAZAR                    WALTER ANTONIO             00945900000010028032017000  080000007018603                     9
Y605571210002157277118GUTIERREZ                  TORRES                     MIGUEL ANGEL               00945900000010028032017000  080000009692203                     9
Y605571210078109107470BAUTISTA                   CRUZ                       VICTOR MANUEL              00945900000010028032017000  080000009692303                     9
Y605571210096079106116VELASCO                    CRISTOBAL                  JOSE ERNESTO               00945900000010028032017000  080000009692403                     9
Y605571210001856755960MARIN                      PINEDO                     DAVID CRISTOBAL            00945900000010028032017000  080000015123703                     9
Y605571210010169353777VILLALVA                   FELIPE                     JESUS                      00945900000010028032017000  080000015200203                     9
Y605571210057149604241ROSANO                     DOMINGUEZ                  KEVIN ADAM                 00945900000010028032017000  080000015200303                     9
Y605571210094028317900MARTINEZ                   TORRES                     MARIO                      00945900000010028032017000  080000015200403                     9
Y605571210014836106766DE LA CRUZ                 VEGA                       J.DOLORES                  00945900000010028032017000  080000022060003                     9
Y605571210014137000627GONZALEZ                   MIRANDA                    BERNARDO                   00945900000010028032017000  080000022060103                     9
