Y605571210010159666543SANDOVAL                   SILVA                      ALAN FERNANDO              00945900000010009092016000  080000009525003                     9
Y605571210092896814578AMBROSIO                   ROBLES                     DELFINO                    00945900000010009092016000  080000009582803                     9
Y605571210096148900424GARRIDO                    MARTINEZ                   MARIA AGUEDA               00945900000010009092016000  080000009643203                     9
Y605571210083088723073HERNANDEZ                  MADRIGAL                   JOSE FRANCISCO             00945900000010009092016000  080000009643303                     9
Y605571210096099024406PEREZ                      SANTANA                    EDUARDO                    00945900000010009092016000  080000009643403                     9
Y605571210068978226865MARTINEZ                   SANJUAN                    DAVID                      00945900000010009092016000  080000009643503                     9
Y605571210005158676568MAYO                       HERNANDEZ                  VIVIANA                    00945900000010009092016000  080000011085203                     9
Y605571210012978070469VILLAVICENCIO              LOPEZ                      LUIS ERNESTO               00945900000010009092016000  080000011089003                     9
Y605571210024008126930CAMPOS                     MEDINA                     ANA JUDITH                 00945900000010009092016000  080000019087003                     9
Y605571210021896011877GONZALEZ                   MEZA                       ALEJANDRO                  00945900000010009092016000  080000025008903                     9
Y605571210067099044207HERNANDEZ                  VARELA                     ARELY                      00945900000010009092016000  080000030125203                     9
