Y605571210045129226531GONZALEZ                   VALDOVINOS                 REYNA EMIGDIA              00945900000010024082017000  080000009727503                     9
Y605571210010179376800CELIS                      ALCANTARA                  NOHEMI ARACELI             00945900000010024082017000  080000009727603                     9
Y605571210067915925761MARTINEZ                   CUETO                      TOMAS                      00945900000010024082017000  080000009727703                     9
Y605571210002169777477MACEDONIO                  HERNANDEZ                  JOSE LUIS                  00945900000010024082017000  080000019124703                     9
Y605571210023988071850LLANES                     LEYVA                      MARIADE LOS ANGELES        00945900000010024082017000  080000025018703                     9
Y605571210089846644089MEDINA                     PEREZ                      PEDRO                      00945900000010021082017000  080000028004003                     9
