Y605571210096129258339SOLIS                      PEREZ                      JESSICA MARGARITA          00945900000010022062016000  080000009037802                     9
Y605571210012078315145LUNA                       LINARES                    LEONEL                     00945900000010022062016000  080000011084603                     9
Y605571210054169769434ESCOTO                     CANO                       LUIS ANGEL                 00945900000010022062016000  080000011084703                     9
Y605571210013129336585GRANADOS                   AGUILAR                    ARMANDO                    00945900000010022062016000  080000013011503                     9
Y605571210090139221585MUÒOZ                      CORTES                     FELIPE DE JESUS            00945900000010022062016000  080000015176203                     9
Y605571210072007900748MARICHE                    GARCIA                     VICTOR HUGO                00945900000010022062016000  080000015176403                     9
Y605571210007169787442CANTABRANA                 REYES                      JUAN YAEL                  00945900000010022062016000  080000018000103                     9
Y605571210043088809009ROBLEDO                    RODRIGUEZ                  SANDRA VERONICA            00945900000010022062016000  080000019001902                     9
Y605571210061068405309POZOS                      VELAZQUEZ                  DIONISIO                   00945900000010022062016000  080000029006303                     9
Y605571210067018215623CASTRO                     PALAYOT                    LORENZO ANTONIO            00945900000010022062016000  080000030077303                     9
