A836767410903149889341PRIMERO                    HAROS                      CRISTIAN ISSAC             00945900000010013072017000  080000008077203                     9
A836767410910159839868PEREZ                      TARANGO                    IRVIN ALBERTO              00945900000010013072017000  080000008077303                     9
A836767410927159792533NEVAREZ                    GARCIA                     MARIO FERNANDO             00945900000010013072017000  080000008077403                     9
