Y605571210039927379857RODRIGUEZ                  VAZQUEZ                    ROCIO ELENA                00945900000010021102016000  080000009040402                     9
Y605571210076916400625CORONA                     PEREZ                      MARCO ANTONIO              00945900000010021102016000  080000009040502                     9
Y605571210017836523294PEREZ                      FLORES                     JUANA                      00945900000010021102016000  080000009652003                     9
Y605571210012017704631RAMIREZ                    GONZALEZ                   ABRAHAM                    00945900000010021102016000  080000019090103                     9
Y605571210067119239910VIDAL                      PEREZ                      MARIA DE GUADALUPE         00945900000010021102016000  080000030126803                     9
Y605571210065876878821BAEZ                       CORICHI                    VICENTE                    00945900000010021102016000  080000030127203                     9
Y605571210034137401195ESPINOZA                   ESPINOZA                   MARTIN                     00945900000010021102016000  080000032001503                     9
Y605571210005168627692ALMEIDA                    MARTINEZ                   GERARDO                    00945900000010021102016000  080000032001603                     9
