Y605571210021149849818TORRES                     MORA                       LUCIO ALBERTO              01194600000010011072016000  080000002049203                     9
Y605571210021998393223CISNEROS                   MORQUECHO                  SALVADOR                   01194600000010011072016000  080000002049303                     9
Y605571210045068757041ELIZALDE                   TORRES                     LEOBARDO                   00945900000010011072016000  080000009581103                     9
Y605571210011988004336DE JESUS                   CERON                      LUIS ESTEBAN               00945900000010011072016000  080000009625503                     9
Y605571210042886875139PEREZ                      DEVIANA                    IGNACIO                    00945900000010011072016000  080000009625603                     9
Y605571210098119233371REYES                      ROBLES                     ALEJANDRO IVAN             00945900000010011072016000  080000009625703                     9
Y605571210021067604906MARTINEZ                   BARRANCO                   CONSTANTINO                00945900000010011072016000  080000013009203                     9
Y605571210013128816629CAMPERO                    HERNANDEZ                  SAUL                       00945900000010011072016000  080000013013403                     9
Y605571210013977826380TENORIO                    ORTEGA                     ALDO                       00945900000010011072016000  080000013013503                     9
Y605571210001139163156SOTO                       CASTILLO                   JESSICA                    00945900000010011072016000  080000013013603                     9
Y605571210032078943449TICANTE                    BERNARDINO                 DOMINGO                    00945900000010011072016000  080000013013703                     9
Y605571210013139511540HERNANDEZ                  OLVERA                     JUAN CARLOS                00945900000010011072016000  080000013013803                     9
Y605571210068967800795CHAVEZ                     LOPEZ                      ROBERTO                    00945900000010011072016000  080000013013903                     9
Y605571210002168493381CALIXTO                    MENDOZA                    ARISANDI                   00945900000010011072016000  080000015178103                     9
Y605571210004967302250SALAS                      LOPEZ                      LIDIA EUGENIA              00945900000010011072016000  080000015178203                     9
