Y605571210088826510666ROSAS                      RODRIGUEZ                  ROGELIO                    00945900000010004102016000  080000009648503                     9
Y605571210016048317784SUAREZ                     SORIANO                    DANIEL                     00945900000010004102016000  080000009648703                     9
Y605571210030907352733BELMONT                    HERNANDEZ                  VICTOR                     00945900000010004102016000  080000009648803                     9
Y605571210092038421712LIN                        CASTRO                     GUADALUPE                  00945900000010004102016000  080000015182803                     9
Y605571210065027002289HERNANDEZ                  MARTINEZ                   JOSE LUIS                  00945900000010004102016000  080000019078503                     9
Y605571210043028526234AGUILERA                   RODRIGUEZ                  ELIUD ARMANDO              00945900000010004102016000  080000019088403                     9
Y605571210056159628702LOREDO                     AGUILAR                    ALONSO ALEJANDRO           00945900000010004102016000  080000019088503                     9
