Y605571210042028301291ESCARCEGA                  MATA                       ENRIQUE                    00945900000010018042017000  080000009042902                     9
Y605571210045106600476RODRIGUEZ                  HERNANDEZ                  MARIO ALFONSO              00945900000010018042017000  080000009462703                     9
Y605571210094048642055MONTES                     LOPEZ                      JONATHAN YAMANI            01678400000010018042017000  080000009535903                     9
Y605571210010836627520SANCHEZ                    VAZQUEZ                    JOSE JAVIER                00945900000010018042017000  080000009580803                     9
Y605571210005159706745ZU—IGA                     MOLINERO                   ROGELIO                    00945900000010018042017000  080000009592203                     9
Y605571210067906651368GARCIA                     LOPEZ                      ROGER ANTONIO              00945900000010018042017000  080000009695703                     9
Y605571210030987412043VILLANUEVA                 SANCHEZ                    ROMAN                      00945900000010018042017000  080000009695803                     9
Y605571210042886502519HERNANDEZ                  MORALES                    FLAVIO DAVID               00945900000010018042017000  080000009695903                     9
Y605571210011997908253CORNEJO                    ROIDRIGUEZ                 MARCOS                     00945900000010018042017000  080000009696003                     9
Y605571210045129373481BALLADARES                 ALVARADO                   BELLA                      00945900000010018042017000  080000009696103                     9
Y605571210096986901914LLAMAS                     PACHECO                    CARMEN                     00945900000010018042017000  080000009696203                     9
Y605571210039026900827OBREGON                    FONSECA                    ROLANDO JAVIER             00945900000010018042017000  080000009696303                     9
Y605571210064856710401ZAMORA                     CASTA—EDA                  MARIA DE JESUS             00945900000010018042017000  080000013016803                     9
Y605571210090917518905YAÒEZ                      ROMERO                     CESAR                      00945900000010018042017000  080000015202303                     9
Y605571210016066300639SANCHEZ                    RUFINO                     AGUSTINA                   00945900000010018042017000  080000015202503                     9
Y605571210008179775534RAMIREZ                    LOPEZ                      CINTHIA                    00945900000010018042017000  080000015202603                     9
Y605571210092139513425CRUZ                       GRANADA                    DAVID                      00945900000010018042017000  080000015202703                     9
Y605571210018169107317DIAZ                       CUELLAR                    MARICRUZ                   00945900000010018042017000  080000015203003                     9
Y605571210027149732193SANCHEZ                    DELGADO                    JUAN ALBERTO               00945900000010018042017000  080000019108003                     9
Y605571210056149599567DE LA CRUZ                 FERRAL                     ELIZABETH                  00945900000010018042017000  080000019108103                     9
