Y607431310408158745060LOPEZ                      REYES                      MARIA ARACELI              02612100000010011112024000  080000009036203                     9
Y607431310401988114425FLORES                     FRANCO                     JESUS                      02612100000010011112024000  080000009036303                     9
Y607431310494139125374BLANCAS                    AGUILAR                    GUILLERMO                  02612100000010011112024000  080000015001403                     9
