Y605571210092967609113GOMEZ                      PARRA                      DANIEL JACOB               00945900000010019042016000  080000009006802                     9
Y605571210094998018975NU—EZ                      PEREZ                      EDUARDO                    00945900000010019042016000  080000009609203                     9
Y605571210096129521280AVILA                      PEREZ                      RODRIGO GEOVANNY           00945900000010019042016000  080000009609303                     9
Y605571210042129720027CRESENCIO                  NAVARRO                    ALEXIS URIEL               00945900000010019042016000  080000009609403                     9
Y605571210096139357857RAMIREZ                    MENDOZA                    JOSE ALFREDO               00945900000010019042016000  080000009609503                     9
Y605571210096139368086LOPEZ                      CRUZ                       DIANA                      00945900000010019042016000  080000009609603                     9
Y605571210020129626246VALDOVINOS                 FLORES                     YAIR URIEL                 00945900000010019042016000  080000009609703                     9
Y605571210020048503781CRUZ                       SANCHEZ                    JOSE                       00945900000010019042016000  080000009609803                     9
Y605571210096088933542HERNANDEZ                  JACOBO                     GEOVANNY GERARDO           00945900000010019042016000  080000009609903                     9
Y605571210026149237138MARTINEZ                   VAZQUEZ                    ISAAC                      00945900000010019042016000  080000009610003                     9
Y605571210096139451015PE—A                       PACHECO                    ARELI                      00945900000010019042016000  080000009610103                     9
Y605571210012089006154GUTIERREZ                  LOPEZ                      GERARDO ENRIQUE            00945900000010019042016000  080000011051903                     9
Y605571210012129565003MARTINEZ                   CASIQUE                    HERIBERTO                  00945900000010019042016000  080000011079803                     9
Y605571210012129169954VEGA                       SOTO                       FRANCISCO MIGUEL           00945900000010019042016000  080000011082403                     9
Y605571210018169697630GARCIA                     LOPEZ                      ALDO                       00945900000010019042016000  080000015167703                     9
Y605571210092129237043DELGADO                    SANCHEZ                    VERONICA                   00945900000010019042016000  080000015170103                     9
Y605571210084907020741PICAZO                     BARRERAS                   FAUSTO EDUARDO             00945900000010019042016000  080000015170203                     9
Y605571210016077605521JIMENEZ                    MARTINEZ                   CECILIA                    00945900000010019042016000  080000015170303                     9
Y605571210010169617494RODRIGUEZ                  NAVA                       PABLO                      00945900000010019042016000  080000022041403                     9
Y605571210037967404296ORDUÒO                     OBIL                       GERARDO                    00945900000010019042016000  080000030114203                     9
