Y462621510903147832855BAUTISTA                   LUCAS                      GONZALO                    00945900000010002122016000  080000021144803                     9
Y462621510962876204926LOEZA                      HERNANDEZ                  JORGE                      00945900000010002122016000  080000021160303                     9
Y462621510962947308185SAMANO                     PEREZ                      FERNANDO                   00945900000010002122016000  080000021160403                     9
Y462621510971109315227ESPINOZA                   CANTE                      EDY ALBERTO                00945900000010002122016000  080000021160503                     9
