Y605571210094089029634ROMERO                     OSNAYA                     KAREN                      00945900000010017012017000  080000009041502                     9
Y605571210042866911433GONZALEZ                   HERNANDEZ                  JUAN MARCELO               00945900000010017012017000  080000009645403                     9
Y605571210044169796271GARCIA                     MONTAÑO                    JAVIER ALEJANDRO           00945900000010017012017000  080000009676403                     9
Y605571210092887225255ISLAS                      ORTEGA                     RICARDO                    00945900000010017012017000  080000009676503                     9
Y605571210042956600599FLORES                     HERNANDEZ                  TEODORO                    00945900000010017012017000  080000009676603                     9
Y605571210072968014133LOPEZ                      ROQUE                      ANDRES                     00945900000010017012017000  080000009676703                     9
Y605571210002179335365CORDOVA                    HERNANDEZ                  MANUEL GUADALUPE           00945900000010017012017000  080000010000603                     9
Y605571210006776040799SANCHEZ                    GARCIA                     MOISES                     00945900000010017012017000  080000015188503                     9
Y605571210092089008541ESTRADA                    RIVERA                     PAUL                       00945900000010017012017000  080000015188603                     9
Y605571210047998154927RODRIGUEZ                  SOLIS                       SANTIAGO                  00945900000010017012017000  080000019098603                     9
Y605571210043119415396FARRERA                    HERNANDEZ                  FLAVIO CESAR               00945900000010017012017000  080000019098703                     9
Y605571210043725536551GONZALEZ                   RODRIGUEZ                  JULIAN                     00945900000010017012017000  080000019098803                     9
Y605571210043786171769ESPINOSA                   FRAGA                      JAVIER                     00945900000010017012017000  080000019098903                     9
Y605571210078119316657ARANJO                     DIAZ                       LEOPOLDO                   00945900000010017012017000  080000023041903                     9
Y605571210002178607277SANTIAGO                   ANTONIO                    OTILIA                     00945900000010017012017000  080000023042003                     9
Y605571210083098910033VILCHIS                    RAMOS                      CHRISTOPHER GIOVANY        00945900000010017012017000  080000027054303                     9
Y605571210026149485752ARIZMENDI                  PEDRAZA                    DIEGO ALBERTO              00945900000010017012017000  080000027059403                     9
Y605571210049897356306ORTIZ                      VELAZQUEZ                  IRINEO                     00945900000010017012017000  080000028023203                     9
Y605571210049867009125DE LEON                    DE LEON                    FRANCISCO JAVIER           00945900000010017012017000  080000028038503                     9
