Y605571210039947656367VERA                       MARTINEZ                   JESUS                      00945900000010022112016000  080000009040802                     9
Y605571210042907011037ROSAS                      HERNANDEZ                  CARLOS                     00945900000010022112016000  080000009624703                     9
Y605571210096066401132SANGINES                   MARTINEZ                   MARINO                     00945900000010022112016000  080000009659603                     9
Y605571210045138915728MARTINEZ                   GARCIA                     VICTOR                     00945900000010022112016000  080000009660203                     9
Y605571210003168347247SANCHEZ                    GARCIA                     TANIA                      00945900000010022112016000  080000009660303                     9
Y605571210020987820618DIAZ                       VARGAS                     JORGE ALBERTO              00945900000010022112016000  080000009660403                     9
Y605571210007048609346ZARATE                     CERON                      ARMANDO                    00945900000010022112016000  080000009660503                     9
Y605571210031946847030GRACIANO                   GONZALEZ                   JOSE GASTON GERARDO        00945900000010022112016000  080000010000403                     9
Y605571210020978017018ZAMORA                     OCHOA                      JAZMIN                     00945900000010022112016000  080000015183803                     9
Y605571210003967830872CARDENAS                   LOPEZ                      JAVIER                     00945900000010022112016000  080000019085503                     9
Y605571210043088805619ROMERO                     BRETADO                    LINO ALEJANDRO             00945900000010022112016000  080000019093203                     9
Y605571210043139810030EGUIA                      TORRES                     ROBERTO EMMANUEL           00945900000010022112016000  080000019093303                     9
Y605571210010149521170VARGAS                     TORRES                     MARIO ISMAEL               00945900000010022112016000  080000019093403                     9
Y605571210082088819527ROSADO                     VAZQUEZ                    SAIDY MARIEL               00945900000010022112016000  080000023038503                     9
Y605571210067917076373DOMINGUEZ                  CONTRERAS                  ZACARIAS                   00945900000010022112016000  080000023038603                     9
Y605571210015988209456ALOR                       MARTINEZ                   CRISTIAN                   00945900000010022112016000  080000023038903                     9
Y605571210023068861626CEVALLOS                   CERVERA                    GERARDO DE JESUS           00945900000010022112016000  080000025010903                     9
Y605571210023977859497AMADOR                     QUEVEDO                    MARCOS ANTONIO             00945900000010022112016000  080000025011003                     9
Y605571210083078928203BOLAINA                    ESTRADA                    MARCOS ADOLFO              00945900000010022112016000  080000027059203                     9
Y605571210067137301916REYES                      MENDEZ                     JOSE MARGARITO             00945900000010019112016000  080000030093603                     9
Y605571210065965805032TEPO                       HERNANDEZ                  JUAN VENANCIO              00945900000010022112016000  080000030128503                     9
Y605571210065109155757LOPEZ                      REYES                      ALEJANDRO                  00945900000010022112016000  080000030129103                     9
