R143868210304139437885PRECIADO                   CORTES                     SELENE NOEMI               00945900000010004012017000  080000014108903                     9
R143868210354775612473ENRIQUEZ                   TORRES                     SALVADOR                   00945900000010004012017000  080000014128103                     9
R143868210304735111009HERNANDEZ                  LUNA                       SALVADOR                   00945900000010004012017000  080000014128203                     9
