D172000910211099500495RODRIGUEZ                  GARCIA                     GERARDO DANIEL             00945900000010021082017000  080000017053003                     9
D172000910215109302248GARCIA                     JUAREZ                     RODRIGO                    00945900000010021082017000  080000017053103                     9
D172000910215967703016PEREZ                      GUTIERREZ                  JULIO CESAR                00945900000010021082017000  080000017053203                     9
D172000910262936901651TAPIA                      FLORES                     MARCOS RAFAEL              00945900000010021082017000  080000017053303                     9
