A836767410933078913093DE LA TORRE                QUINTERO                   GERARDO                    00945900000010011102016000  080000008052803                     9
A836767410935119211882PEREYRA                    RUIZ                       BRANDON MARCELO            00945900000010011102016000  080000008061403                     9
A836767410904168818062HERRERA                    AGUILAR                    RAQUEL                     00945900000010011102016000  080000008061503                     9
A836767410935119322101NAÒEZ                      BURROLA                    LUIS FERNANDO              00945900000010011102016000  080000008061603                     9
A836767410933998505060RIOS                       CABRAL                     ABEL                       00945900000010011102016000  080000008061703                     9
