Y605571210067078714481GARCIA                     SOLANO                     JOSE NAHUM                 00945900000010002062016000  080000005010503                     9
Y605571210096008009159LOPEZ                      SANCHEZ                    VICENTE MARTIN             00945900000010002062016000  080000009617903                     9
Y605571210004997624376SERRANO                    CRUZ                       SERGIO GUSTAVO             00945900000010002062016000  080000009618003                     9
Y605571210090108800575GARCIA                     VERA                       JOSE JUAN                  00945900000010002062016000  080000009618103                     9
Y605571210090907003504GUARRO                     GONZALEZ                   GEORGINA                   00945900000010002062016000  080000009618203                     9
Y605571210061118708710GARCIA                     GABRIEL                    CESAR                      00945900000010002062016000  080000009618303                     9
Y605571210094048101169TORRES                     GONZALEZ                   ERIK                       00945900000010002062016000  080000019001602                     9
Y605571210043937587731HIDALGO                    GARCIA                     EDUARDO                    00945900000010002062016000  080000019001702                     9
Y605571210067129004353MENDOZA                    GUERRERO                   RAYMUNDO                   00945900000010002062016000  080000019079903                     9
Y605571210064159705181GALVEZ                     MORALES                    YESENIA                    00945900000010002062016000  080000023027903                     9
Y605571210094927208374RAMOS                      PEREZ                      FELIX ALFREDO              00945900000010002062016000  080000023028003                     9
Y605571210040169773617GABRIEL                    PEREZ                      DAMARIS YANETH             00945900000010002062016000  080000023028103                     9
Y605571210067128903332CALVO                      LOZANO                     LEONARDO DANIEL            00945900000010002062016000  080000023028203                     9
Y605571210065008332432ROMERO                     CRUZ                       AGUSTIN                    00945900000010002062016000  080000030116703                     9
