Y605571210001138800444HIDARIO                    GONZALEZ                   HUGO                       00945900000010015072016000  080000009038402                     9
Y605571210096028432936CRUZ                       RIVERA                     TOMAS                      00945900000010015072016000  080000009529803                     9
Y605571210043139724710RAMOS                      LOPEZ                      RUBEN                      00945900000010015072016000  080000019083203                     9
Y605571210065139612504LOPEZ                      VALEN                      JOSE LUIS                  00945900000010009072016000  080000022047703                     9
Y605571210034088407696GOMEZ                      HERNANDEZ                  JUAN CARLOS                00945900000010013072016000  080000022047803                     9
Y605571210023907022471HERNANDEZ                  DIAZ                       JOSE CANDELARIO            00945900000010015072016000  080000025003103                     9
