Y605571210062826510406LARA                       ELIAS                      SERGIO RUBEN               00945900000010002092016000  080000001008803                     9
Y605571210017826013108GARCIA                     SANCHEZ                    CARLOS                     01194600000010002092016000  080000002050703                     9
Y605571210071038020815BONIFAZ                    VAZQUEZ                    JUAN PABLO                 00945900000010002092016000  080000007015803                     9
Y605571210045078824658SOLORIO                    ROQUE                      FRANCISCO JAVIER           00945900000010002092016000  080000009465803                     9
Y605571210094137100551HERNANDEZ                  LOPEZ                      JUAN CARLOS                00945900000010002092016000  080000009642203                     9
Y605571210025169627913MUÑOZ                      AZUARA                     EDUARDO GAMALIEL           00945900000010002092016000  080000009642303                     9
Y605571210019149480402PEREZ                      MARTINEZ                   ROBERTO DANIEL             00945900000010002092016000  080000009642403                     9
Y605571210012109153879BOLAÑOS                    RIVERA                     TOMAS                      00945900000010002092016000  080000011086803                     9
Y605571210012038568452MUÑOZ                      ARREDONDO                  FIDENCIO                   00945900000010002092016000  080000011088903                     9
Y605571210046159625378CALLEJAS                   GARCIA                     MARCO ANTONIO              00945900000010002092016000  080000022050503                     9
Y605571210028906603148MARTINEZ                   GONZALEZ                   MARIA GUADALUPE            00945900000010002092016000  080000022050603                     9
Y605571210015048403172HERNANDEZ                  ELIAS                      MARIA GUADALUPE            00945900000010002092016000  080000022050703                     9
Y605571210023956400800BENITEZ                    RODRIGUEZ                  MARIA DEL ROSARIO          00945900000010002092016000  080000025008403                     9
Y605571210023018171977VERDUGO                    TORRES                     HUGO ENRIQUE               00945900000010002092016000  080000025008503                     9
Y605571210083129230005GARCIA                     GOMEZ                      JUAN JOSE                  00945900000010002092016000  080000027058103                     9
Y605571210083128908213VILLEGAS                   GARCIA                     BALBINA                    00945900000010002092016000  080000027058203                     9
