R143868210349149684018SORIA                      SANTILLAN                  JOSE MARCOS                00945900000010022062016000  080000014103003                     9
R143868210304106602503SALMERON                   ARREGUIN                   RAMON                      00945900000010022062016000  080000014104303                     9
R143868210304038485159GUZMAN                     LOPEZ                      JUAN JOSE                  00945900000010022062016000  080000014116303                     9
R143868210394976400641COLIN                      OLVERA                     JOSE LUIS                  00945900000010022062016000  080000014116403                     9
