Y605571210042139417101QUINTERO                   RODRIGUEZ                  ANGEL                      00945900000010028082017000  080000009728103                     9
Y605571210007169850307EGUILUZ                    ONTIVEROS                  EDUARDO ARTURO             00945900000010028082017000  080000009728203                     9
Y605571210094926911671CORONA                     MARTINEZ                   FELIPE                     00948300000010025082017000  080000015036903                     9
Y605571210053987924478GARCIA                     CHAVEZ                     CARLOS                     00945900000010028082017000  080000016011003                     9
Y605571210035179943523CAMARILLO                  PARRA                      MARCO ANTONIO              00945900000010028082017000  080000019124903                     9
Y605571210027169852566AGUIRRE                    CLETO                      DANIEL MAOHOMAR            00945900000010028082017000  080000019125003                     9
Y605571210035159368535MAGAÒA                     BAUTISTA                   VICTOR MANUEL              00945900000010028082017000  080000027062903                     9
Y605571210067978063070CRUZ                       GARCIA                     JOSE DOMINGO               00945900000010028082017000  080000030001202                     9
