A836767410933109338112DOMINGUEZ                  GONZALEZ                   JOSE LUIS                  00945900000010006042017000  080000008072603                     9
A836767410964897279119MARTINEZ                   HERRERA                    MANUEL GERARDO             00945900000010006042017000  080000008072703                     9
A836767410933108918740LUNA                       RODRIGUEZ                  ELIZABETH                  00945900000010006042017000  080000008072803                     9
