Y605571210007967614863ORTIZ                      LOPEZ                      LUIS ENRIQUE               00945900000010025042017000  080000009043202                     9
Y605571210045139546449TAPIA                      BECERRA                    DANIEL                     00945900000010025042017000  080000009699103                     9
Y605571210094897144690RAMIREZ                    BRAVO                      JOSE EDUARDO               00945900000010025042017000  080000009699203                     9
Y605571210037927010902ABREO                      MOLINA                     RAFAEL                     00945900000010025042017000  080000009699303                     9
Y605571210004137520658MARTINEZ                   TRUJILLO                   ISMAEL                     00945900000010025042017000  080000009699403                     9
Y605571210045129449356MARTINEZ                   BALTAZAR                   ERICK DANIEL               00945900000010025042017000  080000009699503                     9
Y605571210042078701788ABURTO                     DEL VALLE                  ROBERTO EMILIO             00945900000010025042017000  080000009699603                     9
Y605571210090129503349CHORA                      SUASTEGUI                  HUMBERTO                   00945900000010025042017000  080000009699703                     9
Y605571210016099312445HUERTA                     CESAR                      JOSE ANTONIO               00945900000010025042017000  080000015204703                     9
Y605571210092947339971SANCHEZ                    MARTINEZ                   ENRIQUE                    00945900000010025042017000  080000015204803                     9
Y605571210071058800336PEÒA                       SANCHEZ                    JOSE JUAN                  00945900000010025042017000  080000015204903                     9
Y605571210016119144596ESPINOSA                   MEDINA                     CRISTIAN                   00945900000010025042017000  080000015205003                     9
Y605571210054169644082XOLO                       COBAXIN                    IRENE                      00945900000010025042017000  080000015205103                     9
Y605571210064159869607TEOBAL                     OLMOS                      AHEVITH                    00945900000010025042017000  080000019109003                     9
Y605571210047028530120BENAVIDES                  SERNA                      LIZMARIA                   00945900000010025042017000  080000019109103                     9
Y605571210010169394045REYES                      BARRIENTOS                 YIMY JEOVANNY              00945900000010025042017000  080000019109203                     9
Y605571210043119262905YAÒEZ                      MARTINEZ                   CLAUDIA YANET              00945900000010025042017000  080000019109303                     9
Y605571210043087301750YAÒEZ                      GUILLERMO                  NARCIZO                    00945900000010025042017000  080000019109403                     9
Y605571210031836007356QUINTANILLA                IBARRA                     JUAN ANTONIO               00945900000010025042017000  080000019109503                     9
Y605571210071139411426GONZALEZ                   GUTIERREZ                  CARLOS GEOVANNY            00945900000010025042017000  080000023045503                     9
Y605571210023037107127VILLEGAS                   ANDRADE                    RAUL MARIO                 00945900000010025042017000  080000025015603                     9
Y605571210003179352772HERNANDEZ                  AGUILAR                    JOEL                       00945900000010025042017000  080000028041203                     9
Y605571210009018421983OBREGON                    MARTINEZ                   HECTOR JESUS               00945900000010025042017000  080000028041303                     9
