Y605571210002158452165ESPINOSA                   LOPEZ                      MARIA OSIRIS               00945900000010010032017000  080000007017103                     9
Y605571210071118919514SANCHEZ                    HERNANDEZ                  VLADIMIR                   00945900000010010032017000  080000007017203                     9
Y605571210067946975736LOPEZ                      AGUILAR                    FIDEL                      00945900000010010032017000  080000007017303                     9
Y605571210011118901526TORRES                     VILLARREAL                 JOSE SAMAEL                00945900000010010032017000  080000009688903                     9
Y605571210045119650609CORONA                     MEJIA                      VIANEY                     00945900000010010032017000  080000009689003                     9
Y605571210001058811926GOMEZ                      VALENCIA                   GLORIA IVETTE              00945900000010010032017000  080000015197903                     9
Y605571210025139405093CAUDILLO                   CASIO                      MARIO                      00945900000010010032017000  080000019104803                     9
Y605571210083907203331LARA                       GIL                        JUAN JOSE                  00945900000010010032017000  080000019104903                     9
Y605571210047169860807VALENZUELA                 MORENO                     JUAN CARLOS                00945900000010010032017000  080000023043603                     9
Y605571210049896006191RAMIREZ                    NAVA                       BENITO                     00945900000010010032017000  080000028039803                     9
Y605571210067018222884CRUZ                       DURAN                      GERARDO                    00945900000010010032017000  080000030140403                     9
Y605571210067078734331MEDINA                     GONZALEZ                   MARIA DE LOS ANGELES       00945900000010010032017000  080000030140503                     9
Y605571210038159688779ISIDORO                    VILLEGAS                   GEOVANNY                   00945900000010010032017000  080000030140603                     9
