Y605571210094099141825CERVANTES                  SANDOVAL                   JOSE ANTONIO               00945900000010008052017000  080000009702603                     9
Y605571210045109434667VILLEDA                    MU—OZ                      ALAN GIOVANNI              00945900000010008052017000  080000009702703                     9
Y605571210096068412673GUERRERO                   VELAZQUEZ                  SERGIO VICENTE             00945900000010008052017000  080000009702803                     9
Y605571210020988023253VILLAFUERTE                LULE                       EDGAR MAURICIO             00945900000010008052017000  080000009702903                     9
Y605571210011018501285BEDOLLA                    AQUINO                     JUAN ESTEBAN               00945900000010008052017000  080000009703003                     9
Y605571210045088930636MORALES                    GIRON                      LUCIA GUADALUPE            00945900000010008052017000  080000009703103                     9
Y605571210096139435257VILLANUEVA                 MENDEZ                     FEDERICO                   00945900000010008052017000  080000009703203                     9
Y605571210019169852290CAMACHO                    BORJA                      GERARDO                    00945900000010008052017000  080000015190203                     9
Y605571210035159758636ANTONIO                    FLORES                     ALEJANDRO                  00945900000010008052017000  080000015208103                     9
Y605571210003169548363GARCIA                     SOLIS                      JAZMIN                     00945900000010008052017000  080000015208503                     9
Y605571210092098714683OLGUIN                     ARMIJO                     JORGE DAMIAN               00945900000010008052017000  080000015208703                     9
Y605571210053967700757VARGAS                     CHAVEZ                     MARIO OMAR                 00945900000010008052017000  080000016010603                     9
Y605571210053017507574VIEYRA                     MARTINEZ                   CESAR                      00945900000010008052017000  080000016010703                     9
Y605571210053138411607LEON                       HERNANDEZ                  ALFREDO                    00945900000010008052017000  080000016010803                     9
Y605571210002155701374ADORNO                     BAUTISTA                   BARTOLO                    00945900000010008052017000  080000019111103                     9
Y605571210031129718313DIAZ                       HERNANDEZ                  PEDRO ADOLFO               00945900000010008052017000  080000019111203                     9
Y605571210037058900418JACOME                     COLORADO                   MIGUEL                     00945900000010008052017000  080000019111303                     9
Y605571210005179546998LUNA                       VAZQUEZ                    PEDRO                      00945900000010008052017000  080000019111403                     9
Y605571210003877002539TORRES                     LOPEZ                      GREGORIO                   00945900000010008052017000  080000019111503                     9
Y605571210014139332408MUÒOZ                      MANCILLA                   MIGUEL ANGEL               00945900000010008052017000  080000022061103                     9
Y605571210005179519425MANCILLA                   AVILA                      IVAN                       00945900000010008052017000  080000022061203                     9
Y605571210020978111704PEREZ                      VILLALOBOS                 EDUARDO                    00945900000010008052017000  080000022061403                     9
Y605571210067967915058PEREZ                      LOZANO                     SANDRA                     00945900000010008052017000  080000023045803                     9
Y605571210073159799094CHIMAL                     VAZQUEZ                    YENI KARINA                00945900000010008052017000  080000023045903                     9
Y605571210067997912968RAMIREZ                    AGUILAR                    ARTURO TEODORO             00945900000010008052017000  080000030147403                     9
Y605571210065856902963CALLEJAS                   CEBALLOS                   JOSE LUIS                  00945900000010008052017000  080000030147503                     9
