E647975610923927503435HERNANDEZ                  DIAZ                       JOSE FRANCISCO             00945900000010004082016000  080000025005403                     9
E647975610923856603529ARENAS                     AVILA                      FREDY                      00945900000010004082016000  080000025005503                     9
E647975610925957709147CASTRO                     LOPEZ                      CARMEN                     00945900000010004082016000  080000025005603                     9
E647975610923089028858RIOS                       QUINTERO                   LUIS FERNANDO              00945900000010004082016000  080000025005703                     9
