Y605571210042978100313HERNANDEZ                  GARCIA                     OLGA LIDIA                 00945900000010023052016000  080000009490203                     9
Y605571210094068822298CORDOVA                    OLGUIN                     ABRAHAM YEIZHUAN           00945900000010023052016000  080000009616903                     9
Y605571210045139522960SICILIANO                  MARTINEZ                   BENY REY                   00945900000010023052016000  080000009617003                     9
Y605571210012068806855JIMENEZ                    PATIÑO                     PEDRO                      00945900000010023052016000  080000011068403                     9
Y605571210025149610245PANTOJA                    BENITEZ                    JOSE MIGUEL                00945900000010023052016000  080000011083203                     9
Y605571210054927825734BARAJAS                    HERNANDEZ                  VERONICA                   00945900000010023052016000  080000014089103                     9
Y605571210004967509649AMEZCUA                    ROSALES                    JULIO RENATO               00945900000010023052016000  080000014113703                     9
Y605571210004927327553LEDEZMA                    PADILLA                    JORGE ALBERTO              00945900000010023052016000  080000014113803                     9
Y605571210004006208757SANDOVAL                   ESCOBAR                    JORGE ALBERTO              00945900000010023052016000  080000014113903                     9
Y605571210004028164418ZAMORA                     CHAVEZ                     PABLO                      00945900000010023052016000  080000014114103                     9
Y605571210019149815789URIBE                      LUNA                       BRAYAN URIEL               00945900000010023052016000  080000015173403                     9
Y605571210096058324110JARQUIN                    MANUEL                     ANGEL CHRISTIAN            00945900000010023052016000  080000022044103                     9
Y605571210065978168865PALAYOT                    GOXCON                     FRANCISCO JAVIER           00945900000010023052016000  080000022044203                     9
