R143868210304058890023LARA                       VALDERRAMA                 MARITZA ELIZABETH          00945900000010009122016000  080000014003102                     9
R143868210304857006334ESPINOZA                   CHAVEZ                     MARCO ANTONIO              00945900000010009122016000  080000014003202                     9
R143868210375089121257MARTINEZ                   CENTENO                    NICOLAS                    00945900000010009122016000  080000014126603                     9
