Y605571210096017912997REYES                      HERNANDEZ                  FABIAN                     00945900000010031012017000  080000009042002                     9
Y605571210010149402140COLIN                      SANCHEZ                    CARLOS EMILIO              00945900000010031012017000  080000009679803                     9
Y605571210045098817294CABRERA                    VERA                       CARMEN SARA                00945900000010031012017000  080000009679903                     9
Y605571210017149667168SOTO                       ARENAS                     ADRIAN                     00945900000010031012017000  080000009680003                     9
Y605571210009169865004MARTINEZ                   HUERTA                     JOSE LUIS                  00945900000010031012017000  080000009680103                     9
Y605571210035169603996FERNANDEZ                  HERNANDEZ                  JORGE EDUARDO              00945900000010031012017000  080000009680203                     9
Y605571210054169873640DOMINGUEZ                  NERIA                      KARLA GUADALUPE            00945900000010031012017000  080000009680303                     9
Y605571210053998138100ZAMORA                     GUTIERREZ                  YOLANDA                    00945900000010031012017000  080000016010403                     9
Y605571210003967892740PEÑA                       SEPULVEDA                  RICARDO ADRIAN             00945900000010031012017000  080000019061303                     9
Y605571210023988278166RUBIO                      JAIME                      LUIS ANGEL                 00945900000010031012017000  080000025012503                     9
Y605571210053038538723QUEVEDO                    ZEPEDA                     RAMIRO                     00945900000010031012017000  080000028038803                     9
