Y605571210054169711998PEREZ                      ARIAS                      LUIS MIGUEL                00945900000010024082016000  080000004008103                     9
Y605571210016109284683TREJO                      REYNAGA                    NANCY KAREN                00945900000010024082016000  080000009039602                     9
Y605571210011068711370AMADOR                     MEDINA                     JUAN MANUEL                00945900000010024082016000  080000009640803                     9
Y605571210045139821990CAMACHO                    ESPINOSA                   EDJHAIR                    00945900000010024082016000  080000009640903                     9
Y605571210011876904050GOMEZ                      FLORES                     FRANCISCO                  00945900000010024082016000  080000009641003                     9
Y605571210096119260485DIAZ                       GUTIERREZ                  SANDRA GUADALUPE           00945900000010024082016000  080000009641103                     9
Y605571210016947733784ROSAS                      MARTINEZ                   DAVID                      00945900000010024082016000  080000015180603                     9
Y605571210043089091086LOPEZ                      LOPEZ                      JOSE ALFREDO               00945900000010024082016000  080000019085803                     9
Y605571210003856745009ELIAS                      RODRIGUEZ                  FRANCISCO JAVIER           00945900000010024082016000  080000019085903                     9
Y605571210043857009062VALADEZ                    VILLALON                   NORMA ELIZABET             00945900000010024082016000  080000019086003                     9
Y605571210011007504050PEREZ                      MARTINEZ                   CLEMENTE RAFAEL            00945900000010024082016000  080000022049703                     9
Y605571210083078805591MORALES                    LEON                       MIGUEL ANGEL               00945900000010024082016000  080000023027303                     9
Y605571210008148570453DOMINGUEZ                  HIDALGO                    JANET                      00945900000010024082016000  080000023031303                     9
Y605571210041088718089LOPEZ                      JUAREZ                     EMANUEL                    00945900000010024082016000  080000024004603                     9
Y605571210023058625775GARCIA                     RAMIREZ                    JUAN CARLOS                00945900000010024082016000  080000025008003                     9
Y605571210023068783242AISPURO                    NEGRETE                    JESUS RAMON                00945900000010024082016000  080000025008103                     9
Y605571210023998070066YEE                        BOBADILLA                  FERNANDO                   00945900000010024082016000  080000025008203                     9
Y605571210049885809977NARVAEZ                    CANTERO                    RUFINO                     00945900000010024082016000  080000028034103                     9
Y605571210018169740026ESQUEDA                    DELGADO                    ANGEL                      00945900000010024082016000  080000028034303                     9
Y605571210030927626645MARTINEZ                   DE LA CRUZ                 NICOLAS                    00945900000010024082016000  080000028034403                     9
Y605571210081077502425HERNANDEZ                  VERA                       AURELIO                    00945900000010024082016000  080000030123503                     9
Y605571210065129201631ESPINOZA                   VELAZQUEZ                  LUIS ALBERTO               00945900000010024082016000  080000030123603                     9
