A836767410971139446539REYES                      GONZALEZ                   FORTINO SERGIO             00945900000010017072017000  080000002059903                     9
A836767410937169828086MORALES                    MORALES                    DANIEL ERNESTO             00945900000010017072017000  080000002060003                     9
A836767410972735700428HERNANDEZ                  MIRANDA                    PEDRO                      00945900000010017072017000  080000002060103                     9
A836767410919149485278CARRILLO                   MANCINAS                   ANGEL ULISES               00945900000010017072017000  080000008053303                     9
A836767410933877276775FONSECA                    LOPEZ                      MIGUEL ANGEL               00945900000010017072017000  080000008077503                     9
A836767410933036702398BOCANEGRA                  GANDARA                    ANA BERTHA                 00945900000010017072017000  080000008077603                     9
A836767410927149764352DE LA CRUZ                 ALVAREZ                    JUAN EDUARDO               00945900000010017072017000  080000008077703                     9
