Y605571210094058006415PEÒALOZA                   SALCEDO                    ADAN                       00945900000010017022017000  080000015193103                     9
Y605571210016089104190AGUIRRE                    MARTINEZ                   JUAN DE JESUS              00945900000010017022017000  080000015193203                     9
Y605571210028138906590LEON                       BARBON                     FELIPE SANTIAGO            00945900000010017022017000  080000015193303                     9
Y605571210003927532816ORTIZ                      TORRES                     MARIA GUADALUPE            00945900000010017022017000  080000019002802                     9
Y605571210014089305271ROMERO                     CHAVEZ                     JOSE DANIEL                00945900000010017022017000  080000022054603                     9
Y605571210005129677794VENTURA                    CABRERA                    FERNANDO                   00945900000010017022017000  080000022057503                     9
Y605571210008169206698MARTINEZ                   CASTAÒEDA                  LUIS ALFREDO               00945900000010017022017000  080000022057603                     9
Y605571210047119322015RUIZ                       PEREZ                      GABINO                     00945900000010017022017000  080000022057703                     9
Y605571210043119048171RUIZ                       PEREZ                      LUCIO                      00945900000010017022017000  080000022057803                     9
Y605571210089846626979PEREZ                      GOMEZ                      DAVID                      00945900000010017022017000  080000022057903                     9
Y605571210022907404911ROMAN                      CAMPOS                     JESUS JAVIER               00945900000010017022017000  080000025013103                     9
Y605571210023138820081QUEVEDO                    CONTRERAS                  ALFREDO ALONSO             00945900000010017022017000  080000025013203                     9
Y605571210083006904367NARVAEZ                    RAMOS                      CARLOS ALBERTO             00945900000010017022017000  080000027059703                     9
Y605571210083109020269MAGA—A                     GARCIA                     FRANCISCO JAVIER           00945900000010017022017000  080000027059803                     9
