Y605571210096119300232ISLAS                      GODINEZ                    OLDAYR GUILLERMO           00945900000010019052016000  080000009511003                     9
Y605571210004129462844IÑIGUEZ                    GARCIA                     JUDAS MANUEL               00945900000010019052016000  080000014113103                     9
Y605571210017169709411COBIAN                     ROSALES                    RAMON ALONSO               00945900000010019052016000  080000014113203                     9
Y605571210092028405980ALBA                       SIFUENTES                  ANTONIO ARTURO             00945900000010019052016000  080000015172703                     9
Y605571210090119419654HERNANDEZ                  RODRIGUEZ                  ANSELMO                    00945900000010019052016000  080000015172803                     9
Y605571210071139213475ROQUE                      ROQUE                      ZAIN JEOVANY               00945900000010019052016000  080000015172903                     9
Y605571210016048552612CABALLERO                  SAUCEDO                    MARIA NANCY                00945900000010019052016000  080000015173003                     9
Y605571210053057606542SALAZAR                    ROSALES                    ISRAEL                     00945900000010019052016000  080000015173103                     9
Y605571210031978205420SANCHEZ                    GUERRERO                   MAURICIO                   00945900000010019052016000  080000019079103                     9
Y605571210047139541925GLORIA                     SAAVEDRA                   ABELARDO                   00945900000010019052016000  080000019079403                     9
Y605571210023806346971LOPEZ                      BALLARDO                   ENRIQUE                    00945900000010019052016000  080000025002603                     9
