Y605571210075826406261CRUZ                       RESENDIZ                   JAVIER                     00945900000010004052017000  080000009701203                     9
Y605571210042988106474MAYER                      ROJAS                      MARIO                      00945900000010004052017000  080000009701303                     9
Y605571210045139444850LUNA                       HERNANDEZ                  RICARDO                    00945900000010004052017000  080000009701403                     9
Y605571210094129200062BALANZAR                   ZARAZUA                    EDGAR MICHEL               00945900000010004052017000  080000009701503                     9
Y605571210008179512283BALANZAR                   ZARAZUA                    CECILIA ELOINA             00945900000010004052017000  080000009701603                     9
Y605571210096118723160QUINTERO                   AVELAR                     MARIA DEL CARMEN           00945900000010004052017000  080000009701703                     9
Y605571210008169860601RESENDIZ                   HERNANDEZ                  BRAYAN NOEL                00945900000010004052017000  080000009701803                     9
Y605571210003158275127CUEVAS                     FLORES                     VERONICA                   00945900000010004052017000  080000015207103                     9
Y605571210030007612572RIOS                       ESPINOSA                   IMELDA                     00945900000010004052017000  080000015207203                     9
Y605571210067089017213TOLEDO                     SOTO                       FREDDY                     00945900000010004052017000  080000019106903                     9
Y605571210049775919233CERVANTES                  LARA                       ROBERTO APOLONIO           00945900000010004052017000  080000019110503                     9
Y605571210043957874084SERNA                      PANTOJA                    JOSE                       00945900000010004052017000  080000019110603                     9
Y605571210043917551723ROMERO                     LIMON                      MIGUEL ANGEL               00945900000010004052017000  080000019110703                     9
Y605571210002179172487DE LEON                    GALVEZ                     GONZALO GABRIEL            00945900000010004052017000  080000023045703                     9
Y605571210066169546950CORDOVA                    DE LA CRUZ                 LUIS FERNANDO              00945900000010004052017000  080000027061503                     9
Y605571210003178922609MORALES                    MOLINA                     DANIELA SARAI              00945900000010004052017000  080000030147303                     9
