Y605571210021109110037TORRES                     RAYMUNDO                   ISAI                       00945900000010027032017000  080000007018503                     9
Y605571210071038118635IBARIAS                    GONZALEZ                   DIDIER                     00945900000010027032017000  080000009691403                     9
Y605571210019169246727DIAZ                       NICOLAS                    KAREN TATIANA              00945900000010027032017000  080000009691903                     9
Y605571210045896827669VENEGAS                    NAVA                       ARNULFO                    00945900000010027032017000  080000009692003                     9
Y605571210045068703771CERVANTES                  GONZALEZ                   GILBERTO                   00945900000010027032017000  080000009692103                     9
Y605571210002179361171GONZALEZ                   MONJARDIN                  JOSE LUIS                  00945900000010027032017000  080000015189603                     9
Y605571210022087202044REYES                      LOPEZ                      REYNA                      00945900000010027032017000  080000015200003                     9
Y605571210072169754735ROMERO                     GUZMAN                     ANA CAROLINA               00945900000010027032017000  080000015200103                     9
Y605571210006856531923VILLENA                    DIAZ                       ENRIQUE                    00945900000010027032017000  080000019088603                     9
Y605571210017179802594MARIN                      SALAZAR                    PEDRO ERNESTO              00945900000010027032017000  080000022059903                     9
Y605571210083087503682NIETO                      NIETO                      MARIA DE JESUS             00945900000010027032017000  080000023044103                     9
Y605571210082976801256CARRERA                    VALDOVINOS                 JOSE                       00945900000010027032017000  080000023044203                     9
Y605571210067867055575GARCIA                     MARTINEZ                   MARIANO                    00945900000010027032017000  080000027061203                     9
Y605571210083947310195ACOSTA                     HEREDIA                    ANTONIA                    00945900000010027032017000  080000027061303                     9
Y605571210065129244219HERNANDEZ                  LEAL                       CARLOS ALBERTO             00945900000010027032017000  080000030144103                     9
Y605571210002179558008BERNAL                     DURAN                      JESUS BRAHYAN              00945900000010027032017000  080000030144203                     9
