Y605571210028119223049HERNANDEZ                   MORALES                   CARLOS EDUARDO             00945900000010012042017000  080000009042802                     9
Y605571210096937423588PEREZ                      MORENO                     GONZALO JAVIER             00945900000010012042017000  080000009694903                     9
Y605571210063159708757VALDEZ                     MU—OZ                      RICARDO                    00945900000010012042017000  080000009695003                     9
Y605571210020967906866MATIAS                     NICOLAS                    OTILIO                     00945900000010012042017000  080000009695103                     9
Y605571210020129405260CASTILLO                   GUTIERREZ                  EDGAR JESUS                00945900000010012042017000  080000009695203                     9
Y605571210002176929079SANCHEZ                    MONTIEL                    PATRICIA                   00945900000010012042017000  080000009695303                     9
Y605571210016997922048MEZA                       ARZATE                     LETICIA                    00945900000010012042017000  080000015096103                     9
Y605571210094087701788ORTIZ                      QUIROZ                     RITA AURORA                00945900000010012042017000  080000015201703                     9
Y605571210090129607447SAGUILAN                   CRUZ                       JUAN ALAN                  00945900000010012042017000  080000015201903                     9
Y605571210016129405755SANCHEZ                    ACUÒA                      LIZBETH                    00945900000010012042017000  080000015202003                     9
Y605571210043977884311SIFUENTES                  GARCIA                     MARIA EUGENIA              00945900000010012042017000  080000019107803                     9
Y605571210053089132236ORDU—A                     GONZALEZ                   MARIA DEL ROCIO            00945900000010012042017000  080000022002002                     9
Y605571210014057102486SUSTAITA                   GONZALEZ                   MARIA DEL CARMEN           00945900000010012042017000  080000022060603                     9
Y605571210067108918441CONTRERAS                  ONOFRE                     JUAN VALENTIN              00945900000010012042017000  080000030146303                     9
Y605571210003159212368JUAREZ                     MORENO                     MARCOS                     00945900000010012042017000  080000030146403                     9
