Y605571210007018214135FIERRO                     GONZALEZ                   ARIEL CHRISTIAN            00945900000010020042017000  080000009676803                     9
Y605571210007906901587AQUINO                     ESPEJEL                    JOAQUIN ANTONIO            00945900000010020042017000  080000009695603                     9
Y605571210011997908253CORNEJO                    RODRIGUEZ                  MARCOS                     00945900000010020042017000  080000009696003                     9
Y605571210046119209156HERNANDEZ                  NOCHEBUENA                 LUIS DAVID                 00945900000010020042017000  080000009696903                     9
Y605571210039998301442SALDIVAR                   MARTINEZ                   VICTOR                     00945900000010020042017000  080000009697003                     9
Y605571210045089113273LARIOS                     OLVERA                     NORMA ELIZA                00945900000010020042017000  080000009697103                     9
Y605571210045129410697CASTRO                     SUAZO                      SAMUEL                     00945900000010020042017000  080000009697203                     9
Y605571210090109500489RAMIREZ                    CRUZ                       RAFAEL                     00945900000010020042017000  080000009697303                     9
Y605571210096129116669VARGAS                     DIAZ                       FRANCISCO                  00945900000010020042017000  080000009697403                     9
Y605571210096078931548ROJAS                      HERNANDEZ                  ELIO                       00945900000010020042017000  080000009697503                     9
Y605571210037987511492AGUIRRE                    ANAYA                      JOSE EMILIO                00945900000010020042017000  080000009697603                     9
Y605571210084907252443YAH                        KOYOC                      MOISES                     00945900000010020042017000  080000009697703                     9
Y605571210039927277762RODRIGUEZ                  ACOSTA                     LUCIO                      00945900000010020042017000  080000015203103                     9
Y605571210030977313987CERECEDO                   MAGDALENA                  HERMILO                    00945900000010020042017000  080000015203303                     9
Y605571210016907380915VIDAL                      MENDOZA                    EVA                        00945900000010020042017000  080000015203403                     9
Y605571210010179853311MIRANDA                    CRUZ                       VANESSA CITLALI            00945900000010020042017000  080000015203503                     9
Y605571210011048521337MONROY                     JUSTO                      MARIO                      00945900000010020042017000  080000015203603                     9
Y605571210044149358044REYNA                      MENDEZ                     MIGUEL ANGEL               00945900000010020042017000  080000019108303                     9
Y605571210043119127926PULIDO                     GONZALEZ                   MARTHA CECILIA             00945900000010020042017000  080000019108403                     9
Y605571210003967965801SILVA                      GUTIERREZ                  HUGO ALEJANDRO             00945900000010020042017000  080000019108503                     9
Y605571210045129412438DURAN                      OCHOA                      JONATHAN FERNANDO          00945900000010020042017000  080000022060703                     9
Y605571210049927420882NUÒEZ                      DELGADO                    GUILLERMO ALEJANDRO        00945900000010020042017000  080000028030503                     9
Y605571210009108707283VEGA                       HERNANDEZ                  EFREN                      00945900000010020042017000  080000028041103                     9
