R143868210304896936368CARRILLO                   PACAS                      JOSE HUMBERTO              00945900000010030112016000  080000014125903                     9
R143868210304905706455RAMIREZ                                               MARIA ELENA                00945900000010030112016000  080000014126003                     9
R143868210304119453993GUIJARRO                   MENDOZA                    ROBERTO MANUEL             00945900000010030112016000  080000014126103                     9
