Y605571210071107600257DE LA CRUZ                 GARCIA                     MINERVA DEL CARMEN         00945900000010001022017000  080000007014803                     9
Y605571210042907011037ROSAS                      HERNANDEZ                  CARLOS                     00945900000010001022017000  080000009624703                     9
Y605571210045068846497BARRERA                    VAZQUEZ                    JIMENA                     00945900000010001022017000  080000009680403                     9
Y605571210002179988585RAMOS                      TREJO                      AGUSTIN                    00945900000010001022017000  080000009680503                     9
Y605571210004856735347BECERRA                    JUAREZ                     JUAN ANTONIO               00945900000010002022017000  080000009680603                     9
Y605571210014896610467JIMENEZ                    GONZALEZ                   MARTIN                     00945900000010001022017000  080000022056603                     9
Y605571210023027009093VALENCIA                   ROJO                       ANTONIO CANDELARIO         00945900000010001022017000  080000025012603                     9
Y605571210009967919458REYES                      GALLEGOS                   RENE ALFONSO               00945900000010001022017000  080000028010903                     9
