Y607431310437108904824MONTESINOS                 SANDOVAL                   VICTOR MIGUEL              01481100000010008022021000  080000009008103                     9
Y607431310416109008116TADEO                      CHAVEZ                     ANGEL ANDRES               01481100000010008022021000  080000009008203                     9
Y607431310419765858956CRUZ                       ROMERO                     PEDRO                      01481100000010008022021000  080000009008303                     9
