Y605571210045008226958AGUILAR                    RAMOS                      JUAN MANUEL                00945900000010013062017000  080000009712603                     9
Y605571210042129217628GARCIA                     MARTINEZ                   ROBERTO GAEL               00945900000010013062017000  080000009712703                     9
Y605571210042977813866HERNANDEZ                  GARCIA                     FREDY                      00945900000010013062017000  080000009712803                     9
Y605571210067119006806RIBON                      TRONCOSO                   LUIS FELIPE                00945900000010013062017000  080000019115503                     9
Y605571210017169547167HERNANDEZ                  SUMUANO                    WENDY VERONICA             00945900000010013062017000  080000023047403                     9
Y605571210046169611335SUMUANO                    JIMENEZ                    JOSE GABRIEL               00945900000010013062017000  080000023047503                     9
Y605571210025179823999GONZALEZ                   HERNANDEZ                  PEDRO SAULO                00945900000010013062017000  080000025017003                     9
Y605571210010179635817GIL                        ORTIZ                      JESUS ALBERTO              00945900000010013062017000  080000025017103                     9
Y605571210023917427892SANCHEZ                    MARQUEZ                    JUAN DAMIAN                00945900000010013062017000  080000025017203                     9
Y605571210023089101358MENDEZ                     GODOY                      FRANCISCO ADOLFO           00945900000010013062017000  080000025017303                     9
Y605571210081077502425HERNANDEZ                  VERA                       AURELIO                    00945900000010013062017000  080000030123503                     9
