R143868210375038700219TORRES                     GONZALEZ                   RODOLFO                    00945900000010026122016000  080000014003302                     9
R143868210349169687255PONCE                      OLMEDO                     JOSE LUIS                  00945900000010026122016000  080000014003402                     9
R143868210375078876994NAVARRETE                  RODRIGUEZ                  JOSE ARTURO                00945900000010026122016000  080000014003502                     9
R143868210343028606739CARREON                    COLUNGA                    HUGO ABIEZER               00945900000010020122016000  080000014124303                     9
R143868210304997952520ALBA                       MARTINEZ                   TERESITA DE JESUS          00945900000010026122016000  080000014127503                     9
R143868210378128817844RODRIGUEZ                  GARCIA                     JOAQUIN                    00945900000010026122016000  080000014127603                     9
