A836767410933007500300GARCIA                     MONZON                     JOAQUIN                    00945900000010024102016000  080000008062603                     9
A836767410950957907400HOLGUIN                    MONTES                     VICTOR MIGUEL              00945900000010024102016000  080000008062703                     9
A836767410933028487396OLMOS                      MALDONADO                  EDGAR ORLANDO              00945900000010024102016000  080000008062803                     9
A836767410933139555263SANCHEZ                    MUÑOZ                      JUAN CARLOS                00945900000010024102016000  080000008062903                     9
