Y605571210039058615756ZAPO                       SOTELO                     JOSE GUSTAVO               00945900000010025042016000  080000009032502                     9
Y605571210045988044801GONZALEZ                   PEREZ                      MAYRA                      00945900000010021042016000  080000009607503                     9
Y605571210090038310232ESTRADA                    ZEPEDA                     IGNACIO                    00945900000010025042016000  080000009612503                     9
Y605571210067998105745REYES                      SANTIAGO                   GABRIEL                    00945900000010025042016000  080000009612603                     9
Y605571210090018517491COLIN                      PIMENTEL                   JOSE RICARDO               00945900000010025042016000  080000009612703                     9
Y605571210010169369468MORALES                    OLAYO                      LUIS ENRIQUE               00945900000010025042016000  080000009612803                     9
Y605571210045917359965CARRILLO                   TELLEZ                     JESUS                      00945900000010025042016000  080000009612903                     9
Y605571210096038408843VALDEZ                     SANCHEZ                    CHRISTIAN EMMANUEL         00945900000010025042016000  080000009613003                     9
Y605571210090109001777OLVERA                     VILLANUEVA                 PENIEL                     00945900000010025042016000  080000009613103                     9
Y605571210094118828923HERNANDEZ                  CRUZ                       NIDIA LIZETH               00945900000010025042016000  080000009613203                     9
Y605571210030079015969RAMIREZ                    GARCIA                     JOSE ALBERTO               00945900000010025042016000  080000009613303                     9
Y605571210012129047945MORENO                     HERNANDEZ                  JOSE AURELIO               00945900000010025042016000  080000011082603                     9
Y605571210004048354569ARIAS                      VILLACAÑA                  JOSE MANUEL                00945900000010025042016000  080000014111703                     9
Y605571210019148843535CHAVEZ                     AVILA                      JUAN MANUEL                00945900000010025042016000  080000030114303                     9
Y605571210082078828017FERNANDEZ                  SANTIAGO                   JUAN CARLOS                00945900000010025042016000  080000030114503                     9
Y605571210067907258882JIMENEZ                    DE LA CRUZ                 DOMINGO                    00945900000010025042016000  080000030114603                     9
