Y605571210051947954205ORTIZ                      TORRES                     FERNANDO                   00945900000010002062017000  080000001009603                     9
Y605571210042078911262CIL                        VELEZ                      ERIKA                      00945900000010002062017000  080000009709503                     9
Y605571210015917340307GONZALEZ                   PEREZ                      JESSICA GLORIA             00945900000010002062017000  080000015212003                     9
Y605571210025149306927OCAÑA                      GURROLA                    ERICK                      00945900000010002062017000  080000015212103                     9
Y605571210043099107989MENDOZA                    SALAZAR                    DAVID ENRIQUE              00945900000010002062017000  080000019100903                     9
Y605571210007068509020HERNANDEZ                  IBARRA                     JUAN                       00945900000010002062017000  080000022002302                     9
Y605571210013068719569GONZALEZ                   ALVAREZ                    LUIS FERNANDO              00945900000010002062017000  080000022062803                     9
Y605571210082907260119LOPEZ                      LOPEZ                      ANDRES                     00945900000010002062017000  080000023047003                     9
Y605571210002179466335MAY                        REYES                      MIGUEL ANGEL               00945900000010002062017000  080000027061903                     9
Y605571210058169738521RODRIGUEZ                  CORONEL                    CHARLIS                    00945900000010002062017000  080000027062003                     9
Y605571210083937625974HERNANDEZ                  CHAVEZ                     LIMBER                     00945900000010002062017000  080000027062103                     9
Y605571210083048508556RODRIGUEZ                  CORONEL                    MIGUEL ANGEL               00945900000010002062017000  080000027062203                     9
