A836767410935947740110HAROS                      DE LA TORRE                ROGELIO                    00945900000010010082016000  080000008055203                     9
A836767410933068964676DE LA TORRE                QUINTERO                   VICTOR                     00945900000010010082016000  080000008055303                     9
A836767410933079173101FLORES                     VAZQUEZ                    JORGE ADRIAN               00945900000010010082016000  080000008055403                     9
