Y605571210003149558094DOMINGUEZ                  GARCIA                     JUAN CARLOS                00945900000010016112016000  080000009467803                     9
Y605571210096078738547VEGA                       JIMENEZ                    PEDRO                      00945900000010016112016000  080000009658903                     9
Y605571210031785703468VARGAS                     SIMENTEL                   SERGIO                     00945900000010016112016000  080000010000103                     9
Y605571210031825705648GALINDO                    DIEZ                       LUIS ANTONIO               00945900000010016112016000  080000010000203                     9
Y605571210031129427709FERNANDEZ                  CHAVEZ                     JUAN                       00945900000010016112016000  080000010000303                     9
Y605571210090977840819RODRIGUEZ                  ARGAEZ                     EINERD OMAR                00945900000010016112016000  080000015002202                     9
Y605571210001856631765CERVANTES                  NAVA                       TOMAS                      00945900000010016112016000  080000015185903                     9
Y605571210053917045725SANCHEZ                    CEJA                       RUBEN DARIO                00945900000010016112016000  080000016009503                     9
Y605571210053986204195SANCHEZ                    GONZALEZ                   J JESUS                    00945900000010016112016000  080000016009603                     9
Y605571210013786011265HERRERA                    LEAÑOS                     FELIPE                     00945900000010016112016000  080000019076003                     9
Y605571210043028619294GARCIA                     SALAZAR                    HECTOR MARIO               00945900000010016112016000  080000019092803                     9
Y605571210071926660029CRUZ                       PEREZ                      TILO                       00945900000010016112016000  080000022036203                     9
Y605571210023998182598FELIX                      PARDO                      MARIO GUADALUPE            00945900000010016112016000  080000025002003                     9
Y605571210023856906377CORTES                     TORRES                     LUIS                       00945900000010016112016000  080000025006303                     9
