Y462621510948098908600VAZQUEZ                    MARTINEZ                   LUIS JAVIER                00945900000010004102016000  080000021155303                     9
Y462621510982129230924GARCIA                     ROSAS                      GUSTAVO                    00945900000010004102016000  080000021155403                     9
Y462621510962967503624FLORES                     GONZALEZ                   SERGIO                     00945900000010004102016000  080000021155503                     9
Y462621510975078702950RAMOS                      GALINDO                    MARIO                      00945900000010004102016000  080000021155603                     9
