Y605571210071139131883JIMENEZ                    MADRIGAL                   YESSENIA GUADALUPE         00945900000010001082017000  080000007002102                     9
Y605571210092068716924MARTINEZ                   ESTRADA                    ALBERTO MARIO JORGE        00945900000010001082017000  080000009044002                     9
Y605571210045088919779VILLAR                     ALEJALDRE                  FRANCISCO JAVIER           00945900000010001082017000  080000009519203                     9
Y605571210092977719738GOMEZ                      FLORES                     BLANCA EDITH               00945900000010001082017000  080000009577103                     9
Y605571210090886931394CARREON                    MONTES                     LUIS FERNANDO              00945900000010001082017000  080000009722303                     9
Y605571210094088516888MENDOZA                    SANTANA                    DIONICIO                   00945900000010001082017000  080000009722403                     9
Y605571210020028503249SANCHEZ                    RIAÒO                      CESAR                      00945900000010001082017000  080000009722503                     9
Y605571210028008112600TORRES                     PEREZ                      JOSE LUIS                  00945900000010001082017000  080000009722603                     9
Y605571210045089101815VAZQUEZ                    BECERRIL                   LUIS ENRIQUE               00945900000010001082017000  080000009722703                     9
Y605571210037058505167TELLEZ                     PINELO                     JENARO NOE                 00945900000010001082017000  080000009722803                     9
Y605571210039008121020JIMENEZ                    MEDINA                     JAVIER                     00945900000010001082017000  080000009722903                     9
Y605571210007139776210FUENTES                    TADEO                      CARLOS EDUARDO             00945900000010001082017000  080000015216403                     9
Y605571210043886962141ALANIS                     MORENO                     LINO GUADALUPE             00945900000010001082017000  080000019100003                     9
Y605571210041947305813ESTRADA                    FLORES                     EMILIO                     00945900000010001082017000  080000019114003                     9
Y605571210098169815242HERNANDEZ                  ESTEBAN                    IVONNE                     00945900000010001082017000  080000019121003                     9
Y605571210005178912563HERNANDEZ                  ESTEBAN                    JUANA                      00945900000010001082017000  080000019121103                     9
Y605571210015139700072HERNANDEZ                  HERNANDEZ                  DANIEL                     00945900000010001082017000  080000019121203                     9
Y605571210047947674850CARRIZAL                   MATA                       MARIA ELBA                 00945900000010001082017000  080000019121303                     9
Y605571210043937641157MARTINEZ                   TOVIAS                     JUAN CARLOS                00945900000010001082017000  080000019121403                     9
Y605571210025988132673ALCANTARA                  RAMOS                      YADIRA                     00945900000010001082017000  080000019121503                     9
Y605571210010149480708COSCATL                    CORIA                      APOLINAR                   00945900000010001082017000  080000019121603                     9
Y605571210035149544112RAMOS                      ROMAN                      JOSE ANTONIO               00945900000010001082017000  080000023050403                     9
Y605571210002168354922HERNANDEZ                  CRUZ                       MOISES                     00945900000010001082017000  080000023050503                     9
Y605571210067958003096GARCIA                     MORA                       OMAR                       00945900000010001082017000  080000030152703                     9
Y605571210017816436376FLORES                     RAMOS                      PABLO                      00945900000010001082017000  080000030152803                     9
