Y605571210020917422295CASAS                      ALVAREZ                    MARIA ANGELICA             00945900000010007102016000  080000009602203                     9
Y605571210001897048227PORTILLO                   SALAZAR                    ALEJANDRA                  00945900000010007102016000  080000009649403                     9
Y605571210096917262832LEYTE                      SALAS                      JOSE NICOLAS               00945900000010007102016000  080000009649503                     9
Y605571210030896840250RODRIGUEZ                  CAMPOS                     AUSENCIO                   00945900000010007102016000  080000009649603                     9
Y605571210078916707652RAMIREZ                    CHAVEZ                     MOISES ARMANDO             00945900000010007102016000  080000016009103                     9
Y605571210060149523817MORA                       JIMENEZ                    CARLOS VALENTIN            00945900000010007102016000  080000023035703                     9
Y605571210071058310302CRUZ                       GOMEZ                      ESTEBAN JONATHAN           00945900000010007102016000  080000023035803                     9
Y605571210093169889610PABLO                      PABLO                      ADELCINDO JULIAN           00945900000010007102016000  080000023035903                     9
Y605571210072917335423RUIZ                       CHEGUE                     SANTOS                     00945900000010007102016000  080000023036003                     9
Y605571210059149434124BALAM                      SULU                       JOSE DEMETRIO              00945900000010007102016000  080000023036103                     9
Y605571210071968012220ESTRADA                    RODAS                      GERARDO                    00945900000010007102016000  080000023036203                     9
Y605571210009037608628ZAPETA                     LOPEZ                      HECTOR                     00945900000010007102016000  080000028029203                     9
Y605571210067109122639MARCIAL                    SANCHEZ                    JOSE LUIS                  00945900000010007102016000  080000030126403                     9
Y605571210067117600055CELDO                      IRINEO                     TOMAS                      00945900000010007102016000  080000030126503                     9
