A836767410933937686708RAMOS                      BUSTAMANTE                 RAUL ARTURO                00945900000010018072016000  080000008037403                     9
A836767410907169728495BANDA                      ESCOBAR                    MARIELA                    00945900000010018072016000  080000008051203                     9
A836767410933139409222AGUILAR                    LECHUGA                    CRUZ ALFONSO               00945900000010018072016000  080000008051303                     9
A836767410905169485330REYES                      ORTIZ                      CRISTINA ITZEL             00945900000010018072016000  080000008051403                     9
