Y605571210094109025042REYES                      ALFARO                     JORGE ALBERTO              00945900000010019062017000  080000009713303                     9
Y605571210010826114265REYES                      AQUINO                     ROBERTO                    00945900000010019062017000  080000009713403                     9
Y605571210094038530112RODRIGUEZ                  HERNANDEZ                  JACINTO                    00945900000010019062017000  080000015213103                     9
Y605571210008168840372GARCIA                     ROMERO                     JUAN CARLOS                00945900000010019062017000  080000015213203                     9
Y605571210013857006640ROJO                       HERNANDEZ                  VERONICA                   00945900000010019062017000  080000022052703                     9
Y605571210065088432375SALAS                      MENDEZ                     SILVIO EDUARDO             00945900000010019062017000  080000030151303                     9
