Y605571210045987904849CONTRERAS                  RUIZ                       JESUS VICTOR               00945900000010020062016000  080000009620503                     9
Y605571210035169669625GARCIA                     CARRILLO                   ALFREDO                    00945900000010020062016000  080000011084403                     9
Y605571210016907014902VEGA                       MARIN                      SERGIO                     00945900000010020062016000  080000015111603                     9
Y605571210071099303506CORDERO                    AGUIRRE                    JOSE DANIEL                00945900000010020062016000  080000015142103                     9
Y605571210016107702124CRUZ                       LOPEZ                      JOSE ANTONIO               00945900000010020062016000  080000015146503                     9
Y605571210002156050870GOMEZ                      GARCIA                     JOSE LUIS                  00945900000010020062016000  080000015158303                     9
Y605571210016028537062CANALES                    GARCIA                     ERIKA                      00945900000010020062016000  080000015162203                     9
Y605571210016138400185LOPEZ                      VEGA                       AZUCENA                    00945900000010020062016000  080000015168003                     9
Y605571210016077605521JIMENEZ                    MARTINEZ                   CECILIA                    00945900000010020062016000  080000015170303                     9
Y605571210016088966276VALDES                     OCHOA                      ADRIANA                    00945900000010020062016000  080000015170403                     9
Y605571210016917011286GUZMAN                     AYALA                      LUZ MARIA                  00945900000010020062016000  080000015172003                     9
Y605571210016048552612CABALLERO                  SAUCEDO                    MARIA NANCY                00945900000010020062016000  080000015173003                     9
Y605571210053057606542SALAZAR                    ROSALES                    ISRAEL                     00945900000010020062016000  080000015173103                     9
Y605571210043886307651LAGOS                      MARTINEZ                   GERMAN MARTIN              00945900000010020062016000  080000019042003                     9
Y605571210049907166711PEREZ                      RODRIGUEZ                  HILARIO                    00945900000010020062016000  080000019073203                     9
Y605571210043916872203MARTINEZ                   ORTEGA                     HUMBERTO ANGEL             00945900000010020062016000  080000019080603                     9
Y605571210049876905529TORRES                     REQUENA                    RUBEN                      00945900000010020062016000  080000019080703                     9
Y605571210043775931470GONZALEZ                   RESENDIS                   JOSE ANASTACIO             00945900000010020062016000  080000019080803                     9
Y605571210032927478274CORTES                     PLASCENCIA                 ANDRES                     00945900000010020062016000  080000019080903                     9
Y605571210022018402523SEPULVEDA                  GRAJALES                   SAYED ELI ENOCH            00945900000010020062016000  080000023029503                     9
Y605571210083927435681TORRES                     ALCAZAR                    ANTONIO                    00945900000010020062016000  080000027056003                     9
Y605571210049855907942NAVIDAD                    VAZQUEZ                    MANUEL DE JESUS            00945900000010020062016000  080000028013403                     9
Y605571210065099139217VICENCIO                   DOMINGUEZ                  MARIO                      00945900000010020062016000  080000030117703                     9
