Y605571210011937023577TORRES                     GARIBAY                    PEDRO                      00945900000010030112016000  080000009649003                     9
Y605571210017169213414MONTES DE OCA              ALMEIDA                    GUADALUPE                  00945900000010030112016000  080000009664503                     9
Y605571210042119100859MORALES                    RAMIREZ                    MARIO ENRIQUE              00945900000010030112016000  080000009664603                     9
Y605571210096058419373ORTIZ                      ESPARZA                    JESUS DAVID                00945900000010030112016000  080000009664703                     9
Y605571210094018508682XOLIO                      PUCHETA                    JULISSA                    00945900000010030112016000  080000009664803                     9
Y605571210001806433148BOLAÑOS                    NORIEGA                    ROBERTO                    00945900000010030112016000  080000009664903                     9
Y605571210013169775577MARCIAL                    VELASCO                    CRESCENCIO NARCISO         00945900000010030112016000  080000011088603                     9
Y605571210012018039359REYES                      COLIN                      JOSE RICARDO               00945900000010030112016000  080000015186303                     9
Y605571210003149118261GONZALEZ                   CARDENAS                   ERIK ALEJANDRO             00945900000010030112016000  080000019094503                     9
Y605571210023917800304MURRIETA                   LOPEZ                      MANUEL ENRIQUE             00945900000010030112016000  080000025011203                     9
