Y605571210010159425858CRUZ                       VILLA                      UBALDO                     00945900000010012012017000  080000009608003                     9
Y605571210096057000869MOSQUEDA                   OCHOA                      LUIS                       00945900000010012012017000  080000009675503                     9
Y605571210045018004775MENDOZA                    CHIRINOS                   JOSE ANTONIO               00945900000010012012017000  080000009675603                     9
Y605571210069149613270JIMENEZ                    ORTEGA                     YENSEN ABRAHAM             00945900000010012012017000  080000009675703                     9
Y605571210030917439033AGUILAR                    BARRIENTOS                 ADRIAN                     00945900000010012012017000  080000009675803                     9
Y605571210096139612962MARTINEZ                   GASCA                      MIGUEL ANGEL               00945900000010012012017000  080000009675903                     9
Y605571210020947415624LOBATO                     MUÒOZ                      MARIA ISABEL               00945900000010012012017000  080000015187803                     9
Y605571210094076200750ORTEGA                     ORTEGA                     ASUNCION                   00945900000010012012017000  080000015187903                     9
Y605571210090109509043TOVAR                      MARTINEZ                   MONTSERRAT                 00945900000010012012017000  080000015188003                     9
Y605571210002179318205CADENA                     HERNANDEZ                  IVETT                      00945900000010012012017000  080000015188103                     9
Y605571210076159502426GAYTAN                     ALVARADO                   JOSE RAUL                  00945900000010012012017000  080000016009203                     9
Y605571210049746000287ESPARZA                    RODRIGUEZ                  RAFAEL                     00945900000010012012017000  080000028038303                     9
Y605571210017159701527TORRES                     CHALA                      MOISES                     00945900000010012012017000  080000030132803                     9
