Y605571210017159866288BAUTISTA                   JAIMES                     DANIEL                     00945900000010016062017000  080000009674803                     9
Y605571210028077400688MARTINEZ                   GARCIA                     FERNANDO MARCIAL           00945900000010020062017000  080000009713503                     9
Y605571210045048811413DOMINGUEZ                  VELASCO                    AARON                      00945900000010020062017000  080000009713603                     9
Y605571210096048546343MORALES                    GONZALEZ                   EDUARDO ZAID               00945900000010020062017000  080000009713703                     9
Y605571210016139945709CRUZ                       REYES                      ALEXIS EMANUEL             00945900000010020062017000  080000013017103                     9
Y605571210067068206878GONZALEZ                   PABLO                      RAUL                       00945900000010020062017000  080000023047703                     9
Y605571210018179979440GARCIA                     RAMIREZ                    EDGAR MARGARITO            00945900000010020062017000  080000024005103                     9
Y605571210023856513942RODRIGUEZ                  SANCHEZ                    VICTOR MANUEL              00945900000010020062017000  080000025017503                     9
Y605571210067109125145GALEOTE                    RAMOS                      ISMAEL                     00945900000010020062017000  080000030151403                     9
