Y607431310442038300606ESQUIVEL                   JIMENEZ                    JOSE RAMON                 01806800000010023052022000  080000009018303                     9
Y607431310445139425693GERVACIO                   CABRERA                    RUBEN ANTHONY              01806800000010023052022000  080000009018403                     9
Y607431310442977917683ISLAS                      GALVAN                     KARINA JANETTE             01806800000010023052022000  080000009018503                     9
Y607431310496099103531MARTINEZ                   HERNANDEZ                  ELIZABETH                  01806800000010023052022000  080000009018603                     9
