Y605571210090906932687MURILLO                    NAVARRO                    BERTHA MARGARITA           00945900000010026092016000  080000009647203                     9
Y605571210047947770997FLORES                     OLIVO                      NESTOR DAVID               00945900000010026092016000  080000019087503                     9
Y605571210043007401656PALOMO                     RIVERA                     ARACELI                    00945900000010026092016000  080000019087603                     9
Y605571210023988353639LOPEZ                      VEGA                       ESTEBAN                    00945900000010026092016000  080000025009503                     9
Y605571210023745707630MONTOYA                    CAZARES                    ROSARIO ALBERTO            00945900000010026092016000  080000025009603                     9
Y605571210084966901450LEON                       MORALES                    MARTIN                     00945900000010026092016000  080000028035603                     9
Y605571210072138707160SUAREZ                     MERLAN                     JOSE NOE                   00945900000010026092016000  080000028035703                     9
