D691959010124038308920TERAN                      TORAL                      NEHEMIAS                   00945900000010022032017000  080000020029503                     9
D691959010178957634880CORSI                      VAZQUEZ                    DANIEL                     00945900000010022032017000  080000020029603                     9
D691959010178947615759MARTINEZ                   SANCHEZ                    GILBERTO                   00945900000010022032017000  080000020029703                     9
