A482760210352089202254AGUIRRE                    GONZALEZ                   ANGELICA CONCEPCION        00945900000010029092016000  080000006004003                     9
A482760210352117701137SANTOS                     MENDOZA                    ANA MARIA                  00945900000010029092016000  080000006004103                     9
A482760210304906203155FIGUEROA                   OROZCO                     JOSE LUIS                  00945900000010029092016000  080000006004203                     9
