Y605571210071139131883JIMENEZ                    MADRIGAL                   YESENIA GUADALUPE          00945900000010031072017000  080000007002102                     9
Y605571210043069090710VAZQUEZ                    DE LA CRUZ                 RENE                       00945900000010031072017000  080000019041103                     9
Y605571210043089230072VAZQUEZ                    DE LA CRUZ                 SONIA                      00945900000010031072017000  080000019120803                     9
Y605571210046159683898ALVAREZ                    ORTIZ                      CESAR MACARIO              00945900000010031072017000  080000019120903                     9
