Y605571210021028550214LOYA                       MANZO                      GILBERTO                   01194600000010007092016000  080000002010503                     9
Y605571210092967817294ALCARAZ                    ACOSTA                     JUAN FERNANDO              00945900000010007092016000  080000009643003                     9
Y605571210012978164197RODRIGUEZ                  ROCHA                      JOSE ROBERTO               00945900000010007092016000  080000011072203                     9
Y605571210016088966276VALDES                     OCHOA                      ADRIANA                    00945900000010007092016000  080000015170403                     9
Y605571210035159438478ALDANA                     CONTRERAS                  DAVID CRUZ                 00945900000010007092016000  080000015181803                     9
Y605571210049907166711PEREZ                      RODRIGUEZ                  HILARIO                    00945900000010007092016000  080000019073203                     9
Y605571210043887127587DOMINGUEZ                  VILLARREAL                 MANUEL FRANCISCO           00945900000010007092016000  080000019086603                     9
Y605571210043806504338RIOS                       VALLEJO                    JESUS                      00945900000010007092016000  080000019086703                     9
Y605571210043109364844BELTRAN                    LOPEZ                      IGNACIO EDUARDO            00945900000010007092016000  080000019086803                     9
Y605571210024855901989RAMOS                      SANCHEZ                    ALMA ROSA                  00945900000010007092016000  080000025008603                     9
Y605571210023057235949PEREZ                      URIAS                      HUMBERTA ALICIA            00945900000010007092016000  080000025008703                     9
Y605571210009008326241MALDONADO                  GUZMAN                     CHRISTIAN IVAN             00945900000010007092016000  080000028034703                     9
