R143868210302175902242BELTRAN                    NUÑO                       ANTONIO                    00945900000010024082017000  080000014129103                     9
R143868210304886774290NAVARRO                    RUIZ                       JESUS                      00945900000010024082017000  080000014136903                     9
R143868210304987010768RAMOS                      FIERROS                    JUAN CARLOS                00945900000010024082017000  080000014137003                     9
