Y605571210051917514047GARCIA                     RAMIREZ                    JOSE                       00945900000010021072017000  080000001009903                     9
Y605571210060978087397GONZALEZ                   SERVIN                     ARTURO EDUARDO             00945900000010021072017000  080000005013403                     9
Y605571210032967877070SANCHEZ                    MENDOZA                    JULIO CESAR                00945900000010021072017000  080000005013503                     9
Y605571210008159405433HERNANDEZ                  CUETO                      PEDRO FERNANDO             00945900000010021072017000  080000007019403                     9
Y605571210096078862131SOTO                       GOMEZ                      EDUARDO                    00945900000010021072017000  080000009462303                     9
Y605571210042947809044LOPEZ                      GARCIA                     LUIS AARON                 00945900000010021072017000  080000009720703                     9
Y605571210065886540320ROSAS                      MELO                       NORMA LETICIA              00945900000010021072017000  080000009720803                     9
Y605571210025179964900MENES                      GONZALEZ                   ALEXIS                     00945900000010021072017000  080000009720903                     9
Y605571210003897318865ROCHA                      RUVALCABA                  ROSENDO                    00945900000010021072017000  080000019088803                     9
Y605571210075169636463MENDEZ                     ALCUDIA                    CLAUDIA                    00945900000010021072017000  080000023049203                     9
Y605571210018179834157RAMIREZ                    BERNARDO                   JORGE LUIS                 00945900000010021072017000  080000023049303                     9
Y605571210033169659936LEYVA                      LUQUE                      JAVIER ALFONSO             00945900000010021072017000  080000025018303                     9
Y605571210017159654759GALAN                      RODRIGUEZ                  FRANCHESCO DIONICIO        00945900000010021072017000  080000030152103                     9
