Y605571210008148417663RODRIGUEZ                  MACEDO                     ENRIQUE                    00945900000010015062016000  080000009566803                     9
Y605571210045139121395MERINO                     PEDRO                      RAMON ALBERTO              00945900000010015062016000  080000009619803                     9
Y605571210096088932718REYES                      PEREZ                      YOSELIN                    00945900000010015062016000  080000009619903                     9
Y605571210020897309470MARENCO                    ARCOS                      ISMAEL                     00945900000010015062016000  080000015175303                     9
Y605571210004109015885HERNANDEZ                  ESQUIVEL                   JOSE ANTONIO               00945900000010015062016000  080000015175403                     9
Y605571210026159784516SANCHEZ                    GARIBAY                    JONATHAN EFRAIN            00945900000010015062016000  080000015175503                     9
Y605571210019856306105MARTINEZ                   BAUTISTA                   SALOMON                    00945900000010015062016000  080000015175603                     9
Y605571210066149585607CALDERON                   HERNANDEZ                  BRYAN EDUARDO              00945900000010015062016000  080000015175703                     9
Y605571210001987800768DIAZ                       DOMINGUEZ                  OMAR DARIO                 00945900000010015062016000  080000015175803                     9
Y605571210082068715646KUMUL                      PECH                       BENITO                     00945900000010015062016000  080000023029003                     9
Y605571210082099221127CAB                        AGUILAR                    AARON ISAI                 00945900000010015062016000  080000023029103                     9
Y605571210082099203984BAEZA                      SERRALTA                   WILBERT CRISTIANI          00945900000010015062016000  080000023029203                     9
Y605571210082099108985AYALA                      RINCON                     AUSENCIO                   00945900000010015062016000  080000023029303                     9
Y605571210008159510737DIAZ                       OLEA                       ERICK LORENZO              00945900000010015062016000  080000030117603                     9
