Y605571210094017910814VELAZQUEZ                  COVA                       LORENA                     00945900000010014022017000  080000009683703                     9
Y605571210034169701223SALAZAR                    HERNANDEZ                  ADAIR SANTIAGO             00945900000010014022017000  080000009683803                     9
Y605571210067118904860DIAZ                       PEÒA                       DANIEL                     00945900000010014022017000  080000009683903                     9
Y605571210020027703444MORALES                    HERNANDEZ                  VICTOR                     00945900000010014022017000  080000009684003                     9
Y605571210016129358954SUAREZ                     VILLEGAS                   OMAR                       00945900000010014022017000  080000015192303                     9
Y605571210092927336799LIRA                       RIOS                       BENITO                     00945900000010014022017000  080000015192403                     9
Y605571210016139452219SANABRIA                   LOPEZ                      OSVALDO                    00945900000010014022017000  080000015192603                     9
Y605571210047907116645ROJAS                      NU—EZ                      VICTOR HUGO                00945900000010014022017000  080000019047903                     9
Y605571210047906836375RAMIREZ                    RAMIREZ                    EMMA LIDIA                 00945900000010014022017000  080000019102203                     9
Y605571210031099002490AVILA                      REYES                      JUAN PEDRO                 00945900000010014022017000  080000019102303                     9
Y605571210014089361134ESQUIVEL                   SANCHEZ                    LUIS RICARDO               00945900000010014022017000  080000022057303                     9
