Z064567510803149558094DOMINGUEZ                  GARCIA                     JUAN CARLOS                00945900000010001122016000  080000009467803                     9
Z064567510812776011525BARAJAS                    LOZA                       VALENTIN                   00945900000010001122016000  080000011052703                     9
Z064567510827149680814RODRIGUEZ                  MONZON                     CARLOS DANIEL              00945900000010001122016000  080000011070503                     9
Z064567510845917482049GUZMAN                     RAMIREZ                    MIRIAM ELIZABETH           00945900000010001122016000  080000011076203                     9
Z064567510812836545173ALVAREZ                    LEDEZMA                    GUILLERMO                  00945900000010001122016000  080000011076603                     9
Z064567510812038680075MUÒOZ                      RODRIGUEZ                  DIEGO                      00945900000010001122016000  080000011079903                     9
Z064567510812967930020CHIMAL                     HERNANDEZ                  GILDARDO                   00945900000010001122016000  080000011081003                     9
Z064567510801867106880GARCIA                     SALGADO                    JESUS EDUARDO              00945900000010001122016000  080000011083303                     9
Z064567510853988021985HERNANDEZ                  LUGO                       JORGE                      00945900000010001122016000  080000011084803                     9
Z064567510812109116314ROSILES                    JIMENEZ                    JOAQUIN MISAEL             00945900000010001122016000  080000011085803                     9
Z064567510812877301841GUZMAN                     SANCHEZ                    JUAN PABLO                 00945900000010001122016000  080000011086303                     9
Z064567510812826007614CASTILLO                   NEGRETE                    RICARDO                    00945900000010001122016000  080000011086903                     9
Z064567510812068800999TORRES                     MACIAS                     JUAN MANUEL                00945900000010001122016000  080000011087303                     9
Z064567510815109136026CARDENAS                   GOMEZ                      ANDRES                     00945900000010001122016000  080000011087403                     9
Z064567510822169853789CRUZ                       PAXTIAN                    MARIA ALEJANDRA            00945900000010001122016000  080000011087703                     9
Z064567510865028018995MALDONADO                  DURAN                      JOSE LUIS                  00945900000010001122016000  080000011087803                     9
Z064567510865947750595CATEMAXCA                  MONTIEL                    RAFAEL                     00945900000010001122016000  080000011088103                     9
Z064567510813169775577MARCIAL                    VELASCO                    CRESCENCIO NARCISO         00945900000010001122016000  080000011088603                     9
Z064567510804139846747GUTIERREZ                  CHIMAL                     MISSAEL                    00945900000010001122016000  080000011089903                     9
Z064567510807169636078TORRES                     BAXIN                      LUIS                       00945900000010001122016000  080000011090003                     9
Z064567510812118600951MORENO                     GALICIA                    ROSA MARIA                 00945900000010001122016000  080000011090103                     9
Z064567510837947533826ALVAREZ                    CHAVEZ                     MIGUEL ANGEL               00945900000010001122016000  080000011090203                     9
Z064567510809078891794DEANTES                    RODRIGUEZ                  HECTOR DANIEL              00945900000010001122016000  080000011090703                     9
Z064567510825149237031GUERRERO                   MACIAS                     LUIS GUILLERMO             00945900000010001122016000  080000011090903                     9
Z064567510802167090006CRISTOBAL                  CRUZ                       GERMAN                     00945900000010001122016000  080000011091003                     9
Z064567510812886769848ROMO                       RODRIGUEZ                  JULIO CESAR                00945900000010001122016000  080000011091103                     9
Z064567510805169009643GILES                      RAMIREZ                    JOSE ANTONIO               00945900000010001122016000  080000011091203                     9
Z064567510812957833861MENDOZA                    JUAREZ                     JOSE CARMEN                00945900000010001122016000  080000011091303                     9
Z064567510863129334163CRUZ                       TORRES                     DIEGO ARTURO               00945900000010001122016000  080000011091403                     9
Z064567510876149601239ARROLLO                    PERALTA                    DANIEL                     00945900000010001122016000  080000017042503                     9
Z064567510867018215623CASTRO                     PALAYOT                    LORENZO ANTONIO            00945900000010001122016000  080000030077303                     9
Z064567510865129240852MAZABA                     ALEMAN                     EDGAR                      00945900000010001122016000  080000030089903                     9
