A836767410902167564158RODRIGUEZ                  ROJAS                      JOSE LUIS                  00945900000010022082017000  080000002063103                     9
A836767410933988216165CORONADO                   RODRIGUEZ                  GERRY AUDEL                00945900000010022082017000  080000008053803                     9
A836767410933978049741CARBAJAL                   SAUCEDO                    ANGELA ARAONA              00945900000010022082017000  080000008059403                     9
