Z064567510812099336310MARTINEZ                   FLORES                     ISRAEL                     00945900000010011072017000  080000011091903                     9
Z064567510810149744632ANDRADE                    MENDOZA                    GERARDO FRANCISCO          00945900000010011072017000  080000011097503                     9
Z064567510812129262015ORTEGA                     FLORES                     FRANCISCO                  00945900000010011072017000  080000011099503                     9
