Y605571210050149516937FLORES                     TELLEZ                     CARLOS ANTONIO             00945900000010017072017000  080000009509803                     9
Y605571210010856408645PAZ                        CRUZ                       RAUL                       00945900000010017072017000  080000009584503                     9
Y605571210028916918619MARTINEZ                   RODRIGUEZ                  MARIO ALBERTO              00945900000010017072017000  080000009663903                     9
Y605571210002156575462CADENA                     CORONA                     BRAULIO                    00945900000010017072017000  080000009689103                     9
Y605571210045927213335ALVARADO                   MEDINA                     JUAN LUIS                  00945900000010017072017000  080000009719103                     9
Y605571210019836305755GONZALEZ                   MIRANDA                    ARCADIO                    00945900000010017072017000  080000009719203                     9
Y605571210025149379221ESTRADA                    DAMAZO                     FREDY                      00945900000010017072017000  080000009719303                     9
Y605571210008179244812ARIAS                      FRANCA                     ROCIO                      00945900000010017072017000  080000015215203                     9
Y605571210003886908817JIMENEZ                    GOMEZ                      JESUS ALEJANDRO            00945900000010017072017000  080000019113103                     9
Y605571210031916500197ORTEGA                     ANDRADE                    MARIA                      00945900000010017072017000  080000019118703                     9
Y605571210043058542994ESPARZA                    GUERRERO                   YADIRA JANETTE             00945900000010017072017000  080000019118803                     9
Y605571210062149466385ROMERO                     ALONSO                     EMILIO                     00945900000010017072017000  080000019118903                     9
Y605571210003907329696FLORES                     LARA                       ISAIAS                     00945900000010017072017000  080000019119003                     9
Y605571210043119606697SANTOS                     SANTOS                     JUAN PABLO                 00945900000010017072017000  080000019119103                     9
Y605571210021078885205MELLADO                    SAINZ                      SOFIA MICHELLE             00945900000010017072017000  080000025005203                     9
Y605571210026149485752ARIZMENDI                  PEDRAZA                    DIEGO ALBERTO              00945900000010017072017000  080000027059403                     9
Y605571210083139118471ALTAMIRANO                 FRANCO                     IVAN DE JESUS              00945900000010017072017000  080000027063203                     9
