A836767410933846418516CORRAL                     ARMENDARIZ                 OSCAR                      00945900000010007062016000  080000008032303                     9
A836767410933118601971SANCHEZ                    CRUZ                       VICTOR MANUEL              00945900000010007062016000  080000008046303                     9
A836767410942836105942CASTILLO                   SOTO                       ROBERTO                    00945900000010007062016000  080000008046403                     9
A836767410903168957813MADRIGAL                   MORALES                    MARIA JUANA                00945900000010007062016000  080000008046503                     9
A836767410902168156293PEREZ                      CHAVEZ                     MANUELA                    00945900000010007062016000  080000008046603                     9
A836767410923089165809ZAVALA                     INZUNZA                    ABIGAIN                    00945900000010007062016000  080000008046703                     9
A836767410933058753105MEDINA                     MARQUEZ                    LUIS ALONSO                00945900000010007062016000  080000008046803                     9
