R143868210375957615323BALBUENA                   GARCIA                     DAVID ALEJANDRO            00945900000010010062016000  080000014109303                     9
R143868210304129428241GONZALEZ                   GUTIERREZ                  BRENDA LETICIA             00945900000010016062016000  080000014116003                     9
R143868210304947707123CHAVEZ                     RIVERA                     ISAIAS                     00945900000010016062016000  080000014116103                     9
