Y605571210071077808849RAMIREZ                    ALFARO                     MARICELIA                  00945900000010003032017000  080000007014703                     9
Y605571210071098618920LOPEZ                      SANTIZ                     JOSE LUIS                  00945900000010003032017000  080000007016803                     9
Y605571210045139414788GARDUÑO                    PALOMINO                   JOVANNI                    00945900000010003032017000  080000009686803                     9
Y605571210042018309353VALLES                     VALENCIA                   ALAN ANTONIO               00945900000010003032017000  080000009686903                     9
Y605571210095119301109MARTINEZ                   ROSAS                      GERARDO                    00945900000010003032017000  080000015196303                     9
Y605571210016058822228MARTINEZ                   SOTO                       VANESSA                    00945900000010003032017000  080000015196403                     9
Y605571210005179606651ROSALES                    VAZQUEZ                    JULISSA YOHANA             00945900000010003032017000  080000019103903                     9
Y605571210043109445171LEDEZMA                    CRUZ                       CHRISTIAN ANGELY ISMAEL    00945900000010003032017000  080000019104003                     9
Y605571210094917412945BADILLO                    GUTIERREZ                  GUILLERMO                  00945900000010003032017000  080000022036603                     9
Y605571210014119301175DORANTES                   JIMENEZ                    MARTIN GERSON              00945900000010003032017000  080000022058703                     9
Y605571210053058812230GARCIA                     PASTOR                     EFREN                      00945900000010003032017000  080000022058803                     9
Y605571210073008104694BENITEZ                    LOPEZ                      ROSALIO                    00945900000010003032017000  080000025013603                     9
Y605571210049976912300ONTIVEROS                  RODRIGUEZ                  JUAN                       00945900000010003032017000  080000028039603                     9
Y605571210009927517640HERNANDEZ                  JUAREZ                     JUAN DAVID                 00945900000010003032017000  080000028039703                     9
