Y605571210045048643378URBINA                     DE JESUS                   JESUS                      00945900000010005092017000  080000009593803                     9
Y605571210017826525309LEDESMA                    PERALES                    LUIS VICENTE               00945900000010005092017000  080000009729203                     9
Y605571210031786105689DELGADO                    GUEVARA                    LEOCADIO                   00945900000010005092017000  080000025018803                     9
