Y605571210025149525104DELGADO                    CANELA                     ABRHAM                     01194600000010005082016000  080000002045203                     9
Y605571210026149284064GUZMAN                     DOMINGUEZ                  OLGA LIDIA                 00945900000010001082016000  080000007015603                     9
Y605571210071139517719GUZMAN                     DOMINGUEZ                  CLAUDIA ISABEL             00945900000010001082016000  080000007015703                     9
Y605571210038149418923ROJAS                      BORGES                     ITZEL GUADALUPE            00945900000010004082016000  080000009613403                     9
Y605571210096129012967ACOSTA                     PANTOJA                    ERIKA JACQUELINNE          00945900000010004082016000  080000009633003                     9
Y605571210053108936583RODRIGUEZ                  HERNANDEZ                  FELIPA                     00945900000010004082016000  080000009633103                     9
Y605571210096967845114MONTES                     RIVERA                     EMILIANO                   00945900000010004082016000  080000009633203                     9
Y605571210096917376079GOMEZ                      GARCIA                     RAFAEL                     00945900000010005082016000  080000009633303                     9
Y605571210040937708838HERNANDEZ                  ORNELAS                    MONICA                     00945900000010004082016000  080000009633403                     9
Y605571210030109204104QUEZADA                    BOTELLO                    GILBERTO                   00945900000010005082016000  080000009633503                     9
Y605571210045027910186CALDERON                   HERNANDEZ                  JOSE ANTONIO               00945900000010005082016000  080000009633603                     9
Y605571210042109500019CRUZ                       NAVA                       BRENDA PAOLA               00945900000010005082016000  080000009633703                     9
Y605571210025159556486SANTIAGO                   VAZQUEZ                    JANETH                     00945900000010004082016000  080000009633803                     9
Y605571210020058702711RAMOS                      GONZALEZ                   ALEJANDRO                  00945900000010005082016000  080000009633903                     9
Y605571210008169175794VAZQUEZ                    BECERRIL                   SILVERIO VICTOR            00945900000010005082016000  080000009634003                     9
Y605571210096078408117LAGUNA                     ALONSO                     VICENTE                    00945900000010005082016000  080000009634103                     9
Y605571210008148030128GARCIA                     CHAVEZ                     ROBERTO                    00945900000010005082016000  080000009634203                     9
Y605571210095079000969SANCHEZ                    MORALES                    ISRAEL                     00945900000010005082016000  080000009634303                     9
Y605571210044149520635TORRES                     MARMOLEJO                  JUAN CARLOS                00945900000010005082016000  080000009634403                     9
Y605571210019149439895MERINO                     MONTERO                    OMAR                       00945900000010005082016000  080000009634503                     9
Y605571210013008007844MENESES                    DEL ANGEL                  IRMA OLIVA                 00945900000010002082016000  080000013014103                     9
Y605571210013967724058LOPEZ                      FLORES                     HECTOR                     00945900000010002082016000  080000013014203                     9
Y605571210092897207533OLIVA                      LAGUNA                     MIGUEL ANGEL               00945900000010004082016000  080000015177403                     9
Y605571210044149589697FRAGOSO                    MENDOZA                    ANTONIO REYES              00945900000010004082016000  080000015180003                     9
Y605571210032927531072VALDEZ                     VELAZQUEZ                  JOSE ISMAEL                00945900000010003082016000  080000019085303                     9
Y605571210023139330866SALAZAR                    OLMEDA                     JOSE JUAN                  00945900000010005082016000  080000025005803                     9
Y605571210023845300351ACOSTA                     GARCIA                     FRANCISCO                  00945900000010005082016000  080000025005903                     9
Y605571210062169485265GARCIA                     SANDOVAL                   ANTONIO DE JESUS           00945900000010003082016000  080000027057703                     9
Y605571210005168968211FLORES                     OCAMPO                     ABELARDO                   00945900000010001082016000  080000030121203                     9
Y605571210078997908278HERNANDEZ                  MARCIAL                    AGUSTIN                    00945900000010001082016000  080000030121303                     9
Y605571210065027304909RIVERA                     VITE                       SANTIAGO                   00945900000010005082016000  080000030121403                     9
