Y605571210071107600257DE LA CRUZ                 GARCIA                     MINERVA DEL CARMEN         00945900000010009052016000  080000007014803                     9
Y605571210013139106556QUEZADA                    CORNELIO                   KAREN                      00945900000010009052016000  080000011000402                     9
Y605571210016917011286GUZMAN                     AYALA                      LUZ MARIA                  00945900000010009052016000  080000015172003                     9
Y605571210026149229960ESPINOSA                   CARABEO                    NOE                        00945900000010009052016000  080000023027003                     9
Y605571210082108909498AYALA                      RINCON                     ANSELMO                    00945900000010009052016000  080000023027103                     9
Y605571210013169119016RAMIREZ                    LOPEZ                      GUSTAVO                    00945900000010009052016000  080000023027203                     9
Y605571210083078805591MORALES                    LEON                       MIGUEL ANGEL               00945900000010009052016000  080000023027303                     9
Y605571210008148247896ACOSTA                     ESTRADA                    SERGIO ARTURO              00945900000010009052016000  080000030116003                     9
