Y605571210025139432394MARTINEZ                   JAUREGUI                   OMAN IDAIR                 00945900000010011052016000  080000002048803                     9
Y605571210021129552663ROBLES                     HERNANDEZ                  JESUS MANUEL               00945900000010011052016000  080000002048903                     9
Y605571210071057000219GOMEZ                      RAMIREZ                    ELIZABETH                  00945900000010011052016000  080000007007203                     9
Y605571210038149350803GOMEZ                      SANTIZ                     EMILIANO                   00945900000010011052016000  080000007014903                     9
Y605571210056149572762LOPEZ                      SANTIZ                     MARIO                      00945900000010011052016000  080000007015003                     9
Y605571210007028408917DORANTES                   DÕAZ                       DIEGO                      00945900000010011052016000  080000009037102                     9
Y605571210013139115805MONROY                     ALVARADO                   ALEJANDRO                  00945900000010011052016000  080000009503003                     9
Y605571210090998000799VARGAS                     SANTIAGO                   OSCAR                      00945900000010011052016000  080000009616003                     9
Y605571210006169200463GONZALEZ                   MARTIN                     NALLELY                    00945900000010011052016000  080000011000502                     9
Y605571210065028429192TOXTEGA                    RODRIGUEZ                  LEIWIS                     00945900000010011052016000  080000011082903                     9
Y605571210007168942162AMBROSIO                   TOTO                       DAVID ISRAEL               00945900000010011052016000  080000011083003                     9
Y605571210016998044842LAZCANO                    NUÒEZ                      JOSE HERIBERTO             00945900000010011052016000  080000011083103                     9
Y605571210054008404433NORZAGARAY                 MONTES                     CRUZ ALBERTO               00945900000010011052016000  080000014001302                     9
Y605571210075109155681RUVALCABA                  MORALES                    ZULEMA ELIZABETH           00945900000010011052016000  080000014001602                     9
Y605571210008148202149GARCIA                     ARANDA                     JOSE ALEJANDRO             00945900000010011052016000  080000014001702                     9
Y605571210004988049476SALVIO                     SANDOVAL                   JOSE RAUL                  00945900000010011052016000  080000014001802                     9
Y605571210004137400612GUERRERO                   BENITES                    LUIS ALONSO                00945900000010011052016000  080000014100503                     9
Y605571210004038658193ACEVES                     MERCADO                    LORENA                     00945900000010011052016000  080000014101003                     9
Y605571210034057101031ALFARO                     GUERRERO                   JACINTO                    00945900000010011052016000  080000014101203                     9
Y605571210075947743904VELAZQUEZ                  CAMPOS                     JUAN                       00945900000010011052016000  080000014106203                     9
Y605571210075078958826ZARAGOZA                   BERNACHE                   EDGAR                      00945900000010011052016000  080000014112403                     9
Y605571210004118631144ARMENTA                    AMBRIZ                     JOSE MANUEL                00945900000010011052016000  080000014112503                     9
Y605571210009917523970CRUZ                       HERNANDEZ                  ROSALINO                   00945900000010011052016000  080000019077603                     9
Y605571210043088632781ALVARADO                   GARCIA                     ALEJANDRO CESAR            00945900000010011052016000  080000019077703                     9
Y605571210043047604459MORALES                    SEGOVIA                    LUIS                       00945900000010011052016000  080000019077803                     9
Y605571210092895901947GONZALEZ                   CHAVEZ                     LUCAS ANTONIO              00945900000010011052016000  080000022043403                     9
Y605571210014088917811GODINEZ                    TRUEBA                     MIGUEL ANGEL               00945900000010011052016000  080000022043503                     9
Y605571210009089007067ANOTA                      XOLO                       ULISES                     00945900000010011052016000  080000022043603                     9
Y605571210014078909505HERNANDEZ                  SANCHEZ                    JESICA                     00945900000010011052016000  080000022043703                     9
Y605571210062169483666GARCIA                     GERONIMO                   LUIS ENRIQUE               00945900000010011052016000  080000027054903                     9
Y605571210025149427798GARCIA                     GARCIA                     SERGIO                     00945900000010011052016000  080000027055003                     9
Y605571210067836606219HERNANDEZ                  CAMPOS                     CARLOS ROBERTO             00945900000010011052016000  080000027055103                     9
