Y605571210027159305302TURBIN                     MORALES                    ISAMAR VIRIDIANA           00945900000010014072017000  080000009705603                     9
Y605571210096927100782SANCHEZ                    MARTINEZ                   ADOLFO                     00945900000010014072017000  080000009718903                     9
Y605571210022139837763VALDEZ                                                CHRISTOPHER                00945900000010014072017000  080000009719003                     9
Y605571210018149511620ORTEGA                     GONZALEZ                   YAHIR ALEJANDRO            00945900000010014072017000  080000015215003                     9
Y605571210064159631585FERNANDEZ                  VALENCIA                   GABRIEL ALEXIS             00945900000010014072017000  080000015215103                     9
