Y605571210008169172890GARCIA                     DIAZ                       GUILLERMO ESTEBAN          00945900000010026062017000  080000009714503                     9
Y605571210003159693377ANTONIO                    HERNANDEZ                  AMERICA MARLEN             00945900000010026062017000  080000009714603                     9
Y605571210002177259039SANCHEZ                    ANGELES                    ALEJANDRO                  00945900000010026062017000  080000009714703                     9
Y605571210053886302271MALDONADO                  OLMOS                      FRANCISCO                  00945900000010026062017000  080000016011703                     9
Y605571210003146989078MOTA                       GONZALEZ                   JOSE ANGEL                 00945900000010026062017000  080000016011803                     9
Y605571210043805902111GARCIA                     GONZALEZ                   ALBERTO                    00945900000010026062017000  080000019098503                     9
Y605571210043058844978IBARRA                     VILLARREAL                 ANA MARIA                  00945900000010026062017000  080000019116103                     9
Y605571210012887170723VILLELA                    LUNA                       SERGIO                     00945900000010026062017000  080000019116203                     9
Y605571210010179785018ZARAGOZA                   MALPICA                    ADAN                       00945900000010026062017000  080000023047903                     9
Y605571210024036801975AQUINO                     VELAZQUEZ                  EVERARDO                   00945900000010026062017000  080000023048003                     9
