Y605571210032967983704BAZALDUA                   GAMEZ                      JOSE DEL REFUGIO           00945900000010018012017000  080000005012303                     9
Y605571210071118708164AGUILAR                    HERNANDEZ                  EDUARDO JAVIER             00945900000010018012017000  080000007016503                     9
Y605571210007018214135FIERRO                     GONZALEZ                   ARIEL CHRISTIAN            00945900000010018012017000  080000009676803                     9
Y605571210045047702464BALVANERA                  GONZALEZ                   ALEJANDRO DANIEL           00945900000010018012017000  080000009676903                     9
Y605571210013968010614HERNANDEZ                  CARDOSO                    MARGARITO                  00945900000010018012017000  080000009677003                     9
Y605571210092896910806MARTINEZ                   OLGUIN                     RICARDO                    00945900000010018012017000  080000015188703                     9
Y605571210094089059656HERNANDEZ                  ROMERO                     EFRAIN JAIME               00945900000010018012017000  080000015188803                     9
Y605571210017159528300MONTENEGRO                 VALERO                     REYNA MARIBEL              00945900000010018012017000  080000019060803                     9
Y605571210002157705282HERNANDEZ                  RAMOS                      ADRIANA ARACELI            00945900000010018012017000  080000019091003                     9
Y605571210043007908627SAUCEDO                    SALAZAR                    HECTOR ANTONIO             00945900000010018012017000  080000019099003                     9
Y605571210033058833667GARCIA                     PEREYRA                    JESUS                      00945900000010018012017000  080000019099103                     9
Y605571210047068959734CORONEL                    ESPINOZA                   ANDRES ALEJANDRO           00945900000010018012017000  080000019099203                     9
Y605571210010159512432DELGADO                    BAUTISTA                   JULIO CESAR                00945900000010018012017000  080000022055403                     9
Y605571210023046711992PANTOJA                    SALAZAR                    GUSTAVO                    00945900000010018012017000  080000025012303                     9
Y605571210009927624164RAMIREZ                    TORRES                     JORGE LUIS                 00945900000010018012017000  080000028038403                     9
Y605571210067089118623JUAREZ                     BAROJAS                    LUIS DANIEL                00945900000010018012017000  080000030133403                     9
Y605571210092998158452ALARCON                    MUNGUIA                    MIGUEL ALFREDO             00945900000010018012017000  080000030133503                     9
