Y605571210032078997908ESQUIVEL                   IBARRA                     JOSE ANGEL                 00945900000010010082017000  080000005013603                     9
Y605571210067139310139VAZQUEZ                    ZACARIAS                   EDGAR                      00945900000010010082017000  080000008058703                     9
Y605571210003178426197CRUZ                       SANCHEZ                    MARICELA                   00945900000010010082017000  080000009724403                     9
Y605571210023089101358MENDEZ                     GODOY                      FRANCISCO ADOLFO           00945900000010010082017000  080000025017303                     9
Y605571210027159833931TAPIA                      ZAZUETA                    MIGUEL EDUARDO             00945900000010010082017000  080000025018403                     9
