Y605571210071078713568DE LA CRUZ                 VAZQUEZ                    JOSE ESTEBAN               00945900000010028042017000  080000007018903                     9
Y605571210020896510532URSUA                      PADILLA                    FRANCO                     00945900000010028042017000  080000009700103                     9
Y605571210038149207920GONZALEZ                   ITURBE                     ROLANDO JOAQUIN            00945900000010028042017000  080000015205503                     9
Y605571210003147703247MENDEZ                     DOMINGUEZ                  FERMIN                     00945900000010028042017000  080000015205603                     9
Y605571210026159602890MIRALRIO                   RODRIGUEZ                  ANGEL ALEJANDRO            00945900000010028042017000  080000015205703                     9
Y605571210010149334020SALAZAR                    GARCIA                     DANIEL                     00945900000010028042017000  080000015205803                     9
Y605571210016128715816CRUZ                       CRUZ                       MARIA FLOR                 00945900000010028042017000  080000015205903                     9
Y605571210008179504249ALMAZAN                    CARRANZA                   JOSE RUBEN                 00945900000010028042017000  080000015206003                     9
Y605571210017169055377GUADARRAMA                 DIAZ                       HERMINIA                   00945900000010028042017000  080000015206103                     9
Y605571210011967318467CRUZ                       MEZA                       JOSE LUIS                  00945900000010028042017000  080000022058303                     9
Y605571210005179209878HERNANDEZ                  PABLO                      DIONICIO                   00945900000010028042017000  080000027061403                     9
