Y605571210039058817204RIOS                       AGUIRRE                    CARLOS IGNACIO             00945900000010018082016000  080000009558103                     9
Y605571210050149503083BACILIO                    MARTINEZ                   GONZALO MAURICIO           00945900000010018082016000  080000009586003                     9
Y605571210007826508389PINZON                     VALLEJO                    RAYMUNDO SHINNE            00945900000010018082016000  080000009625303                     9
Y605571210030129417702AGUAYO                     TREJO                      SERGIO                     00945900000010018082016000  080000009638103                     9
Y605571210028078702223MACIAS                     TRUJANO                    LILIA CAROLINA             00945900000010018082016000  080000009638203                     9
Y605571210045977604573LAZCANO                    ORTEGA                     DANIEL ISRAEL              00945900000010018082016000  080000009638303                     9
Y605571210044159470309CASTILLO                   PASCUAL                    FLORENCIO                  00945900000010018082016000  080000013014603                     9
Y605571210023936302522LANDEROS                   CEBALLOS                   MANUELA                    00945900000010018082016000  080000025007303                     9
Y605571210023069073288MARTINEZ                   BASTIDAS                   JOSE ALFREDO               00945900000010018082016000  080000025007403                     9
Y605571210024877124578GONZALEZ                   MEDINA                     JOSE RENE                  00945900000010018082016000  080000025007503                     9
Y605571210065987108274YEPEZ                      PALACIOS                   RENE                       00945900000010018082016000  080000030122303                     9
Y605571210065129702729AVENDAÒO                   FLORES                     CARLOS ALBERTO             00945900000010018082016000  080000030122403                     9
Y605571210065078709642NORIEGA                    MORALES                    ALAN                       00945900000010018082016000  080000030122503                     9
Y605571210065139313384ROSAS                      OLIVERA                    ALEXIS                     00945900000010018082016000  080000030122603                     9
