Y607431310494119651555OLVERA                     ORIHUELA                   MARIA FERNANDA             01481100000010018012021000  080000009000902                     9
Y607431310445088966739LOPEZ                      HERNANDEZ                  RICARDO                    01481100000010018012021000  080000009007203                     9
Y607431310406836308582ALANIS                                                RAUL                       01481100000010018012021000  080000009007303                     9
Y607431310472966806332NAVA                       ALTAMIRANO                 EDUARDO                    01481100000010018012021000  080000009007403                     9
