Y605571210092897120934VAZQUEZ                    GUTIERREZ                  ALBERTO                    00945900000010026072017000  080000009043802                     9
Y605571210007007502763ROJAS                      ESQUIVEL                   ROBERTO CARLOS             00945900000010026072017000  080000009721603                     9
Y605571210023169791995ANTEMATE                   ROMERO                     MARICRUZ                   00945900000010026072017000  080000015216003                     9
Y605571210047119444272BONILLA                    HERNANDEZ                  JUAN PABLO                 00945900000010026072017000  080000019120503                     9
Y605571210047977958892CRUZ                       GONZALEZ                   MILTON SANTOS              00945900000010026072017000  080000019120603                     9
Y605571210023078835859LUQUE                      CHAVEZ                     KAREN DANIELA              00945900000010026072017000  080000025000302                     9
Y605571210023027009093VALENCIA                   ROJO                       ANTONIO CANDELARIO         00945900000010026072017000  080000025012603                     9
Y605571210001907001067HERRERA                    HINOJOSA                   CESAR ADRIAN               00945900000010026072017000  080000030070903                     9
