Y605571210019149127474DIAZ                       ALCANTAR                   ROBERTO DANIEL             00945900000010009062017000  080000009711803                     9
Y605571210042886909094ESTRADA                    PEREZ                      RUBEN                      00945900000010009062017000  080000009712103                     9
Y605571210025179812638ESTRADA                    HERNANDEZ                  CRISTHIAN CARLOS           00945900000010009062017000  080000009712203                     9
Y605571210016017706488NIETO                      FLORES                     NESTOR                     00945900000010009062017000  080000009712303                     9
Y605571210008179322154GAXIOLA                    JIMENEZ                    MARIBEL                    00945900000010009062017000  080000015002802                     9
Y605571210090886837914SUAREZ                     MARTINEZ                   ELODIA                     00945900000010009062017000  080000015212903                     9
Y605571210043887061406CONTRERAS                  RODRIGUEZ                  JUAN ALFONSO               00945900000010009062017000  080000019115203                     9
Y605571210043038425567JAUREGUI                   TORRES                     ADRIAN                     00945900000010009062017000  080000019115303                     9
Y605571210083098806538DOMINGUEZ                  GONZALEZ                   JESUS ARTURO               00945900000010009062017000  080000027062403                     9
Y605571210065846600313MUÒOZ                      ALVAREZ                    JUSTINO                    00945900000010009062017000  080000030151003                     9
