R143868210335169745987MARTINEZ                   RODRIGUEZ                  JOSE RAMON                 00945900000010011042017000  080000014132203                     9
R143868210378018223855MAYORGA                                               JOSE ANTONIO               00945900000010011042017000  080000014132503                     9
R143868210305169674149RICO                       MEZCUA                     MARIA FERNANDA             00945900000010011042017000  080000014132603                     9
R143868210308179611986MUÑOZ                      FLORES                     YASSER HABACUC             00945900000010011042017000  080000014132703                     9
