A836767410921028559710MENDOZA                    ENRIQUEZ                   VICTOR GUADALUPE           00945900000010030082017000  080000002063503                     9
A836767410942048304853TORRERO                    CARREON                    EMMANUEL ALEJANDRO         00945900000010030082017000  080000008040203                     9
A836767410967027904118FLORES                     RODRIGUEZ                  ARMANDO                    00945900000010030082017000  080000008081303                     9
