Y702574710184119206161EK                         CANTO                      LUIS ANGEL                 00945900000010011082016000  080000031027803                     9
Y702574710111735577550BRANDT                     SOLANO                     FEDERICO                   00945900000010011082016000  080000031029203                     9
Y702574710184048529014PEREZ                      ACOSTA                     LUIS RAMON                 00945900000010011082016000  080000031029303                     9
Y702574710184967529573PEREZ                      GURUBEL                    AUGUSTO MARGARITO REYES    00945900000010011082016000  080000031029403                     9
