Y605571210051137800879REYES                      VILLALOBOS                 ANA LUZ                    00945900000010009082016000  080000001007703                     9
Y605571210051896910224ZAMORA                     ORTIZ                      MA GUILLERMINA             00945900000010009082016000  080000001008503                     9
Y605571210003148841822HERNANDEZ                  RICO                       JOSE FREDDY                01194600000010009082016000  080000002027003                     9
Y605571210027149034764JASPEADO                   CRUZ                       ARTURO                     00945900000010009082016000  080000009554703                     9
Y605571210004169709955ORTIZ                      LIMA                       CESAR ADAN                 00945900000010009082016000  080000009634603                     9
Y605571210096007601311SEGURA                     VELAZQUEZ                  JOSE ABUNDIO               00945900000010009082016000  080000009634703                     9
Y605571210037048514808OROZCO                     MATEO                      VICTOR ALFONSO             00945900000010009082016000  080000009634803                     9
Y605571210007168926777ANDRADE                    FERNANDEZ                  RODOLFO ANTONIO            00945900000010009082016000  080000009634903                     9
Y605571210092078803753FACUNDO                    GARCIA                     JOSE                       00945900000010009082016000  080000009635003                     9
Y605571210028957702427PEREZ                      FRANCO                     MARCO ANTONIO              00945900000010009082016000  080000009635103                     9
Y605571210016068401286DOMINGUEZ                  TORRES                     ALMA                       00945900000010009082016000  080000015161303                     9
Y605571210007169644619VAZQUEZ                    SOTO                       RAHIL                      00945900000010009082016000  080000018000203                     9
Y605571210004129497634MEDRANO                    SOTO                       GERARDO                    00945900000010009082016000  080000018000303                     9
Y605571210043896882693CASIANO                    GONZALEZ                   SAMUEL                     00945900000010009082016000  080000019085403                     9
Y605571210003967830872CARDENAS                   LOPEZ                      JAVIER                     00945900000010009082016000  080000019085503                     9
Y605571210065139400850ORTEGA                     HERNANDEZ                  MARTIN ISAAC               00945900000010009082016000  080000023025803                     9
Y605571210026149229960ESPINOZA                   CARABEO                    NOE                        00945900000010009082016000  080000023027003                     9
Y605571210003159542582VELAZQUEZ                  CRISOSTOMO                 DIANA LIZBETH              00945900000010009082016000  080000023030103                     9
Y605571210023917469795LEON                       BRINGAS                    JOAQUIN ENRIQUE            00945900000010009082016000  080000025006003                     9
Y605571210023775915426RIOS                       RODRIGUEZ                  RAMON                      00945900000010009082016000  080000025006103                     9
Y605571210023826305098GOMEZ                      MELLADO                    JOSEFINA                   00945900000010009082016000  080000025006203                     9
Y605571210035149327195CORREA                     ESQUIVEL                   JESUS EMMANUEL             00945900000010009082016000  080000032000803                     9
Y605571210058169719679SAUCEDO                    ACUÑA                      RAUL                       00945900000010009082016000  080000032000903                     9
Y605571210004897389104FLORES                     CASILLAS                   BERNARDO                   00945900000010009082016000  080000032001103                     9
Y605571210003148068269CASTAÑON                   REVELES                    MIGUEL ANGEL               00945900000010009082016000  080000032001303                     9
