Y605571210025079047418RODRIGUEZ                  CALDERON                   VICTOR RAUL                01194600000010015082016000  080000002050303                     9
Y605571210014139543814SUAREZ                     PEREZ                      JOAO PAULINHO              00945900000010015082016000  080000011085303                     9
Y605571210084138401215CARDOZA                    ANOTA                      WENDY PAOLA                00945900000010015082016000  080000011087603                     9
Y605571210022169853789CRUZ                       PAXTIAN                    MARIA ALEJANDRA            00945900000010015082016000  080000011087703                     9
Y605571210065028018995MALDONADO                  DURAN                      JOSE LUIS                  00945900000010015082016000  080000011087803                     9
Y605571210065089028750MARTINEZ                   ATEN                       ELIAS EFRAIN               00945900000010015082016000  080000011087903                     9
Y605571210078987906365SANCHEZ                    XALA                       ROBERTO CARLOS             00945900000010015082016000  080000011088003                     9
Y605571210065947750595CATEMAXCA                  MONTIEL                    RAFAEL                     00945900000010015082016000  080000011088103                     9
Y605571210054149537364CRUZ                       PAXTIAN                    LUIS DANIEL                00945900000010015082016000  080000011088203                     9
Y605571210065109005135PAXTIAN                    CRUZ                       JESUS                      00945900000010015082016000  080000011088303                     9
Y605571210065108921811GALLARDO                   GOXCON                     CLARA JANEHT               00945900000010015082016000  080000011088403                     9
Y605571210053078810768LOPEZ                      MACIAS                     JESUS                      00945900000010015082016000  080000016008003                     9
Y605571210025977915955LOPEZ                      SOTO                       AUDEL                      00945900000010015082016000  080000018000403                     9
Y605571210004048651337GORDIAN                    CASTILLON                  JOSE FRANCISCO             00945900000010015082016000  080000018000503                     9
Y605571210023897221208JACOBO                     SANDOVAL                   JOSE FELIX                 00945900000010015082016000  080000025006803                     9
Y605571210049149616176DE JESUS                   HERRERA                    LEONARDO ALEXIS            00945900000010015082016000  080000028033803                     9
