Y605571210002177259039SANCHEZ                    ANGELES                    ALEJANDRO                  00945900000010002082017000  080000009714703                     9
Y605571210010159188241GONZALEZ                   SANCHEZ                    GUSTAVO                    00945900000010002082017000  080000009723003                     9
Y605571210001887305611VILLALOBOS                 SALAZAR                    RICARDO                    00945900000010002082017000  080000009723103                     9
Y605571210078998209379CORTES                     LINARES                    GUSTAVO                    00945900000010002082017000  080000015186903                     9
Y605571210006836506268FLORES                     REYES                      VICENTE                    00945900000010002082017000  080000015216603                     9
Y605571210089816600905ALMARAZ                    FLORES                     EDUARDO                    00945900000010002082017000  080000030111403                     9
Y605571210025998215732MARTINEZ                   GUEVARA                    LUIS ENRIQUE               00945900000010002082017000  080000030152903                     9
Y605571210067059300128DOMINGUEZ                  BUSTAMANTE                 DAVID ANTONIO              00945900000010002082017000  080000030153003                     9
Y605571210067967704528CORTEZ                     SANCHEZ                    ROGELIO                    00945900000010002082017000  080000030153103                     9
