Y605571210071058905002OVANDO                     ESQUIVEL                   JOSE ORBELIN               00945900000010021082017000  080000007019603                     9
Y605571210028109118498SOLIS                      SOTO                       GIOVVANA JANNET            00945900000010021082017000  080000009636203                     9
Y605571210042937601518CALDERON                   MORA                       LUIS JESUS                 00945900000010021082017000  080000009683103                     9
Y605571210017169886987NAVA                       GONZALEZ                   LUIS FERNANDO              00945900000010021082017000  080000009726503                     9
Y605571210028129316759MARTINEZ                   DOMINGUEZ                  JONATHAN RAFAEL            00945900000010021082017000  080000015218003                     9
Y605571210043967916966PEREZ                      CASTAÒUELA                 MONICA FRANCISCA           00945900000010021082017000  080000019103703                     9
Y605571210049149659432CUELLAR                    DAVILA                     MAXIMO                     00945900000010021082017000  080000019123703                     9
Y605571210003957910924MARTINEZ                   CASTILLO                   JUAN LUIS                  00945900000010021082017000  080000019123803                     9
Y605571210043927680744TORRES                     SILVA                      LAURA KARINA               00945900000010021082017000  080000019123903                     9
Y605571210067129321716DIEGO                      VASQUEZ                    CRISTIAN                   00945900000010021082017000  080000023051403                     9
Y605571210025159324315MENDEZ                     GARCIA                     FRANKLY                    00945900000010021082017000  080000023051503                     9
Y605571210006169659338MARCOS                     PEDRO                      GABRIELA                   00945900000010021082017000  080000023051603                     9
Y605571210084927409130LOEZA                      TRUJEQUE                   NELSON NOE                 00945900000010021082017000  080000023051703                     9
Y605571210023977446725ANGULO                     RODRIGUEZ                  LUIS FERNANDO              00945900000010021082017000  080000025018503                     9
Y605571210003148922697SANTIAGO                   SANTOS                     ANA MARINA                 00945900000010021082017000  080000030141603                     9
Y605571210002178513269MARTIN                     REGALADO                   LIZ YESENIA                00945900000010021082017000  080000030147003                     9
Y605571210067046700562HERNANDEZ                  GONZALEZ                   MARIA DEL CARMEN           00945900000010021082017000  080000030154503                     9
Y605571210067038510938NAZARIO                    GALINDO                    ISAIAS                     00945900000010021082017000  080000030154603                     9
