D691959010178138304189FIGUEROA                   REYES                      CRISTINO                   00945900000010009032017000  080000020009603                     9
D691959010167048204381ALVARADO                   VAZQUEZ                    JULIO CESAR                00945900000010009032017000  080000020029103                     9
D691959010128169722387GONZALEZ                   LUNA                       JOSE CARLOS                00945900000010009032017000  080000020029203                     9
