Y605571210020048302499CERNA                      VARGUEZ                    JOSUE GERMAIN              00945900000010017112016000  080000009030702                     9
Y605571210030947706765MENDEZ                     TORRES                     SUSANA                     00945900000010017112016000  080000009036602                     9
Y605571210090068927327MARTINEZ                   AVILES                     BERNARDO DANIEL            00945900000010017112016000  080000009039202                     9
Y605571210011977810255GARCIA                     HERNANDEZ                  JOSE DE JESUS              00945900000010017112016000  080000009643703                     9
Y605571210092129421308GARCIA                     RIVERA                     JESUS                      00945900000010017112016000  080000009659003                     9
Y605571210045977754360GOMEZ                      GOMEZ                      RAUL                       00945900000010017112016000  080000009659103                     9
Y605571210019159057686GARCIA                     OVANDO                     JOSE ANGEL                 00945900000010017112016000  080000009659203                     9
Y605571210045947706482VALDEZ                     RIVERA                     FELIPE                     00945900000010017112016000  080000009659303                     9
Y605571210017159068984MELO                       GASPAR                     YESENIA                    00945900000010017112016000  080000009659403                     9
Y605571210030886512083MARTINEZ                   GARCIA                     MARIA DE JESUS             00945900000010017112016000  080000009659503                     9
Y605571210003897302323RODRIGUEZ                  LOPEZ                      SALVADOR                   00945900000010017112016000  080000019085703                     9
Y605571210094028212366NEGRETE                    YA—EZ                      PAULINO                    00945900000010017112016000  080000019092903                     9
Y605571210003148303112GARCIA                     PEREZ                      BEATRIZ ADRIANA            00945900000010017112016000  080000022052803                     9
Y605571210049826458231LOPEZ                      MARTINEZ                   MIGUEL                     00945900000010017112016000  080000028013803                     9
Y605571210049856814345RODRIGUEZ                  CASTAÒON                   JUAN                       00945900000010017112016000  080000028036603                     9
Y605571210067907300379GUERRERO                   BARRADAS                   JESUS EDUARDO              00945900000010017112016000  080000030127603                     9
Y605571210082008110007OLIVA                      ZETINA                     ELIXITO PEDRO PABLO        00945900000010017112016000  080000030127703                     9
Y605571210065119417379UTRERA                     SANCHEZ                    MARCOS DAVID               00945900000010017112016000  080000030127803                     9
Y605571210065087705102FLORES                     CONTRERAS                  MARINA                     00945900000010017112016000  080000030127903                     9
Y605571210067856659791MENDOZA                    ANDRADE                    MARIO                      00945900000010017112016000  080000030128003                     9
Y605571210065947232867RAMOS                      BUSTAMANTE                 ALEJANDRO                  00945900000010017112016000  080000030128103                     9
