Y605571210042139702213ALVARADO                   PACHECO                    ALAN DE JESUS              00945900000010025072017000  080000009721203                     9
Y605571210045129136243RAMOS                      QUINTANA                   BOGAR JHONATHAN            00945900000010025072017000  080000009721303                     9
Y605571210096136800925CASTILLO                   TAMAYO                     JORGE                      00945900000010025072017000  080000009721403                     9
Y605571210092139404732MEDINA                     ROJAS                      EDITH GUADALUPE            00945900000010025072017000  080000015215903                     9
Y605571210082068813870CERVERA                    VAZQUEZ                    CECILIA DEL CARMEN         00945900000010025072017000  080000023049803                     9
Y605571210027149454657GONZALEZ                   FINO                       LEO JHOUSEFATH             00945900000010025072017000  080000023049903                     9
Y605571210067119144854SOTO                       DAVILA                     GABRIEL ANTONIO            00945900000010025072017000  080000030152403                     9
Y605571210067079005806SANTIAGO                   CRUZ                       SAMUEL                     00945900000010025072017000  080000030152503                     9
