Y462621510962977703016SALAS                      URIBE                      NARCISO                    00945900000010016032017000  080000021122103                     9
Y462621510962907018758TLALMIS                    DOMINGUEZ                  MARIA DEL ROCIO            00945900000010016032017000  080000021166603                     9
Y462621510948109025600PEREZ                      ANDRADE                    ERICK                      00945900000010016032017000  080000021166703                     9
Y462621510948119034097FERNANDEZ                  FLORES                     JUAN                       00945900000010016032017000  080000021166803                     9
