Y605571210007907309145ESTRADA                    GUTIERREZ                  GUSTAVO                    00945900000010031082017000  080000009728603                     9
Y605571210053038337688ZUÒIGA                     VILLA                      CELESTINO                  00945900000010031082017000  080000019108203                     9
Y605571210011169593081APARICIO                   MARTINEZ                   FLOR NAYELI                00945900000010031082017000  080000019125203                     9
Y605571210021028109698AQUINO                     SASTRE                     MIGUEL ENRIQUE             00945900000010031082017000  080000027000402                     9
Y605571210083109013926LAZARO                     LOPEZ                      OSCAR                      00945900000010031082017000  080000027064003                     9
