A836767410921109350609GARCIA                     ALANIS                     JOSE MANUEL                00945900000010026042017000  080000002045103                     9
A836767410946149604350ZAMBRANO                   PINO                       SARAI                      00945900000010026042017000  080000002052903                     9
A836767410923816239372RENDON                     SANTOS                     EFRAIN                     00945900000010026042017000  080000002053003                     9
A836767410933845831453NAVARRETE                  TARIN                      ESTEVAN                    00945900000010026042017000  080000008070103                     9
