Z064567510812978164197RODRIGUEZ                  ROCHA                      JOSE ROBERTO               00945900000010012052017000  080000011072203                     9
Z064567510812947351347RIOS                       FLORES                     MIGUEL ANGEL               00945900000010012052017000  080000011098903                     9
Z064567510863988112775VELAZQUEZ                  RETANA                     DANIEL                     00945900000010012052017000  080000011099003                     9
Z064567510873169980791BERNAL                     MARTINEZ                   VICTOR MANUEL ALEJANDRO    00945900000010012052017000  080000011099103                     9
Z064567510812139805241ESCALANTE                  CHAVEZ                     MIGUEL ANGEL               00945900000010012052017000  080000011099203                     9
