Y605571210082068603768CRUZ                       MALPICA                    JUAN CARLOS                00945900000010013092016000  080000004008303                     9
Y605571210081947632253LARA                       GARCIA                     ALBINO                     00945900000010013092016000  080000004008403                     9
Y605571210081018400572MIRANDA                    DIAZ                       ALAIN DEL CARMEN           00945900000010013092016000  080000004008503                     9
Y605571210035149318855JIMENEZ                    GUILLEN                    CARLOS HUMBERTO            00945900000010013092016000  080000007016203                     9
Y605571210027149413265GARIBAY                    SANCHEZ                    ERICK SIMPLICIO            00945900000010013092016000  080000009644103                     9
Y605571210010149268996FRANCISCO                  FLORES                     PATRICIA                   00945900000010013092016000  080000009644203                     9
Y605571210045058745253TEJEDA                     GORDILLO                   ALEJANDRO                  00945900000010013092016000  080000009644303                     9
Y605571210006169870414ARIAZ                      LARRONDO                   CRISTOPHER                 00945900000010013092016000  080000009644403                     9
Y605571210045917482049GUZMAN                     RAMIREZ                    MIRIAM ELIZABETH           00945900000010013092016000  080000011076203                     9
Y605571210012976113816LOPEZ                      TORRES                     JUAN                       00945900000010013092016000  080000011089303                     9
Y605571210012937203045CAMACHO                    GUERRERO                   ARTURO                     00945900000010013092016000  080000011089403                     9
Y605571210094109563638CORTES                     RANGEL                     TANIA MARINA               00945900000010013092016000  080000013015103                     9
Y605571210043088509922GONZALEZ                   ESPINOZA                   EDGAR                      00945900000010013092016000  080000013015203                     9
Y605571210020906601792ESPINOZA                   SANCHEZ                    MARCOS                     00945900000010013092016000  080000015178603                     9
Y605571210018159533522DIAZ                       MARTINEZ                   JOSUE IVAN                 00945900000010013092016000  080000015182003                     9
Y605571210043998247118ARANDA                     JUAREZ                     HUGO ENRIQUE               00945900000010013092016000  080000019087103                     9
Y605571210014755704138PIÒA                       RICO                       MARIA                      00945900000010013092016000  080000022043803                     9
Y605571210067068716801MARTINEZ                   MARTINEZ                   TREJO JESUS                00945900000010013092016000  080000023025203                     9
Y605571210082068715646KUMUL                      PECH                       BENITO                     00945900000010013092016000  080000023029003                     9
Y605571210082008223974YA—EZ                      GOMEZ                      RICARDO FERNANDO           00945900000010013092016000  080000023030403                     9
Y605571210083129303448MARIN                      MORALES                    DAVID                      00945900000010013092016000  080000027058403                     9
Y605571210009937706647MARTINEZ                   PEDROZA                    MARTIN                     00945900000010013092016000  080000028007903                     9
Y605571210009007930077ACOSTA                     RIVAS                      GUADALUPE                  00945900000010013092016000  080000028023103                     9
Y605571210049856542581PUGA                       DELGADO                    GERMAN                     00945900000010013092016000  080000028034803                     9
Y605571210049886921441MENDEZ                     MARTINEZ                   ROSENDO                    00945900000010013092016000  080000028034903                     9
Y605571210065027612152HERNANDEZ                  GUERRERO                   ISAAC                      00945900000010013092016000  080000028035003                     9
Y605571210049978147780SERNA                      INFANTE                    NESTOR DANIEL              00945900000010013092016000  080000028035103                     9
Y605571210071118919399BARRUETA                   MORENO                     ISAIAS DIONICIO            00945900000010013092016000  080000028035203                     9
Y605571210049936710190ZUÒIGA                     LOPEZ                      ODIEL ROSENDO              00945900000010013092016000  080000028035303                     9
Y605571210009997317590ALVARADO                   DAVILA                     MARIO WENSESLAO            00945900000010013092016000  080000028035403                     9
