A836767410971119322452AREBALO                    PEREZ                      DANIEL                     00945900000010002082017000  080000002058703                     9
A836767410975058847890CARRILLO                   SANTOS                     SERGIO EDUARDO             00945900000010002082017000  080000002061403                     9
A836767410972088935431CONTRERAS                  GONZALEZ                   INOEL                      00945900000010002082017000  080000002061503                     9
A836767410903178946905CONTRERAS                  GONZALEZ                   ABEL                       00945900000010002082017000  080000002061603                     9
A836767410925897138639GARCIA                     BARAJAS                    ROBERTO DANIEL             00945900000010002082017000  080000002061703                     9
A836767410933845831453NAVARRETE                  TARIN                      ESTEVAN                    00945900000010002082017000  080000008070103                     9
