Y605571210022119216749FRANCO                     AVALOS                     ALONSO GUADALUPE           01194600000010011082017000  080000002062603                     9
Y605571210027179925550CONTRERAS                  CARBAJAL                   AARON ALEJANDRO            00945900000010011082017000  080000009724603                     9
Y605571210005169855656SALAZAR                    FRANCISCO                  ABRAHAM                    00945900000010011082017000  080000009724803                     9
Y605571210037988119592CRUZ                       ROMERO                     GUSTAVO MIGUEL             00945900000010011082017000  080000009725003                     9
Y605571210020109557403CAMACHO                    GUARNEROS                  PEDRO                      00945900000010011082017000  080000015217603                     9
Y605571210043988091195ROCHA                      GUERRERO                   JESUS                      00945900000010011082017000  080000019122703                     9
Y605571210043139459531BAUTISTA                   BAUTISTA                   ZENON                      00945900000010011082017000  080000019122803                     9
Y605571210082058837038DE LA CRUZ                 RUIZ                       NATALIA                    00945900000010011082017000  080000023051103                     9
Y605571210065129441856DELGADO                    ENRIQUEZ                   JAQUELINE                  00945900000010011082017000  080000030154203                     9
Y605571210067099003534DECTOR                     GUEVARA                    MAURICIO                   00945900000010011082017000  080000030154303                     9
