Y605571210045988051749PINEDA                     MARTINEZ                   GUADALUPE                  00945900000010016052016000  080000009036302                     9
Y605571210005169041109DOMINGUEZ                  CARMONA                    CARLOS ESTEBAN             00945900000010016052016000  080000009616303                     9
Y605571210012149703618JIMENEZ                    PATIÒO                     MAURICIO                   00945900000010016052016000  080000011081703                     9
Y605571210013786011265HERRERA                    LEA—OS                     FELIPE                     00945900000010016052016000  080000019076003                     9
Y605571210041097900801ANTONIO                    MARTINEZ                   HELADIO                    00945900000010016052016000  080000019078903                     9
Y605571210023786007825PEÒUELAS                   PEREZ                      TRINIDAD                   00945900000010016052016000  080000025002503                     9
