R143868210356159632654RAMOS                      PATIÑO                     ALEXIS DANIEL              00945900000010013032017000  080000014131503                     9
R143868210304108533805LOZANO                     VAZQUEZ                    JOSE MANUEL                00945900000010013032017000  080000014131603                     9
R143868210374978021785CASTELLANOS                CERDA                      JUAN MIGUEL                00945900000010013032017000  080000014131703                     9
