Z064567510812068727465OLIVARES                   HERNANDEZ                  JOSE ALFREDO               00945900000010027022017000  080000011095703                     9
Z064567510862149649352OLIVARES                   HERNANDEZ                  DANIEL                     00945900000010027022017000  080000011095803                     9
Z064567510812066400875HERNANDEZ                  CALDERON                   CRESCENCIO GERARDO         00945900000010027022017000  080000011095903                     9
Z064567510860149410775HERNANDEZ                  MARTINEZ                   SAUL HUMBERTO              00945900000010027022017000  080000011096003                     9
