Y605571210002158666996ZUÒIGA                     MOLINERO                   JESUS ADRIAN               00945900000010009112016000  080000009593603                     9
Y605571210052977408450LEON                       SANTOS                     ROMAN                      00945900000010009112016000  080000009656303                     9
Y605571210007836203997PEREZ                      RAMOS                      ESTEBAN                    00945900000010009112016000  080000009656403                     9
Y605571210011796111638GARCIA                     RODRIGUEZ                  MARIO                      00945900000010009112016000  080000009656503                     9
Y605571210045139105253ROJAS                      QUINERO                    MAURICIO                   00945900000010009112016000  080000009656603                     9
Y605571210007129309089MARTINEZ                   NIEVES                     OCTAVIO ALBERTO            00945900000010009112016000  080000015185103                     9
Y605571210094116700363CASTILLO                   MARQUEZ                    JOSE JUAN                  00945900000010009112016000  080000015185203                     9
Y605571210019159402825SILVA                      DE LA ROSA                 JOSE ANGEL                 00945900000010009112016000  080000016009003                     9
Y605571210053887203056PACHECO                    LEON                       OSCAR                      00945900000010009112016000  080000016009403                     9
Y605571210049866649418ORTIZ                      ALVARADO                   JESUS                      00945900000010009112016000  080000019063903                     9
Y605571210043816067508REYNA                      ALVAREZ                    JAVIER                     00945900000010009112016000  080000019092403                     9
Y605571210003159072960MORENO                     ESPINOZA                   SEMEI                      00945900000010009112016000  080000019092503                     9
Y605571210009095800323LUPERCIO                   VILLASE—OR                 FRANCISCO MANUEL           00945900000010009112016000  080000028036403                     9
