Y607431310463816018475LINCE                      REYES                      EDUARDO                    01811600000010001012020000  080000009000603                     9
Y607431310439927567113MOLINA                     MEJIA                      JORGE                      01806800000010014012021000  080000009000802                     9
Y607431310494119651555OLVERA                     ORIHUELA                   MARIA FERNANDA             01806800000010018012021000  080000009000902                     9
Y607431310464816318394VILLEGAS                   MONTIEL                    ALEJANDRO                  01809200000010014012020000  080000009001103                     9
Y607431310401775637869CORTES                     RAMIREZ                    RAUL                       01809200000010013012020000  080000009001203                     9
Y607431310496917312751ESTEBAN                    CARIÑO                     ROBERTO                    01809200000010016012020000  080000009001603                     9
Y607431310401917368381SANTANA                    ARAUZ                      JOSE                       01809200000010017022020000  080000009002803                     9
Y607431310494018333990CRUZ                       ANGUIANO                   MARA ESMERALDA             01809200000010006072020000  080000009004003                     9
Y607431310401006601437GONZALEZ                   VALDES                     FIDENCIO                   01806800000010015012021000  080000009007103                     9
Y607431310439026401321LOPEZ                      CABRERA                    JAVIER                     01806800000010003022021000  080000009008003                     9
Y607431310405159829265BALBUENA                   BALDERAS                   ERICK RODRIGO              01806800000010025032021000  080000009009203                     9
Y607431310490887132497VAZQUEZ                    VILCHIS                    MARIA MARGARITA            01806800000010015042021000  080000009010003                     9
Y607431310401897058041LOPEZ                      GONZALEZ                   JOSE ROBERTO               01806800000010001062021000  080000009010403                     9
Y607431310420099126839ARIAS                      VEGA                       MARIO ALAN                 01806800000010012052021000  080000009010803                     9
Y607431310420997900475ESPINDOLA                  ESQUIVEL                   CLARA                      01806800000010018052021000  080000009010903                     9
Y607431310420077900064SUAREZ                     SECUNDINO                  MARTHA RUBI                01806800000010020072021000  080000009012303                     9
Y607431310445068849566GUERRERO                   UVENCE                     VICENTE                    01806800000010021072021000  080000009012403                     9
Y607431310428988014495DIAZ                       BARRERA                    JOSE CARLOS                01806800000010006082021000  080000009012903                     9
Y607431310401977707064RIVERA                     SALAZAR                    VICTOR MANUEL              01806800000010031082021000  080000009013203                     9
Y607431310496067605079MORALES                    RODRIGUEZ                  ESPERANZA                  01806800000010001092021000  080000009013303                     9
Y607431310402198678845ESQUIVEL                   GARCIA                     DIANA                      01806800000010030092021000  080000009013803                     9
Y607431310459169949746SALAS                      HERNANDEZ                  CESAR ALEXIS               01806800000010006102021000  080000009014003                     9
Y607431310496079018923HERNANDEZ                  GALINDO                    ELIZABETH JULIANA          01806800000010008112021000  080000009014403                     9
Y607431310445018229414QUERIDO                    DIAZ                       FORTINO                    01806800000010030112021000  080000009015203                     9
Y607431310498119323594GALINDO                    LOPEZ                      ANGELICA                   01806800000010002122021000  080000009015403                     9
Y607431310439027807732ANGUIANO                   ZUÑIGA                     JUAN JESUS                 01806800000010009122021000  080000009015503                     9
