A482760210302169835622CARDENAS                   TENO                       BRANDON EDWARD             00945900000010001082016000  080000006002303                     9
A482760210352119304583CARDENAS                   TENO                       ELVIS ULISES               00945900000010001082016000  080000006002403                     9
A482760210311805403513COLORADO                   MARTINEZ                   JUAN MANUEL                00945900000010001082016000  080000006002503                     9
A482760210352129501731AVILA                      GARCIA                     CARLOS ALBERTO             00945900000010001082016000  080000006002603                     9
A482760210352118500777MENDOZA                    CHAVEZ                     OCTAVIO                    00945900000010001082016000  080000006002703                     9
