Y605571210011907036450AGUILAR                    SOLIS                      LUIS FERNANDO              00945900000010024022017000  080000007008003                     9
Y605571210026159262364GONZALEZ                   BARRERA                    ELIZABETH                  00945900000010024022017000  080000009632103                     9
Y605571210040169825086PEREZ                      MATIAS                     KARLA                      00945900000010024022017000  080000009686003                     9
Y605571210096119452488PACHECO                    MORGADO                    EDWIN ALBERTO              00945900000010024022017000  080000009686103                     9
Y605571210092129407679CERVANTES                  SAUCEDO                    BRANDON DANIEL             00945900000010024022017000  080000015194103                     9
Y605571210016947119083VICENTE                    GONZALEZ                   ISABEL                     00945900000010024022017000  080000015194203                     9
Y605571210003168451858MEJIA                      DE LA CRUZ                 LILIANA                    00945900000010024022017000  080000015194303                     9
Y605571210011967318467CRUZ                       MEZA                       JOSE LUIS                  00945900000010024022017000  080000022058303                     9
Y605571210055169860941GARCIA                     SANCHEZ                    ALEXANDR                   00945900000010024022017000  080000023043303                     9
Y605571210002177922453LOPEZ                      LAYNES                     GUADALUPE DEL CARMEN       00945900000010024022017000  080000023043403                     9
Y605571210049937731658CERDA                      MARTINEZ                   OMAR ALEJANDRO             00945900000010024022017000  080000028039503                     9
Y605571210067108805861LUNA                       CALDERON                   LINO GABINO                00945900000010024022017000  080000030137803                     9
