R143868210367947673736LOPEZ                      MOLINA                     EDUARDO                    00945900000010008112016000  080000014123503                     9
R143868210339037805577HERNANDEZ                  ANGEL                      JUAN LUIS                  00945900000010008112016000  080000014123603                     9
R143868210304907288593FLORES                     VAZQUEZ                    JAIME                      00945900000010008112016000  080000014123703                     9
