Y605571210051856405983LUCERO                     REYES                      MARIA GRACIELA             00945900000010003082016000  080000001006703                     9
Y605571210051906904910MENA                       HERNANDEZ                  IGNACIA LETICIA            00945900000010003082016000  080000001008403                     9
Y605571210045129360595MONDRAGON                  ROSAS                      JESUS ALBERTO              00945900000010003082016000  080000009626803                     9
Y605571210017866803681OYOLA                      ARROYO                     ANGELICA                   00945900000010003082016000  080000009632603                     9
Y605571210030917238039MOJICA                     GARDUÑO                    JOSE LUIS                  00945900000010003082016000  080000009632703                     9
Y605571210039028604112RUIZ                       TEJADA                     JULIO CESAR                00945900000010003082016000  080000009632803                     9
Y605571210019159838481VARGAS                     MARTINEZ                   ARTURO JORDI               00945900000010003082016000  080000009632903                     9
Y605571210039047802960PONCE                      CAMPUZANO                  MERCEDES ALEJANDRA         00945900000010003082016000  080000015179503                     9
Y605571210020129307870CASTELLANOS                GONZALEZ                   HECTOR ESTEBAN             00945900000010003082016000  080000015179603                     9
Y605571210019149534299HERNANDEZ                  DORANTES                   HECTOR                     00945900000010003082016000  080000015179703                     9
Y605571210044159774171POSADAS                    GARCIA                     ERIKA                      00945900000010003082016000  080000015179803                     9
Y605571210002166544805HORTA                      HERNANDEZ                  LEONARDO                   00945900000010003082016000  080000016007403                     9
Y605571210047018537978VAZQUEZ                    RODRIGUEZ                  MARIA GUADALUPE            00945900000010003082016000  080000019085203                     9
Y605571210012846414436CASTRO                     MORENO                     ANGEL                      00945900000010003082016000  080000022039303                     9
Y605571210083088402900XICOTENCALT                TORRES                     SARA                       00945900000010003082016000  080000027057603                     9
Y605571210061119301820MUÑOZ                      ALVAREZ                    JOSE DANIEL                00945900000010003082016000  080000029006703                     9
