Y605571210048998285448GARCIA                     PINEDA                     TEODULO                    00945900000010007022017000  080000009681603                     9
Y605571210028109101296CORTES                     MONTIEL                    JULIO CESAR                00945900000010007022017000  080000009681703                     9
Y605571210017148676285GALINDO                    SORIANO                    ORLANDO                    00945900000010007022017000  080000009681803                     9
Y605571210094917344924OTERO                      RAMIREZ                    JOSE LUIS                  00945900000010007022017000  080000015190803                     9
Y605571210047129330172ESTRADA                    MENDOZA                    YARELIA ANAHI              00945900000010007022017000  080000019002702                     9
Y605571210043008411233ESPINOZA                   MOLINA                     FIDEL                      00945900000010007022017000  080000019101503                     9
Y605571210014068754358HUERTA                     CARRILLO                   ALBA                       00945900000010007022017000  080000022056703                     9
Y605571210017159205719JUAREZ                     HERNANDEZ                  ALDO GERARDO               00945900000010007022017000  080000022056803                     9
Y605571210063169161260HIDALGO                    MARTINEZ                   PATRICIA                   00945900000010007022017000  080000023042203                     9
Y605571210023937211813QUINTERO                   BELTRAN                    MARIA EMILIA               00945900000010007022017000  080000025012803                     9
Y605571210023856715125SAINZ                      SALAS                      JUAN DIEGO                 00945900000010007022017000  080000025012903                     9
Y605571210070149530076GONZALEZ                   RABELO                     VICTOR EDUARDO             00945900000010007022017000  080000027056203                     9
Y605571210058159740370BENGOCHEA                  HERNANDEZ                  JESUS ALEJANDRO            00945900000010007022017000  080000030136003                     9
Y605571210018169311968AMAYA                      CHICAS                     ALDO ADRIAN                00945900000010007022017000  080000030136103                     9
Y605571210002169197809GONZALEZ                   HERNANDEZ                  MARLEN DEL CARMEN          00945900000010007022017000  080000030136203                     9
Y605571210067007802670GOMEZ                      HERNANDEZ                  MARIA EUGENIA              00945900000010007022017000  080000030136303                     9
