A836767410933109209222MORENO                     VIDALES                    JUAN MANUEL                00945900000010029112016000  080000008066203                     9
A836767410974159736268MORENO                     VIDALES                    BRAYAN HIPOLITO            00945900000010029112016000  080000008066303                     9
A836767410935988262974SANCHEZ                    CASTILLO                   JUAN CARLOS                00945900000010029112016000  080000008066403                     9
