Y605571210033846333244BAILON                     VASQUEZ                    PABLO                      00945900000010012092016000  080000001008903                     9
Y605571210045028311194ISAIS                      BARRAGAN                   JAVIER                     00945900000010012092016000  080000001009003                     9
Y605571210035169501984GIRON                      GOMEZ                      JOSE MANUEL                00945900000010012092016000  080000007015903                     9
Y605571210071118610923RODRIGUEZ                  GARDUZA                    BERNARDO                   00945900000010012092016000  080000007016003                     9
Y605571210010169205050CRUZ                       GOMEZ                      MARIA CANDELARIA           00945900000010012092016000  080000007016103                     9
Y605571210005159706745ZUÑIGA                     MOLINERO                   ROGELIO                    00945900000010012092016000  080000009592203                     9
Y605571210030079015969RAMIREZ                    GARCIA                     JOSE ALBERTO               00945900000010012092016000  080000009613303                     9
Y605571210068978226865MARTINEZ                   SAN JUAN                   DAVID                      00945900000010012092016000  080000009643503                     9
Y605571210090058800120SANTIAGO                   LEONARDO                   EMMANUEL                   00945900000010012092016000  080000009643603                     9
Y605571210011007805366GARCIA                     HERNANDEZ                  JOSE DE JESUS              00945900000010012092016000  080000009643703                     9
Y605571210042109209462HEREIDA                    HERNANDEZ                  JONATAN ELIAS              00945900000010012092016000  080000009643803                     9
Y605571210010149638495LEOCADIO                   GARCIA                     JORGE                      00945900000010012092016000  080000009643903                     9
Y605571210096119108031LOPEZ                      RUEDA                      JOSE EDUARDO               00945900000010012092016000  080000009644003                     9
Y605571210042897118966ROMERO                     MARTINEZ                   JOSE LUIS                  00945900000010012092016000  080000011089203                     9
Y605571210053088838387GUTIERREZ                  GALVAN                     LUIS FERNANDO              00945900000010012092016000  080000016008403                     9
Y605571210003157843701SANCHEZ                    BETANCOURT                 MIGUEL                     00945900000010012092016000  080000016008503                     9
Y605571210049967045086PECINA                     MARTINEZ                   HECTOR PAUL                00945900000010012092016000  080000022050803                     9
Y605571210018159769266LEDEZMA                    SANCHEZ                    JORGE ALBERTO              00945900000010012092016000  080000022050903                     9
Y605571210004078957109GALINDO                    VALLS                      EDER ANTONIO               00945900000010012092016000  080000023032603                     9
Y605571210082129444566CASTILLO                   AKE                        LUIS FERNANDO              00945900000010012092016000  080000023032703                     9
Y605571210067119338597MORALES                    ALFONSO                    EZEQUIEL                   00945900000010012092016000  080000030125303                     9
