Y462621510948098936346GUARNEROS                  VAZQUEZ                    BENJAMIN                   00945900000010004112016000  080000021157803                     9
Y462621510948118304863MENDEZ                     HERNANDEZ                  CARLOS HECTOR              00945900000010004112016000  080000021157903                     9
Y462621510926159236988ROJAS                      FLORES                     ADOLFO                     00945900000010004112016000  080000021158003                     9
