Y605571210022028319659VENCEDOR                   TORRES                     ANGEL ISIDORO              00945900000010025082017000  080000003000103                     9
Y605571210071917355670GARCIA                     MAZARIEGOS                 JUAN                       00945900000010025082017000  080000007019703                     9
Y605571210046119220286MORALES                    SALAZAR                    YEDID                      00945900000010025082017000  080000009727803                     9
Y605571210045028320419GONZALEZ                   AYALA                      NIDIA ANGELICA             00945900000010025082017000  080000009727903                     9
Y605571210096907418998VILLEGAS                   GAMBOA                     ANTONIO                    00945900000010025082017000  080000009728003                     9
Y605571210092907417205PONCE                      GARCIA                     JULIO CESAR                00945900000010025082017000  080000015218103                     9
Y605571210043795968247RAMIREZ                    RAMIREZ                    RODRIGO                    00945900000010025082017000  080000019082603                     9
Y605571210017159490998RODRIGUEZ                  LOZANO                     ANA KAREN                  00945900000010025082017000  080000019124803                     9
Y605571210014937726868SANCHEZ                    ZUÒIGA                     EDGARDO                    00945900000010025082017000  080000022065503                     9
Y605571210003146731967RIVERA                     GONZALEZ                   FIDEL                      00945900000010025082017000  080000022065703                     9
Y605571210023988071850LLANES                     LEYVA                      MARIA DE LOS ANGELES       00945900000010025082017000  080000025018703                     9
Y605571210083947634586MARIN                      SANCHEZ                    NESTOR                     00945900000010025082017000  080000027063903                     9
Y605571210067007807315CANO                       GARCIA                     JUAN IGNACIO               00945900000010025082017000  080000030154703                     9
