Y605571210039018118883ROSALES                    AVILA                      LIZETH                     00945900000010016082016000  080000009039302                     9
Y605571210008158746761REBOLLEDO                  OLVERA                     SERGIO                     00945900000010016082016000  080000009039402                     9
Y605571210017826609608MORALES                    VALENCIA                   JUAN                       00945900000010016082016000  080000009636803                     9
Y605571210011887028485LOPEZ                      TORRES                     MARTHA PATRICIA            00945900000010016082016000  080000009636903                     9
Y605571210045047603068DE LA CRUZ                 VICTORIANO                 SAMUEL                     00945900000010016082016000  080000009637003                     9
Y605571210082079034144LOPEZ                      TELLEZ                     JUAN                       00945900000010016082016000  080000009637103                     9
Y605571210098119222234HERNANDEZ                  HERNANDEZ                  ALFONSO                    00945900000010016082016000  080000009637203                     9
Y605571210019159109743MARTINEZ                   MEDINA                     GERMAN                     00945900000010016082016000  080000009637303                     9
Y605571210092078939177GONZALEZ                   SALAS                      MONICA GUADALUPE           00945900000010016082016000  080000015180303                     9
Y605571210004876625759SEGURA                     GRACIDA                    JACINTO JUAN               00945900000010016082016000  080000025006903                     9
Y605571210067068421303LANDERO                    PRIETO                     LUIS ALBERTO               00945900000010016082016000  080000025007003                     9
Y605571210067139002959ORTIZ                      PRIETO                     LUIS ANTONIO               00945900000010016082016000  080000030109903                     9
Y605571210065109103369PEREZ                      ARROYO                     ISVAI                      00945900000010016082016000  080000030122103                     9
