Y605571210001886800018ROMERO                     HUESCA                     CLAUDIO JOAQUIN            00945900000010028062016000  080000009038002                     9
Y605571210094048545233VARGAS                     CORTES                     DANIEL SANTOS              00945900000010028062016000  080000009506803                     9
Y605571210098129311829ANTONIO                    HOMOBONO                   ADRIAN                     00945900000010028062016000  080000009570003                     9
Y605571210045078927790GARRIDO                    FRIAS                      JAVIER IVAN                00945900000010028062016000  080000009621703                     9
Y605571210037018207995HERNANDEZ                  AZAAR                      ABRAHAM                    00945900000010028062016000  080000009621803                     9
Y605571210094129238203ORDOÑEZ                    CARBAJAL                   MARLENE                    00945900000010028062016000  080000009621903                     9
Y605571210045917482049GUZMAN                     RAMIREZ                    MIRIAM ELIZABETH           00945900000010028062016000  080000011076203                     9
Y605571210048018460401SALAZAR                    MACARIO                    REYES                      00945900000010028062016000  080000011085003                     9
Y605571210025159518858RESENDIZ                   BREÑA                      FERNANDO                   00945900000010028062016000  080000022045603                     9
Y605571210017866407392ESTEBAN                    HERNANDEZ                  SIMON                      00945900000010028062016000  080000028031403                     9
Y605571210049866108977HERNANDEZ                  ALVAREZ                    EUSTACIO                   00945900000010028062016000  080000028032803                     9
Y605571210009095800760GARZA                      MARTINEZ                   ORLANDO                    00945900000010028062016000  080000028032903                     9
Y605571210009139337662PANIAGUA                   VARGAS                     CARLOS ENRIQUE             00945900000010028062016000  080000028033003                     9
