Y605571210021129552663ROBLES                     HERNANDEZ                  JESUS EMMANUEL             01194600000010013052016000  080000002048903                     9
Y605571210007028408917DORANTES                   DÍAZ                       DIEGO                      00945900000010013052016000  080000009037102                     9
Y605571210044149328807BRAVO                      ARRIAGA                    LUIS                       00945900000010013052016000  080000009616203                     9
Y605571210016927556932BERNAL                     VIVANCO                    JOSE LUIS                  00945900000010013052016000  080000015172203                     9
Y605571210016057605020GARCIA                     SANCHEZ                    ARTURO                     00945900000010013052016000  080000015172303                     9
Y605571210094897212117PULIDO                     CERAFIN                    ABELARDO                   00945900000010013052016000  080000015172403                     9
Y605571210043008602690MARTINEZ                   SENA                       REYMUNDO                   00945900000010013052016000  080000019076603                     9
Y605571210041987934837GARCIA                     SANCHEZ                    RICARDO                    00945900000010013052016000  080000019078803                     9
