R143868210354786209046MEDINA                     CAMARILLO                  MA DEL ROSARIO             00945900000010028082017000  080000014088103                     9
R143868210335169470727RODRIGUEZ                  BUSTOS                     EMMANUEL                   00945900000010028082017000  080000014137403                     9
R143868210367876852673GOMEZ                      CRUZ                       CLAUDIO FRANCISCO          00945900000010028082017000  080000014137503                     9
R143868210304806330439SALAS                      MARTINEZ                   ALFREDO                    00945900000010028082017000  080000014137603                     9
