Y607431310462168712305SEVILLA                    MENDEZ                     JULIO CESAR                02925500000010004032025000  080000009032503                     9
Y607431310418190539967CAMPOY                     CHAVEZ                     WENDY VANESA               02925500000010004032025000  080000009038103                     9
Y607431310416998315457CAMPOS                     BECERRIL                   BENITO                     02925500000010004032025000  080000015001703                     9
