Y462621510948119415239VALENCIA                   TRUJILLO                   JOSE DE JESUS              00945900000010018012017000  080000021055203                     9
Y462621510918149343529LAUREANO                   CRUZ                       FRANCO GERMAN              00945900000010018012017000  080000021134303                     9
Y462621510920169634803MENDEZ                     RIVERA                     LUCAS ANTONIO              00945900000010018012017000  080000021150703                     9
