R143868210304906848124SANTOYO                    RAMIREZ                    ROSA MARIA                 00945900000010005072017000  080000014134003                     9
R143868210357159680164GARCIA                     GARCIA                     DANIEL                     00945900000010005072017000  080000014135303                     9
R143868210304128836790DAVALOS                    ARAMBULA                   ALEJANDRO                  00945900000010005072017000  080000014135403                     9
R143868210375119407049MONCADA                    MACIAS                     SERGIO ALBERTO             00945900000010005072017000  080000014135503                     9
