Y605571210042876520059ROSALES                    RIVERA                     VICTOR RUBEN               00945900000010027102016000  080000009652703                     9
Y605571210018149046932HERNANDEZ                  MOJICA                     RODRIGO                    00945900000010027102016000  080000009652803                     9
Y605571210005159302834BAUTISTA                   ROMERO                     ERIKA                      00945900000010027102016000  080000009652903                     9
Y605571210002166461398ROMAN                      TINOCO                     DAVID                      00945900000010027102016000  080000009653003                     9
Y605571210094128803700GAMBOA                     MATIAS                     MARIANA                    00945900000010027102016000  080000015150403                     9
Y605571210030078924658GONZALEZ                   RIOS                       JESUS                      00945900000010027102016000  080000015184203                     9
Y605571210007089203124ZARAGOZA                   CENTENO                    DANIELA SARAI              00945900000010027102016000  080000015184303                     9
Y605571210094129034529AGUILAR                    GONZALEZ                   MARIA ALEJANDRA            00945900000010027102016000  080000015184403                     9
Y605571210014704411512RIOS                       DIAZ                       PAULINO                    00945900000010027102016000  080000019090503                     9
Y605571210043998353528GUTIERREZ                  HERNANDEZ                  NORMA ALICIA               00945900000010027102016000  080000019090603                     9
Y605571210043028413805ELIZONDO                   OJEDA                      NANCY JUDITH               00945900000010027102016000  080000019090703                     9
Y605571210011836306842ACOSTA                     DE LOS SANTOS              SALVADOR MANUEL            00945900000010027102016000  080000019090803                     9
Y605571210014119454594ECHEGARAY                  PEREZ                      ALAN MAURICIO              00945900000010027102016000  080000022051703                     9
Y605571210094128910075GARCIA                     LOPEZ                      EDGAR EDUARDO              00945900000010027102016000  080000022051803                     9
Y605571210045007502557PEREZ                      RANGEL                     LOURDES ARACELI            00945900000010027102016000  080000022051903                     9
