Y605571210039978053658GONZALEZ                   HUERTA                     YOLANDA                    00945900000010020102016000  080000009040302                     9
Y605571210020079201073ALCANTARA                  HINOJOSA                   CARLOS ANTONIO             00945900000010020102016000  080000009520903                     9
Y605571210096129780779ORTEGA                     AVALOS                     JESUS KEVIN                00945900000010020102016000  080000009651603                     9
Y605571210096977301207RODRIGUEZ                  MORALES                    ALBERTO                    00945900000010020102016000  080000009651703                     9
Y605571210096047902398OSORIO                     CORTES                     LAURA                      00945900000010020102016000  080000009651803                     9
Y605571210016169719628VALDEZ                                                JUANFER                    00945900000010020102016000  080000009651903                     9
Y605571210005159722155GUZMAN                     GARCIA                     MARIA ELISA                00945900000010020102016000  080000011072703                     9
Y605571210012128818874JIMENEZ                    VASQUEZ                    JORGE LUIS                 00945900000010020102016000  080000011084303                     9
Y605571210043079001830VENEGAS                    MENDOZA                    JESUS                      00945900000010020102016000  080000019089903                     9
Y605571210043796219673MEZA                       CASTAÑEDA                  RICARDO                    00945900000010020102016000  080000019090003                     9
Y605571210023876705056FELIX                      REATIGA                    HECTOR MANUEL              00945900000010020102016000  080000025010403                     9
Y605571210009129483377CHAPA                      SANCHEZ                    JESUS NATANAEL             00945900000010020102016000  080000028036203                     9
Y605571210067118909109DE LA ROSA                 CRUZ                       ARGENIS MANUEL             00945900000010020102016000  080000030127103                     9
