Y605571210001027900362CRUZ                       CHINO                      JAVIER                     00945900000010030062016000  080000009434403                     9
Y605571210005159331452SAN JUAN                   HERRERA                    UBALDO                     00945900000010030062016000  080000009622603                     9
Y605571210062169520483FRANCO                     GOMEZ                      USSIEL                     00945900000010030062016000  080000009622703                     9
Y605571210004167952961FLORES                     DOMINGO                    ELPIDIO                    00945900000010030062016000  080000009622803                     9
Y605571210056169731157MORALES                    REYES                      BRENDA VIRIDIANA           00945900000010030062016000  080000009622903                     9
Y605571210042038500155ROBERTO                    ARGUELLO                   CORAL                      00945900000010030062016000  080000015167303                     9
Y605571210090008347107MARTINEZ                   SOSA                       MIGUEL ANGEL               00945900000010030062016000  080000015177603                     9
Y605571210047139541925GLORIA                     SAAVEDRA                   ABELARDO                   00945900000010030062016000  080000019079403                     9
Y605571210043887112795MAYO                       SOLIS                      FRANCISCO JAVIER           00945900000010030062016000  080000019081703                     9
Y605571210047907449673ZAMORA                     RAMIREZ                    ALMA VERONICA              00945900000010030062016000  080000019081803                     9
Y605571210011998125360LOPEZ                      GOMEZ                      FLOR VERONICA              00945900000010030062016000  080000023019903                     9
Y605571210082017511179MONTIEL                    LOPEZ                      JOSE ALBERTO               00945900000010030062016000  080000023029703                     9
Y605571210082139104416ALBORNOZ                   CHAN                       FILIBERTO                  00945900000010030062016000  080000023029803                     9
Y605571210088856606707VAZQUEZ                    CHAVEZ                     MARIA DE LOS ANGELES       00945900000010030062016000  080000023029903                     9
Y605571210082078519921DE LA CRUZ                 MARQUEZ                    ADAN                       00945900000010030062016000  080000023030003                     9
Y605571210003159542582VELAZQUEZ                  CRISOSTOMO                 DIANA LIZBETH              00945900000010030062016000  080000023030103                     9
Y605571210067947755590LUIS                       VAZQUEZ                    DESIDERIO                  00945900000010030062016000  080000030001302                     9
