Y605571210028967909848ZARATE                     MORENO                     PAOLA                      00945900000010012102016000  080000009040102                     9
Y605571210085169803542GARCIA                     GARCIA                     YIBRAN CESAR               00945900000010012102016000  080000009650503                     9
Y605571210016947604662SOTELO                     ZEPEDA                     MIGUEL ANGEL               00945900000010012102016000  080000015183203                     9
Y605571210001947703466CHAVEZ                     CUEVAS                     MIREYA                     00945900000010012102016000  080000015183403                     9
Y605571210003897318865ROCHA                      RUVALCABA                  ROSENDO                    00945900000010012102016000  080000019088803                     9
Y605571210043016704546PIÒA                       GUEVARA                    EDNA MARCELA               00945900000010012102016000  080000019088903                     9
Y605571210083997906710DE LA CRUZ                 MENDEZ                     MARIO                      00945900000010012102016000  080000023036303                     9
Y605571210071129124500SANCHEZ                    CONTRERAS                  JEREMIAS                   00945900000010012102016000  080000023036403                     9
Y605571210017169610452VERGARA                    TAGAL                      LUIS ALBERTO               00945900000010012102016000  080000030126703                     9
