A482760210352078901916CORONADO                   TREJO                      RAFAEL DE JESUS            00945900000010008122016000  080000006002903                     9
A482760210352089000526RODRIGUEZ                  HERNANDEZ                  ADAN                       00945900000010008122016000  080000006003103                     9
A482760210352139408075AVALOS                     AMEZCUA                    JAIME                      00945900000010008122016000  080000006003603                     9
