Y462621510948128200465HERRERA                    TELLEZ                     ALEJANDRO                  00945900000010024072017000  080000021154903                     9
Y462621510948127800737FLORES                     HERNANDEZ                  PABLO                      00945900000010024072017000  080000021171103                     9
Y462621510948068725786MONTEALEGRE                FERIA                      PEDRO                      00945900000010024072017000  080000021171203                     9
