Z064567510812897198946NERI                       CANO                       CLAUDIA VICTORIA           00945900000010029052017000  080000011001902                     9
Z064567510854927277175ZAMORA                     MEJIA                      JOSE GUADALUPE             00945900000010029052017000  080000011099703                     9
Z064567510812987868614PRADO                      VARGAS                     PEDRO                      00945900000010029052017000  080000011099803                     9
