R143868210310158938786CUEVAS                     ARELLANO                   SANDRA DENISSE             00945900000010024102016000  080000014111003                     9
R143868210304138822939GOMEZ                      DE LA CRUZ                 FERNANDO                   00945900000010024102016000  080000014122503                     9
R143868210304089255881PAZ                        ANDARDE                    JESUS EVERARDO             00945900000010024102016000  080000014122603                     9
