Y605571210025058716967IBARRA                     OSEQUERA                   LUIS ALBERTO               01194600000010031082016000  080000002050403                     9
Y605571210021008400174LANDA                      MAGAÑA                     MIGUEL ANGEL               01194600000010031082016000  080000002050503                     9
Y605571210003158231567CIRILO                     BARRERA                    MACRINA                    01194600000010031082016000  080000002050603                     9
Y605571210071027300194ZUVIRIE                    SANTOS                     GRINDELIO                  00945900000010031082016000  080000007006503                     9
Y605571210071057000219GOMEZ                      RAMIREZ                    ELIZABETH                  00945900000010031082016000  080000007007203                     9
Y605571210039048404477LUCAS                      PATIÑO                     JUAN                       00945900000010031082016000  080000009641503                     9
Y605571210001916904558PEREZ                      GARCIA                     MARVIN ORLANDO             00945900000010031082016000  080000009641703                     9
Y605571210096109241347GARCIA                     HERNANDEZ                  CRUZ ALBERTO               00945900000010031082016000  080000009641803                     9
Y605571210038159300458GARCIA                     TEJADA                     ADRIAN                     00945900000010031082016000  080000009641903                     9
Y605571210014897224268ONTIVEROS                  PRADO                      JOSE DE JESUS              00945900000010031082016000  080000011083603                     9
Y605571210010836805282GUDIÑO                     MUÑOZ                      JUAN                       01678400000010031082016000  080000015181303                     9
Y605571210023795818105VAZQUEZ                    LOPEZ                      ALBERTO                    00945900000010031082016000  080000025008303                     9
