Y605571210045078812299FLORES                     ALMAZAN                    ANA LILIA                  00945900000010024042017000  080000009043002                     9
Y605571210006786032851CAMARGO                    JARAMILLO                  JUAN MANUEL                00945900000010024042017000  080000009043102                     9
Y605571210096088947013OLGUIN                     AVELAR                     MARTIN                     00945900000010024042017000  080000009698903                     9
Y605571210030907332040SANDOVAL                   TREJO                      ALICIA                     00945900000010024042017000  080000009699003                     9
Y605571210094109563638CORTES                     RANGEL                     TANIA MARINA               00945900000010024042017000  080000013015103                     9
Y605571210013856555563RAMIREZ                    RIVEROS                    LETICIA                    00945900000010024042017000  080000013016203                     9
Y605571210094998106275BENITEZ                    HERNANDEZ                  JUAN                       00945900000010024042017000  080000015087803                     9
Y605571210064816318394VILLEGAS                   MONTIEL                    ALEJANDRO                  00945900000010024042017000  080000015131703                     9
Y605571210089846213984SALAS                      LOPEZ                      ARACELI                    00945900000010024042017000  080000015147003                     9
Y605571210092008250729LOPEZ                      MONTES                     ALINE JANET                00945900000010024042017000  080000015191703                     9
Y605571210002179475559CARRILLO                   HERNANDEZ                  DANIELA                    00945900000010024042017000  080000015192203                     9
Y605571210016998156422CONTRERAS                  BECERRIL                   GUSTAVO                    00945900000010024042017000  080000015192903                     9
Y605571210094109204951ORTEGA                     BALDERAS                   JOSE GIOVANNI              00945900000010024042017000  080000015204203                     9
Y605571210003178913616BADILLO                    GONZALEZ                   KAREN ADRIANA              00945900000010024042017000  080000015204303                     9
Y605571210016038705287MONTOYA                    ESPINOZA                   EFRAIN                     00945900000010024042017000  080000015204403                     9
Y605571210063149546952PEREZ                      CARRILLO                   EMMANUEL                   00945900000010024042017000  080000015204503                     9
Y605571210016028600076GONZALEZ                   ROSALES                    JUAN                       00945900000010024042017000  080000015204603                     9
Y605571210012169008948MORENO                     MORENO                     ROSALINO                   00945900000010024042017000  080000019094703                     9
Y605571210043907377725JERONIMO                   RODRIGUEZ                  OLGA LIDIA                 00945900000010024042017000  080000019108703                     9
Y605571210067089032188DE LA ROSA                 VELAZQUEZ                  RAYMUNDO                   00945900000010024042017000  080000019108803                     9
Y605571210074149552171VILLANUEVA                 SANCHEZ                    MARTIN ALEJANDRO           00945900000010024042017000  080000019108903                     9
Y605571210017169544925RODRIGUEZ                  GONZALEZ                   ALONDRA                    00945900000010024042017000  080000022060803                     9
Y605571210008159604936TZAB                       MUGARTE                    ROBERTO ADRIAN             00945900000010024042017000  080000023045303                     9
Y605571210082917243659CHAY                       DZUL                       MARIA SILVIA               00945900000010024042017000  080000023045403                     9
