Y605571210021038467169GOMEZ                      ORTIZ                      JAIME IVAN                 00945900000010010042017000  080000007005903                     9
Y605571210042028600676ANGELES                    PEÑALOZA                   YESSENIA                   00945900000010010042017000  080000009694403                     9
Y605571210002178673634GONZALEZ                   MARTINEZ                   SHEILA DE JESUS            00945900000010010042017000  080000009694503                     9
Y605571210027169668251MANZANO                    GODEN                      JOSE ANGEL                 00945900000010010042017000  080000009694603                     9
Y605571210043139513626MEJORADO                   HERNANDEZ                  ANDREA                     00945900000010010042017000  080000019002902                     9
Y605571210005179619688CORTEZ                     JIMENEZ                    GERARDO ANDRES             00945900000010010042017000  080000023044603                     9
Y605571210035149687374LARA                       CLAUDIO                    MIGUEL ALEJANDRO           00945900000010010042017000  080000023044703                     9
Y605571210041075901383LARA                       PALMA                      ANGEL DE JESUS             00945900000010010042017000  080000028040603                     9
