A836767410921129394546PACHECO                    CORRALES                   REYNA ISABEL               00945900000010026062017000  080000002051603                     9
A836767410921007634591CASTRO                     VALENZUELA                 MARLEN                     00945900000010026062017000  080000002057803                     9
A836767410919159175470PANIAGUA                   GUADARRAMA                 ANGEL MAURICIO             00945900000010026062017000  080000002057903                     9
A836767410933959500894IBARRA                     NIETO                      ANGEL ANTONIO              00945900000010026062017000  080000008076203                     9
