Y462621510902907425819VAZQUEZ                    SANCHEZ                    JORGE                      00945900000010025082016000  080000021153103                     9
Y462621510948028103108IGNACIO                    TOMAS                      ROBERTO                    00945900000010025082016000  080000021153203                     9
Y462621510948007710352BENITEZ                    PALAFOX                    HECTOR MANUEL              00945900000010025082016000  080000021153303                     9
