Y605571210065078928028RAMIREZ                    MARTINEZ                   LUIS ALBERTO               00945900000010029052017000  080000009708803                     9
Y605571210010867017781LUNA                       CHAEZ                      GUSTAVO                    00945900000010029052017000  080000009708903                     9
Y605571210043765848429PEREZ                      EGUIA                      MARIANO                    00945900000010029052017000  080000019114503                     9
Y605571210032048608353NAJERA                     SALAZAR                    VICTOR HUGO                00945900000010029052017000  080000019114603                     9
Y605571210067119409984ORTIZ                      DIAZ                       CANDELARIA GYSELL          00945900000010029052017000  080000019114703                     9
Y605571210071107101181ANGEL                      OCAÒA                      GUILLERMO ALBERTO          00945900000010029052017000  080000022062503                     9
Y605571210065088946432SANCHEZ                    CORTES                     LUIS FERNANDO              00945900000010029052017000  080000023046603                     9
Y605571210072836623263POSADAS                    QUINTANA                   ADOLFO                     00945900000010029052017000  080000023046703                     9
Y605571210065816108479PAEZ                       CERVERA                    TAYNE                      00945900000010029052017000  080000030104703                     9
Y605571210003179057892GALLARDO                   GOMEZ                      GUADALUPE PAZ              00945900000010029052017000  080000030150203                     9
Y605571210009048706262SUAREZ                     AGUIRRE                    JOSE LUIS                  00945900000010029052017000  080000030150303                     9
