Y605571210096139108748GUADARRAMA                 LOPEZ                      MIGUEL ANGEL               00945900000010015092016000  080000009577003                     9
Y605571210096119242954GUZMAN                     ANTONIO                    RICARDO                    00945900000010015092016000  080000009605303                     9
Y605571210020139507352ANTONIO                    DE LA CRUZ                 ERIKC                      00945900000010015092016000  080000009645203                     9
Y605571210096139357790ESPINOZA                   DOMINGUEZ                  JESUS SALVADOR             00945900000010015092016000  080000009645303                     9
Y605571210042866911433GONZALEZ                   HERNANDEZ                  JUAN MARCELO               00945900000010015092016000  080000009645403                     9
Y605571210001877014819VERA                       SUAREZ                     VICTOR HUGO                00945900000010015092016000  080000009645503                     9
Y605571210028937521582RAMOS                      HERNANDEZ                  JUAN MANUEL                00945900000010015092016000  080000009645603                     9
Y605571210001856755960MARIN                      PINEDO                     DAVID CRISTOBAL            00945900000010015092016000  080000015123703                     9
Y605571210082119511716LOPEZ                      BRITO                      DIEGO                      00945900000010015092016000  080000023033403                     9
Y605571210082078864939GATICA                     PALMA                      IRVING MANUEL              00945900000010015092016000  080000023033603                     9
Y605571210084139321370MARTIN                     POOL                       LILIA ESTHER               00945900000010015092016000  080000023033703                     9
Y605571210032169850560LOPEZ                      LOPEZ                      LUCIA                      00945900000010015092016000  080000023033803                     9
Y605571210019169230703LOPEZ                      VAZQUEZ                    SIMON PEDRO                00945900000010015092016000  080000023033903                     9
Y605571210034169842134MENDEZ                     GOMEZ                      NALLELY BARBARA            00945900000010015092016000  080000023034003                     9
Y605571210005149263956DOMINGUEZ                  SANCHEZ                    PEDRO                      00945900000010015092016000  080000023034103                     9
Y605571210008169099770RAMOS                      SANTOS                     ITZEL IVONNE               00945900000010015092016000  080000030125403                     9
