A836767410971947811718VELASQUEZ                  DIAS                       CLAUDIO EFRAILAN           00945900000010008082017000  080000002022003                     9
A836767410923947870368GONZALEZ                   CABRERA                    PABLO                      00945900000010008082017000  080000002062003                     9
A836767410935988265175HERRERA                    AMBRIZ                     EUSEBIO                    00945900000010008082017000  080000008080103                     9
