A836767410933907354873REYES                      GALLEGOS                   MARIO ALBERTO              00945900000010018112016000  080000008048103                     9
A836767410933007803464SANCHEZ                    CHAVARRIA                  VICTOR HUGO                00945900000010018112016000  080000008065203                     9
A836767410933079176898OCHOA                      ARRIETA                    XOCHITL ESMERALDA          00945900000010018112016000  080000008065303                     9
A836767410935887153787CHAVEZ                     CERECERES                  DIANA                      00945900000010018112016000  080000008065403                     9
