Y605571210002177716632ROMO                       ALVARADO                   SERGIO                     00945900000010009022017000  080000009682403                     9
Y605571210005148980146ESPINOZA                   LLAMAS                     ISABEL                     00945900000010009022017000  080000009682503                     9
Y605571210001866635061OLMOS                      HERNANDEZ                  JUAN CARLOS                00945900000010009022017000  080000009682603                     9
Y605571210096088945900ENCISO                     MARQUEZ                    JOSE LUIS                  00945900000010009022017000  080000009682703                     9
Y605571210045068600126OLASCUAGA                  VAZQUEZ                    MIGUEL ANGEL               00945900000010009022017000  080000009682803                     9
Y605571210073159706362VIZCAINO                   MENDOZA                    MIGUEL ANGEL               00945900000010009022017000  080000009682903                     9
Y605571210020017600352HERNANDEZ                  HERRERA                    DANIEL OMAR                00945900000010009022017000  080000009683003                     9
Y605571210042937601518CALDERON                   MORA                       LUIS JESUS                 00945900000010009022017000  080000009683103                     9
Y605571210092139510462PONCE                      TORRES                     AARON                      00945900000010009022017000  080000015138803                     9
Y605571210043058748195MONTALVO                   SILVA                      JOSE ANGEL                 00945900000010009022017000  080000019101703                     9
Y605571210043058717919SANCHEZ                    TREVIÒO                    ROOSVELT ARMANDO           00945900000010009022017000  080000019101803                     9
Y605571210062169485265GARCIA                     SANDOVAL                   ANTONIO DE JESUS           00945900000010009022017000  080000027057703                     9
Y605571210009036904010GAYTAN                                                JUAN CARLOS                00945900000010009022017000  080000028039203                     9
