Y605571210045008335452PALOMINO                   MARTINEZ                   DAVID                      00945900000010007032017000  080000009687203                     9
Y605571210094008407671MAGA—A                     TORRES                     EDUARDO                    00945900000010007032017000  080000009687303                     9
Y605571210039907257040MERAZ                      MARTINEZ                   JUAN CARLOS                00945900000010007032017000  080000009687403                     9
Y605571210050149537644GARDUÒO                    PALOMINO                   BRAYAN                     00945900000010007032017000  080000009687503                     9
Y605571210039028402707JUAREZ                     MAQUITICO                  NOE                        00945900000010007032017000  080000009687603                     9
Y605571210045008127917TREJO                      SANTOS                     GUSTAVO ALBERTO            00945900000010007032017000  080000009687703                     9
Y605571210007876934394CABELLERO                  CELIS                      ANDRES                     00945900000010007032017000  080000009687803                     9
Y605571210005179905806SANCHEZ                    CRUZ                       ANA FABIOLA                00945900000010007032017000  080000009687903                     9
Y605571210013139859154TREJO                      ALVAREZ                    JOSUE IBRAIN               00945900000010007032017000  080000015189703                     9
Y605571210092917205202REYES                      ESQUIVEL                   RAUL                       00945900000010007032017000  080000015196703                     9
Y605571210016129202491ARANDA                     GARCIA                     NESTOR ALBERTO             00945900000010007032017000  080000015196803                     9
Y605571210002159257480RODRIGUEZ                  DOMINGUEZ                  MARIA LIZBETH              00945900000010007032017000  080000015196903                     9
Y605571210037007405923HERNANDEZ                  GONZALEZ                   LAURA                      00945900000010007032017000  080000015197003                     9
Y605571210020018505618FLORES                     GUERRERO                   ARTURO                     00945900000010007032017000  080000015197303                     9
Y605571210046149643622LOPEZ                      PEREZ                      CARLOS DANIEL              00945900000010007032017000  080000023043503                     9
Y605571210083957943158RUIZ                       OSORIO                     SALVADOR                   00945900000010007032017000  080000027060703                     9
Y605571210003179221753LANDA                      LAGUNES                    ISABEL MONSERRAT           00945900000010007032017000  080000030002302                     9
Y605571210067139441389CRUZ                       MARTINEZ                   LEONARDO                   00945900000010007032017000  080000030073003                     9
Y605571210024058404435NEPOMUCENO                 MONTALVO                   RAUL                       00945900000010007032017000  080000030138303                     9
Y605571210067058624064LOPEZ                      MONTIEL                    MARIA EDUWIGES             00945900000010007032017000  080000030138403                     9
Y605571210048048648645VERA                       RIVERA                     VICTOR EDUARDO             00945900000010007032017000  080000030138503                     9
Y605571210067987206082ZOTO                       MONTES                     VENANCIO CLAUDIO           00945900000010007032017000  080000030138603                     9
Y605571210035149110237HERNANDEZ                  CAMPOS                     NEIBA LICIA                00945900000010007032017000  080000030138703                     9
Y605571210067008230632GUTIERREZ                  BRAVO                      BERNARDO                   00945900000010007032017000  080000030138803                     9
Y605571210033947784634ROSAS                      PIMENTEL                   OMAR                       00945900000010007032017000  080000030138903                     9
Y605571210067078908026FLORES                     HERNANDEZ                  FRANCISCO JOSE             00945900000010007032017000  080000030139003                     9
Y605571210067017704551AQUINO                     FLORES                     DANIEL                     00945900000010007032017000  080000030139103                     9
Y605571210067129003173BASILIO                    MODESTO                    ARACELI                    00945900000010007032017000  080000030139203                     9
Y605571210067796328036LOPEZ                      GOMEZ                      JOSE ARMANDO               00945900000010007032017000  080000030139303                     9
Y605571210067119023132CRUZ                       MARTINEZ                   MARTIN                     00945900000010007032017000  080000030139403                     9
Y605571210078169853161ZEPAHUA                    HUERTA                     JANET                      00945900000010007032017000  080000030139503                     9
Y605571210067997003610ALBINO                     OSORIO                     ELIAS DELFINO              00945900000010007032017000  080000030139603                     9
Y605571210067887100344ROSAS                      LOPEZ                      BONIFACIO                  00945900000010007032017000  080000030139703                     9
Y605571210067058513457PEREZ                      LOPEZ                      ANTONIO DE JESUS           00945900000010007032017000  080000030139803                     9
Y605571210048008347717MARTINEZ                   BELLO                      ARTURO GEOVANNI            00945900000010007032017000  080000030139903                     9
Y605571210067877022599HERNANDEZ                  RANGEL                     JUAN ANGEL                 00945900000010007032017000  080000030140003                     9
Y605571210057159664929HERNANDEZ                  CAMPOS                     JUAN ANTONIO               00945900000010007032017000  080000030140103                     9
