Y605571210051139333267RANGEL                     DIAZ DE LEON               ERICK FERNANDO             00945900000010019122016000  080000001007503                     9
Y605571210094098924528CASTRO                     GARDU—O                    KAREN                      00945900000010019122016000  080000009041102                     9
Y605571210094088923605GUZMAN                     FLORES                     DANIEL                     00945900000010019122016000  080000009583503                     9
Y605571210042876904017AGUILAR                    CARDENAS                   LUIS                       00945900000010019122016000  080000009670503                     9
Y605571210012976113816LOPEZ                      TORRES                     JUAN                       00945900000010019122016000  080000011089303                     9
Y605571210013129506476MENDEZ                     GARCIA                     MIRIAM MARLEN              00945900000010019122016000  080000013013103                     9
Y605571210090119231745LIMA                       BAUTISTA                   OSCAR                      00945900000010019122016000  080000015187003                     9
Y605571210092987941892VARGAS                     ZABALA                     RUBEN                      00945900000010019122016000  080000015187103                     9
Y605571210094129431014YAÒEZ                      RIVERA                     GABRIEL                    00945900000010019122016000  080000015187203                     9
Y605571210065907127693MARURI                     GOMEZ                      JULIO CESAR                00945900000010019122016000  080000019097003                     9
Y605571210061907405486FERMIN                     BADILLO                    REYES JAVIER               00945900000010019122016000  080000029006803                     9
Y605571210067107000415MARTINEZ                   CONZATTI                   FEDERICO                   00945900000010019122016000  080000030132203                     9
Y605571210002957971621CASIANO                    GARCIA                     RENE                       00945900000010019122016000  080000030132303                     9
Y605571210065129482058SALAZAR                    SIMBRON                    LEONIDES                   00945900000010019122016000  080000030132403                     9
