Y605571210083129213753LOPEZ                      DE DIOS                    LEYLA GABRIELA             00945900000010007122016000  080000004009903                     9
Y605571210043079002838SANCHEZ                    GARCIA                     FRANCISCO JAVIER           00945900000010007122016000  080000005012003                     9
Y605571210096087302558AVILA                      SANCHEZ                    LAURA LETICIA              00945900000010007122016000  080000009666903                     9
Y605571210007977709570PEREZ                      PACHECO                    GABRIEL                    00945900000010007122016000  080000009667403                     9
Y605571210045098958072PEREZ                      DILIEGROS                  MIGUEL ANGEL               00945900000010007122016000  080000009667503                     9
Y605571210012048765643VELAZQUEZ                  MARTINEZ                   KARLA VIRIDIANA            00945900000010007122016000  080000011001202                     9
Y605571210012109139019ALVAREZ                    ORTEGA                     MARIO ALBERTO JORGE        00945900000010007122016000  080000011091503                     9
Y605571210012079063504NAJAR                      LARA                       JUAN ANTONIO               00945900000010007122016000  080000011091603                     9
Y605571210094877102908RAMIREZ                    MEJIA                      GILBERTO                   00945900000010007122016000  080000015186503                     9
Y605571210047058930232SALINAS                    VELAZQUEZ                  JULIO ALBERTO              00945900000010007122016000  080000019095203                     9
Y605571210043119022606LOPEZ                      GUERRERO                   FRANCISCO JAVIER           00945900000010007122016000  080000019095403                     9
Y605571210043977651538LOPEZ                      HUERTA                     JORGE                      00945900000010007122016000  080000019095503                     9
Y605571210043988035119HERNANDEZ                  LOPEZ                      JOSE EDUARDO               00945900000010007122016000  080000019095603                     9
Y605571210065109046311VENEGAS                    HERNANDEZ                  CESAR ATHELMO              00945900000010007122016000  080000019095703                     9
Y605571210082068211257CRUZ                       GUZMAN                     CARLOS                     00945900000010007122016000  080000023039603                     9
Y605571210082088968142CANDELERO                  CHICO                      LUIS ENRIQUE               00945900000010007122016000  080000023039703                     9
Y605571210082109226991CHAN                       CANUL                      JESUS ALEJANDRO            00945900000010007122016000  080000023039803                     9
Y605571210047018439928FLORES                     GUERRERO                   JORGE ALBERTO              00945900000010007122016000  080000028037103                     9
Y605571210065119108994CLARA                      ALARCON                    ROBERTO                    00945900000010007122016000  080000030131503                     9
Y605571210068149550649XOLO                       CASTRO                     ABELARDO                   00945900000010007122016000  080000030131603                     9
