R143868210372957924102MOLINA                     DORANTES                   ARTURO                     00945900000010009082016000  080000014118703                     9
R143868210375018212391FLORES                     LOPEZ                      DANIEL                     00945900000010009082016000  080000014118803                     9
R143868210354776100767SOLANO                     PULIDO                     JOSE JESUS                 00945900000010009082016000  080000014118903                     9
