Y605571210096109256915HERNANDEZ                  BOHORQUEZ                  MARTIN                     00945900000010029042016000  080000009614403                     9
Y605571210017169449885ROSAS                      FERNANDEZ                  VICTOR                     00945900000010029042016000  080000009614503                     9
Y605571210004108861800FERNANDEZ                  PEREZ                      JOSE RAMON                 00945900000010029042016000  080000009614603                     9
Y605571210008169381038VELAZQUEZ                  PEÒUELAS                   JORGE ALBERTO              00945900000010029042016000  080000011082803                     9
Y605571210075129337442HERNANDEZ                  QUIRINO                    JAVIER                     00945900000010029042016000  080000014112203                     9
Y605571210024957514482GARCIA                     HERNANDEZ                  ALVARO JOSE ALONSO         00945900000010029042016000  080000015129603                     9
Y605571210016058612199SANCHEZ                    GONZALEZ                   MARTIN                     00945900000010029042016000  080000015133703                     9
Y605571210014088823506RAMIREZ                    CERVANTES                  MIGUEL ANGEL               00945900000010029042016000  080000022001502                     9
Y605571210065028352147GUZMAN                     GOMEZ                      CAMILO ANTONIO             00945900000010029042016000  080000022042603                     9
