Y605571210017149667168SOTO                       ARENAS                     ADRIAN                     00945900000010001062017000  080000009680003                     9
Y605571210096139435257VILLANUEVA                 MENDEZ                     FEDERICO                   00945900000010001062017000  080000009703203                     9
Y605571210017179750207ARROYO                     ARREOLA                    DIANA YAMILE               00945900000010001062017000  080000009709403                     9
Y605571210092978151139ORNELAS                    CAMPOS                     SILVIA ARACELI             00945900000010001062017000  080000015195003                     9
Y605571210006169877591AGUILAR                    MARTINEZ                   EMMANUEL                   00945900000010001062017000  080000015196003                     9
Y605571210092897256928FUENTES                    RODRIGUEZ                  RAFAEL                     00945900000010001062017000  080000015211803                     9
Y605571210092129229735REYES                      PEREZ                      ERICK EMANUEL              00945900000010001062017000  080000015211903                     9
Y605571210043806413365VAZQUEZ                    FRANCO                     JORGE                      00945900000010001062017000  080000019114903                     9
Y605571210064169528938ARENA                      ARIAS                      OBET                       00945900000010001062017000  080000019115003                     9
Y605571210081137600896DIAZ                       SANTIAGO                   ESPERANZA                  00945900000010001062017000  080000023046903                     9
Y605571210067008317694PEREZ                      CASTRO                     MOISES                     00945900000010001062017000  080000030150403                     9
Y605571210027169539338ROJAS                      HURTADO                    JOSUE DANIEL               00945900000010001062017000  080000030150503                     9
