Z064567510842937804096MONTES                     ARROYO                     MARIA DEL CARMEN           00945900000010026122016000  080000011001402                     9
Z064567510857078905767MUÑOZ                      ARREDONDO                  DAVID                      00945900000010027122016000  080000011090403                     9
Z064567510812866506426NAVARRO                    MARES                      MIGUEL                     00945900000010026122016000  080000011092103                     9
Z064567510812068926091GUTIERREZ                  RODRIGUEZ                  JUAN MANUEL                00945900000010027122016000  080000011092203                     9
