Y605571210010836320928GONZALEZ                   RODRIGUEZ                  PASCUAL                    00945900000010021122016000  080000009670703                     9
Y605571210001957509415ARTEAGA                    MEJIA                      ROBERTO                    00945900000010021122016000  080000009670803                     9
Y605571210005907255714JAIMES                     ESQUEDO                    MARIA DE LOURDES TRINIDAD  00945900000010021122016000  080000009670903                     9
Y605571210068907430315GUDIÒO                     BENAVIDES                  ANA LILIA                  00945900000010021122016000  080000009671003                     9
Y605571210094007200994DE LA ROSA                 OSEGUERA                   HUMBERTO                   00945900000010021122016000  080000015187303                     9
Y605571210005168530367MONTOYA                    VITALES                    CLARIBEL                   00945900000010021122016000  080000019097103                     9
Y605571210067987927281GALLARDO                   ZAMUDIO                    JOSE ALFREDO               00945900000010021122016000  080000030100203                     9
Y605571210067886615128TORRES                     VAZQUEZ                    CLEMENTE                   00945900000010021122016000  080000030107503                     9
