Y462621510911169695803CAMPUZANO                  MORALES                    JOSE ESTEBAN               00945900000010006102016000  080000021155703                     9
Y462621510950169683443ACOSTA                     LARA                       DANIEL ISAIAS              00945900000010006102016000  080000021155803                     9
Y462621510918149775670AVILA                      GARCIA                     SAUL                       00945900000010006102016000  080000021155903                     9
