Y605571210032998296266DEGOLLADO                  PADILLA                    FELIPE DE JESUS            00945900000010007072017000  080000005013203                     9
Y605571210030987817605ALVAREZ                    HERNANDEZ                  ERIKA MIREYA               00945900000010007072017000  080000009717003                     9
Y605571210013896822072AQUINO                     PEREZ                      CARLOS                     00945900000010007072017000  080000009717103                     9
Y605571210053169751491VARGAS                     LOPEZ                      KARLA LIZETH               00945900000010007072017000  080000009717203                     9
Y605571210030027304796AGUILAR                    CASTRO                     MARIA GRISELDA             00945900000010007072017000  080000009717303                     9
Y605571210003178620401RODRIGUEZ                  GARCIA                     FERMIN                     00945900000010007072017000  080000013017203                     9
Y605571210092967925501ALCANTARA                  DE LEON                    HERIBERTO                  00945900000010007072017000  080000015122803                     9
Y605571210030078924658GONZALEZ                   RIOS                       JESUS                      00945900000010007072017000  080000015184203                     9
Y605571210016058629508GUTIERREZ                  HERNANDEZ                  YOSHI PAULINA              00945900000010007072017000  080000015214003                     9
Y605571210047079126026ACOSTA                     RODRIGUEZ                  NANCY ARACELY              00945900000010007072017000  080000019117703                     9
Y605571210009968031196CARRANZA                   MESTA                      JUAN ANGEL                 00945900000010007072017000  080000019117903                     9
Y605571210043987946134TORRES                     GALVAN                     JOSE ANTONIO               00945900000010007072017000  080000019118003                     9
Y605571210043997822952GARCIA                     LUGO                       MARIA DEL REFUGIO          00945900000010007072017000  080000019118103                     9
Y605571210042169888197RUEDA                      IBARRA                     BRENDA ESMERALDA           00945900000010007072017000  080000022002402                     9
Y605571210038149158925FELIX                      VELARDE                    GRECIA YANURI              00945900000010007072017000  080000025018103                     9
Y605571210005168410420TEYSSIER                   RODRIGUEZ                  RAFAEL                     00945900000010007072017000  080000029006903                     9
Y605571210061977711557VAZQUEZ                    MONTIEL                    CESAR AGUSTIN              00945900000010007072017000  080000029007003                     9
