Y605571210096129401681FLORES                     ARRIETA                    JORGE ARMANDO              00945900000010027042016000  080000009613903                     9
Y605571210001129113682MEDINA                     OCHOA                      NATHALI LIZHAIRU           00945900000010027042016000  080000009614003                     9
Y605571210072008104381JIMENEZ                    OCHOA                      REY DAVID                  00945900000010027042016000  080000015171003                     9
Y605571210001038703359HERNANDEZ                  GONZALEZ                   ALFREDO                    00945900000010027042016000  080000015171103                     9
Y605571210043109428649LOPEZ                      CORONADO                   SERGIO DE JESUS            00945900000010027042016000  080000019076903                     9
Y605571210003998226041PARRA                      MORALES                    JORGE                      00945900000010027042016000  080000019077003                     9
Y605571210065876934277VARGAS                     SANTIAGO                   HUGO                       00945900000010027042016000  080000019077103                     9
Y605571210078109003141GUZMAN                     SANTAELLA                  JOSE ANTONIO               00945900000010027042016000  080000020025003                     9
Y605571210096937009858MENDOZA                    ESCOBEDO                   VERONICA                   00945900000010027042016000  080000022042303                     9
Y605571210010149761180LEON                       MONTEJO                    LUIS FERNANDO              00945900000010027042016000  080000030115103                     9
