Y605571210008149534706RAMIREZ                    LOPEZ                      CHRISTIAN ALFREDO          00945900000010011112016000  080000009657203                     9
Y605571210028067900697HUERTA                     QUIROZ                     GUADALUPE ITZEL            00945900000010011112016000  080000009657303                     9
Y605571210005159722775AVENDAÒO                   FERNANDEZ                  JUAN ANTONIO               00945900000010011112016000  080000009657403                     9
Y605571210020987815576BURGOA                     TAPIA                      ENRIQUE                    00945900000010011112016000  080000009657503                     9
Y605571210041129419960MARTINEZ                   HERNANDEZ                  BENIGNO                    00945900000010011112016000  080000009657603                     9
Y605571210096098604257CASTILLO                   RIVERA                     JUAN FRANCISCO             00945900000010011112016000  080000009657703                     9
Y605571210096108814722RUIZ                       RAMOS                      LEIDY LAURA                00945900000010011112016000  080000009657803                     9
Y605571210045129241357BRINGAS                    LUGOS                      MONTSERRAT                 00945900000010011112016000  080000009657903                     9
Y605571210012058942801ZAVALA                     CABRERA                    JAZMIN                     00945900000010011112016000  080000011001102                     9
Y605571210014785800476PEREZ                      BUSTAMANTE                 ROBERTO                    00945900000010011112016000  080000022038503                     9
Y605571210065129511575MORALES                    SARMIENTO                  RUBEN ALEJANDRO            00945900000010011112016000  080000022052303                     9
Y605571210012048708353VALLEJO                    DUARTE                     MARIO                      00945900000010011112016000  080000022052403                     9
Y605571210056159520438JACOBO                     JIMENEZ                    CINTHYA MICHEL             00945900000010011112016000  080000022052503                     9
Y605571210083027400445CAPDEPON                   MORENO                     JESUS                      00945900000010011112016000  080000023038003                     9
Y605571210002158624441FLORES                     SOLIS                      DOMINGO LUIS               00945900000010011112016000  080000023038103                     9
Y605571210065047203172LOPEZ                      REYES                      ROSA VIRGINIA              00945900000010011112016000  080000030127503                     9
