Y605571210018169246727DIAZ                       NICOLAS                    KAREN TATIANA              00945900000010029032017000  080000009691903                     9
Y605571210058149617456TRIANA                     ZARATE                     LUIS ANTONIO               00945900000010029032017000  080000009692503                     9
Y605571210028119218924ESPINOSA                   TORRES                     JORGE ALFREDO              00945900000010029032017000  080000009692603                     9
Y605571210005129406236NICOLAS                    PEREZ                      ISRAEL SANTIAGO            00945900000010029032017000  080000009692703                     9
Y605571210002179996125ABURTO                     CRISANTO                   EDGAR GERARDO              00945900000010029032017000  080000009692803                     9
Y605571210028926401127MONROY                     AVILES                     BLANCA MARGARITA           00945900000010029032017000  080000015200503                     9
Y605571210092977901401FERNANDEZ                  BUSTAMANTE                 ROSALIA                    00945900000010029032017000  080000015200603                     9
Y605571210014078830917QUEZADA                    RIVERA                     FRANCISCO JAVIER           00945900000010029032017000  080000022060203                     9
Y605571210009037806347SANTIAGO                   OLMOS                      JACOBO                     00945900000010029032017000  080000028040503                     9
Y605571210005149141672SANTOS                     CRUZ                       ALBERTO GERMAN             00945900000010029032017000  080000030144303                     9
Y605571210021069050603PRIETO                     MORALES                    EMMANUEL                   00945900000010029032017000  080000030144403                     9
Y605571210074159707749CRUZ                       LEON                       JONADAT ALEJANDRO          00945900000010029032017000  080000030144503                     9
Y605571210067917106238RODRIGUEZ                  PANTOJA                    ADRIAN                     00945900000010029032017000  080000030144603                     9
Y605571210067088525562ESPINOSA                   HERNANDEZ                  OMAR                       00945900000010029032017000  080000030144703                     9
