A836767410910179515423BENITEZ                    BLANCAS                    FRANCISCO JAVIER           00945900000010016062017000  080000002057003                     9
A836767410910179675797BLANCAS                    GONZALEZ                   ANTONIO                    00945900000010016062017000  080000002057103                     9
A836767410933119448943RUIZ                       ASTORGA                    LUIS CARLOS                00945900000010016062017000  080000008075803                     9
