Y605571210071048110119HERNANDEZ                  GOMEZ                      GERARDO ANTONIO            00945900000010009032017000  080000007017003                     9
Y605571210008149282918PEREZ                      VAZQUEZ                    CARMELA                    00945900000010009032017000  080000009688203                     9
Y605571210054169631139TORRES                     FUERTE                     ARANXA GUADALUPE           00945900000010009032017000  080000009688303                     9
Y605571210065846625757SALAZAR                    TICANTE                    HERMINIO                   00945900000010009032017000  080000009688403                     9
Y605571210045907021872HERNANDEZ                  CEPEDA                     VICTOR MANUEL              00945900000010009032017000  080000009688503                     9
Y605571210010179833685VAZQUEZ                    RAMIREZ                    RODRIGO                    00945900000010009032017000  080000009688603                     9
Y605571210005169055257GARCIA                     MENDOZA                    MARIA NALLELY              00945900000010009032017000  080000009688703                     9
Y605571210002178974867RAMIREZ                    VASQUEZ                    ALFREDO                    00945900000010009032017000  080000009688803                     9
Y605571210067087403431BERNARDO                   ACOSTA                     GABRIEL                    00945900000010009032017000  080000015197603                     9
Y605571210037018506420DAVILA                     PEREZ                      MARLENE                    00945900000010009032017000  080000015197803                     9
Y605571210025169224083RAMIREZ                    RODRIGUEZ                  DANIELA MARIBEL            00945900000010009032017000  080000019104603                     9
Y605571210002179555251RUBIO                      SILVERIO                   LUIS ANGEL                 00945900000010009032017000  080000019104703                     9
Y605571210021048114488ALMARAZ                    MIRANDA                    MARCOS                     00945900000010009032017000  080000022059003                     9
Y605571210055017505094TORRES                     HELENES                    RODRIGO WILFREDO           00945900000010009032017000  080000022059103                     9
Y605571210065139230828AMBROS                     CHIGO                      GILBERTO IVAN              00945900000010009032017000  080000030124303                     9
