Z064567510812856740415DE JULIAN                                             SEBASTIAN                  00945900000010014082017000  080000011097903                     9
Z064567510833897049012HERNANDEZ                  BANDA                      JUAN PEDRO                 00945900000010014082017000  080000011103503                     9
Z064567510802156944064EVARISTO                   SOTO                       MARIA ELENA                00945900000010014082017000  080000011103603                     9
