Y605571210071926936361IBARRA                     OLEA                       MARCO ANTONIO              00945900000010012072017000  080000007019203                     9
Y605571210071028120104LIMONES                    GONZALEZ                   JOSE ALBERTO               00945900000010012072017000  080000007019303                     9
Y605571210096008407767AVILA                      RODRIGUEZ                  CESAR                      00945900000010012072017000  080000009718303                     9
Y605571210025179900987PONCE                      FERMIN                     BRAYAN                     00945900000010012072017000  080000009718403                     9
Y605571210037058306137ALVAREZ                    CAMPOS                     MARIA DEL CARMEN           00945900000010012072017000  080000009718503                     9
Y605571210092128705875TRUJILLO                   GUTIERREZ                  CARLOS GERMAN              00945900000010012072017000  080000009718603                     9
Y605571210020947727549JOSE                       BECERRIL                   JORGE                      00945900000010012072017000  080000009718703                     9
Y605571210037169615202PEREZ                      GOMEZ                      GREGORIO SALOMON           00945900000010012072017000  080000016012003                     9
Y605571210047058930232SALINAS                    VELAZQUEZ                  JULIO ALBERTO              00945900000010012072017000  080000019095203                     9
Y605571210043088743174VEGA                       VEGA                       MOISES                     00945900000010012072017000  080000019118503                     9
Y605571210067785904326ANTONIO                    ALVARADO                   SANTIAGO                   00945900000010012072017000  080000023048803                     9
Y605571210082058003508REYES                      GARCIA                     EDUARDO                    00945900000010012072017000  080000023048903                     9
Y605571210023906907334HERNANDEZ                  MIGUEL                     RIGOBERTO                  00945900000010012072017000  080000025018203                     9
