Z064567510802167094248MAZARIEGOS                 DAMIAN                     JOSE PABLO                 00945900000010027042017000  080000011098103                     9
Z064567510875988152882ROCHA                      JIMENEZ                    MIGUEL ANGEL               00945900000010027042017000  080000011098203                     9
Z064567510812018358619TERONES                    MANDUJANO                  JAFET NICOLAS              00945900000010027042017000  080000011098303                     9
Z064567510812896520884VELEZ                      MENDOZA                    MIGUEL                     00945900000010027042017000  080000011098403                     9
