Y605571210016116801826PEÑA                       FERRER                     MANUEL                     01194600000010014072016000  080000002049403                     9
Y605571210045057203452GONZALEZ                   BOLAÑOS                    MARIA DEL CARMEN           00945900000010014072016000  080000009626303                     9
Y605571210007089002211MUÑOZ                      FLORES                     JUAN ALBERTO               00945900000010014072016000  080000009626403                     9
Y605571210094017302012MORALES                    ORTEGA                     OSCAR OSVALDO              00945900000010014072016000  080000009626503                     9
Y605571210011957613018RODRIGUEZ                  MORALES                    SILVIA RUTH                00945900000010014072016000  080000009626603                     9
Y605571210003149694311HERNANDEZ                  HERNANDEZ                  SALATIEL                   00945900000010014072016000  080000019083003                     9
Y605571210043886567940ESPINOSA                   CASTILLEJA                 ROGELIO                    00945900000010014072016000  080000019083103                     9
Y605571210065139450012FLORES                     BAXIN                      RICARDO                    00945900000010014072016000  080000022047403                     9
Y605571210065119321480ESCRIBANO                  CUATZOZON                  MIGUEL ANGEL               00945900000010014072016000  080000022047503                     9
Y605571210011028407473MURCIA                     MONTER                     JESUS JAVIER               00945900000010014072016000  080000022047603                     9
Y605571210046159721128RODRIGUEZ                  PEREZ                      CESAR                      00945900000010014072016000  080000027050303                     9
Y605571210019159603844OVANDO                     DOMINGUEZ                  DANIEL                     00945900000010014072016000  080000027056803                     9
