Y605571210096128917109AVILA                      AGUILAR                    ANA KAREN                  00945900000010001092017000  080000009460903                     9
Y605571210094027800112CRUZ                       MARCELINO                  JORGE                      00945900000010001092017000  080000009728703                     9
Y605571210039129416275CERON                      BUSTAMANTE                 LUIS ENRIQUE               00945900000010001092017000  080000009728803                     9
Y605571210060159793227GARCIA                     REYES                      CRISTIAN                   00945900000010001092017000  080000009728903                     9
Y605571210096048310591VILLAVERDE                 ESQUIVEL                   JORGE                      00945900000010001092017000  080000009729003                     9
Y605571210016937506323GUADARRAMA                 PEREGRINA                  FRANCISCO MANUEL           00945900000010001092017000  080000015218903                     9
Y605571210027159846313TEJEDA                     ROBLES                     ALICIA YULUEN              00945900000010001092017000  080000015219003                     9
