A836767410950927535430ROQUE                      AGUIRRE                    ABEL GERARDO               00945900000010018052016000  080000008001302                     9
A836767410933068723999DOMINGUEZ                  RAMIREZ                    JULIO ADRIAN               00945900000010018052016000  080000008043203                     9
A836767410933947818465RIVERA                     MOLINAR                    JOEL                       00945900000010018052016000  080000008043303                     9
A836767410933967729188CHACON                     DURAN                      JORGE ALBERTO              00945900000010018052016000  080000008043403                     9
A836767410933816080148MARTINEZ                   CHAIRES                    MARCO ANTONIO              00945900000010018052016000  080000008043503                     9
A836767410931946406480ROCHA                      HERNANDEZ                  JUAN CARLOS                00945900000010018052016000  080000008043603                     9
A836767410933058757874BANDA                      MERAZ                      MANUEL DE JESUS            00945900000010018052016000  080000008043703                     9
A836767410932815938587FUENTES                    MORELOS                    JORGE                      00945900000010018052016000  080000008043803                     9
A836767410933654311134MARTINEZ                   PEREZ                      JOSE RAUL                  00945900000010018052016000  080000008043903                     9
A836767410933735420979CANO                       YAÒEZ                      JOSE GONZALO               00945900000010018052016000  080000008044003                     9
A836767410933806415411PAYAN                                                 ARMANDO                    00945900000010018052016000  080000008044103                     9
A836767410933996915097LOPEZ                      RIVERA                     MIRNA TERESA               00945900000010018052016000  080000008044203                     9
A836767410933957493118PATI—O                     PEREZ                      ROSA CLAUDIA               00945900000010018052016000  080000008044303                     9
A836767410933876411365CALDERON                   FLORES                     RODRIGO                    00945900000010018052016000  080000008044403                     9
A836767410950897335985CONTRERAS                  DE LA ROSA                 GUILLERMO                  00945900000010018052016000  080000008044703                     9
