Y462621510948139506876CANALES                    ESCUTIA                    GERMAN                     00945900000010012122016000  080000021161203                     9
Y462621510948018013432CARDENAS                   TOBIAS                     CARLOS                     00945900000010012122016000  080000021161303                     9
Y462621510948108904771OLIVARES                   AGUILAR                    JESUS MANUEL               00945900000010012122016000  080000021161403                     9
