R143868210304896708577VALDIVIA                   MEJIA                      MARTIN                     00945900000010019072016000  080000014095603                     9
R143868210304987842921RIVERA                     GARCIA                     JOSE                       00945900000010019072016000  080000014114003                     9
R143868210304826602270FLORES                     OROZCO                     MARTIN                     00945900000010019072016000  080000014117603                     9
R143868210334139416852SAUCEDO                    MARTINEZ                   DANIEL                     00945900000010019072016000  080000014117703                     9
R143868210354907219940ANAYA                      SOSA                       JUAN MANUEL                00945900000010019072016000  080000014117803                     9
R143868210304988208247MORAN                      ESTEBAN                    JORGE ELIAS                00945900000010019072016000  080000014117903                     9
