Y605571210069159777858ACOSTA                     MARTINEZ                   ANGEL OSIRIZ               00945900000010028102016000  080000004009103                     9
Y605571210096109229243GALINDO                    RIVERA                     DANIEL ERNESTO             00945900000010028102016000  080000009603203                     9
Y605571210042887223099DE LA ROSA                 LUNA                       BRENDA                     00945900000010028102016000  080000009653103                     9
Y605571210011997934739PEREZ                      DIAZ                       JUAN CARLOS                00945900000010028102016000  080000009653203                     9
Y605571210096048644452CORTES                     ZARAGOZA                   JOALI YADIRA               00945900000010028102016000  080000009653303                     9
Y605571210020017907708MARTINEZ                   HERNANDEZ                  LUIS GONZALO               00945900000010028102016000  080000009653403                     9
Y605571210044169556212DURAN                      MEJIA                      LAURA CLAUDIA              00945900000010028102016000  080000009653503                     9
Y605571210004169863885MORENO                     ZAVALETA                   ANGEL ALFREDO              00945900000010028102016000  080000009653603                     9
Y605571210033987829851DELGADO                    MARTINEZ                   TOBIAS                     00945900000010028102016000  080000009653703                     9
Y605571210094998003811BASTIDA                    FLORES                     ISMAEL                     00945900000010028102016000  080000015184503                     9
Y605571210094078520833MATURANO                   MARTINEZ                   CLAUDIA VERONICA           00945900000010028102016000  080000015184603                     9
Y605571210043886905686GARCIA                     LOERA                      ADRIAN                     00945900000010028102016000  080000019030503                     9
Y605571210003149866331ESQUIVEL                   GONZALEZ                   RAFAEL                     00945900000010028102016000  080000019080403                     9
Y605571210004139110789PANIAGUA                   CUEVAS                     DANIEL                     00945900000010028102016000  080000019090903                     9
Y605571210023007808761FLORES                     MAYORQUIN                  RAYMUNDO                   00945900000010028102016000  080000025010503                     9
