R143868210304079036028PEREZ                      OSUNA                      JOSE ADAN                  00945900000010016082016000  080000014002702                     9
R143868210304917482343RODRIGUEZ                  RODRIGUEZ                  HELIODORO                  00945900000010016082016000  080000014119303                     9
R143868210304099219513FERNANDEZ                  ROJO                       SANTIAGO                   00945900000010016082016000  080000014119503                     9
