Y605571210054149528900CHAN                       RUIZ                       JOSE EDUARDO               00945900000010011102016000  080000004008803                     9
Y605571210096139534554GONZALEZ                   FUENTES                    LUIS FELIPE                00945900000010011102016000  080000009428003                     9
Y605571210042119423269PINEDA                     HERNANDEZ                  SEBASTIAN                  00945900000010011102016000  080000009649903                     9
Y605571210094088823276ESQUIVEL                   GOMEZ                      EDGAR IVAN                 00945900000010011102016000  080000009650003                     9
Y605571210001906924400HUITRON                    CALLEJAS                   FABIOLA                    00945900000010011102016000  080000009650103                     9
Y605571210096139232514GONZALEZ                   CAÒONGO                    MARIELLY                   00945900000010011102016000  080000009650203                     9
Y605571210096139204026POPOCA                     HERNANDEZ                  DIANA CATALINA             00945900000010011102016000  080000009650303                     9
Y605571210020008400200CRUZ                       CARRILLO                   DAVID                      00945900000010011102016000  080000009650403                     9
Y605571210096058434687GARCIA                     DIAZ                       RUBEN                      00945900000010011102016000  080000013016003                     9
Y605571210016027707260BENITEZ                    MARIN                      LETICIA                    00945900000010011102016000  080000015134703                     9
Y605571210092058821627APODACA                    MORENO                     RICARDO                    00945900000010011102016000  080000015183103                     9
Y605571210082119009692HERNANDEZ                  PEREZ                      LUIS ALBERTO               00945900000010011102016000  080000015183303                     9
Y605571210043745630004RODRIGUEZ                  CRUZ                       ENRIQUE                    00945900000010011102016000  080000019088703                     9
Y605571210023947611325MENDEZ                     SERRANO                    FRANCISCO JAVIER           00945900000010011102016000  080000025010303                     9
Y605571210067118718054RAMOS                      GONZALEZ                   VIVIANA                    00945900000010011102016000  080000030075303                     9
Y605571210067967552695FERNANDEZ                  HERNANDEZ                  FELIPE                     00945900000010011102016000  080000030114403                     9
Y605571210050159762645DAMIAN                     DOMINGUEZ                  ELIHU                      00945900000010011102016000  080000030126603                     9
