Y605571210042876904014AGUILAR                    CARDENAS                   LUIS                       00945900000010020122016000  080000009670503                     9
Y605571210061138806551GARCIA                     CONTRERAS                  JUAN CARLOS                00945900000010020122016000  080000009670603                     9
Y605571210012099336310MARTINEZ                   FLORES                     ISRAEL                     00945900000010020122016000  080000011091903                     9
Y605571210012017704631RAMIREZ                    GONZALEZ                   ABRAHAM                    00945900000010020122016000  080000019090103                     9
Y605571210014997304325ANACLETO                   JERONIMO                   CANDIDO                    00945900000010020122016000  080000022054003                     9
Y605571210023796007252CUEVAS                     AGUILAR                    ISMAEL                     00945900000010020122016000  080000025011503                     9
Y605571210067968003433TINOCO                     FLORES                     MIGUEL ANGEL               00945900000010020122016000  080000030132503                     9
