R143868210314988154259UGALDE                     TORRES                     FERNANDO                   00945900000010007112016000  080000014002202                     9
R143868210375978017608AYALA                      MARTINEZ                   OSCAR                      00945900000010007112016000  080000014123303                     9
R143868210375917420913LOPEZ                      DELGADO                    ROSENDO                    00945900000010007112016000  080000014123403                     9
