Y605571210071119142066IBARRA                     TORRES                     JOSE ANTONIO               00945900000010031032017000  080000007018703                     9
Y605571210045109232061ZAVALA                     CASTILLO                   MIGUEL ANGEL               00945900000010031032017000  080000009537203                     9
Y605571210017169210196MEZA                       ROBLES                     GABRIEL                    00945900000010031032017000  080000009693103                     9
Y605571210045917364361PEREZ                      HERNANDEZ                  LEONARDO                   00945900000010031032017000  080000009693203                     9
Y605571210005158405547PAZ                        DIAZ                       DANIEL                     00945900000010031032017000  080000015200803                     9
Y605571210001007704529CORREA                     RANGEL                     PABLO                      00945900000010031032017000  080000015200903                     9
Y605571210013169627356LUNA                       GONZALEZ                   PATRICIA                   00945900000010031032017000  080000023044303                     9
Y605571210019149561235MENDEZ                     VELAZCO                    FRANCISCO                  00945900000010031032017000  080000023044403                     9
Y605571210078967871209MORENO                     VILLEGAS                   ANTONIO                    00945900000010031032017000  080000030144903                     9
Y605571210063149635722GUZMAN                     HERNANDEZ                  CARLOS ALEXIS              00945900000010031032017000  080000030145003                     9
