R143868210304886741901PEREZ                      GUTIERREZ                  FRANCISCO JAVIER           00945900000010023012017000  080000014129903                     9
R143868210382078605092JUAREZ                     GOMEZ                      OSCAR DE JESUS             00945900000010023012017000  080000014130003                     9
R143868210375937423707PAREDES                    JUAREZ                     ANGEL                      00945900000010023012017000  080000014130103                     9
