Y605571210030927111580AVILES                     GALVEZ                     ALFREDO                    00945900000010004072016000  080000009038102                     9
Y605571210094129238203ORDOÑEZ                    CARBAJAL                   MARLENE                    00945900000010026062016000  080000009621903                     9
Y605571210039887124186DIAZ                       ORTEGA                     ALBERTO                    00945900000010004072016000  080000009623403                     9
Y605571210005168938958CARRERA                    MONTALVO                   MIGUEL ANGEL               00945900000010004072016000  080000009623503                     9
Y605571210030089002072LOPEZ                      ACATITLA                   IVAN                       00945900000010004072016000  080000009623603                     9
Y605571210014139543814SUAREZ                     PEREZ                      JOAO PAULINHO              00945900000010004072016000  080000011085303                     9
Y605571210009998338736IBARRA                     CABOS                      SALVADOR                   00945900000010004072016000  080000013012903                     9
Y605571210060008203816HERNANDEZ                  HERNANDEZ                  EFRAIN                     00945900000010004072016000  080000013013003                     9
Y605571210065027002289HERNANDEZ                  MARTINEZ                   JOSE LUIS                  00945900000010004072016000  080000019078503                     9
Y605571210043927661777GARCIA                     RAMIREZ                    LAURA PATRICIA             00945900000010004072016000  080000019082003                     9
Y605571210003907207892RODRIGUEZ                  RETA                       LUIS CARLOS                00945900000010004072016000  080000019082103                     9
Y605571210082099123331TEC                        NIC                        JOSUE ELIEZER              00945900000010004072016000  080000023030503                     9
Y605571210072057900432FERNANDEZ                  ONTIVEROS                  ANTONIO                    00945900000010004072016000  080000023030603                     9
Y605571210003147009231ALVARADO                   RAMIREZ                    MARIO                      00945900000010004072016000  080000027056103                     9
Y605571210065937182700HERNANDEZ                  RAMIREZ                    PASCUAL                    00945900000010004072016000  080000030013103                     9
Y605571210065126001059SANTIAGO                   SAN JUAN                   DEMETRIO                   00945900000010004072016000  080000030013303                     9
Y605571210065048710571CISNEROS                   MORALES                    MARIO                      00945900000010004072016000  080000030051403                     9
Y605571210067977710119LOZANO                     MORENO                     JOSE                       00945900000010004072016000  080000030118503                     9
