Y605571210042968002719MONTAÒO                    VARGAS                     CARLOS ALBERTO             00945900000010018102016000  080000009630603                     9
Y605571210094947724202MARTINEZ                   RUIZ                       MINERVA                    00945900000010018102016000  080000009651003                     9
Y605571210045058544516ARRIOLA                    RIVAS                      ADRIAN                     00945900000010018102016000  080000009651103                     9
Y605571210028097400841CARVAJAL                   ALVARADO                   RAFAEL                     00945900000010018102016000  080000009651203                     9
Y605571210016897102667DE LA VEGA                 GUERRERO                   JOSE LUIS                  00945900000010018102016000  080000015136403                     9
Y605571210031906400028VEGA                       LOPEZ                      HUMBERTO                   00945900000010018102016000  080000019089503                     9
Y605571210043755846839REYNOSO                    SILVA                      JUAN MANUEL                00945900000010018102016000  080000019089603                     9
Y605571210044169637616GUILLEN                    PIÒA                       PEDRO ERNESTO              00945900000010018102016000  080000023036603                     9
Y605571210084108917679KUMUL                      UCAN                       MARCOS                     00945900000010018102016000  080000023036803                     9
Y605571210082058613330PEREZ                      DE LA CRUZ                 BENJAMIN                   00945900000010018102016000  080000023036903                     9
Y605571210067129103841OLETA                      HERNANDEZ                  YONJARI                    00945900000010018102016000  080000030126903                     9
