Z064567510812977530059LUGO                       NUÒEZ                      VICTOR EMILIO              00945900000010030052017000  080000011099903                     9
Z064567510812138933325QUEVEDO                    CASTILLO                   CARLOS ANTONIO             00945900000010030052017000  080000011100003                     9
Z064567510863139454076RICO                       ZAVALA                     VICTOR SAMUEL              00945900000010030052017000  080000011100103                     9
