R143868210375068777855CAMARENA                   MEZA                       JOSE MANUEL                00945900000010028122016000  080000014003602                     9
R143868210305148877284SANCHEZ                    ARIZMENDI                  CHRISTIAN NEFTALI          00945900000010028122016000  080000014127303                     9
R143868210305148772477RAMIIREZ                   RAMIREZ                    ADELA                      00945900000010028122016000  080000014127703                     9
R143868210375967947146FERNANDEZ                  GALLO                      FELICIANO                  00945900000010028122016000  080000014127803                     9
R143868210305169029377LOPEZ                      SANCHEZ                    IRVIN DE JESUS             00945900000010028122016000  080000014127903                     9
