A836767410925957813873ARVIZU                     CHAVEZ                     ARACELI                    00945900000010006072017000  080000002051703                     9
A836767410953139021629MENDEZ                     RIVERA                     JUANA RUBI                 00945900000010006072017000  080000002058803                     9
A836767410922806403501GONZALEZ                   WONG                       ERI                        00945900000010006072017000  080000002058903                     9
