A836767410935897182727LICON                      ATILANO                    MARTIN RAUL                00945900000010024062016000  080000008001802                     9
A836767410903168635278GARIBALDI                  CARBAJAL                   DIANA PATRICIA             00945900000010024062016000  080000008001902                     9
A836767410933816553938VILLALBA                   BACA                       JESUS MANUEL               00945900000010024062016000  080000008048603                     9
A836767410901068310984GONZALEZ                   VADILLO                    ALEJO                      00945900000010024062016000  080000008048703                     9
