Z064567510832088621241COMPEAN                    CRUZ                       JOSE LUIS                  00945900000010017012017000  080000011001502                     9
Z064567510812957942746ESPINOSA                   HERNANDEZ                  LUIS ENRIQUE               00945900000010017012017000  080000011001602                     9
Z064567510812109229125TERON                      LOPEZ                      DANIEL DE JESUS            00945900000010017012017000  080000011092903                     9
