Y462621510948139015704VAZQUEZ                    CLEMENTE                   FAUSTINO                   00945900000010009082017000  080000021100803                     9
Y462621510948159500015DAVILA                     LUNA                       JOSE ANTONIO               00945900000010009082017000  080000021171803                     9
Y462621510961987902865SALES                      GARCIA                     FEDERICO                   00945900000010009082017000  080000021172403                     9
Y462621510918159683582ARANA                      LIMON                      JONATHAN                   00945900000010009082017000  080000021172503                     9
