Y462621510905168908951CUENCA                     AGUILAR                    ELIZABETH                  00945900000010001082016000  080000021002102                     9
Y462621510918169208578GUZMAN                     ESTUDILLO                  EDGAR LIN                  00945900000010001082016000  080000021151403                     9
Y462621510962907369649AGUILAR                    VAZQUEZ                    DAVID                      00945900000010001082016000  080000021151503                     9
