A482760210352078901916CORONADO                   TREJO                      RAFAEL DE JESUS            00945900000010009082016000  080000006002903                     9
A482760210325149562990NEGRETE                    OLALDE                     JESUS                      00945900000010009082016000  080000006003003                     9
A482760210352089000526RODRIGUEZ                  HERNANDEZ                  ADAN                       00945900000010009082016000  080000006003103                     9
