Y462621510948109265503SOLIS                      CAJAS                      MARCO ANTONIO              00945900000010004012017000  080000021142503                     9
Y462621510948139110315RUFINO                     MORALES                    LUIS ALFREDO               00945900000010004012017000  080000021162003                     9
Y462621510948048670516ZENTENO                    MOTA                       CRISTIAN JAVIER            00945900000010004012017000  080000021162103                     9
Y462621510975058725047CAMPOS                     RODRIGUEZ                  JUAN MANUEL                00945900000010004012017000  080000021162203                     9
