Y605571210096129035075MARTINEZ                   RAMIREZ                    NELY                       00945900000010019052017000  080000009706203                     9
Y605571210028068806166ROJAS                      RUIZ                       JESUS                      00945900000010019052017000  080000009706303                     9
Y605571210096128827332GONZALEZ                   ZANE                       JOSE CARLOS ANTONIO        00945900000010019052017000  080000009706403                     9
Y605571210074149569662SALAZAR                    HERNANDEZ                  LUIS EDUARDO               00945900000010019052017000  080000015002702                     9
Y605571210053008131699ESPINOZA                   VEGA                       CARLOS IOVANI              00945900000010019052017000  080000015100803                     9
Y605571210053108404806RINCON                     GUDIÑO                     ARMANDO                    00945900000010019052017000  080000016011303                     9
Y605571210043896665858VILLANUEVA                 JASSO                      MA LETICIA                 00945900000010019052017000  080000019113503                     9
Y605571210005169214003JIMENEZ                    AGUILAR                    OSCAR ARMANDO              00945900000010019052017000  080000022062203                     9
Y605571210082068937059PALMA                      HERNANDEZ                  RIGOBERTO                  00945900000010019052017000  080000023046403                     9
Y605571210023068201906REYES                      HERNANDEZ                  BEATRIZ ADRIANA            00945900000010019052017000  080000025015903                     9
Y605571210083097701961MORALES                    MARTINEZ                   NATALIA                    00945900000010019052017000  080000027060303                     9
Y605571210067078317244MARTINEZ                   GARCIA                     LIZETTE VERONICA           00945900000010019052017000  080000030148903                     9
Y605571210067129370333PAZ                        CORONA                     MANUEL ALFONSO             00945900000010019052017000  080000030149003                     9
Y605571210002178374811BOZZIERE                   VAZQUEZ                    MARISELA                   00945900000010019052017000  080000030149103                     9
