Y605571210028129006178JASSO                      CAMACHO                    SAMANTHA SHANTAL           00945900000010013072017000  080000009034402                     9
Y605571210039967756766JAIME                      PRADO                      TALINA                     00945900000010013072017000  080000009718803                     9
Y605571210092917041003RAMOS                      GUERRERO                   YOLANDA                    00945900000010013072017000  080000015214803                     9
Y605571210092936720728ALVAREZ                    MARTINEZ                   SUSANA                     00945900000010013072017000  080000015214903                     9
Y605571210047048719588CASTILLO                   RODRIGUEZ                  MAYRA DENISSE              00945900000010013072017000  080000019118603                     9
Y605571210010179591879ALVARADO                   HERRERA                    JUAN DIEGO                 00945900000010013072017000  080000028042003                     9
Y605571210067907264377VALDIVIESO                 MELCHOR                    LEONARDO                   00945900000010013072017000  080000030054803                     9
Y605571210067137301916REYES                      MENDEZ                     JOSE MARGARITO             00945900000010013072017000  080000030093603                     9
