A482760210306168156872ISIDORO                    HERRERA                    PATRICIA                   00945900000010020022017000  080000006005803                     9
A482760210352886919779SANCHEZ                    HERRERA                    MIGUEL ANGEL               00945900000010020022017000  080000006005903                     9
A482760210352927502659LAUREL                     CAMPOS                     MARCOS BARUC               00945900000010020022017000  080000006006003                     9
A482760210352735513682ESCALANTE                  HERNANDEZ                  DAVID                      00945900000010020022017000  080000006006103                     9
A482760210367856472146REYES                      DURAN                      GRACIANO                   00945900000010020022017000  080000006006203                     9
