R143868210304089228300LEON                       FLORES                     FERNANDO RUY               00945900000010010062016000  080000014115303                     9
R143868210304139647814GARCIA                     HERRERA                    ALEJANDRO                  00945900000010010062016000  080000014115403                     9
R143868210304129366805VEGA                       MORA                       RUBEN                      00945900000010010062016000  080000014115503                     9
R143868210354796245147RAFAEL                     GOMEZ                      J GUADALUPE                00945900000010010062016000  080000014115603                     9
