A836767410933775607675TERRAZAS                   OROZCO                     RICARDO                    00945900000010016082016000  080000008055703                     9
A836767410933867016926ROSAS                                                 RODOLFO                    00945900000010016082016000  080000008055803                     9
A836767410933018496423SAUCEDO                    ESPINOZA                   JAIME                      00945900000010016082016000  080000008055903                     9
A836767410935129317349HERNANDEZ                  ARMENDARIZ                 JUAN FRANCISCO             00945900000010016082016000  080000008056003                     9
