Y605571210042119516484MEDINA                     ZENDEJAS                   MARISOL                    00945900000010017102016000  080000009629703                     9
Y605571210096048600728LUNA                       SANCHEZ                    HECTOR                     00945900000010017102016000  080000009648903                     9
Y605571210096997304827HERNANDEZ                  GALVAN                     ANTONIO ENRIQUE            00945900000010017102016000  080000009650903                     9
Y605571210060149592838GUTIERREZ                  SILVA                      RUBY MONSERRAT             00945900000010017102016000  080000015179003                     9
Y605571210007998301456REYES                      PEREZ                      JOSE ISRAEL                00945900000010017102016000  080000015183503                     9
Y605571210003967752266GARCIA                     DELGADO                    RODOLFO                    00945900000010017102016000  080000019089403                     9
Y605571210082068850559CETZ                       BOLIO                      JORGE EFRAIN               00945900000010017102016000  080000023023703                     9
Y605571210071138802948LANDA                      REYES                      LUIS                       00945900000010017102016000  080000023025703                     9
Y605571210067119239910VIDAL                      PEREZ                      MARIA GUADALUPE            00945900000010017102016000  080000030126803                     9
