Y607431310494017910814VELAZQUEZ                  COVA                       LORENA                     0129610000000001011970000  080000009000103                     9
Y607431310428139404397NAVA                       SALINAS                    JESSICA YOALY              0129610000000001011970000  080000009000203                     9
Y607431310448169788477MARTINEZ                   MARTINEZ                   LILIANA                    0129610000000001011970000  080000009000403                     9
Y607431310405169125159RODRIGUEZ                  GONZALEZ                   ALISON DANIELA             0129610000000001011970000  080000009000503                     9
Y607431310463816018475LINCE                      REYES                      EDUARDO                    0129610000000001011970000  080000009000603                     9
Y607431310475937503540VAZQUEZ                    ARCIGA                     JORGE                      0129610000000001011970000  080000009000703                     9
Y607431310417179444835VELASCO                    MIGUEL                     ALMA LUISA                 0129610000000001011970000  080000009000803                     9
Y607431310420038403398GARCIA                     MIRANDA                    LUIS MIGUEL                0129610000000001011970000  080000009000903                     9
Y607431310445119389448CRUZ                       VENANCIO                   ARCELIA EUGENIA            0129610000000001011970000  080000009001003                     9
