A482760210352947806908ACOSTA                     PEÑA                       OSCAR ALEJANDRO            00945900000010005092016000  080000006003503                     9
A482760210352139408075AVALOS                     AMEZCUA                    JAIME                      00945900000010005092016000  080000006003603                     9
A482760210352118900209RUIZ                       NEGRETE                    JOSE ANTONIO               00945900000010005092016000  080000006003703                     9
