Y605571210045109427059VILLEGAS                   CEDILLO                    ERNESTO ADRIAN             00945900000010022082017000  080000009726603                     9
Y605571210082007809773CARRILLO                   VENTURA                    JOSE LUIS                  00945900000010022082017000  080000009726703                     9
Y605571210003178433128VITAL                      BLANCO                     JESUS                      00945900000010022082017000  080000009726803                     9
Y605571210068978139860PRIMERO                    GARCIA                     LORENA                     00945900000010022082017000  080000009726903                     9
Y605571210090089120944SANCHEZ                    GARCIA                     JOSE JUAN                  00945900000010022082017000  080000009727003                     9
Y605571210003168617730SEBASTIAN                  VIVEROS                    ALAN KENNY                 00945900000010022082017000  080000009727203                     9
Y605571210043119535664BAEZ                       MAR                        DAVID DE JESUS             00945900000010022082017000  080000019110303                     9
Y605571210003147593580REYES                      BADILLO                    EDGAR ELIUT                00945900000010022082017000  080000019124003                     9
Y605571210043109447847RANGEL                     NICOLAS                    SILVERIO                   00945900000010022082017000  080000019124103                     9
Y605571210018179664786VILLATE                    RAMOS                      JUAN DANIEL                00945900000010022082017000  080000019124203                     9
Y605571210002178905283VILLATE                    RAMOS                      JAVIER                     00945900000010022082017000  080000019124303                     9
Y605571210047069045236CRUZ                       RAMIREZ                    SABAS ISAAC                00945900000010022082017000  080000019124403                     9
Y605571210082058837038DE LA CRUZ                 RUIZ                       NATALIA                    00945900000010020082017000  080000023051103                     9
