Y605571210001088921638CHAVEZ                     VILLA                      BRANDON                    00945900000010025082016000  080000001008003                     9
Y605571210094138605939PONCE                      LOPEZ                      SAUL                       00945900000010025082016000  080000015180703                     9
Y605571210094129113935ZUÒIGA                     GALVEZ                     MIRIAM                     00945900000010025082016000  080000015180803                     9
Y605571210009038603529PEREZ                      DEL ANGEL                  SERGIO                     00945900000010025082016000  080000019086103                     9
Y605571210082068734985VILLEGAS                   GARCIA                     CARLOS MARIO               00945900000010025082016000  080000027058003                     9
Y605571210065097701356JUAREZ                     HERNANDEZ                  CLAUDIA                    00945900000010025082016000  080000030123703                     9
Y605571210049977017067ISIDRO                     GARCIA                     SAGRARIO                   00945900000010025082016000  080000030123803                     9
Y605571210065068912347AQUINO                     ESPINOZA                   REYNALDO                   00945900000010025082016000  080000030123903                     9
