A836767410933887179019MONTOYA                    VASQUEZ                    OCTAVIO ESTEBAN            00945900000010008032017000  080000008071403                     9
A836767410933069014737REYES                      SIMENTAL                   LUIS JAVIER                00945900000010008032017000  080000008071503                     9
A836767410918169320746YAÑEZ                      ESPINO                     EYDER JAVIER               00945900000010008032017000  080000008071603                     9
