Y605571210045088728816MUNGUIA                    SANCHEZ                    JULIO CESAR                00945900000010026052017000  080000009043402                     9
Y605571210020119104766FLORES                     ALDANA                     MARIA DEL CARMEN           00945900000010026052017000  080000009708303                     9
Y605571210045129104399ROMERO                     DAVILA                     FERNANDO                   00945900000010026052017000  080000009708403                     9
Y605571210042078814201TUYU                       AMARO                      ABRAHAM YTHAI              00945900000010026052017000  080000009708503                     9
Y605571210045089103357GOMEZ                      ALBINO                     YOLANDA INES               00945900000010026052017000  080000009708603                     9
Y605571210026149464187RIVERA                     SANZORES                   JEEFERSON                  00945900000010026052017000  080000009708703                     9
Y605571210092139538752REYNOSO                    LOPEZ                      LUIS DANIEL                01678400000010026052017000  080000015135303                     9
Y605571210092927573524GUADALUPE                  DAZA                       ROMUALDO                   00945900000010026052017000  080000015211503                     9
Y605571210009068990077CONTRERAS                  SILVA                      LAURA ALEXANDRA            00945900000010026052017000  080000015211603                     9
Y605571210010159113694SOREQUE                    DIAZ                       DAVID                      00945900000010026052017000  080000016011503                     9
Y605571210043846622587HEREDIA                    BERNAL                     LUCIO                      00945900000010026052017000  080000019074703                     9
Y605571210041947305813ESTRADA                    FLORES                     EMILIO                     00945900000010026052017000  080000019114003                     9
Y605571210023816318721AYON                       BELTRAN                    JESUS LUIS                 00945900000010026052017000  080000025016503                     9
Y605571210090987000545CHIMEO                     MARTINEZ                   CAMILO                     00945900000010026052017000  080000030150003                     9
Y605571210063159717899INFANZON                   MOLINA                     DAVID EDUARDO              00945900000010026052017000  080000030150103                     9
