R143868210325149590652ALONSO                     NUÒO                       SOFIA                      00945900000010006072016000  080000014001902                     9
R143868210323836604191MEDINA                     ANDRADE                    RAMON                      00945900000010006072016000  080000014071303                     9
R143868210321916628403RAMOS                      QUIRARTE                   ALFONSO                    00945900000010006072016000  080000014116703                     9
R143868210353028626835NAVARRETE                  ARCEO                      JOSE JOHNATTAN             00945900000010006072016000  080000014116803                     9
R143868210320997605520GALINDO                    NAVARRO                    FELIPE                     00945900000010006072016000  080000014117003                     9
