Y605571210011997600819GOMEZ                      RODRIGUEZ                  GILBERTO                   00945900000010004052016000  080000009037002                     9
Y605571210082139501546LLANO                      MEZA                       DIEGO                      00945900000010004052016000  080000009615003                     9
Y605571210045129102377HERRERA                    ISLAS                      EDGAR FABIAN               00945900000010004052016000  080000009615603                     9
Y605571210020988006001DURAN                      TORRES                     MIGUEL ANGEL               00945900000010004052016000  080000009615703                     9
Y605571210020106700709SANCHEZ                    CARDENAS                   MARIA EUGENIA MERCEDES     00945900000010004052016000  080000009615803                     9
Y605571210004997881455CARLOS                     ESTALA                     OSCAR FABIAN               00945900000010004052016000  080000014112303                     9
Y605571210016068401286DOMINGUEZ                  TORRES                     ALMA                       00945900000010004052016000  080000015161303                     9
Y605571210037947413052GARCIA                     JUSTO                      JUAN ARTURO                00945900000010004052016000  080000015171303                     9
Y605571210005907090871LOZADA                     LOPEZ                      CESAR EDUARDO              00945900000010004052016000  080000015171403                     9
Y605571210092109318987GARCIA                     BASURTO                    MIGUEL ANGEL               00945900000010004052016000  080000015171503                     9
Y605571210002166827937ZALETA                     GONZALEZ                   CRISPIN                    00945900000010004052016000  080000019077303                     9
Y605571210043926642380MARTINEZ                   GARCIA                     VICTOR                     00945900000010004052016000  080000019077403                     9
Y605571210003977661705RUBIO                      GARCIA                     LEONARDO                   00945900000010004052016000  080000019077503                     9
Y605571210031917438819BARRIENTOS                 REYES                      PEDRO                      00945900000010004052016000  080000022042903                     9
Y605571210065906701480MARTINEZ                   COLORADO                   RAFAEL                     00945900000010004052016000  080000030101703                     9
Y605571210065087205806GARCIA                     CERVERA                    MARIBEL                    00945900000010004052016000  080000030115303                     9
Y605571210078018504916DE JESUS                   LOPEZ                      ARGENIS DANIEL             00945900000010004052016000  080000030115403                     9
