Y605571210030916901348TRINIDAD                   CERVANTES                  ANGELES TERESITA           00945900000010018042016000  080000009609103                     9
Y605571210075937010009RIVERA                                                JUAN MANUEL                00945900000010018042016000  080000014111103                     9
Y605571210016089400200NEGRETE                    MEZA                       DIEGO                      00945900000010018042016000  080000015169803                     9
Y605571210059159719653SALGADO                    SALGADO                    HORACIO SANTIAGO           00945900000010018042016000  080000015169903                     9
Y605571210030967808129GONZALEZ                   MONROY                     MARICARMEN                 00945900000010018042016000  080000015170003                     9
Y605571210009139485370SANCHEZ                    PEREZ                      PAULINO                    00945900000010018042016000  080000028012503                     9
