A836767410931806101635BARRAZA                    GARDEA                     HECTOR                     00945900000010011042017000  080000008072903                     9
A836767410933998298955MARTINEZ                   MEZA                       JOSE LUIS                  00945900000010011042017000  080000008073003                     9
A836767410933967610420CHAVEZ                     SEGUEDA                    MANUEL                     00945900000010011042017000  080000008073103                     9
