Y605571210021845702238JAIMES                     ESQUEDA                    MIGUEL                     00945900000010016082017000  080000009725803                     9
Y605571210082038803597GAETA                      MARTINEZ                   EDWIN RAMON                00945900000010016082017000  080000023051203                     9
Y605571210065139220571ROSALES                    JACOBO                     KARLA FERNANDA             00945900000010016082017000  080000030002402                     9
