Y605571210046159559072SANTIZ                     SANTIZ                     BENJAMIN                   00945900000010026092016000  080000007013403                     9
Y605571210050159558316TOSCANO                    MARTINEZ                   ALEJANDRO JONAS            00945900000010026092016000  080000009555603                     9
Y605571210008169349266CHICO                      HERNANDEZ                  OSMAR                      00945900000010026092016000  080000009647303                     9
Y605571210003147598860SUAREZ                     FLORES                     GUSTAVO JAVIER             00945900000010026092016000  080000016008603                     9
Y605571210005158668268CANELA                     GONZALEZ                   JESUS FLORENCIO            00945900000010026092016000  080000016008703                     9
Y605571210043917406126LOPEZ                      VARGAS                     JUAN PATRICIO              00945900000010026092016000  080000019087703                     9
Y605571210043886807411FLORES                     BARRAGAN                   IRMA                       00945900000010026092016000  080000019087803                     9
Y605571210047907210349CASTILLO                   ELIZALDE                   MARCO ANTONIO              00945900000010026092016000  080000019087903                     9
Y605571210094927208374RAMOS                      PEREZ                      FELIX ALFREDO              00945900000010026092016000  080000023028003                     9
Y605571210023129312411BAUTISTA                   HERNANDEZ                  RODOLFO                    00945900000010026092016000  080000025009703                     9
Y605571210083128508914DE LA CRUZ                 HERNANDEZ                  ERI                        00945900000010026092016000  080000027058703                     9
