Y605571210001168736864CASTILLO                   CEJA                       MIRIAM NATALY              00945900000010018082017000  080000009726303                     9
Y605571210022169871260CASTILLO                   CEJA                       JOSE ARMANDO               00945900000010018082017000  080000009726403                     9
Y605571210027169740944PEREZ                      ARVIZU                     JOSE EDUARDO               00945900000010018082017000  080000015217903                     9
Y605571210043129668513OLIVARES                   RAMIREZ                    DAVID ISAAC                00945900000010018082017000  080000019123303                     9
Y605571210043917446643CASTAÑON                   COMPEAN                    ENRIQUE                    00945900000010018082017000  080000019123403                     9
Y605571210065018004633DE JESUS                   CRUZ                       PORFIRIO                   00945900000010018082017000  080000019123503                     9
Y605571210043109459792ROCHA                      EREVIA                     ALAN DARIO                 00945900000010018082017000  080000019123603                     9
Y605571210008139875622OLAN                       RODRIGUEZ                  ELIZABETH                  00945900000010018082017000  080000023051303                     9
Y605571210083946904352BERNARDO                   LEON                       JOSE                       00945900000010018082017000  080000027063703                     9
Y605571210083129448573BALAN                      MOSQUEDA                   JUAN ANTONIO               00945900000010018082017000  080000027063803                     9
