Y605571210071037804359RODRIGUEZ                  TRINIDAD                   JOSE MELQUIADES            00945900000010010042017000  080000015194703                     9
Y605571210072078915302JAIMES                     RODRIGUEZ                  JESUS MAYORICO             00945900000010010042017000  080000015201303                     9
Y605571210043089232698ROMAN                      ORTEGA                     JOSE IGNACIO               00945900000010010042017000  080000019107403                     9
Y605571210064159870415CRUZ                       MARTINEZ                   NOE ALEJANDRO              00945900000010010042017000  080000022060403                     9
Y605571210081058506841LOPEZ                      SILVAN                     GAMALIEL                   00945900000010010042017000  080000023044803                     9
Y605571210049159760328LAZARO                     LAZARO                     JUAN ANTONIO               00945900000010010042017000  080000023044903                     9
Y605571210082856813728ROBERTOS                   CETINA                     CARLOS MANUEL              00945900000010010042017000  080000023045003                     9
Y605571210081028403491LOPEZ                      ACOSTA                     LUIS ALBERTO               00945900000010010042017000  080000023045103                     9
Y605571210057927665075DELGADO                    VEGA                       JESUS ANTONIO              00945900000010010042017000  080000025015403                     9
Y605571210002169804487FERMIN                     PEREZ                      PERLA YADIRA               00945900000010010042017000  080000028038603                     9
Y605571210009119103035CAMPOS                     CASANOVA                   HECTOR GERARDO             00945900000010010042017000  080000028040703                     9
Y605571210003178903369FERNANDEZ                  REYES                      VICTOR DANIEL              00945900000010010042017000  080000028040803                     9
Y605571210067876855924CONTRERAS                  HERNANDEZ                  LUIS FELIPE                00945900000010010042017000  080000030145603                     9
Y605571210040978113377RITO                       MIÒON                      MIGUEL ANGEL               00945900000010010042017000  080000030145703                     9
Y605571210003169478330ZAPOR                      REYES                      FEBE                       00945900000010010042017000  080000030145803                     9
Y605571210067107600826IGNACIO                    GOMEZ                      FLORIANA                   00945900000010010042017000  080000030145903                     9
Y605571210003159666878VASCONCELOS                SARAO                      JHONNY                     00945900000010010042017000  080000030146003                     9
Y605571210067048412356ARROYO                     LOPEZ                      FRANCISCO                  00945900000010010042017000  080000030146103                     9
Y605571210044159762531DE LA CRUZ                 TRINIDAD                   JONATHAN URIEL             00945900000010010042017000  080000030146203                     9
