Y462621510948058626499MENDOZA                    LOPEZ                      LUIS ARTURO                00945900000010019052017000  080000021168803                     9
Y462621510962937200921NUÑEZ                      BAZAN                      GERARDO                    00945900000010019052017000  080000021168903                     9
Y462621510943127501872GUERRERO                   ORTUÑO                     SILVIA                     00945900000010019052017000  080000021169003                     9
Y462621510962886514645HERNANDEZ                  PELAEZ                     JOSE ALEJANDRO             00945900000010019052017000  080000021169103                     9
Y462621510943806217832DIAS                       AMAYA                      JOSE JUAN                  00945900000010019052017000  080000021169203                     9
