Y605571210016119001333ALCARAZ                    BOLAÒOS                    MIGUEL ANGEL               00945900000010019072016000  080000009627103                     9
Y605571210045028403751MONTA—O                    SOLIS                      LUCERITO                   00945900000010019072016000  080000009627203                     9
Y605571210045129352840ALVARADO                   CASILDO                    JONATHAN                   00945900000010019072016000  080000009627303                     9
Y605571210020139613879PEREZ                      ESPINOSA                   ALDO IRVIN                 00945900000010019072016000  080000009627403                     9
Y605571210045129458035JUAREZ                     PACHECO                    ANTONIO VIVALDI            00945900000010019072016000  080000009627503                     9
Y605571210063907275257NORIEGA                    PLAZA                      DAMIAN                     00945900000010019072016000  080000011063103                     9
Y605571210012796135684ESPARZA                    LOPEZ                      HECTOR MANUEL              00945900000010019072016000  080000011082703                     9
Y605571210094129323690RODRIGUEZ                  UGALDE                     KARLA DANIELA              00945900000010019072016000  080000015178503                     9
Y605571210043755918117RAMIREZ                    MACIAS                     JOSE                       00945900000010019072016000  080000019083303                     9
Y605571210090089123385MARTINEZ                   MARTINEZ                   DAVID HORACIO              00945900000010019072016000  080000019083403                     9
Y605571210083119232508FRIAS                      DIAZ                       RENE                       00945900000010019072016000  080000027057003                     9
Y605571210067988116025LOPEZ                      CHABLE                     GAMALIEL                   00945900000010019072016000  080000027057103                     9
Y605571210060149434262VAZQUEZ                    DELGADO                    JOSE EDUARDO               00945900000010019072016000  080000032000103                     9
Y605571210004089141396VARGAS                     SAAVEDRA                   JOSE REYES                 00945900000010019072016000  080000032000203                     9
Y605571210050159711162RODARTE                    AVILA                      CARLOS ALBERTO             00945900000010019072016000  080000032000303                     9
