A836767410935159268586RAMOS                      MENDOZA                    SALVADOR OSBALDO           00945900000010001082016000  080000008054103                     9
A836767410933857015037GONZALEZ                   REYES                      JOSE LUIS                  00945900000010002082016000  080000008054203                     9
A836767410933048717988PALACIOS                   JACOBO                     JESUS EFRAIN               00945900000010003082016000  080000008054303                     9
A836767410933099205164CAMPA                      ARMENDARIZ                 JOSE HUMBERTO              00945900000010004082016000  080000008054403                     9
