Y605571210017159352156RAMOS                      DIAZ                       EDIBERTO                   00945900000010010022017000  080000009682303                     9
Y605571210045886842173VERA                       VALENCIA                   FERNANDO                   00945900000010010022017000  080000009683203                     9
Y605571210027159209702RANGEL                     RIVERA                     HUGO ORLANDO               00945900000010010022017000  080000009683303                     9
Y605571210072109305580GOMORA                     CARBAJAL                   FERNANDO                   00945900000010010022017000  080000009683403                     9
Y605571210016078811730GUADARRAMA                 GONZALEZ                   MARICRUZ                   00945900000010010022017000  080000015191003                     9
Y605571210092008250729LOPEZ                      MONTES                     ALINE JANET                00945900000010010022017000  080000015191703                     9
Y605571210056169617653JARDON                     RAMIREZ                    ANA PATRICIA               00945900000010010032016000  080000015191803                     9
Y605571210043845902105RODRIGUEZ                  MONTAÒO                    MANUEL                     00945900000010010022017000  080000019101903                     9
Y605571210014957501696VELAZQUEZ                  SANCHEZ                    JOSE MANUEL                00945900000010010022017000  080000022056903                     9
Y605571210009048607965ENRIQUEZ                   MARTINEZ                   GABINO                     00945900000010010022017000  080000022057003                     9
Y605571210003169800905HERNANDEZ                  REYES                      GIOVANI                    00945900000010010022017000  080000022057103                     9
Y605571210046159721128RODRIGUEZ                  PEREZ                      CESAR                      00945900000010010022017000  080000027050303                     9
Y605571210083138711664VAZQUEZ                    JIMENEZ                    JESUS ADRIAN               00945900000010010022017000  080000027055503                     9
Y605571210083109233649PEREZ                      URESTI                     JOSE ANTONIO               00945900000010010022017000  080000027059503                     9
Y605571210065806417047PEREZ                      CAMACHO                    ERIC                       00945900000010010022017000  080000030136403                     9
