Y605571210082876728716OLMOS                      HERNANDEZ                  JESUS ANGEL                00945900000010011052017000  080000009703503                     9
Y605571210089866905402TORRES                     SALDAÒA                    JOSE LUIS                  00945900000010011052017000  080000009703603                     9
Y605571210096067504850HERNANDEZ                  ROJAS                      LETICIA                    00945900000010011052017000  080000009703703                     9
Y605571210096108817410LOPEZ                      GARDU—O                    JUAN MANUEL                00945900000010011052017000  080000009703803                     9
Y605571210003167818545ROSALES                    DE LA ROSA                 BENITO                     00945900000010011052017000  080000015208203                     9
Y605571210044149573410JUAREZ                     MENDOZA                    ANGEL BERNARDO             00945900000010011052017000  080000015208303                     9
Y605571210016048817387SALAZAR                    ARRIAGA                    NANCY                      00945900000010011052017000  080000015208403                     9
Y605571210092927408853FRIAS                      GOMEZ                      RICARDO                    00945900000010011052017000  080000015209503                     9
Y605571210072098601676HILARIO                    MARTINEZ                   ARMANDO SISLER             00945900000010011052017000  080000015209603                     9
Y605571210092139425901MARTINEZ                   BENITEZ                    MOISES LEVI                00945900000010011052017000  080000015209703                     9
Y605571210053139608300SANCHEZ                    OSORIO                     BRYAND                     00945900000010011052017000  080000016010903                     9
Y605571210053987924478GARCIA                     CHAVEZ                     CARLOS                     00945900000010011052017000  080000016011003                     9
Y605571210053137702089RODRIGUEZ                  MELCHOR                    JOSE LUIS                  00945900000010011052017000  080000016011103                     9
Y605571210072078503231VARGAS                     MONTOR                     ONELI                      00945900000010011052017000  080000016011203                     9
Y605571210053078928057CARDONA                    VAZQUEZ                    JUAN EDUARDO               00945900000010011052017000  080000017052003                     9
Y605571210049937780838ARTEAGA                                               JUAN DE DIOS               00945900000010011052017000  080000019002602                     9
Y605571210002157705282HERNANDEZ                  RAMOS                      ADRIANA ARACELI            00945900000010011052017000  080000019091003                     9
Y605571210043139726376BARRIENTOS                 GARCIA                     MARTIN ALEJANDRO           00945900000010011052017000  080000019111603                     9
Y605571210043916962368TAMEZ                      CANIZALES                  EVER RAUL                  00945900000010011052017000  080000019111703                     9
Y605571210003816457844RODRIGUEZ                  FRANCO                     ALFREDO ENRIQUE            00945900000010011052017000  080000019111803                     9
Y605571210043998388805CASTILLO                   PEREZ                      MIGUEL ANGEL               00945900000010011052017000  080000019111903                     9
Y605571210003876911458MARTINEZ                   ROMERO                     JOSE CIRILIO               00945900000010011052017000  080000019112003                     9
Y605571210043076402809ESPARZA                    DANIEL                     MARTHA ALICIA              00945900000010011052017000  080000019112103                     9
Y605571210043129683314TOSTADO                    ESPARZA                    ANA ALICIA                 00945900000010011052017000  080000019112203                     9
Y605571210014048414990FERNANDEZ                  GONZALEZ                   ALMA GABRIELA              00945900000010011052017000  080000022002202                     9
Y605571210012846414436CASTRO                     MORENO                     ANGEL                      00945900000010011052017000  080000022039303                     9
Y605571210014119322148PEREZ                      MELO                       LUIS ENRIQUE               00945900000010011052017000  080000022045703                     9
Y605571210073159785077LOPEZ                      ARIAS                      ULISES ALEJANDRO           00945900000010011052017000  080000022061903                     9
Y605571210082139466062ORTIZ                      MORALES                    EULISES                    00945900000010011052017000  080000023046103                     9
Y605571210083078609738HERNANDEZ                  RODAS                      GUSTAVO                    00945900000010011052017000  080000027061603                     9
Y605571210002957971621CASIANO                    GARCIA                     RENE                       00945900000010011052017000  080000030132303                     9
Y605571210082977005055MENDEZ                     CALZADAS                   FRANCISCO JAVIER           00945900000010011052017000  080000030147603                     9
Y605571210067947986013BALCAZAR                   TORRES                     JORGE                      00945900000010011052017000  080000030147703                     9
Y605571210067139530231ALVAREZ                    MATA                       MARICELA                   00945900000010011052017000  080000030147803                     9
Y605571210065169807925CRUZ                       ESTEVA                     KEVIN ANTONIO              00945900000010011052017000  080000030147903                     9
