Y605571210096089111510PEREZ                      HERNANDEZ                  MARIO ANTONIO              00945900000010023052017000  080000009610803                     9
Y605571210037946100072NAVA                       GUZMAN                     MARIA GUADALUPE            00945900000010023052017000  080000009707003                     9
Y605571210045946903551MONTIEL                    SALVADOR                   MARISOL                    00945900000010023052017000  080000009707103                     9
Y605571210015038407712HERNANDEZ                  HERNANDEZ                  MARISOL                    00945900000010023052017000  080000009707203                     9
Y605571210042917112122GARCIA                     NOVELO                     JULIO ALEJANDRO            00945900000010023052017000  080000009707303                     9
Y605571210013169707174LOPEZ                      HERNANDEZ                  ABISAI ISAI                00945900000010023052017000  080000009707403                     9
Y605571210094937523655GARCIA                     PERALTA                    JUAN MIGUEL                00945900000010023052017000  080000009707503                     9
Y605571210007098603553HERRERA                    OROPEZA                    MONSERRAT                  00945900000010023052017000  080000009707603                     9
Y605571210092069008354MORALES                    MAGUEYAL                   DOLORES MONTSERRAT         00945900000010023052017000  080000015199603                     9
Y605571210090137200458HERNANDEZ                  OZORNIO                    AURELIO                    00945900000010023052017000  080000015210903                     9
Y605571210043038658464LARA                       DUARTE                     WALTER ELEUTERIO           00945900000010023052017000  080000019114403                     9
Y605571210096129443352CABELLO                    RUEDA                      JOSE PABLO                 00945900000010023052017000  080000023000302                     9
Y605571210023886808346NIEBLA                     GUTIERREZ                  ANA CECILIA                00945900000010023052017000  080000025016003                     9
Y605571210023008363824CARDENAS                   CORONEL                    JESUS MANUEL               00945900000010023052017000  080000025016103                     9
Y605571210023109309742CEBREROS                   SOTO                       JOSE MANUEL                00945900000010023052017000  080000025016203                     9
Y605571210025976508363ROSALES                    IBARRA                     RAUL EDUARDO               00945900000010023052017000  080000025016303                     9
Y605571210049806226269PULIDO                     TREJO                      ANDRES                     00945900000010023052017000  080000028017803                     9
Y605571210065907082567XOLO                       LLANO                      SEBASTIAN                  00945900000010023052017000  080000030149603                     9
Y605571210056149504005VAZQUEZ                    RODRIGUEZ                  NOEL                       00945900000010023052017000  080000030149703                     9
