Y605571210010836223890RUIZ                       BERNAL                     GERARDO ROBERTO            00945900000010002032017000  080000009570903                     9
Y605571210096048300717CARRE—O                    TOVAR                      ALBERTO GUADALUPE          00945900000010002032017000  080000009686503                     9
Y605571210096058713312DE LA ROSA                 GARCIA                     FERNANDO                   00945900000010002032017000  080000009686603                     9
Y605571210045098806883GUTIERREZ                  GASPAR                     ERIK                       00945900000010002032017000  080000009686703                     9
Y605571210092129300254MARTINEZ                   MARTINEZ                   URIEL                      00945900000010002032017000  080000015195503                     9
Y605571210092109036324GONZALEZ                   ALCEDA                     IRENE                      00945900000010002032017000  080000015195603                     9
Y605571210092897263197OCAÒA                      FLORES                     FRANCISCO                  00945900000010002032017000  080000015195703                     9
Y605571210094057802616BAUTISTA                   SOTO                       JANET                      00945900000010002032017000  080000015195803                     9
Y605571210094907219979MACIAS                     RODRIGUEZ                  FELIPE                     00945900000010002032017000  080000015195903                     9
Y605571210006169877591AGUILAR                    MARTINEZ                   EMMANUEL                   00945900000010002032017000  080000015196003                     9
Y605571210090129401320MARTINEZ                   MARTINEZ                   ELVIN                      00945900000010002032017000  080000015196103                     9
Y605571210030109507704CORTES                     LUVIANOS                   LUIS ERNESTO               00945900000010002032017000  080000015196203                     9
Y605571210014937714377LLACA                      PEREZ                      RODOLFO                    00945900000010002032017000  080000022058603                     9
Y605571210008179873032SANCHEZ                    CHAVEZ                     ANGEL URIEL                00945900000010002032017000  080000025013503                     9
Y605571210071997403838BELTRAN                    LOPEZ                      JOSE JESUS                 00945900000010002032017000  080000027060403                     9
Y605571210083048106013NARANJO                    VINAGRE                    CARLOS MARIO               00945900000010002032017000  080000027060503                     9
