Y462621510948109265503SOLIS                      CAJAS                      MARCO ANTONIO              00945900000010014112016000  080000021142503                     9
Y462621510948099209404JIMENEZ                    CARCAMO                    IVAN                       00945900000010014112016000  080000021154003                     9
Y462621510933118919613DIEGO                      DIEGO                      LUIS                       00945900000010014112016000  080000021158303                     9
Y462621510948018243625MARTINEZ                   CERVANTES                  JOSE LUIS                  00945900000010014112016000  080000021158403                     9
