A836767410933139528427TALAMANTES                 ALDERETE                   MANUEL GERARDO             00945900000010031052016000  080000008045703                     9
A836767410933058893828AVITIA                     FRESCAS                    ANDRA GUADALUPE            00945900000010031052016000  080000008045803                     9
A836767410914119447218ROJAS                      MARIN                      CARLOS ADRIAN              00945900000010031052016000  080000008045903                     9
A836767410908149674080CHACON                     ROJAS                      FERNANDO OMAR              00945900000010031052016000  080000008046003                     9
