Y605571210006805910558ESPINOSA                   ESCAMILLA                  JULIO                      00945900000010009122016000  080000009668403                     9
Y605571210039937789905MENDOZA                    ESCOBAR                    MARILUZ                    00945900000010009122016000  080000011001302                     9
Y605571210014008349400SOLARES                    OJEDA                      JONATHAN ENRIQUE           00945900000010009122016000  080000022053503                     9
Y605571210078078915523GUERRA                     RUIZ                       FACUNDO                    00945900000010009122016000  080000023025503                     9
Y605571210047169835734VAZQUEZ                    CISNEROS                   JAIME AROLDO               00945900000010009122016000  080000023039903                     9
Y605571210082098506197UC                         CANCHE                     FRANK JOSEPH               00945900000010009122016000  080000023040003                     9
Y605571210025159161162CAÒEDO                     XALA                       JORGE ELIAS                00945900000010009122016000  080000030121503                     9
Y605571210065139420320MEDINA                     HERNANDEZ                  MIGUEL ANGEL               00945900000010009122016000  080000030131803                     9
