Y702574710184886920135LUGO                       MAURY                      JOSE CARLOS                00945900000010028112016000  080000031030803                     9
Y702574710181047703749SANCHEZ                    NEGRETE                    MARIA DE JESUS             00945900000010028112016000  080000031032103                     9
Y702574710105168651841CEN                        ESCOBEDO                   MARIA SANTA LOURDES        00945900000010028112016000  080000031032203                     9
Y702574710184937222226BOTE                       CAUICH                     JOSE ALVARO                00945900000010028112016000  080000031032303                     9
Y702574710181068800788ESCALANTE                  SALVATIERRA                ANGEL ROMAN                00945900000010028112016000  080000031032403                     9
Y702574710184988117267GARCIA                     CABALLERO                  JUAN GABRIEL               00945900000010028112016000  080000031032503                     9
Y702574710184826300737TEC                        Y POOL                     JOSE FREDIS FERNANDO       00945900000010028112016000  080000031032603                     9
Y702574710184947642777ANCONA                     CAB                        JOSE ANTONIO               00945900000010028112016000  080000031032703                     9
Y702574710184998005452VALENCIA                   SANTOS                     CARLOS MARIO               00945900000010028112016000  080000031032803                     9
Y702574710184997204023SOLIS                      SOBERANIS                  JORGE DE ATOCHA            00945900000010028112016000  080000031032903                     9
Y702574710184796101594BRITO                      MIJANGOS                   JOAQUIN FERNANDO           00945900000010028112016000  080000031033003                     9
