Y605571210032089083037CHAVEZ                     DELGADO                    JOSE LUIS                  00945900000010012072016000  080000005011003                     9
Y605571210010866626210PEREZ                      AGUILLON                   RAFAEL                     00945900000010012072016000  080000009625803                     9
Y605571210009129419959MOJICA                     SANDOVAL                   ALFREDO JAVIER             00945900000010012072016000  080000009625903                     9
Y605571210096159400702MUÑOZ                      MOCIÑOS                    FERNANDO                   00945900000010013072016000  080000009626103                     9
Y605571210092988238769FERNANDEZ                  DE LA CUESTA               RAFAEL ANTONIO             00945900000010012072016000  080000015178303                     9
Y605571210067149501461BLAS                       SEBA                       JUAN DE DIOS               00945900000010012072016000  080000030043303                     9
Y605571210081139208995ALFONSO                    LAGUNES                    ALEX JAIR                  00945900000010012072016000  080000030119203                     9
Y605571210056159613415SOTO                       PAVON                      RAMSES DOMINGO             00945900000010012072016000  080000030119303                     9
Y605571210011169521256REYES                      FONSECA                    ERWIN BERTIN               00945900000010012072016000  080000030119403                     9
Y605571210011037601066MORALES                    RAMIREZ                    JOSE ANTONIO               00945900000010012072016000  080000030119503                     9
