A836767410921089115618ROSETE                     BOTELLO                    ADAN                       00945900000010026072017000  080000002001402                     9
A836767410932078815308GARCIA                     ARGUMEDO                   ERNESTO                    00945900000010026072017000  080000008078703                     9
A836767410933967160954ROJAS                      ESPONOZA                   JOSE REFUGIO               00945900000010026072017000  080000008078803                     9
