Z064567510812856838672OVALLE                     LEON                       ENRIQUE                    00945900000010025012017000  080000011093303                     9
Z064567510812089088517TERAN                      TERAN                      LUIS ANGEL                 00945900000010025012017000  080000011093403                     9
Z064567510839109522969RAMIREZ                    MENDOZA                    ERIK FABRICIO              00945900000010025012017000  080000011093503                     9
