A836767410933079147667CASTRO                     MENDOZA                    RUTH CELESTE               00945900000010027072016000  080000008002402                     9
A836767410931846623424VERDIN                     ZAMORA                     FRANCISCO JAVIER           00945900000010027072016000  080000008052603                     9
A836767410933148800635MARTINEZ                   FLORES                     SERGIO ALBERTO             00945900000010027072016000  080000008052703                     9
A836767410933078913093DE LA TORRE                QUINTERO                   GERARDO                    00945900000010027072016000  080000008052803                     9
A836767410933129605805MALDONADO                  SANCHEZ                    JUAN FRANCISCO             00945900000010027072016000  080000008052903                     9
A836767410926169502338ZAVALA                     GONZALEZ                   JEYDI JUDITH               00945900000010027072016000  080000008053003                     9
