Y605571210045119534902HERRERA                    ARZOLA                     DANIEL ALBERTO             00945900000010023082017000  080000009727303                     9
Y605571210045139821743CASTRO                     BERMUDEZ                   NADIA NAOMI                00945900000010023082017000  080000009727403                     9
Y605571210043047406004AVILA                      VELAZQUEZ                  JUAN LUIS                  00945900000010023082017000  080000019124503                     9
Y605571210047998234109TINAJERO                   VANEGAS                    VICTOR DAVID               00945900000010023082017000  080000019124603                     9
Y605571210017159655525DOMINGUEZ                  TIODORO                    ATENOGENES                 00945900000010023082017000  080000024005203                     9
Y605571210021975607066ARELLANO                   ARREDONDO                  JOSE GUADALUPE             00945900000010023082017000  080000025018603                     9
Y605571210067917220211GONZALEZ                   RAMIREZ                    EPIFANIO                   00945900000010023082017000  080000030094103                     9
