Y605571210094119046350JUAREZ                     MORENO                     ABRAHAM                    00945900000010029062017000  080000009715303                     9
Y605571210003149866331ESQUIVEL                   GONZALEZ                   RAFAEL                     00945900000010029062017000  080000019080403                     9
Y605571210043047504808PAZARAN                    VEGA                       ESTHELA MARGARITA          00945900000010029062017000  080000019116503                     9
Y605571210083048540666MORALES                    GONZALEZ                   CONCEPCION                 00945900000010029062017000  080000022064103                     9
Y605571210035169696875LOPEZ                      ARIAS                      JOSE GUILLERMO             00945900000010029062017000  080000027063103                     9
