Y462621510948926651935ESPINOSA                   CALDERON                   BRAULIO                    00945900000010017042017000  080000021168003                     9
Y462621510962927407965BAEZ                       AMADOR                     MARGARITO                  00945900000010017042017000  080000021168103                     9
Y462621510907166140207TEPOX                      MAHUIS                     JOSE JOEL FORTUNATO        00945900000010017042017000  080000021168203                     9
