Y605571210006816344326VAZQUEZ                    OLIVA                      LUIS                       00945900000010026042017000  080000009489703                     9
Y605571210096109281327VILLEGAS                   FLORES                     IRVING JOSE                00945900000010026042017000  080000009649803                     9
Y605571210008149808068TOVAR                      GARCIA                     ANA PATRICIA               00945900000010026042017000  080000009699803                     9
Y605571210010139798762RUBIO                      REYES                      ESMERALDA                  00945900000010026042017000  080000019109603                     9
Y605571210014099351604GARCIA                     SANCHEZ                    JESUS EMMANUEL             00945900000010026042017000  080000022002102                     9
Y605571210067127502234HERNANDEZ                  FERNANDEZ                  GELACIO                    00945900000010026042017000  080000030146803                     9
Y605571210035159686258GALMICH                    LUNA                       EDSON                      00945900000010026042017000  080000030146903                     9
Y605571210002178513269MARTIN                     REGALADO                   LIZ YESENIA                00945900000010026042017000  080000030147003                     9
