Y605571210005179518757ESPINOSA                   PEREZ                      ITIEL ANTONIO              00945900000010024032017000  080000007018403                     9
Y605571210045987102592HERNANDEZ                  GARCIA                     JOSE ANGEL                 00945900000010024032017000  080000009588603                     9
Y605571210003179702836GUZMAN                     ROJAS                      MIGUEL DE JESUS            00945900000010024032017000  080000009678603                     9
Y605571210096078849443PACHECO                    HONTA—ON                   SAUL                       00945900000010024032017000  080000009691303                     9
Y605571210071038118635IBARRIAS                   GONZALEZ                   DIDIER                     00945900000010024032017000  080000009691403                     9
Y605571210096048411969SANTOS                     TORRES                     JONATHAN CRISTOPHER        00945900000010024032017000  080000009691503                     9
Y605571210094038417153RAMIREZ                    ROMERO                     LUIS ENRIQUE               00945900000010024032017000  080000009691603                     9
Y605571210002179590803JIMENEZ                    LARA                       KEILA ANAHI                00945900000010024032017000  080000009691703                     9
Y605571210030129004641RIVERA                     ESQUIVEL                   JESUS                      00945900000010024032017000  080000015199503                     9
Y605571210092069008354MORALES                    MAGUEYAL                   DOLORES MONTSERRAT         00945900000010024032017000  080000015199603                     9
Y605571210016057907970MEDINA                     GUTIERREZ                  MARGARITA                  00945900000010024032017000  080000015199703                     9
Y605571210018129302321MUÒIZ                      JUAREZ                     MARCO ANTONIO              00945900000010024032017000  080000015199803                     9
Y605571210067118919975HERNANDEZ                  CASTILLO                   ESTELA                     00945900000010024032017000  080000030143903                     9
Y605571210067896801247HEREDIA                    COLOHUA                    AGUSTIN                    00945900000010024032017000  080000030144003                     9
