Y605571210081139314462ZUÑIGA                     LOPEZ                      LUIS ALFREDO               00945900000010016122016000  080000004010103                     9
Y605571210094067900939DOMINGUEZ                  LUNA                       LUIS ALBERTO               00945900000010016122016000  080000009471103                     9
Y605571210011887028485LOPEZ                      TORRES                     MARTHA PATRICIA            00945900000010016122016000  080000009636903                     9
Y605571210056169722123RODRIGUEZ                  MATAMOROS                  BRYAN ALEJANDRO            00945900000010016122016000  080000009669703                     9
Y605571210046169573667ROJAS                      MARTINEZ                   MARY KARLA                 00945900000010016122016000  080000009670203                     9
Y605571210017856705110HERRERA                    MENDOZA                    GUSTAVO                    00945900000010016122016000  080000009670303                     9
Y605571210092018372323MARQUEZ                    REYES                      ALBERTO                    00945900000010016122016000  080000009670403                     9
Y605571210020109202992DIAZ                       GONZALEZ                   JOAO JOSUE                 00945900000010016122016000  080000015186703                     9
Y605571210001139502171DIAZ                       GONZALEZ                   ERICK DANIEL               00945900000010016122016000  080000015186803                     9
Y605571210078998209379CORTES                     LINARES                    GUSTAVO                    00945900000010016122016000  080000015186903                     9
Y605571210049886005864SANCHEZ                    JIMENEZ                    PEDRO MARTI                00945900000010016122016000  080000019096803                     9
Y605571210043998389050CRUZ                       SILVESTRE                  LUIS ALBERTO               00945900000010016122016000  080000019096903                     9
