A482760210378897303273CARTAS                     DOMINGUEZ                  ALCIBIADES                 00945900000010025072016000  080000006001803                     9
A482760210352139100672LIBORIO                    LOPEZ                      OSVALDO                    00945900000010025072016000  080000006001903                     9
A482760210352008315641MAGALLON                   GALVAN                     ELMER JAVIER               00945900000010025072016000  080000006002003                     9
