Y605571210042149800692ALMAZAN                    VELAZQUEZ                  MARTIN ALEJANDRO           00945900000010029072016000  080000009631403                     9
Y605571210056159549775CUAHUIZO                   CRUZ                       BERENICE                   00945900000010029072016000  080000009631503                     9
Y605571210008159734881HERNANDEZ                  ROJO                       ROBERT                     00945900000010029072016000  080000009631603                     9
Y605571210045038622606LOPEZ                      AQUINO                     IDAILY                     00945900000010029072016000  080000009631703                     9
Y605571210065109110000BLAS                       CHAGALA                    JAVIER                     00945900000010029072016000  080000011073103                     9
Y605571210051028536616RIVERA                     BECERRA                    OSCAR OMAR                 00945900000010029072016000  080000016007203                     9
Y605571210048997218994GOMEZ                      GOMEZ                      JULIO CESAR                00945900000010029072016000  080000016007303                     9
Y605571210043017923525SILVA                      NAVA                       OZIEL                      00945900000010029072016000  080000019085003                     9
Y605571210014069144302MOLINA                     ESPINOZA                   NORMA KARINA               00945900000010029072016000  080000022001802                     9
Y605571210023139516829RODRIGUEZ                  RODRIGUEZ                  ALBERTO                    00945900000010029072016000  080000025004503                     9
Y605571210023997710803PAEZ                       GONZALEZ                   MARTIN ENRIQUE             00945900000010029072016000  080000025004603                     9
Y605571210023997134343ARIAS                      ARIZQUETA                  ADELMO                     00945900000010029072016000  080000025004703                     9
Y605571210023139455457SAUCEDA                    QUEVEDO                    CESAR GEOVANNI             00945900000010029072016000  080000025004803                     9
Y605571210023119516526ZUÒIGA                     NUÒEZ                      CLAUDIA GUADALUPE          00945900000010029072016000  080000025004903                     9
Y605571210023946201342MANJARREZ                  CAMACHO                    JESUS ANTEMIO              00945900000010029072016000  080000025005003                     9
Y605571210015937420808ALFARO                     JIMENEZ                    ANGEL                      00945900000010029072016000  080000028033203                     9
Y605571210034089011034AVILA                      RODRIGUEZ                  ERICK                      00945900000010026072016000  080000032000403                     9
Y605571210034109210574ACU—A                      GUZMAN                     RICARDO SALVADOR           00945900000010029072016000  080000032000503                     9
Y605571210034079002746PINEDO                     PEREZ                      OSCAR                      00945900000010029072016000  080000032000603                     9
Y605571210034956930118RODRIGUEZ                  RAMOS                      RITA                       00945900000010029072016000  080000032000703                     9
