Y605571210071098717102HERNANDEZ                  ZEA                        VALLELY RUFINA             00945900000010027062016000  080000007015403                     9
Y605571210030977312682ROMERO                     REYES                      LUCIANO                    00945900000010027062016000  080000009621503                     9
Y605571210011038705478AVALOS                     GRIMALDO                   MARIA LUISA                00945900000010027062016000  080000009621603                     9
Y605571210007058703872PEREZ                      ALVARADO                   JULIO CESAR                00945900000010027062016000  080000013012603                     9
Y605571210003957800877GONZALEZ                   GAMEZ                      JOSE SAMUEL                00945900000010027062016000  080000019081303                     9
Y605571210032048605979PUENTE                     FLORES                     JESUS EDUARDO              00945900000010027062016000  080000019081403                     9
Y605571210010159759652GARZA                      ALVIZO                     VICTOR EDUARDO             00945900000010027062016000  080000019081503                     9
Y605571210014109453002SANTIAGO                   GUERRERO                   DIANA LAURA                00945900000010027062016000  080000022046903                     9
Y605571210012168977242CASTILLO                   DELGADO                    JULIO                      00945900000010027062016000  080000030117903                     9
Y605571210067129460266PEREZ                      LEON                       ABEL                       00945900000010027062016000  080000030118003                     9
Y605571210067987813622HERNANDEZ                  GARCIA                     ENRIQUE                    00945900000010027062016000  080000030118103                     9
Y605571210067977851459REYES                      LANDERO                    JOSE ALFREDO               00945900000010027062016000  080000030118203                     9
Y605571210017169842212CRUZ                       MARTINEZ                   ANYOR FERNANDO             00945900000010027062016000  080000030118303                     9
Y605571210067038607585OCAÒA                                                 FELICIANO                  00945900000010027062016000  080000030118403                     9
