Y605571210020997603236CIBRIAN                    NORIA                      ANA LILIA                  00945900000010023012017000  080000009041602                     9
Y605571210096109422483BARRERA                    BACA                       JOVANI                     00945900000010023012017000  080000009677703                     9
Y605571210096118411568REYES                      DIAZ                       ROGELIO                    00945900000010023012017000  080000009677803                     9
Y605571210028119502921SUAREZ                     ORTEGA                     DANIEL                     00945900000010023012017000  080000009677903                     9
Y605571210092109249893MARTINEZ                   ARREGUIN                   JUAN CARLOS                00945900000010023012017000  080000015189103                     9
Y605571210078916707652RAMIREZ                    CHAVEZ                     MOISES ARMANDO             00945900000010023012017000  080000016009103                     9
Y605571210053926818369VEGA                       RODRIGUEZ                  RAFAEL                     00945900000010023012017000  080000016009903                     9
Y605571210003927368658MARTINEZ                   ROSALES                    JUAN ALBERTO               00945900000010023012017000  080000019099803                     9
Y605571210013927405855TORRES                     ROJAS                      GUILLERMO                  00945900000010023012017000  080000022055703                     9
Y605571210044149293290AGUADO                     HERNANDEZ                  IVAN                       00945900000010023012017000  080000022055803                     9
Y605571210014967609687GARCIA                     GUERRERO                   REYNA                      00945900000010023012017000  080000022055903                     9
Y605571210002169804487FERMIN                     PEREZ                      PERLA YADIRA               00945900000010023012017000  080000028038603                     9
Y605571210083987806631ANTONIO                    LUCIANO                    CECILIO                    00945900000010023012017000  080000030134103                     9
Y605571210078119350748REYNOSO                    SALINAS                    JUAN MANUEL                00945900000010023012017000  080000030134203                     9
Y605571210048117704758MARTINEZ                   PASCUAL                    VALENTIN                   00945900000010023012017000  080000030134303                     9
Y605571210067866757452ALEGRIA                    MATHEY                     CESAR                      00945900000010023012017000  080000030134403                     9
Y605571210065978117896FERNANDEZ                  HUESCA                     RENE                       00945900000010023012017000  080000030134503                     9
Y605571210067006901754MARQUEZ                    VELAZQUEZ                  MARIELA                    00945900000010023012017000  080000030134603                     9
Y605571210067947451083OROZCO                     HERNANDEZ                  ANIBAL                     00945900000010023012017000  080000030134703                     9
Y605571210067967650366CUEVAS                     CARLOS                     DANIEL ALBERTO             00945900000010023012017000  080000030134803                     9
Y605571210039997917099NOCHEBUENA                 DE LA CRUZ                 JOSE ANTONIO               00945900000010023012017000  080000030134903                     9
Y605571210067068915544ALVAREZ                    OLAN                       ANDRES                     00945900000010023012017000  080000030135003                     9
Y605571210067785920967HUERVO                     HERNANDEZ                  PEDRO                      00945900000010023012017000  080000030135103                     9
Y605571210067129014667GARCIA                     JUAREZ                     LUCIANO                    00945900000010023012017000  080000030135203                     9
