Y605571210038169966108HORTA                      CARRASCO                   LUIS GERARDO               01076600000010008042019000  080000009873803                     9
Y605571210048169788477MARTINEZ                   MARTINEZ                   LILIANA                    01076600000010008042019000  080000009873903                     9
Y605571210067108103622MORALES                    SEGURA                     NICOLAS MANUEL             01076600000010008042019000  080000023084003                     9
Y605571210005148616138PEREZ                      HERNANDEZ                  MIRNA                      01076600000010008042019000  080000027074403                     9
