Y605571210094099022611PEREZ                      VELEZ                      FERNANDO                   00945900000010016032017000  080000009690203                     9
Y605571210007967817961LIRA                       ESCAMILLA                  MARA ANGELICA              00945900000010016032017000  080000009690303                     9
Y605571210043745630004RODRIGUEZ                  CRUZ                       ENRIQUE                    00945900000010016032017000  080000019088703                     9
Y605571210071876801136ARREVILLEGAS               MORALES                    JOSE                       00945900000010016032017000  080000023043703                     9
Y605571210023119104067MEDINA                     GARCIA                     MIRNA CECILIA              00945900000010016032017000  080000025014103                     9
Y605571210083109201984JIMENEZ                    RAMOS                      EISMAEL                    00945900000010016032017000  080000027060803                     9
Y605571210067028102357TORRES                     ROJAS                      LAURA TEODORA              00945900000010016032017000  080000030142703                     9
Y605571210078109200259REBOLLEDO                  DIAZ                       ENRIQUE DE JESUS           00945900000010016032017000  080000030142803                     9
Y605571210006786216447ALONSO                     ORDAZ                      IGNACIO                    00945900000010016032017000  080000030142903                     9
