Y605571210032008220876PUENTE                     RUIZ                       DANIEL                     00945900000010004072017000  080000005013003                     9
Y605571210032028427360RIVERA                     ZAMORA                     CHRISTOPHER CESAR EDUARDO  00945900000010004072017000  080000005013103                     9
Y605571210076176300176MORA                       CHAVEZ                     LUIS                       00945900000010004072017000  080000009628903                     9
Y605571210046169867168NIÒO                       SANTIAGO                   LEONARDO                   00945900000010004072017000  080000009715903                     9
Y605571210096068855566ROMERO                     GARCIA                     ESTEBAN TOBIAS             00945900000010004072017000  080000009716003                     9
Y605571210093048513038RAMIREZ                    PEREZ                      BLANCA ESTELA              00945900000010004072017000  080000009716203                     9
Y605571210092957673863TORRES                     PE—ALOZA                   JOSE ALBERTO               00945900000010004072017000  080000015203903                     9
Y605571210094088705812HERNANDEZ                  CORTES                     MIRIAM TRINIDAD            00945900000010004072017000  080000015213803                     9
Y605571210030048401910APAEZ                      ARCIGA                     MARIO ARTURO               00945900000010004072017000  080000015213903                     9
Y605571210050159729685SANTIAGO                   MARTINEZ                   ENRIQUE MARTIN             00945900000010004072017000  080000019117403                     9
Y605571210055077701237HERNANDEZ                  MENDOZA                    MARIA DEL CARMEN           00945900000010004072017000  080000019117503                     9
Y605571210078077804439GONZALEZ                                              DOMENICA                   00945900000010004072017000  080000019117603                     9
Y605571210083129360034ROMERO                     ESCALANTE                  FRANCISCO                  00945900000010004072017000  080000023048103                     9
Y605571210019169786183COTO                       REAL                       SILVI GEOVANNI             00945900000010004072017000  080000023048203                     9
Y605571210082109232205TRUJILLO                   LUNA                       LUIS ALBERTO               00945900000010004072017000  080000023048303                     9
Y605571210082896718085CARRILLO                   MOO                        FELICIANO ERNESTO          00945900000010004072017000  080000023048403                     9
