A836767410933927735960LEYVA                      PEREZ                      SERGIO ARNULFO             00945900000010007112016000  080000008064103                     9
A836767410933008258759LOPEZ                      ARZOLA                     MARTHA CRISTINA            00945900000010007112016000  080000008064203                     9
A836767410933048735402MARQUEZ                    MARQUEZ                    RAMON ALONSO               00945900000010007112016000  080000008064303                     9
