R143868210325169755631LOPEZ                      SERRANO                    AMAURY ALEXIS              00945900000010027102016000  080000014110803                     9
R143868210374907218031MARTINEZ                   CAMAÒO                     CESAR OCTAVIO              00945900000010027102016000  080000014122903                     9
R143868210304109424194VAZQUEZ DEL MERCADO        GONZALEZ                   JAVIER                     00945900000010027102016000  080000014123003                     9
