Y605571210048018401769LOSANO                     NICOLAS                    SERGIO                     00945900000010026082016000  080000009641203                     9
Y605571210094129334150RODRIGUEZ                  DE LA CRUZ                 OSCAR                      00945900000010026082016000  080000015180903                     9
Y605571210092946704464RAMIREZ                    GONZALEZ                   JOSE CARLOS                00945900000010026082016000  080000015181003                     9
Y605571210092877111606GUZMAN                     RESENDIZ                   JAIME                      00945900000010026082016000  080000015181103                     9
Y605571210067988041223HERNANDEZ                  HERNANDEZ                  MARIA ISABEL               00945900000010026082016000  080000019086203                     9
