Y605571210083906404138HERNANDEZ                  SONDA                      DELFINO                    00945900000010003042017000  080000004011203                     9
Y605571210038149489932ESCOBAR                    MONTERO                    SOCORRO                    00945900000010001042017000  080000009029102                     9
Y605571210096078746102CRUZ                       GARCIA                     CAROLINA                   00945900000010001042017000  080000009035802                     9
Y605571210092079109812HERNANDEZ                  ROCHIN                     ELLIOT DANIEL              00945900000010003042017000  080000009042502                     9
Y605571210096946600234YESCAS                     RAMIREZ                    VERONICA                   00945900000010003042017000  080000009693403                     9
Y605571210043805902111GARCIA                     GONZALEZ                   ALBERTO                    00945900000010003042017000  080000019098503                     9
Y605571210047947617693PADILLA                    REBOLLAR                   JOSE GUADALUPE             00945900000010003042017000  080000019106803                     9
Y605571210067089017213TOLEDO                     SOTO                       FREDDY                     00945900000010003042017000  080000019106903                     9
Y605571210048058828962HERNANDEZ                  HERNANDEZ                  HUMBERTO                   00945900000010003042017000  080000019107003                     9
Y605571210024169581121ESTEVEZ                    LUGO                       EDER YAITH                 00945900000010003042017000  080000019107103                     9
Y605571210023107802250VIDAL                      MANJARREZ                  NESTOR ALONSO              00945900000010003042017000  080000025015203                     9
