Y605571210013169894717MENDOZA                    RUIZ                       JESUS                      00945900000010018112016000  080000009649203                     9
Y605571210096066401132SANGINES                   MATINEZ                    MARINO                     00945900000010018112016000  080000009659603                     9
Y605571210018169160787LOPEZ                      RODRIGUEZ                  EDUARDO                    00945900000010018112016000  080000009659703                     9
Y605571210045078633356RAMIREZ                    MINISTRO                   ALMA DELIA                 00945900000010018112016000  080000009659803                     9
Y605571210056169839111VASQUEZ                    RODRIGUEZ                  FIDEL FRANCISCO            00945900000010018112016000  080000009659903                     9
Y605571210023897228344GARCIA                     GAMEZ                      RAUL ENRIQUE               00945900000010018112016000  080000009660003                     9
Y605571210045088804666GARCIA                     ELIZARRARAS                MIGUEL                     00945900000010018112016000  080000009660103                     9
Y605571210012776011525BARAJAS                    LOZA                       VALENTIN                   00945900000010018112016000  080000011052703                     9
Y605571210008149458781TEJEDA                     HERNANDEZ                  PABLO                      00945900000010018112016000  080000015186003                     9
Y605571210043887248326QUIROZ                     AGUIRRE                    ALMA DELIA                 00945900000010018112016000  080000019093003                     9
Y605571210043755848900LUPERCIO                   GONZALEZ                   NOE                        00945900000010018112016000  080000019093103                     9
Y605571210050159689624PUCHETA                    ALDANA                     ANA ISABEL                 00945900000010018112016000  080000022048203                     9
Y605571210025169250807GUTIERREZ                  VILLEGAS                   GUADALUPE                  00945900000010018112016000  080000023038303                     9
Y605571210082078412895ANGULO                     TORRES                     ALVIN OBET                 00945900000010018112016000  080000023038403                     9
Y605571210067896101010HERNANDEZ                  EUGENIO                    PERFECTO                   00945900000010018112016000  080000030079203                     9
Y605571210065099205786APARICIO                   GUZMAN                     DANIEL EDUARDO             00945900000010018112016000  080000030089403                     9
Y605571210065937205220CASTILLO                   GUZMAN                     ROBERTO                    00945900000010018112016000  080000030104303                     9
Y605571210018149546279GONZALEZ                   RAMOS                      ANGEL RENE                 00945900000010018112016000  080000030128203                     9
Y605571210065008042130RAMIREZ                    HERNANDEZ                  VICTOR MANUEL              00945900000010018112016000  080000030128303                     9
Y605571210065097300258RAMIREZ                    GONZALEZ                   IGNACIO EDILBERTO          00945900000010018112016000  080000030128403                     9
Y605571210065965805032TEPO                       HERNANDEZ                  JUAN  VENANCIO             00945900000010018112016000  080000030128503                     9
Y605571210065099022280CRESCENCIO                 LOPEZ                      OMAR                       00945900000010018112016000  080000030128603                     9
Y605571210063159661840PACHECO                    BAUDOUIN                   RODRIGO DE JESUS           00945900000010018112016000  080000030128703                     9
Y605571210065856614121GONZALEZ                   JUAREZ                     MOISES                     00945900000010018112016000  080000030128803                     9
Y605571210065896823732PABLO                      GARCIA                     ALBERTO                    00945900000010018112016000  080000030128903                     9
Y605571210059159651450LUCHO                      PONCE                      JORGE ALBERTO              00945900000010018112016000  080000030129003                     9
