Y605571210028078505964ROLDAN                     MIRANDA                    JUAN MANUEL                00945900000010008062017000  080000009711403                     9
Y605571210096079109847FABIAN                     ALVARADO                   FERMIN                     00945900000010008062017000  080000009711503                     9
Y605571210019149127474DIAZ                       ALCANTARA                  ROBERTO DANIEL             00945900000010008062017000  080000009711803                     9
Y605571210028089106943VALDEZ                     RAMIREZ                    MIGUEL ANGEL               00945900000010008062017000  080000009711903                     9
Y605571210045058324174PEREZ                      GARCIA                     FERNANDO                   00945900000010008062017000  080000009712003                     9
Y605571210020917102251GAXIOLA                    JIMENEZ                    MARIBEL                    00945900000010008062017000  080000015002802                     9
Y605571210016997922048MEZA                       ARZATE                     LETICIA                    00945900000010008062017000  080000015096103                     9
Y605571210069159792238HERNANDEZ                  TELLEZ                     JOSE ALBERTO               00945900000010008062017000  080000015212603                     9
Y605571210003169142191SANCHEZ                    MONTOYA                    MARIO JOSE                 00945900000010008062017000  080000015212803                     9
Y605571210049746000287ESPARZA                    RODRIGUEZ                  RAFAEL                     00945900000010008062017000  080000028038303                     9
Y605571210049867009661GARCIA                     GOMEZ                      NICOLAS                    00945900000010008062017000  080000028041603                     9
Y605571210067978059722ZENTENO                    GONZALEZ                   GERMAN                     00945900000010008062017000  080000030150703                     9
Y605571210067937650116MARTINEZ                   BARRIOS                    JESUS                      00945900000010008062017000  080000030150803                     9
Y605571210065119248311MORALES                    VENCES                     LUIS GUILLERMO             00945900000010008062017000  080000030150903                     9
