Y605571210042068503624SANDOVAL                   GARCIA                     GUILLERMO                  00945900000010021062017000  080000009713803                     9
Y605571210002169335623GONZALEZ                   MARTINEZ                   JOSE MANUEL                00945900000010021062017000  080000009713903                     9
Y605571210015169954052ALVAREZ                    ROLDAN                     JOSE FERNANDO              00945900000010021062017000  080000009714003                     9
Y605571210045028212665ZAMORA                     CEDILLO                    YOCELYN ANTONIO            00945900000010022062017000  080000009714103                     9
Y605571210092078901698MEDINA                     VIEYRA                     VICTOR HUGO                00945900000010021062017000  080000015213303                     9
Y605571210083118305842LOPEZ                      DE LA CRUZ                 MAGALYS                    00945900000010021062017000  080000019101403                     9
Y605571210018159236951VICENCIO                   JUAREZ                     JORGE LUIS                 00945900000010021062017000  080000019115803                     9
Y605571210043109258996CARRILLO                   MARTINEZ                   EMANUEL RODRIGO            00945900000010021062017000  080000019115903                     9
Y605571210064159870415CRUZ                       MARTINEZ                   NOE ALEJANDRO              00945900000010021062017000  080000022060403                     9
Y605571210002175928296SILVA                      GUERRERO                   JUAN JOSE                  00945900000010021062017000  080000022063403                     9
Y605571210034998202021HERNANDEZ                  CORONADO                   JUAN CARLOS                00945900000010021062017000  080000022063503                     9
Y605571210023926401995LEYVA                      VEGA                       MARTIN ANSELMO             00945900000010021062017000  080000025017603                     9
Y605571210083129306425VIDAL                      MIRANDA                    MARIO                      00945900000010021062017000  080000027062603                     9
Y605571210067029600284ALEGRIA                    ALEMAN                     JORGE  HERNAN              00945900000010021062017000  080000030151503                     9
Y605571210048007722928CAMPOS                     CONTRERAS                  JESUS                      00945900000010021062017000  080000030151603                     9
