Y702574710184937222226BOTE                       CAUICH                     JOSE ALVARO                00945900000010007062017000  080000031032303                     9
Y702574710184906409473LUCIANO                    LOPEZ                      RUFINO                     00945900000010007062017000  080000031037603                     9
Y702574710182967310184MIGUEL                     OCHOA                      HECTOR DAVID               00945900000010007062017000  080000031037703                     9
