R143868210375119208868CARRILLO                   GUIJARRO                   JOSE DANIEL                00945900000010023062017000  080000014134603                     9
R143868210303178959254MACIAS                     GARCIA                     ERIKA NOEMI                00945900000010023062017000  080000014134703                     9
R143868210354806157167LEAÒOS                     RAMIREZ                    MARTIN                     00945900000010023062017000  080000014134803                     9
R143868210354836536364HERNADEZ                   LOPEZ                      RAFAEL                     00945900000010023062017000  080000014134903                     9
R143868210304127106641FLORES                     FIGUEROA                   PAULINA                    00945900000010023062017000  080000014135003                     9
