Y605571210032078878363BARRERA                    RENTERIA                   ANTUAN DE JESUS            00945900000010020092016000  080000005011303                     9
Y605571210094087600543MENDIETA                   GARCIA                     MARIA ANGELICA             00945900000010020092016000  080000009645803                     9
Y605571210094048546512ALVARADO                   MARTINEZ                   VIRIDIANA BRISEIDA         00945900000010020092016000  080000009645903                     9
Y605571210049149653120JUAREZ                     HERNANDEZ                  JUAN CARLOS                00945900000010020092016000  080000009646003                     9
Y605571210068957818898VERA                       CANTERA                    MANUEL                     00945900000010020092016000  080000009646103                     9
Y605571210012907043686CERRITOS                   HERNANDEZ                  JOSE GUADALUPE             00945900000010020092016000  080000011089503                     9
Y605571210012856718841RAMIREZ                    CASTAÑEDA                  ARNULFO                    00945900000010020092016000  080000011089603                     9
Y605571210067946315073PEREZ                      SAMAYOA                    YXSANDRO                   00945900000010020092016000  080000011089703                     9
Y605571210043089155055FLORES                     RODRIGUEZ                  LUIS ROMAN                 00945900000010020092016000  080000019087203                     9
Y605571210014907242318MENESES                    LOPEZ                      JULIO                      00945900000010020092016000  080000022049103                     9
Y605571210065129135417MORALES                    RIVERA                     FRANCISCO                  00945900000010020092016000  080000022051003                     9
Y605571210082119511416LOPEZ                      BRITO                      DIEGO                      00945900000010020092016000  080000023033403                     9
