Y605571210020028406575LEAL                       OSORIO                     NESTOR ALEJANDRO           00945900000010010082016000  080000009635203                     9
Y605571210007068812374ALVARADO                   CASTILLO                   JORGE RICARDO              00945900000010010082016000  080000009635303                     9
Y605571210028907155882VALERIANO                  GOMORA                     ROBERTO CRISPIN            00945900000010010082016000  080000009635403                     9
Y605571210037876930720AGUILAR                    HERNANDEZ                  TOMAS                      00945900000010010082016000  080000009635503                     9
Y605571210011927132081NORIEGA                    ALCANTARA                  FRANCISCO                  00945900000010010082016000  080000009635603                     9
Y605571210039129732937DE LA CRUZ                 ARRATIA                    LUIS SANTIAGO              00945900000010010082016000  080000009635703                     9
Y605571210011957216036GUERRERO                                              GABRIEL                    00945900000010010082016000  080000009635803                     9
Y605571210006169709182TUFIÒO                     MADARIAGA                  FRANCISCO JAVIER           00945900000010010082016000  080000009635903                     9
Y605571210045139889963LUCAS                      COLIN                      GERARDO                    00945900000010010082016000  080000009636003                     9
Y605571210007977904304MARTINEZ                   PANDURO                    ALEJANDRO                  00945900000010010082016000  080000009636103                     9
Y605571210028109118498SOLIS                      SOTO                       GIOVVANA JANNET            00945900000010010082016000  080000009636203                     9
Y605571210053089110216ALVARADO                   NIETO                      LUIS ARTURO                00945900000010010082016000  080000016005803                     9
Y605571210021998223693VALDIVIA                   VILLANUEVA                 SERGIO                     00945900000010010082016000  080000016007603                     9
Y605571210053078916409FLORES                     VENEGAS                    RAUL                       00945900000010010082016000  080000016007703                     9
Y605571210017149519724TORRES                     CASTA—EDA                  FLAVIO CESAR               00945900000010010082016000  080000016007803                     9
Y605571210021896953342VALDEZ                     CABRERA                    HUGO                       00945900000010010082016000  080000016007903                     9
Y605571210002167680699HERNANDEZ                  FELIPE                     FRANCISCO                  00945900000010010082016000  080000022049203                     9
Y605571210012917277472SANABRIA                   JIMENEZ                    LUIS MANUEL                00945900000010010082016000  080000022049303                     9
Y605571210062856623368ROJAS                      SANCHEZ                    ERICK RENE DE JESUS        00945900000010010082016000  080000022049403                     9
Y605571210027169576843SERVIN                     TREJO                      MARIO ALBERTO              00945900000010010082016000  080000022049503                     9
Y605571210013119227018RODRIGUEZ                  AGUILAR                    ANALLELY                   00945900000010010082016000  080000022049603                     9
Y605571210083139500439SANCHEZ                    HERNANDEZ                  EDUARDO                    00945900000010010082016000  080000027057803                     9
