Y605571210096099313825MARTINEZ                   ESCOBAR                    CARLOS                     00945900000010015112016000  080000009545703                     9
Y605571210096008224642ENRIQUEZ                   LUNA                       FERNANDO                   00945900000010015112016000  080000009561703                     9
Y605571210007887025216CAMARGO                    PEREZ                      JUAN MANUEL                00945900000010015112016000  080000009581003                     9
Y605571210030037602882LANDEROS                   RIVERA                     EDSON EDUARDO              00945900000010015112016000  080000009599903                     9
Y605571210042109119513SANCHEZ                    ANDERSON                   VICTOR IRVING              00945900000010015112016000  080000009658303                     9
Y605571210010846719606SOBERANES                  MONTERRUBIO                REYES                      00945900000010015112016000  080000009658403                     9
Y605571210068169735815AGUILAR                    RODRIGUEZ                  ALFREDO ANTONIO            00945900000010015112016000  080000009658503                     9
Y605571210045896902553ORTEGA                     GONZALEZ                   JORGE LUIS                 00945900000010015112016000  080000009658603                     9
Y605571210004169734870ARELLANO                   ESCARCEGA                  IRANI                      00945900000010015112016000  080000009658703                     9
Y605571210018149803423MARTINEZ                   AMARO                      ERICK                      00945900000010015112016000  080000009658803                     9
Y605571210092109161809APODACA                    MORENO                     FERNANDO                   00945900000010015112016000  080000015185703                     9
Y605571210016907017137VALDES                     NIETO                      JORGE LUIS                 00945900000010015112016000  080000015185803                     9
Y605571210013857006640ROJO                       HERNANDEZ                  VERONICA                   00945900000010015112016000  080000022052703                     9
Y605571210032109029580VAZQUEZ                    ALVAREZ                    ZULEYMA                    00945900000010015112016000  080000023038203                     9
