Y605571210005169287165HERNANDEZ                  SANTIZ                     SILVIA                     00945900000010002022017000  080000007013503                     9
Y605571210043098913049VAZQUEZ                    VELAZQUEZ                  EDILBERTO                  00945900000010002022017000  080000007016603                     9
Y605571210071887023563LOPEZ                      DOMINGUEZ                  CARLOS ALBERTO             00945900000010002022017000  080000007016703                     9
Y605571210063159814373CAZARES                    HERRERA                    ALEXIS FERNANDO            00945900000010002022017000  080000009660903                     9
Y605571210001744846955CORTES                     ALCAZAR                    FRANCISCO                  00945900000010002022017000  080000009680703                     9
Y605571210020028321519ESQUIVEL                   SALDAÑA                    PEDRO DAVID                00945900000010002022017000  080000015131203                     9
Y605571210019169852290CAMACHO                    BORJA                      GERARDO                    00945900000010002022017000  080000015190203                     9
Y605571210002179040189MEJIA                      GARCIA                     OMAR DE JESUS              00945900000010002022017000  080000015190303                     9
Y605571210003146725605CASTELLANOS                HERRERA                    ROLANDO                    00945900000010002022017000  080000015190403                     9
Y605571210092129304389GONZALEZ                   BURGOS                     PAOLA MONTSERRAT           00945900000010002022017000  080000015190503                     9
Y605571210043857025597MARTINEZ                   MEDINA                     JUAN                       00945900000010002022017000  080000019093703                     9
Y605571210043956901094VAZQUEZ                    VILLARREAL                 HECTOR                     00945900000010002022017000  080000019101203                     9
Y605571210014018431933ALVARADO                   ESCAMILLA                  PEDRO                      00945900000010002022017000  080000022053003                     9
Y605571210012018013149MARTINEZ                   ABARCA                     PASCUALITA                 00945900000010002022017000  080000022053703                     9
Y605571210023755626720CERVANTES                  MENDOZA                    BENJAMIN                   00945900000010002022017000  080000025012703                     9
Y605571210065067405962ATILANO                    RAMIREZ                    AGUSTINA                   00945900000010002022017000  080000030071703                     9
Y605571210065078203869CARRERA                    RAYGOZA                    PETRA                      00945900000010002022017000  080000030135703                     9
