Y607431310492028108204HERNANDEZ                  RIOS                       PAULA                      01806800000010003062022000  080000009019103                     9
Y607431310462169749629GARCIA                     MARTINEZ                   EDUARDO                    01806800000010003062022000  080000009019203                     9
Y607431310420906917289ESPINOSA                   GUTIERREZ                  DANIEL                     01806800000010003062022000  080000009019303                     9
