Y605571210092008318039ALVA                       DOMINGUEZ                  MAURICIO                   00945900000010006062017000  080000009710103                     9
Y605571210045937629447GONZALEZ                   GALINDO                    GLORIA AGUEDA              00945900000010006062017000  080000009710203                     9
Y605571210075856726536CELIS                      CAMACHO                    ALEJANDRO                  00945900000010006062017000  080000009710303                     9
Y605571210042139721833CELIS                      ALCANTARA                  FERNANDO ELIAS             00945900000010006062017000  080000009710403                     9
Y605571210030998126871ACOSTA                     PASTRANA                   RAUL                       00945900000010006062017000  080000009710503                     9
Y605571210037927443368VALDEZ                     RIVERA                     JUAN                       00945900000010006062017000  080000009710703                     9
Y605571210045058426615RAMIREZ                    RAMOS                      JESUS ENRIQUE              00945900000010006062017000  080000009710803                     9
Y605571210045129231390MUÒOZ                      PEDRERO                    SILVIA ANGELICA            00945900000010006062017000  080000009710903                     9
Y605571210030897121627SANCHEZ                    GALVAN                     RICARDO                    00945900000010006062017000  080000009711003                     9
Y605571210008179572550GARCIA                     SANCHEZ                    ANDRES                     00945900000010006062017000  080000015212303                     9
Y605571210048008296377RAMOS                      SUAREZ                     ANGELICA LILIANA           00945900000010006062017000  080000016011603                     9
Y605571210041109205207MORALES                    RODRIGUEZ                  JOSE ISMAEL                00945900000010006062017000  080000019115103                     9
Y605571210005179481758LUNA                       GODOY                      JULIO CESAR                00945900000010006062017000  080000022062903                     9
Y605571210032018203540LOPEZ                      GARCIA                     MIGUEL                     00945900000010006062017000  080000023047103                     9
Y605571210013169666792MONTERO                    VARGAS                     ERIK                       00945900000010006062017000  080000023047203                     9
Y605571210083088943671TIRADO                     CARRASCO                   ADOLFO                     00945900000010006062017000  080000027062303                     9
