Y605571210002179643156VALENCIA                   CHAN                       JESUS GABRIEL              00945900000010016012017000  080000004010603                     9
Y605571210045957624591GONZALEZ                   MIRANDA                    GABRIEL                    00945900000010016012017000  080000009566603                     9
Y605571210096098708330SERRALDE                   MOLOTLA                    CARLOS ALONSO              00945900000010016012017000  080000009676303                     9
Y605571210013998230505FRANCISCO                  GARCIA                     BENJAMIN                   00945900000010016012017000  080000013011103                     9
Y605571210001028424362SANCHEZ                    CHAVEZ                     SALVADOR                   00945900000010016012017000  080000013016403                     9
Y605571210094109279649CORREA                     SANCHEZ                    ERIK JONATHAN              00945900000010016012017000  080000015188403                     9
Y605571210004816401444DE LA TORRE                RODRIGUEZ                  PEDRO                      00945900000010016012017000  080000016005503                     9
Y605571210001168709986AYALA                      ALVAREZ                    JOSE DE JESUS              00945900000010016012017000  080000016009803                     9
Y605571210047089029020TOBANCHE                   ACOSTA                     MARTIN GUADALUPE           00945900000010016012017000  080000019095003                     9
Y605571210065926971543SANTOS                     MARTINEZ                   MIGUEL MOISES              00945900000010016012017000  080000023041803                     9
Y605571210001786096279CONTRERAS                  JIMENEZ                    JAVIER                     00945900000010016012017000  080000025001803                     9
Y605571210025159682704NAJERA                     SANTIAGO                   J. ASUNCION                00945900000010016012017000  080000028035803                     9
Y605571210065048506003MANUEL                     RIOS                       CHRISTIAN                  00945900000010016012017000  080000030132903                     9
Y605571210067866953689CAPORAL                    MAZABA                     GABINO                     00945900000010016012017000  080000030133003                     9
Y605571210067038007125MACAL                      CHAVEZ                     DIEGO ANSELMO              00945900000010016012017000  080000030133103                     9
Y605571210067957650590GONZALEZ                   BAEZA                      JUAN ANTONIO               00945900000010016012017000  080000030133203                     9
Y605571210067007714669JIMENEZ                    DE LA CRUZ                 JOSE GUADALUPE             00945900000010016012017000  080000030133303                     9
