Y605571210090087901527RUIZ                       SANCHEZ                    VALENTIN                   00945900000010018052017000  080000009043302                     9
Y605571210003148813458SALAS                      PRUDENCIO                  FRANCISCO MANUEL           00945900000010018052017000  080000009566103                     9
Y605571210096986901914LLAMAS                     PACHECO                    CARMEN                     00945900000010018052017000  080000009696203                     9
Y605571210010149510439CASTAÒEDA                  TALAVERA                   DAVID ROBERTO              00945900000010018052017000  080000009705803                     9
Y605571210028079100252SEGURA                     MARCHAND                   TANIA NAYELY               00945900000010018052017000  080000009705903                     9
Y605571210019765837216MOTA                       FLORES                     JUAN                       00945900000010018052017000  080000009706103                     9
Y605571210092998318874RUIZ                       PACHECO                    JESSICA MARLENE            00945900000010018052017000  080000015210303                     9
Y605571210026149538691CASTILLO                   BASURTO                    ADRIAN                     00945900000010018052017000  080000015210403                     9
Y605571210092987725022TREJO                      RUIZ                       MARGARITA                  00945900000010018052017000  080000015210603                     9
Y605571210011927612082HERNANDEZ                  REYES                      JUAN DE DIOS               00945900000010018052017000  080000015210703                     9
Y605571210032058849293HERNANDEZ                  GONZALEZ                   RODRIGO                    00945900000010018052017000  080000019113303                     9
Y605571210009078974434CACERES                    HERNANDEZ                  NICOLAS                    00945900000010018052017000  080000019113403                     9
Y605571210011038608037GOMEZ                      CRUZ                       CELSO                      00945900000010018052017000  080000030148603                     9
Y605571210057159687672PEÒA                       GONZALEZ                   CARLOS JOAQUIN             00945900000010018052017000  080000030148703                     9
Y605571210067119218088BELLO                      MARTINEZ                   MISAEL                     00945900000010018052017000  080000030148803                     9
