Z064567510812947882028GONZALEZ                   CALDERON                   JUAN GERARDO               00945900000010028072017000  080000011040703                     9
Z064567510853119023009PEREZ                      MARTINEZ                   RICARDO                    00945900000010028072017000  080000011102403                     9
Z064567510812038606815JARAMILLO                  HERNANDEZ                  ROBERTO                    00945900000010028072017000  080000011102503                     9
Z064567510804977907924LOPEZ                      CORREA                     ARMANDO                    00945900000010028072017000  080000011102603                     9
Z064567510863897240261BARROSO                    MOJICA                     JOSE ISRAEL                00945900000010028072017000  080000011102703                     9
Z064567510812089025220HERNANDEZ                  RAMIREZ                    MARIO EDUARDO              00945900000010028072017000  080000011102803                     9
Z064567510812907549765OLMEDO                     GALLEGOS                   FRANCISCO                  00945900000010028072017000  080000011102903                     9
Z064567510812907064898DELGADO                    PEREZ                      JOSE JUAN                  00945900000010028072017000  080000011103003                     9
Z064567510873169565717MENDOZA                    GAMIÑO                     JAIR ESAU                  00945900000010028072017000  080000011103103                     9
