Y702574710184935703151SOLANO                     MANUEL                     CRESCENCIO                 00945900000010023052017000  080000031037203                     9
Y702574710182038420871SULUB                      DIAZ                       JOSE LUIS                  00945900000010023052017000  080000031037303                     9
Y702574710184997304690TORIBIO                    RODRIGUEZ                  RICARDO                    00945900000010023052017000  080000031037403                     9
