Z064567510812836723630MARTINEZ                   RAMOS                      FELIX                      00945900000010013022017000  080000011095203                     9
Z064567510865118620908JIMENEZ                    ZOTELO                     ORNALDY                    00945900000010013022017000  080000011095303                     9
Z064567510814967851339MENDOZA                    LIRA                       VICTOR MANUEL              00945900000010013022017000  080000011095403                     9
Z064567510812977886279CAMACHO                    CAUDILLO                   MIGUEL ANGEL               00945900000010013022017000  080000011095503                     9
