Y607431310402249596269VEGA                       CORTEZ                     ABIGAIL                    02925500000010006022025000  080000009037403                     9
Y607431310401099008094BENITO                     MARTINEZ                    MIGUEL ANGEL              02925500000010006022025000  080000009037503                     9
Y607431310494068906281GARCIA                     MORALES                    ANALLELY                   02925500000010006022025000  080000009037603                     9
Y607431310416998227017MAYA                       NAVA                       JESUS                      02925500000010006022025000  080000015001503                     9
Y607431310416056601863OSORIO                     MIRANDA                    REYNA                      02925500000010006022025000  080000015001603                     9
