Y605571210081906701321VIDAL                      CABALLERO                  LUIS ALFONSO               00945900000010025112016000  080000004007703                     9
Y605571210081109006940BASTO                                                 JORGE FELIPE               00945900000010025112016000  080000004009303                     9
Y605571210081927223669ACEVEDO                    RODRIGUEZ                  JUAN MANUEL                00945900000010025112016000  080000004009403                     9
Y605571210032018200496HEREDIA                    CEDILLO                    MIGUEL                     00945900000010025112016000  080000005011403                     9
Y605571210060008210886HERNANDEZ                  GUERRERO                   ANTONIO                    00945900000010025112016000  080000005011503                     9
Y605571210011735664069SANTIAGO                   GARCIA                     MANUEL                     00945900000010025112016000  080000009040902                     9
Y605571210092129126311ORTEGA                     ORTEGA                     JORGE                      00945900000010025112016000  080000009622103                     9
Y605571210030008413806CHAVEZ                     PRADO                      JOEL GUADALUPE             00945900000010025112016000  080000009662003                     9
Y605571210045129321779BAUTISTA                   GARRIDO                    LORENZO JOVANNI            00945900000010025112016000  080000009662103                     9
Y605571210030129209889GARCIA                     SALADO                     JORGE LUIS                 00945900000010025112016000  080000009662203                     9
Y605571210096129485197TORRES                     GONZALEZ                   MARIA DEL PILAR            00945900000010025112016000  080000009662303                     9
Y605571210094098507356PEREZ                      PRIETO                     ANTONIO                    00945900000010025112016000  080000009662403                     9
Y605571210012068800999TORRES                     MACIAS                     JUAN MANUEL                00945900000010025112016000  080000011087303                     9
Y605571210012886769848ROMO                       RODRIGUEZ                  JULIO CESAR                00945900000010025112016000  080000011091103                     9
Y605571210005169009643GILES                      RAMIREZ                    JOSE ANTONIO               00945900000010025112016000  080000011091203                     9
Y605571210012957833861MENDOZA                    JUAREZ                     JOSE CARMEN                00945900000010025112016000  080000011091303                     9
Y605571210039968031672BORNEQUE                   MORA                       MARIO ALBERTO              00945900000010025112016000  080000012000102                     9
Y605571210021058337474RAIGOZA                    ROMERO                     OSCAR OMAR                 00945900000010025112016000  080000022053203                     9
Y605571210043128305265MARTINEZ                   RUBIO                      JAIME                      00945900000010025112016000  080000022053303                     9
Y605571210049885804846SOLIS                      MENDEZ                     MANUEL                     00945900000010025112016000  080000023039503                     9
Y605571210067099208869PERFECTO                   RODRIGUEZ                  ENRIQUE                    00945900000010025112016000  080000030094903                     9
Y605571210067138706139JIMENEZ                    OSORIO                     JORGE IVAN                 00945900000010025112016000  080000030129903                     9
Y605571210065866826798CAMARILLO                  GARCIA                     CATALINA                   00945900000010025112016000  080000030130003                     9
