R143868210354806458888CARDENAS                   HUERTA                     BERNARDO                   00945900000010007082017000  080000014003702                     9
R143868210304907138590PONCE                      GUTIERREZ                  IRMA LETICIA               00945900000010007082017000  080000014124403                     9
R143868210375119100016ROMERO                     VILLALVAZO                 JORGE RENE                 00945900000010007082017000  080000014136403                     9
