Y605571210005148980146ESPINOZA                   LLAMAS                     ISABEL                     00945900000010016052017000  080000009682503                     9
Y605571210020028423042HERNANDEZ                  DE LA CRUZ                 EDGAR                      00945900000010016052017000  080000009704903                     9
Y605571210046119318965CARRANZA                   AMAYA                      ARACELI                    00945900000010016052017000  080000009705003                     9
Y605571210039896624374CABRERA                    MARTINEZ                   SALVADOR                   00945900000010016052017000  080000009705103                     9
Y605571210045129640483LOPEZ                      MUCIÒO                     LESLY FERNANDA             00945900000010016052017000  080000009705203                     9
Y605571210042169699503GONZALEZ                   CASTILLO                   LUIS ANTONIO               00945900000010016052017000  080000009705303                     9
Y605571210003178936377DOMINGUEZ                  AVILA                      ELIZABETH                  00945900000010016052017000  080000009705403                     9
Y605571210046159436842OLIN                       GARCIA                     ALBERTO                    00945900000010016052017000  080000015210103                     9
Y605571210047058931826FLORES                     FACUNDO                    JESUS CARLOS               00945900000010016052017000  080000019082503                     9
Y605571210003149118261GONZALEZ                   CARDENAS                   ERIK ALEJANDRO             00945900000010016052017000  080000019094503                     9
Y605571210034937204906DELGADO                    CISNEROS                   JOSE ANGEL                 00945900000010016052017000  080000019105303                     9
Y605571210043867052060SEPULVEDA                  CHAVEZ                     RUBEN                      00945900000010016052017000  080000019112903                     9
Y605571210043099170284JARAMILLO                  HERNANDEZ                  JOSE ENRIQUE               00945900000010016052017000  080000019113003                     9
Y605571210003886908817JIMENEZ                    GOMEZ                      JESUS ALEJANDRO            00945900000010016052017000  080000019113103                     9
Y605571210003179368232TORRES                     FELIX                      VALERIA                    00945900000010016052017000  080000025014603                     9
