Y605571210045048603810GONZALEZ                   PASCUAL                    LETICIA                    00945900000010024102016000  080000009652103                     9
Y605571210011018321213LINARES                    SANCHEZ                    CRISTIAN ALEXANDER         00945900000010024102016000  080000009652203                     9
Y605571210096129003982FLORES                     CANO                       LUCERO                     00945900000010024102016000  080000009652303                     9
Y605571210020978017018ZAMORA                     OCHOA                      JAZMIN                     00945900000010024102016000  080000015183803                     9
Y605571210004998405643VAZQUEZ                    CERVANTES                  JOSE ANTONIO               00945900000010024102016000  080000018000903                     9
Y605571210021008239291NUCAMENDI                  RUIZ                       JOSE LUIS                  00945900000010024102016000  080000019090203                     9
Y605571210078947900011SILVESTRE                  HERNANDES                  ANTELMO                    00945900000010024102016000  080000020028103                     9
Y605571210067038308861RAMOS                      HERNANDEZ                  JOSE LUIS                  00945900000010024102016000  080000025002303                     9
Y605571210065038542091HERNANDEZ                  VAZQUEZ                    DAVID IVAN                 00945900000010024102016000  080000028036303                     9
Y605571210067987011078PEÒA                       ROJAS                      ARACELI                    00945900000010024102016000  080000030127303                     9
