Y605571210010159563401MARTINEZ                   PEREZ                      JULIO GILMAR               00945900000010014062017000  080000013017003                     9
Y605571210043997006713NUÑEZ                      FAJARDO                    JOSE ANDRES                00945900000010014062017000  080000019115603                     9
Y605571210072029803086CERVANTES                  MARTINEZ                   JESUS OMAR                 00945900000010014062017000  080000022055303                     9
Y605571210086169731691JIMENEZ                    MEDINA                     BRIAN EDUARDO              00945900000010014062017000  080000022063203                     9
Y605571210027149205810FRAGOZO                    BOJORQUEZ                  HECTOR AARON               00945900000010014062017000  080000025017403                     9
Y605571210065997610756ALDAZABA                   JIMENEZ                    JESUCITA                   00945900000010014062017000  080000030151103                     9
