Y605571210019159638147AYALA                      REYES                      JONATHAN EDUARDO           00945900000010015022017000  080000015192503                     9
Y605571210016116702032MARTINEZ                   REBOLLAR                   PRUDENCIA                  00945900000010015022017000  080000015192703                     9
Y605571210066159697136DIAZ                       UGARTE                     RAFAEL EFRAIN              00945900000010015022017000  080000015192803                     9
Y605571210043886769959GALLEGOS                   REYNA                      JOEL                       00945900000010015022017000  080000019102103                     9
Y605571210003179799006ESCOBAR                    CANDANOSA                  CARMEN YESENIA             00945900000010015022017000  080000019102403                     9
Y605571210027169805135ORTELA                     ESTRADA                    ALESSANDRA MARLEN          00945900000010015022017000  080000019102503                     9
Y605571210062159425368ESTEBAN                    GONZALEZ                   SAMUEL FERNANDO            00945900000010015022017000  080000027059603                     9
