Y605571210051887220997DE LIRA                    DEL REAL                   CLEMENTE                   00945900000010006032017000  080000001009303                     9
Y605571210071119036177GOMEZ                      SANTIZ                     OLIVERIO                   00945900000010006032017000  080000007016903                     9
Y605571210085149524465SALDA—A                    SANCHEZ                    JUAN MANUEL                00945900000010006032017000  080000009586603                     9
Y605571210045129441098ARGUETA                    GOMEZ                      JUAN CARLOS                00945900000010006032017000  080000009687003                     9
Y605571210044169574538PERALTA                    MEDINA                     CARLOS DANIEL              00945900000010006032017000  080000009687103                     9
Y605571210026169862476GUTIERREZ                  BLANCAS                    SELINA                     00945900000010006032017000  080000015196503                     9
Y605571210092977861290BAUTISTA                   CRUZ                       LUCY ESPERANZA             00945900000010006032017000  080000015196603                     9
Y605571210047068958801RAMIREZ                    CASAS                      ANGEL DE JESUS             00945900000010006032017000  080000019104103                     9
Y605571210002168204689MORALES                    MUÒOZ                      JOSE LUIS                  00945900000010006032017000  080000019104203                     9
Y605571210049866327627TORRES                     CRUZ                       JOSE MANUEL                00945900000010006032017000  080000019104303                     9
Y605571210083119407373ALAMILLA                   LOPEZ                      HUGO ENRIQUE               00945900000010006032017000  080000027060603                     9
