A836767410933967277477DOMINGUEZ                  OLIVAS                     EDUARDO                    00945900000010004082017000  080000008079403                     9
A836767410933836642158OCON                       PEREZ                      JUAN ALBERTO               00945900000010004082017000  080000008079503                     9
A836767410952008412505RODRIGUEZ                  GAYTAN                     PASCUAL                    00945900000010004082017000  080000008079603                     9
