Y462621510962876204926LOAEZA                     HERNANDEZ                  JORGE                      00945900000010006122016000  080000021160303                     9
Y462621510919169706348MARQUEZ                    PORTILLO                   ANTONIO                    00945900000010006122016000  080000021160903                     9
Y462621510962937313443SANCHEZ                    SOLEDAD                    GIBERTO                    00945900000010006122016000  080000021161003                     9
Y462621510948139244882CARRILLO                   HERNANDEZ                  CARLOS ALBERTO             00945900000010006122016000  080000021161103                     9
