Y605571210001846603924ORTEGA                     RAMIREZ                    JULIO                      00945900000010026102016000  080000009040602                     9
Y605571210005149368408ROSALES                    DELGADO                    FERNANDO ENRIQUE           00945900000010026102016000  080000009652603                     9
Y605571210013856555563RAMIREZ                    RIVEROS                    LETICIA                    00945900000010026102016000  080000013016203                     9
Y605571210006866902684GOMEZ                      NAVA                       FERNANDO                   00945900000010026102016000  080000015184103                     9
Y605571210030886404380VALDES                     VALDES                     JORGE LUIS                 00945900000010026102016000  080000019090403                     9
Y605571210010159575405ROMERO                     PEREZ                      JOSE DAVID                 00945900000010026102016000  080000023037803                     9
