Y605571210007998400019ARENAS                     RIVERO                     NATALIA                    00945900000010005072016000  080000009559803                     9
Y605571210096108409226MARTINEZ                   MEJORADA                   CRISTIAN JOVAN             00945900000010005072016000  080000009623703                     9
Y605571210030139609470MIGUEL                     MORALES                    JAZMIN ITZEL               00945900000010005072016000  080000009623803                     9
Y605571210030058811115HERNANDEZ                  ESTRADA                    HUMBERTO                   00945900000010005072016000  080000009623903                     9
Y605571210094977824336GONZALEZ                   PEDRO                      ANTONIO                    00945900000010005072016000  080000009624003                     9
Y605571210092906936163SALINAS                    MENDEZ                     MARIO                      00945900000010005072016000  080000009624103                     9
Y605571210096127602256MENDEZ                     MARTINEZ                   PATRICIA                   00945900000010005072016000  080000009624203                     9
Y605571210012977740492MEDINA                     GONZALEZ                   RAYMUNDO                   00945900000010005072016000  080000011085403                     9
Y605571210083119321806MONTEJO                    POT                        EDDY ALBERTO               00945900000010005072016000  080000011085503                     9
Y605571210016856200643DE LA CRUZ                 MARTINEZ                   SALVADOR                   00945900000010005072016000  080000015143803                     9
Y605571210009068504910BENITEZ                    DOLORES                    MIGUEL ANGEL               00945900000010005072016000  080000015177703                     9
Y605571210043139607543LOPEZ                      VASQUEZ                    ALEJANDRO SALOMON          00945900000010005072016000  080000019082203                     9
Y605571210043089329346PEREYRA                    MARTINEZ                   JOSE ALONSO                00945900000010005072016000  080000019082303                     9
Y605571210009119416866TELLEZ                     MORALES                    EDGAR                      00945900000010005072016000  080000019082403                     9
Y605571210047058931826FLORES                     FACUNDO                    JESUS CARLOS               00945900000010005072016000  080000019082503                     9
Y605571210023866706221LOPEZ                      MARTINEZ                   JUAN HUMBERTO              00945900000010005072016000  080000025003003                     9
Y605571210070149530076GONZALEZ                   RABELO                     VICTOR EDUARDO             00945900000010005072016000  080000027056203                     9
Y605571210065018242654VIGUERAS                   VARGAS                     DELFINO                    00945900000010005072016000  080000030118603                     9
Y605571210017148699998DE LA CRUZ                 VILLEGAS                   DIANA                      00945900000010005072016000  080000030118703                     9
