Y605571210003159574650TLAPECHCO                  MARTINEZ                   ANDREA                     00945900000010016062016000  080000009604803                     9
Y605571210045139421395MERINO                     PEDRO                      RAMON ALBERTO              00945900000010016062016000  080000009619803                     9
Y605571210096018232692DIAZ                       CARDENAS                   JUAN MANUEL                00945900000010016062016000  080000009620003                     9
Y605571210045038603846GARATACHEA                 GARCIA                     AARON FABIAN               00945900000010016062016000  080000009620103                     9
Y605571210092906918104ALVAREZ                    CHAVANDO                   J DOLORES                  00945900000010016062016000  080000009620203                     9
Y605571210025169576698MENDEZ                     CERVANTES                  ANA LAURA                  00945900000010016062016000  080000011000702                     9
Y605571210005169784716GONZALEZ                   HERNANDEZ                  LUIS EDUARDO               00945900000010016062016000  080000015175903                     9
Y605571210011018509510CERRILLO                   RAMIREZ                    JOSE LUIS                  00945900000010016062016000  080000015176003                     9
Y605571210032058816573MARRUFO                    ESCAREÑO                   AGUSTIN                    00945900000010016062016000  080000019080503                     9
Y605571210065119224007VILLALOBOS                 ANTELE                     ABRAHAN                    00945900000010016062016000  080000022046203                     9
Y605571210049785811800GARCIA                     BAUTISTA                   JOSE FELIPE NERI           00945900000010016062016000  080000028032603                     9
Y605571210009096601290SOTO                       RODRIGUEZ                  LORENZO                    00945900000010016062016000  080000028032703                     9
