Y605571210049149604768LOPEZ                      SALASAR                    MARCO ANTONIO              00945900000010003072017000  080000004011503                     9
Y605571210096997304827HERNANDEZ                  GALVAN                     ANTONIO ENRIQUE            00945900000010003072017000  080000009650903                     9
Y605571210020106300492LOPEZ                      GARCIA                     IVETTE XOCHIQUETZAL        00945900000010003072017000  080000009715603                     9
Y605571210020068700689FLORES                     LOPEZ                      TANIA LUCIA                00945900000010003072017000  080000009715703                     9
Y605571210039937222352AGUILAR                    MURILLO                    AGUSTIN                    00945900000010003072017000  080000009715803                     9
Y605571210072078623872TORRES                     MORALES                    ABRAHAM                    00945900000010003072017000  080000012004403                     9
Y605571210053058305300GAMIÒO                     SAUCEDO                    MARCO ANTONIO              00945900000010003072017000  080000016011903                     9
Y605571210043947491445PARRA                      LOPEZ                      GUADALUPE CESILIA          00945900000010003072017000  080000019003002                     9
Y605571210049906935900PEREZ                      TRISTAN                    ANA LAURA                  00945900000010003072017000  080000019096303                     9
Y605571210043765848429PEREZ                      EGUIA                      MARIANO                    00945900000010003072017000  080000019114503                     9
Y605571210024148900863CERVANTES                  ESCALANTE                  CARLOS                     00945900000010003072017000  080000019116903                     9
Y605571210003967820527ORTIZ                      MORENO                     MIGUEL ANGEL               00945900000010003072017000  080000019117003                     9
Y605571210003695139836ESPINOSA                   MARTINEZ                   GERARDO                    00945900000010003072017000  080000019117103                     9
Y605571210005168818739CORONEL                    PEREZ                      MARIA JESUS                00945900000010003072017000  080000019117203                     9
Y605571210003169037672PEREZ                      PRIETO                     MARLENE                    00945900000010003072017000  080000019117303                     9
Y605571210023937409086CASTRO                     IMPERIAL                   JOSE ALDEGUNDO             00945900000010003072017000  080000025017903                     9
