Y462621510910149543067HERNANDEZ                  ARELLANO                   EDWIN YOEL                 00945900000010017032017000  080000021002402                     9
Y462621510962887303824HERNANDEZ                  JIMENEZ                    NOEMI                      00945900000010017032017000  080000021166903                     9
Y462621510939007919184HERNANDEZ                  PEREZ                      ERASMO SEVERIANO           00945900000010017032017000  080000021167003                     9
