A836767410967978003282CASTILLO                   GARCIA                     OSVALDO                    00945900000010014092016000  080000008058603                     9
A836767410967139310139VAZQUEZ                    ZACARIAS                   EDGAR                      00945900000010014092016000  080000008058703                     9
A836767410933806163755MONTES                     CORDOVA                    CAYETANO                   00945900000010014092016000  080000008058803                     9
A836767410935048705020BOCANEGRA                  CASTRO                     JOSE ALFREDO               00945900000010014092016000  080000008058903                     9
A836767410933048524814HERNANDEZ                  HERNANDEZ                  CESAR DAVID                00945900000010014092016000  080000008059003                     9
A836767410933887134410GALLEGOS                   LOPEZ                      CARLOS                     00945900000010014092016000  080000008059103                     9
A836767410960967675905HERNANDEZ                  TORRES                     MIGUEL                     00945900000010014092016000  080000008059203                     9
A836767410932089042009ZARZOZA                    AGUIRRE                    JOSE ANTONIO               00945900000010014092016000  080000008059303                     9
