Y462621510948068815165FERNANDEZ                  HERNANDEZ                  DAVID                      00945900000010023032017000  080000021144503                     9
Y462621510957169622453LIMA                       MONTIEL                    MARIA DEL ROCIO            00945900000010023032017000  080000021167103                     9
Y462621510948068518819JUAREZ                     TITLA                      MARISOL                    00945900000010023032017000  080000021167203                     9
Y462621510925149020312GALINDO                    REYES                      JESUS                      00945900000010023032017000  080000021167303                     9
