A836767410954897211139TORRES                     RODRIGUEZ                  VERONICA                   00945900000010024052017000  080000002055703                     9
A836767410971128719755RIOS                       MARROQUIN                  MARCO ANTONIO              00945900000010024052017000  080000002055803                     9
A836767410941169774514MARROQUIN                  LOPEZ                      ABEL                       00945900000010024052017000  080000002055903                     9
A836767410943806360434RUBALCAVA                  GALLEGOS                   EFRAIN MOISES              00945900000010024052017000  080000008074803                     9
