Y462621510962947771234BABINES                    MORA                       RODOLFO                    00945900000010027042016000  080000021125803                     9
Y462621510948037610887VILLA                      BOBADILLA                  FRANCISCO                  00945900000010027042016000  080000021147603                     9
Y462621510961916903943PEREZ                      ALVAREZ                    JOSE ISRAEL                00945900000010027042016000  080000021147703                     9
