Y605571210042876904014AGUILAR                    CARDENAS                   LUIS                       00945900000010007062017000  080000009670503                     9
Y605571210007916810398VAZQUEZ                    GARCIA                     JOSE ALFONSO               00945900000010007062017000  080000009711103                     9
Y605571210096876824721OSORIO                     SANTIAGO                   MARIA DEL CARMEN           00945900000010007062017000  080000009711203                     9
Y605571210030136900336LOPEZ                      GARCIA                     PAULA JEMIMA               00945900000010007062017000  080000009711303                     9
Y605571210001856820061VILLEDA                    COLIN                      JOSE MANUEL                00945900000010007062017000  080000015212403                     9
Y605571210090129411170HERNANDEZ                  RICO                       SUSANA                     00945900000010007062017000  080000015212503                     9
Y605571210093119314420BELTRAN                    TREJO                      MAURICIO EDGAR             00945900000010007062017000  080000015212703                     9
Y605571210017179771013LUNA                       GODOY                      JORGE ALEJANDRO            00945900000010007062017000  080000022063003                     9
Y605571210023017108335GAXIOLA                    VALENZUELA                 DORA LUZ                   00945900000010007062017000  080000025016803                     9
