Z064567510857078905767MUÑOZ                      ARREDONDO                  DAVID                      00945900000010027032017000  080000011090403                     9
Z064567510865866746681CRUZ                       HERNANDEZ                  BASILIO                    00945900000010027032017000  080000011096803                     9
Z064567510812836901699MIRANDA                    ZARAGOZA                   ABEL                       00945900000010027032017000  080000011096903                     9
Z064567510806806149941NARANJO                    PAZ                        MARTIN                     00945900000010027032017000  080000011097003                     9
