Y605571210008179546281RAMOS                      LINARES                    ALFREDO                    00945900000010024052017000  080000002055603                     9
Y605571210042017808686ESPINOZA                   RODRIGUEZ                  FELIX CESAR                00945900000010024052017000  080000009474203                     9
Y605571210096058107713HERNANDEZ                  JUAREZ                     ADRIANA                    00945900000010024052017000  080000009707703                     9
Y605571210045937510233MORENO                     MUNDO                      RAUL                       00945900000010024052017000  080000009707803                     9
Y605571210039907431470SILVA                      RIVERO                     MONICA                     00945900000010024052017000  080000015211003                     9
Y605571210016119120661GUTIERREZ                  HERNANDEZ                  SERGIO                     00945900000010024052017000  080000015211103                     9
Y605571210016078404395GOMEZ                      AVILES                     MARIA DOLORES              00945900000010024052017000  080000015211203                     9
Y605571210053069004272TORRES                     PACHECO                    CHRISTIAN GIOVANNI         00945900000010024052017000  080000022062403                     9
Y605571210083987411051LOPEZ                      VALENCIA                   MANUEL ANTONIO             00945900000010024052017000  080000027061703                     9
Y605571210067118302982GARCIA                     ROSAS                      ELSA MARIA                 00945900000010024052017000  080000030149803                     9
Y605571210005179366371ROQUE                      ARREOLA                    ANA MARIA                  00945900000010024052017000  080000030149903                     9
