R143868210346169527952RAMIREZ                    NAVA                       AARON EZEQUIEL             00945900000010028112016000  080000014125303                     9
R143868210334149704586CEBALLOS                   RODRIGUEZ                  MANUEL ALEJANDRO           00945900000010028112016000  080000014125403                     9
R143868210334139313646SANTOS                     GARCIA                     MISSAEL                    00945900000010028112016000  080000014125503                     9
R143868210363159873965ORTIZ                      SOLIS                      JOSE FERNANDO              00945900000010028112016000  080000014125603                     9
R143868210311169536395RODRIGUEZ                  ROMERO                     DANIEL                     00945900000010028112016000  080000014125703                     9
