Y607431310496967923911HERNANDEZ                  CORTES                     GERARDO                    01481100000010001012021000  080000009000602                     9
Y607431310439018407336QUINTANA                   LOPEZ                      MARIA DE LOURDES           01481100000010001012021000  080000009000702                     9
Y607431310405209541506RAMIREZ                    BALDERAS                   ALICIA ADAMANEY            01481100000010001012021000  080000009006403                     9
Y607431310439927207041RAMIREZ                    MOLINERO                   GABRIELA                   01481100000010001012021000  080000009006503                     9
Y607431310445947592973QUINTANA                   LOPEZ                      ROBERTO                    01481100000010001012021000  080000009006603                     9
Y607431310428937506922HERNANDEZ                  CORTES                     MIGUEL ANGEL               01481100000010001012021000  080000009006703                     9
Y607431310411765776726TENA                       TAPIA                      RAFAEL                     01481100000010001012021000  080000009006803                     9
