Y605571210094038536739NIETO                      RAMIREZ                    IVAN GIOVANNI              00945900000010007072016000  080000009038302                     9
Y605571210094088712859JIMENEZ                    ORTEGA                     ROJELIO                    00945900000010007072016000  080000009517703                     9
Y605571210096058715044AGUILAR                    CA—AS                      ALFREDO                    00945900000010007072016000  080000009624903                     9
Y605571210045957718864RODRIGUEZ                  CORTOA                     CARLOS ANTONIO             00945900000010007072016000  080000009625103                     9
Y605571210049159767778ACUÒA                      CASTILLO                   KEILA IVON                 00945900000010007072016000  080000013013303                     9
Y605571210092018377710VILLEGAS                   SOSA                       JOSE CRUZ                  00945900000010007072016000  080000015178003                     9
Y605571210043089228720MARTINEZ                   ESCOBEDO                   DAVID RAMON AZAEL          00945900000010007072016000  080000019002102                     9
Y605571210009099409014SANTIAGO                   DEL ANGEL                  JOSE LUIS                  00945900000010007072016000  080000019071503                     9
Y605571210043109457754GARCIA                     DAVILA                     ABRAHAM                    00945900000010007072016000  080000019077903                     9
Y605571210043795968247RAMIREZ                    RAMIREZ                    RODRIGO                    00945900000010007072016000  080000019082603                     9
Y605571210014967518060RAMIREZ                    HERNANDEZ                  NILO                       00945900000010007072016000  080000019082703                     9
Y605571210083846801500DE LOS SANTOS              ZAPATA                     OSCAR                      00945900000010007072016000  080000027056303                     9
Y605571210061876912470HERNANDEZ                  DOMINGUEZ                  EVARISTO                   00945900000010007072016000  080000029006503                     9
Y605571210061977815390HERNANDEZ                  LOPEZ                      OSCAR                      00945900000010007072016000  080000029006603                     9
