Y605571210092008405224HERNANDEZ                  CAMPOS                     FREDY                      00945900000010004112016000  080000009655003                     9
Y605571210049159751285CALDERON                   ANTONIO                    CESAR DANIEL               00945900000010004112016000  080000009655103                     9
Y605571210019149703753PANFILO                    BONIFACIO                  ISABEL                     00945900000010004112016000  080000009655203                     9
Y605571210042078700889CALDERON                   HERNANDEZ                  OSVALDO ULISES             00945900000010004112016000  080000009655303                     9
Y605571210030048617143MERINO                     LEON                       WENDY                      00945900000010004112016000  080000009655403                     9
Y605571210009078891794DEANTES                    RODRIGUEZ                  HECTOR DANIEL              00945900000010004112016000  080000011090703                     9
Y605571210010149402587HERNANDEZ                  GUERRERO                   LUIS FERNANDO              00945900000010004112016000  080000013016303                     9
Y605571210090068416743GALICIA                    VALDES                     FRANCISCO JAVIER           00945900000010004112016000  080000015127803                     9
Y605571210071118906222OCA—A                      LOPEZ                      JOSE RAMON                 00945900000010004112016000  080000015184803                     9
Y605571210092018302288MOLINA                     VEGA                       FABIAN                     00945900000010004112016000  080000015184903                     9
Y605571210003977490196NU—O                       ELVER                      TEODULO                    00945900000010004112016000  080000019091503                     9
Y605571210046149327051ORTIZ                      CANO                       MA. DE LOS ANGELES         00945900000010004112016000  080000019091603                     9
Y605571210009098917678ACUÒA                      MEDRANO                    JOSE RICARDO               00945900000010004112016000  080000019091703                     9
Y605571210094917412945BADILLO                    GUTIERREZ                  GUILLERMO                  00945900000010004112016000  080000022036603                     9
Y605571210005148765711FELIX                      ECHALA                     EVARISTO                   00945900000010004112016000  080000023037903                     9
Y605571210023906002037AYALA                      IBARRA                     RAFAEL                     00945900000010004112016000  080000025010603                     9
