A836767410933776139249OZAETA                     DELGADO                    JOSE LUIS                  00945900000010026102016000  080000008063303                     9
A836767410933128916815SIERRA                     FRANCO                     MARCO ANTONIO              00945900000010026102016000  080000008063403                     9
A836767410933069065119 ALCANTAR                  SANTOS                     GILBERTO ANTONIO           00945900000010026102016000  080000008063603                     9
