Y605571210096109272854RAMIREZ                    ROSAS                      GISELA                     00945900000010013102016000  080000009040202                     9
Y605571210096089102733RODRIGUEZ                  RAMON                      RODOLFO                    00945900000010013102016000  080000009650603                     9
Y605571210096089036840ANTONIO                    GONZALEZ                   MARIA DE LOS ANGELES       00945900000010013102016000  080000009650703                     9
Y605571210037947533826ALVAREZ                    CHAVEZ                     MIGUEL ANGEL               00945900000010013102016000  080000011090203                     9
Y605571210041139532729DIEGO                      ORTIZ                      CANDELARIO                 00945900000010013102016000  080000019089003                     9
Y605571210071108930448BAUTISTA                   LOPEZ                      RUBEN                      00945900000010013102016000  080000019089103                     9
Y605571210008159130064VAZQUEZ                    MORALES                    ESTELA                     00945900000010013102016000  080000023036503                     9
