Y605571210090917324676GOMEZ                      RIVERA                     ARMANDO                    00945900000010026052016000  080000009617103                     9
Y605571210096089106064CRUZ                       VADO                       JORGE IVAN                 00945900000010026052016000  080000009617203                     9
Y605571210028109401985CABRERA                    ARAUZA                     LUIS ENRIQUE               00945900000010026052016000  080000009617303                     9
Y605571210092099152693MONTEJO                    RUIZ                       NANCY                      00945900000010026052016000  080000015173503                     9
Y605571210019856720180RANGEL                     TAPIA                      AURORA                     00945900000010026052016000  080000015173603                     9
Y605571210094078106658CANALES                    VELAZQUEZ                  IGNACIO                    00945900000010026052016000  080000030039603                     9
