D691959010105129550835PURA                       CORTES                     MANUEL                     00945900000010019102016000  080000020027803                     9
D691959010113058905855VELASCO                    BAUTISTA                   ISRAEL MELCHOR             00945900000010019102016000  080000020027903                     9
D691959010178119508386CASTILLO                   GUTIERREZ                  DIANA LAURA                00945900000010019102016000  080000020028003                     9
