Y605571210078109107470BAUTISTA                   CRUZ                       VICTOR MANUEL              00945900000010006072017000  080000009692303                     9
Y605571210096048513038RAMIREZ                    PEREZ                      BLANCA ESTELA              00945900000010006072017000  080000009716203                     9
Y605571210072068902906ESCOBAR                    PINA                       RUBEN                      00945900000010006072017000  080000009716903                     9
Y605571210003148393253RUIZ                       REYES                      BENITA                     00945900000010006072017000  080000015214503                     9
Y605571210083109233649PEREZ                      URESTI                     JOSE ANTONIO               00945900000010006072017000  080000027059503                     9
Y605571210037915701355OCHOA                      ROMAN                      JAVIER                     00945900000010006072017000  080000028041903                     9
