Y605571210094078835140MIGUEL                     HERNANDEZ                  JUAN MANUEL                00945900000010028062017000  080000009714903                     9
Y605571210001068803434GARCIA                     ANICETO                    JOSE ANTONIO               00945900000010028062017000  080000009715103                     9
Y605571210085169713485GONZALEZ                   PUEBLA                     GEOVANNI                   00945900000010028062017000  080000009715203                     9
Y605571210043018471763VILLAZANA                  HERNANDEZ                  CARLOS                     00945900000010028062017000  080000019116403                     9
Y605571210007109106075ROMERO                     PEREZ                      LUIS FRANCISCO             00945900000010028062017000  080000022063803                     9
Y605571210051988224575GUTIERREZ                  PUENTES                    JUAN CARLOS                00945900000010028062017000  080000022063903                     9
Y605571210015028211975SANDOVAL                   RODRIGUEZ                  NEPTHALI CARMEN            00945900000010028062017000  080000022064003                     9
Y605571210008147629458MORENO                     COTA                       OMAR                       00945900000010028062017000  080000025003703                     9
