R143868210356937532689NUÑEZ                      MORALES                    RAFAEL                     00945900000010010102016000  080000014121603                     9
R143868210304048212361RIVERA                     PERDOMO                    YONICET                    00945900000010010102016000  080000014121703                     9
R143868210383978034896JIMENEZ                    DE DIOS                    LUIS ALBERTO               00945900000010010102016000  080000014121803                     9
R143868210304078318427ROMANO                     ZUÑIGA                     OSCAR FERNANDO             00945900000010010102016000  080000014121903                     9
