Y462621510902179869686ROJAS                      DE JESUS                   JUAN CARLOS                00945900000010008082017000  080000021172103                     9
Y462621510967008600024MORALES                    SANCHEZ                    GLORIA ANGELICA            00945900000010008082017000  080000021172203                     9
Y462621510903179170729CRUZ                       AQUINO                     ISIS MARIELA               00945900000010008082017000  080000021172303                     9
