D172000910220026000560PEREZ                      TORRES                     JUVENTINO                  00945900000010027012017000  080000017050403                     9
D172000910239896418223CORTES                     HERNANDEZ                  MARIA JAZMIN               00945900000010027012017000  080000017050503                     9
D172000910203149679411GOMEZ                      DOMINGUEZ                  MARIA BELEN                00945900000010027012017000  080000017050603                     9
