Y462621510962967303082HERNANDEZ                  ROJAS                      MARIA DE LA LUZ            00945900000010005122016000  080000021160603                     9
Y462621510933057704208HERNANDEZ                  OZORIO                     JUAN CARLOS                00945900000010005122016000  080000021160703                     9
Y462621510948078859153MARTINEZ                   BARCEINAS                  VICTOR NOE                 00945900000010005122016000  080000021160803                     9
