A836767410903169730136DE LA CRUZ                 DE LA CRUZ                 JORGE ALBERTO              00945900000010022052017000  080000002055303                     9
A836767410933876876005MEJIA                      YAÒEZ                      JOSE ANGEL                 00945900000010022052017000  080000008074403                     9
A836767410950968028980TENA                       GONZALEZ                   GUADALUPE                  00945900000010022052017000  080000008074503                     9
