Y605571210003168992620BALTAZAR                   QUIJANO                    ERIK                       00945900000010027052016000  080000009617403                     9
Y605571210005159450682HERMOSO                    GONZALEZ                   KASANDRA LETICIA           00945900000010027052016000  080000030116203                     9
Y605571210065129425925BAUTISTA                   ROMERO                     IVAN                       00945900000010027052016000  080000030116303                     9
Y605571210065128703538DIAZ                       ZEFERINO                   YESICA YAZMIN              00945900000010027052016000  080000030116403                     9
Y605571210008169142760FRUCTUOSO                  ONOFRE                     GUADALUPE                  00945900000010027052016000  080000030116503                     9
