A836767410924856742879CASTRO                     ARREDONDO                  RAFAEL                     00945900000010017032017000  080000008050303                     9
A836767410903147646636LOZANIA                                               JOSE ALFREDO               00945900000010017032017000  080000008071703                     9
A836767410923069115139RAMIREZ                    TELLES                     MOISES                     00945900000010017032017000  080000008071803                     9
A836767410933119418037MARTINEZ                   VILLALOBOS                 CARLOS RUBEN               00945900000010017032017000  080000008071903                     9
