Y605571210096129362917BURGOS                     GUZMAN                     RICARDO DANIEL             00945900000010027122016000  080000009667203                     9
Y605571210009168706704GOMEZ                      HERNANDEZ                  ANTONIA                    00945900000010027122016000  080000009671603                     9
Y605571210014079035680RINCON                     GARCIA                     MIGUEL ANGEL               00945900000010027122016000  080000022054203                     9
Y605571210014937522044PEGUEROS                   HERNANDEZ                  ISMAEL                     00945900000010027122016000  080000022054303                     9
Y605571210071907049549DIONISIO                   MELGAR                     OFELIA                     00945900000010027122016000  080000023040503                     9
Y605571210021996502569NIETO                      MEDINA                     LUIS MANUEL                00945900000010027122016000  080000028037303                     9
Y605571210065108919997DOMINGUEZ                  CRUZ                       MARIO                      00945900000010027122016000  080000028037403                     9
