Y462621510963159850351CUAQUENTZI                 ALVARADO                   EVELIN                     00945900000010028112016000  080000021159703                     9
Y462621510902166880498SANDOVAL                   AYALA                      MARIA CARMEN               00945900000010028112016000  080000021159803                     9
Y462621510933169738490PANTOJA                    JIMENEZ                    SAUL                       00945900000010028112016000  080000021159903                     9
Y462621510948129460902CONTRERAS                  CORTES                     ARIEL ARMANDO              00945900000010028112016000  080000021160003                     9
Y462621510956169796036LIMON                      BARRANCO                   EYDMAR ANTONIO             00945900000010028112016000  080000021160103                     9
Y462621510948119241031GALAN                      LEON                       JESUS                      00945900000010028112016000  080000021160203                     9
