Y605571210010149385451GIRON                      PEREZ                      MARIO IRAN                 00945900000010024062016000  080000007015303                     9
Y605571210035978188288MATA                       CHAPARRO                   OSCAR                      00945900000010024062016000  080000008048803                     9
Y605571210042867019988CAMPOS                     SALINAS                    CLARA                      00945900000010024062016000  080000009508803                     9
Y605571210095129401642MATA                       REYES                      ALDAIR ALEJANDRO           00945900000010024062016000  080000009512803                     9
Y605571210090099044647RESENDIS                   IBARRA                     LESLIE ANGELICA            00945900000010024062016000  080000015176703                     9
Y605571210001006701633GARCIA                     PADILLA                    MARIA ESTHER               00945900000010024062016000  080000015176803                     9
Y605571210002159090139FERNANDEZ                  RAMIREZ                    PEDRO                      00945900000010024062016000  080000015176903                     9
Y605571210020099001131CORTES                     RANGEL                     JESUS                      00945900000010024062016000  080000015177003                     9
Y605571210092987805014BACA                       HERNANDEZ                  NICANDRO                   00945900000010024062016000  080000015177103                     9
Y605571210043078845062COSTILLA                   SILVA                      MARIA DE LOS ANGELES       00945900000010024062016000  080000019002002                     9
Y605571210043897272779ESQUIVEL                   CERVANTES                  JESUS RAMON                00945900000010024062016000  080000019081103                     9
Y605571210066159763797ACEVEDO                    CUELLAR                    GUSTAVO ANGEL              00945900000010024062016000  080000019081203                     9
Y605571210007987404345DIAZ                       CARRERA                    GABRIEL                    00945900000010024062016000  080000022046803                     9
Y605571210061119309658LOPEZ                      HERNANDEZ                  EFREN                      00945900000010024062016000  080000029006403                     9
