Y605571210051896910224ZAMORA                     ORTIZ                      MARIA GUILLERMINA          00945900000010011082016000  080000001008503                     9
Y605571210021139658609ARGUELLES                  HERNANDEZ                  EDWIN EFRAIN               01194600000010011082016000  080000002050203                     9
Y605571210090068927327MARTINEZ                   AVILES                     BERNARDO DANIEL            00945900000010011082016000  080000009039202                     9
Y605571210096076502259SANTAELLA                  ZAMORA                     FERNANDO                   00945900000010011082016000  080000009436403                     9
Y605571210028109108598DOLORES                    GARCIA                     MARCO ANTONIO              00945900000010011082016000  080000009636303                     9
Y605571210071897104783MARTINEZ                   SALAZAR                    PEDRO                      00945900000010011082016000  080000009636403                     9
Y605571210012048016609GARCIA                     ALONSO                     GERARDO JESUS              00945900000010011082016000  080000011074803                     9
Y605571210012068800999TORRES                     MACIAS                     JUAN MANUEL                00945900000010011082016000  080000011087303                     9
Y605571210094109178353VICTORIA                   RIVERA                     NATALIA JULIETA            00945900000010011082016000  080000015002102                     9
Y605571210016028302616BARRON                     GIL                        OMAR                       00945900000010011082016000  080000015180203                     9
Y605571210032927332075CORTES                     MARTINEZ                   JOSE ALFREDO               00945900000010011082016000  080000019085603                     9
Y605571210065835825707MAZABA                     COMI                       JUAN                       00945900000010011082016000  080000023032003                     9
Y605571210071109116682AGUILAR                    CARBALLO                   HUGO CESAR                 00945900000010011082016000  080000023032103                     9
Y605571210023856906377CORTES                     TORRES                     LUIS                       00945900000010011082016000  080000025006303                     9
Y605571210049976306511SALAS                      CORTES                     LEOPOLDO ANICETO           00945900000010011082016000  080000028033503                     9
Y605571210065978057852VILLEDA                    CASTRO                     LUIS FELIPE                00945900000010011082016000  080000028033603                     9
Y605571210009008404924AZUARA                     ADRIAN                     LUIS MANUEL                00945900000010011082016000  080000028033703                     9
Y605571210078107000990GUZMAN                     PRIETO                     HILDA                      00945900000010011082016000  080000030121803                     9
Y605571210002167470190HERNANDEZ                  HEREDIA                    IRENE                      00945900000010011082016000  080000030121903                     9
Y605571210003147907442INFANTE                    CRUZ                       ARMANDO                    00945900000010011082016000  080000030122003                     9
