Y605571210020129506976MORALES                    CUEVAS                     KEVIN RICARDO              00945900000010008062016000  080000009619303                     9
Y605571210096109202224CRUZ                       LOPEZ                      LUIS FERNANDO              00945900000010008062016000  080000009619403                     9
Y605571210018169300706GARCIA                     LARA                       MARISELA                   00945900000010008062016000  080000011000602                     9
Y605571210010169278693ONOFRE                     RAMIREZ                    CESAR IVAN                 00945900000010008062016000  080000011083903                     9
Y605571210002159486543DOMINGUEZ                  RODRIGUEZ                  LUIS MARIO                 00945900000010008062016000  080000011084003                     9
Y605571210038149681272SANTOS                     GONZALEZ                   FRANCISCO JAVIER           00945900000010008062016000  080000015174003                     9
Y605571210001907334526ROJAS                      CANO                       NORBERTO                   00945900000010008062016000  080000015174603                     9
Y605571210089826430079RAMOS                      GUZMAN                     LUIS MANUEL                00945900000010008062016000  080000015174703                     9
Y605571210092896706949URRUTIA                    SANDOVAL                   ISAAC                      00945900000010008062016000  080000015174803                     9
Y605571210047907472345DUARTE                     RIVERA                     JESUS ROSALIO              00945900000010008062016000  080000019080103                     9
Y605571210032005902328SOLIZ                      REYES                      JOAQUIN                    00945900000010008062016000  080000019080203                     9
Y605571210010836439769JUAREZ                     DE LOS SANTOS              JULIO CESAR                00945900000010008062016000  080000020025203                     9
Y605571210078906921768VAZQUEZ                    LOPEZ                      JAVIER                     00945900000010008062016000  080000020025303                     9
Y605571210063159700804COYOLT                     MEDEL                      SERGIO ALBERTO             00945900000010008062016000  080000022045203                     9
Y605571210010169591491LARA                       PIO                        FELIPE DE JESUS            00945900000010008062016000  080000022045303                     9
Y605571210065088819837LARA                       PIO                        JUAN FERNANDO              00945900000010008062016000  080000022045403                     9
Y605571210049856727901ZAPATA                     CELESTINOS                 RAUL                       00945900000010008062016000  080000028032003                     9
Y605571210061887108340PARRA                      RODRIGUEZ                  JUAN JOSE                  00945900000010008062016000  080000029005803                     9
Y605571210067139424658CORTES                     RUEDA                      SARA                       00945900000010008062016000  080000030002102                     9
