A836767410931139419555IBARRA                     YAÒEZ                      JOSE RICARDO               00945900000010008062016000  080000008040903                     9
A836767410933886926964ONTIVEROS                  VENEGAS                    PEDRO                      00945900000010008062016000  080000008042403                     9
A836767410908159231094TENA                       MORALES                    JOSUE SAMUEL               00945900000010008062016000  080000008046903                     9
