A836767410925957813873ARVIZU                     CHAVEZ                     ARACELI                    00945900000010029072017000  080000002051703                     9
A836767410935988045049CRUZ                       VELASCO                    LORENZO TADEO              00945900000010029072017000  080000008079203                     9
A836767410933117401688MARTINEZ                   OLIVA                      JOSE ROBERTO               00945900000010031072017000  080000008079303                     9
