Y605571210002178656399MORALES                    GOMEZ                      ERASMO                     00945900000010014032017000  080000005012603                     9
Y605571210071967931230RAMIREZ                    SANCHEZ                    SERGIO ANTONIO             00945900000010014032017000  080000007017703                     9
Y605571210071129348554TORRES                     VALENCIA                   CARLOS                     00945900000010014032017000  080000007017803                     9
Y605571210071119502905LOPEZ                      CRUZ                       OSWALDO                    00945900000010014032017000  080000007017903                     9
Y605571210020018322642POSADAS                    LIRA                       DAINA CRISTAL              00945900000010014032017000  080000009689203                     9
Y605571210096048200644VAZQUEZ                    MOTA                       ERASMO MIGUEL              00945900000010014032017000  080000009689303                     9
Y605571210045139613769DOMINGUEZ                  POPOCA                     VICTOR MANUEL              00945900000010014032017000  080000009689403                     9
Y605571210018119310987MARTINEZ                   ROSALES                    JAVIER                     00945900000010014032017000  080000015198303                     9
Y605571210034937204906DELGADO                    CISNEROS                   JOSE ANGEL                 00945900000010014032017000  080000019105303                     9
Y605571210083118812623RAMIREZ                    ALEJANDRO                  WILSON                     00945900000010014032017000  080000019105403                     9
Y605571210002178003691RAMIREZ                    ALEJANDRO                  IRAN                       00945900000010014032017000  080000019105503                     9
Y605571210041117600357SANTILLAN                  PEREZ                      JOSE MANUEL                00945900000010014032017000  080000024005003                     9
Y605571210049976913373RODRIGUEZ                  MARTINEZ                   MARIANO ALEJANDRO          00945900000010014032017000  080000028040003                     9
Y605571210067008122581MORA                       MARTINEZ                   ABRAHAM                    00945900000010014032017000  080000030089203                     9
Y605571210065997906683RODRIGUEZ                  HUERTA                     JUAN                       00945900000010014032017000  080000030142303                     9
Y605571210067068834455SEGURA                     SANCHEZ                    JONATHAN                   00945900000010014032017000  080000030142403                     9
Y605571210067886703064ARIZA                      FLORES                     ISIDRO                     00945900000010014032017000  080000030142503                     9
Y605571210021997203639RAMIREZ                    FLORES                     JUAN CARLOS                00945900000010014032017000  080000030142603                     9
