Y607431310494068504326MORENO                     VALERIANO                  FABIAN                     01288700000010004112020000  080000009000502                     9
Y607431310471078715357SILVA                      OVALLE                     VICTOR LEONEL              01288700000010004112020000  080000009004903                     9
Y607431310445068400147OCHOA                      RODRIGUEZ                  JAVIER                     01288700000010004112020000  080000009005003                     9
