Y605571210092099058791GARCIA                     PARAMO                     MARIA TERESA               00945900000010018052016000  080000009037202                     9
Y605571210096098922196LAGOS                      FABIAN                     NATALI                     00945900000010018052016000  080000009568703                     9
Y605571210096129401681FLORES                     ARRIETA                    JORGE ARMANDO              00945900000010018052016000  080000009613903                     9
Y605571210020018505394RAMIREZ                    HERNANDEZ                  OSCAR JAVIER               00945900000010018052016000  080000009616403                     9
Y605571210020927456093GARCIA                     MORALES                    ISRAEL                     00945900000010018052016000  080000009616503                     9
Y605571210096058545193MARTINEZ                   MARTINEZ                   ANGEL                      00945900000010018052016000  080000009616603                     9
Y605571210027149680814RODRIGUEZ                  MONZON                     CARLOS DANIEL              00945900000010018052016000  080000011070503                     9
Y605571210012846833353GONZALEZ                                              JUAN                       00945900000010018052016000  080000011075803                     9
Y605571210071129403003HERNANDEZ                  ARIAS                      LUIS FELIPE                00945900000010018052016000  080000015158803                     9
Y605571210090119403419ORTIZ                      PARRAS                     GUADALUPE                  00945900000010018052016000  080000015172603                     9
Y605571210043917454381NAVARRO                    LUNA                       FRANCISCO ROGELIO          00945900000010018052016000  080000019070903                     9
Y605571210043138300231HERNANDEZ                  RAMIREZ                    JOSE LUIS                  00945900000010018052016000  080000019079003                     9
Y605571210063907308348ROSALES                    GUEVARA                    PEDRO                      00945900000010018052016000  080000022043903                     9
Y605571210071099031842LANDA                      REYES                      FORTINO                    00945900000010018052016000  080000023025103                     9
Y605571210061057100077DEL ANGEL                  DEL ANGEL                  GRACIANO                   00945900000010018052016000  080000025002203                     9
Y605571210038149116550GARCIA                     NABOR                      HECTOR                     00945900000010018052016000  080000028031603                     9
Y605571210061007605118ALVARES                    ENRIQUEZ                   NELSO                      00945900000010018052016000  080000029005703                     9
