Y605571210007078902397GUADARRAMA                 OVIN                       VICTOR EDUARDO             00945900000010023082016000  080000009640003                     9
Y605571210007129400730JUAREZ                     OCAÒA                      EMMA ANGELICA              00945900000010023082016000  080000009640103                     9
Y605571210096139419384VELAZQUEZ                  MARQUEZ                    GUSTAVO ANGEL              00945900000010023082016000  080000009640203                     9
Y605571210011977843835ANGELES                    MENDEZ                     NOE                        00945900000010023082016000  080000009640303                     9
Y605571210096997815582DOMINGUEZ                  CARMONA                    MARIO OSCAR                00945900000010023082016000  080000009640403                     9
Y605571210042049300066REYES                      SANDOVAL                   RAUL RENE                  00945900000010023082016000  080000009640503                     9
Y605571210045897245242FRIAS                      MENDOZA                    VICTOR MANUEL              00945900000010023082016000  080000009640603                     9
Y605571210017866948254ESCOBAR                    RUBI                       JAIME                      00945900000010023082016000  080000009640703                     9
Y605571210042866835335MERLOS                     ARREOLA                    CESAR                      00945900000010023082016000  080000015158403                     9
Y605571210010169653887CARRILLO                   PEREZ                      VICTOR ISIDRO              00945900000010023082016000  080000015180503                     9
Y605571210004816451746MARTINEZ                   MONDRAGON                  ROBERTO                    00945900000010023082016000  080000018000803                     9
Y605571210003897302323RODRIGUEZ                  LOPEZ                      SALVADOR                   00945900000010023082016000  080000019085703                     9
Y605571210023887246066CORTES                     TORRES                     VALENTIN                   00945900000010023082016000  080000025007903                     9
Y605571210009129537438CARDENAS                   TOVAR                      NORBERTO                   00945900000010023082016000  080000028033903                     9
Y605571210009109354820MONTES                     RIVERA                     LEONEL                     00945900000010023082016000  080000028034003                     9
Y605571210004048017372FLORES                     RUIZ                       LEOPOLDO                   00945900000010023082016000  080000032001403                     9
