Y605571210085169878403MAY                        MENDOZA                    NACIR URIEL                00945900000010028112016000  080000004009503                     9
Y605571210083906808742LOPEZ                      DAMAS                      JOSE DEL CARMEN            00945900000010028112016000  080000004009603                     9
Y605571210044149632505MUÒOZ                      GARCIA                     IRVIN BLADIMIR             00945900000010028112016000  080000004009703                     9
Y605571210081139314959MENDEZ                     CARDENA                    ELIAS                      00945900000010028112016000  080000004009803                     9
Y605571210039917261875CABALLERO                  NAVARRO                    NORBERTO                   00945900000010028112016000  080000009041002                     9
Y605571210045917359965CARRILLO                   TELLEZ                     JESUS                      00945900000010028112016000  080000009612903                     9
Y605571210096119260485DIAZ                       GUTIERREZ                  SANDRA GUADALUPE           00945900000010028112016000  080000009641103                     9
Y605571210090129209889GARCIA                     SALADO                     JORGE LUIS                 00945900000010028112016000  080000009662203                     9
Y605571210094886910523GARCIA                     PALOMARES                  FREDY                      00945900000010028112016000  080000009662803                     9
Y605571210096138912249PINTO                      AGUILAR                    DIANA VERENICE             00945900000010028112016000  080000009662903                     9
Y605571210042906809373OCHOA                      FLORES                     AGUSTIN                    00945900000010028112016000  080000009663003                     9
Y605571210001058626944TREJO                      PEREZ                      FRANCISCO DANIEL           00945900000010028112016000  080000009663103                     9
Y605571210090947608791HERNANDEZ                  FLORES                     JOSE                       00945900000010028112016000  080000009663203                     9
Y605571210003159512742HERNANDEZ                  DE LA CRUZ                 BARBARA MONTSERRATH        00945900000010028112016000  080000009663303                     9
Y605571210096876401802HERNANDEZ                  BECERRIL                   ABEL                       00945900000010028112016000  080000009663403                     9
Y605571210037109301962MARTINEZ                   LOPEZ                      OSCAR LEOBARDO             00945900000010028112016000  080000009663503                     9
Y605571210063129334163CRUZ                       TORRES                     DIEGO ARTURO               00945900000010028112016000  080000011091403                     9
Y605571210072078623872TORRES                     MORALES                    ABRAHAM                    00945900000010028112016000  080000012004403                     9
Y605571210072089008618ABARCA                     BEDOLLA                    LUIS ANTONIO               00945900000010028112016000  080000012011403                     9
Y605571210072836002740AYALA                      CRUZ                       SALOMON                    00945900000010028112016000  080000012011603                     9
Y605571210016088966276VALDES                     OCHOA                      ADRIANA                    00945900000010028112016000  080000015170403                     9
Y605571210016867100683ZEPEDA                     ARTEAGA                    LUIS                       00945900000010028112016000  080000015186103                     9
Y605571210009017801169REYES                      QUINTERO                   ADALBERTO                  00945900000010028112016000  080000019094103                     9
Y605571210008149817069GARZA                      DE LEON                    LUIS ANGEL                 00945900000010028112016000  080000019094203                     9
Y605571210043977947159GUERRERO                   HERNANDEZ                  JUAN FRANCISCO             00945900000010028112016000  080000019094303                     9
Y605571210023917532162VALDERRAMA                 VEGA                       JAZMIN DE JESUS            00945900000010028112016000  080000025004003                     9
Y605571210065119036765PEREZ                      CASTILLO                   JOSE EDUARDO               00945900000010028112016000  080000030031503                     9
Y605571210067057805268LEON                       ROQUE                      JORGE                      00945900000010028112016000  080000030055903                     9
Y605571210078937612949MALPICA                    CHAVEZ                     HUMBERTO                   00945900000010028112016000  080000030130103                     9
Y605571210065876618649RODRIGUEZ                  HERNANDEZ                  ARIEL                      00945900000010028112016000  080000030130203                     9
