Y605571210062159262364GONZALEZ                   BARRERA                    ELIZABETH                  00945900000010023022017000  080000009632103                     9
Y605571210019149826349MENDEZ                     SANTIAGO                   GERARDO                    00945900000010023022017000  080000009685603                     9
Y605571210020008125005CARRILLO                   CARREÒO                    MARIA XOCHITL              00945900000010023022017000  080000009685703                     9
Y605571210094119294836ALVAREZ                    ESTRELLA                   ALEXIS ARTURO              00945900000010023022017000  080000009685803                     9
Y605571210039937350971QUINTANA                   GONZALEZ                   ANDRES ERNESTO             00945900000010023022017000  080000009685903                     9
Y605571210016098409358PARRA                      MARTINEZ                   ESMERALDA                  00945900000010023022017000  080000015194003                     9
Y605571210032089161460PEREZ                      ZU—IGA                     JUAN JESUS                 00945900000010023022017000  080000019076103                     9
Y605571210049149423243MARTINEZ                   MIL                        GABRIELA                   00945900000010023022017000  080000019103203                     9
Y605571210016169464134NIETO                      GONZAGA                    JOSE ALBERTO               00945900000010023022017000  080000022058203                     9
Y605571210091169819900PLATA                      MACIAS                     JESUS RUBEN                00945900000010023022017000  080000025013303                     9
Y605571210056169615145RIOS                       DOMINGUEZ                  LUIS FERNANDO              00945900000010023022017000  080000025013403                     9
Y605571210083097701961MORALES                    MARTINEZ                   NATALIA                    00945900000010023022017000  080000027060303                     9
Y605571210009109420514ARREOLA                    GONZALEZ                   ISAI ALEJANDRO             00945900000010023022017000  080000028039403                     9
Y605571210071129344538HERNANDEZ                  ROMERO                     MANUEL                     00945900000010023022017000  080000030137903                     9
