Y605571210060169898578CRESCENCIO                 ALANIS                     ALEJANDRO                  00945900000010022032017000  080000009691003                     9
Y605571210016018204202PEREZ                      FLORES                     BERTHA LIDIA               00945900000010022032017000  080000015198403                     9
Y605571210062159812650SANTAMARIA                 FLORES                     BRIAN ALDAIR               00945900000010022032017000  080000015198903                     9
Y605571210078867006823RUIZ                       VILLALOBOS                 DIONICIO                   00945900000010022032017000  080000015199003                     9
Y605571210092907065947MARTINEZ                   GONZALEZ                   SAN JUANA                  00945900000010022032017000  080000015199103                     9
Y605571210043108208877PEREZ                      GONZALEZ                   ALEJANDRA                  00945900000010022032017000  080000019106403                     9
Y605571210096048637902CARVAJAL                   VIDAÑA                     ESMERALDA                  00945900000010022032017000  080000019106503                     9
Y605571210082086700372DOMINGUEZ                  PAREDES                    CORNELIO                   00945900000010022032017000  080000022059503                     9
Y605571210023907405098BASTIDAS                   GASTELUM                   ADRIAN ENRIQUE             00945900000010022032017000  080000025014703                     9
Y605571210023886200585BEJARANO                   SILVAS                     JOSE JESUS                 00945900000010022032017000  080000025014803                     9
Y605571210009109312810SOLANO                     GONZALEZ                   JORDY RAMSES               00945900000010022032017000  080000028040303                     9
Y605571210003147271070CHAGALA                    CAMPECHANO                 BASILIO                    00945900000010022032017000  080000030143603                     9
Y605571210067109209675TRINIDAD                   PEREZ                      MOISES GUSTAVO             00945900000010022032017000  080000030143703                     9
