R143868210356927369357GARCIA                     ROSALES                    JOSE GERARDO               00945900000010006062016000  080000014078603                     9
R143868210304038150514JIMENEZ                    HERNANDEZ                  ALEJANDRO                  00945900000010006062016000  080000014114803                     9
R143868210330926614170RIVERA                     RODRIGUEZ                  MIGUEL ANGEL               00945900000010006062016000  080000014114903                     9
R143868210374907294933CASTILLO                   PEREZ                      JUAN JOSE                  00945900000010006062016000  080000014115003                     9
R143868210304826540967SOLIS                      DE LA CRUZ                 JOSE ANTONIO               00945900000010006062016000  080000014115103                     9
