A836767410933028650373ARREOLA                    DOMINGUEZ                  MORAYMA LIZBETH            00945900000010006012017000  080000008068803                     9
A836767410954816432162MENDOZA                    TOVAR                      GABRIELA CRISTINA          00945900000010006012017000  080000008068903                     9
A836767410935988130403PONCE                      GALLEGOS                   BRIAN                      00945900000010006012017000  080000008069003                     9
