Y605571210027169508416SERRAT                     MIZET                      JOHAN MANUEL               00945900000010026072016000  080000004006703                     9
Y605571210094916306379MORA                       CHAVEZ                     LUIS                       00945900000010026072016000  080000009628903                     9
Y605571210045008241866HERNANDEZ                  FUENTES                    JOSE ANTONIO               00945900000010026072016000  080000009629403                     9
Y605571210020139513756TAPIA                      OSTO                       DALIA SINAI                00945900000010026072016000  080000009629503                     9
Y605571210045927208673RUIZ                       GARCIA                     FROYLAN                    00945900000010026072016000  080000009629603                     9
Y605571210042119516484MEDINA                     ZENDEJAS                   MARISOL                    00945900000010026072016000  080000009629703                     9
Y605571210035149265874PEREZ                      GUERRA                     LUCERO RUBI                00945900000010026072016000  080000009629803                     9
Y605571210045967011342CORTES                     NERIA                      ANGELINA                   00945900000010026072016000  080000009629903                     9
Y605571210094038518745LEDEZMA                    PALMAS                     MARIANO                    00945900000010026072016000  080000009630003                     9
Y605571210028057601164FLORES                     GARCIA                     ESTHER                     00945900000010026072016000  080000009630103                     9
Y605571210012886410617CANO                                                  JORGE DE JESUS             00945900000010026072016000  080000011086703                     9
Y605571210012826007614CASTILLO                   NEGRETE                    RICARDO                    00945900000010026072016000  080000011086903                     9
Y605571210028886510388MARTINEZ                   DIAZ                       MARGARITA                  00945900000010020072016000  080000015162703                     9
Y605571210001937420642GONZALEZ                   ESPARZA                    DELFINO HUMBERTO           00945900000010026072016000  080000015178803                     9
Y605571210043008297830FRANCISCO                  MACARIO                    SAULO                      00945900000010026072016000  080000019084203                     9
Y605571210062159778489IBARRA                     BASTIAN                    RAFAEL EDUARDO             00945900000010026072016000  080000019084303                     9
Y605571210008147629458MORENO                     COTA                       OMAR                       00945900000010026072016000  080000025003703                     9
Y605571210023937403733VALENZUELA                 ZEPEDA                     JOSE ANTONIO               00945900000010026072016000  080000025003803                     9
Y605571210051057501440LOPEZ                      ROSALES                    MARTHA CECILIA             00945900000010026072016000  080000025003903                     9
Y605571210023976903387RAMIREZ                    DIMAS                      FRANCISCA                  00945900000010026072016000  080000025004103                     9
Y605571210017169409699ACOSTA                     OSUNA                      JULIO FRANCISCO            00945900000010026072016000  080000025004203                     9
Y605571210025169450472ALVARADO                   HERNANDEZ                  EVER                       00945900000010026072016000  080000030120003                     9
Y605571210065139465606GONZALEZ                   BLANCO                     JAIRO                      00945900000010026072016000  080000030120103                     9
Y605571210005158984335MARTINEZ                   PASCUAL                    GLORIA IVON                00945900000010026072016000  080000030120203                     9
Y605571210014038213691TRIANA                     SALGADO                    MOISES                     00945900000010026072016000  080000030120303                     9
