Y607431310445119401805MENDEZ                     REYNA                      ALEXANDER                  02612100000020018012024000  080000009019403                     9
Y607431310494098813267JUAREZ                     SANDOVAL                   JUAN LEONARDO              02612100000020018012024000  080000009024903                     9
Y607431310439159703659PEREZ                      ABAD                       MARCO ANTONIO              02612100000010018012024000  080000009031703                     9
