Y605571210030098810762IXTEPAN                    XOLO                       JOSE ANDRES                00945900000010012082016000  080000009636503                     9
Y605571210059169786676HERNANDEZ                  LOPEZ                      OLIVIA                     00945900000010012082016000  080000009636603                     9
Y605571210096927549913MARTINEZ                   ESTRADA                    SANTOS                     00945900000010012082016000  080000009636703                     9
Y605571210015109136026CARDENAS                   GOMEZ                      ANDRES                     00945900000010012082016000  080000011087403                     9
Y605571210057159672435ARRIAGA                    PEÑA                       WILLIAN EDUARDO            00945900000010012082016000  080000011087503                     9
Y605571210062856623368ROJAS                      SANCHEZ                    ERIK RENE DE JESUS         00945900000010012082016000  080000022049403                     9
Y605571210023089153714GUZMAN                     LOPEZ                      MARCELINO                  00945900000010012082016000  080000025006403                     9
Y605571210023995904143SICAIROS                   BELTRAN                    EUSTAQUIO                  00945900000010012082016000  080000025006503                     9
Y605571210023957803135LERMA                      OSUNA                      WENDY ROSARIO              00945900000010012082016000  080000025006603                     9
Y605571210021907365668SOTO                       VERDUGO                    JOSEFINA                   00945900000010012082016000  080000025006703                     9
