A836767410924856742879CASTRO                     ARREDONDO                  RAFAEL                     00945900000010013122016000  080000008050303                     9
A836767410950917207735STILLMAN                   ROBLES                     RAFAEL ANGEL               00945900000010013122016000  080000008067203                     9
A836767410943976607036RUBALCABA                  ESPINOZA                   JOSE LUIS                  00945900000010013122016000  080000008067503                     9
