Y605571210006785951747OLAYO                      GARCIA                     JOSE DEL REFUGIO           01194600000010006012017000  080000002049003                     9
Y605571210081886916782CANUL                      TORRES                     FRANCISCO JAVIER           00945900000010006012017000  080000004010303                     9
Y605571210003816407542MARTINEZ                   ZUBIRIAS                   GUSTAVO                    00945900000010006012017000  080000005012203                     9
Y605571210002168408231RIEGO                      DIAZ                       MARIA LUISA                00945900000010006012017000  080000009674303                     9
Y605571210009169802031GUZMAN                     MORALES                    LILIA                      00945900000010006012017000  080000009674403                     9
Y605571210024906148697VARGAS                     LOPEZ                      ESTANISLAO                 00945900000010006012017000  080000010000102                     9
Y605571210016957903400ARRIAGA                    GARCIA                     JAIR SANTIAGO              00945900000010006012017000  080000015187603                     9
Y605571210047907017249FLORES                     VALLADAREZ                 IRMA LETICIA               00945900000010006012017000  080000019092003                     9
Y605571210043028699528CASTILLO                   MARTINEZ                   CARLOS FRANCISCO           00945900000010006012017000  080000019097203                     9
Y605571210043998251938AVILA                      ALFARO                     JOSE CARLOS                00945900000010006012017000  080000019098003                     9
Y605571210046159753584VARGAS                     HERNANDEZ                  ABEL ALBERTO               00945900000010006012017000  080000022055003                     9
