Y605571210051846400383BALANDRAN                  VAZQUEZ                    SALVADOR                   00945900000010027062017000  080000001009803                     9
Y605571210032886577884MARTINEZ                   BALDERAS                   SERGIO PRISCILIANO         00945900000010027062017000  080000005012903                     9
Y605571210042139413506GALICIA                    LEON                       JANET                      00945900000010027062017000  080000009043602                     9
Y605571210005179156657SANCHEZ                    ALVARADO                   MARITZA                    00945900000010027062017000  080000009714803                     9
Y605571210094098835140MIGUEL                     HERNANDEZ                  JUAN MANUEL                00945900000010027062017000  080000009714903                     9
Y605571210043099337859DUARTE                     GARCIA                     FLORENCIA                  00945900000010027062017000  080000019116303                     9
Y605571210012047806141PADILLA                    CABRERA                    JOSE FRANCISCO             00945900000010027062017000  080000022063603                     9
Y605571210014079149523NIEVES                     GONZALEZ                   HUMBERTO                   00945900000010027062017000  080000022063703                     9
Y605571210083108903127HERNANDEZ                  VALENCIA                   ELIAS                      00945900000010027062017000  080000027063003                     9
