Y462621510905169214144URRUTIA                    ROMERO                     VICTOR DANIEL              00945900000010020042016000  080000021147103                     9
Y462621510965008406913FLORES                     HERNANDEZ                  JAVIER                     00945900000010020042016000  080000021147203                     9
Y462621510948119161429MARCIAL                    ROMERO                     MARTIN                     00945900000010020042016000  080000021147303                     9
