Y605571210096119300232ISLAS                      GODINEZ                    OLDAY R GUILLERMO          00945900000010017052016000  080000009511003                     9
Y605571210019148818412FLORES                     RAMIREZ                    MANUEL                     00945900000010017052016000  080000009538103                     9
Y605571210056159556549MARTINEZ                   MAYEN                      ADRIAN                     00945900000010017052016000  080000009568903                     9
Y605571210035149647006FLORES                     LEYVA                      DALIA VANESSA              00945900000010017052016000  080000014112603                     9
Y605571210082987812235ALVARADO                   CORDOVA                    ALFREDO                    00945900000010017052016000  080000014112703                     9
Y605571210004876874431CHAVEZ                     IBARRA                     JUAN JOSE                  00945900000010017052016000  080000014112803                     9
Y605571210008169380493CRUZ                       SALVADOR                   AGUSTIN                    00945900000010017052016000  080000014112903                     9
Y605571210075967500705ESTRADA                    VELAZCO                    JOSE ANGEL                 00945900000010017052016000  080000014113003                     9
Y605571210069149630340MOLINA                     MEDINA                     MIGUEL ANGEL               00945900000010017052016000  080000015172503                     9
Y605571210047129526126CRUZ                       MUÑIZ                      JOSE MANUEL HIBRAN         00945900000010017052016000  080000019047603                     9
