Y462621510948138101497JIMENEZ                    MARTINEZ                   JOSE ELOY                  00945900000010021102016000  080000021135303                     9
Y462621510948008323544ROJAS                      MORENO                     HECTOR OSWALDO             00945900000010021102016000  080000021157003                     9
Y462621510948119167582MONTAÑO                    BUENO                      FERNANDO                   00945900000010021102016000  080000021157103                     9
Y462621510948169801015CUANETL                    VIDAL                      FRANCISCO IVAN             00945900000010021102016000  080000021157203                     9
Y462621510973149508696ROMERO                     GONZALEZ                   RAFAEL ALEJANDRO           00945900000010021102016000  080000021157303                     9
