Y605571210058169839261NAVARRO                    RUIZ                       CHRISTIAN JAVIER           01194600000010003102016000  080000002051203                     9
Y605571210039048604563GARCIA                     PONCE                      ESTEBAN                    01194600000010003102016000  080000002051303                     9
Y605571210096129315501NAVA                       GARCIA                     KEVIN MICHAEL              00945900000010003102016000  080000009648303                     9
Y605571210010856718795BAENA                      GAMA                       JAVIER                     00945900000010003102016000  080000009648403                     9
Y605571210088826510661ROSAS                      RODRIGUEZ                  ROGELIO                    00945900000010003102016000  080000009648503                     9
Y605571210020109304210ZEPEDA                     PUEBLA                     OMAR                       00945900000010003102016000  080000009648603                     9
Y605571210018169496769SOTO                       GOMEZ                      ANGEL MISAEL               00945900000010003102016000  080000013015803                     9
Y605571210094068801003PEREZ                      MARTINEZ                   PABLO IVAN                 00945900000010003102016000  080000015182703                     9
Y605571210003856745009ELIAS                      RODRIGUEZ                  FRANCISCO JAVIER           00945900000010003102016000  080000019085903                     9
Y605571210049998115270SANCHEZ                    GONZALEZ                   JOSE ANTONIO               00945900000010003102016000  080000028036003                     9
Y605571210005159504769DELFIN                     ANGULO                     ALEXIS                     00945900000010003102016000  080000030126103                     9
