Y605571210071008225287PEÑA                       AGUILAR                    MAURICIO                   00945900000010013032017000  080000007017403                     9
Y605571210071018001967LOPEZ                      PEREZ                      MARIA DEL ROSARIO          00945900000010013032017000  080000007017503                     9
Y605571210071098106876MONTOYA                    MONTOYA                    BERSAIN                    00945900000010013032017000  080000007017603                     9
Y605571210002156575462CADENA                     CORONA                     BRAULIO                    00945900000010013032017000  080000009689103                     9
Y605571210020018322642POSADA                     LIRA                       DAINA CRISTAL              00945900000010013032017000  080000009689203                     9
Y605571210037067700734CALLEJAS                   PALMA                      MANUEL                     00945900000010013032017000  080000015198003                     9
Y605571210065897037761ZAVALA                     CHINO                      ENRIQUE                    00945900000010013032017000  080000015198103                     9
Y605571210067109018597AGUILAR                    PADUA                      EDGAR ALFREDO              00945900000010013032017000  080000015198203                     9
Y605571210043935602615RODRIGUEZ                  LOZANO                     MARIA DEL ROSARIO          00945900000010013032017000  080000019105003                     9
Y605571210009119303015CERVANTES                  MONTOYA                    JOSE ARMANDO               00945900000010013032017000  080000019105103                     9
Y605571210009988301447VILLEGAS                   BAUTISTA                   TOMAS                      00945900000010013032017000  080000019105203                     9
Y605571210026149534005DEL TORO                   VILLARREAL                 JOSE CRUZ                  00945900000010013032017000  080000022056003                     9
Y605571210023765721495MENDOZA                    SAUCEDA                    LUIS HORACIO               00945900000010013032017000  080000025013703                     9
Y605571210023109346058RODRIGUEZ                  ACOSTA                     JOSE IGNACIO               00945900000010013032017000  080000025013803                     9
Y605571210049856762049HERNANDEZ                  SALAZAR                    RAFAEL                     00945900000010013032017000  080000028039903                     9
Y605571210067007122581MORA                       MARTINEZ                   ABRAHAM                    00945900000010013032017000  080000030089203                     9
Y605571210067805924676ESPINOZA                   CORTES                     JULIO                      00945900000010013032017000  080000030098603                     9
Y605571210083129121758OLAN                       JIMENEZ                    FRANCISCO JAVIER           00945900000010013032017000  080000030140703                     9
Y605571210067098517427CRUZ                       FRAGOSO                    HECTOR JAVIER              00945900000010013032017000  080000030140803                     9
Y605571210067048510233CRUZ                       REYES                      ABRAHAM                    00945900000010013032017000  080000030140903                     9
Y605571210048987708624MARQUEZ                    CRUZ                       LUZ DEL CARMEN             00945900000010013032017000  080000030141003                     9
Y605571210067129305982CRUZ                       JIMENEZ                    JOSE ROBERTO               00945900000010013032017000  080000030141103                     9
Y605571210067118900116BAEZA                      MORALES                    PABLO                      00945900000010013032017000  080000030141203                     9
Y605571210067968071331FRANCISCO                  POLICARPIO                 JOSE LUIS                  00945900000010013032017000  080000030141303                     9
Y605571210067058734574TREJO                      GONZALEZ                   AHIAS MISAEL               00945900000010013032017000  080000030141403                     9
Y605571210096887301412CUBEIRO                    ESPINDOLA                  MARCOS                     00945900000010013032017000  080000030141503                     9
Y605571210003148922697SANTIAGO                   SANTOS                     ANA MARINA                 00945900000010013032017000  080000030141603                     9
Y605571210044169559612OLAN                       JIMENEZ                    RODIBER                    00945900000010013032017000  080000030141703                     9
Y605571210067977901569SANCHEZ                    POCEROS                    ALFREDO                    00945900000010013032017000  080000030141803                     9
Y605571210067119260106SOLANO                     RAMIREZ                    CRUZ                       00945900000010013032017000  080000030141903                     9
Y605571210067937003035MORALES                    FABELA                     OSCAR                      00945900000010013032017000  080000030142003                     9
Y605571210067126100881MALDONADO                  RIVERA                     FRANCISCO                  00945900000010013032017000  080000030142103                     9
Y605571210081109202192MARTINEZ                   CRUZ                       MARIO                      00945900000010013032017000  080000030142203                     9
