A836767410921089172775HERNANDEZ                  NICANOR                    FLOR NAYELI                00945900000010019042017000  080000002000902                     9
A836767410962149490435NAVARRO                    ACOSTA                     JUAN MANUEL                00945900000010019042017000  080000002001002                     9
A836767410921058879012RODARTE                    AGUILA                     LAURA ALEJANDRA            00945900000010019042017000  080000002001102                     9
