Y605571210042867019988CAMPOS                     SALINAS                    CLARA                      00945900000010026042016000  080000009508803                     9
Y605571210003158726665HERNANDEZ                  VALENCIA                   KATIA MARLEN               00945900000010026042016000  080000009521703                     9
Y605571210094008119490BAUTISTA                   GARCIA                     JOEL                       00945900000010026042016000  080000009565203                     9
Y605571210045048434190AMADOR                     GALLARDO                   NAYELI                     00945900000010020042016000  080000009602003                     9
Y605571210038149418923ROJAS                      BORGES                     ITZEL GUADALUPE            00945900000010026042016000  080000009613403                     9
Y605571210018169558378CABELLO                    DORANTES                   DIEGO ARMANDO              00945900000010026042016000  080000009613503                     9
Y605571210039977409786SANCHEZ                    MARTINEZ                   JOSE                       00945900000010026042016000  080000009613603                     9
Y605571210030936908448HERNANDEZ                  RODRIGUEZ                  RUBEN                      00945900000010026042016000  080000009613703                     9
Y605571210053139613151GODOY                      GUERRERO                   LUIS                       00945900000010026042016000  080000009613803                     9
Y605571210012796135684ESPARZA                    LOPEZ                      HECTOR MANUEL              00945900000010026042016000  080000011082703                     9
Y605571210092028005988ROMERO                     PEREZ                      MIGUEL ANGEL               00945900000010026042016000  080000015097403                     9
Y605571210092997828220BENITEZ                    ALMARAZ                    ADRIAN                     00945900000010026042016000  080000015170803                     9
Y605571210039109010304SANCHEZ                    VAZQUEZ                    EDUARDO                    00945900000010026042016000  080000015170903                     9
Y605571210009987866663RIVAS                      RODRIGUEZ                  ROBERTO                    00945900000010026042016000  080000028031203                     9
Y605571210067967552695FERNANDEZ                  HERNANDEZ                  FELIPE                     00945900000010026042016000  080000030114403                     9
Y605571210003148720141SANCHEZ                    AGUILAR                    ELISEO DE JESUS            00945900000010026042016000  080000030114703                     9
Y605571210002168257398RAMIREZ                    VALDES                     JORGE ALEJANDRO            00945900000010026042016000  080000030114803                     9
Y605571210067897163621CHAVEZ                     AVILA                      VALENTIN                   00945900000010026042016000  080000030114903                     9
Y605571210071109137936MENDOZA                    LUNA                       JUAN LEONARDO              00945900000010026042016000  080000030115003                     9
