Z064567510812058227112MARTINEZ                   REA                        PEDRO OSVALDO              00945900000010011082017000  080000011098503                     9
Z064567510805159626240CERON                      LOZANO                     MOISES                     00945900000010011082017000  080000011103203                     9
Z064567510853986605854NAVARRO                    MARTINEZ                   PABLO                      00945900000010011082017000  080000011103303                     9
Z064567510830887047394ESCAMILLA                  CASTILLO                   ABRAHAM                    00945900000010011082017000  080000011103403                     9
