Z064567510812997906982LOPEZ                      RODRIGUEZ                  PEDRO                      00945900000010014062017000  080000011002002                     9
Z064567510812967565420PONCE                      LIRA                       JUAN ALEJANDRO             00945900000010014062017000  080000011100203                     9
Z064567510849906602070ORTIZ                      VEGA                       ISRAEL                     00945900000010014062017000  080000011100303                     9
Z064567510812977243786GUERRA                     HERNANDEZ                  MA DEL CARMEN              00945900000010014062017000  080000011100403                     9
