Y605571210096129323927PINEDA                     PEREZ                      RAUL MARTIN                00945900000010007112016000  080000009628203                     9
Y605571210020028406575LEAL                       OSORIO                     NESTOR ALEJANDRO           00945900000010007112016000  080000009635203                     9
Y605571210066149546310AGUILAR                    GARCIA                     HECTOR GUILLERMO           00945900000010007112016000  080000009655503                     9
Y605571210037067100125SALGADO                    CAREAGA                    ARTURO                     00945900000010007112016000  080000009655703                     9
Y605571210058149601401GALICIA                    PEREZ                      LUIS FERNANDO              00945900000010007112016000  080000009655803                     9
Y605571210005129301098CRUZ                       CRUZ                       JOSE                       00945900000010007112016000  080000009655903                     9
Y605571210032846682402DE ANDA                    MARTINEZ                   GERMAN                     00945900000010007112016000  080000011090803                     9
Y605571210025149237031GUERRERO                   MACIAS                     LUIS GUILLERMO             00945900000010007112016000  080000011090903                     9
Y605571210003148155751RODRIGUEZ                  RIVERO                     JESUS ENRIQUE              00945900000010007112016000  080000015175103                     9
Y605571210016058502317GARCIA                     RAMIREZ                    RAUL                       00945900000010007112016000  080000015185003                     9
Y605571210076159502426GAYTAN                     ALVARADO                   JOSE RAUL                  00945900000010007112016000  080000016009203                     9
Y605571210010169501284MONTES                     SANCHEZ                    RAUL                       00945900000010007112016000  080000016009303                     9
Y605571210047937565308CAVAZOS                    CARDENAS                   JUAN LUIS                  00945900000010007112016000  080000019091803                     9
Y605571210039066800564LOPEZ                      GUAJARDO                   MAGDA LETICIA              00945900000010007112016000  080000019091903                     9
Y605571210047907017249FLORES                     VALLADAREZ                 IRMA LETICIA               00945900000010007112016000  080000019092003                     9
Y605571210023018591232SANTANA                    ORTEGA                     ANGEL ISABEL               00945900000010007112016000  080000022052103                     9
