Y605571210039097900219PEREZ                      BERRUECOS                  ELISA MARGARITA            00945900000010006042017000  080000009694103                     9
Y605571210094129502178CESPEDES                   RAMIREZ                    MARCO ANTONIO              00945900000010006042017000  080000009694203                     9
Y605571210039068304581MENDEZ                     HERNANDEZ                  SAMUEL ADOLFO              00945900000010006042017000  080000009694303                     9
Y605571210016927412847ROMERO                     LOPEZ                      ANTONIO                    00945900000010006042017000  080000015201203                     9
