Y605571210051038608553DIAZ                       REVELES                    OSVALDO ABEL               00945900000010021042017000  080000001009403                     9
Y605571210071098007595RUIZ                       SANTIAGO                   ADELA DEL RAYO             00945900000010021042017000  080000007018803                     9
Y605571210045079025065MAGADAN                    PUNTOS                     GUSTAVO                    00945900000010021042017000  080000009551503                     9
Y605571210045975801627RODRIGUEZ                  SANTILLAN                  JOSE ARTURO                00945900000010021042017000  080000009697803                     9
Y605571210062169576725VALENTIN                   PONCE                      DIEGO                      00945900000010021042017000  080000009697903                     9
Y605571210020119235172GARCIA                     JUAREZ                     EMMANUEL                   00945900000010021042017000  080000009698003                     9
Y605571210096047801707LOPEZ                      GARDUÒO                    BEATRIZ ADRIANA            00945900000010021042017000  080000009698103                     9
Y605571210004148177564LOPEZ                      GARDUÒO                    KARINA ELIZABETH           00945900000010021042017000  080000009698203                     9
Y605571210096109047868HERMOSILLO                 HERNANDEZ                  LAURA AURORA               00945900000010021042017000  080000009698403                     9
Y605571210096139613549AGUIRRE                    MENDEZ                     DIEGO ALEJANDRO            00945900000010021042017000  080000009698503                     9
Y605571210001018224855MU—OZ                      HUERTA                     MOISES FRANCISCO           00945900000010021042017000  080000009698603                     9
Y605571210002176625495ARENAS                     MUÒOZ                      ERNESTO                    00945900000010021042017000  080000009698703                     9
Y605571210003169463464RIVERA                     BARRADAS                   ALICIA                     00945900000010021042017000  080000009698803                     9
Y605571210092008256155ARIAS                      RUIZ                       KARLA                      00945900000010021042017000  080000015203703                     9
Y605571210012078421463LOPEZ                      LOMAS                      LAURA ALEJANDRA            00945900000010021042017000  080000015203803                     9
Y605571210092957673863TORRES                     PE—ALOZA                   JOSE ALBERTO               00945900000010021042017000  080000015203903                     9
Y605571210094129316132VILLEGAS                   AGUIRRE                    SARAI                      00945900000010021042017000  080000015204003                     9
Y605571210001068811411TREJO                      SANCHEZ                    ANA LIDIA                  00945900000010021042017000  080000015204103                     9
Y605571210043129635959PEREZ                      HERNANDEZ                  CARLOS ANDRES              00945900000010021042017000  080000019108603                     9
Y605571210067978105137MUÒOZ                      HERNANDEZ                  CESAR ALBERTO              00945900000010021042017000  080000030146703                     9
