Y605571210051916450078OCAMPO                     RIVERA                     MARCOS                     00945900000010012122016000  080000001009103                     9
Y605571210039048604563GARCIA                     PONCE                      ESTEBAN                    01194600000010012122016000  080000002051303                     9
Y605571210094038103423SABIDO                     CANO                       JOSE LEONARDO              00945900000010012122016000  080000004010003                     9
Y605571210035846825715JACOBO                     RAMIREZ                    MANUEL ROBERTO             00945900000010012122016000  080000008067403                     9
Y605571210096079102644SANCHEZ                    GUERRERO                   FERNANDO                   00945900000010012122016000  080000009668503                     9
Y605571210020018110542QUIROGA                    ESTRADA                    MARLEN                     00945900000010012122016000  080000009668603                     9
Y605571210026169474850CABELLO                    COYOTE                     ALEJANDRO                  00945900000010012122016000  080000016009703                     9
Y605571210043725513881RODRIGUEZ                  DELGADO                    ALEJO                      00945900000010012122016000  080000019072803                     9
Y605571210049906935900PEREZ                      TRISTAN                    ANA LAURA                  00945900000010012122016000  080000019096303                     9
Y605571210071088721825DE LA CRUZ                 MEJIA                      CARLOS                     00945900000010012122016000  080000022053603                     9
Y605571210047169835734VAZQUEZ                    CISNEROS                   JAIMEN AROLDO              00945900000010012122016000  080000023039903                     9
Y605571210023038719094OROZCO                     ROSALES                    RICARDO                    00945900000010012122016000  080000025011403                     9
Y605571210025169791180PEREGRINO                  CASTILLO                   CARLOS MARIO               00945900000010012122016000  080000027053803                     9
