Y605571210020088703804JIMENEZ                    MEDEL                      ALAN DARIL                 00945900000010015062017000  080000009712903                     9
Y605571210026169474850CABELLO                    COYOTE                     ALEJANDRO                  00945900000010015062017000  080000016009703                     9
Y605571210065129044395CAGAL                      CRUZ                       ALEJO                      00945900000010015062017000  080000019115703                     9
