Y462621510962917320400VAZQUEZ                    LOZANO                     JAVIER                     00945900000010009032017000  080000021135603                     9
Y462621510984159732167CHAZARI                    BARROSO                    VERONICA                   00945900000010009032017000  080000021166103                     9
Y462621510948109135896CABALLERO                  MEDEL                      ARMANDO                    00945900000010009032017000  080000021166203                     9
