A836767410933927325481RAMIREZ                    GONZALEZ                   JOSE LUIS                  00945900000010010102016000  080000008060903                     9
A836767410921069007942MONTOYA                    SALAZAR                    ERICK JESUS                00945900000010010102016000  080000008061203                     9
A836767410933107502164HARVEY                     GUTIERREZ                  MODESTO RODOLFO            00945900000010010102016000  080000008061303                     9
