Y605571210096109227684OJEDA                      ESCALANTE                  BEATRIZ ADRIANA            00945900000010031052016000  080000009617603                     9
Y605571210082079204135ORTIZ                      HERNANDEZ                  ALEXIS GUSTAVO             00945900000010031052016000  080000009617703                     9
Y605571210038149428203SANCHEZ                    NOPALTITLA                 JOSE GABRIEL               00945900000010031052016000  080000009617803                     9
Y605571210049149684018SORIA                      SANTILLAN                  JOSE MARCOS                00945900000010031052016000  080000014103003                     9
Y605571210004129556090MORALES                    PADILLA                    JOSE GUILLERMO             00945900000010031052016000  080000014108403                     9
Y605571210016755101975MARTINEZ                   JOSE MARIA                 OTILIO                     00945900000010031052016000  080000015160103                     9
Y605571210092098810267HERRERA                    QUIROZ                     YESSICA IVONE              00945900000010031052016000  080000015173703                     9
Y605571210082058308600EROSA                      CANTO                      MERCEDES DEL CARMEN        00945900000010031052016000  080000023027403                     9
Y605571210082129019004UITZIL                     CAUICH                     SARA YESSENIA              00945900000010031052016000  080000023027503                     9
Y605571210058159631900JIMENEZ                    MARIN                      ALEXIS                     00945900000010031052016000  080000023027603                     9
Y605571210071139601638VELAZQUEZ                  OVANDO                     DANIEL                     00945900000010031052016000  080000023027703                     9
Y605571210049977890851ZAPUCHE                    GARCIA                     JOSE                       00945900000010031052016000  080000028031803                     9
Y605571210009058792632MARTIN                     DOMINGUEZ                  VICTORINO                  00945900000010031052016000  080000028031903                     9
