Z064567510812937316342PEREZ                      GARNICA                    GERARDO                    00945900000010026042017000  080000011097603                     9
Z064567510832078968974RODRIGUEZ                  RAMIREZ                    SAULO ANDRES               00945900000010026042017000  080000011097703                     9
Z064567510812056102036PEREZ                      ZARZA                      MARTIN                     00945900000010026042017000  080000011097803                     9
Z064567510812856740415DE JULIAN                                             SEBASTIAN                  00945900000010026042017000  080000011097903                     9
Z064567510888816601384CARDENAS                   FLORES                     JAVIER                     00945900000010026042017000  080000011098003                     9
