A836767410933109009218MELENDEZ                   MACIAS                     BLANCA GUADALUPE           00945900000010029072016000  080000008053203                     9
A836767410919149485278CARRILLO                   MANCINAS                   ANGEL ULISES               00945900000010029072016000  080000008053303                     9
A836767410933086100857PEREZ                      MAGOS                      VIRGINIA MANUELA           00945900000010029072016000  080000008053403                     9
A836767410933079008026GONZALEZ                   TORRES                     JESUS                      00945900000010029072016000  080000008053503                     9
