Y605571210081028400059PEREZ                      HERNANDEZ                  REYNALDO DEL JESUS         00945900000010020022017000  080000004010703                     9
Y605571210019149665200LOEZA                      PEREZ                      JOSE ALFONSO               00945900000010020022017000  080000004010803                     9
Y605571210046159511818LOPEZ                      MANDUJANO                  NAYELY IVONNE              00945900000010020022017000  080000009042102                     9
Y605571210007866802569VILLEDA                    AGUILAR                    SERGIO                     00945900000010020022017000  080000009610703                     9
Y605571210004169734870ARELLANO                   ESCARCEGA                  IRANI                      00945900000010020022017000  080000009658703                     9
Y605571210008179830768AVILA                      GARCIA                     LUIS MAURO                 00945900000010020022017000  080000009684203                     9
Y605571210035149588770VAZQUEZ                    MATEOS                     ROSARIO                    00945900000010020022017000  080000009684303                     9
Y605571210045048201532SON                        DELGADO                    JOSE ANGEL                 00945900000010020022017000  080000009684403                     9
Y605571210005179715627CRUZ                       MORENO                     OSCAR RENE SALVADOR        00945900000010020022017000  080000009684503                     9
Y605571210096088854664DE LA CRUZ                 GUDIÒO                     CRISTHIAN JESUS            00945900000010020022017000  080000009684603                     9
Y605571210008179824779MORENO                     GARCIA                     IVON                       00945900000010020022017000  080000009684703                     9
Y605571210045068843908BARRERA                    RODRIGUEZ                  JUAN CARLOS                00945900000010020022017000  080000009684803                     9
Y605571210016118201637ENRIQUEZ                   ANGELES                    JOEL                       00945900000010020022017000  080000015193003                     9
Y605571210016139132902CANCHOLA                   DEL ANGEL                  URIEL                      00945900000010020022017000  080000015193403                     9
Y605571210043169856812SALMERON                   LOPEZ                      JORGE LUIS                 00945900000010020022017000  080000015193503                     9
Y605571210043785828088VASQUEZ                    CORONADO                   MARIA DE LOURDES           00945900000010020022017000  080000019099403                     9
Y605571210047068703116GARCIA                     CANO                       EDMUNDO IVAN               00945900000010020022017000  080000019102603                     9
Y605571210047068964544LUNA                       FABELA                     FLOR GRISELDA              00945900000010020022017000  080000019102703                     9
Y605571210065109101124SALAZAR                    ARTEAGA                    ILSE NALLELY               00945900000010020022017000  080000019102803                     9
Y605571210014896508646SALAZAR                    GONZALEZ                   ALFONSO                    00945900000010020022017000  080000022058003                     9
Y605571210083109213252JIMENEZ                    JIMENEZ                    MARIA FERNANDA             00945900000010020022017000  080000023042503                     9
Y605571210083139002030ZAYAS                      MORALES                    JESUS ANTONIO              00945900000010020022017000  080000027059903                     9
Y605571210083088708314CHABLE                     HERNANDEZ                  PEDRO                      00945900000010020022017000  080000027060003                     9
Y605571210009937706647MARTINEZ                   PEDROZA                    MARTIN                     00945900000010020022017000  080000028007903                     9
Y605571210002157337953DIAZ                       FLORES                     ESTELA                     00945900000010020022017000  080000030136603                     9
Y605571210067119228939ROBLES                     ESPINOSA                   MARIA MERCEDES             00945900000010020022017000  080000030136703                     9
Y605571210065129394717RODRIGUEZ                  MAYO                       DANIEL SEVERINO            00945900000010020022017000  080000030136803                     9
Y605571210025149472745ROSAS                      VILLA                      JOSE ANTONIO               00945900000010020022017000  080000030136903                     9
Y605571210065987421107VELASCO                    VELASCO                    ISMAEL                     00945900000010020022017000  080000030137003                     9
Y605571210067129243456ZEPAHUA                    SANCHEZ                    JOSE CARLOS                00945900000010020022017000  080000030137103                     9
Y605571210065967670533ZACARIAS                   TAXILAGA                   ROBERTO                    00945900000010020022017000  080000030137203                     9
Y605571210067119254513ESPINOZA                   ANGEL                      JOSE OSCAR                 00945900000010020022017000  080000030137303                     9
Y605571210067078622098SOLANO                     RODRIGUEZ                  JOSE LUIS                  00945900000010020022017000  080000030137403                     9
Y605571210067977903011GALVEZ                     BERISTAIN                  GONZALO                    00945900000010020022017000  080000030137503                     9
