Y605571210081947603197ARENALES                   ORTIZ                      LEONEL                     00945900000010027072017000  080000004011603                     9
Y605571210017169337015CORTES                     MAYA                       GUSTAVO ADRIAN             00945900000010027072017000  080000009721803                     9
Y605571210042119005371SANDOVAL                   HERNANDEZ                  MARIETA GUADALUPE          00945900000010027072017000  080000009721903                     9
Y605571210065109039670PERALTA                    FONSECA                    JUAN CARLOS                00945900000010027072017000  080000015216103                     9
Y605571210092058003945PEDRAZA                    DE LA ROSA                 NESTOR MANUEL              00945900000010027072017000  080000015216203                     9
Y605571210014977903708SILVA                      GONZALEZ                   ELIUD KAROL                00945900000010027072017000  080000022064703                     9
Y605571210063129426688SOLIS                      CALDERAS                   CARINA                     00945900000010027072017000  080000022064803                     9
Y605571210082069018263ZAPATA                     ZAPATA                     DIANA PATRICIA             00945900000010027072017000  080000023050003                     9
Y605571210049149556075IGNACIO                    SANTIAGO                   JUAN CARLOS                00945900000010027072017000  080000023050103                     9
Y605571210008179498707CHEVEZ                     CRUZ                       BLANCA ANTONIA             00945900000010027072017000  080000023050203                     9
