Y605571210037098907993CARDENAS                   HERNANDEZ                  LUIS ADRIAN                00945900000010011012017000  080000009675203                     9
Y605571210045128714388LUNA                       CASTELLANOS                ARMANDO                    00945900000010011012017000  080000009675303                     9
Y605571210048098902785CORREA                     GUZMAN                     VICTOR MANUEL              00945900000010011012017000  080000009675403                     9
Y605571210094088915098BAUTISTA                   BALDOVINOS                 PEDRO                      00945900000010011012017000  080000015097603                     9
Y605571210020967716711HERNANDEZ                  ROCHA                      ANTONIO GUADALUPE          00945900000010011012017000  080000015187703                     9
Y605571210043806345344HERRERA                    REZA                       OSCAR                      00945900000010011012017000  080000019056903                     9
Y605571210032997918183SALAZAR                    PUENTE                     MOISES RIGOBERTO           00945900000010011012017000  080000019098303                     9
Y605571210043886767870GONZALEZ                   RAMIREZ                    JAVIER                     00945900000010011012017000  080000019098403                     9
Y605571210071907204987RODRIGUEZ                  ORTIZ                      VALENTIN                   00945900000010011012017000  080000023009003                     9
Y605571210082007928904PEÑA                       ROSADO                     ANGEL MIGUEL               00945900000010011012017000  080000023013803                     9
Y605571210082886841467HUICAB                     PISTE                      JORGE                      00945900000010011012017000  080000023041303                     9
Y605571210082078972211CORDOVA                    VENTURA                    CARLOS ENRIQUE             00945900000010011012017000  080000023041403                     9
Y605571210084077804817OLIVA                      MOGUEL                     PEDRO ADRIAN               00945900000010011012017000  080000023041503                     9
Y605571210076159603232REYNOSA                    VAZQUEZ                    CARLOS DANIEL              00945900000010011012017000  080000023041603                     9
Y605571210082139603060CRUZ                       DIONISIO                   DANIEL                     00945900000010011012017000  080000023041703                     9
Y605571210023866802459GARCIA                     HERNANDEZ                  JAVIER                     00945900000010011012017000  080000025012103                     9
Y605571210049957175703TREJO                      VARGAS                     ADAN                       00945900000010011012017000  080000028037603                     9
Y605571210009108921868MAGALLANES                 LEYVA                      JULIO CESAR                00945900000010011012017000  080000028037703                     9
Y605571210002157596939CUELLLAR                   DELGADO                    AMERICA ANEL               00945900000010011012017000  080000028037803                     9
Y605571210009058833162MARTINEZ                   CERDA                      JORGE LUIS                 00945900000010011012017000  080000028037903                     9
Y605571210009048760590CHAVIRA                    MIRELES                    LEONARDO                   00945900000010011012017000  080000028038003                     9
Y605571210003816304467GOVEA                      CARREON                    ILDEFONSO                  00945900000010011012017000  080000028038103                     9
Y605571210049946610281SAENZ                      GONZALEZ                   JAIME                      00945900000010011012017000  080000028038203                     9
