A836767410935978188288MATA                       CHAPARRO                   OSCAR                      00945900000010028062016000  080000008048803                     9
A836767410919169471026MENDOZA                    GUTIERREZ                  ADRIAN                     00945900000010028062016000  080000008048903                     9
A836767410901695017200DIAZ                       SANTANA                    TEOFANES                   00945900000010028062016000  080000008049003                     9
