Y605571210016109205365FUENTES                    ENRIQUEZ                   BRENDA SANDRA              00945900000010026012017000  080000009679203                     9
Y605571210039947749337HERRERA                    NERIA                      OLGA                       00945900000010026012017000  080000009679303                     9
Y605571210072917403361MARINA                     PINEDA                     ENRIQUE                    00945900000010026012017000  080000009679403                     9
Y605571210094998101425RAMIREZ                    CEDILLO                    ERICK                      00945900000010026012017000  080000015189503                     9
Y605571210043886445527MARTINEZ                   RENTERIA                   JUAN MANUEL                00945900000010026012017000  080000019100303                     9
Y605571210009038110525RIOS                       HERNANDEZ                  MATUSALEM                  00945900000010026012017000  080000019100703                     9
Y605571210043796279974ROQUE                      RANGEL                     JESUS                      00945900000010026012017000  080000019100803                     9
Y605571210043099107989MENDOZA                    SALAZAR                    DAVID ENRIQUE              00945900000010026012017000  080000019100903                     9
Y605571210026149534005DEL TORO                   VILLARREAL                 JOSE CRUZ                  00945900000010026012017000  080000022056003                     9
Y605571210026169561391CERVANTES                  MARTINEZ                   MARIA ALEJANDRA            00945900000010026012017000  080000022056103                     9
Y605571210023745718355CUEN                       VELAZQUEZ                  JOSE ANTONIO               00945900000010026012017000  080000025012403                     9
