Y605571210005159331452SANJUAN                    HERRERA                    UBALDO                     00945900000010001072016000  080000009622603                     9
Y605571210004167952961FLORES                     DOMINGUEZ                  ELPIDIO                    00945900000010001072016000  080000009622803                     9
Y605571210096987602024DE LA PAZ                  CARMONA                    JOSE MANUEL                00945900000010001072016000  080000009623003                     9
Y605571210042088401403MEDINA                     ZARAGOZA                   RAFAEL                     00945900000010001072016000  080000009623103                     9
Y605571210028138703641CAMARENA                   FLORES                     YAHIR ADOLFO               00945900000010001072016000  080000009623203                     9
Y605571210010866833204MIRANDA                    SANCHEZ                    FAUSTINO                   00945900000010001072016000  080000009623303                     9
Y605571210005158676568MAYO                       HERNANDEZ                  VIVIANA                    00945900000010001072016000  080000011085203                     9
Y605571210092129237043DELGADO                    SANCHEZ                    VERONICA                   00945900000010001072016000  080000015170103                     9
Y605571210090098932602ROSALES                    VAZQUEZ                    GUADALUPE ANTONIO          00945900000010001072016000  080000015176103                     9
Y605571210043796134484DIAZ                       ESTRADA                    DANIEL                     00945900000010001072016000  080000019071803                     9
Y605571210043997843149GARZA                      ROSALES                    RUBEN                      00945900000010001072016000  080000019081903                     9
Y605571210067998003817FABIAN                     RUIZ                       ANTONIO                    00945900000010001072016000  080000023030203                     9
Y605571210082008223974YAÑEZ                      GOMEZ                      RICARDO FERNANDO           00945900000010001072016000  080000023030403                     9
Y605571210023129440840LOPEZ                      SALAZAR                    ELIAN EDUARDO              00945900000010001072016000  080000025002803                     9
Y605571210023027409459GALLEGOS                   ARAIZA                     ALEJANDRO                  00945900000010001072016000  080000025002903                     9
