D172000910215958017475PEREZ                      MONTES DE OCA              DANIEL                     00945900000010030012017000  080000017050703                     9
D172000910285169850444MARTINEZ                   GONZALEZ                   MARCO ANTONIO              00945900000010030012017000  080000017050803                     9
D172000910217149740064LOPEZ                      REBOLLEDO                  JORGE LUIS                 00945900000010030012017000  080000017050903                     9
D172000910215008020073REDON                      ORTIZ                      JORGE                      00945900000010030012017000  080000017051003                     9
