Y605571210071917231046MONTERO                    FELIX                      JOSE DEL CARMEN            00945900000010009012017000  080000004010403                     9
Y605571210083865400408ZENTENO                    CARDEÒO                    ALFONSO                    00945900000010009012017000  080000004010503                     9
Y605571210027149373642GUZMAN                     AYALA                      JORGE EDUARDO              00945900000010009012017000  080000007001302                     9
Y605571210024927645077PEREZ                      ALVAREZ                    ANGEL                      00945900000010009012017000  080000009596303                     9
Y605571210045058640686PIMENTEL                   GONZALEZ                   JOSE DANIEL                00945900000010009012017000  080000009674503                     9
Y605571210001008308544GUTIERREZ                  OCAMPO                     RAUL                       00945900000010009012017000  080000009674603                     9
Y605571210045967507612ACEVEDO                    TORRES                     MARIO TOMAS                00945900000010009012017000  080000009674703                     9
Y605571210017159866288BAUTISTA                   JAIMES                     DANIEL                     00945900000010009012017000  080000009674803                     9
Y605571210028068807362NORIEGA                    OLVERA                     LUIS EDSON                 00945900000010009012017000  080000009674903                     9
Y605571210092139559576BRISEÒO                    BELLO                      BRYAN NOE                  00945900000010009012017000  080000015138203                     9
Y605571210043118400340OLVERA                     NAVARRO                    HULDA                      00945900000010009012017000  080000019098103                     9
Y605571210014128913465ROSAS                      CABALLERO                  NOE                        00945900000010006012017000  080000022055103                     9
Y605571210047038615309VALADEZ                    QUINTANILLA                DEYANIRA                   00945900000010009012017000  080000023041103                     9
Y605571210083139013631NOTARIO                    VAZQUEZ                    ARTURO                     00945900000010009012017000  080000030132703                     9
