Y605571210025149173780MOSHAN                     MARTINEZ                   MANUELA                    00945900000010003112016000  080000007016403                     9
Y605571210096067806297MEJIA                      ORDU—A                     JUAN MARTIN                00945900000010003112016000  080000009608403                     9
Y605571210090018517491COLIN                      PIMENTEL                   JOSE RICARDO               00945900000010003112016000  080000009612703                     9
Y605571210025149604982PATIÒO                     ORTIZ                      JUAN CARLOS                00945900000010003112016000  080000009654703                     9
Y605571210020987506621JUAREZ                     CESMA                      JOSE LUIS                  00945900000010003112016000  080000009654803                     9
Y605571210020119310033MARTINEZ                   MORENO                     ALEJANDRA ABIGAIL          00945900000010003112016000  080000009654903                     9
Y605571210012008400926ZAMORA                     BUENO                      GUSTAVO IVAN               00945900000010003112016000  080000011090503                     9
Y605571210012038726563VELOZ                      MANRIQUEZ                  EDGAR JOSUE ABRAHAM        00945900000010003112016000  080000011090603                     9
Y605571210045089051820SARDENETA                  PAREDES                    CARLOS IVAN                00945900000010003112016000  080000015184703                     9
Y605571210003968003784BECERRA                    TOVAR                      JOSE JUAN                  00945900000010003112016000  080000019091303                     9
Y605571210043786231357ALANIS                     MATA                       JOSE MANUEL                00945900000010003112016000  080000019091403                     9
Y605571210014088923280RAMIREZ                    NAVARRO                    SUSAN ARELY                00945900000010003112016000  080000022052003                     9
