Y462621510948028433414SANCHEZ                    RAMOS                      HECTOR MIGUEL              00945900000010017102016000  080000021156403                     9
Y462621510948138936033RUFINO                     VAZQUEZ                    IRVIN                      00945900000010017102016000  080000021156503                     9
Y462621510961048700571JIMENEZ                    GARCIA                     LEE OSCAR                  00945900000010017102016000  080000021156603                     9
