Y605571210010149458084VIDAL                      CUETO                      JOSE ARMANDO               00945900000010027022017000  080000004011103                     9
Y605571210039937785358MORALES                    CELIS                      JUAN MANUEL                00945900000010027022017000  080000015194403                     9
Y605571210092907050386OLVERA                     TELLEZ                     ROBERTO                    00945900000010027022017000  080000015194503                     9
Y605571210021996400681BOMBELA                    FLORES                     JESUS BENITO               00945900000010027022017000  080000015194603                     9
Y605571210071037804359RODRIGUEZ                  TRINIDAD                   JOSE MELQUIADES            00945900000010027022017000  080000015194703                     9
Y605571210092079103161SANCHEZ                    CASTRO                     CLAUDIA                    00945900000010027022017000  080000015194803                     9
Y605571210065129268259CALIXTO                    LOPEZ                      ADRIAN                     00945900000010027022017000  080000019103303                     9
Y605571210014008249261MORALES                    ACOSTA                     MIGUEL ANGEL               00945900000010027022017000  080000022058403                     9
Y605571210014068933903ARROYO                     GARCIA                     JOSE ELIAS                 00945900000010027022017000  080000022058503                     9
Y605571210083048304691PALACIO                    GARCIA                     ADAN                       00945900000010027022017000  080000027055903                     9
