A836767410921139351254HERNANDEZ                  NICANOR                    KENIA ZULLYNAM             00945900000010028042017000  080000002001202                     9
A836767410939169856315PACHECO                    ESCALANTE                  BRENDA                     00945900000010028042017000  080000002053903                     9
A836767410921129633935MORENO                     RIVERA                     JUAN MANUEL                00945900000010028042017000  080000002054003                     9
A836767410921079014490VENTURA                    VELARDE                    RICARDO ALONZO             00945900000010028042017000  080000002054103                     9
A836767410933079052214OROZCO                     MINJARES                   JOSE LUIS                  00945900000010028042017000  080000008073803                     9
