R143868210349149684018SORIA                      SANTILLAN                  JOSE MARCOS                00945900000010009112016000  080000014103003                     9
R143868210304079059756AVILA                      CONTRERAS                  JOSE ALBERTO               00945900000010009112016000  080000014123803                     9
R143868210304856849452RODRIGUEZ                  CASTAÒEDA                  CARLOS                     00945900000010009112016000  080000014123903                     9
