A836767410933119444413CORTES                     TARANGO                    ANGEL HERIBERTO            00945900000010021062016000  080000008038903                     9
A836767410933048333868PEREZ                      ANDRADE                    IVAN ALFREDO               00945900000010021062016000  080000008047903                     9
A836767410933139328257GONZALEZ                   RAMIREZ                    ROGELIO ALEJANDRO          00945900000010021062016000  080000008048003                     9
