Y462621510911785987725SANDOVAL                   RAZO                       CIPRIANO                   00945900000010002082016000  080000021002202                     9
Y462621510910159446599SALDAÑA                    CONDE                      CECILIA                    00945900000010002082016000  080000021002302                     9
Y462621510962978019941VELAZQUEZ                  SANCHEZ                    LUIS ALBERTO               00945900000010002082016000  080000021151603                     9
Y462621510961098501234BONILLA                    PEREZ                      OMAR                       00945900000010002082016000  080000021151703                     9
Y462621510922169377755SOTORRIVA                  REYES                      RODOLFO                    00945900000010002082016000  080000021151803                     9
Y462621510948988052832SANTOS                     BORJA                      FELIPE EMMANUEL            00945900000010002082016000  080000021151903                     9
