Y605571210096109269967TORRES                     GARCIA                     MARCOS GUILLERMO           00945900000010013122016000  080000009395903                     9
Y605571210028119300060AREVALO                    MACIAS                     LUIS EDUARDO               00945900000010013122016000  080000009547203                     9
Y605571210096088932718REYES                      PEREZ                      YOSELIN                    00945900000010013122016000  080000009619903                     9
Y605571210066149626203JIMENEZ                    RIVERA                     MARIA DE JESUS             00945900000010013122016000  080000009639003                     9
Y605571210045967811691PONCE                      HERNANDEZ                  GERARDO                    00945900000010013122016000  080000009668303                     9
Y605571210054159746541ESCAMILLA                  AGUILAR                    EMMANUEL IRVING GABRIEL    00945900000010013122016000  080000009668703                     9
Y605571210045937642853LOPEZ                      MARTINEZ                   JOSE MIGUEL                00945900000010013122016000  080000009668803                     9
Y605571210042917302517HERNANDEZ                  DIAZ                       RAMON                      00945900000010013122016000  080000009668903                     9
Y605571210070169863431APARICIO                   SANCHEZ                    VANESSA                    00945900000010013122016000  080000009669003                     9
Y605571210096139525206APARICIO                   SANCHEZ                    MARIANA DE JESUS           00945900000010013122016000  080000009669103                     9
Y605571210096098906926MARTINEZ                   RIVERA                     ROGELIO                    00945900000010013122016000  080000009669203                     9
Y605571210042129201531RAMIREZ                    OCAMPO                     MARCO ANTONIO              00945900000010013122016000  080000009669303                     9
Y605571210067927501626SAUCEDO                    TRUJILLO                   FRANCISCO JAVIER           00945900000010013122016000  080000015081503                     9
Y605571210038169412566DE JESUS                   PAVON                      CAROLINA                   00945900000010013122016000  080000015186603                     9
Y605571210012018013149MARTINEZ                   ABARCA                     PASCUALITA                 00945900000010013122016000  080000022053703                     9
Y605571210065018600711USCANGA                    LOPEZ                      ANTONIO                    00945900000010013122016000  080000030060103                     9
Y605571210065018207236GARCIA                     VIVEROS                    LEOPOLDO                   00945900000010013122016000  080000030131903                     9
Y605571210065007933818SAN JUAN                   HERNANDEZ                  GABRIELA                   00945900000010013122016000  080000030132003                     9
Y605571210065119357690BENDIMEZ                   GONZALEZ                   ERIKA IZETL                00945900000010013122016000  080000030132103                     9
