A836767410937068907189FLORES                     BARRIOS                    MIGUEL ANGEL               00945900000010024072017000  080000002001302                     9
A836767410922078919598SUAREZ                     SOLIS                      ALAN JOVANY                00945900000010024072017000  080000002060403                     9
A836767410981017002502ZALDIBAR                   PADILLA                    NOEL                       00945900000010024072017000  080000002060503                     9
A836767410971049300099MUJICA                     AREVALO                    FRANCISCO URIEL            00945900000010024072017000  080000002060603                     9
A836767410933139247457ESTRADA                    GUTIERREZ                  RAMON ADRIAN               00945900000010024072017000  080000008078503                     9
A836767410933129626314FLORES                     GARCIA                     LORENZO ANTONIO            00945900000010024072017000  080000008078603                     9
