Y462621510948089113806JIMENEZ                    VELASCO                    JOSE EFREN                 00945900000010027032017000  080000021098503                     9
Y462621510986169535548TORREBLANCA                CISNEROS                   LUCERO ANDREA              00945900000010027032017000  080000021167403                     9
Y462621510948139205180CARRILLO                    LOPEZ                     JOSE DAVID                 00945900000010027032017000  080000021167503                     9
