Y605571210042028600676ANGELES                    PEÑALOZA                   YESSENIA                   00945900000010012052017000  080000009694403                     9
Y605571210018179891132ZUÑIGA                     LOPEZ                      JORGE                      00945900000010012052017000  080000009703903                     9
Y605571210096129441083HERNANDEZ                  OLIVARES                   OMAR                       00945900000010012052017000  080000009704003                     9
Y605571210058159684222MERINO                     DIAZ                       JULIO ANDRES               00945900000010012052017000  080000009704103                     9
Y605571210059149544856MORENO                     SALAS                      DAVID EDUARDO              00945900000010012052017000  080000015207603                     9
Y605571210027159648974FLORES                     CASTRO                     SALOME                     00945900000010012052017000  080000015208603                     9
Y605571210042806285443GOMEZ                      JUAREZ                     JUVENAL                    00945900000010012052017000  080000015208803                     9
Y605571210016836706289SOLORZANO                  GARCIA                     GREGORIO                   00945900000010012052017000  080000015208903                     9
Y605571210016866703404TORRES                     PEREZ                      JAVIER                     00945900000010012052017000  080000015209303                     9
Y605571210016048737395MEDINA                     SANCHEZ                    JOSEFINA                   00945900000010012052017000  080000015209403                     9
Y605571210092907266560MACIAS                     LOERA                      JOSE GUADALUPE             00945900000010012052017000  080000015209803                     9
Y605571210041816011955LUGO                       CORTES                     GERARDO                    00945900000010012052017000  080000019112303                     9
Y605571210043058526112DELGADO                    ALFARO                     JOSE ARIEL                 00945900000010012052017000  080000019112403                     9
Y605571210045129412438DURAN                      OCHOA                      JONATHAN FERNANDO          00945900000010012052017000  080000022060703                     9
Y605571210012735300738NAVARRETE                  CAMARGO                    J CRUZ                     00945900000010012052017000  080000022061803                     9
Y605571210071957830574MORALES                    PEREZ                      BENIGNO                    00945900000010012052017000  080000028041403                     9
