Y605571210051886706921SUAREZ                     RODRIGUEZ                  MARIA RAMONA               00945900000010030052016000  080000001007303                     9
Y605571210052038613213FLORES                     JORDAN                     EFRAIN                     00945900000010030052016000  080000006001603                     9
Y605571210014129118957GUADARRAMA                 GRACIDA                    HECTOR LEONCIO             00945900000010030052016000  080000009037302                     9
Y605571210096068535242MARTINEZ                   LOPEZ                      YAZMIN GUILLERMINA         00945900000010030052016000  080000009037402                     9
Y605571210096139608010VAZQUEZ                    ATILANO                    JORGE EDWIN                00945900000010030052016000  080000009617503                     9
Y605571210012967930020CHIMAL                     HERNANDEZ                  GILDARDO                   00945900000010030052016000  080000011081003                     9
Y605571210004107301014PALOMINO                   ALCANTAR                   JAVIER                     00945900000010030052016000  080000014092003                     9
Y605571210049149684018SORIA                      SANTILLAN                  JOSE MARCOS                00945900000010030052016000  080000014103003                     9
Y605571210075998111142ZEFERINO                   SALAZAR                    RICARDO                    00945900000010030052016000  080000014114203                     9
Y605571210033996707932GARCIA                     FLORES                     ARMANDO                    00945900000010030052016000  080000014114303                     9
Y605571210004877016669VARGAS                     SALDIVAR                   ALBERTO                    00945900000010030052016000  080000014114403                     9
Y605571210052867103229CARMONA                    PALOMARES                  SOCORRO                    00945900000010030052016000  080000014114503                     9
Y605571210052028101153OLVIRA                     MEDINA                     JOSE                       00945900000010030052016000  080000014114603                     9
Y605571210025966805878HERNANDEZ                  HERNANDEZ                  JOSE DE JESUS              00945900000010030052016000  080000014114703                     9
Y605571210043846322998CANDANOSA                  BETANCOURT                 SAUL                       00945900000010030052016000  080000019079503                     9
Y605571210014109375106DE SANTIAGO                DONDIEGO                   EDUARDO                    00945900000010030052016000  080000022044603                     9
Y605571210096128500939LULE                       CORNEJO                    BERNARDO                   00945900000010030052016000  080000022044703                     9
Y605571210025159120069GUIJON                     GARCIA                     GUILLERMO ALONSO           00945900000010030052016000  080000022044803                     9
Y605571210062149606022PONCE                      MANTECA                    JOSE DANIEL                00945900000010030052016000  080000022044903                     9
