Y605571210032875575642FLORES                     REYNA                      JUAN                       00945900000010005042017000  080000005012803                     9
Y605571210045099165784ROSAS                      MENDEZ                     NANCY                      00945900000010005042017000  080000009693903                     9
Y605571210045099084902ROSALES                    CAMPOS                     OMAR DELFINO               00945900000010005042017000  080000009694003                     9
Y605571210092129505316CASTRO                     PALACIOS                   JOBANI                     00945900000010005042017000  080000015130603                     9
Y605571210047988190063MORENO                     GARZA                      MARIA GUADALUPE            00945900000010005042017000  080000019096703                     9
Y605571210043946109758RIVERA                     TORRES                     JESUS ANTONIO              00945900000010005042017000  080000019107303                     9
Y605571210035149565802MOO                        ALANIS                     EDUARDO ROMAN              00945900000010005042017000  080000023044503                     9
Y605571210067058509059CARRERA                    REYES                      AARON                      00945900000010005042017000  080000030145203                     9
Y605571210067129227681CARRERA                    AGUILAR                    ANAYELLI                   00945900000010005042017000  080000030145303                     9
Y605571210005169247193BARRANCA                   HERNANDEZ                  AZAREL                     00945900000010005042017000  080000030145403                     9
Y605571210005149529595GASCA                      CRESPO                     NASAHY ARELY               00945900000010005042017000  080000030145503                     9
