Y605571210002177969983MARTINEZ                   SANCHEZ                    LUIS ALBERTO               00945900000010012062017000  080000001009703                     9
Y605571210096057000869MOSQUEDA                   OCHOA                      LUIS                       00945900000010012062017000  080000009675503                     9
Y605571210026148705515CORTES                     PACHECO                    GABRIELA                   00945900000010012062017000  080000009712403                     9
Y605571210011967409514BENAVIDES                  ALVA                       SANDRA                     00945900000010012062017000  080000009712503                     9
Y605571210049816050006SALINAS                    CANTU                      EUSTORGIO                  00945900000010012062017000  080000019115403                     9
Y605571210062159755362VAZQUEZ                    LOPEZ                      IMELDA                     00945900000010012062017000  080000023047303                     9
Y605571210023008417778ANISTRO                    CARRILLO                   JUAN CRISTOBAL             00945900000010012062017000  080000025016903                     9
