Y605571210009079090867CRUZ                       PEREZ                      ERIC DANIEL                00945900000010010062016000  080000005010103                     9
Y605571210012108908869ONOFRE                     RAMIREZ                    MIGUEL ANGEL               00945900000010010062016000  080000011084203                     9
Y605571210005169576419JIMENEZ                    HERNANDEZ                  AARON MARTIN               00945900000010010062016000  080000016007103                     9
Y605571210003149866331ESQUIVEL                   GONZALEZ                   RAFAEL                     00945900000010010062016000  080000019080403                     9
Y605571210025159518858RESENDIZ                   BREÑA                      FERNANDO                   00945900000010010062016000  080000022045603                     9
