R143868210302156238483LOZA                       GUTIERREZ                  ARMANDO                    00945900000010025112016000  080000014124903                     9
R143868210375129493336RUIZ                       MERCADO                    GUADALUPE YOSELI           00945900000010025112016000  080000014125003                     9
R143868210304048006177JIMENEZ                    ARREOLA                    JOSE DE JESUS              00945900000010025092016000  080000014125103                     9
