Y605571210017856705110HERRERA                    MENDOZA                    GUSTAVO                    00945900000010030032017000  080000009670303                     9
Y605571210028106400170VILLAFAÑA                  AGUIRRE                    SIMON EDUARDO              00945900000010030032017000  080000009692903                     9
Y605571210017169777327CERON                      DURAN                      JUAN LUIS                  00945900000010030032017000  080000009693003                     9
Y605571210006139803529LOREDO                     GONZALEZ                   JOSE DE JESUS              00945900000010030032017000  080000015200703                     9
Y605571210043109309807VAZQUEZ                    ROJAS                      JOSE ANTONIO               00945900000010030032017000  080000019002302                     9
Y605571210047119343771IBARRA                     GARCIA                     JORGE EDUARDO              00945900000010030032017000  080000019106703                     9
Y605571210067937460185PAREDES                    MENDOZA                    JUAN CARLOS                00945900000010030032017000  080000030144803                     9
