Y605571210090068927327MARTINEZ                   AVILES                     BERNARDO DANIEL            00000000000000028112016     020000009039202  2                  9
Y605571210044169556212DURAN                      MEJIA                      LAURA CLAUDIA              00000000000000023112016     020000009653503  2                  9
Y605571210096098604257CASTILLO                   RIVERA                     JUAN FRANCISCO             00000000000000023112016     020000009657703  2                  9
Y605571210096108814722RUIZ                       RAMOS                      LEIDY LAURA                00000000000000023112016     020000009657803  2                  9
Y605571210028096000352JUAREZ                     TORRES                     J JESUS                    00000000000000029112016     020000009661403  2                  9
Y605571210039066800564LOPEZ                      GUAJARDO                   MAGDA LETICIA              00000000000000029112016     020000019091903  2                  9
Y605571210083058704681VAZQUEZ                    MORENO                     BENJAMIN                   00000000000000029112016     020000022053103  2                  9
Y605571210084775904083RODRIGUEZ                  PEREZ                      RENE                       00000000000000026112016     020000023029603  2                  9
Y605571210038149661654PANTI                      CHI                        BRENDA ELIZABETH           00000000000000028112016     020000023037103  2                  9
Y605571210041119335697SANCHEZ                    RAMIREZ                    JUAN RAMON                 00000000000000029112016     020000024004403  2                  9
