D172000910228128500767GONZALEZ                   GALINDO                    FRANSCICO JAVIER           00000000000000021042016     020000017038403  2                  9
D172000910215998117582GOMEZ                      RAMIREZ                    ERWIN                      00000000000000021042016     020000017039403  2                  9
D172000910258259712866DIAZ                       CONSTANTINO                JONATHAN URIEL             00000000000000021042016     020000017042403  2                  9
D172000910215926312099ARIZA                      ROSALES                    MARIO                      00000000000000021042016     020000017044503  2                  9
