Y605571210023058323165ZAMORANO                   HIGUERA                    JORGE ALBERTO              00000000000000030092016     020000019002202  2                  9
Y605571210071067904020SIMUTA                     MAGDALENO                  RIGOBERTO                  00000000000000030092016     020000027043003  2                  9
Y605571210083967104833ALVAREZ                    PINTO                      LORENZO                    00000000000000030092016     020000027055603  2                  9
