A836767410950917207735STILLMAN                   ROBLES                     RAFAEL ANGEL               00000000000000024042017     020000008067203  2                  9
A836767410931806101635BARRAZA                    GARDEA                     HECTOR                     00000000000000024042017     020000008072903  2                  9
A836767410933998298955MARTINEZ                   MEZA                       JOSE LUIS                  00000000000000024042017     020000008073003  2                  9
