Y607431310412068803605LARA                       CAMPOS                     MARIA MILAGROS             00000000000000002062022     020000009016503  2                  9
Y607431310437139203113GONZALEZ                   GONZALEZ                   JORGE                      00000000000000001062022     020000009017003  2                  9
Y607431310405179664171BARRON                     LOPEZ                      JAIME EDUARDO              00000000000000001062022     020000009018703  2                  9
