Y605571210030997908444FLORES                     SILVA                      FRANCISCO                  00000000000000027012017     020000009592403  2                  9
Y605571210028018400821HERNANDEZ                  RAZO                       LUIS ALBERTO               00000000000000028012017     020000009677403  2                  9
Y605571210045129527375JARA                       OSORIO                     BRANDON                    00000000000000029012017     020000009678303  2                  9
Y605571210078916707652RAMIREZ                    CHAVEZ                     MOISES ARMANDO             00000000000000028012017     020000016009103  2                  9
Y605571210002179462631BARRERA                    FLORES                     JUAN                       00000000000000026012017     020000016010103  2                  9
Y605571210043796401396HERNANDEZ                  LOPEZ                      RAMON ELADIO               00000000000000030012017     020000019089703  2                  9
Y605571210043007908627SAUCEDO                    SALAZAR                    HECTOR ANTONIO             00000000000000030012017     020000019099003  2                  9
Y605571210043886445527MARTINEZ                   RENTERIA                   JUAN MANUEL                00000000000000027012017     020000019100303  2                  9
Y605571210043107202830SALMERON                   HERNANDEZ                  MARIA DEL CARMEN           00000000000000027012017     020000019100403  2                  9
Y605571210043796279974ROQUE                      RANGEL                     JESUS                      00000000000000030012017     020000019100803  2                  9
Y605571210082139603060CRUZ                       DIONISIO                   DANIEL                     00000000000000028012017     020000023041703  2                  9
