A482760210306168156872ISIDORO                    HERRERA                    PATRICIA                   00000000000000001062017     020000006005803  2                  9
A482760210317179936335ANDRADE                    MENDOZA                    JOSUE                      00000000000000028052017     020000011099603  2                  9
A482760210314038011269PEÑALOZA                   BAÑUELOS                   GUSTAVO                    00000000000000024052017     020000015210503  2                  9
