Y605571210045088728816MUNGUIA                    SANCHEZ                    JULIO CESAR                00000000000000020062017     020000009043402  2                  9
Y605571210076176300176MORA                       CHAVEZ                     LUIS                       00000000000000020062017     020000009628903  2                  9
Y605571210050169796955SANCHEZ                    DURAN                      GUSTAVO                    00000000000000020062017     020000009629203  2                  9
Y605571210096917247809DENA                       CABRERA                    MANUEL                     00000000000000019062017     020000009690803  2                  9
Y605571210020129405260CASTILLO                   GUTIERREZ                  EDGAR JESUS                00000000000000019062017     020000009695203  2                  9
Y605571210096118723160QUINTERO                   AVELAR                     MARIA DEL CARMEN           00000000000000020062017     020000009701703  2                  9
Y605571210008169860601RESENDIZ                   HERNANDEZ                  BRAYAN NOEL                00000000000000020062017     020000009701803  2                  9
Y605571210027159305302TURBIN                     MORALES                    ISAMAR VIRIDIANA           00000000000000020062017     020000009705603  2                  9
Y605571210001876808567LUNA                       BERMUDEZ                   LUZ MARIA                  00000000000000019062017     020000009713103  2                  9
Y605571210034937204906DELGADO                    CISNEROS                   JOSE ANGEL                 00000000000000020062017     020000019105303  2                  9
Y605571210067089032188DE LA ROSA                 VELAZQUEZ                  RAYMUNDO                   00000000000000019062017     020000019108803  2                  9
Y605571210010139798762RUBIO                      REYES                      ESMERALDA                  00000000000000019062017     020000019109603  2                  9
Y605571210043896665858VILLANUEVA                 JASSO                      MA LETICIA                 00000000000000020062017     020000019113503  2                  9
Y605571210043997006713NUÑEZ                      FAJARDO                    JOSE ANDRES                00000000000000019062017     020000019115603  2                  9
Y605571210065129044395CAGAL                      CRUZ                       ALEJO                      00000000000000020062017     020000019115703  2                  9
Y605571210071138802948LANDA                      REYES                      LUIS                       00000000000000019062017     020000023025703  2                  9
Y605571210008159130064VAZQUEZ                    MORALES                    ESTELA                     00000000000000019062017     020000023036503  2                  9
Y605571210082098506197UC                         CANCHE                     FRANK JOSEPH               00000000000000019062017     020000023040003  2                  9
Y605571210071907049549DIONISIO                   MELGAR                     OFELIA                     00000000000000020062017     020000023040503  2                  9
Y605571210082118918828OBIL                       ZACARIAS                   CRISTIAN                   00000000000000018062017     020000023046303  2                  9
Y605571210065088946432SANCHEZ                    CORTES                     LUIS FERNANDO              00000000000000019062017     020000023046603  2                  9
Y605571210023109346058RODRIGUEZ                  ACOSTA                     JOSE IGNACIO               00000000000000020062017     020000025013803  2                  9
Y605571210023008363824CARDENAS                   CORONEL                    JESUS MANUEL               00000000000000020062017     020000025016103  2                  9
Y605571210023816318721AYON                       BELTRAN                    JESUS LUIS                 00000000000000020062017     020000025016503  2                  9
Y605571210023008417778ANISTRO                    CARRILLO                   JUAN CRISTOBAL             00000000000000020062017     020000025016903  2                  9
Y605571210062169485265GARCIA                     SANDOVAL                   ANTONIO DE JESUS           00000000000000020062017     020000027057703  2                  9
Y605571210009048706262SUAREZ                     AGUIRRE                    JOSE LUIS                  00000000000000019062017     020000030150303  2                  9
