Y605571210096917209445CALDERON                   GARCIA                     JOSE SALVADOR              00000000000000006062017     020000009512703  2                  9
Y605571210050159558316TOSCANO                    MARTINEZ                   ALEJANDRO JONAS            00000000000000006062017     020000009555603  2                  9
Y605571210067906651368GARCIA                     LOPEZ                      ROGER ANTONIO              00000000000000005062017     020000009695703  2                  9
Y605571210001169947940COLIN                      DOMINGUEZ                  ANGEL DANIEL               00000000000000007062017     020000009700603  2                  9
Y605571210003179735828OLIVARES                   HERNANDEZ                  MIGUEL ANGEL               00000000000000005062017     020000009700703  2                  9
Y605571210096108818442CEDILLO                    SOLANO                     ELIZABETH                  00000000000000005062017     020000009708203  2                  9
Y605571210020048412264SANCHEZ                    ARRIETA                    ALONDRA                    00000000000000006062017     020000009709803  2                  9
Y605571210016057907970MEDINA                     GUTIERREZ                  MARGARITA                  00000000000000007062017     020000015199703  2                  9
Y605571210046159436842OLIN                       GARCIA                     ALBERTO                    00000000000000007062017     020000015210103  2                  9
Y605571210026149538691CASTILLO                   BASURTO                    ADRIAN                     00000000000000007062017     020000015210403  2                  9
Y605571210003886908817JIMENEZ                    GOMEZ                      JESUS ALEJANDRO            00000000000000007062017     020000019113103  2                  9
Y605571210065937182700HERNANDEZ                  RAMIREZ                    PASCUAL                    00000000000000007062017     020000030013103  2                  9
Y605571210065126001059SANTIAGO                   SAN JUAN                   DEMETRIO                   00000000000000007062017     020000030013303  2                  9
