Y605571210085149524465SALDAÑA                    SANCHEZ                    JUAN MANUEL                00000000000000019042017     020000009586603  2                  9
Y605571210018169713411TORRES                     HERRERA                    SANTIAGO                   00000000000000019042017     020000009593203  2                  9
Y605571210007866802569VILLEDA                    AGUILAR                    SERGIO                     00000000000000019042017     020000009610703  2                  9
Y605571210028119218924ESPINOSA                   TORRES                     JORGE ALFREDO              00000000000000017042017     020000009692603  2                  9
Y605571210090068416743GALICIA                    VALDES                     FRANCISCO JAVIER           00000000000000017042017     020000015127803  2                  9
Y605571210092977861290BAUTISTA                   CRUZ                       LUCY ESPERANZA             00000000000000019042017     020000015196603  2                  9
Y605571210001058811926GOMEZ                      VALENCIA                   GLORIA IVETTE              00000000000000019042017     020000015197903  2                  9
Y605571210026149728599GONZALEZ                   ESTRADA                    DAVID ALBERTO              00000000000000019042017     020000015202103  2                  9
Y605571210049906935900PEREZ                      TRISTAN                    ANA LAURA                  00000000000000018042017     020000019096303  2                  9
Y605571210043058437013ROBLEDO                    RODRIGUEZ                  BRENDA ELIZABETH           00000000000000019042017     020000019103603  2                  9
Y605571210083118812623RAMIREZ                    ALEJANDRO                  WILSON                     00000000000000017042017     020000019105403  2                  9
Y605571210067089017213TOLEDO                     SOTO                       FREDDY                     00000000000000017042017     020000019106903  2                  9
Y605571210043946109758RIVERA                     TORRES                     JESUS ANTONIO              00000000000000017042017     020000019107303  2                  9
Y605571210020139886749BERNARDO                   GALLEGOS                   JUAN HUMBERTO              00000000000000017042017     020000023031203  2                  9
Y605571210026159539209SANGEADO                   MENDEZ                     JOSE                       00000000000000018042017     020000030124803  2                  9
Y605571210096887301412CUBEIRO                    ESPINDOLA                  MARCOS                     00000000000000018042017     020000030141503  2                  9
