Y462621510962907248884RAMIREZ                    ALMAZAN                    LUIS ALBERTO               00000000000000027122016     020000021148303  2                  9
Y462621510918149775670AVILA                      GARCIA                     SAUL                       00000000000000027122016     020000021155903  2                  9
Y462621510933057704208HERNANDEZ                  OZORIO                     JUAN CARLOS                00000000000000025122016     020000021160703  2                  9
Y462621510948108904771OLIVARES                   AGUILAR                    JESUS MANUEL               00000000000000027122016     020000021161403  2                  9
