Y605571210096119500344CRISTALINAS                MARTINEZ                   IRVING FRANCISCO           00000000000000029052017     020000009508203  2                  9
Y605571210011018501285BEDOLLA                    AQUINO                     JUAN ESTEBAN               00000000000000026052017     020000009703003  2                  9
Y605571210096139435257VILLANUEVA                 MENDEZ                     FEDERICO                   00000000000000028052017     020000009703203  2                  9
Y605571210015038407712HERNANDEZ                  HERNANDEZ                  MARISOL                    00000000000000028052017     020000009707203  2                  9
Y605571210096058107713HERNANDEZ                  JUAREZ                     ADRIANA                    00000000000000027052017     020000009707703  2                  9
Y605571210045089103357GOMEZ                      ALBINO                     YOLANDA INES               00000000000000029052017     020000009708603  2                  9
Y605571210011048521337MONROY                     JUSTO                      MARIO                      00000000000000029052017     020000015203603  2                  9
Y605571210003167818545ROSALES                    DE LA ROSA                 BENITO                     00000000000000024052017     020000015208203  2                  9
Y605571210004169750108DIAZ LEAL                  ZETINA                     BRAYAN SAID                00000000000000029052017     020000015209203  2                  9
Y605571210039907431470SILVA                      RIVERO                     MONICA                     00000000000000029052017     020000015211003  2                  9
Y605571210016078404395GOMEZ                      AVILES                     MARIA DOLORES              00000000000000028052017     020000015211203  2                  9
Y605571210092139503368MARTINEZ                   PINEDA                     HECTOR                     00000000000000028052017     020000015211303  2                  9
Y605571210051996802586AQUINO                     NUÑEZ                      MARIA MAGDALENA            00000000000000026052017     020000022061003  2                  9
Y605571210073159799094CHIMAL                     VAZQUEZ                    YENI KARINA                00000000000000029052017     020000023045903  2                  9
Y605571210008147629458MORENO                     COTA                       OMAR                       00000000000000029052017     020000025003703  2                  9
Y605571210025976508363ROSALES                    IBARRA                     RAUL EDUARDO               00000000000000029052017     020000025016303  2                  9
Y605571210067867055575GARCIA                     MARTINEZ                   MARIANO                    00000000000000028052017     020000027061203  2                  9
Y605571210003179352772HERNANDEZ                  AGUILAR                    JOEL                       00000000000000029052017     020000028041203  2                  9
Y605571210067118302982GARCIA                     ROSAS                      ELSA MARIA                 00000000000000029052017     020000030149803  2                  9
Y605571210084139605038LEAL                       CAAMAL                     JOSE ISRAEL                00000000000000029052017     020000031037503  2                  9
