A836767410902157297272GONZALEZ                   HOLGUIN                    MA DEL CARMEN              00000000000000004102016     020000008057403  2                  9
A836767410967978003282CASTILLO                   GARCIA                     OSVALDO                    00000000000000005102016     020000008058603  2                  9
A836767410965917428651LASCURAIN                  COVARRUBIAS                JOSE LUIS                  00000000000000005102016     020000008060603  2                  9
