Y605571210096028432936CRUZ                       RIVERA                     TOMAS                      00000000000000006082016     020000009529803  2                  9
Y605571210096129012967ACOSTA                     PANTOJA                    ERIKA JACQUELINNE          00000000000000008082016     020000009633003  2                  9
Y605571210020957805771DAVALOS                    GARIBAY                    GISELA                     00000000000000004082016     020000015176503  2                  9
Y605571210001006701633GARCIA                     PADILLA                    MARIA ESTHER               00000000000000008082016     020000015176803  2                  9
Y605571210023129511111MOLINA                     DAVALOS                    VICTOR GUADALUPE           00000000000000010082016     020000025004403  2                  9
Y605571210023139516829RODRIGUEZ                  RODRIGUEZ                  ALBERTO                    00000000000000010082016     020000025004503  2                  9
