Y605571210007887105182TREJO                      DIAZ                       BEATRIZ                    00000000000000018112016     020000015153003  2                  9
Y605571210009998039995MARTINEZ                   BARCENAS                   LUIS ALBERTO               00000000000000018112016     020000019066003  2                  9
Y605571210003159072960MORENO                     ESPINOZA                   SEMEI                      00000000000000018112016     020000019092503  2                  9
Y605571210002167328810RUIZ                       ESQUIVEL                   MA. MAGDALENA              00000000000000018112016     020000019092703  2                  9
Y605571210071926660029CRUZ                       PEREZ                      TILO                       00000000000000017112016     020000022036203  2                  9
Y605571210014119454594ECHEGARAY                  PEREZ                      ALAN MAURICIO              00000000000000017112016     020000022051703  2                  9
Y605571210012048708353VALLEJO                    DUARTE                     MARIO                      00000000000000015112016     020000022052403  2                  9
Y605571210056159520438JACOBO                     JIMENEZ                    CINTHYA MICHEL             00000000000000017112016     020000022052503  2                  9
Y605571210067886615128TORRES                     VAZQUEZ                    CLEMENTE                   00000000000000016112016     020000030107503  2                  9
Y605571210067765716294BAEZ                       PRIETO                     EUSEBIO                    00000000000000016112016     020000030115803  2                  9
Y605571210049968187085GALVAN                     CORONEL                    MIGUEL ANGEL               00000000000000016112016     020000030122703  2                  9
