Y605571210033048626692ALCANTAR                   AVILA                      MARIO                      00000000000000014072016     020000008002102  2                  9
Y605571210096119300232ISLAS                      GODINEZ                    OLDAYR GUILLERMO           00000000000000008072016     020000009511003  2                  9
Y605571210093907200146PADILLA                    TAPIA                      JUAN MANUEL                00000000000000013072016     020000015152403  2                  9
Y605571210035149440659VASQUEZ                    LOPEZ                      NUVIA NAYELI               00000000000000014072016     020000015174203  2                  9
Y605571210023967814775DIAZ                       MIRELES                    JAVIER                     00000000000000008072016     020000025001903  2                  9
