Y462621510948097403884CASTILLO                   PEREZ                      MARIA ANGELICA             00000000000000020022017     020000021049103  2                  9
Y462621510962917320400VAZQUEZ                    LOZANO                     JAVIER                     00000000000000019022017     020000021135603  2                  9
Y462621510948109244995TOME                       SUAREZ                     JUAN ANTONIO               00000000000000020022017     020000021163003  2                  9
Y462621510902177007560SALDAÑA                    PALACIOS                   CARLOS ALBERTO             00000000000000019022017     020000021164403  2                  9
Y462621510948129225735ALVARADO                   LOPEZ                      JONATHAN                   00000000000000019022017     020000021164603  2                  9
