Y605571210048027916138PALACIOS                   MARTINEZ                   MARCO ANTONIO              00000000000000022122016     020000009588703  2                  9
Y605571210096088933542HERNANDEZ                  JACOBO                     GEOVANNY GERARDO           00000000000000022122016     020000009609903  2                  9
Y605571210042906809373OCHOA                      FLORES                     AGUSTIN                    00000000000000026122016     020000009663003  2                  9
Y605571210001957509415ARTEAGA                    MEJIA                      ROBERTO                    00000000000000026122016     020000009670803  2                  9
Y605571210053089110216ALVARADO                   NIETO                      LUIS ARTURO                00000000000000023122016     020000016005803  2                  9
Y605571210003147598860SUAREZ                     FLORES                     GUSTAVO JAVIER             00000000000000023122016     020000016008603  2                  9
Y605571210078916707652RAMIREZ                    CHAVEZ                     MOISES ARMANDO             00000000000000022122016     020000016009103  2                  9
Y605571210053986204195SANCHEZ                    GONZALEZ                   J JESUS                    00000000000000022122016     020000016009603  2                  9
Y605571210056907041711HERNANDEZ                  MEZA                       MOISES                     00000000000000028122016     020000018000703  2                  9
Y605571210004139110789PANIAGUA                   CUEVAS                     DANIEL                     00000000000000028122016     020000019090903  2                  9
Y605571210043028699528CASTILLO                   MARTINEZ                   CARLOS FRANCISCO           00000000000000028122016     020000019097203  2                  9
Y605571210094128910075GARCIA                     LOPEZ                      EDGAR EDUARDO              00000000000000025122016     020000022051803  2                  9
Y605571210084037302589DIAZ                       ALVAREZ                    ROSA MARIA                 00000000000000027122016     020000023038803  2                  9
Y605571210082067702637FRANCO                     ALCOCER                    ISRAEL                     00000000000000023122016     020000023039003  2                  9
Y605571210050169754699RUIZ                       CRUZ                       EZEQUIEL                   00000000000000027122016     020000023040303  2                  9
Y605571210068149550649XOLO                       CASTRO                     ABELARDO                   00000000000000028122016     020000030131603  2                  9
