A836767410933846418516CORRAL                     ARMENDARIZ                 OSCAR                      00000000000000029092016     020000008032303  2                  9
A836767410933846418516CORRAL                     ARMENDARIZ                 OSCAR                      00000000000000029092016     020000008032303  2                  9
A836767410933836671603SANDOVAL                   AVILA                      CECILIA ANTONIA            00000000000000003102016     020000008060003  2                  9
