A836767410919159175470PANIAGUA                   GUADARRAMA                 ANGEL MAURICIO             00000000000000007082017     020000002057903  2                  9
A836767410921068642582AGUILAR                    VITAL                      ESTEBAN IGNACIO            00000000000000007082017     020000002061103  2                  9
A836767410917159767528MORA                       RAMIREZ                    ISSAC CAMILO               00000000000000007082017     020000002061203  2                  9
A836767410907169728495BANDA                      ESCOBAR                    MARIELA                    00000000000000005082017     020000008051203  2                  9
A836767410933068934125MARTINEZ                   ISLAS                      ELIAS ARMANDO              00000000000000005082017     020000008071203  2                  9
A836767410931108910519FRIAS                      CISNEROS                   JOSE GUADALUPE             00000000000000007082017     020000008075403  2                  9
