Y462621510948988310974URSUA                      CASCO                      EDGAR                      00000000000000004082017     020000021110003  2                  9
Y462621510962897027298IBARRA                     LOYOLA                     JUAN CESAR                 00000000000000004082017     020000021133103  2                  9
Y462621510948098936346GUARNEROS                  VAZQUEZ                    BENJAMIN                   00000000000000004082017     020000021157803  2                  9
Y462621510948068518819JUAREZ                     TITLA                      MARISOL                    00000000000000007082017     020000021167203  2                  9
Y462621510948038716261DE LIMA                    HERRERA                    RAFAEL                     00000000000000004082017     020000021169303  2                  9
Y462621510962937566362ROSAS                      CADENA                     ALFREDO                    00000000000000004082017     020000021169403  2                  9
Y462621510948997922231ROMERO                     SANCHEZ                    MIGUEL ANGEL               00000000000000006082017     020000021169703  2                  9
Y462621510910159344133PEREZ                      PORRAS                     LUIS ENRIQUE               00000000000000004082017     020000021170303  2                  9
Y462621510948127800737FLORES                     HERNANDEZ                  PABLO                      00000000000000003082017     020000021171103  2                  9
