R143868210304976901803SORIANO                    FLORES                     JAIME                      00000000000000006092016     020000014100203  2                  9
R143868210304118631144ARMENTA                    AMBRIZ                     JOSE MANUEL                00000000000000005092016     020000014112503  2                  9
R143868210374906608943RAMIREZ                    RIVERA                     MA DE LOS ANGELES          00000000000000005092016     020000014117103  2                  9
R143868210304048577912OLIVEROS                   ZAVALA                     RAFAEL                     00000000000000005092016     020000014120003  2                  9
