Y605571210045947718529MARTINEZ                   ROSAS                      VICTOR ALEJANDRO           00000000000000006062016     020000009614203  2                  9
Y605571210005149293580ORTEGA                     CARRASCO                   JESUS                      00000000000000010062016     020000009619003  2                  9
Y605571210012089176643ALANIS                     BELTRAN                    FROYLAN RICARDO            00000000000000010062016     020000011083703  2                  9
Y605571210004988049476SALVIO                     SANDOVAL                   JOSE RAUL                  00000000000000010062016     020000014001802  2                  9
Y605571210043008130973CORONA                     CAMACHO                    RAMON AMADO                00000000000000010062016     020000019066503  2                  9
Y605571210043937759090RAMIREZ                    MARTIN                     JOSE MANUEL                00000000000000010062016     020000019080003  2                  9
