R143868210339037805577HERNANDEZ                  ANGEL                      JUAN LUIS                  00000000000000004032017     020000014123603  2                  9
R143868210304137400901PEREA                      FROYLAN                    ALBERTO MARTIN             00000000000000004032017     020000014128803  2                  9
R143868210354836544889HERNANDEZ                  TORRES                     LUIS GUILLERMO             00000000000000005032017     020000014129503  2                  9
R143868210354977718136RIVAS                      GONZALEZ                   RODOLFO                    00000000000000004032017     020000014130803  2                  9
