Y607431310428048612940SANCHEZ                    TOVAR                      ROBERTO ANTONIO            00000000000000001082022     020000009017603  2                  9
Y607431310408149395272HERRERA                    MEDINA                     JOSE ANTONIO               00000000000000001082022     020000009021003  2                  9
Y607431310496018111508VAZQUEZ                    GUERRERO                   AVIGAIN                    00000000000000001082022     020000009021103  2                  9
