Y605571210020017907708MARTINEZ                   HERNANDEZ                  LUIS GONZALO               00000000000000009112016     020000009653403  2                  9
Y605571210092008405224HERNANDEZ                  CAMPOS                     FREDY                      00000000000000007112016     020000009655003  2                  9
Y605571210058149601401GALICIA                    PEREZ                      LUIS FERNANDO              00000000000000009112016     020000009655803  2                  9
Y605571210016058502317GARCIA                     RAMIREZ                    RAUL                       00000000000000009112016     020000015185003  2                  9
Y605571210023998182598FELIX                      PARDO                      MARIO GUADALUPE            00000000000000005112016     020000025002003  2                  9
Y605571210009129489861NAJERA                     SANTIAGO                   FRANCISCO                  00000000000000008112016     020000028035903  2                  9
