Y605571210002178656399MORALES                    GOMEZ                      ERASMO                     00000000000000019062017     020000005012603  2                  9
Y605571210037008322382GALICIA                    CASTA—EDA                  JUAN ALFONSO               00000000000000019062017     020000009471703  2                  9
Y605571210010856408645PAZ                        CRUZ                       RAUL                       00000000000000019062017     020000009584503  2                  9
Y605571210005149594474GOMEZ                      TELLEZ                     LUIS MARCOS                00000000000000019062017     020000009585203  2                  9
Y605571210004997624376SERRANO                    CRUZ                       SERGIO GUSTAVO             00000000000000019062017     020000009618003  2                  9
Y605571210096048644452CORTES                     ZARAGOZA                   JOALI YADIRA               00000000000000019062017     020000009653303  2                  9
Y605571210039877024222VAZQUEZ                    LOPEZ                      ALEJANDRO                  00000000000000017062017     020000009667103  2                  9
Y605571210042876904014AGUILAR                    CARDENAS                   LUIS                       00000000000000017062017     020000009670503  2                  9
Y605571210042119623660CISNEROS                   TORRES                     BRANDON NIUZET             00000000000000019062017     020000009696803  2                  9
Y605571210090129503349CHORA                      SUASTEGUI                  HUMBERTO                   00000000000000019062017     020000009699703  2                  9
Y605571210037038401248LOPEZ                      RAMOS                      MARICELA                   00000000000000019062017     020000009700503  2                  9
Y605571210092907050386OLVERA                     TELLEZ                     ROBERTO                    00000000000000019062017     020000015194503  2                  9
Y605571210071058800336PEÒA                       SANCHEZ                    JOSE JUAN                  00000000000000016062017     020000015204903  2                  9
Y605571210016128715816CRUZ                       CRUZ                       MARIA FLOR                 00000000000000019062017     020000015205903  2                  9
Y605571210092139425901MARTINEZ                   BENITEZ                    MOISES LEVI                00000000000000019062017     020000015209703  2                  9
Y605571210011927612082HERNANDEZ                  REYES                      JUAN DE DIOS               00000000000000019062017     020000015210703  2                  9
Y605571210043765848429PEREZ                      EGUIA                      MARIANO                    00000000000000019062017     020000019114503  2                  9
Y605571210067119006806RIBON                      TRONCOSO                   LUIS FELIPE                00000000000000017062017     020000019115503  2                  9
Y605571210017169547167HERNANDEZ                  SUMUANO                    WENDY VERONICA             00000000000000017062017     020000023047403  2                  9
Y605571210009937706647MARTINEZ                   PEDROZA                    MARTIN                     00000000000000018062017     020000028007903  2                  9
Y605571210049867009661GARCIA                     GOMEZ                      NICOLAS                    00000000000000019062017     020000028041603  2                  9
Y605571210065169807925CRUZ                       ESTEVA                     KEVIN ANTONIO              00000000000000018062017     020000030147903  2                  9
Y605571210065947473750DIAZ                       AGOSTO                     DAVID                      00000000000000018062017     020000030148503  2                  9
