A836767410933148600126GARCIA                     BOJORQUEZ                  SONIA EVELIN               00000000000000023052016     020000008001602  2                  9
A836767410933967848004GARCIA                     LOERA                      ARMANDO                    00000000000000024052016     020000008040603  2                  9
A836767410931139419555IBARRA                     YAÒEZ                      JOSE RICARDO               00000000000000024052016     020000008040903  2                  9
A836767410933967729188CHACON                     DURAN                      JORGE ALBERTO              00000000000000024052016     020000008043403  2                  9
A836767410933957493118PATI—O                     PEREZ                      ROSA CLAUDIA               00000000000000024052016     020000008044303  2                  9
A836767410958159607140CERVANTES                  DOMINGUEZ                  LEONARDO ESTEBAN           00000000000000023052016     020000008044603  2                  9
A836767410933947737301HERNANDEZ                  IRACHETA                   FRANCISCO JAVIER           00000000000000024052016     020000008044903  2                  9
A836767410921129428864PE—A                       VAZQUEZ                    JOSE MARIO                 00000000000000026052016     020000008045003  2                  9
A836767410933816082722VILLALBA                   NUÒEZ                      CARMEN GRACIA              00000000000000023052016     020000008045103  2                  9
