Y605571210045028311194ISAIS                      BARRAGAN                   JAVIER                     00000000000000021092016     020000001009003  2                  9
Y605571210096068535242MARTINEZ                   LOPEZ                      YAZMIN GUILLERMINA         00000000000000016092016     020000009037402  2                  9
Y605571210045119226483MENDOZA                    RUIZ                       CHRISTIAN EMMANUEL         00000000000000021092016     020000009644603  2                  9
