Y605571210016129015794PICHARDO                   PEDROZA                    JORGE                      00000000000000031072017     020000015206303  2                  9
Y605571210001866603143RAMIREZ                    ORTIZ                      ANTONIO                    00000000000000029072017     020000015216303  2                  9
Y605571210047977958892CRUZ                       GONZALEZ                   MILTON SANTOS              00000000000000029072017     020000019120603  2                  9
Y605571210043139780407FUNES                      GARCIA                     CESAR JOEL                 00000000000000031072017     020000019120703  2                  9
Y605571210015028211975SANDOVAL                   RODRIGUEZ                  NEPTHALI CARMEN            00000000000000031072017     020000022064003  2                  9
Y605571210067119218088BELLO                      MARTINEZ                   MISAEL                     00000000000000029072017     020000030148803  2                  9
