Y605571210085149524465SALDAÑA                    SANCHEZ                    JUAN MANUEL                00000000000000023052016     020000009586603  2                  9
Y605571210021038242638HERNANDEZ                  CASTRO                     EMILIO DAUDET              00000000000000020052016     020000009591603  2                  9
Y605571210078887308373DEHESA                     MARQUEZ                    ARTURO                     00000000000000020052016     020000009595703  2                  9
Y605571210094068822298CORDOVA                    OLGUIN                     ABRAHAM YEIZHUAN           00000000000000021052016     020000009616903  2                  9
Y605571210007998107796ROJAS                      SANCHEZ                    DANIEL                     00000000000000022052016     020000015173203  2                  9
