A836767410955805500588AVALOS                     BOTELLO                    LEODEGARIO                 00000000000000012122016     020000008005103  2                  9
A836767410903168407181SANCHEZ                    CHAVARRIA                  RAYMUNDO                   00000000000000012122016     020000008049603  2                  9
A836767410931846623424VERDIN                     ZAMORA                     FRANCISCO JAVIER           00000000000000012122016     020000008052603  2                  9
A836767410923866710876SAINZ                      MEDINA                     JOSE ROBERTO               00000000000000012122016     020000008057903  2                  9
A836767410933038517745SAENZ                      ALANIS                     SAMUEL                     00000000000000012122016     020000008060803  2                  9
A836767410933079176898OCHOA                      ARRIETA                    XOCHITL ESMERALDA          00000000000000012122016     020000008065303  2                  9
A836767410933058744880CARBAJAL                   ARANA                      EDGAR                      00000000000000012122016     020000008066103  2                  9
A836767410935988262974SANCHEZ                    CASTILLO                   JUAN CARLOS                00000000000000012122016     020000008066403  2                  9
A836767410933058928384RAMIREZ                    GONZALEZ                   RICARDO IVAN               00000000000000012122016     020000008066803  2                  9
A836767410933098909782RUIZ                       ARMENDARIZ                 JUAN RAMON                 00000000000000012122016     020000008067003  2                  9
A836767410933058967903RICO                       PEINADO                    JOSE ISRAEL                00000000000000012122016     020000008067103  2                  9
