Y605571210013876600084PASTRANA                   SORIA                      RUBEN                      00000000000000016022019     020000009290103  2                  9
Y605571210046169879734PEREZ                      ESCAMILLA                  JOEL YONATAN               00000000000000008022019     020000015245803  2                  9
Y605571210047947556891GUTIERREZ                  PIZANO                     LORENA                     00000000000000008022019     020000019182603  2                  9
Y605571210065836526833RAMIREZ                    SILVA                      JOEL                       00000000000000008022019     020000019184603  2                  9
Y605571210019148758436ARAUJO                     GONZALEZ                   FELIPE DE JESUS            00000000000000004022019     020000023076203  2                  9
Y605571210019149511545RODRIGUEZ                  AVALOS                     HILCIA                     00000000000000001022019     020000023077303  2                  9
Y605571210018189653159GONZALEZ                   PATIÑO                     ANTONY                     00000000000000001022019     020000023078403  2                  9
Y605571210083897300717TORRES                     CORREA                     TOMAS FRANCISCO            00000000000000001022019     020000023078803  2                  9
Y605571210082088960677JUAREZ                     HERNANDEZ                  IVAN ALEXIS                00000000000000001022019     020000023079103  2                  9
Y605571210008159785297LOPEZ                      LARA                       EMANUEL                    00000000000000001022019     020000023079403  2                  9
Y605571210067957750275RODRIGUEZ                  CRUZ                       IRMA                       00000000000000007022019     020000030165203  2                  9
