R143868210305148877284SANCHEZ                    ARIZMENDI                  CHRISTIAN NEFTALI          00000000000000003022017     020000014127303  2                  9
R143868210301896937784ACOSTA                     MEDINA                     RICARDO                    00000000000000003022017     020000014128503  2                  9
R143868210304027521493MARMOLEJO                  SILVA                      JULIO DAMIAN               00000000000000001022017     020000014129603  2                  9
