Y605571210001967902261MORIN                      NUÒEZ                      ANGEL BENJAMIN             00000000000000016062017     020000007001202  2                  9
Y605571210020027703444MORALES                    HERNANDEZ                  VICTOR                     00000000000000016062017     020000009684003  2                  9
Y605571210005179715627CRUZ                       MORENO                     OSCAR RENE SALVADOR        00000000000000016062017     020000009684503  2                  9
Y605571210013079023001CAMPISTRANO                CRISTINO                   JAVIER                     00000000000000016062017     020000013015603  2                  9
Y605571210018169496769SOTO                       GOMEZ                      ANGEL MISAEL               00000000000000016062017     020000013015803  2                  9
Y605571210020099001131CORTES                     RANGEL                     JESUS                      00000000000000016062017     020000015177003  2                  9
Y605571210039927277762RODRIGUEZ                  ACOSTA                     LUCIO                      00000000000000016062017     020000015203103  2                  9
Y605571210003169548363GARCIA                     SOLIS                      JAZMIN                     00000000000000016062017     020000015208503  2                  9
Y605571210092998318874RUIZ                       PACHECO                    JESSICA MARLENE            00000000000000016062017     020000015210303  2                  9
Y605571210047119343771IBARRA                     GARCIA                     JORGE EDUARDO              00000000000000016062017     020000019106703  2                  9
Y605571210023068201906REYES                      HERNANDEZ                  BEATRIZ ADRIANA            00000000000000016062017     020000025015903  2                  9
Y605571210083058002466RUIZ                       OSORIO                     DULCE MARIA                00000000000000016062017     020000027051503  2                  9
Y605571210026149485752ARIZMENDI                  PEDRAZA                    DIEGO ALBERTO              00000000000000016062017     020000027059403  2                  9
Y605571210083109233649PEREZ                      URESTI                     JOSE ANTONIO               00000000000000016062017     020000027059503  2                  9
Y605571210066169546950CORDOVA                    DE LA CRUZ                 LUIS FERNANDO              00000000000000016062017     020000027061503  2                  9
Y605571210067139441389CRUZ                       MARTINEZ                   LEONARDO                   00000000000000016062017     020000030073003  2                  9
Y605571210067138706139JIMENEZ                    OSORIO                     JORGE IVAN                 00000000000000016062017     020000030129903  2                  9
Y605571210065129394717RODRIGUEZ                  MAYO                       DANIEL SEVERINO            00000000000000016062017     020000030136803  2                  9
Y605571210067119260106SOLANO                     RAMIREZ                    CRUZ                       00000000000000016062017     020000030141903  2                  9
Y605571210067028102357TORRES                     ROJAS                      LAURA TEODORA              00000000000000016062017     020000030142703  2                  9
Y605571210072169816641RAMOS                      SORCIA                     JOHANN OSVALDO             00000000000000016062017     020000030143203  2                  9
Y605571210065997610756ALDAZABA                   JIMENEZ                    JESUCITA                   00000000000000016062017     020000030151103  2                  9
