Y605571210064806147886RODRIGUEZ                  RUIZ                       JUAN FRANCISCO             00000000000000006062016     020000009562103  2                  9
Y605571210042078608058MOLINA                     GONZALEZ                   FREDY DANIEL               00000000000000002062016     020000009612303  2                  9
Y605571210090109001777OLVERA                     VILLANUEVA                 PENIEL                     00000000000000001062016     020000009613103  2                  9
Y605571210082079204135ORTIZ                      HERNANDEZ                  ALEXIS GUSTAVO             00000000000000006062016     020000009617703  2                  9
Y605571210012978164197RODRIGUEZ                  ROCHA                      JOSE ROBERTO               00000000000000007062016     020000011072203  2                  9
Y605571210065028429192TOXTEGA                    RODRIGUEZ                  LEIWIS                     00000000000000006062016     020000011082903  2                  9
Y605571210013159766651RAMIREZ                    HERNANDEZ                  OSCAR                      00000000000000001062016     020000015171803  2                  9
Y605571210090119403419ORTIZ                      PARRAS                     GUADALUPE                  00000000000000005062016     020000015172603  2                  9
Y605571210090119419654HERNANDEZ                  RODRIGUEZ                  ANSELMO                    00000000000000001062016     020000015172803  2                  9
Y605571210071139213475ROQUE                      ROQUE                      ZAIN JEOVANY               00000000000000001062016     020000015172903  2                  9
Y605571210043058849688SUAREZ                     PEREZ                      HECTOR MAGDIEL             00000000000000001062016     020000019035603  2                  9
Y605571210008169643296LINDO                      VICHI                      JOSE ANGEL                 00000000000000006062016     020000022038303  2                  9
Y605571210002166826772CATALAN                    TERESA                     ROBERTO                    00000000000000007062016     020000022042203  2                  9
Y605571210031917438819BARRIENTOS                 REYES                      PEDRO                      00000000000000006062016     020000022042903  2                  9
Y605571210067136901120RUIZ                       AMADOR                     RICARDO                    00000000000000007062016     020000022044403  2                  9
Y605571210014109375106DE SANTIAGO                DONDIEGO                   EDUARDO                    00000000000000007062016     020000022044603  2                  9
Y605571210067018215623CASTRO                     PALAYOT                    LORENZO ANTONIO            00000000000000007062016     020000030077303  2                  9
