Y605571210056169731157MORALES                    REYES                      BRENDA VIRIDIANA           00000000000000002072016     020000009622903  2                  9
Y605571210025169576698MENDEZ                     CERVANTES                  ANA LAURA                  00000000000000004072016     020000011000702  2                  9
Y605571210028886510388MARTINEZ                   DIAZ                       MARGARITA                  00000000000000005072016     020000015162703  2                  9
Y605571210004109141178BARRERA                    PALOMINO                   LUIS ALBERTO               00000000000000002072016     020000015170503  2                  9
Y605571210066149585607CALDERON                   HERNANDEZ                  BRYAN EDUARDO              00000000000000004072016     020000015175703  2                  9
Y605571210008149738091NARVAEZ                    MONROY                     JUAN JOSE                  00000000000000001072016     020000015177303  2                  9
Y605571210043887112795MAYO                       SOLIS                      FRANCISCO JAVIER           00000000000000004072016     020000019081703  2                  9
Y605571210094078106658CANALES                    VELAZQUEZ                  IGNACIO                    00000000000000005072016     020000030039603  2                  9
Y605571210084046400283RIVERO                     TOVAR                      LAURA                      00000000000000005072016     020000031024503  2                  9
