Y607431310496947748289DURAN                      CARAZA                     FERNANDO                   00000000000000020092024     020000009033003  2                  9
Y607431310463169917992PEREZ                      VARGAS                     EDER MISAEL                00000000000000020092024     020000009035203  2                  9
Y607431310494068807786OLIVARES                   ANSELMO                    ALINE                      00000000000000020092024     020000009035503  2                  9
