Y605571210050149537644GARDUÒO                    PALOMINO                   BRAYAN                     00000000000000005062017     020000009687503  2                  9
Y605571210005129406236NICOLAS                    PEREZ                      ISRAEL SANTIAGO            00000000000000003062017     020000009692703  2                  9
Y605571210030907332040SANDOVAL                   TREJO                      ALICIA                     00000000000000003062017     020000009699003  2                  9
Y605571210045139444850LUNA                       HERNANDEZ                  RICARDO                    00000000000000003062017     020000009701403  2                  9
Y605571210042946902717MIRANDA                    RENDON                     MARICRUZ                   00000000000000004062017     020000009702403  2                  9
Y605571210008179516078BLAS                       MURUA                      ZHAYRA PATRICIA            00000000000000001062017     020000009702503  2                  9
Y605571210003178936377DOMINGUEZ                  AVILA                      ELIZABETH                  00000000000000004062017     020000009705403  2                  9
Y605571210096129035075MARTINEZ                   RAMIREZ                    NELY                       00000000000000005062017     020000009706203  2                  9
Y605571210007098603553HERRERA                    OROPEZA                    MONSERRAT                  00000000000000005062017     020000009707603  2                  9
Y605571210045139624261LEON                       RANGEL                     EDDY SANTIAGO              00000000000000005062017     020000009708003  2                  9
Y605571210010867017781LUNA                       CHAVEZ                     GUSTAVO                    00000000000000001062017     020000009708903  2                  9
Y605571210092139538752REYNOSO                    LOPEZ                      LUIS DANIEL                00000000000000004062017     020000015135303  2                  9
Y605571210094007200994DE LA ROSA                 OSEGUERA                   HUMBERTO                   00000000000000004062017     020000015187303  2                  9
Y605571210094007302642RODRIGUEZ                  MIRANDA                    SANTOS APOLONIA            00000000000000004062017     020000015198603  2                  9
Y605571210092957673863TORRES                     PE—ALOZA                   JOSE ALBERTO               00000000000000004062017     020000015203903  2                  9
Y605571210020116400175RAMIREZ                    MENDOZA                    HUGO                       00000000000000005062017     020000015209103  2                  9
Y605571210092129229735REYES                      PEREZ                      ERICK EMANUEL              00000000000000004062017     020000015211903  2                  9
Y605571210083118305842LOPEZ                      DE LA CRUZ                 MAGALYS                    00000000000000003062017     020000019101403  2                  9
Y605571210043119535664BAEZ                       MAR                        DAVID DE JESUS             00000000000000004062017     020000019110303  2                  9
Y605571210003877002539TORRES                     LOPEZ                      GREGORIO                   00000000000000005062017     020000019111503  2                  9
Y605571210081997801865NIEVES                     GAMBOA                     MARIA DOLORES              00000000000000003062017     020000019112703  2                  9
Y605571210043099170284JARAMILLO                  HERNANDEZ                  JOSE ENRIQUE               00000000000000005062017     020000019113003  2                  9
Y605571210047139407416DOMINGUEZ                  TIJERINA                   GERARDO GUADALUPE          00000000000000005062017     020000019114103  2                  9
Y605571210043038658464LARA                       DUARTE                     WALTER ELEUTERIO           00000000000000003062017     020000019114403  2                  9
Y605571210064169528938ARENA                      ARIAS                      OBET                       00000000000000005062017     020000019115003  2                  9
Y605571210094917412945BADILLO                    GUTIERREZ                  GUILLERMO                  00000000000000005062017     020000022036603  2                  9
Y605571210045129412438DURAN                      OCHOA                      JONATHAN FERNANDO          00000000000000005062017     020000022060703  2                  9
Y605571210067947791298RAMIREZ                    DOMINGUEZ                  JUAN CARLOS                00000000000000004062017     020000023042903  2                  9
Y605571210059149536092VAZQUEZ                    GALLEGOS                   LEONEL                     00000000000000004062017     020000023045603  2                  9
Y605571210002177854847ANTONIO                    ROSALDO                    KARINA                     00000000000000004062017     020000023046203  2                  9
Y605571210082068937059PALMA                      HERNANDEZ                  RIGOBERTO                  00000000000000004062017     020000023046403  2                  9
Y605571210009109420514ARREOLA                    GONZALEZ                   ISAI ALEJANDRO             00000000000000004062017     020000028039403  2                  9
Y605571210003167405913RODRIGUEZ                  MIER                       J. ACENCION                00000000000000004062017     020000028040403  2                  9
Y605571210009078727535CERDA                      GONZALEZ                   ROGELIO                    00000000000000004062017     020000028041503  2                  9
Y605571210002957971621CASIANO                    GARCIA                     RENE                       00000000000000003062017     020000030132303  2                  9
Y605571210003169478330ZAPOR                      REYES                      FEBE                       00000000000000003062017     020000030145803  2                  9
Y605571210067947986013BALCAZAR                   TORRES                     JORGE                      00000000000000003062017     020000030147703  2                  9
Y605571210067109104876IXMATLAHUA                 LOPEZ                      FRANCISCO JESUS            00000000000000003062017     020000030148103  2                  9
Y605571210058129401046REYES                      TERRONES                   JOSE ANGEL                 00000000000000005062017     020000030148303  2                  9
Y605571210011038608037GOMEZ                      CRUZ                       CELSO                      00000000000000003062017     020000030148603  2                  9
Y605571210057159687672PEÒA                       GONZALEZ                   CARLOS JOAQUIN             00000000000000003062017     020000030148703  2                  9
Y605571210090987000545CHIMEO                     MARTINEZ                   CAMILO                     00000000000000005062017     020000030150003  2                  9
