A836767410954897211139TORRES                     RODRIGUEZ                  VERONICA                   00000000000000004062017     020000002055703  2                  9
A836767410935916907559DOMINGUEZ                  DURAN                      LUIS OTHON                 00000000000000007062017     020000008071103  2                  9
A836767410933109338112DOMINGUEZ                  GONZALEZ                   JOSE LUIS                  00000000000000007062017     020000008072603  2                  9
