Y605571210006785951747OLAYO                      GARCIA                     JOSE DEL REFUGIO           00000000000000014112016     020000002049003  2                  9
Y605571210068927615481AVALOS                     ORDAZ                      MARICELA EMMA              00000000000000011112016     020000009007702  2                  9
Y605571210011906828295SAN ROMAN                  HURTADO                    CLAUDIA ABRIL              00000000000000010112016     020000009033802  2                  9
Y605571210045987904849CONTRERAS                  RUIZ                       JESUS VICTOR               00000000000000009112016     020000009620503  2                  9
Y605571210096129323927PINEDA                     PEREZ                      RAUL MARTIN                00000000000000013112016     020000009628203  2                  9
Y605571210042997805066GONZALEZ                   PEÑA                       EDITH                      00000000000000011112016     020000009642703  2                  9
Y605571210016068401286DOMINGUEZ                  TORRES                     ALMA                       00000000000000014112016     020000015161303  2                  9
Y605571210043139704266AVITU                      RODRIGUEZ                  LUIS ANTONIO               00000000000000012112016     020000019092103  2                  9
Y605571210019149833550LOPEZ                      ALEJANDRO                  LEONEL                     00000000000000012112016     020000019092203  2                  9
Y605571210032109029000VAZQUEZ                                               ZULEYMA                    00000000000000011112016     020000022052603  2                  9
Y605571210049998115270SANCHEZ                    GONZALEZ                   JOSE ANTONIO               00000000000000014112016     020000028036003  2                  9
