Y605571210030056900555PINEDA                     DIAZ                       SERGIO                     00000000000000025082016     020000009618703  2                  9
Y605571210030089002072LOPEZ                      ACATITLA                   IVAN                       00000000000000025082016     020000009623603  2                  9
Y605571210030139609470MIGUEL                     MORALES                    JAZMIN ITZEL               00000000000000025082016     020000009623803  2                  9
Y605571210090017800120SALAZAR                    GARCIA                     GUSTAVO                    00000000000000025082016     020000009629303  2                  9
Y605571210016129500431JUNCO                      LUNA                       JOSE ALBERTO               00000000000000031082016     020000015113703  2                  9
Y605571210092896706949URRUTIA                    SANDOVAL                   ISAAC                      00000000000000028082016     020000015174803  2                  9
Y605571210066159609776CARRILLO                   PEREZ                      CESAR DANI                 00000000000000031082016     020000022047903  2                  9
Y605571210014907242318MENESES                    LOPEZ                      JULIO                      00000000000000031082016     020000022049103  2                  9
Y605571210012917277472SANABRIA                   JIMENEZ                    LUIS MANUEL                00000000000000025082016     020000022049303  2                  9
Y605571210012917277472SANABRIA                   JIMENEZ                    LUIS MANUEL                00000000000000025082016     020000022049303  2                  9
Y605571210027169576843SERVIN                     TREJO                      MARIO ALBERTO              00000000000000025082016     020000022049503  2                  9
Y605571210027169576843SERVIN                     TREJO                      MARIO ALBERTO              00000000000000025082016     020000022049503  2                  9
Y605571210013119227018RODRIGUEZ                  AGUILAR                    ANALLELY                   00000000000000031082016     020000022049603  2                  9
Y605571210067077605870DELFIN                     ESCOBAR                    JOAQUIN                    00000000000000025082016     020000030115903  2                  9
Y605571210065058521546ZAYAS                      BARRIENTOS                 JAIR                       00000000000000025082016     020000030120903  2                  9
