Y605571210028138703641CAMARENA                   FLORES                     YAHIR ADOLFO               00000000000000002122016     020000009623203  2                  9
Y605571210042119516484MEDINA                     ZENDEJAS                   MARISOL                    00000000000000002122016     020000009629703  2                  9
Y605571210045129321779BAUTISTA                   GARRIDO                    LORENZO JOVANNI            00000000000000002122016     020000009662103  2                  9
Y605571210001038703359HERNANDEZ                  GONZALEZ                   ALFREDO                    00000000000000001122016     020000015171103  2                  9
Y605571210007007404077LLAMAS                     MUÒOZ                      FRANCISCO JAVIER           00000000000000001122016     020000015177803  2                  9
Y605571210021896011877GONZALEZ                   MEZA                       ALEJANDRO                  00000000000000002122016     020000025008903  2                  9
Y605571210049897356306ORTIZ                      VELAZQUEZ                  IRINEO                     00000000000000002122016     020000028023203  2                  9
