Z064567510827149546064COBIAN                     GARCIA                     CRISTIAN DANIEL            00000000000000020062017     020000011092703  2                  9
Z064567510862149649352OLIVARES                   HERNANDEZ                  DANIEL                     00000000000000020062017     020000011095803  2                  9
Z064567510890936504159ALVAREZ                    LOPEZ                      JOSE ALFREDO               00000000000000020062017     020000011096203  2                  9
Z064567510810149744632ANDRADE                    MENDOZA                    GERARDO FRANCISCO          00000000000000020062017     020000011097503  2                  9
Z064567510812056102036PEREZ                      ZARZA                      MARTIN                     00000000000000020062017     020000011097803  2                  9
Z064567510812079067307DELGADO                    SANCHEZ                    CARLOS ALFREDO             00000000000000020062017     020000011098803  2                  9
Z064567510812129262015ORTEGA                     FLORES                     FRANCISCO                  00000000000000020062017     020000011099503  2                  9
Z064567510812987868614PRADO                      VARGAS                     PEDRO                      00000000000000020062017     020000011099803  2                  9
Z064567510812977243786GUERRA                     HERNANDEZ                  MA DEL CARMEN              00000000000000020062017     020000011100403  2                  9
