Y605571210056159556549MARTINEZ                   MAYEN                      ADRIAN                     00000000000000027052016     020000009568903  2                  9
Y605571210090099202450ROJO                       LOBATO                     JORGE CARLOS               00000000000000026052016     020000009590003  2                  9
Y605571210096099170274TREJO                      MENDOZA                    JOSE EDUARDO               00000000000000026052016     020000009590903  2                  9
Y605571210067048423338HERNANDEZ                  JIMENEZ                    MIGUEL ANGEL               00000000000000024052016     020000009597003  2                  9
Y605571210042018320947NAVARRETE                  GALEANA                    XAVIER                     00000000000000025052016     020000009615203  2                  9
Y605571210008169380493CRUZ                       SALVADOR                   AGUSTIN                    00000000000000024052016     020000014112903  2                  9
Y605571210075967500705ESTRADA                    VELASCO                    JOSE ANGEL                 00000000000000024052016     020000014113003  2                  9
Y605571210092906949547SOLANO                     RIVERO                     GERMAN                     00000000000000026052016     020000015084203  2                  9
Y605571210007907247634BARRAGAN                   ARELLANO                   JORGE ARTURO               00000000000000024052016     020000015168403  2                  9
Y605571210016917011286GUZMAN                     AYALA                      LUZ MARIA                  00000000000000024052016     020000015172003  2                  9
Y605571210047129526126CRUZ                       MUÑIZ                      JOSE MANUEL HIBRAN         00000000000000024052016     020000019047603  2                  9
Y605571210041987934837GARCIA                     SANCHEZ                    RICARDO                    00000000000000025052016     020000019078803  2                  9
Y605571210026149461670BAZAN                      DELGADO                    LUIS EDUARDO               00000000000000030052016     020000028026103  2                  9
Y605571210009126800946FLORES                     SANTANA                    VICTOR MANUEL              00000000000000025052016     020000028029503  2                  9
Y605571210067137301916REYES                      MENDEZ                     JOSE MARGARITO             00000000000000024052016     020000030093603  2                  9
Y605571210045917332673RODRIGUEZ                  MATIAS                     EFREN                      00000000000000024052016     020000030108003  2                  9
Y605571210067906524052CARICIO                    HERNANDEZ                  SANTIAGO                   00000000000000024052016     020000030110803  2                  9
Y605571210067108606459SANCHEZ                    GONZALEZ                   ISIDORO                    00000000000000024052016     020000030111903  2                  9
