Y607431310498119323594GALINDO                    LOPEZ                      ANGELICA                   00000000000000013012024     020000009015403  2                  9
Y607431310402178114449DE LA CRUZ                 DE LA CRUZ                 ADALBERTO                  00000000000000013012024     020000009029503  2                  9
Y607431310496119101242ALEMAN                     GARCIA                     JOSE MANUEL                00000000000000013012024     020000009029703  2                  9
Y607431310446149393467SANTIAGO                   RAMIREZ                    JUAN CARLOS                00000000000000016012024     020000009030203  2                  9
Y607431310438170008197GARCIA                     QUINTANA                   LILIANA                    00000000000000016012024     020000009031303  2                  9
