Z064567510812947882028GONZALEZ                   CALDERON                   JUAN GERARDO               00000000000000025082017     020000011040703  2                  9
Z064567510806806149941NARANJO                    PAZ                        MARTIN                     00000000000000025082017     020000011097003  2                  9
Z064567510863988112775VELAZQUEZ                  RETANA                     DANIEL                     00000000000000025082017     020000011099003  2                  9
Z064567510853986605854NAVARRO                    MARTINEZ                   PABLO                      00000000000000026082017     020000011103303  2                  9
