R143868210375129337442HERNANDEZ                  QUIRINO                    JAVIER                     00000000000000016092016     020000014112203  2                  9
R143868210335149647006FLORES                     LEYVA                      DALIA VANESSA              00000000000000019092016     020000014112603  2                  9
R143868210304917482343RODRIGUEZ                  RODRIGUEZ                  HELIODORO                  00000000000000019092016     020000014119303  2                  9
R143868210303149304291RIVERA                     ORTIZ                      CRUZ GERMAN                00000000000000015092016     020000014120303  2                  9
R143868210304068796814HERNANDEZ                  NAZARIO                    JORGE ALBERTO              00000000000000019092016     020000014120503  2                  9
