D691959010178108600327MONJARAZ                   SANCHEZ                    FERMIN                     00000000000000003122016     020000020027003  2                  9
D691959010138169531043HERNANDEZ                  PEREZ                      BLANCA FLOR                00000000000000005122016     020000020027403  2                  9
D691959010178139529743CRUZ                       GARCIA                     GUADALUPE                  00000000000000001122016     020000020028303  2                  9
