Y605571210051856405983LUCERO                     REYES                      MARIA GRACIELA             00000000000000013072016     020000001006703  2                  9
Y605571210045937806565BOTELLO                    ESPINOSA                   ROSALIO                    00000000000000011072016     020000009601103  2                  9
Y605571210075866514864VERA                       AVALOS                     GRACIELA EDIT              00000000000000012072016     020000009607803  2                  9
Y605571210016129251670MONDRAGON                  ALCANTARA                  LEONEL                     00000000000000013072016     020000015120303  2                  9
Y605571210018856701257BERMUDEZ                   ESTRELLA                   AURELIO                    00000000000000007072016     020000015177903  2                  9
Y605571210053089110216ALVARADO                   NIETO                      LUIS ARTURO                00000000000000013072016     020000016005803  2                  9
Y605571210022018402523SEPULVEDA                  GRAJALES                   SAYED ELI ENOCH            00000000000000007072016     020000023029503  2                  9
Y605571210088856606707VAZQUEZ                    CHAVEZ                     MARIA DE LOS ANGELES       00000000000000007072016     020000023029903  2                  9
