Y462621510967038800370JIMENEZ                    VICENTE                    HIRAM                      00000000000000025042017     020000021165903  2                  9
Y462621510948109135896CABALLERO                  MEDEL                      ARMANDO                    00000000000000019042017     020000021166203  2                  9
Y462621510992129471444BAUTISTA                   VELAZQUEZ                  ISRAEL                     00000000000000019042017     020000021167603  2                  9
Y462621510919745632554VILLAFUERTE                ZAVALA                     JOSE ALFREDO               00000000000000019042017     020000021167803  2                  9
