A836767410933937686708RAMOS                      BUSTAMANTE                 RAUL ARTURO                00000000000000013072016     020000008037403  2                  9
A836767410933937686708RAMOS                      BUSTAMANTE                 RAUL ARTURO                00000000000000013072016     020000008037403  2                  9
A836767410933119302173CONTRERAS                  HERNANDEZ                  JESUS                      00000000000000013072016     020000008048203  2                  9
A836767410933119302173CONTRERAS                  HERNANDEZ                  JESUS                      00000000000000013072016     020000008048203  2                  9
A836767410935978188288MATA                       CHAPARRO                   OSCAR                      00000000000000013072016     020000008048803  2                  9
A836767410935978188288MATA                       CHAPARRO                   OSCAR                      00000000000000013072016     020000008048803  2                  9
A836767410944149308486ENRIQUEZ                   CISNEROS                   MIGUEL ANGEL               00000000000000013072016     020000008049903  2                  9
