Y605571210062826123796SOSA                       DIAZ                       MARIA TERESA               00000000000000002022017     020000002045703  2                  9
Y605571210006785951747OLAYO                      GARCIA                     JOSE DEL REFUGIO           00000000000000002022017     020000002049003  2                  9
Y605571210011735664069SANTIAGO                   GARCIA                     MANUEL                     00000000000000003022017     020000009040902  2                  9
Y605571210045139522960SICILIANO                  MARTINEZ                   BENY REY                   00000000000000001022017     020000009617003  2                  9
Y605571210020987506621JUAREZ                     CESMA                      JOSE LUIS                  00000000000000003022017     020000009654803  2                  9
Y605571210045896902553ORTEGA                     GONZALEZ                   JORGE LUIS                 00000000000000003022017     020000009658603  2                  9
Y605571210072078623872TORRES                     MORALES                    ABRAHAM                    00000000000000001022017     020000012004403  2                  9
Y605571210072089008618ABARCA                     BEDOLLA                    LUIS ANTONIO               00000000000000001022017     020000012011403  2                  9
Y605571210072836002740AYALA                      CRUZ                       SALOMON                    00000000000000001022017     020000012011603  2                  9
Y605571210072887037785FLORES                     CEBRERO                    ROMAN                      00000000000000001022017     020000012011703  2                  9
Y605571210005139423718HERNANDEZ                  GODOY                      JONATHAN                   00000000000000002022017     020000016010003  2                  9
Y605571210004149607378MELCHOR                    LARES                      JEAN PAUL BALTAZAR         00000000000000001022017     020000018001003  2                  9
Y605571210043109309807VAZQUEZ                    ROJAS                      JOSE ANTONIO               00000000000000003022017     020000019002302  2                  9
Y605571210026159731178PALACIOS                   CASTRO                     ESTEFANIE MICHELLE         00000000000000003022017     020000019002502  2                  9
Y605571210047998122262SALAZAR                    GARZA                      MIGUEL ANGEL               00000000000000003022017     020000019086503  2                  9
Y605571210033058833667GARCIA                     PEREYRA                    JESUS                      00000000000000003022017     020000019099103  2                  9
Y605571210043937552818NAJERA                     SALAZAR                    MATIAS                     00000000000000003022017     020000019099503  2                  9
Y605571210014785800476PEREZ                      BUSTAMANTE                 ROBERTO                    00000000000000001022017     020000022038503  2                  9
Y605571210014967609687GARCIA                     GUERRERO                   REYNA                      00000000000000003022017     020000022055903  2                  9
Y605571210082007928904PEÑA                       ROSADO                     ANGEL MIGUEL               00000000000000001022017     020000023013803  2                  9
Y605571210002179708264CRUZ                       MARTINEZ                   LUIS MIGUEL                00000000000000002022017     020000023041203  2                  9
Y605571210082078972211CORDOVA                    VENTURA                    CARLOS ENRIQUE             00000000000000001022017     020000023041403  2                  9
Y605571210067068421303LANDERO                    PRIETO                     LUIS ALBERTO               00000000000000003022017     020000025007003  2                  9
Y605571210023076904418GARCIA                     MEDINA                     JUANA                      00000000000000003022017     020000025010203  2                  9
Y605571210002169076482PEREZ                      CHABLE                     ADRIAN                     00000000000000003022017     020000027052503  2                  9
Y605571210083038205981ASTUDILLO                  FELIX                      JOSE ANTONIO               00000000000000003022017     020000027053203  2                  9
Y605571210018159034745SOTO                       PAVON                      ERNESTO                    00000000000000003022017     020000030096403  2                  9
Y605571210067977950855BARTOLO                    PEREZ                      JUAN ANTONIO               00000000000000003022017     020000030117403  2                  9
Y605571210026149498912ESTEBAN                    PEREZ                      JESUS                      00000000000000003022017     020000030123303  2                  9
Y605571210050159762645DAMIAN                     DOMINGUEZ                  ELIHU                      00000000000000003022017     020000030126603  2                  9
Y605571210065139420320MEDINA                     HERNANDEZ                  MIGUEL ANGEL               00000000000000003022017     020000030131803  2                  9
