A482760210365046702109MARTINEZ                   CRUZ                       ADELFO                     00000000000000001062016     020000015166103  2                  9
A482760210365046702109MARTINEZ                   CRUZ                       ADELFO                     00000000000000001062016     020000015166103  2                  9
A482760210365046702109MARTINEZ                   CRUZ                       ADELFO                     00000000000000001062016     020000015166103  2                  9
A482760210315988301311ALCANTARA                  CUEVAS                     SERGIO RAUL                00000000000000018062016     020000015169703  2                  9
