Y607431310494119651555OLVERA                     ORIHUELA                   MARIA FERNANDA             00000000000000028042022     020000009000902  2                  9
Y607431310404906693488MARTINEZ                   PALAFOX                    LUIS FERNANDO              00000000000000028042022     020000009001402  2                  9
Y607431310420077900064SUAREZ                     SECUNDINO                  MARTHA RUBI                00000000000000026042022     020000009012303  2                  9
