Y607431310494109043631MENDOZA                    VIZUET                     ALMA DELIA                 00000000000000001032023     020000009019603  2                  9
Y607431310414160260288HERNANDEZ                  TREJO                      ANDRI                      00000000000000001032023     020000009025103  2                  9
Y607431310403209546690FLORES                     CERVANTES                  JESUS                      00000000000000001032023     020000009025703  2                  9
Y607431310405169833455MONTES                     ROJAS                      MARIA GUADALUPE            00000000000000001032023     020000009025803  2                  9
