Y702574710196997302011ZUÑIGA                     TORRES                     EFREN                      00000000000000010012017     020000031033903  2                  9
Y702574710184906816230MEDINA                     PELL                       MIRIAM YOLANDA             00000000000000010012017     020000031034003  2                  9
Y702574710183866002401LOPEZ                      MORALES                    JOSE LUIS                  00000000000000010012017     020000031034103  2                  9
