R143868210325149155860ALVAREZ                    MORALES                    DIEGO                      00000000000000027112016     020000014002302  2                  9
R143868210304028737585HERNANDEZ                  VILLARRUEL                 ISRAEL                     00000000000000025112016     020000014085003  2                  9
R143868210343028606739CARREON                    COLUNGA                    HUGO ABIEZER               00000000000000026112016     020000014124303  2                  9
