Y605571210050149425501DELFIN                     MENDEZ                     ISMAEL                     00000000000000001062016     020000007009203  2                  9
Y605571210012129169954VEGA                       SOTO                       FRANCISCO MIGUEL           00000000000000031052016     020000011082403  2                  9
Y605571210016907014902VEGA                       MARIN                      SERGIO                     00000000000000001062016     020000015111603  2                  9
Y605571210016129125213DE LA LUZ                  BERNAL                     ULISES                     00000000000000001062016     020000015123003  2                  9
Y605571210016806303521RODRIGUEZ                  VILCHIS                    ISAAC                      00000000000000001062016     020000015124903  2                  9
Y605571210016048718007VALDEZ                     BERNABE                    GERMAN                     00000000000000001062016     020000015132503  2                  9
Y605571210025159563656MARTINEZ                   SANCHEZ                    ARTURO RAFAEL              00000000000000001062016     020000015133203  2                  9
Y605571210016058612199SANCHEZ                    GONZALEZ                   MARTIN                     00000000000000001062016     020000015133703  2                  9
Y605571210016027707260BENITEZ                    MARIN                      LETICIA                    00000000000000001062016     020000015134703  2                  9
Y605571210071099303506CORDERO                    AGUIRRE                    JOSE DANIEL                00000000000000001062016     020000015142103  2                  9
Y605571210016856200643DE LA CRUZ                 MARTINEZ                   SALVADOR                   00000000000000001062016     020000015143803  2                  9
Y605571210021048837393MORALES                    MARTINEZ                   GUSTAVO ITIEL              00000000000000001062016     020000015144303  2                  9
Y605571210016107702124CRUZ                       LOPEZ                      JOSE ANTONIO               00000000000000001062016     020000015146503  2                  9
Y605571210003159753262MONROY                     REYES                      BRIAN                      00000000000000031052016     020000015154103  2                  9
Y605571210002156050870GOMEZ                      GARCIA                     JOSE LUIS                  00000000000000001062016     020000015158303  2                  9
Y605571210013099100565TOVAR                      SOLORZANO                  JESSICA LUCIA              00000000000000001062016     020000015160403  2                  9
Y605571210016038415721CRUZ                       DIOSDADO                   JUAN MARIO                 00000000000000001062016     020000015161903  2                  9
Y605571210016028537062CANALES                    GARCIA                     ERIKA                      00000000000000001062016     020000015162203  2                  9
Y605571210065046702109MARTINEZ                   CRUZ                       ADELFO                     00000000000000001062016     020000015166103  2                  9
Y605571210016138400185LOPEZ                      VEGA                       AZUCENA                    00000000000000001062016     020000015168003  2                  9
Y605571210017149503850TINOCO                     CRECENCIO                  JESUS                      00000000000000001062016     020000015169303  2                  9
Y605571210015988301311ALCANTARA                  CUEVAS                     SERGIO RAUL                00000000000000001062016     020000015169703  2                  9
Y605571210015988301311ALCANTARA                  CUEVAS                     SERGIO RAUL                00000000000000001062016     020000015169703  2                  9
Y605571210016077605521JIMENEZ                    MARTINEZ                   CECILIA                    00000000000000001062016     020000015170303  2                  9
Y605571210016088966276VALDES                     OCHOA                      ADRIANA                    00000000000000001062016     020000015170403  2                  9
Y605571210016057605020GARCIA                     SANCHEZ                    ARTURO                     00000000000000001062016     020000015172303  2                  9
Y605571210016048552612CABALLERO                  SAUCEDO                    MARIA NANCY                00000000000000001062016     020000015173003  2                  9
Y605571210053057606542SALAZAR                    ROSALES                    ISRAEL                     00000000000000001062016     020000015173103  2                  9
Y605571210041097900801ANTONIO                    MARTINEZ                   HELADIO                    00000000000000001062016     020000019078903  2                  9
Y605571210065139111457SOLIS                      GAPI                       ANTONIO                    00000000000000001062016     020000022038103  2                  9
Y605571210058139404527VICHI                      MACARIO                    LORENZO ANTONIO            00000000000000001062016     020000022038603  2                  9
Y605571210065978168865PALAYOT                    GOXCON                     FRANCISCO JAVIER           00000000000000001062016     020000022044203  2                  9
Y605571210061057100077DEL ANGEL                  DEL ANGEL                  GRACIANO                   00000000000000001062016     020000025002203  2                  9
Y605571210083109152021MAGAÑA                     DE DIOS                    ROBERTO                    00000000000000001062016     020000027051603  2                  9
Y605571210083129342164VILCHIS                    RAMOS                      JOSE ANGEL                 00000000000000001062016     020000027054503  2                  9
Y605571210065097503554MARTINEZ                   SILVEYRA                   ENRIQUE FROYLAN            00000000000000001062016     020000030035903  2                  9
Y605571210065129425925BAUTISTA                   ROMERO                     IVAN                       00000000000000001062016     020000030116303  2                  9
