Y605571210028089015011IGNACIO                    MORALES                    ANDRES CARLOS              00000000000000006122016     020000009651403  2                  9
Y605571210092129421308GARCIA                     RIVERA                     JESUS                      00000000000000009122016     020000009659003  2                  9
Y605571210030028004403ARZATE                     PAREDES                    MOISES EDUARDO             00000000000000009122016     020000009665803  2                  9
Y605571210012048765643VELAZQUEZ                  MARTINEZ                   KARLA VIRIDIANA            00000000000000009122016     020000011001202  2                  9
Y605571210094129113935ZUÒIGA                     GALVEZ                     MIRIAM                     00000000000000006122016     020000015180803  2                  9
Y605571210007987103434GASCA                      RABAGO                     ANGEL GILDARDO             00000000000000009122016     020000015186403  2                  9
Y605571210082118817145RODRIGUEZ                  ORTIZ                      MARIELA INES               00000000000000008122016     020000023037603  2                  9
Y605571210021088401670ROSALES                    SANCHEZ                    MANUEL                     00000000000000009122016     020000025010703  2                  9
Y605571210065047203172LOPEZ                      REYES                      ROSA VIRGINIA              00000000000000009122016     020000030127503  2                  9
