A836767410933007405278HERNANDEZ                  RENTERIA                   JOSE ANGEL                 00000000000000006072016     020000008009203  2                  9
A836767410923008575914PAYAN                      AYALA                      JESUS MANUEL               00000000000000011072016     020000008049103  2                  9
A836767410933119382670LUJAN                      MARTINEZ                   ANDRES IGNACIO             00000000000000011072016     020000008049503  2                  9
