Y462621510948119420403GALAN                      ROMERO                     EDUARDO                    00000000000000011012017     020000021150203  2                  9
Y462621510918169208578GUZMAN                     ESTUDILLO                  EDGAR LIN                  00000000000000009012017     020000021151403  2                  9
Y462621510903168665234VALENCIA                   SAN MARTIN                 JOHNATTAN                  00000000000000009012017     020000021152503  2                  9
Y462621510983028310676ALEGRIA                    MAR                        ADOLFO                     00000000000000010012017     020000021154603  2                  9
Y462621510945038300062CABRERA                    RAMIREZ                    VICENTE                    00000000000000010012017     020000021158203  2                  9
Y462621510925159806428GOMEZ                      VARELA                     JOSE                       00000000000000009012017     020000021162303  2                  9
