R143868210304897216406NEGRETE                    RIVERA                     ALFONSO                    00000000000000027032017     020000014122803  2                  9
R143868210375937423707PAREDES                    JUAREZ                     ANGEL                      00000000000000027032017     020000014130103  2                  9
R143868210304108114101CARVAJAL                   TORRES                     CRUZ                       00000000000000026032017     020000014131103  2                  9
