Y462621510948097402761GONZALEZ                   TORRES                     ROGELIO                    00000000000000029092016     020000021127503  2                  9
Y462621510926159163919HERNANDEZ                  LIRA                       ROBERTO                    00000000000000028092016     020000021153803  2                  9
Y462621510903149467916DOMINGUEZ                  JASSO                      OCTAVIO                    00000000000000028092016     020000021154803  2                  9
