Y605571210045139821743CASTRO                     BERMUDEZ                   NADIA NAOMI                00000000000000028082017     020000009727403  2                  9
Y605571210002179221391MOLINA                     BALDERAS                   ANAI MARISOL               00000000000000025082017     020000028000102  2                  9
Y605571210065138824340RAMIREZ                    VITE                       IVAN OTHONIEL              00000000000000022082017     020000030038503  2                  9
