A836767410933048848916ESPINO                     LOPEZ                      CRISTIAN                   00000000000000022122016     020000008066003  2                  9
A836767410933129309101SOTO                       ACOSTA                     TANIA SELENE               00000000000000022122016     020000008067803  2                  9
A836767410933068965202VALENCIANA                 MOLINA                     CLARIBEL                   00000000000000022122016     020000008067903  2                  9
