Y605571210042907011037ROSAS                      HERNANDEZ                  CARLOS                     00000000000000005012017     020000009624703  2                  9
Y605571210043725513881RODRIGUEZ                  DELGADO                    ALEJO                      00000000000000011012017     020000019072803  2                  9
Y605571210003897318865ROCHA                      RUVALCABA                  ROSENDO                    00000000000000011012017     020000019088803  2                  9
Y605571210047089153879BOLAÒOS                    ARRIAGA                    CESAR ANTONIO              00000000000000011012017     020000019095903  2                  9
Y605571210081988009098ZAPATA                     LOPEZ                      PABLO                      00000000000000010012017     020000023037303  2                  9
Y605571210067018503572RAMOS                      GONZALEZ                   FELIX                      00000000000000011012017     020000023037503  2                  9
Y605571210015988209456ALOR                       MARTINEZ                   CRISTIAN                   00000000000000008012017     020000023038903  2                  9
Y605571210082007615246 UICAB                     PETUL                      JOSE ARMANDO               00000000000000011012017     020000023040803  2                  9
Y605571210023796007252CUEVAS                     AGUILAR                    ISMAEL                     00000000000000011012017     020000025011503  2                  9
Y605571210049927420882NUÒEZ                      DELGADO                    GUILLERMO ALEJANDRO        00000000000000011012017     020000028030503  2                  9
Y605571210065856614121GONZALEZ                   JUAREZ                     MOISES                     00000000000000011012017     020000030128803  2                  9
Y605571210013007711610SANDOVAL                   SANCHEZ                    LIDIA                      00000000000000011012017     020000030131103  2                  9
Y605571210058169719679SAUCEDO                    ACU—A                      RAUL                       00000000000000011012017     020000032000903  2                  9
