Y462621510953038446976PALACIOS                   TOBON                      HUGO SILVESTRE             00000000000000021032017     020000021163703  2                  9
Y462621510984159732167CHAZARI                    BARROSO                    VERONICA                   00000000000000019032017     020000021166103  2                  9
Y462621510948109025600PEREZ                      ANDRADE                    ERICK                      00000000000000020032017     020000021166703  2                  9
