Y605571210003149558094DOMINGUEZ                  GARCIA                     JUAN CARLOS                00000000000000030112016     020000009467803  2                  9
Y605571210012776011525BARAJAS                    LOZA                       VALENTIN                   00000000000000030112016     020000011052703  2                  9
Y605571210027149680814RODRIGUEZ                  MONZON                     CARLOS DANIEL              00000000000000030112016     020000011070503  2                  9
Y605571210045917482049GUZMAN                     RAMIREZ                    MIRIAM ELIZABETH           00000000000000030112016     020000011076203  2                  9
Y605571210012836545173ALVAREZ                    LEDEZMA                    GUILLERMO                  00000000000000030112016     020000011076603  2                  9
Y605571210012038680075MUÒOZ                      RODRIGUEZ                  DIEGO                      00000000000000030112016     020000011079903  2                  9
Y605571210012967930020CHIMAL                     HERNANDEZ                  GILDARDO                   00000000000000030112016     020000011081003  2                  9
Y605571210001867106880GARCIA                     SALGADO                    JESUS EDUARDO              00000000000000030112016     020000011083303  2                  9
Y605571210053988021985HERNANDEZ                  LUGO                       JORGE                      00000000000000030112016     020000011084803  2                  9
Y605571210012109116314ROSILES                    JIMENEZ                    JOAQUIN MISAEL             00000000000000030112016     020000011085803  2                  9
Y605571210012877301841GUZMAN                     SANCHEZ                    JUAN PABLO                 00000000000000030112016     020000011086303  2                  9
Y605571210012826007614CASTILLO                   NEGRETE                    RICARDO                    00000000000000030112016     020000011086903  2                  9
Y605571210012068800999TORRES                     MACIAS                     JUAN MANUEL                00000000000000030112016     020000011087303  2                  9
Y605571210015109136026CARDENAS                   GOMEZ                      ANDRES                     00000000000000030112016     020000011087403  2                  9
Y605571210022169853789CRUZ                       PAXTIAN                    MARIA ALEJANDRA            00000000000000030112016     020000011087703  2                  9
Y605571210065028018995MALDONADO                  DURAN                      JOSE LUIS                  00000000000000030112016     020000011087803  2                  9
Y605571210065947750595CATEMAXCA                  MONTIEL                    RAFAEL                     00000000000000030112016     020000011088103  2                  9
Y605571210013169775577MARCIAL                    VELASCO                    CRESCENCIO NARCISO         00000000000000030112016     020000011088603  2                  9
Y605571210004139846747GUTIERREZ                  CHIMAL                     MISSAEL                    00000000000000030112016     020000011089903  2                  9
Y605571210007169636078TORRES                     BAXIN                      LUIS                       00000000000000030112016     020000011090003  2                  9
Y605571210012118600951MORENO                     GALICIA                    ROSA MARIA                 00000000000000030112016     020000011090103  2                  9
Y605571210037947533826ALVAREZ                    CHAVEZ                     MIGUEL ANGEL               00000000000000030112016     020000011090203  2                  9
Y605571210009078891794DEANTES                    RODRIGUEZ                  HECTOR DANIEL              00000000000000030112016     020000011090703  2                  9
Y605571210025149237031GUERRERO                   MACIAS                     LUIS GUILLERMO             00000000000000030112016     020000011090903  2                  9
Y605571210002167090006CRISTOBAL                  CRUZ                       GERMAN                     00000000000000030112016     020000011091003  2                  9
Y605571210012886769848ROMO                       RODRIGUEZ                  JULIO CESAR                00000000000000030112016     020000011091103  2                  9
Y605571210005169009643GILES                      RAMIREZ                    JOSE ANTONIO               00000000000000030112016     020000011091203  2                  9
Y605571210012957833861MENDOZA                    JUAREZ                     JOSE CARMEN                00000000000000030112016     020000011091303  2                  9
Y605571210063129334163CRUZ                       TORRES                     DIEGO ARTURO               00000000000000030112016     020000011091403  2                  9
Y605571210067018215623CASTRO                     PALAYOT                    LORENZO ANTONIO            00000000000000030112016     020000030077303  2                  9
Y605571210065129240852MAZABA                     ALEMAN                     EDGAR                      00000000000000030112016     020000030089903  2                  9
