Y607431310445088832873TORRES                     DE LUCIO                   JUAN CARLOS                00000000000000013012023     020000009017203  2                  9
Y607431310494139416914HERNANDEZ                  ZARAGOZA                   RICARDO                    00000000000000013012023     020000009020403  2                  9
Y607431310418149578066COSMES                     HERNANDEZ                  JOSE LUIS                  00000000000000013012023     020000009021703  2                  9
Y607431310496079005656ROJAS                      CRUZ                       REYNA PATRICIA             00000000000000013012023     020000009023703  2                  9
Y607431310408158606809JIMENEZ                    GONZALEZ                   MIGUEL                     00000000000000013012023     020000009024703  2                  9
