Y462621510902157058351ISIDORO                    MIRANDA                    CLEMENTE                   00000000000000018062017     020000021118703  2                  9
Y462621510948088833818RAMIREZ                    SANTAMARIA                 JESUS ELIN                 00000000000000020062017     020000021163303  2                  9
Y462621510962977563733MONTIEL                    RIVERA                     ANA LAURA                  00000000000000021062017     020000021166403  2                  9
Y462621510948028218898REYES                      SOTO                       GILBERTO                   00000000000000018062017     020000021168703  2                  9
