Y605571210027148993846MACIAS                     DEL BOSQUE                 FERNANDO JAHAZIEL          00000000000000016102016     020000005010703  2                  9
Y605571210032078878363BARRERA                    RENTERIA                   ANTUAN DE JESUS            00000000000000016102016     020000005011303  2                  9
Y605571210014129118957GUADARRAMA                 GRACIDA                    HECTOR LEONCIO             00000000000000013102016     020000009037302  2                  9
Y605571210075129443679RENTERIA                   HERNANDEZ                  CAROLINA                   00000000000000015102016     020000011001002  2                  9
Y605571210043896882693CASIANO                    GONZALEZ                   SAMUEL                     00000000000000017102016     020000019085403  2                  9
Y605571210071108930448BAUTISTA                   LOPEZ                      RUBEN                      00000000000000017102016     020000019089103  2                  9
Y605571210043028487635GARCIA                     DELGADO                    JOSE FRANCISCO             00000000000000017102016     020000019089303  2                  9
Y605571210071937434844GURRION                    GARCIA                     ANTONIO ADOLFO             00000000000000017102016     020000020025803  2                  9
Y605571210065129135417MORALES                    RIVERA                     FRANCISCO                  00000000000000015102016     020000022051003  2                  9
Y605571210023907312328GARCIA                     SALAZAR                    CORIN ALBERTO              00000000000000015102016     020000025003303  2                  9
Y605571210065119239153GOXCON                     AMBROSIO                   JAIRO ALEJANDRO            00000000000000015102016     020000030089803  2                  9
Y605571210065047200418GOXCON                     MEDINA                     SANDRO                     00000000000000013102016     020000030090103  2                  9
Y605571210067008502436RAMIREZ                    MORALES                    LUIS ANGEL                 00000000000000017102016     020000030101903  2                  9
Y605571210050159773576CRUZ                       MARTINEZ                   HECTOR MANUEL              00000000000000017102016     020000030109603  2                  9
