Y605571210096119117339CHAVEZ                     LOPEZ                      DULCE VIRIDIANA            00000000000000027072017     020000009679503  2                  9
Y605571210003917537536TELLEZ                     CASTRO                     CLEMENTE                   00000000000000027072017     020000019120103  2                  9
Y605571210067907264377VALDIVIESO                 MELCHOR                    LEONARDO                   00000000000000027072017     020000030054803  2                  9
