Y605571210037977605635MENDOZA                    HERNANDEZ                  JESUS                      00000000000000004052016     020000009036402  2                  9
Y605571210042997713708ROCHA                      SALVADOR                   SONIA                      00000000000000005052016     020000009578703  2                  9
Y605571210003148316502YAUTENTZI                  PEREZ                      ELIZABETH                  00000000000000005052016     020000009592703  2                  9
Y605571210071138915179ENCINO                     GUZMAN                     GLORIA MARGARITA           00000000000000004052016     020000009595403  2                  9
Y605571210042917430466GUTIERREZ                  CORNEJO                    JOSE GABINO                00000000000000005052016     020000009607403  2                  9
Y605571210092139442088CAMPOS                     FLORES                     KARLA ADRIANA              00000000000000005052016     020000015001502  2                  9
Y605571210014038322773PAES                       CORTES                     MANUEL                     00000000000000003052016     020000022036503  2                  9
Y605571210058129303960PEREZ                      TEOBA                      JOSE FRANCISCO             00000000000000001052016     020000022041003  2                  9
Y605571210008149719075NAVARRO                    MONDRAGON                  JOSE ALEXIS                00000000000000001052016     020000022041503  2                  9
Y605571210063129410955ROQUE                      ROJAS                      MARIA JOSE                 00000000000000002052016     020000022042103  2                  9
Y605571210096937009858MENDOZA                    ESCOBEDO                   VERONICA                   00000000000000001052016     020000022042303  2                  9
Y605571210071089010624RODRIGUEZ                  GOMEZ                      ALDO IVAN                  00000000000000005052016     020000027054203  2                  9
