Y605571210082068603768CRUZ                       MALPICA                    JUAN CARLOS                00000000000000021102016     020000004008303  2                  9
Y605571210049876534154CASTRO                     MUÑOZ                      MELITON ARMANDO            00000000000000021102016     020000004008603  2                  9
Y605571210012017108841TORRES                     RAMOS                      MARIA OFELIA DEL PUEBLITO  00000000000000017102016     020000011087203  2                  9
Y605571210006856531923VILLENA                    DIAZ                       ENRIQUE                    00000000000000021102016     020000019088603  2                  9
Y605571210094927208374RAMOS                      PEREZ                      FELIX ALFREDO              00000000000000020102016     020000023028003  2                  9
Y605571210071078809127LAZARO                     CAMACHO                    LUIS ALBERTO               00000000000000020102016     020000023028603  2                  9
Y605571210004078957109GALINDO                    VALLS                      EDER ANTONIO               00000000000000020102016     020000023032603  2                  9
Y605571210071139511290MATEO                      RAMIREZ                    SAMUEL                     00000000000000020102016     020000023033003  2                  9
Y605571210019169610961PEREZ                      GUTIERREZ                  LILIANA                    00000000000000020102016     020000023034703  2                  9
Y605571210025169394548MORALES                    VELAZQUEZ                  DORA ALICIA                00000000000000020102016     020000023035003  2                  9
Y605571210019169759552CHUNAB                     TUN                        RUSSEL RODOLFO             00000000000000020102016     020000023035103  2                  9
Y605571210049169611875ASCENCIO                   ARCOS                      GUILLERMO                  00000000000000020102016     020000023035503  2                  9
Y605571210060149523817MORA                       JIMENEZ                    CARLOS VALENTIN            00000000000000021102016     020000023035703  2                  9
Y605571210072917335423RUIZ                       CHEGUE                     SANTOS                     00000000000000021102016     020000023036003  2                  9
Y605571210083997906710DE LA CRUZ                 MENDEZ                     MARIO                      00000000000000020102016     020000023036303  2                  9
Y605571210025149331495OY                         CANCHE                     BERNARDINO REMIGIO         00000000000000020102016     020000023036703  2                  9
