Y605571210096098810276CRUZ                       BALBUENA                   GONZALO                    00000000000000024102016     020000009038802  2                  9
Y605571210096088932718REYES                      PEREZ                      YOSELIN                    00000000000000021102016     020000009619903  2                  9
Y605571210096058638253ANDRADE                    ZERMEÒO                    MELISA ALEJANDRA           00000000000000018102016     020000009649703  2                  9
Y605571210005158676568MAYO                       HERNANDEZ                  VIVIANA                    00000000000000024102016     020000011085203  2                  9
Y605571210012118600951MORENO                     GALICIA                    ROSA MARIA                 00000000000000022102016     020000011090103  2                  9
Y605571210016897102667DE LA VEGA                 GUERRERO                   JOSE LUIS                  00000000000000022102016     020000015136403  2                  9
Y605571210039047802960PONCE                      CAMPUZANO                  MERCEDES ALEJANDRA         00000000000000024102016     020000015179503  2                  9
Y605571210032927478274CORTES                     PLASCENCIA                 ANDRES                     00000000000000024102016     020000019080903  2                  9
Y605571210043016704546PIÒA                       GUEVARA                    EDNA MARCELA               00000000000000024102016     020000019088903  2                  9
Y605571210043079001830VENEGAS                    MENDOZA                    JESUS                      00000000000000022102016     020000019089903  2                  9
Y605571210023795818105VAZQUEZ                    LOPEZ                      ALBERTO                    00000000000000024102016     020000025008303  2                  9
Y605571210071098807895GOMEZ                      GOMEZ                      JOSE FERNANDO              00000000000000022102016     020000027058303  2                  9
Y605571210067118718054RAMOS                      GONZALEZ                   VIVIANA                    00000000000000024102016     020000030075303  2                  9
