A836767410917169180639HERRERA                    GONZALEZ                   RAQUEL                     00000000000000005052017     020000002053303  2                  9
A836767410965149409776OLGUIN                     ARROY                      ISELA MONSERRAT            00000000000000005052017     020000002053503  2                  9
A836767410933967610420CHAVEZ                     SEGUEDA                    MANUEL                     00000000000000005052017     020000008073103  2                  9
