Y605571210010169205050CRUZ                       GOMEZ                      MARIA CANDELARIA           00000000000000001112016     020000007016103  2                  9
Y605571210045018515549MORALES                    GONZALEZ                   ALICIA                     00000000000000001112016     020000009034002  2                  9
Y605571210096109272854RAMIREZ                    ROSAS                      GISELA                     00000000000000001112016     020000009040202  2                  9
Y605571210096078609920ORTIZ                      CUEVAS                     DORIAN LUIS                00000000000000001112016     020000009614703  2                  9
Y605571210045967011342CORTES                     NERIA                      ANGELINA                   00000000000000001112016     020000009629903  2                  9
Y605571210005159722155GUZMAN                     GARCIA                     MARIA ELISA                00000000000000001112016     020000011072703  2                  9
Y605571210013169775577MARCIAL                    VELASCO                    CRESCENCIO NARCISO         00000000000000001112016     020000011088603  2                  9
Y605571210003967830872CARDENAS                   LOPEZ                      JAVIER                     00000000000000001112016     020000019085503  2                  9
Y605571210067988041223HERNANDEZ                  HERNANDEZ                  MARIA ISABEL               00000000000000001112016     020000019086203  2                  9
Y605571210008158961790ROBLE                      CAMPOS                     MARIA CRISTINA             00000000000000001112016     020000027051203  2                  9
Y605571210083038401952LOPEZ                      DE DIOS                    HUGO ALBERTO               00000000000000001112016     020000027057203  2                  9
Y605571210067977710119LOZANO                     MORENO                     JOSE                       00000000000000001112016     020000030118503  2                  9
Y605571210065078709642NORIEGA                    MORALES                    ALAN                       00000000000000001112016     020000030122503  2                  9
Y605571210065139313384ROSAS                      OLIVERA                    ALEXIS                     00000000000000001112016     020000030122603  2                  9
Y605571210065088534147TEOBA                      HERRERA                    PABLO DE JESUS             00000000000000001112016     020000030124203  2                  9
Y605571210065139230828AMBROS                     CHIGO                      GILBERTO IVAN              00000000000000001112016     020000030124303  2                  9
Y605571210065129339316COTO                       MACARIO                    OCTAVIO                    00000000000000001112016     020000030124403  2                  9
