Y605571210071077808849RAMIREZ                    ALFARO                     MARICELIA                  00000000000000001062017     020000007014703  2                  9
Y605571210071107600257DE LA CRUZ                 GARCIA                     MINERVA DEL CARMEN         00000000000000001062017     020000007014803  2                  9
Y605571210038149350803GOMEZ                      SANTIZ                     EMILIANO                   00000000000000001062017     020000007014903  2                  9
Y605571210071836407826HERNANDEZ                  GOMEZ                      MARCELINO                  00000000000000001062017     020000007018103  2                  9
Y605571210092129126311ORTEGA                     ORTEGA                     JORGE                      00000000000000031052017     020000009622103  2                  9
Y605571210045109247051MIRANDA                    VALENCIA                   JORGE                      00000000000000028052017     020000009678203  2                  9
Y605571210094129200062BALANZAR                   ZARAZUA                    EDGAR MICHEL               00000000000000001062017     020000009701503  2                  9
Y605571210092068744876LOPEZ                      REYES                      JANET                      00000000000000001062017     020000015103803  2                  9
Y605571210071058310302CRUZ                       GOMEZ                      ESTEBAN JONATHAN           00000000000000001062017     020000023035803  2                  9
Y605571210046159721128RODRIGUEZ                  PEREZ                      CESAR                      00000000000000001062017     020000027050303  2                  9
Y605571210025169791180PEREGRINO                  CASTILLO                   CARLOS MARIO               00000000000000001062017     020000027053803  2                  9
Y605571210083048304691PALACIO                    GARCIA                     ADAN                       00000000000000001062017     020000027055903  2                  9
Y605571210038149590127LOPEZ                      FALCON                     JORGE                      00000000000000001062017     020000027061003  2                  9
