Y605571210081139314462ZUÑIGA                     LOPEZ                      LUIS ALFREDO               00000000000000019012017     020000004010103  2                  9
Y605571210071057000219GOMEZ                      RAMIREZ                    ELIZABETH                  00000000000000019012017     020000007007203  2                  9
Y605571210020008314609CRUZ                       GARCIA                     MARIA DEL CARMEN           00000000000000018012017     020000009584203  2                  9
Y605571210011167960514VASQUEZ                    MARTINEZ                   ALEJANDRA                  00000000000000013012017     020000009666303  2                  9
Y605571210013139002896SIMON                      SIMON                      JOAN                       00000000000000013012017     020000009669903  2                  9
Y605571210017856705110HERRERA                    MENDOZA                    GUSTAVO                    00000000000000019012017     020000009670303  2                  9
Y605571210094127502089MONCLOVA                   MONTES                     ARACELI DEL PILAR          00000000000000019012017     020000015183703  2                  9
Y605571210002179318205CADENA                     HERNANDEZ                  IVETT                      00000000000000018012017     020000015188103  2                  9
Y605571210047068959734CORONEL                    ESPINOZA                   ANDRES ALEJANDRO           00000000000000018012017     020000019099203  2                  9
Y605571210059149469021PEREGRINO                  CASTILLO                   DANIEL ENRIQUE             00000000000000019012017     020000027047103  2                  9
Y605571210004067815300GUTIERREZ                  GOMEZ                      FRANCISCO JAVIER           00000000000000019012017     020000027054803  2                  9
Y605571210083078928203BOLAINA                    ESTRADA                    MARCOS ADOLFO              00000000000000019012017     020000027059203  2                  9
Y605571210067907300379GUERRERO                   BARRADAS                   JESUS EDUARDO              00000000000000019012017     020000030127603  2                  9
Y605571210067886852036MOTA                       ZALDIVAR                   MOISES                     00000000000000019012017     020000030131303  2                  9
