R143868210304139102828MONTES                     CASILLAS                   DAVID EMMANUEL             00000000000000001012017     020000014002402  2                  9
R143868210396139221111ROSALES                    RODRIGUEZ                  ALMA ROSA                  00000000000000004012017     020000014002902  2                  9
R143868210312947917519RIOS                       PAREDES                    BERTHA EBELY               00000000000000001012017     020000014124803  2                  9
