Y605571210025149525104DELGADO                    CANELA                     ABRAHAM                    00000000000000027072016     020000002045203  2                  9
Y605571210021018488482RIOS                       RUIZ                       ALEJANDRO                  00000000000000026072016     020000002049103  2                  9
Y605571210094038536739NIETO                      RAMIREZ                    IVAN GIOVANNI              00000000000000027072016     020000009038302  2                  9
Y605571210096058715044AGUILAR                    CAÑAS                      ALFREDO                    00000000000000021072016     020000009624903  2                  9
Y605571210096129323927PINEDA                     PEREZ                      RAUL MARTIN                00000000000000025072016     020000009628203  2                  9
Y605571210092129237043DELGADO                    SANCHEZ                    VERONICA                   00000000000000025072016     020000015170103  2                  9
Y605571210002168493381CALIXTO                    MENDOZA                    ARISANDI                   00000000000000024072016     020000015178103  2                  9
Y605571210010159759652GARZA                      ALVIZO                     VICTOR EDUARDO             00000000000000026072016     020000019081503  2                  9
Y605571210043927220145SANTOS                     AYALA                      JOSE LUIS                  00000000000000021072016     020000019082903  2                  9
Y605571210007998210285REYES                      VALENCIA                   JUAN                       00000000000000027072016     020000030117303  2                  9
