Y605571210094077905654MIRANDA                    DE JESUS                   HONORIO                    00000000000000003012017     020000009357103  2                  9
Y605571210007856701730LOPEZ                      REYES                      JOSE ARTURO                00000000000000002012017     020000009585503  2                  9
Y605571210004169734870ARELLANO                   ESCARCEGA                  IRANI                      00000000000000002012017     020000009658703  2                  9
Y605571210023897228344GARCIA                     GAMEZ                      RAUL ENRIQUE               00000000000000003012017     020000009660003  2                  9
Y605571210042129201531RAMIREZ                    OCAMPO                     MARCO ANTONIO              00000000000000003012017     020000009669303  2                  9
Y605571210058159785318BERNAL                     FLORES                     JUAN JESUS                 00000000000000003012017     020000009672503  2                  9
Y605571210002157705282HERNANDEZ                  RAMOS                      ADRIANA ARACELI            00000000000000003012017     020000019091003  2                  9
Y605571210003149118261GONZALEZ                   CARDENAS                   ERIK ALEJANDRO             00000000000000003012017     020000019094503  2                  9
Y605571210003158651814GONZALEZ                   FLORES                     SILVINA                    00000000000000003012017     020000019095303  2                  9
Y605571210047998332473GARAY                      RODRIGUEZ                  NORMA YADIRA               00000000000000001012017     020000019097503  2                  9
Y605571210021907365668SOTO                       VERDUGO                    JOSEFINA                   00000000000000003012017     020000025006703  2                  9
Y605571210023058932833ARMENTA                    QUIROA                     JOSE EFRAIN                00000000000000003012017     020000025010103  2                  9
Y605571210061129110674GOMEZ                      LOEZA                      JOSE LUIS                  00000000000000001012017     020000029005203  2                  9
Y605571210048089103997MEJIA                      GONZALEZ                   JOSE ENRIQUE               00000000000000001012017     020000029006003  2                  9
