A836767410933058965147RAMOS                      PEÒA                       FELIPE DE JESUS            00000000000000021022017     020000008056903  2                  9
A836767410933886562454MENDEZ                     PEÒA                       JOSE SALVADOR              00000000000000021022017     020000008069703  2                  9
A836767410933129383221RIOS                       PEREZ                      EDUARDO IVAN               00000000000000021022017     020000008069803  2                  9
A836767410933845831453NAVARRETE                  TARIN                      ESTEVAN                    00000000000000021022017     020000008070103  2                  9
