Y702574710126169649626SOSA                       POOT                       ANGEL MATEO                00000000000000017042017     020000031033803  2                  9
Y702574710184128919648PEREZ                      FUENTES                    RICARDO ANTONIO            00000000000000017042017     020000031035503  2                  9
Y702574710171786107384CHANDOMY                   VICENTE                    JULIO CESAR                00000000000000017042017     020000031036203  2                  9
Y702574710184988010462CHACON                     BASULTO                    MARIA CONCEPCION           00000000000000017042017     020000031036503  2                  9
