Y605571210081906701321VIDAL                      CABALLERO                  LUIS ALFONSO               00000000000000004072017     020000004007703  2                  9
Y605571210007826508389PINZON                     VALLEJO                    RAYMUNDO SHINNE            00000000000000004072017     020000009625303  2                  9
Y605571210005129301098CRUZ                       CRUZ                       JOSE                       00000000000000004072017     020000009655903  2                  9
Y605571210072917403361MARINA                     PINEDA                     ENRIQUE                    00000000000000004072017     020000009679403  2                  9
Y605571210042977813866HERNANDEZ                  GARCIA                     FREDY                      00000000000000004072017     020000009712803  2                  9
Y605571210092927408853FRIAS                      GOMEZ                      RICARDO                    00000000000000004072017     020000015209503  2                  9
Y605571210094038530112RODRIGUEZ                  HERNANDEZ                  JACINTO                    00000000000000004072017     020000015213103  2                  9
Y605571210049746000287ESPARZA                    RODRIGUEZ                  RAFAEL                     00000000000000003072017     020000028038303  2                  9
Y605571210009109312810SOLANO                     GONZALEZ                   JORDY RAMSES               00000000000000003072017     020000028040303  2                  9
Y605571210003147938629ANE                        CASTILLO                   CARLOS ALBERTO             00000000000000004072017     020000030057703  2                  9
Y605571210067118900116BAEZA                      MORALES                    PABLO                      00000000000000004072017     020000030141203  2                  9
