Y605571210094088705812HERNANDEZ                  CORTES                     MIRIAM TRINIDAD            00000000000000026072017     020000015213803  2                  9
Y605571210018149511620ORTEGA                     GONZALEZ                   YAHIR ALEJANDRO            00000000000000025072017     020000015215003  2                  9
Y605571210045997715425CAMARGO                    ISLAS                      MARIA JOSEFINA             00000000000000023072017     020000015215303  2                  9
Y605571210043099337859DUARTE                     GARCIA                     FLORENCIA                  00000000000000025072017     020000019116303  2                  9
Y605571210002169714603PALACIOS                   DIAZ                       ALONDRA                    00000000000000026072017     020000022064403  2                  9
Y605571210010179440895ZACARIAS                   CORTEZ                     XIOMARA JACQUELINE         00000000000000026072017     020000022064603  2                  9
Y605571210067128813291GERONIMO                   ROJAS                      SANTIAGO DE JESUS          00000000000000024072017     020000030001702  2                  9
