Y605571210078058714037SANTOS                     PEREZ                      MARCO ANTONIO              00000000000000030062016     020000020007303  2                  9
Y605571210078138304189FIGUEROA                   REYES                      CRISTINO                   00000000000000030062016     020000020009603  2                  9
Y605571210021896624612PACHECO                    BORJA                      ARGIMIRO EVELIO            00000000000000030062016     020000020011003  2                  9
Y605571210078038802019MONRAGA                    SANCHEZ                    FELIPE DE JESUS            00000000000000030062016     020000020011303  2                  9
Y605571210078977682430CRUZ                       ALBERTO                    SABEL                      00000000000000030062016     020000020015703  2                  9
Y605571210078107901213RUIZ                       LOPES                      TOMAS                      00000000000000030062016     020000020015803  2                  9
Y605571210035149478535MORALES                    HERNANDEZ                  GREGORIO NICOLAS           00000000000000030062016     020000020017603  2                  9
Y605571210078008235752MORALES                    RUIZ                       HUMBERTO                   00000000000000030062016     020000020018803  2                  9
Y605571210078128200827DIAZ                       RAMIREZ                    REYNALDO                   00000000000000030062016     020000020019503  2                  9
Y605571210078107000735PIMENTEL                   HERNANDEZ                  JAIME                      00000000000000030062016     020000020019903  2                  9
Y605571210078957709484CRUZ                       CRUZ                       JESUS ANTONIO              00000000000000030062016     020000020021303  2                  9
Y605571210078017106507RODRIGUEZ                  CARREON                    RAFAEL ELEAZAR             00000000000000030062016     020000020021903  2                  9
Y605571210078028401632JIMENEZ                    DIAZ                       NOE                        00000000000000030062016     020000020022003  2                  9
Y605571210078139310425LOPEZ                      MARTINEZ                   MARCO ANTONIO              00000000000000030062016     020000020022103  2                  9
Y605571210078856504127ZARATE                     MENDEZ                     JORGE                      00000000000000030062016     020000020022203  2                  9
Y605571210078907409706CRUZ                       LOPEZ                      VICTOR HUGO                00000000000000030062016     020000020022303  2                  9
Y605571210071988026770RODAS                      CARDENAS                   MARCO POLO                 00000000000000030062016     020000020022503  2                  9
Y605571210072947748181MORALES                    GUATEMALA                  HUGO                       00000000000000030062016     020000020022903  2                  9
Y605571210078088417403PEREZ                      MORENO                     ADALBERTO                  00000000000000030062016     020000020023103  2                  9
Y605571210078139333690VAZQUEZ                    GALLEGOS                   FRANCISCO JAVIER           00000000000000030062016     020000020023203  2                  9
Y605571210078906601618ROSAS                      LOPEZ                      REYNALDO                   00000000000000030062016     020000020023303  2                  9
Y605571210078129240624MARTINEZ                   GARNICA                    GUILLERMO                  00000000000000030062016     020000020023603  2                  9
Y605571210078108807286CUEVAS                     MILATO                     RUBEN                      00000000000000030062016     020000020023803  2                  9
Y605571210078129230872MONTES                     VAZQUEZ                    GUILLERMO ENRIQUE          00000000000000030062016     020000020023903  2                  9
Y605571210078866718808FABIAN                     HERNANDEZ                  JULIAN                     00000000000000030062016     020000020024003  2                  9
Y605571210003169341876ROJAS                      ROJAS                      JESUS ALBERTO              00000000000000030062016     020000020024103  2                  9
Y605571210078866706563BOHORQUEZ                  RODRIGUEZ                  GABINO                     00000000000000030062016     020000020024203  2                  9
Y605571210003169037987RAMIREZ                    JUAREZ                     JUAN JOSE                  00000000000000030062016     020000020024403  2                  9
Y605571210078078506611GONZALES                   SANTOS                     SADOT                      00000000000000030062016     020000020024803  2                  9
Y605571210078109003141GUZMAN                     SANTAELLA                  JOSE ANTONIO               00000000000000030062016     020000020025003  2                  9
Y605571210010836439769JUAREZ                     DE LOS SANTOS              JULIO CESAR                00000000000000030062016     020000020025203  2                  9
Y605571210078906921768VAZQUEZ                    LOPEZ                      JAVIER                     00000000000000030062016     020000020025303  2                  9
