Y605571210051886706921SUAREZ                     RODRIGUEZ                  MARIA RAMONA               00000000000000020092016     020000001007303  2                  9
Y605571210083109117222DE LA CRUZ                 HERNANDEZ                  SERGIO                     00000000000000021092016     020000004007903  2                  9
Y605571210050149488384RODRIGUEZ                  MARTINEZ                   ERNESTO                    00000000000000016092016     020000009642903  2                  9
Y605571210092068738365TENA                       HERNANDEZ                  ANGEL HIRAM                00000000000000015092016     020000015163003  2                  9
Y605571210094129334150RODRIGUEZ                  DE LA CRUZ                 OSCAR                      00000000000000021092016     020000015180903  2                  9
Y605571210094129334150RODRIGUEZ                  DE LA CRUZ                 OSCAR                      00000000000000021092016     020000015180903  2                  9
Y605571210019169701679CALDERON                   CORONEL                    JAVIER                     00000000000000015092016     020000023031103  2                  9
Y605571210083816134551OLAN                       AGUILAR                    ELEODORO                   00000000000000016092016     020000027049303  2                  9
Y605571210083816134551OLAN                       AGUILAR                    ELEODORO                   00000000000000016092016     020000027049303  2                  9
Y605571210067836606219HERNANDEZ                  CAMPOS                     CARLOS ROBERTO             00000000000000016092016     020000027055103  2                  9
Y605571210067836606219HERNANDEZ                  CAMPOS                     CARLOS ROBERTO             00000000000000016092016     020000027055103  2                  9
Y605571210083927412813RODRIGUEZ                  MORENO                     ANTONIO                    00000000000000016092016     020000027055803  2                  9
Y605571210083927412813RODRIGUEZ                  MORENO                     ANTONIO                    00000000000000016092016     020000027055803  2                  9
Y605571210067099044207HERNANDEZ                  VARELA                     ARELY                      00000000000000020092016     020000030125203  2                  9
