Y605571210045118607790ORTIZ                      ARENAS                     GIOVANNI                   00000000000000001092016     020000009615103  2                  9
Y605571210057159672435ARRIAGA                    PE—A                       WILLIAN EDUARDO            00000000000000002092016     020000011087503  2                  9
Y605571210022169853789CRUZ                       PAXTIAN                    MARIA ALEJANDRA            00000000000000001092016     020000011087703  2                  9
Y605571210078987906365SANCHEZ                    XALA                       ROBERTO CARLOS             00000000000000001092016     020000011088003  2                  9
Y605571210054149537364CRUZ                       PAXTIAN                    LUIS DANIEL                00000000000000001092016     020000011088203  2                  9
Y605571210065109005135CRUZ                       PAXTIAN                    JESUS                      00000000000000001092016     020000011088303  2                  9
Y605571210020048512840RAMOS                      LUNA                       JOSE                       00000000000000001092016     020000015092803  2                  9
Y605571210016028537062CANALES                    GARCIA                     ERIKA                      00000000000000002092016     020000015162203  2                  9
Y605571210005168804622LUGO                       VILLEGAS                   SANDRA                     00000000000000002092016     020000015179903  2                  9
Y605571210016028302616BARRON                     GIL                        OMAR                       00000000000000002092016     020000015180203  2                  9
Y605571210003149694311HERNANDEZ                  HERNANDEZ                  SALATIEL                   00000000000000002092016     020000019083003  2                  9
Y605571210008169026062GONZALEZ                   RIVERA                     ROSA                       00000000000000001092016     020000030119903  2                  9
Y605571210065038615152DE LA CRUZ                 SOTO                       RICARDO MANUEL             00000000000000002092016     020000030120703  2                  9
Y605571210065129702729AVENDAÒO                   FLORES                     CARLOS ALBERTO             00000000000000002092016     020000030122403  2                  9
