A836767410933139370820CUEVAS                     SALAS                      LORENZO ERNESTO            00000000000000030112016     020000008033403  2                  9
A836767410933957987176MENDOZA                    BARRON                     MARIA ISABEL               00000000000000030112016     020000008051803  2                  9
A836767410933078913093DE LA TORRE                QUINTERO                   GERARDO                    00000000000000030112016     020000008052803  2                  9
A836767410933007803464SANCHEZ                    CHAVARRIA                  VICTOR HUGO                00000000000000030112016     020000008065203  2                  9
A836767410935968041406VARELA                     ARAMBULA                   LILIANA ELISA              00000000000000030112016     020000008066503  2                  9
A836767410933886947788RETANA                     ZUÒIGA                     HUGO                       00000000000000030112016     020000008066703  2                  9
