Y605571210027159305302TURBIN                     MORALES                    ISAMAR VIRIDIANA           00000000000000024082017     020000009705603  2                  9
Y605571210008169172890GARCIA                     DIAZ                       GUILLERMO ESTEBAN          00000000000000022082017     020000009714503  2                  9
Y605571210096139712259MARTINEZ                   GARCIA                     ERICK ADAN                 00000000000000024082017     020000009720403  2                  9
Y605571210035149544112RAMOS                      ROMAN                      JOSE ANTONIO               00000000000000021082017     020000023050403  2                  9
