Y605571210096058667062RAMIREZ                    LOZANO                     IVAN                       00000000000000017082017     020000009718003  2                  9
Y605571210094088516888MENDOZA                    SANTANA                    DIONICIO                   00000000000000016082017     020000009722403  2                  9
Y605571210028886000414LARA                       YRIZAR                     JESUS                      00000000000000016082017     020000015188303  2                  9
Y605571210071037804359RODRIGUEZ                  TRINIDAD                   JOSE MELQUIADES            00000000000000016082017     020000015194703  2                  9
Y605571210092917205202REYES                      ESQUIVEL                   RAUL                       00000000000000016082017     020000015196703  2                  9
Y605571210007139776210FUENTES                    TADEO                      CARLOS EDUARDO             00000000000000016082017     020000015216403  2                  9
Y605571210094897306885VILLANUEVA                 RANGEL                     SILVIA                     00000000000000017082017     020000015217403  2                  9
Y605571210043886807411FLORES                     BARRAGAN                   IRMA                       00000000000000017082017     020000019087803  2                  9
Y605571210005179366371ROQUE                      ARREOLA                    ANA MARIA                  00000000000000016082017     020000030149903  2                  9
