A482760210316099048403HERNANDEZ                  BECERRIL                   OSWALDO                    00000000000000023092016     020000015182203  2                  9
A482760210303978176182SEGOVIA                    TOVAR                      GERARDO                    00000000000000021092016     020000019087403  2                  9
A482760210305149263956DOMINGUEZ                  SANCHEZ                    PEDRO                      00000000000000026092016     020000023034103  2                  9
