Y702574710184846411126TORRES                     CRESPO                     JUAN GREGORIO              00000000000000019052018     020000031035703  2                  9
Y702574710101139652059UC                         DZIB                       MARCO ANTONIO              00000000000000019052018     020000031044303  2                  9
Y702574710184966402145CRUZ                       RODRIGUEZ                  JOSE DEL CARMEN            00000000000000019052018     020000031044703  2                  9
