R143868210323836604191MEDINA                     ANDRADE                    RAMON                      00000000000000027122016     020000014071303  2                  9
R143868210338169655826ROMERO                     ALEJANDRE                  ULISES                     00000000000000023122016     020000014116903  2                  9
R143868210383978034896JIMENEZ                    DE DIOS                    LUIS ALBERTO               00000000000000027122016     020000014121803  2                  9
R143868210319149446791RUELAS                     TORRES                     JUAN DANIEL                00000000000000026122016     020000014122003  2                  9
R143868210354977710265MORALES                    SANDOVAL                   GILBERTO                   00000000000000028122016     020000014124103  2                  9
R143868210304099086185RIVERA                     RUELAS                     PEDRO IVAN                 00000000000000026122016     020000014126503  2                  9
