A836767410915897025894GARCIA                     GAONA                      JORGE                      00000000000000005072017     020000002057703  2                  9
A836767410962149601924ORTIZ                      MARTINEZ                   JULIO GUADALUPE            00000000000000011072017     020000008074903  2                  9
A836767410919179935747RODRIGUEZ                  MUÑOZ                      ENRIQUE                    00000000000000011072017     020000008076703  2                  9
