Y605571210007047100693SANTOS                     RIOS                       DAVID                      00000000000000027042017     020000007018203  2                  9
Y605571210045139613769DOMINGUEZ                  POPOCA                     VICTOR MANUEL              00000000000000027042017     020000009689403  2                  9
Y605571210092947339971SANCHEZ                    MARTINEZ                   ENRIQUE                    00000000000000027042017     020000015204803  2                  9
Y605571210047109266065ABUNDIS                    IZAGUIRRE                  BLANCA REINA RUBI          00000000000000027042017     020000019103003  2                  9
Y605571210049159760328LAZARO                     LAZARO                     JUAN ANTONIO               00000000000000027042017     020000023044903  2                  9
