R143868210304129185932VAZQUEZ                    BOITES                     PABLO                      00000000000000020092016     020000014072203  2                  9
R143868210375998111142ZEFERINO                   SALAZAR                    RICARDO                    00000000000000020092016     020000014114203  2                  9
R143868210375028608489GARCIA                     LUNA                       JOSE ALONSO                00000000000000022092016     020000014120403  2                  9
R143868210304058556558CONTRERAS                  GUTIERREZ                  VICTOR HUGO                00000000000000024092016     020000014120603  2                  9
R143868210304988006567FERNANDEZ                  GOMEZ                      MARCO ANTONIO              00000000000000026092016     020000014120703  2                  9
