Y605571210071129239993GIRON                      GOMEZ                      EDUARDO DE JESUS           00000000000000026092016     020000007012903  2                  9
Y605571210026149284064GUZMAN                     DOMINGUEZ                  OLGA LIDIA                 00000000000000023092016     020000007015603  2                  9
Y605571210014058640229DOMINGUEZ                  GOMEZ                      JOVANY                     00000000000000024092016     020000009626903  2                  9
Y605571210090099113996FERRER                     SANCHEZ                    ALEJANDRA IVONNE           00000000000000021092016     020000009638903  2                  9
Y605571210001129502926JUAREZ                     FERRE                      JORGE EDUARDO              00000000000000026092016     020000009646503  2                  9
Y605571210012856718841RAMIREZ                    CASTAÑEDA                  ARNULFO                    00000000000000026092016     020000011089603  2                  9
Y605571210035159271960ORTA                       LOPEZ                      EMMANUEL CESAR             00000000000000026092016     020000013011903  2                  9
Y605571210009068504910BENITEZ                    DOLORES                    MIGUEL ANGEL               00000000000000024092016     020000015177703  2                  9
Y605571210014078909505HERNANDEZ                  SANCHEZ                    JESICA                     00000000000000026092016     020000022043703  2                  9
Y605571210017169354648RODRIGUEZ                  BAHENA                     JESUS                      00000000000000026092016     020000022044303  2                  9
Y605571210065139612504LOPEZ                      VALEN                      JOSE LUIS                  00000000000000026092016     020000022047703  2                  9
Y605571210034088407696GOMEZ                      HERNANDEZ                  JUAN CARLOS                00000000000000026092016     020000022047803  2                  9
Y605571210064159629753PUCHETA                    QUINO                      ISRAEL                     00000000000000026092016     020000022048603  2                  9
Y605571210002166437778QUINO                      BAXIN                      MATILDE                    00000000000000026092016     020000022048903  2                  9
Y605571210002167680699HERNANDEZ                  FELIPE                     FRANCISCO                  00000000000000026092016     020000022049203  2                  9
Y605571210011007504050PEREZ                      MARTINEZ                   CLEMENTE RAFAEL            00000000000000026092016     020000022049703  2                  9
Y605571210078078915523GUERRA                     RUIZ                       FACUNDO                    00000000000000026092016     020000023025503  2                  9
Y605571210082008223974YAÑEZ                      GOMEZ                      RICARDO FERNANDO           00000000000000026092016     020000023030403  2                  9
Y605571210082099123331TEC                        NIC                        JOSUE ELIEZER              00000000000000026092016     020000023030503  2                  9
Y605571210008148570453DOMINGUEZ                  HIDALGO                    JANET                      00000000000000020092016     020000023031303  2                  9
Y605571210027169585653SOSA                       GOMEZ                      ANGEL FRANCISCO            00000000000000026092016     020000023032203  2                  9
Y605571210083027302534PEREZ                      CARRASCO                   LIDIA                      00000000000000026092016     020000023032303  2                  9
Y605571210083108616653JIMENEZ                    DIAZ                       MATEO                      00000000000000026092016     020000023032803  2                  9
Y605571210054998321001CUEVA                      VILLANUEVA                 HECTOR OMAR                00000000000000026092016     020000023033203  2                  9
Y605571210096068802592DOMINGUEZ                  OSORIO                     HEBER                      00000000000000026092016     020000023033303  2                  9
Y605571210067038308861RAMOS                      HERNANDEZ                  JOSE LUIS                  00000000000000023092016     020000025002303  2                  9
Y605571210024877124578GONZALEZ                   MEDINA                     JOSE RENE                  00000000000000025092016     020000025007503  2                  9
Y605571210023887246066CORTES                     TORRES                     VALENTIN                   00000000000000026092016     020000025007903  2                  9
Y605571210083017807948MORALES                    SARAO                      DORILIAN                   00000000000000023092016     020000027052603  2                  9
Y605571210082028222402MORALES                    GONZALEZ                   JOSE LUIS                  00000000000000026092016     020000027054603  2                  9
Y605571210042907124525CAMPILLO                   BRAST                      ROGELIO                    00000000000000025092016     020000030103603  2                  9
Y605571210065139465606GONZALEZ                   BLANCO                     JAIRO                      00000000000000024092016     020000030120103  2                  9
