Y605571210016116801826PEÑA                       FERRER                     MANUEL                     00000000000000005092016     020000002049403  2                  9
Y605571210025058716967IBARRA                     OSEQUERA                   LUIS ALBERTO               00000000000000005092016     020000002050403  2                  9
Y605571210045048332527CORTES                     NERIA                      MIGUEL ANGEL               00000000000000001092016     020000009591503  2                  9
Y605571210003159574650TLAPECHCO                  MARTINEZ                   ANDREA                     00000000000000005092016     020000009604803  2                  9
Y605571210012119100761VELAZQUEZ                  CRUZ                       ANAHI                      00000000000000005092016     020000009606503  2                  9
Y605571210030109008281RICO                       JIMENEZ                    MARIA GUADALUPE            00000000000000002092016     020000009637503  2                  9
Y605571210042129100519MALVAEZ                    GASCA                      ADRIAN                     00000000000000002092016     020000009641403  2                  9
Y605571210065139442928PALAS                      BLAS                       ANGEL LEONARDO             00000000000000001092016     020000011070403  2                  9
Y605571210092917004704RAMIREZ                    SOLIS                      FRANCISCO                  00000000000000004092016     020000015083403  2                  9
Y605571210028027601005HERNANDEZ                  ORTEGA                     JORGE                      00000000000000004092016     020000015153203  2                  9
Y605571210043016903353ARMENTA                    ALGANDAR                   ELVIRA                     00000000000000003092016     020000019052503  2                  9
Y605571210043957856016OSUNA                      COLUNGA                    LUIS RAMON                 00000000000000005092016     020000019081603  2                  9
Y605571210060149667861LOPEZ                      MARTINEZ                   JOSE GUADALUPE             00000000000000005092016     020000019084903  2                  9
Y605571210043017923525SILVA                      NAVA                       OZIEL                      00000000000000003092016     020000019085003  2                  9
Y605571210032927332075CORTES                     MARTINEZ                   JOSE ALFREDO               00000000000000003092016     020000019085603  2                  9
Y605571210003897302323RODRIGUEZ                  LOPEZ                      SALVADOR                   00000000000000003092016     020000019085703  2                  9
Y605571210065119036765PEREZ                      CASTILLO                   JOSE EDUARDO               00000000000000005092016     020000030031503  2                  9
Y605571210065119036765PEREZ                      CASTILLO                   JOSE EDUARDO               00000000000000005092016     020000030031503  2                  9
Y605571210025169754089MARTINEZ                   MARQUEZ                    LUIS EDUARDO               00000000000000005092016     020000030111803  2                  9
Y605571210067897163621CHAVEZ                     AVILA                      VALENTIN                   00000000000000005092016     020000030114903  2                  9
Y605571210081139208995ALFONSO                    LAGUNES                    ALEX JAIR                  00000000000000005092016     020000030119203  2                  9
Y605571210002167994934HERNANDEZ                  ABURTO                     EUNICE                     00000000000000005092016     020000030122803  2                  9
