Y605571210065068827172TORRES                     LIMA                       LAURENT EDSAEL             00000000000000012072016     020000030118903  2                  9
Y605571210065068827172TORRES                     LIMA                       LAURENT EDSAEL             00000000000000012072016     020000030118903  2                  9
Y605571210010169117933TELLEZ                     HERNANDEZ                  YAJAIRA GUADALUPE          00000000000000012072016     020000030119103  2                  9
Y605571210010169117933TELLEZ                     HERNANDEZ                  YAJAIRA GUADALUPE          00000000000000012072016     020000030119103  2                  9
