Y607431310445058750584MANUEL                     FRAGOSO                    LEONARDO                   00000000000000001012022     020000009008903  2                  9
Y607431310417169270117ZACARIAS                   CLIMACO                    ELIZABETH                  00000000000000001012022     020000009012803  2                  9
Y607431310419160190179GONZALEZ                   TOLENTINO                  CRISTIAN                   00000000000000001012022     020000009014103  2                  9
Y607431310445129238635SANTILLAN                  LINARES                    LUIS ALBERTO               00000000000000001012022     020000009015003  2                  9
