A482760210325078925606MACIAS                     MERCADO                    JOSE AURELIANO             00000000000000004122016     020000006003203  2                  9
A482760210352089202254AGUIRRE                    GONZALEZ                   ANGELICA CONCEPCION        00000000000000005122016     020000006004003  2                  9
A482760210352117701137SANTOS                     MENDOZA                    ANA MARIA                  00000000000000004122016     020000006004103  2                  9
