Y607431310496139465387ROJAS                      CASTAÑEDA                  JUAN DANIEL                00000000000000003032025     020000009037003  2                  9
Y607431310449200247358SANTIAGO                   MORALES                    GABRIEL                    00000000000000004032025     020000009037703  2                  9
Y607431310454159523783RAMIREZ                    RAMIREZ                    ANAYELY                    00000000000000003032025     020000009037903  2                  9
Y607431310416998227017MAYA                       NAVA                       JESUS                      00000000000000004032025     020000015001503  2                  9
