A836767410931785805198CAMPOS                     HERNANDEZ                  RUBEN                      00000000000000022082016     020000008037703  2                  9
A836767410935887126205ZAMBRANO                   MONCADA                    GUILLERMO                  00000000000000019082016     020000008054003  2                  9
A836767410933997418919PAYAN                      JAQUEZ                     LORENZO                    00000000000000019082016     020000008055103  2                  9
