Y605571210025897172380FLORES                     LOPEZ                      MARTIN                     00000000000000016042016     020000002046803  2                  9
Y605571210021088730094MORALES                    MONTIEL                    ARIEL                      00000000000000015042016     020000002047303  2                  9
Y605571210042048608477ROJAS                      TREJO                      MAURICIO                   00000000000000018042016     020000009470903  2                  9
Y605571210020988005680RAMIREZ                    ROMO                       ALEJANDRA                  00000000000000016042016     020000009594303  2                  9
Y605571210030937535042ALVAREZ                    CHAVEZ                     DAVID                      00000000000000016042016     020000009597503  2                  9
Y605571210096139357857RAMIREZ                    MENDOZA                    JOSE ALFREDO               00000000000000020042016     020000009609503  2                  9
Y605571210096139357857RAMIREZ                    MENDOZA                    JOSE ALFREDO               00000000000000020042016     020000009609503  2                  9
Y605571210074915606169MENDOZA                    CONTRERAS                  LEONEL                     00000000000000015042016     020000014075003  2                  9
Y605571210003169617127PASCUAL                    ARIZMENDI                  NOEL                       00000000000000021042016     020000014102503  2                  9
Y605571210003169779364RAMIREZ                    MARQUEZ                    ANGEL                      00000000000000021042016     020000014102603  2                  9
Y605571210004129245843CERDA                      GARCIA                     LUZ JOMARA                 00000000000000021042016     020000014104003  2                  9
Y605571210054856852048CAMACHO                    NUÒO                       ANTONIO                    00000000000000021042016     020000014104203  2                  9
Y605571210004036806836JIMENEZ                    MAZUCA                     PETRA                      00000000000000021042016     020000014107903  2                  9
Y605571210016907101139ANDRES                     DE JESUS                   ERACLIO                    00000000000000020042016     020000015124303  2                  9
Y605571210076169700267LOPEZ                      ARROYO                     LUIS MARIO                 00000000000000021042016     020000016004403  2                  9
Y605571210017159636475PEREZ                      RODRIGUEZ                  IRVING                     00000000000000020042016     020000030102903  2                  9
Y605571210065139435807CORTES                     ALMANZA                    JONATHAN ABISAI            00000000000000021042016     020000030105003  2                  9
