R143868210353937804556HERNANDEZ                  CHAVEZ                     BRENDA YADIRA              00000000000000012032017     020000014110903  2                  9
R143868210338169655826ROMERO                     ALEJANDRE                  ULISES                     00000000000000012032017     020000014116903  2                  9
R143868210363169221569BELTRAN                    DOMINGUEZ                  JENI MARIA                 00000000000000014032017     020000014130703  2                  9
