R143868210304128836790DAVALOS                    ARAMBULA                   ALEJANDRO                  00000000000000002092017     020000014135403  2                  9
R143868210304886774290NAVARRO                    RUIZ                       JESUS                      00000000000000004092017     020000014136903  2                  9
R143868210359169761596MARTINEZ                   JUAREZ                     NADIA NAOMI                00000000000000004092017     020000014137803  2                  9
