Y605571210067927555564MADRIGAL                   RAMIREZ                    GREGORIO                   00000000000000005122016     020000007001802  2                  9
Y605571210096139108748GUADARRAMA                 LOPEZ                      MIGUEL ANGEL               00000000000000006122016     020000009577003  2                  9
Y605571210052977408450LEON                       SANTOS                     ROMAN                      00000000000000005122016     020000009656303  2                  9
Y605571210002167278023AREVALO                    FLORES                     SERGIO                     00000000000000006122016     020000016008903  2                  9
Y605571210019159402825SILVA                      DE LA ROSA                 JOSE ANGEL                 00000000000000005122016     020000016009003  2                  9
Y605571210034169658811MORALES                    FLORES                     IRMA                       00000000000000005122016     020000019089803  2                  9
Y605571210043007830821MARTINEZ                   ALONSO                     MARIANO                    00000000000000005122016     020000019091203  2                  9
Y605571210046149327051ORTIZ                      CANO                       MA. DE LOS ANGELES         00000000000000005122016     020000019091603  2                  9
Y605571210049877062585SANTILLAN                  CORPUS                     RUBEN                      00000000000000005122016     020000019094003  2                  9
Y605571210065038542091HERNANDEZ                  VAZQUEZ                    DAVID IVAN                 00000000000000006122016     020000028036303  2                  9
Y605571210061119301820MUÑOZ                      ALVAREZ                    JOSE DANIEL                00000000000000004122016     020000029006703  2                  9
