A836767410933079185105OLVERA                     BARRON                     JOSE MIGUEL                00000000000000001062016     020000008042503  2                  9
A836767410950937749328LEDEZMA                    ESPINO                     GUADALUPE ALEJANDRO        00000000000000001062016     020000008044803  2                  9
A836767410960149573002CRUZ                       RASCON                     JESUS ADRIEL               00000000000000001062016     020000008045303  2                  9
A836767410933139528427TALAMANTES                 ALDERETE                   MANUEL GERARDO             00000000000000001062016     020000008045703  2                  9
