A836767410954897211139TORRES                     RODRIGUEZ                  VERONICA                   00000000000000024062017     020000002055703  2                  9
A836767410903146233907MEDINA                     REYES                      SERGIO                     00000000000000024062017     020000002056603  2                  9
A836767410924107303638MENDEZ                     JACOB                      ANTONIO ROSELIN            00000000000000024062017     020000002056803  2                  9
A836767410921159725569GONZALEZ                   RODRIGUEZ                  MARCOS ALEXIS              00000000000000024062017     020000002057503  2                  9
