Y605571210021038707648CAMACHO                    ESPARZA                    FELIPE DE JESUS            00000000000000027042016     020000002048103  2                  9
Y605571210075846306688CEDILLO                    REYES                      GUILLERMO                  00000000000000027042016     020000009595203  2                  9
Y605571210072098104069MEZA                       HIDALGO                    PEDRO HERON                00000000000000026042016     020000009604003  2                  9
Y605571210045006303239CURIEL                     ANAYA                      MARIBEL CALIXTRA           00000000000000022042016     020000009610303  2                  9
Y605571210058159511078CASTILLO                   CHAVEZ                     RICARDO ADRIAN             00000000000000025042016     020000009611703  2                  9
Y605571210052937629062TOVAR                      CHAVARIN                   LUIS FRANCISCO             00000000000000026042016     020000014106703  2                  9
Y605571210090078607497GARCIA                     MARIN                      GRACIELA                   00000000000000027042016     020000015164003  2                  9
Y605571210067836152776JARVIO                     OSORIO                     JUAN EFREN                 00000000000000021042016     020000030082903  2                  9
Y605571210067836152776JARVIO                     OSORIO                     JUAN EFREN                 00000000000000021042016     020000030082903  2                  9
Y605571210065906701480MARTINEZ                   COLORADO                   RAFAEL                     00000000000000021042016     020000030101703  2                  9
Y605571210065906701480MARTINEZ                   COLORADO                   RAFAEL                     00000000000000021042016     020000030101703  2                  9
