Y607431310412169826570VAZQUEZ                    PEREZ                      NEREIDA YOCELIN            00000000000000018072022     020000009017803  2                  9
Y607431310492028108204HERNANDEZ                  RIOS                       PAULA                      00000000000000019072022     020000009019103  2                  9
Y607431310420906917289ESPINOSA                   GUTIERREZ                  DANIEL                     00000000000000016072022     020000009019303  2                  9
Y607431310494109043631MENDOZA                    VIZUET                     ALMA DELIA                 00000000000000017072022     020000009019603  2                  9
