Y702574710184978029118SABIDO                     CHI                        EMMANUEL ELIGIO            00000000000000006122016     020000031025003  2                  9
Y702574710184937428252GARCIA                     CABRERA                    MOISES                     00000000000000006122016     020000031031803  2                  9
Y702574710184997204023SOLIS                      SOBERANIS                  JORGE DE ATOCHA            00000000000000006122016     020000031032903  2                  9
Y702574710127148922316NOTARIO                    ARCOS                      MARISELIT                  00000000000000006122016     020000031033103  2                  9
