Y605571210094098924528CASTRO                     GARDUÑO                    KAREN                      00000000000000022082017     020000009041102  2                  9
Y605571210068169405344GOMEZ                      HERNANDEZ                  LUIS LEONARDO              00000000000000024082017     020000023047603  2                  9
Y605571210003159212368JUAREZ                     MORENO                     MARCOS                     00000000000000024082017     020000030146403  2                  9
