Y605571210043098913049VAZQUEZ                    VELAZQUEZ                  EDILBERTO                  00000000000000003032017     020000007016603  2                  9
Y605571210008159664047CORTES                     YA—EZ                      LUIS ENRIQUE               00000000000000002032017     020000009570603  2                  9
Y605571210096027602430BENITEZ                    GONZALEZ                   JUAN ANTONIO               00000000000000003032017     020000009667003  2                  9
Y605571210067118904860DIAZ                       PEÒA                       DANIEL                     00000000000000003032017     020000009683903  2                  9
Y605571210001937420642GONZALEZ                   ESPARZA                    DELFINO HUMBERTO           00000000000000003032017     020000015178803  2                  9
Y605571210060149592838GUTIERREZ                  SILVA                      RUBY MONSERRAT             00000000000000003032017     020000015179003  2                  9
Y605571210020947415624LOBATO                     MUÒOZ                      MARIA ISABEL               00000000000000003032017     020000015187803  2                  9
Y605571210002179361171GONZALEZ                   MONJARDIN                  JOSE LUIS                  00000000000000003032017     020000015189603  2                  9
Y605571210094917344924OTERO                      RAMIREZ                    JOSE LUIS                  00000000000000003032017     020000015190803  2                  9
Y605571210048936830958CLEMENTE                   VARGAS                     EFRAIN                     00000000000000003032017     020000015191603  2                  9
Y605571210094926800288GUERRERO                   MUÒOZ                      FIDEL                      00000000000000003032017     020000015192003  2                  9
Y605571210016129358954SUAREZ                     VILLEGAS                   OMAR                       00000000000000003032017     020000015192303  2                  9
Y605571210016139452219SANABRIA                   LOPEZ                      OSVALDO                    00000000000000003032017     020000015192603  2                  9
Y605571210016116702032MARTINEZ                   REBOLLAR                   PRUDENCIA                  00000000000000003032017     020000015192703  2                  9
Y605571210016998156422CONTRERAS                  BECERRIL                   GUSTAVO                    00000000000000003032017     020000015192903  2                  9
Y605571210016139132902CANCHOLA                   DEL ANGEL                  URIEL                      00000000000000003032017     020000015193403  2                  9
Y605571210043169856812SALMERON                   LOPEZ                      JORGE LUIS                 00000000000000003032017     020000015193503  2                  9
Y605571210016098409358PARRA                      MARTINEZ                   ESMERALDA                  00000000000000003032017     020000015194003  2                  9
Y605571210009038603529PEREZ                      DEL ANGEL                  SERGIO                     00000000000000003032017     020000019086103  2                  9
Y605571210047917502669GARCIA                     DE LA CRUZ                 JAVIER                     00000000000000003032017     020000019100503  2                  9
Y605571210015118905122SANCHEZ                    MARQUINA                   MARIA YULIANA              00000000000000003032017     020000022054803  2                  9
Y605571210044149293290AGUADO                     HERNANDEZ                  IVAN                       00000000000000003032017     020000022055803  2                  9
Y605571210005129677794VENTURA                    CABRERA                    FERNANDO                   00000000000000002032017     020000022057503  2                  9
Y605571210069159602395SANTOS                     MORALES                    SANTANA                    00000000000000002032017     020000027058903  2                  9
Y605571210043109373100VELAZQUEZ                  CRUZ                       VICTOR DOMINGO             00000000000000003032017     020000030123103  2                  9
Y605571210065866826798CAMARILLO                  GARCIA                     CATALINA                   00000000000000003032017     020000030130003  2                  9
Y605571210067896950010PINEDA                     LOPEZ                      CARLOS ALBERTO             00000000000000003032017     020000030135603  2                  9
Y605571210067007802670GOMEZ                      HERNANDEZ                  MARIA EUGENIA              00000000000000003032017     020000030136303  2                  9
