Y605571210025159221222SOLORZANO                  GOMEZ                      REYNALDO                   00000000000000018072016     020000007013103  2                  9
Y605571210002168242176GOMEZ                      GIRON                      ANTONIO                    00000000000000018072016     020000007013603  2                  9
Y605571210069149622925DELGADILLO                 GODINEZ                    JAZMIN GUADALUPE           00000000000000018072016     020000009037702  2                  9
Y605571210033038564838SANCHEZ                    RAMOS                      ELIEZER DAVID              00000000000000015072016     020000009562203  2                  9
Y605571210002169624109DOMINGUEZ                  MARTINEZ                   HIPOLITO                   00000000000000018072016     020000009581603  2                  9
Y605571210096139364259OSORIO                     CERVANTES                  JOSE ANTONIO               00000000000000015072016     020000009603603  2                  9
Y605571210050159796064HERNANDEZ                  GONZALEZ                   MAURICIO                   00000000000000015072016     020000009605903  2                  9
Y605571210092098902569VILLARREAL                 CASASOLA                   MARIA DE LOS ANGELES       00000000000000018072016     020000009622503  2                  9
Y605571210045099172186ALVAREZ                    CRUZ                       RAUL                       00000000000000016072016     020000009624403  2                  9
Y605571210011988004336DE JESUS                   CERON                      LUIS ESTEBAN               00000000000000015072016     020000009625503  2                  9
Y605571210096159400702MU—OZ                      MOCI—OS                    FERNANDO                   00000000000000018072016     020000009626103  2                  9
Y605571210063129423479JIMENEZ                    PATIÒO                     ARTURO                     00000000000000015072016     020000011065503  2                  9
Y605571210012068806855JIMENEZ                    PATI—O                     PEDRO                      00000000000000015072016     020000011068403  2                  9
Y605571210012078639031AGUILAR                    MARTINEZ                   FERNANDO                   00000000000000016072016     020000011081803  2                  9
Y605571210013047504355RAMIREZ                    VEGA                       ANA BERTHA                 00000000000000018072016     020000013012303  2                  9
Y605571210013977826380TENORIO                    ORTEGA                     ALDO                       00000000000000018072016     020000013013503  2                  9
Y605571210016907014902VEGA                       MARIN                      SERGIO                     00000000000000016072016     020000015111603  2                  9
Y605571210071129403003HERNANDEZ                  ARIAS                      LUIS FELIPE                00000000000000016072016     020000015158803  2                  9
Y605571210039996903157DEL ANGEL                  PEREZ                      SILVERIO                   00000000000000016072016     020000015163303  2                  9
Y605571210092887225545VILLEGAS                   MALDONADO                  MARTIN                     00000000000000015072016     020000015168703  2                  9
Y605571210016089400200NEGRETE                    MEZA                       DIEGO                      00000000000000018072016     020000015169803  2                  9
Y605571210067856857429ARIAS                      BAUTISTA                   MANUEL                     00000000000000016072016     020000019071603  2                  9
Y605571210043109457754GARCIA                     DAVILA                     ABRAHAM                    00000000000000012072016     020000019077903  2                  9
Y605571210043089329346PEREYRA                    MARTINEZ                   JOSE ALONSO                00000000000000016072016     020000019082303  2                  9
Y605571210003897038539ZAVALA                     CORREA                     PABLO                      00000000000000016072016     020000019082803  2                  9
Y605571210014806113081NUÒEZ                      PADILLA                    CAMILO                     00000000000000018072016     020000022041703  2                  9
Y605571210062149606022PONCE                      MANTECA                    JOSE DANIEL                00000000000000018072016     020000022044903  2                  9
Y605571210014048516182RANGEL                     NIEVES                     JOSE MARTIN                00000000000000018072016     020000022046103  2                  9
Y605571210062149479990MIROS                      CHONTAL                    JOSE DE JESUS              00000000000000018072016     020000022046303  2                  9
Y605571210071109221961GONZALEZ                   ROBLEDO                    BACILIO RUDIEL             00000000000000018072016     020000023028903  2                  9
Y605571210082068715646KUMUL                      PECH                       BENITO                     00000000000000018072016     020000023029003  2                  9
Y605571210067998003817FABIAN                     RUIZ                       ANTONIO                    00000000000000018072016     020000023030203  2                  9
Y605571210019159603844OVANDO                     DOMINGUEZ                  DANIEL                     00000000000000015072016     020000027056803  2                  9
Y605571210009058792632MARTIN                     DOMINGUEZ                  VICTORINO                  00000000000000016072016     020000028031903  2                  9
Y605571210009139337662PANIAGUA                   VARGAS                     CARLOS ENRIQUE             00000000000000015072016     020000028033003  2                  9
Y605571210096947203459PEREZ                      HERNANDEZ                  ANTONIO                    00000000000000016072016     020000030097103  2                  9
Y605571210065937677006HERNANDEZ                  LOPEZ                      SERGIO JAVIER              00000000000000016072016     020000030098303  2                  9
Y605571210065139012994RODRIGUEZ                  SANCHEZ                    RAFAEL                     00000000000000016072016     020000030099903  2                  9
Y605571210009138900437MEDINA                     MESE—O                     SANTIAGO                   00000000000000016072016     020000030111703  2                  9
