R143868210304106602503SALMERON                   ARREGUIN                   RAMON                      00000000000000005062016     020000014104303  2                  9
R143868210304058783905GONZALEZ                   MEDINA                     ROSENDO ISMAEL             00000000000000005062016     020000014105803  2                  9
R143868210354967900215CARDENAS                   CHAPULA                    LUIS ALBERTO               00000000000000005062016     020000014107403  2                  9
