D172000910235149568723AVILA                      GARCIA                     ISMAEL RODRIGO             00000000000000022102016     020000017034403  2                  9
D172000910218159308826AVILA                      GARCIA                     DIEGO AMANDO               00000000000000023102016     020000017040703  2                  9
D172000910265916720322AGUILAR                    REYES                      VICENTE                    00000000000000022102016     020000017047203  2                  9
