A836767410921109350609GARCIA                     ALANIS                     JOSE MANUEL                00000000000000014052017     020000002045103  2                  9
A836767410925957813873ARVIZU                     CHAVEZ                     ARACELI                    00000000000000012052017     020000002051703  2                  9
A836767410953957666919CARRILLO                   SANCHEZ                    SALVADOR                   00000000000000014052017     020000002054303  2                  9
A836767410933007500300GARCIA                     MONZON                     JOAQUIN                    00000000000000018052017     020000008062603  2                  9
