Z064567510812937159247RODRIGUEZ                  GONZALEZ                   JOSE FERNANDO              00000000000000001062018     020000011095003  2                  9
Z064567510860149410775HERNANDEZ                  MARTINEZ                   SAUL HUMBERTO              00000000000000001062018     020000011096003  2                  9
Z064567510812967565420PONCE                      LIRA                       JUAN ALEJANDRO             00000000000000001062018     020000011100203  2                  9
