A836767410933866640502GANDARA                    GONZALEZ                   EDUARDO                    00000000000000011082016     020000008041003  2                  9
A836767410933129605805MALDONADO                  SANCHEZ                    JUAN FRANCISCO             00000000000000011082016     020000008052903  2                  9
A836767410933988216165CORONADO                   RODRIGUEZ                  GERRY AUDEL                00000000000000011082016     020000008053803  2                  9
