A836767410933139654033GOMEZ                      MARQUEZ                    HAYDEE ANGELICA            00000000000000024062016     020000008000802  2                  9
A836767410932815938587FUENTES                    MORELOS                    JORGE                      00000000000000023062016     020000008043803  2                  9
A836767410935129457186ADAME                      ESCANDON                   MIGUEL ANGEL               00000000000000027062016     020000008047603  2                  9
