A836767410933978211580AGUILAR                    LEAL                       ABDIEL                     00000000000000021102016     020000008047803  2                  9
A836767410917169842519VALERIO                    SALDIVAR                   JOVANI                     00000000000000021102016     020000008061103  2                  9
A836767410933089038427ARANDA                     MELENDEZ                   CARMEN JANETH              00000000000000024102016     020000008062303  2                  9
A836767410933119349158ACOSTA                     ORONA                      GABRIEL                    00000000000000024102016     020000008062403  2                  9
