R143868210304735203814BALDERAS                   REYES                      JOSE LUIS                  00000000000000010072017     020000014133303  2                  9
R143868210302179508060CABRERA                    BRISEÒO                    JOSE LUIS                  00000000000000012072017     020000014134103  2                  9
R143868210304127106641FLORES                     FIGUEROA                   PAULINA                    00000000000000013072017     020000014135003  2                  9
