D172000910215119314951JIMENEZ                    CABALLERO                  MARTIN ALBERTO             00000000000000002062017     020000017031903  2                  9
D172000910215118711892MACARIO                    QUEZADA                    JESUS                      00000000000000002062017     020000017050003  2                  9
D172000910210836222488ESQUIVEL                   MIGUEL                     HECTOR                     00000000000000002062017     020000017051903  2                  9
D172000910218179870110SOTELO                     CEDILLO                    OCTAVIO MARTIN             00000000000000002062017     020000017052103  2                  9
D172000910215856506819VAZQUEZ                    VAZQUEZ                    MAURO                      00000000000000002062017     020000017052203  2                  9
