Y605571210081886916782CANUL                      TORRES                     FRANCISCO JAVIER           00000000000000001042017     020000004010303  2                  9
Y605571210081068107051TUZ                        CHI                        WENTEYA                    00000000000000001042017     020000004010903  2                  9
Y605571210096058300979LLANOS                     PINEDA                     JUAN CARLOS                00000000000000001042017     020000009604703  2                  9
Y605571210046897102813ARELLANO                   MUÒIZ                      ROGELIO                    00000000000000003042017     020000009658103  2                  9
Y605571210094098507356PEREZ                      PRIETO                     ANTONIO                    00000000000000001042017     020000009662403  2                  9
Y605571210017148676285GALINDO                    SORIANO                    ORLANDO                    00000000000000003042017     020000009681803  2                  9
Y605571210040169825086PEREZ                      MATIAS                     KARLA                      00000000000000001042017     020000009686003  2                  9
Y605571210096078849443PACHECO                    HONTA—ON                   SAUL                       00000000000000003042017     020000009691303  2                  9
Y605571210039119109724GARCIA                     GARCIA                     CINDY ABIGAIL              00000000000000001042017     020000009693303  2                  9
Y605571210019169852290CAMACHO                    BORJA                      GERARDO                    00000000000000003042017     020000015190203  2                  9
Y605571210072128605580AVILA                      AGUILAR                    ELIZABETH                  00000000000000003042017     020000015195103  2                  9
Y605571210072169754735ROMERO                     GUZMAN                     ANA CAROLINA               00000000000000003042017     020000015200103  2                  9
Y605571210028926401127MONROY                     AVILES                     BLANCA MARGARITA           00000000000000003042017     020000015200503  2                  9
Y605571210014704411512RIOS                       DIAZ                       PAULINO                    00000000000000003042017     020000019090503  2                  9
Y605571210012169008948MORENO                     MORENO                     ROSALINO                   00000000000000003042017     020000019094703  2                  9
Y605571210049886005864SANCHEZ                    JIMENEZ                    PEDRO MARTIN               00000000000000003042017     020000019096803  2                  9
Y605571210033008142722RUIZ                       CRUZ                       JULIO CESAR                00000000000000001042017     020000022054403  2                  9
Y605571210078139446344NIETO                      GONZAGA                    JOSE ARMANDO               00000000000000001042017     020000022057403  2                  9
Y605571210014139316369MARTINEZ                   HERNANDEZ                  APOLO ELIACID VICENTE      00000000000000003042017     020000022058103  2                  9
Y605571210016169464134NIETO                      GONZAGA                    JOSE ALBERTO               00000000000000001042017     020000022058203  2                  9
Y605571210014836106766DE LA CRUZ                 VEGA                       J.DOLORES                  00000000000000003042017     020000022060003  2                  9
Y605571210046149643622LOPEZ                      PEREZ                      CARLOS DANIEL              00000000000000001042017     020000023043503  2                  9
Y605571210009036603638MENDEZ                     MARQUEZ                    SILVIA                     00000000000000003042017     020000028040203  2                  9
Y605571210081109202192MARTINEZ                   CRUZ                       MARIO                      00000000000000003042017     020000030142203  2                  9
