Y607431310405209541506RAMIREZ                    BALDERAS                   ALICIA ADAMANEY            00000000000000020092021     020000009006403  2                  9
Y607431310412170136753RIOS                       SANCHEZ                    DILAN                      00000000000000020092021     020000009009503  2                  9
Y607431310496058704311ANGULO                     MENA                       ARMANDO SALVADOR           00000000000000018092021     020000009013403  2                  9
