Y605571210021028550214LOYA                       MANZO                      GILBERTO                   00000000000000023092016     020000002010503  2                  9
Y605571210021129429078HERNANDEZ                  RICO                       URIEL                      00000000000000023092016     020000002027303  2                  9
Y605571210025149525104DELGADO                    CANELA                     ABRHAM                     00000000000000023092016     020000002045203  2                  9
Y605571210096109154573MOLINAR                    ESPINOSA                   DULCE MARIA                00000000000000023092016     020000009032802  2                  9
Y605571210045139019900NAVARRETE                  MANZANARES                 JOSE XAVIER                00000000000000022092016     020000009038902  2                  9
Y605571210020988106082ALVAREZ                    CARMONA                    GUILLERMO AGUSTIN          00000000000000021092016     020000009638603  2                  9
Y605571210096109241347GARCIA                     HERNANDEZ                  CRUZ ALBERTO               00000000000000021092016     020000009641803  2                  9
Y605571210012079164252MARES                      SUAREZ                     JOSE ANGEL                 00000000000000019092016     020000011089103  2                  9
Y605571210043078845062COSTILLA                   SILVA                      MARIA DE LOS ANGELES       00000000000000023092016     020000019002002  2                  9
