Y607431310401170248585ARELLANO                   SANCHEZ                    AMERICA SANDRA             00000000000000003052024     020000009032803  2                  9
Y607431310410200042058TEJEDA                     SANDOVAL                   SARA PAMELA                00000000000000003052024     020000009033303  2                  9
Y607431310403149208898OLVERA                     GARCIA                     DIEGO SALVADOR             00000000000000003052024     020000009033503  2                  9
Y607431310437917418529HERNANDEZ                  RAMOS                      SANDRA                     00000000000000002052024     020000009033603  2                  9
