Y605571210096088925092ZUÒIGA                     MOLINERO                   LUIS ALBERTO               00000000000000025062017     020000009688103  2                  9
Y605571210001755647136CAMPO                      HERNANDEZ                  HERIBERTO                  00000000000000024062017     020000009704303  2                  9
Y605571210065877019904ACEVEDO                    JUAREZ                     EVERARDO                   00000000000000027062017     020000015191203  2                  9
Y605571210043099209249AGUILAR                    RODRIGUEZ                  ANGELICA GUADALUPE         00000000000000026062017     020000019105603  2                  9
Y605571210074149552171VILLANUEVA                 SANCHEZ                    MARTIN ALEJANDRO           00000000000000027062017     020000019108903  2                  9
