Y462621510962927518548JURADO                     REGUEZ                     GUSTAVO                    00000000000000017072017     020000021152203  2                  9
Y462621510910168925914RODRIGUEZ                  XICOHTENCATL               JOEL                       00000000000000018072017     020000021162803  2                  9
Y462621510937048614186MORA                       GAYTAN                     JOSE GIOVANNI              00000000000000018072017     020000021170703  2                  9
