Y605571210096119242954GUZMAN                     ANTONIO                    RICARDO                    00000000000000001112016     020000009605303  2                  9
Y605571210011977810255GARCIA                     HERNANDEZ                  JOSE DE JESUS              00000000000000003112016     020000009643703  2                  9
Y605571210011997934739PEREZ                      DIAZ                       JUAN CARLOS                00000000000000004112016     020000009653203  2                  9
Y605571210016027707260BENITEZ                    MARIN                      LETICIA                    00000000000000004112016     020000015134703  2                  9
Y605571210016107702124CRUZ                       LOPEZ                      JOSE ANTONIO               00000000000000004112016     020000015146503  2                  9
Y605571210016917011286GUZMAN                     AYALA                      LUZ MARIA                  00000000000000004112016     020000015172003  2                  9
Y605571210016139440297FLORES                     GUADARRAMA                 ABRAHAM MAURICIO           00000000000000004112016     020000015183603  2                  9
Y605571210043886905686GARCIA                     LOERA                      ADRIAN                     00000000000000003112016     020000019030503  2                  9
Y605571210043916872203MARTINEZ                   ORTEGA                     HUMBERTO ANGEL             00000000000000003112016     020000019080603  2                  9
Y605571210043998353528GUTIERREZ                  HERNANDEZ                  NORMA ALICIA               00000000000000004112016     020000019090603  2                  9
Y605571210043028413805ELIZONDO                   OJEDA                      NANCY JUDITH               00000000000000004112016     020000019090703  2                  9
Y605571210014937018894HERNANDEZ                  SANCHEZ                    DANIEL                     00000000000000004112016     020000022048803  2                  9
Y605571210044149609768RAMON                      BRITO                      JOSE RICARDO               00000000000000004112016     020000027057503  2                  9
Y605571210067139030422OSORIO                     PIÑERA                     ABEL GREGORIO              00000000000000004112016     020000030102503  2                  9
