A482760210316907014902VEGA                       MARIN                      SERGIO                     00000000000000001062016     020000015111603  2                  9
A482760210316907014902VEGA                       MARIN                      SERGIO                     00000000000000001062016     020000015111603  2                  9
A482760210316907014902VEGA                       MARIN                      SERGIO                     00000000000000001062016     020000015111603  2                  9
A482760210316107702124CRUZ                       LOPEZ                      JOSE ANTONIO               00000000000000001062016     020000015146503  2                  9
A482760210316107702124CRUZ                       LOPEZ                      JOSE ANTONIO               00000000000000001062016     020000015146503  2                  9
A482760210316028537062CANALES                    GARCIA                     ERIKA                      00000000000000001062016     020000015162203  2                  9
A482760210316028537062CANALES                    GARCIA                     ERIKA                      00000000000000001062016     020000015162203  2                  9
A482760210316138400185LOPEZ                      VEGA                       AZUCENA                    00000000000000001062016     020000015168003  2                  9
A482760210316138400185LOPEZ                      VEGA                       AZUCENA                    00000000000000001062016     020000015168003  2                  9
A482760210315988301311ALCANTARA                  CUEVAS                     SERGIO RAUL                00000000000000001062016     020000015169703  2                  9
A482760210315988301311ALCANTARA                  CUEVAS                     SERGIO RAUL                00000000000000001062016     020000015169703  2                  9
A482760210315988301311ALCANTARA                  CUEVAS                     SERGIO RAUL                00000000000000001062016     020000015169703  2                  9
A482760210316077605521JIMENEZ                    MARTINEZ                   CECILIA                    00000000000000001062016     020000015170303  2                  9
A482760210316077605521JIMENEZ                    MARTINEZ                   CECILIA                    00000000000000001062016     020000015170303  2                  9
A482760210316088966276VALDES                     OCHOA                      ADRIANA                    00000000000000001062016     020000015170403  2                  9
A482760210316088966276VALDES                     OCHOA                      ADRIANA                    00000000000000001062016     020000015170403  2                  9
A482760210316917011286GUZMAN                     AYALA                      LUZ MARIA                  00000000000000001062016     020000015172003  2                  9
A482760210316048552612CABALLERO                  SAUCEDO                    MARIA NANCY                00000000000000001062016     020000015173003  2                  9
A482760210316048552612CABALLERO                  SAUCEDO                    MARIA NANCY                00000000000000001062016     020000015173003  2                  9
A482760210353057606542SALAZAR                    ROSALES                    ISRAEL                     00000000000000001062016     020000015173103  2                  9
A482760210353057606542SALAZAR                    ROSALES                    ISRAEL                     00000000000000001062016     020000015173103  2                  9
