Y607431310496119015244GUEVARA                    MARTINEZ                   EDGAR ISSAC                00000000000000008072021     020000009009103  2                  9
Y607431310445159902225SAN AGUSTIN                GONZALEZ                   ALEXIS ALBERTO             00000000000000006072021     020000009011603  2                  9
Y607431310492099153014PAEZ                       HERNANDEZ                  ARTURO                     00000000000000007072021     020000009011803  2                  9
Y607431310445109458252GONZALEZ                   SANCHEZ                    SAMUEL                     00000000000000008072021     020000009011903  2                  9
