A836767410933119418037MARTINEZ                   VILLALOBOS                 CARLOS RUBEN               00000000000000019042017     020000008071903  2                  9
A836767410950977917272MARTINEZ                   GUTIERREZ                  OCTAVIO ALBERTO            00000000000000019042017     020000008072403  2                  9
A836767410933108918740LUNA                       RODRIGUEZ                  ELIZABETH                  00000000000000019042017     020000008072803  2                  9
