Y605571210094088712859JIMENEZ                    ORTEGA                     ROJELIO                    00000000000000003082016     020000009517703  2                  9
Y605571210050149503083BACILIO                    MARTINEZ                   GONZALO MAURICIO           00000000000000003082016     020000009586003  2                  9
Y605571210004108861800FERNANDEZ                  PEREZ                      JOSE RAMON                 00000000000000003082016     020000009614603  2                  9
Y605571210045078927790GARRIDO                    FARIAS                     JAVIER IVAN                00000000000000003082016     020000009621703  2                  9
Y605571210037018207995HERNANDEZ                  AZAAR                      ABRAHAM                    00000000000000003082016     020000009621803  2                  9
Y605571210030058811115HERNANDEZ                  ESTRADA                    HUMBERTO                   00000000000000030072016     020000009623903  2                  9
Y605571210042139800058RAMIREZ                    LUGARDO                    LUIS GERARDO               00000000000000029072016     020000009628603  2                  9
Y605571210039937662433BELTRAN                    MARTINEZ                   ORLANDO                    00000000000000003082016     020000009630903  2                  9
Y605571210014139543814SUAREZ                     PEREZ                      JOAO PAULINHO              00000000000000028072016     020000011085303  2                  9
Y605571210015109020022BALMACEDA                  ROSALES                    PABLO                      00000000000000028072016     020000011086603  2                  9
Y605571210004048645255PEREZ                      AGUIRRE                    JONATHAN IVAN              00000000000000030072016     020000015163803  2                  9
Y605571210009119416866TELLEZ                     MORALES                    EDGAR                      00000000000000002082016     020000019082403  2                  9
Y605571210014967518060RAMIREZ                    HERNANDEZ                  NILO                       00000000000000002082016     020000019082703  2                  9
Y605571210062159778489IBARRA                     BASTIAN                    RAFAEL EDUARDO             00000000000000002082016     020000019084303  2                  9
Y605571210017149425229PARCERO                    CRUZ                       LEONEL CASTRO              00000000000000002082016     020000019084603  2                  9
Y605571210058159738473BENITO                     GOMEZ                      PABLO                      00000000000000002082016     020000019084703  2                  9
Y605571210025159646097HERNANDEZ                  LOPEZ                      CESAR AUGUSTO              00000000000000003082016     020000027053403  2                  9
Y605571210083109223574RAMIREZ                    CRISOSTOMO                 HECTOR                     00000000000000003082016     020000027053603  2                  9
Y605571210083078737471LOPEZ                      DE LA CRUZ                 VICTOR MANUEL              00000000000000003082016     020000027053703  2                  9
Y605571210083077101364BARABATO                   JIMENEZ                    JOSE ANTONIO               00000000000000003082016     020000027055303  2                  9
Y605571210083977507298LOPEZ                      LOPEZ                      NORBERTO                   00000000000000003082016     020000027055403  2                  9
