R143868210304028718171UGALDE                     ALGREDO                    ANNAI                      00000000000000019122016     020000014121103  2                  9
R143868210375129493336RUIZ                       MERCADO                    GUADALUPE YOSELI           00000000000000019122016     020000014125003  2                  9
R143868210304119453993GUIJARRO                   MENDOZA                    ROBERTO MANUEL             00000000000000019122016     020000014126103  2                  9
