Y605571210017169516923COLLAZO                    COLLAZO                    CRISTOBAL                  00000000000000001082016     020000007013703  2                  9
Y605571210010149385451GIRON                      PEREZ                      MARIO IRAN                 00000000000000001082016     020000007015303  2                  9
Y605571210001755638010NAVA                       SANCHEZ                    ORLANDO MARCELINO          00000000000000001082016     020000009001603  2                  9
Y605571210092967609113GOMEZ                      PARRA                      DANIEL JACOB               00000000000000001082016     020000009006802  2                  9
Y605571210092108919744FARFAN                     CERA                       ORLANDO NEPHTALI           00000000000000001082016     020000009035402  2                  9
Y605571210096937309191PERALTA                    ZACATE                     JOSE JUAN                  00000000000000001082016     020000009039002  2                  9
Y605571210007896405961CIBRIAN                    SEGURA                     CARLOS                     00000000000000001082016     020000009404603  2                  9
Y605571210011755878060CARRILLO                   PULIDO                     JUAN JOSE                  00000000000000001082016     020000009478203  2                  9
Y605571210054199572350SANCHEZ                    SANTIAGO                   SAUL                       00000000000000001082016     020000009561803  2                  9
Y605571210046907220183MEJIA                      BASILIO                    FRANCISCO                  00000000000000030072016     020000009591803  2                  9
Y605571210042127700161VAZQUEZ                    TADEO                      LUIS ALBERTO               00000000000000001082016     020000009597903  2                  9
Y605571210008149246095ROSALES                    ANDRADE                    CRUZ ANTONIO               00000000000000001082016     020000011085103  2                  9
Y605571210049149340934ADULFO                     SORELA                     DANIEL                     00000000000000001082016     020000011086203  2                  9
Y605571210015866305814FIGUEROA                   FLORES                     JESUS                      00000000000000001082016     020000011086403  2                  9
Y605571210037988204345MEZA                       ENCINAS                    FRANCISCO JAVIER           00000000000000001082016     020000011086503  2                  9
Y605571210013129336585GRANADOS                   AGUILAR                    ARMANDO                    00000000000000001082016     020000013011503  2                  9
Y605571210007169111106PEREZ                      RESENDIZ                   GUSTAVO                    00000000000000028072016     020000013012003  2                  9
Y605571210013129506476MENDEZ                     GARCIA                     MIRIAM MARLEN              00000000000000001082016     020000013013103  2                  9
Y605571210038149681272SANTOS                     GONZALEZ                   FRANCISCO JAVIER           00000000000000031072016     020000015174003  2                  9
Y605571210090098932602ROSALES                    VAZQUEZ                    GUADALUPE ANTONIO          00000000000000031072016     020000015176103  2                  9
Y605571210090139221585MUÒOZ                      CORTES                     FELIPE DE JESUS            00000000000000031072016     020000015176203  2                  9
Y605571210092897207533OLIVA                      LAGUNA                     MIGUEL ANGEL               00000000000000031072016     020000015177403  2                  9
Y605571210016988101644COLIN                      MONROY                     ERASTO                     00000000000000001082016     020000015178903  2                  9
Y605571210076169700390OROZCO                     GODOY                      ANTONIO DE JESUS           00000000000000001082016     020000016006703  2                  9
Y605571210043856807177MIRELES                    BRIONES                    MARIO                      00000000000000001082016     020000019001603  2                  9
Y605571210003978030637RAMIREZ                    HERRERA                    MONICA ELIZABETH           00000000000000001082016     020000019001802  2                  9
Y605571210043008297830FRANCISCO                  MACARIO                    SAULO                      00000000000000001082016     020000019084203  2                  9
Y605571210008169181578CEBA                       CHAGA                      SALVADOR                   00000000000000001082016     020000022046503  2                  9
Y605571210023806346971LOPEZ                      BALLARDO                   ENRIQUE                    00000000000000001082016     020000025002603  2                  9
Y605571210023129450658BORQUEZ                    PEREZ                      EDIEL                      00000000000000030072016     020000025002703  2                  9
Y605571210023947104818BARRAZA                    MILLAN                     GUILLERMINA ESPERANZA      00000000000000001082016     020000025003603  2                  9
Y605571210023906505344BUENO                      MARTINEZ                   MARIA ISABEL               00000000000000001082016     020000025004303  2                  9
Y605571210083098716083CHABLE                     LOPEZ                      CARMEN EULALIO             00000000000000001082016     020000027055703  2                  9
Y605571210019159603844OVANDO                     DOMINGUEZ                  DANIEL                     00000000000000001082016     020000027056803  2                  9
Y605571210049826458231LOPEZ                      MARTINEZ                   MIGUEL                     00000000000000030072016     020000028013803  2                  9
Y605571210065099139217VICENCIO                   DOMINGUEZ                  MARIO                      00000000000000001082016     020000030117703  2                  9
