D691959010178856504127ZARATE                     MENDEZ                     JORGE                      00000000000000010072016     020000020022203  2                  9
D691959010178907409706CRUZ                       LOPEZ                      VICTOR HUGO                00000000000000010072016     020000020022303  2                  9
D691959010178129240624MARTINEZ                   GARNICA                    GUILLERMO                  00000000000000010072016     020000020023603  2                  9
