Y605571210017856705110HERRERA                    MENDOZA                    GUSTAVO                    00000000000000011042017     020000009670303  2                  9
Y605571210016078811730GUADARRAMA                 GONZALEZ                   MARICRUZ                   00000000000000006042017     020000015191003  2                  9
Y605571210016018204202PEREZ                      FLORES                     BERTHA LIDIA               00000000000000005042017     020000015198403  2                  9
Y605571210092977901401FERNANDEZ                  BUSTAMANTE                 ROSALIA                    00000000000000010042017     020000015200603  2                  9
Y605571210067139476633BERNABE                    TELLEZ                     JOSE EDMUNDO               00000000000000008042017     020000030043703  2                  9
