Y605571210094028433475PI—A                       MARTINEZ                   VERONICA BERENICE          00000000000000021082017     020000009030802  2                  9
Y605571210001744846955CORTES                     ALCAZAR                    FRANCISCO                  00000000000000021082017     020000009680703  2                  9
Y605571210020139717894PERCASTEGUI                MONROY                     JESUS ADRIAN               00000000000000021082017     020000009686403  2                  9
Y605571210008148177564LOPEZ                      GARDUÒO                    KARINA ELIZABETH           00000000000000021082017     020000009698203  2                  9
Y605571210089866905402TORRES                     SALDAÒA                    JOSE LUIS                  00000000000000019082017     020000009703603  2                  9
Y605571210020088703804JIMENEZ                    MEDEL                      ALAN DARIL                 00000000000000020082017     020000009712903  2                  9
Y605571210085169713485GONZALEZ                   PUEBLA                     GEOVANNI                   00000000000000020082017     020000009715203  2                  9
Y605571210018169700962RIOS                       ALVARADO                   ABRAHAM                    00000000000000020082017     020000009717403  2                  9
Y605571210008159529539CRUZ                       CRUZ                       ERICK ABEL                 00000000000000020082017     020000009717503  2                  9
Y605571210028008112600TORRES                     PEREZ                      JOSE LUIS                  00000000000000019082017     020000009722603  2                  9
Y605571210037058505167TELLEZ                     PINELO                     JENARO NOE                 00000000000000021082017     020000009722803  2                  9
Y605571210011987719777ALFARO                     LUNA                       MARIA DE JESUS             00000000000000021082017     020000009723803  2                  9
Y605571210026179986380CASTRO                     CONTRERAS                  BRAYAN URIEL               00000000000000019082017     020000009724003  2                  9
Y605571210027179925550CONTRERAS                  CARBAJAL                   AARON ALEJANDRO            00000000000000021082017     020000009724603  2                  9
Y605571210018149499354REMIGIO                    LOPEZ                      WILFRIDO                   00000000000000020082017     020000009725603  2                  9
Y605571210020018505618FLORES                     GUERRERO                   ARTURO                     00000000000000021082017     020000015197303  2                  9
Y605571210027159648974FLORES                     CASTRO                     SALOME                     00000000000000021082017     020000015208603  2                  9
Y605571210092058003945PEDRAZA                    DE LA ROSA                 NESTOR MANUEL              00000000000000020082017     020000015216203  2                  9
Y605571210094008234117GONZALEZ                   CERVANTES                  ESMERALDA YOANA            00000000000000019082017     020000015217703  2                  9
Y605571210009998284849CEJA                       MORALES                    OSCAR EDUARDO              00000000000000019082017     020000019113203  2                  9
Y605571210041947305813ESTRADA                    FLORES                     EMILIO                     00000000000000021082017     020000019114003  2                  9
Y605571210047079126026ACOSTA                     RODRIGUEZ                  NANCY ARACELY              00000000000000019082017     020000019117703  2                  9
Y605571210004167804501CRUZ                       CRUZ                       CLAUDIO                    00000000000000019082017     020000019120403  2                  9
Y605571210043089230072VAZQUEZ                    DE LA CRUZ                 SONIA                      00000000000000019082017     020000019120803  2                  9
Y605571210071108810079CAMERAS                    GORDILLO                   FRAYDA                     00000000000000021082017     020000023042403  2                  9
Y605571210055169729054MORENO                     GARCIA                     JULIO CESAR                00000000000000021082017     020000023042703  2                  9
Y605571210002178033730REGULES                    HERNANDEZ                  ANTONIO                    00000000000000019082017     020000023043803  2                  9
Y605571210082896718085CARRILLO                   MOO                        FELICIANO ERNESTO          00000000000000019082017     020000023048403  2                  9
Y605571210082998205510LEON                       SUAREZ                     DIANA GABRIELA             00000000000000019082017     020000023049103  2                  9
Y605571210002178199267LANDA                      REYES                      MOISES                     00000000000000020082017     020000023050303  2                  9
Y605571210040169754625DIAZ                       RUIZ                       LUIS GABRIEL               00000000000000019082017     020000023050703  2                  9
Y605571210082058837038DE LA CRUZ                 RUIZ                       NATALIA                    00000000000000019082017     020000023051103  2                  9
Y605571210023937723908CORRAL                     GARCIA                     ERIC ENOC                  00000000000000021082017     020000025014303  2                  9
Y605571210017159654759GALAN                      RODRIGUEZ                  FRANCHESCO DIONICIO        00000000000000019082017     020000030152103  2                  9
