Y605571210051137800879REYES                      VILLALOBOS                 ANA LUZ                    00000000000000005102016     020000001007703  2                  9
Y605571210051877022361MONREAL                    DAVILA                     JUAN JOSE                  00000000000000005102016     020000001008203  2                  9
Y605571210090068927327MARTINEZ                   AVILES                     BERNARDO DANIEL            00000000000000005102016     020000009039202  2                  9
Y605571210045896516759DURAN                      LINARES                    J. REFUGIO                 00000000000000003102016     020000009566203  2                  9
Y605571210028109401985CABRERA                    ARAUZA                     LUIS ENRIQUE               00000000000000005102016     020000009617303  2                  9
Y605571210012109153879BOLAÑOS                    RIVERA                     TOMAS                      00000000000000002102016     020000011086803  2                  9
Y605571210047028504224HERNANDEZ                  VALADEZ                    HECTOR                     00000000000000004102016     020000019088103  2                  9
Y605571210023089153714GUZMAN                     LOPEZ                      MARCELINO                  00000000000000004102016     020000025006403  2                  9
Y605571210083028510986RODRIGUEZ                  GOMEZ                      ARTURO MARLON              00000000000000005102016     020000027054403  2                  9
Y605571210083129230005GARCIA                     GOMEZ                      JUAN JOSE                  00000000000000005102016     020000027058103  2                  9
