A836767410933947818465RIVERA                     MOLINAR                    JOEL                       00000000000000011062016     020000008043303  2                  9
A836767410903168957813MADRIGAL                   MORALES                    MARIA JUANA                00000000000000013062016     020000008046503  2                  9
A836767410902168156293PEREZ                      CHAVEZ                     MANUELA                    00000000000000011062016     020000008046603  2                  9
A836767410923089165809ZAVALA                     INZUNZA                    ABIGAIN                    00000000000000011062016     020000008046703  2                  9
