A836767410930988000755HERNANDEZ                  MARTINEZ                   IVAN                       00000000000000028062016     020000008000303  2                  9
A836767410933119444413CORTES                     TARANGO                    ANGEL HERIBERTO            00000000000000001072016     020000008038903  2                  9
A836767410942836105942CASTILLO                   SOTO                       ROBERTO                    00000000000000002072016     020000008046403  2                  9
A836767410933139307012ARREGUIN                   PAYAN                      FLOR IVETTE                00000000000000030062016     020000008048403  2                  9
A836767410933109002296LOPEZ                      MARTINEZ                   LORENA ANGELINA            00000000000000030062016     020000008049203  2                  9
