Y605571210030129004641RIVERA                     ESQUIVEL                   JESUS                      00000000000000020042017     020000015199503  2                  9
Y605571210072078915302JAIMES                     RODRIGUEZ                  JESUS MAYORICO             00000000000000017042017     020000015201303  2                  9
Y605571210008179775534RAMIREZ                    LOPEZ                      CINTHIA                    00000000000000021042017     020000015202603  2                  9
Y605571210025139405093CAUDILLO                   CASIO                      MARIO                      00000000000000020042017     020000019104803  2                  9
Y605571210057927665075DELGADO                    VEGA                       JESUS ANTONIO              00000000000000021042017     020000025015403  2                  9
Y605571210017159701527TORRES                     CHALA                      MOISES                     00000000000000021042017     020000030132803  2                  9
Y605571210021069050603PRIETO                     MORALES                    EMMANUEL                   00000000000000021042017     020000030144403  2                  9
