Y605571210071917231046MONTERO                    FELIX                      JOSE DEL CARMEN            00000000000000022032017     020000004010403  2                  9
Y605571210008149816533HERNANDEZ                  JARAMILLO                  LUIS FERNANDO              00000000000000022032017     020000005012403  2                  9
Y605571210030928800215OCAMPO                     RODRIGUEZ                  ALEJANDRO                  00000000000000016032017     020000009028602  2                  9
Y605571210011816337684MARTINEZ                   ISLAS                      MARCO ANTONIO              00000000000000022032017     020000009543903  2                  9
Y605571210096008224642ENRIQUEZ                   LUNA                       FERNANDO                   00000000000000016032017     020000009561703  2                  9
Y605571210096139602849FERNANDEZ                  RODRIGUEZ                  FERNANDO                   00000000000000021032017     020000009585003  2                  9
Y605571210094048401056RODRIGUEZ                  HIDALGO                    MARCO ARTURO               00000000000000021032017     020000009665503  2                  9
Y605571210005179905806SANCHEZ                    CRUZ                       ANA FABIOLA                00000000000000019032017     020000009687903  2                  9
Y605571210096089010209DE LA CRUZ                 HERNANDEZ                  MIGUEL ALBERTO             00000000000000019032017     020000009688003  2                  9
Y605571210005169055257GARCIA                     MENDOZA                    MARIA NALLELY              00000000000000019032017     020000009688703  2                  9
Y605571210045119309420LOPEZ                      PEREZ                      LUIS ELIAS                 00000000000000019032017     020000009689903  2                  9
Y605571210016856608753RODRIGUEZ                  ROSAS                      VICTOR MANUEL              00000000000000018032017     020000015165503  2                  9
Y605571210056169617653JARDON                     RAMIREZ                    ANA PATRICIA               00000000000000021032017     020000015191803  2                  9
Y605571210016089104190AGUIRRE                    MARTINEZ                   JUAN DE JESUS              00000000000000019032017     020000015193203  2                  9
Y605571210016058822228MARTINEZ                   SOTO                       VANESSA                    00000000000000018032017     020000015196403  2                  9
Y605571210016129202491ARANDA                     GARCIA                     NESTOR ALBERTO             00000000000000020032017     020000015196803  2                  9
Y605571210047947413572REYES                      LLANES                     GILBERTO                   00000000000000022032017     020000019104503  2                  9
Y605571210023796007948LEYVA                      FAVELA                     RAMON DE JESUS             00000000000000021032017     020000025011603  2                  9
