Y605571210094089029634ROMERO                     OSNAYA                     KAREN                      00000000000000008042017     020000009041502  2                  9
Y605571210042906601531MONTES                     JUAREZ                     ROGELIO                    00000000000000007042017     020000009042602  2                  9
Y605571210008159287302OROZCO                     TORIZ                      FRANCISCO JAVIER           00000000000000007042017     020000009564403  2                  9
Y605571210094137100551HERNANDEZ                  LOPEZ                      JUAN CARLOS                00000000000000007042017     020000009642203  2                  9
Y605571210072159703916OROZCO                     CUICAS                     PEDRO                      00000000000000006042017     020000009681203  2                  9
Y605571210028008212665ROMERO                     VILLARROEL                 JUAN CARLOS                00000000000000007042017     020000009690903  2                  9
Y605571210045068703771CERVANTES                  GONZALEZ                   GILBERTO                   00000000000000004042017     020000009692103  2                  9
Y605571210004967302250SALAS                      LOPEZ                      LIDIA EUGENIA              00000000000000006042017     020000015178203  2                  9
Y605571210043886769959GALLEGOS                   REYNA                      JOEL                       00000000000000007042017     020000019102103  2                  9
Y605571210009078949048AGUILAR                    ROCHA                      JOVANI EMANUEL             00000000000000008042017     020000019105903  2                  9
Y605571210014068754358HUERTA                     CARRILLO                   ALBA                       00000000000000007042017     020000022056703  2                  9
