Y605571210071028120104LIMONES                    GONZALEZ                   JOSE ALBERTO               00000000000000007082017     020000007019303  2                  9
Y605571210043967916966PEREZ                      CASTAÒUELA                 MONICA FRANCISCA           00000000000000009082017     020000019103703  2                  9
Y605571210005178912563HERNANDEZ                  ESTEBAN                    JUANA                      00000000000000008082017     020000019121103  2                  9
Y605571210082068813870CERVERA                    VAZQUEZ                    CECILIA DEL CARMEN         00000000000000009082017     020000023049803  2                  9
