Y605571210081109006940BASTO                                                 JORGE FELIPE               00000000000000007122016     020000004009303  2                  9
Y605571210032018437015OVIEDO                     ESCAREÒO                   FELIX ESTEBAN              00000000000000007122016     020000005011603  2                  9
Y605571210094088611515DELGADO                    HUERTA                     EDGAR PABLO                00000000000000007122016     020000015126203  2                  9
Y605571210093897122557CABALLERO                  PONCE                      JOSE FRANCISCO             00000000000000005122016     020000015183903  2                  9
Y605571210043755846839REYNOSO                    SILVA                      JUAN MANUEL                00000000000000007122016     020000019089603  2                  9
Y605571210032028206988CASTILLO                   ALAMILLO                   HUGO ALEJANDRO             00000000000000007122016     020000019093803  2                  9
Y605571210014088923280RAMIREZ                    NAVARRO                    SUSAN ARELY                00000000000000007122016     020000022052003  2                  9
Y605571210082047900210MORALES                    GARCIA                     CARLOS ALBERTO             00000000000000006122016     020000023037703  2                  9
Y605571210049885804846SOLIS                      MENDEZ                     MANUEL                     00000000000000005122016     020000023039503  2                  9
