Y605571210060008210886HERNANDEZ                  GUERRERO                   ANTONIO                    00000000000000021022017     020000005011503  2                  9
Y605571210039977409786SANCHEZ                    MARTINEZ                   JOSE LUIS                  00000000000000021022017     020000009613603  2                  9
Y605571210030008413806CHAVEZ                     PRADO                      JOEL GUADALUPE             00000000000000021022017     020000009662003  2                  9
Y605571210096087503643LOPEZ                      PALACIOS                   SILVIA                     00000000000000023022017     020000009675003  2                  9
Y605571210068968013398MARTINEZ                   RODRIGUEZ                  BERTHA                     00000000000000023022017     020000022053903  2                  9
Y605571210014896508646SALAZAR                    GONZALEZ                   ALFONSO                    00000000000000021022017     020000022058003  2                  9
Y605571210003149591152VELAZQUEZ                  ULIN                       ALEXANDER                  00000000000000023022017     020000023034903  2                  9
Y605571210067038308861RAMOS                      HERNANDEZ                  JOSE LUIS                  00000000000000022022017     020000025002303  2                  9
Y605571210001907001067HERRERA                    HINOJOSA                   CESAR ADRIAN               00000000000000023022017     020000030070903  2                  9
Y605571210083987806631ANTONIO                    LUCIANO                    CECILIO                    00000000000000023022017     020000030134103  2                  9
