Y605571210090038711611HERNANDEZ                  CAMERO                     MARIO                      00000000000000016062016     020000009517503  2                  9
Y605571210026159613442MENDEZ                     CONTRERAS                  ZAIRA RUBI                 00000000000000021062016     020000009584303  2                  9
Y605571210096139364259OSORIO                     CERVANTES                  JOSE ANTONIO               00000000000000021062016     020000009603603  2                  9
Y605571210003168992620BALTAZAR                   QUIJANO                    ERIK                       00000000000000016062016     020000009617403  2                  9
Y605571210001877023448GARCIA                     RAMIREZ                    JOSE ANTONIO               00000000000000016062016     020000009618603  2                  9
Y605571210016128404973FLORES                     JIMENEZ                    FELIX YADIRA               00000000000000018062016     020000015168303  2                  9
Y605571210005169784716GONZALEZ                   HERNANDEZ                  LUIS EDUARDO               00000000000000019062016     020000015175903  2                  9
Y605571210047089041165ENRIQUEZ                   COLUNGA                    JESUS HUMBERTO             00000000000000016062016     020000019065503  2                  9
Y605571210082997804248PEREZ                      GOMEZ                      DIEGO                      00000000000000022062016     020000019072303  2                  9
Y605571210071128612042LOPEZ                      SANCHEZ                    JUAN                       00000000000000021062016     020000023026203  2                  9
Y605571210071139601638VELAZQUEZ                  OVANDO                     DANIEL                     00000000000000020062016     020000023027703  2                  9
Y605571210003169449489ZARATE                     MORAGA                     ZITLALI ADRIANA            00000000000000021062016     020000023028303  2                  9
