Y607431310439098700113CASTRO                     ESTRADA                    HECTOR OSIRIS              00000000000000022082022     020000009020503  2                  9
Y607431310494917437009CECILIANO                  RIOS                       MARICRUZ                   00000000000000017082022     020000009021503  2                  9
Y607431310473169988406BONILLA                    HERNANDEZ                  BRISEIDA                   00000000000000019082022     020000009021803  2                  9
