A836767410933826307218SALAS                                                 SALVADOR                   00000000000000010102016     020000008050903  2                  9
A836767410935129317349HERNANDEZ                  ARMENDARIZ                 JUAN FRANCISCO             00000000000000010102016     020000008056003  2                  9
A836767410933119274539ESQUIVEL                   DE LA TORRE                JOEL                       00000000000000010102016     020000008060303  2                  9
A836767410933119372820GUTIERREZ                  RUIZ                       JESUS ALBERTO              00000000000000010102016     020000008060703  2                  9
