Y605571210051139217080VARGAS                     CARDONA                    MARIA JOSEFINA             00000000000000016052016     020000001007403  2                  9
Y605571210037998010096VICTORIA                   MOTA                       GUILLERMO                  00000000000000012052016     020000009569103  2                  9
Y605571210042089103735HERRERA                    SANCHEZ                    FATIMA ROCIO               00000000000000017052016     020000009608903  2                  9
Y605571210065109110000BLAS                       CHAGALA                    JAVIER                     00000000000000017052016     020000011073103  2                  9
Y605571210074967500732FERNANDEZ                  MONTALVO                   CARLOS ANTONIO             00000000000000015052016     020000014105103  2                  9
Y605571210004129556090MORALES                    PADILLA                    JOSE GUILLERMO             00000000000000017052016     020000014108403  2                  9
Y605571210056897166916RODRIGUEZ                  VAZQUEZ                    MARIA  TRINIDAD            00000000000000016052016     020000014109103  2                  9
Y605571210004098725874ARIAS                      TERRONES                   JUANA                      00000000000000017052016     020000014109203  2                  9
Y605571210004866102868BARRERA                    SANCHEZ                    ENRIQUE                    00000000000000017052016     020000014109803  2                  9
Y605571210066159705442RUIZ                       HERNANDEZ                  DAVID EMMANUEL             00000000000000012052016     020000014111403  2                  9
Y605571210010169684239ORTEGA                     GONZALEZ                   URIEL                      00000000000000017052016     020000014111803  2                  9
Y605571210004997881455CARLOS                     ESTALA                     OSCAR FABIAN               00000000000000016052016     020000014112303  2                  9
Y605571210075078958826ZARAGOZA                   BERNACHE                   EDGAR                      00000000000000017052016     020000014112403  2                  9
Y605571210016119153175PEREA                      HERNANDEZ                  MARCO ANTONIO              00000000000000018052016     020000015155103  2                  9
Y605571210032998410438GONZALEZ                   GARCIA                     MARIA CRISTINA             00000000000000016052016     020000015166503  2                  9
Y605571210067008601147MARTINEZ                   VELASCO                    MANUEL                     00000000000000017052016     020000015168603  2                  9
Y605571210016118616743SANCHEZ                    ALVARADO                   BERENICE                   00000000000000018052016     020000015169203  2                  9
Y605571210094008000047GARCIA                     HERNANDEZ                  DANIEL                     00000000000000016052016     020000015171703  2                  9
Y605571210003169456989CORONEL                    ALEJANDRES                 TOMAS                      00000000000000018052016     020000028031503  2                  9
Y605571210065906701480MARTINEZ                   COLORADO                   RAFAEL                     00000000000000018052016     020000030101703  2                  9
Y605571210065129362714GONZALEZ                   REYES                      JEHOSAFAT FRANCISCO        00000000000000018052016     020000030114003  2                  9
