Y605571210013169875393VILLEGAS                   BAUTISTA                   RAYMUNDO                   00000000000000017082017     020000009678103  2                  9
Y605571210096097000184GASCA                      SOLIS                      MARIA DEL CARMEN           00000000000000017082017     020000009701003  2                  9
Y605571210094119046350JUAREZ                     MORENO                     ABRAHAM                    00000000000000018082017     020000009715303  2                  9
Y605571210008169161968SOTO                       OLAIZ                      SANDRA ARELY               00000000000000018082017     020000009716503  2                  9
Y605571210090098913784GODINEZ                    BASURTO                    ALEJANDRO                  00000000000000018082017     020000009723503  2                  9
Y605571210078998209379CORTES                     LINARES                    GUSTAVO                    00000000000000017082017     020000015186903  2                  9
Y605571210094089059656HERNANDEZ                  ROMERO                     EFRAIN JAIME               00000000000000017082017     020000015188803  2                  9
Y605571210047907210349CASTILLO                   ELIZALDE                   MARCO ANTONIO              00000000000000018082017     020000019087903  2                  9
Y605571210043119030690DE OCHOA                   BAZAN                      KARLA ALEJANDRA            00000000000000018082017     020000019123103  2                  9
