Y462621510948108920736BARRAGAN                   LOPEZ                      IVAN                       00000000000000001072016     020000021146403  2                  9
Y462621510962977773985NOLASCO                    CASTILLO                   BERNARDINO                 00000000000000004072016     020000021147403  2                  9
Y462621510948099148628GONZALEZ                   CORONEL                    EDUARDO DANIEL             00000000000000004072016     020000021149403  2                  9
