Y605571210053927322833RICO                       MEDINA                     JAVIER                     00000000000000016102016     020000002026103  2                  9
Y605571210039048604563GARCIA                     PONCE                      ESTEBAN                    00000000000000016102016     020000002051303  2                  9
Y605571210062155730183ARZOLA                     SOTO                       YANKO ZENYAO               00000000000000017102016     020000009572503  2                  9
Y605571210007946901092ARREOLA                    ESTRADA                    MARIA DE JESUS             00000000000000015102016     020000009611003  2                  9
Y605571210096099213520TAVERA                     SERNA                      MIGUEL ANGEL               00000000000000012102016     020000009628403  2                  9
Y605571210096917262832LEYTE                      SALAS                      JOSE NICOLAS               00000000000000018102016     020000009649503  2                  9
Y605571210020927553808PADILLA                    CONTRERAS                  ANGELICA                   00000000000000017102016     020000015182903  2                  9
Y605571210065027002289HERNANDEZ                  MARTINEZ                   JOSE LUIS                  00000000000000018102016     020000019078503  2                  9
Y605571210003856745009ELIAS                      RODRIGUEZ                  FRANCISCO JAVIER           00000000000000018102016     020000019085903  2                  9
Y605571210047947770997FLORES                     OLIVO                      NESTOR DAVID               00000000000000018102016     020000019087503  2                  9
Y605571210090088708640PEREZ                      ALDANA                     MARIA DE LA PAZ            00000000000000018102016     020000022048403  2                  9
Y605571210046159625378CALLEJAS                   GARCIA                     MARCO ANTONIO              00000000000000017102016     020000022050503  2                  9
Y605571210014079023686SALAZAR                    PUENTE                     JAVIER ALEJANDRO           00000000000000018102016     020000022051203  2                  9
Y605571210023028378299SANCHEZ                    RODRIGUEZ                  PABLO DAVID                00000000000000018102016     020000025010003  2                  9
