Y605571210020897309470MARENCO                    ARCOS                      ISMAEL                     00000000000000017062016     020000015175303  2                  9
Y605571210043796134484DIAZ                       ESTRADA                    DANIEL                     00000000000000023062016     020000019071803  2                  9
Y605571210043776021768ROBLES                     SANCHEZ                    ALFREDO                    00000000000000023062016     020000019078203  2                  9
Y605571210083128604614GARCIA                     ALCUDIA                    JOSEFA                     00000000000000022062016     020000027045803  2                  9
Y605571210065028233040GUZMAN                     HERNANDEZ                  ABRAHAM DE JESUS           00000000000000020062016     020000030107203  2                  9
Y605571210065139521762ORTEGA                     MENDEZ                     SAMUEL                     00000000000000020062016     020000030107403  2                  9
Y605571210065118809196ZARATE                     GARCIA                     KARLA JANET                00000000000000020062016     020000030112103  2                  9
Y605571210057159696632SALAS                      SANTAMARIA                 MARIA ALEJANDRA            00000000000000020062016     020000030112203  2                  9
Y605571210065089044294JUAN                       CASTILLO                   ALFONSO                    00000000000000020062016     020000030113103  2                  9
