A482760210325149562990NEGRETE                    OLALDE                     JESUS                      00000000000000006122016     020000006003003  2                  9
A482760210352947806908ACOSTA                     PEÑA                       OSCAR ALEJANDRO            00000000000000006122016     020000006003503  2                  9
A482760210352937709443ALVAREZ                    GARCIA                     MARIO                      00000000000000006122016     020000006004503  2                  9
