Y462621510948129269568CAMPOS                     ORTIZ                      ALFONSO                    00000000000000028052017     020000021143303  2                  9
Y462621510962896967650BETANZOS                   VAZQUEZ                    JOSE GABRIEL               00000000000000028052017     020000021163903  2                  9
Y462621510910149132457GOMEZ                      ESPINOSA                   JAVIER                     00000000000000029052017     020000021169603  2                  9
