R143868210310169684239ORTEGA                     GONZALEZ                   URIEL                      00000000000000013062017     020000014111803  2                  9
R143868210304028164418ZAMORA                     CHAVEZ                     PABLO                      00000000000000013062017     020000014114103  2                  9
R143868210304907138590PONCE                      GUTIERREZ                  IRMA LETICIA               00000000000000019062017     020000014124403  2                  9
R143868210326149427085NAVARRETE                  RODRIGUEZ                  CARLOS ISAAC               00000000000000013062017     020000014127203  2                  9
R143868210382078605092JUAREZ                     GOMEZ                      OSCAR DE JESUS             00000000000000016062017     020000014130003  2                  9
R143868210304027621087SIERRA                     CAMARENA                   JOSE DE JESUS              00000000000000013062017     020000014130903  2                  9
R143868210356159632654RAMOS                      PATIÑO                     ALEXIS DANIEL              00000000000000013062017     020000014131503  2                  9
R143868210304078615475HERNANDEZ                  VAZQUEZ                    GLORIA SELENE              00000000000000013062017     020000014132103  2                  9
R143868210304857062493FLORES                     CHAVEZ                     ILDEFONSO                  00000000000000013062017     020000014132303  2                  9
R143868210305169674149RICO                       AMEZCUA                    MARIA FERNANDA             00000000000000013062017     020000014132603  2                  9
R143868210304967103476GUIZAR                     ROBLES                     JOSE                       00000000000000013062017     020000014132803  2                  9
R143868210302177647860SANDOVAL                   DE LA CRUZ                 SANTIAGO                   00000000000000013062017     020000014133203  2                  9
R143868210363159774924GRANADOS                   CORTES                     JOSE DE JESUS              00000000000000013062017     020000014133503  2                  9
R143868210304089198859ARAUJO                     BUENDIA                    JOSE CARLOS                00000000000000013062017     020000014133603  2                  9
