Y605571210003816407542MARTINEZ                   ZUBIRIAS                   GUSTAVO                    00000000000000010022017     020000005012203  2                  9
Y605571210007068812978ESCOBAR                    MOLINA                     JUAN EDGAR                 00000000000000013022017     020000009531003  2                  9
Y605571210045047603068DE LA CRUZ                 VICTORIANO                 SAMUEL                     00000000000000012022017     020000009637003  2                  9
Y605571210030896840250RODRIGUEZ                  CAMPOS                     AUSENCIO                   00000000000000013022017     020000009649603  2                  9
Y605571210069159717367FUENTES                    SANTIAGO                   MARTHA ESTELA              00000000000000013022017     020000009661503  2                  9
Y605571210030917439033AGUILAR                    BARRIENTOS                 ADRIAN                     00000000000000010022017     020000009675803  2                  9
Y605571210007018214135FIERRO                     GONZALEZ                   ARIEL CHRISTIAN            00000000000000009022017     020000009676803  2                  9
Y605571210045047702464BALVANERA                  GONZALEZ                   ALEJANDRO DANIEL           00000000000000010022017     020000009676903  2                  9
Y605571210094028314782PLASCENCIA                 HERNANDEZ                  SANDRA                     00000000000000013022017     020000009677603  2                  9
Y605571210003897302323RODRIGUEZ                  LOPEZ                      SALVADOR                   00000000000000012022017     020000019085703  2                  9
Y605571210049977839528ROQUE                      CAMPOS                     JUANA ELIBET               00000000000000013022017     020000019097603  2                  9
Y605571210043998251938AVILA                      ALFARO                     JOSE CARLOS                00000000000000013022017     020000019098003  2                  9
Y605571210043058748195MONTALVO                   SILVA                      JOSE ANGEL                 00000000000000013022017     020000019101703  2                  9
Y605571210043058717919SANCHEZ                    TREVIÒO                    ROOSVELT ARMANDO           00000000000000013022017     020000019101803  2                  9
Y605571210063169161260HIDALGO                    MARTINEZ                   PATRICIA                   00000000000000012022017     020000023042203  2                  9
Y605571210023068861626CEVALLOS                   CERVERA                    GERARDO DE JESUS           00000000000000013022017     020000025010903  2                  9
Y605571210062149439044CRUZ                       LOPEZ                      CONRADO                    00000000000000012022017     020000027052303  2                  9
Y605571210009108921868MAGALLANES                 LEYVA                      JULIO CESAR                00000000000000013022017     020000028037703  2                  9
