D691959010178906711789ORTIZ                      BALTAZAR                   ROBERTO                    00000000000000019092016     020000020025603  2                  9
D691959010178008207934CRUZ                       SANTIAGO                   OSCAR                      00000000000000019092016     020000020026603  2                  9
D691959010178957401686CASTRO                     ARAGON                     JOSE LUIS                  00000000000000019092016     020000020027203  2                  9
