Y605571210027149373642GUZMAN                     AYALA                      JORGE EDUARDO              00000000000000011082016     020000007001302  2                  9
Y605571210002168892376SANCHEZ                    MORENO                     MAYRA RAFAELA              00000000000000016082016     020000007013303  2                  9
Y605571210046159559072SANTIZ                     SANTIZ                     BENJAMIN                   00000000000000016082016     020000007013403  2                  9
Y605571210015087401517BAENA                      ESCOTO                     ANDRES                     00000000000000015082016     020000009026802  2                  9
Y605571210092038338288ARZAVE                     PACHECO                    ERIKA                      00000000000000016082016     020000009038602  2                  9
Y605571210042867019988CAMPOS                     SALINAS                    CLARA                      00000000000000016082016     020000009508803  2                  9
Y605571210045927208673RUIZ                       GARCIA                     FROYLAN                    00000000000000016082016     020000009629603  2                  9
Y605571210007068812374ALVARADO                   CASTILLO                   JORGE RICARDO              00000000000000015082016     020000009635303  2                  9
Y605571210028907155882VALERIANO                  GOMORA                     ROBERTO CRISPIN            00000000000000015082016     020000009635403  2                  9
Y605571210096139478729RODRIGUEZ                  LOPEZ                      GUSTAVO ARMANDO            00000000000000016082016     020000015171903  2                  9
Y605571210092897207533OLIVA                      LAGUNA                     MIGUEL ANGEL               00000000000000015082016     020000015177403  2                  9
Y605571210044159774171POSADAS                    GARCIA                     ERIKA                      00000000000000010082016     020000015179803  2                  9
Y605571210023027409459GALLEGOS                   ARAIZA                     ALEJANDRO                  00000000000000016082016     020000025002903  2                  9
Y605571210083977704028CERINO                     CERINO                     ISIDRO                     00000000000000016082016     020000027044303  2                  9
Y605571210083947932022PRIEGO                     HERNANDEZ                  NICOLAS                    00000000000000016082016     020000027053503  2                  9
Y605571210065058521546ZAYAS                      BARRIENTOS                 JAIR                       00000000000000016082016     020000030120903  2                  9
Y605571210065119357476BAUTISTA                   HERNANDEZ                  LUIS ALFREDO               00000000000000016082016     020000030121703  2                  9
