R143868210308148202149GARCIA                     ARANDA                     JOSE ALEJANDRO             00000000000000003082016     020000014001702  2                  9
R143868210375129457208MUÒOZ                      MADRIGAL                   MARIO                      00000000000000028072016     020000014088703  2                  9
R143868210302168297998DIAZ                       PONCE                      GERARDO                    00000000000000002082016     020000014118103  2                  9
R143868210310169223061GUZMAN                     BECERRA                    ROSALBA                    00000000000000001082016     020000014118503  2                  9
