Y607431310426159584742VEGA                       HERNANDEZ                  JESUS GABRIEL              00000000000000019012023     020000009021903  2                  9
Y607431310496968110427PALOMARES                  DELGADO                    RODOLFO ARTURO             00000000000000020012023     020000009024803  2                  9
Y607431310428927122342JUAREZ                     TORRES                     SANDRA LUZ                 00000000000000019012023     020000009025003  2                  9
Y607431310430210253842FLORES                     TRUJILLO                   JAIME JAIR                 00000000000000024012023     020000009025203  2                  9
