Y605571210037937113209HUESCA                     RIVERA                     ALEJANDRO EDGARDO          00000000000000002062016     020000009035702  2                  9
Y605571210096068610938ELIAS                      ESPINOSA                   ALEJANDRA PAOLA            00000000000000003062016     020000009590403  2                  9
Y605571210046907230950MORA                       RESENDIZ                   CESAR                      00000000000000003062016     020000009616803  2                  9
Y605571210092088830531JUAREZ                     RIOS                       JHONNY                     00000000000000001062016     020000015136703  2                  9
Y605571210071099303506CORDERO                    AGUIRRE                    JOSE DANIEL                00000000000000001062016     020000015142103  2                  9
Y605571210071099303506CORDERO                    AGUIRRE                    JOSE DANIEL                00000000000000001062016     020000015142103  2                  9
Y605571210041048611770GUZMAN                     HERNANDEZ                  JAMILETH                   00000000000000002062016     020000019001302  2                  9
Y605571210002159659669SAENZ                      ARMENTA                    JESUS ELISEO               00000000000000002062016     020000019050703  2                  9
Y605571210049947557416HERNANDEZ                  DEL ANGEL                  ESTEBAN                    00000000000000003062016     020000028021103  2                  9
Y605571210009907343314ANGUIANO                   LOPEZ                      FERNANDO                   00000000000000003062016     020000028030803  2                  9
Y605571210009048805502TREJO                      GARZA                      NESTOR JOZIEL              00000000000000003062016     020000028031103  2                  9
Y605571210009069108828ESCOBEDO                   DE LA O                    EDGAR ALEJANDRO            00000000000000003062016     020000028031303  2                  9
Y605571210038149116550GARCIA                     NABOR                      HECTOR                     00000000000000003062016     020000028031603  2                  9
