A836767410981017002502ZALDIVAR                   PADILLA                    NOEL                       00000000000000008082017     020000002060503  2                  9
A836767410935988045049CRUZ                       VELASCO                    LORENZO TADEO              00000000000000008082017     020000008079203  2                  9
A836767410952008412505RODRIGUEZ                  GAYTAN                     PASCUAL                    00000000000000008082017     020000008079603  2                  9
