A482760210352078901916CORONADO                   TREJO                      RAFAEL DE JESUS            00000000000000013122016     020000006002903  2                  9
A482760210352089000526RODRIGUEZ                  HERNANDEZ                  ADAN                       00000000000000013122016     020000006003103  2                  9
A482760210352139408075AVALOS                     AMEZCUA                    JAIME                      00000000000000013122016     020000006003603  2                  9
