A836767410933806415411PAYAN                                                 ARMANDO                    00000000000000002022017     020000008044103  2                  9
A836767410903168957813MADRIGAL                   MORALES                    MARIA JUANA                00000000000000002022017     020000008046503  2                  9
A836767410935119322101NAÒEZ                      BURROLA                    LUIS FERNANDO              00000000000000002022017     020000008061603  2                  9
A836767410950907113117MENDIVIL                   VAZQUEZ                    LINA VERONICA              00000000000000002022017     020000008063803  2                  9
A836767410933048735402MARQUEZ                    MARQUEZ                    RAMON ALONSO               00000000000000002022017     020000008064303  2                  9
A836767410937927613721RODRIGUEZ                  ARANDA                     JOSE GUADALUPE             00000000000000002022017     020000008067603  2                  9
A836767410925149667633ENRIQUEZ                   HERNANDEZ                  RUBEN                      00000000000000002022017     020000008069403  2                  9
