Y605571210039887124186DIAZ                       ORTEGA                     ALBERTO                    00000000000000022012017     020000009623403  2                  9
Y605571210063159814373CAZARES                    HERRERA                    ALEXIS FERNANDO            00000000000000022012017     020000009660903  2                  9
Y605571210002168653075ZARZA                      MATA                       JOSE JORGE                 00000000000000023012017     020000009675103  2                  9
Y605571210098119324816ORTIZ                      GONZALEZ                   DANIEL                     00000000000000023012017     020000015183003  2                  9
Y605571210065139612504LOPEZ                      VALEN                      JOSE LUIS                  00000000000000020012017     020000022047703  2                  9
Y605571210014079035680RINCON                     GARCIA                     MIGUEL ANGEL               00000000000000018012017     020000022054203  2                  9
Y605571210082078412895ANGULO                     TORRES                     ALVIN OBET                 00000000000000024012017     020000023038403  2                  9
Y605571210005149760729LEON                       SALAS                      JESUS EZEQUIEL             00000000000000023012017     020000025009203  2                  9
