Y605571210045078923781GONZALEZ                   GONZALEZ                   MARIBEL                    00000000000000009022017     020000009041702  2                  9
Y605571210020008221937LOZANO                     ESTRADA                    MARIA ISABEL               00000000000000008022017     020000009547503  2                  9
Y605571210030008216407GARCIA                     HERNANDEZ                  ALEJANDRO                  00000000000000007022017     020000009644703  2                  9
Y605571210030886512083MARTINEZ                   GARCIA                     MARIA DE JESUS             00000000000000006022017     020000009659503  2                  9
Y605571210042018117111ACOSTA                     AVILES                     MONICA                     00000000000000006022017     020000009672803  2                  9
Y605571210096068318300BANDA                      BACA                       JONATHAN                   00000000000000010022017     020000009673503  2                  9
Y605571210067018115872HERNANDEZ                  TRUJILLO                   LUIS ARTURO                00000000000000010022017     020000022047203  2                  9
Y605571210023998182598FELIX                      PARDO                      MARIO GUADALUPE            00000000000000009022017     020000025002003  2                  9
Y605571210065947232867RAMOS                      BUSTAMANTE                 ALEJANDRO                  00000000000000010022017     020000030128103  2                  9
