Y605571210032088403384HERNANDEZ                  LUGO                       REYNALDO                   00000000000000017012017     020000005011803  2                  9
Y605571210096927549913MARTINEZ                   ESTRADA                    SANTOS                     00000000000000018012017     020000009636703  2                  9
Y605571210043028466464RAMIREZ                    VALLE                      JUAN RAMON                 00000000000000018012017     020000019083803  2                  9
Y605571210043856614821RIVERA                     RODRIGUEZ                  VICENTE                    00000000000000017012017     020000019091103  2                  9
Y605571210043857025597MARTINEZ                   MEDINA                     JUAN                       00000000000000018012017     020000019093703  2                  9
Y605571210008149817069GARZA                      DE LEON                    LUIS ANGEL                 00000000000000018012017     020000019094203  2                  9
Y605571210014018431933ALVARADO                   ESCAMILLA                  PEDRO                      00000000000000017012017     020000022053003  2                  9
Y605571210067987011078PEÒA                       ROJAS                      ARACELI                    00000000000000018012017     020000030127303  2                  9
Y605571210065129482058SALAZAR                    SIMBRON                    LEONIDES                   00000000000000018012017     020000030132403  2                  9
