A836767410933139206412PEREZ                      AGUILAR                    OSCAR NOEL                 00000000000000009082016     020000008052303  2                  9
A836767410933079008026GONZALEZ                   TORRES                     JESUS                      00000000000000009082016     020000008053503  2                  9
A836767410933079008026GONZALEZ                   TORRES                     JESUS                      00000000000000009082016     020000008053503  2                  9
