R143868210354897219520SANCHEZ                    CERVANTES                  ADOLFO                     00000000000000019072017     020000014120903  2                  9
R143868210356877270431VALDEZ                     RODRIGUEZ                  MARCO ANTONIO              00000000000000019072017     020000014131903  2                  9
R143868210304906848124SANTOYO                    RAMIREZ                    ROSA MARIA                 00000000000000018072017     020000014134003  2                  9
