Y605571210043079002838SANCHEZ                    GARCIA                     FRANCISCO JAVIER           00000000000000012012017     020000005012003  2                  9
Y605571210054169692842MONDRAGON                  LEYVA                      ARMANDO                    00000000000000010012017     020000009657003  2                  9
Y605571210096127702270SANCHEZ                    DIAZ                       IMELDA                     00000000000000009012017     020000009672903  2                  9
Y605571210094067101538AQUINO                     GARCIA                     SARA ALICIA                00000000000000009012017     020000009673703  2                  9
Y605571210002168408231RIEGO                      DIAZ                       MARIA LUISA                00000000000000010012017     020000009674303  2                  9
Y605571210047896947984GUZMAN                     CANTU                      ROLANDO                    00000000000000013012017     020000019002402  2                  9
Y605571210084077804817OLIVA                      MOGUEL                     PEDRO ADRIAN               00000000000000013012017     020000023041503  2                  9
Y605571210023866802459GARCIA                     HERNANDEZ                  JAVIER                     00000000000000012012017     020000025012103  2                  9
