Y605571210019148818412FLORES                     RAMIREZ                    MANUEL                     00000000000000026042016     020000009538103  2                  9
Y605571210008169544270CORTES                     YAÑEZ                      ROBERTO                    00000000000000025042016     020000009595103  2                  9
Y605571210096119370284DE LA CRUZ                 FLORES                     CARLOS ALBERTO             00000000000000025042016     020000009607303  2                  9
Y605571210075866514864VERA                       AVALOS                     GRACIELA EDIT              00000000000000025042016     020000009607803  2                  9
Y605571210045068534044ARELLANO                   GALVAN                     OMAR                       00000000000000028042016     020000009608303  2                  9
Y605571210042129720027CRESENCIO                  NAVARRO                    ALEXIS URIEL               00000000000000025042016     020000009609403  2                  9
Y605571210082886707288ALARCON                    DEGANTE                    LIBRADO                    00000000000000025042016     020000023024703  2                  9
