Y462621510992008416296PERCASTEGUI                PEDRAZA                    CEDRIC ANTONIO             00000000000000005112016     020000021150803  2                  9
Y462621510910169708467BERNABE                    HERNANDEZ                  JUAN MANUEL                00000000000000007112016     020000021153003  2                  9
Y462621510948028308152PEREZ                       REYES                     ANDRES                     00000000000000005112016     020000021153903  2                  9
Y462621510927159407181ALMANZA                    MADRID                     FERNANDO                   00000000000000005112016     020000021154103  2                  9
Y462621510903148809233SOLIS                      SANCHEZ                    JOSE RICARDO               00000000000000006112016     020000021156203  2                  9
Y462621510948129002449HERNANDEZ                  BENITEZ                    JOSE ADRIAN                00000000000000006112016     020000021157603  2                  9
