Y605571210092068716924MARTINEZ                   ESTRADA                    ALBERTO MARIO JORGE        00000000000000011082017     020000009044002  2                  9
Y605571210045106801066SALINAS                    SANCHEZ                    FIDELIA GUADALUPE          00000000000000014082017     020000009611103  2                  9
Y605571210042998215570ALVAREZ                    FRANCO                     ALBERTO JORGE              00000000000000014082017     020000009654603  2                  9
Y605571210094008407671MAGA—A                     TORRES                     EDUARDO                    00000000000000014082017     020000009687303  2                  9
Y605571210094937523655GARCIA                     PERALTA                    JUAN MIGUEL                00000000000000012082017     020000009707503  2                  9
Y605571210045048811413DOMINGUEZ                  VELASCO                    AARON                      00000000000000013082017     020000009713603  2                  9
Y605571210096068855566ROMERO                     GARCIA                     ESTEBAN TOBIAS             00000000000000014082017     020000009716003  2                  9
Y605571210053169751491VARGAS                     LOPEZ                      KARLA LIZETH               00000000000000012082017     020000009717203  2                  9
Y605571210020947727549JOSE                       BECERRIL                   JORGE                      00000000000000011082017     020000009718703  2                  9
Y605571210045927213335ALVARADO                   MEDINA                     JUAN LUIS                  00000000000000014082017     020000009719103  2                  9
Y605571210008179396604HERNANDEZ                  ARENAS                     TONATIUH PEDRO             00000000000000014082017     020000009719403  2                  9
Y605571210037976601569MARTINEZ                   PEREZ                      JAIME JUAN                 00000000000000014082017     020000009720203  2                  9
Y605571210039008121020JIMENEZ                    MEDINA                     JAVIER                     00000000000000014082017     020000009722903  2                  9
Y605571210003816301281ESTUPIÒAN                  RIOS                       NORMA EVITA                00000000000000012082017     020000019111003  2                  9
Y605571210009068213850HERNANDEZ                  GONZALEZ                   JORGE ALBERTO              00000000000000012082017     020000019122503  2                  9
Y605571210043139459531BAUTISTA                   BAUTISTA                   ZENON                      00000000000000014082017     020000019122803  2                  9
Y605571210014129459161TREJO                      SOLIS                      EMMANUEL                   00000000000000008082017     020000022016403  2                  9
Y605571210013857006640ROJO                       HERNANDEZ                  VERONICA                   00000000000000014082017     020000022052703  2                  9
Y605571210072029803086CERVANTES                  MARTINEZ                   JESUS OMAR                 00000000000000010082017     020000022055303  2                  9
Y605571210064159870415CRUZ                       MARTINEZ                   NOE ALEJANDRO              00000000000000008082017     020000022060403  2                  9
Y605571210086169731691JIMENEZ                    MEDINA                     BRIAN EDUARDO              00000000000000013082017     020000022063203  2                  9
Y605571210051988224575GUTIERREZ                  PUENTES                    JUAN CARLOS                00000000000000009082017     020000022063903  2                  9
Y605571210068937405030CHAVEZ                     HERNANDEZ                  HECTOR SAUL                00000000000000008082017     020000022064503  2                  9
Y605571210014128912616RAMOS                      GONZALEZ                   CLAUDIA ELIZABETH          00000000000000014082017     020000022065103  2                  9
Y605571210071067203951DE LA CRUZ                 PEREZ                      MARIA ESTELA               00000000000000012082017     020000023051003  2                  9
Y605571210008169890012VASQUEZ                    LUNA                       ALONSO                     00000000000000012082017     020000030154103  2                  9
Y605571210067099003534DECTOR                     GUEVARA                    MAURICIO                   00000000000000012082017     020000030154303  2                  9
