Y462621510948988042791CORDOBA                    MARTINEZ                   FERNANDO                   00000000000000005052017     020000021158603  2                  9
Y462621510956149401194ROQUE                      URIBE                      EMMANUEL                   00000000000000008052017     020000021158703  2                  9
Y462621510962947360426SAAVEDRA                   DE LA ROSA                 ADRIAN                     00000000000000008052017     020000021163403  2                  9
Y462621510948139205180CARRILLO                    LOPEZ                     JOSE DAVID                 00000000000000008052017     020000021167503  2                  9
