Y605571210002158149571RODRIGUEZ                  ALVAREZ                    ALBERTO IVAN               00000000000000018052017     020000009587903  2                  9
Y605571210010866833204MIRANDA                    SANCHEZ                    FAUSTINO                   00000000000000018052017     020000009623303  2                  9
Y605571210037977736257GOMEZ                      ALVA                       JOSE ANTONIO               00000000000000018052017     020000009678803  2                  9
Y605571210017149667168SOTO                       ARENAS                     ADRIAN                     00000000000000018052017     020000009680003  2                  9
Y605571210008179824779MORENO                     GARCIA                     IVON                       00000000000000018052017     020000009684703  2                  9
Y605571210096048539108GARCIA                     GALINDO                    FERNANDO EMMANUEL          00000000000000018052017     020000009694803  2                  9
Y605571210096129116669VARGAS                     DIAZ                       FRANCISCO                  00000000000000017052017     020000009697403  2                  9
Y605571210098109110274DOMINGUEZ                  GOMEZ                      ROCIO ADRIANJA             00000000000000018052017     020000009706003  2                  9
Y605571210008179852614SOTELO                     CRUZ                       JOSUE ANGEL                00000000000000018052017     020000015201003  2                  9
Y605571210016129405755SANCHEZ                    ACUÒA                      LIZBETH                    00000000000000016052017     020000015202003  2                  9
Y605571210043826476657CASTRO                     FABELA                     RUBEN                      00000000000000018052017     020000019090303  2                  9
Y605571210043099065906GARCIA                     MANCILLA                   ANA CRISTINA               00000000000000018052017     020000019106103  2                  9
Y605571210012069050255CAUDILLO                   SIERRA                     MARIA CRUZ                 00000000000000018052017     020000019106203  2                  9
Y605571210056149599567DE LA CRUZ                 FERRAL                     ELIZABETH                  00000000000000018052017     020000019108103  2                  9
Y605571210018169353143CARRIZALES                 ESTRADA                    CINTHIA JAZMIN             00000000000000018052017     020000019112603  2                  9
Y605571210083119407373ALAMILLA                   LOPEZ                      HUGO ENRIQUE               00000000000000018052017     020000027060603  2                  9
Y605571210084966901450LEON                       MORALES                    MARTIN                     00000000000000018052017     020000028035603  2                  9
Y605571210018169311968AMAYA                      CHICAS                     ALDO ADRIAN                00000000000000018052017     020000030136103  2                  9
Y605571210024058404435NEPOMUCENO                 MONTALVO                   RAUL                       00000000000000018052017     020000030138303  2                  9
Y605571210048987708624MARQUEZ                    CRUZ                       LUZ DEL CARMEN             00000000000000018052017     020000030141003  2                  9
Y605571210005149141672SANTOS                     CRUZ                       ALBERTO GERMAN             00000000000000018052017     020000030144303  2                  9
Y605571210078967871209MORENO                     VILLEGAS                   ANTONIO                    00000000000000018052017     020000030144903  2                  9
Y605571210040978113377RITO                       MIÒON                      MIGUEL ANGEL               00000000000000018052017     020000030145703  2                  9
Y605571210003159666878VASCONCELOS                SARAO                      JHONNY                     00000000000000018052017     020000030146003  2                  9
