Y605571210032018200496HEREDIA                    CEDILLO                    MIGUEL                     00000000000000008022017     020000005011403  2                  9
Y605571210011877006384JIMENEZ                    URIBE                      JORGE ISIDORO              00000000000000008022017     020000009421103  2                  9
Y605571210045917537206ESQUIVEL                   MARTINEZ                   JOSE DANIEL                00000000000000005022017     020000009666003  2                  9
Y605571210031785703468VARGAS                     SIMENTEL                   SERGIO                     00000000000000008022017     020000010000103  2                  9
Y605571210031946847030GRACIANO                   GONZALEZ                   JOSE GASTON GERARDO        00000000000000008022017     020000010000403  2                  9
Y605571210010169854287MONTERO                    NITO                       JUAN FRANCISCO             00000000000000005022017     020000011091803  2                  9
Y605571210001139163156SOTO                       CASTILLO                   JESSICA                    00000000000000005022017     020000013013603  2                  9
Y605571210024149701666CABALLERO                  LOPEZ                      YADIRA                     00000000000000007022017     020000013016503  2                  9
Y605571210092089209842GONZALEZ                   LOPEZ                      ROGELIO OMAR               00000000000000004022017     020000015015203  2                  9
Y605571210028886510388MARTINEZ                   DIAZ                       MARGARITA                  00000000000000008022017     020000015162703  2                  9
Y605571210055067402101PEREZ                      ROSAS                      RAMON                      00000000000000005022017     020000018000603  2                  9
Y605571210004816451746MARTINEZ                   MONDRAGON                  ROBERTO                    00000000000000005022017     020000018000803  2                  9
Y605571210074968200209CERVANTES                  ALANIZ                     PEDRO HILARIO              00000000000000005022017     020000018001203  2                  9
Y605571210033018017633GONZALEZ                   ALMEDA                     PEDRO                      00000000000000008022017     020000019093903  2                  9
Y605571210043099107989MENDOZA                    SALAZAR                    DAVID ENRIQUE              00000000000000008022017     020000019100903  2                  9
Y605571210061058801426GOMEZ                      LOEZA                      JUAN CARLOS                00000000000000004022017     020000029005303  2                  9
Y605571210061038702363HERNANDEZ                  MENDEZ                     JORGE LUIS                 00000000000000004022017     020000029005603  2                  9
Y605571210061007605118ALVARES                    ENRIQUEZ                   NELSO                      00000000000000004022017     020000029005703  2                  9
Y605571210061907405486FERMIN                     BADILLO                    REYES JAVIER               00000000000000004022017     020000029006803  2                  9
