Y605571210042008302624GONZALEZ                   HUERTA                     ARTURO                     00000000000000011082017     020000009681103  2                  9
Y605571210008179790434SERRANO                    SANTIAGO                   LUIS ALBERTO               00000000000000011082017     020000009716803  2                  9
Y605571210001917445320VARELA                     VICTORIA                   PEDRO                      00000000000000011082017     020000009719703  2                  9
Y605571210042997610169PALACIOS                   SALVADOR                   ALEJANDRO                  00000000000000011082017     020000009724203  2                  9
Y605571210001068713815GARCIA                     SANTOS                     FABIOLA VIOLETA            00000000000000010082017     020000015216903  2                  9
Y605571210047068971085AMARO                      COVARRUBIAS                JUAN GREGORIO              00000000000000011082017     020000019122303  2                  9
Y605571210009068437608DEL ANGEL                  DEL ANGEL                  ARNULFO                    00000000000000010082017     020000023043203  2                  9
Y605571210010179591879ALVARADO                   HERRERA                    JUAN DIEGO                 00000000000000010082017     020000028042003  2                  9
