R143868210304088975570AGUIÒIGA                   PONCE                      SANDRA ARACELI             00000000000000018062016     020000014102003  2                  9
R143868210304027005265RUIZ                       VARGAS                     MARTHA INES                00000000000000019062016     020000014115803  2                  9
R143868210305169785143RUELAS                     CARRILLO                   EDGAR IVAN                 00000000000000019062016     020000014115903  2                  9
R143868210304129428241GONZALEZ                   GUTIERREZ                  BRENDA LETICIA             00000000000000020062016     020000014116003  2                  9
