Y605571210063825904749MANTEROLA                  ORTIZ                      SARA                       00000000000000002062016     020000009028202  2                  9
Y605571210045068757041ELIZALDE                   TORRES                     LEOBARDO                   00000000000000008062016     020000009581103  2                  9
Y605571210096067806297MEJIA                      ORDUÑA                     JUAN MARTIN                00000000000000008062016     020000009608403  2                  9
Y605571210042088903069VELAZQUEZ                  MARTINEZ                   DWEEZIL JOAQUIN            00000000000000006062016     020000009616703  2                  9
Y605571210006169200463GONZALEZ                   MARTIN                     NALLELY                    00000000000000006062016     020000011000502  2                  9
Y605571210049149684018SORIA                      SANTILLAN                  JOSE MARCOS                00000000000000005062016     020000014103003  2                  9
Y605571210004129556090MORALES                    PADILLA                    JOSE GUILLERMO             00000000000000004062016     020000014108403  2                  9
Y605571210071099031842LANDA                      REYES                      FORTINO                    00000000000000008062016     020000023025103  2                  9
Y605571210083129334021PALMA                      URIBE                      JESUS EDUARDO              00000000000000008062016     020000027046703  2                  9
Y605571210084806103481FIGUEROA                   ARGAEZ                     MARCO ANTONIO              00000000000000008062016     020000031024203  2                  9
