Y605571210039048604563GARCIA                     PONCE                      ESTEBAN                    00000000000000016032017     020000002051303  2                  9
Y605571210096109252906MIL                        ANTEMATE                   ERIK                       00000000000000017032017     020000009579303  2                  9
Y605571210045947648429GARCIA                     MUNIVE                     OSCAR VENANCIO             00000000000000016032017     020000009587203  2                  9
Y605571210092129126311ORTEGA                     ORTEGA                     JORGE                      00000000000000016032017     020000009622103  2                  9
Y605571210070169863431APARICIO                   SANCHEZ                    VANESSA                    00000000000000017032017     020000009669003  2                  9
Y605571210096988113484MORALES                    ARREOLA                    ANDRES                     00000000000000013032017     020000009684903  2                  9
Y605571210010179833685VAZQUEZ                    RAMIREZ                    RODRIGO                    00000000000000016032017     020000009688603  2                  9
Y605571210020018322642POSADAS                    LIRA                       DAINA CRISTAL              00000000000000017032017     020000009689203  2                  9
Y605571210096048200644VAZQUEZ                    MOTA                       ERASMO MIGUEL              00000000000000017032017     020000009689303  2                  9
Y605571210011917411495GARCIA                     ALDRETE                    SALVADOR                   00000000000000017032017     020000015087503  2                  9
Y605571210092119343090TEMIMILPA                  BONILLA                    JENIFER MARESA             00000000000000017032017     020000015198803  2                  9
Y605571210049976912300ONTIVEROS                  RODRIGUEZ                  JUAN                       00000000000000017032017     020000028039603  2                  9
