Y605571210049159653135DIAZ                       MARTINEZ                   ESTEBAN JOSE               00000000000000016122016     020000004009003  2                  9
Y605571210004169863885MORENO                     ZAVALETA                   ANGEL ALFREDO              00000000000000016122016     020000009653603  2                  9
Y605571210045876830204SOTO                       RIOS                       JAVIER                     00000000000000012122016     020000009661203  2                  9
Y605571210092058821627APODACA                    MORENO                     RICARDO                    00000000000000013122016     020000015183103  2                  9
Y605571210094028212366NEGRETE                    YAÑEZ                      PAULINO                    00000000000000016122016     020000019092903  2                  9
Y605571210043109251496GARCIA                     LOZANO                     CYNTHIA ESMERALDA          00000000000000015122016     020000019094603  2                  9
Y605571210083119125041SOLANO                     RODRIGUEZ                  BERTIN                     00000000000000016122016     020000027056703  2                  9
Y605571210065018600711USCANGA                    LOPEZ                      ANTONIO                    00000000000000016122016     020000030060103  2                  9
Y605571210065018013790OJEDA                      ALAVEZ                     CANDIDO MOISES             00000000000000016122016     020000030124703  2                  9
Y605571210065109155757LOPEZ                      REYES                      ALEJANDRO                  00000000000000016122016     020000030129103  2                  9
