Y607431310410169434981MORENO                     LANCIEGO                   JOVANY ALEXANDER           00000000000000010112022     020000009021403  2                  9
Y607431310420109304210ZEPEDA                     PUEBLA                     OMAR                       00000000000000010112022     020000009023803  2                  9
Y607431310445048413624ROJAS                      PEREZ                      LUIS FERNANDO              00000000000000011112022     020000009023903  2                  9
