A836767410933988216165CORONADO                   RODRIGUEZ                  GERRY AUDEL                00000000000000022082017     020000008053803  2                  9
A836767410933058415390HERNANDEZ                  PALOMINO                   JOSSUE                     00000000000000023082017     020000008076403  2                  9
A836767410933089052642VAZQUEZ                    MONTAÒEZ                   GUSTAVO                    00000000000000023082017     020000008079103  2                  9
