Z064567510803149558094DOMINGUEZ                  GARCIA                     JUAN CARLOS                00000000000000016022017     020000009467803  2                  9
Z064567510803179831312CASTILLO                   GOMEZ                      ALEJANDRO ASAHEL           00000000000000016022017     020000011093003  2                  9
Z064567510812877069802REYES                      VERA                       SERGIO BENEDICTO           00000000000000020022017     020000011093803  2                  9
Z064567510812088504118COSS                       GARCIA                     MARIANA FABIOLA            00000000000000016022017     020000011094503  2                  9
Z064567510812977886279CAMACHO                    CAUDILLO                   MIGUEL ANGEL               00000000000000019022017     020000011095503  2                  9
