Y605571210005169287165HERNANDEZ                  SANTIZ                     SILVIA                     00000000000000001032017     020000007013503  2                  9
Y605571210096139534554GONZALEZ                   FUENTES                    LUIS FELIPE                00000000000000028022017     020000009428003  2                  9
Y605571210045058544516ARRIOLA                    RIVAS                      ADRIAN                     00000000000000002032017     020000009651103  2                  9
Y605571210057169861671GONZALEZ                   RIOJA                      JORGE                      00000000000000002032017     020000009685503  2                  9
Y605571210013998230505FRANCISCO                  GARCIA                     BENJAMIN                   00000000000000001032017     020000013011103  2                  9
Y605571210042988118164JIMENEZ                    LOPEZ                      SONIA                      00000000000000001032017     020000015179203  2                  9
Y605571210092078939177GONZALEZ                   SALAS                      MONICA GUADALUPE           00000000000000002032017     020000015180303  2                  9
Y605571210095119205599FLORES                     CERVANTES                  JUANA IRIS                 00000000000000002032017     020000015190103  2                  9
Y605571210020947812002VALLEJO                    AVELAR                     BERENICE                   00000000000000028022017     020000015191103  2                  9
Y605571210092927336799LIRA                       RIOS                       BENITO                     00000000000000002032017     020000015192403  2                  9
Y605571210043745630004RODRIGUEZ                  CRUZ                       ENRIQUE                    00000000000000002032017     020000019088703  2                  9
Y605571210043008411233ESPINOZA                   MOLINA                     FIDEL                      00000000000000002032017     020000019101503  2                  9
Y605571210047068964544LUNA                       FABELA                     FLOR GRISELDA              00000000000000001032017     020000019102703  2                  9
Y605571210065109101124SALAZAR                    ARTEAGA                    ILSE NALLELY               00000000000000001032017     020000019102803  2                  9
Y605571210038169429248RAMIREZ                    GONZALEZ                   MIRIAM LORENA              00000000000000001032017     020000019102903  2                  9
Y605571210014907242318MENESES                    LOPEZ                      JULIO                      00000000000000002032017     020000022049103  2                  9
Y605571210026169561391CERVANTES                  MARTINEZ                   MARIA ALEJANDRA            00000000000000002032017     020000022056103  2                  9
Y605571210084998312411MEDINA                     SANTOS                     JAMILY MARITZA             00000000000000002032017     020000023034403  2                  9
Y605571210054169739445FELIPE                     RAMIREZ                    POLICARPO                  00000000000000001032017     020000023040103  2                  9
Y605571210072048516552OLEA                       CASTAÒEDA                  IVAN DAVID                 00000000000000001032017     020000023043003  2                  9
Y605571210067967552695FERNANDEZ                  HERNANDEZ                  FELIPE                     00000000000000001032017     020000030114403  2                  9
