Y605571210025169627913MUÑOZ                      AZUARA                     EDUARDO GAMALIEL           00000000000000013022017     020000009642303  2                  9
Y605571210096148900424GARRIDO                    MARTINEZ                   MARIA AGUEDA               00000000000000013022017     020000009643203  2                  9
Y605571210003167911746VALENCIANO                 REVERIANO                  NAPOLEON                   00000000000000008022017     020000009646403  2                  9
Y605571210005149368408ROSALES                    DELGADO                    FERNANDO ENRIQUE           00000000000000014022017     020000009652603  2                  9
Y605571210069149613270JIMENEZ                    ORTEGA                     YENSEN ABRAHAM             00000000000000014022017     020000009675703  2                  9
Y605571210094088915098BAUTISTA                   BALDOVINOS                 PEDRO                      00000000000000014022017     020000015097603  2                  9
Y605571210019169726866HERNANDEZ                  BRAVO                      LUIS MANUEL                00000000000000014022017     020000015187503  2                  9
Y605571210078906515891ALDERETE                   MARTINEZ                   NELSON                     00000000000000013022017     020000020025703  2                  9
Y605571210003148068269CASTAÑON                   REVELES                    MIGUEL ANGEL               00000000000000011022017     020000032001303  2                  9
Y605571210044149445213RAMIREZ                    JUAREZ                     JOSE FERNANDO              00000000000000011022017     020000032001703  2                  9
