Y605571210019149703753PANFILO                    BONIFACIO                  ISABEL                     00000000000000025042017     020000009655203  2                  9
Y605571210019149826349MENDEZ                     SANTIAGO                   GERARDO                    00000000000000026042017     020000009685603  2                  9
Y605571210022937804205ORTIZ                      MIGUEL                     CAYETANO                   00000000000000027042017     020000009691103  2                  9
Y605571210030987412043VILLANUEVA                 SANCHEZ                    ROMAN                      00000000000000025042017     020000009695803  2                  9
Y605571210096008118778AVENDAÑO                   GARCIA                     CARLOS                     00000000000000027042017     020000009696603  2                  9
Y605571210046119209156HERNANDEZ                  NOCHEBUENA                 LUIS DAVID                 00000000000000025042017     020000009696903  2                  9
Y605571210045129410697CASTRO                     SUAZO                      SAMUEL                     00000000000000024042017     020000009697203  2                  9
Y605571210003169463464RIVERA                     BARRADAS                   ALICIA                     00000000000000026042017     020000009698803  2                  9
Y605571210092008256155ARIAS                      RUIZ                       KARLA                      00000000000000028042017     020000015203703  2                  9
Y605571210008159604936TZAB                       MUGARTE                    ROBERTO ADRIAN             00000000000000027042017     020000023045303  2                  9
