Y605571210067058600072ANGULO                     RODRIGUEZ                  ANTONIO                    00000000000000014092016     020000004007003  2                  9
Y605571210082998128043CARRANZA                   MIRELES                    PEDRO                      00000000000000008092016     020000004007303  2                  9
Y605571210011876904050GOMEZ                      FLORES                     FRANCISCO                  00000000000000008092016     020000009641003  2                  9
Y605571210038159300458GARCIA                     TEJADA                     ADRIAN                     00000000000000012092016     020000009641903  2                  9
Y605571210045109137682POBLANO                    HERNANDEZ                  KARLA ESTEPHANIA           00000000000000011092016     020000009642503  2                  9
Y605571210016138400185LOPEZ                      VEGA                       AZUCENA                    00000000000000011092016     020000015168003  2                  9
Y605571210003157843701SANCHEZ                    BETANCOURT                 MIGUEL                     00000000000000014092016     020000016008503  2                  9
Y605571210051057501440LOPEZ                      ROSALES                    MARTHA CECILIA             00000000000000013092016     020000025003903  2                  9
