Y605571210045129318528GONZALEZ                   TORRES                     HECTOR                     00000000000000021062016     020000009608103  2                  9
Y605571210096058545193MARTINEZ                   MARTINEZ                   ANGEL                      00000000000000016062016     020000009616603  2                  9
Y605571210015169299649RIFKA                      GUILLEN                    SAMANTHA HTAED             00000000000000020062016     020000015002002  2                  9
Y605571210004109015885HERNANDEZ                  ESQUIVEL                   JOSE ANTONIO               00000000000000021062016     020000015175403  2                  9
Y605571210026159784516SANCHEZ                    GARIBAY                    JONATHAN EFRAIN            00000000000000021062016     020000015175503  2                  9
Y605571210067129004353MENDOZA                    GUERRERO                   RAYMUNDO                   00000000000000016062016     020000019079903  2                  9
