Y605571210037937423228BUENO                      SOTO                       MARIA GUADALUPE            00000000000000009062017     020000007002002  2                  9
Y605571210017796077059MARTINEZ                   VALDERRAMA                 ENRIQUE                    00000000000000015062017     020000009041802  2                  9
Y605571210092079109812HERNANDEZ                  ROCHIN                     ELLIOT DANIEL              00000000000000014062017     020000009042502  2                  9
Y605571210028916918619MARTINEZ                   RODRIGUEZ                  MARIO ALBERTO              00000000000000014062017     020000009663903  2                  9
Y605571210028109101296CORTES                     MONTIEL                    JULIO CESAR                00000000000000015062017     020000009681703  2                  9
Y605571210042028600676ANGELES                    PEÑALOZA                   YESSENIA                   00000000000000009062017     020000009694403  2                  9
Y605571210096068412673GUERRERO                   VELAZQUEZ                  SERGIO VICENTE             00000000000000015062017     020000009702803  2                  9
Y605571210043887061406CONTRERAS                  RODRIGUEZ                  JUAN ALFONSO               00000000000000015062017     020000019115203  2                  9
