Y605571210030047901498GONZALEZ                   DE JESUS                   VICTOR HUGO                00000000000000003052017     020000009041202  2                  9
Y605571210016129358814MONROY                     MEJIA                      BRUNO HILARIO              00000000000000004052017     020000009041402  2                  9
Y605571210004169734870ARELLANO                   ESCARCEGA                  IRANI                      00000000000000007052017     020000009658703  2                  9
Y605571210005148980146ESPINOZA                   LLAMAS                     ISABEL                     00000000000000006052017     020000009682503  2                  9
Y605571210002178673634GONZALEZ                   MARTINEZ                   SHEILA DE JESUS            00000000000000006052017     020000009694503  2                  9
Y605571210096986901914LLAMAS                     PACHECO                    CARMEN                     00000000000000005052017     020000009696203  2                  9
Y605571210020896510532URSUA                      PADILLA                    FRANCO                     00000000000000009052017     020000009700103  2                  9
Y605571210016997922048MEZA                       ARZATE                     LETICIA                    00000000000000004052017     020000015096103  2                  9
Y605571210067098800955SILVA                      BRAVO                      HILARIO                    00000000000000009052017     020000019109903  2                  9
Y605571210003907320620LOPEZ                      PEÒA                       ALFREDO                    00000000000000008052017     020000019110803  2                  9
Y605571210002178633224ENRIQUEZ                   MARTINEZ                   GABINO                     00000000000000009052017     020000022057003  2                  9
Y605571210065008042130RAMIREZ                    HERNANDEZ                  VICTOR MANUEL              00000000000000009052017     020000030128303  2                  9
