R143868210304139367819SOTO                       ANDUAGA                    FRANCISCO RUBEN            00000000000000020022017     020000014124703  2                  9
R143868210354149487321REYES                      MOLINA                     ISMAEL                     00000000000000020022017     020000014128703  2                  9
R143868210304876443450MENDOZA                    LOPEZ                      JAVIER                     00000000000000020022017     020000014129303  2                  9
