Y605571210096967923911HERNANDEZ                  CORTES                     GERARDO                    00000000000000024072017     020000009041302  2                  9
Y605571210012866950137GARCIA                                                JAVIER                     00000000000000021072017     020000009540803  2                  9
Y605571210076176300176MORA                       CHAVEZ                     LUIS                       00000000000000025072017     020000009628903  2                  9
Y605571210068149516699HERNANDEZ                  ROMERO                     DANIEL ALBERTO             00000000000000024072017     020000009682103  2                  9
Y605571210030089006172PEREZ                      TORRES                     JUAN                       00000000000000024072017     020000009703303  2                  9
Y605571210018179891132ZUÑIGA                     LOPEZ                      JORGE                      00000000000000023072017     020000009703903  2                  9
Y605571210003897318865ROCHA                      RUVALCABA                  ROSENDO                    00000000000000024072017     020000019088803  2                  9
Y605571210041947305813ESTRADA                    FLORES                     EMILIO                     00000000000000025072017     020000019114003  2                  9
Y605571210063149574889CERVANTES                  HERNANDEZ                  BRAULIO                    00000000000000025072017     020000019119703  2                  9
Y605571210043068965144GUEVARA                    PEREZ                      LUIS ARTURO                00000000000000025072017     020000019120203  2                  9
Y605571210057169733987JIMENEZ                    VILLANUEVA                 BRAYAN JESUS               00000000000000024072017     020000028038903  2                  9
