Y605571210010159666543SANDOVAL                   SILVA                      ALAN FERNANDO              00000000000000027032017     020000009525003  2                  9
Y605571210045039300194FERNANDEZ                  SUAREZ                     CARLOS RAFAEL              00000000000000027032017     020000009678903  2                  9
Y605571210028887002443VERGARA                    DIAZ                       TOMAS JUAN                 00000000000000027032017     020000009691803  2                  9
Y605571210003179799006ESCOBAR                    CANDANOSA                  CARMEN YESENIA             00000000000000025032017     020000019102403  2                  9
Y605571210047068958801RAMIREZ                    CASAS                      ANGEL DE JESUS             00000000000000025032017     020000019104103  2                  9
Y605571210043069027548MARIN                      GARCIA                     MERARY ELIZABETH           00000000000000027032017     020000019104403  2                  9
Y605571210096048637902CARVAJAL                   VIDA—A                     ESMERALDA                  00000000000000027032017     020000019106503  2                  9
Y605571210035988198079MUÒOZ                      SANDOVAL                   LIONEL                     00000000000000027032017     020000019106603  2                  9
Y605571210017159205719JUAREZ                     HERNANDEZ                  ALDO GERARDO               00000000000000025032017     020000022056803  2                  9
Y605571210023907405098BASTIDAS                   GASTELUM                   ADRIAN ENRIQUE             00000000000000027032017     020000025014703  2                  9
Y605571210023856557329BARRERAS                   REYNAGA                    GUSTAVO MANUEL             00000000000000027032017     020000025015103  2                  9
Y605571210010149761180LEON                       MONTEJO                    LUIS FERNANDO              00000000000000027032017     020000030115103  2                  9
Y605571210067048627599CHAVEZ                     AVILA                      CARLOS ALBERTO             00000000000000027032017     020000030117503  2                  9
Y605571210067139129208RODRIGUEZ                  GARCIA                     HERIBERTO                  00000000000000026032017     020000030123403  2                  9
Y605571210065139011079GUTIERREZ                  MERCADO                    PABLO                      00000000000000025032017     020000030125503  2                  9
Y605571210005168871423GARCIA                     PEDRO                      BLANCA ESTELA              00000000000000026032017     020000030131203  2                  9
Y605571210067118919975HERNANDEZ                  CASTILLO                   ESTELA                     00000000000000027032017     020000030143903  2                  9
