Y605571210051008111471TISCAREÒO                  CISNEROS                   ARTURO                     00000000000000021122016     020000001006503  2                  9
Y605571210045098509396MONROY                     SANCHEZ                    ERNESTO                    00000000000000020122016     020000009038702  2                  9
Y605571210027149034764JASPEADO                   CRUZ                       ARTURO                     00000000000000020122016     020000009554703  2                  9
Y605571210024927645077PEREZ                      ALVAREZ                    ANGEL                      00000000000000021122016     020000009596303  2                  9
Y605571210045079108770PE—A                       GARCIA                     JOSE ANTONIO               00000000000000021122016     020000009600803  2                  9
Y605571210001998024879GOMEZ                      ESCALANTE                  MOISES                     00000000000000021122016     020000009621003  2                  9
Y605571210005159331452SANJUAN                    HERRERA                    UBALDO                     00000000000000021122016     020000009622603  2                  9
Y605571210096007601311SEGURA                     VELAZQUEZ                  JOSE ABUNDIO               00000000000000020122016     020000009634703  2                  9
Y605571210011927132081NORIEGA                    ALCANTARA                  FRANCISCO                  00000000000000021122016     020000009635603  2                  9
Y605571210019149480402PEREZ                      MARTINEZ                   ROBERTO DANIEL             00000000000000019122016     020000009642403  2                  9
Y605571210005129445929CRUZ                       HERNANDEZ                  JOSE ALBERTO               00000000000000021122016     020000009644503  2                  9
Y605571210004169863885MORENO                     ZAVALETA                   ANGEL ALFREDO              00000000000000016122016     020000009653603  2                  9
Y605571210096139552275RAMOS                      MARTINEZ                   SANDRA                     00000000000000020122016     020000009654003  2                  9
Y605571210059169839111VASQUEZ                    RODRIGUEZ                  FIDEL FRANCISCO            00000000000000020122016     020000009659903  2                  9
Y605571210098129400507LUCIO                      POZOS                      ANDRES                     00000000000000020122016     020000009662503  2                  9
Y605571210094018508682XOLIO                      PUCHETA                    JULISSA                    00000000000000021122016     020000009664803  2                  9
Y605571210030916100149ROMAN                      SANTANA                    ANGEL                      00000000000000019122016     020000009667303  2                  9
Y605571210068149617273CHAROLA                    HERMENEGILDO               ANA FERNANDA               00000000000000018122016     020000015182303  2                  9
Y605571210094078520833MATURANO                   MARTINEZ                   CLAUDIA VERONICA           00000000000000021122016     020000015184603  2                  9
Y605571210020109202992DIAZ                       GONZALEZ                   JOAO JOSUE                 00000000000000021122016     020000015186703  2                  9
Y605571210007169644619VAZQUEZ                    SOTO                       RAHIL                      00000000000000020122016     020000018000203  2                  9
Y605571210004998405643VAZQUEZ                    CERVANTES                  JOSE ANTONIO               00000000000000021122016     020000018000903  2                  9
Y605571210060149667861LOPEZ                      MARTINEZ                   JOSE GUADALUPE             00000000000000021122016     020000019084903  2                  9
Y605571210024008126930CAMPOS                     MEDINA                     ANA YUDITH                 00000000000000021122016     020000019087003  2                  9
Y605571210014068605980VALE                       MATA                       MELQUIADES ALYNV GASTON    00000000000000018122016     020000022051603  2                  9
Y605571210012018013149MARTINEZ                   ABARCA                     PASCUALITA                 00000000000000019122016     020000022053703  2                  9
Y605571210023988353639LOPEZ                      VEGA                       ESTEBAN                    00000000000000021122016     020000025009503  2                  9
Y605571210081077502425HERNANDEZ                  VERA                       AURELIO                    00000000000000021122016     020000030123503  2                  9
Y605571210067129103841OLETA                      HERNANDEZ                  YONJARI                    00000000000000021122016     020000030126903  2                  9
