Y605571210081927223669ACEVEDO                    RODRIGUEZ                  JUAN MANUEL                00000000000000022052017     020000004009403  2                  9
Y605571210083906404138HERNANDEZ                  SONDA                      DELFINO                    00000000000000023052017     020000004011203  2                  9
Y605571210045129021981PEREZ                      MARTINEZ                   ELIZABETH                  00000000000000022052017     020000009690103  2                  9
Y605571210063169844527RODRIGUEZ                  MORENO                     BRAYAN                     00000000000000020052017     020000009693703  2                  9
Y605571210045129373481BALLADARES                 ALVARADO                   BELLA                      00000000000000021052017     020000009696103  2                  9
Y605571210046119318965CARRANZA                   AMAYA                      ARACELI                    00000000000000024052017     020000009705003  2                  9
Y605571210010149510439CASTAÒEDA                  TALAVERA                   DAVID ROBERTO              00000000000000021052017     020000009705803  2                  9
Y605571210028079100252SEGURA                     MARCHAND                   TANIA NAYELY               00000000000000020052017     020000009705903  2                  9
Y605571210019765837216MOTA                       FLORES                     JUAN                       00000000000000023052017     020000009706103  2                  9
Y605571210096128827332GONZALEZ                   ZANE                       JOSE CARLOS ANTONIO        00000000000000020052017     020000009706403  2                  9
Y605571210002176120174ALVIRDE                    SALVADOR                   LAURA CONSUELO             00000000000000024052017     020000015201803  2                  9
Y605571210027149306642GRANADOS                   ESPINOSA                   RAFAEL                     00000000000000022052017     020000015210203  2                  9
Y605571210002179172487DE LEON                    GALVEZ                     GONZALO GABRIEL            00000000000000020052017     020000023045703  2                  9
Y605571210002178374811BOZZIERE                   VAZQUEZ                    MARISELA                   00000000000000022052017     020000030149103  2                  9
