Y702574710184048529014PEREZ                      ACOSTA                     LUIS RAMON                 00000000000000022112016     020000031029303  2                  9
Y702574710181058900051PEREZ                      FUENTES                    RAFAEL                     00000000000000022112016     020000031029703  2                  9
Y702574710182117702264NAH                        CANTO                      ANGELITA DEL ROSARIO       00000000000000026112016     020000031031103  2                  9
