Y605571210096138919632SAN JUAN                   BAUTISTA                   ANTONIO                    00000000000000002012017     020000009512903  2                  9
Y605571210003158726665HERNANDEZ                  VALENCIA                   KATIA MARLEN               00000000000000002012017     020000009521703  2                  9
Y605571210035149430239CORTES                     ANDRES                     LINO                       00000000000000002012017     020000009539703  2                  9
Y605571210045109152137ALDANA                     CONTRERAS                  ANGEL ALEJANDRO            00000000000000001012017     020000009583003  2                  9
Y605571210045089104744ROMERO                     IBAÑEZ                     EDITH DIANEL               00000000000000002012017     020000009637703  2                  9
Y605571210067119136934ZAMORA                     CONTRERAS                  VICTOR MANUEL              00000000000000002012017     020000009641603  2                  9
Y605571210019149703753PANFILO                    BONIFACIO                  ISABEL                     00000000000000002012017     020000009655203  2                  9
Y605571210039007816216HERNANDEZ                  OLVERA                     NANCY CLAUDIA              00000000000000002012017     020000009658003  2                  9
Y605571210028927518218CUELLAR                    AVILA                      ABEL GUILLERMO             00000000000000002012017     020000009666503  2                  9
Y605571210008148328779FUENTES                    SANTIAGO                   GUADALUPE                  00000000000000001012017     020000009669603  2                  9
Y605571210014139543814SUAREZ                     PEREZ                      JOAO PAULINHO              00000000000000002012017     020000011085303  2                  9
Y605571210016856608753RODRIGUEZ                  ROSAS                      VICTOR MANUEL              00000000000000001012017     020000015165503  2                  9
Y605571210035159438478ALDANA                     CONTRERAS                  DAVID CRUZ                 00000000000000001012017     020000015181803  2                  9
Y605571210004816401444DE LA TORRE                RODRIGUEZ                  PEDRO                      00000000000000002012017     020000016005503  2                  9
Y605571210023018591232SANTANA                    ORTEGA                     ANGEL ISABEL               00000000000000001012017     020000022052103  2                  9
Y605571210065129511575MORALES                    SARMIENTO                  RUBEN ALEJANDRO            00000000000000001012017     020000022052303  2                  9
Y605571210025159682704NAJERA                     SANTIAGO                   J. ASUNCION                00000000000000002012017     020000028035803  2                  9
Y605571210009119270602VILLA                      HERNANDEZ                  ROBERTO                    00000000000000002012017     020000028037203  2                  9
Y605571210008169142760FRUCTUOSO                  ONOFRE                     GUADALUPE                  00000000000000002012017     020000030116503  2                  9
Y605571210017148699998DE LA CRUZ                 VILLEGAS                   DIANA                      00000000000000002012017     020000030118703  2                  9
Y605571210065119357690BENDIMEZ                   GONZALEZ                   ERIKA IZETL                00000000000000002012017     020000030132103  2                  9
