Y605571210021886310768LIZAOLA                    MARISCAL                   JOSE ABRAHAM               00000000000000017092016     020000002050903  2                  9
Y605571210003149327813HERNANDEZ                  CANDELAS                   JESUS ARMANDO              00000000000000016092016     020000005011203  2                  9
Y605571210095129401642MATA                       REYES                      ALDAIR ALEJANDRO           00000000000000019092016     020000009512803  2                  9
Y605571210096037905708MONARES                    LANDEROS                   DANIEL                     00000000000000019092016     020000009551103  2                  9
Y605571210045068757041ELIZALDE                   TORRES                     LEOBARDO                   00000000000000019092016     020000009581103  2                  9
Y605571210001998114498ACOSTA                     HERNANDEZ                  JOSE ROBERTO               00000000000000019092016     020000009598303  2                  9
Y605571210094886705980ADAME                      ALVIZU                     JOSE MARTIN                00000000000000018092016     020000009598903  2                  9
Y605571210020917422295CASAS                      ALVAREZ                    MARIA ANGELICA             00000000000000019092016     020000009602203  2                  9
Y605571210007947200239GARCIA                     MARIN                      ALBERTO                    00000000000000019092016     020000009612203  2                  9
Y605571210038149418923ROJAS                      BORGES                     ITZEL GUADALUPE            00000000000000018092016     020000009613403  2                  9
Y605571210092906918104ALVAREZ                    CHAVANDO                   J DOLORES                  00000000000000018092016     020000009620203  2                  9
Y605571210042088401403MEDINA                     ZARAGOZA                   RAFAEL                     00000000000000016092016     020000009623103  2                  9
Y605571210003159747157MACIAS                     RODRIGUEZ                  WILLIAM EDUARDO            00000000000000019092016     020000009627903  2                  9
Y605571210042139202271LOPEZ                      MARTINEZ                   VICTOR SALVADOR            00000000000000019092016     020000009630703  2                  9
Y605571210008159734881HERNANDEZ                  ROJO                       ROBERT                     00000000000000019092016     020000009631603  2                  9
Y605571210008169175794VAZQUEZ                    BECERRIL                   SILVERIO VICTOR            00000000000000019092016     020000009634003  2                  9
Y605571210003169600016ZALDIVAR                   SANDOVAL                   ERNESTO FERNANDO           00000000000000019092016     020000009639503  2                  9
Y605571210042119350074GARCIA                     LEDEZMA                    OMAR ALFONSO               00000000000000019092016     020000009639603  2                  9
Y605571210042049300066REYES                      SANDOVAL                   RAUL RENE                  00000000000000016092016     020000009640503  2                  9
Y605571210090058800120SANTIAGO                   LEONARDO                   EMMANUEL                   00000000000000019092016     020000009643603  2                  9
Y605571210042109209462HEREIDA                    HERNANDEZ                  JONATAN ELIAS              00000000000000019092016     020000009643803  2                  9
Y605571210011139300278TAPIA                      GARCIA                     EZEQUIEL ELIHU             00000000000000019092016     020000009644803  2                  9
Y605571210012068800999TORRES                     MACIAS                     JUAN MANUEL                00000000000000019092016     020000011087303  2                  9
Y605571210061149500334SANCHEZ                    HERNANDEZ                  PABLO BRAYAN               00000000000000019092016     020000013014303  2                  9
Y605571210005168715083HERNANDEZ                  HERANNDEZ                  MARIA DE JESUS CANDELARIA  00000000000000019092016     020000013014803  2                  9
Y605571210016119153175PEREA                      HERNANDEZ                  MARCO ANTONIO              00000000000000016092016     020000015155103  2                  9
Y605571210016068401286DOMINGUEZ                  TORRES                     ALMA                       00000000000000016092016     020000015161303  2                  9
Y605571210094077901919CORTES                     RANGEL                     RAUL                       00000000000000019092016     020000015178703  2                  9
Y605571210016947733784ROSAS                      MARTINEZ                   DAVID                      00000000000000017092016     020000015180603  2                  9
Y605571210043139603716DIAZ                       VENEGAS                    TADEO DANIEL               00000000000000017092016     020000019071103  2                  9
Y605571210003169537440ESTEBAN                    MARTINEZ                   ELIAZAR                    00000000000000019092016     020000019072703  2                  9
Y605571210043947846481SILVA                      LOPEZ                      ABEL                       00000000000000019092016     020000019084503  2                  9
Y605571210003856745009ELIAS                      RODRIGUEZ                  FRANCISCO JAVIER           00000000000000019092016     020000019085903  2                  9
Y605571210043917564379BARRERA                    SAUCEDO                    JUAN FRANCISCO             00000000000000019092016     020000019086903  2                  9
Y605571210043998247118ARANDA                     JUAREZ                     HUGO ENRIQUE               00000000000000019092016     020000019087103  2                  9
Y605571210023978004416BARRON                     RUELAS                     JESUS ARTURO               00000000000000017092016     020000025003203  2                  9
Y605571210023917532162VALDERRAMA                 VEGA                       JAZMIN DE JESUS            00000000000000017092016     020000025004003  2                  9
Y605571210023997710803PAEZ                       GONZALEZ                   MARTIN ENRIQUE             00000000000000019092016     020000025004603  2                  9
Y605571210004876625759SEGURA                     GRACIDA                    JACINTO JUAN               00000000000000017092016     020000025006903  2                  9
Y605571210023998070066YEE                        BOBADILLA                  FERNANDO                   00000000000000017092016     020000025008203  2                  9
Y605571210083816134551OLAN                       AGUILAR                    ELEODORO                   00000000000000016092016     020000027049303  2                  9
Y605571210067836606219HERNANDEZ                  CAMPOS                     CARLOS ROBERTO             00000000000000016092016     020000027055103  2                  9
Y605571210083927412813RODRIGUEZ                  MORENO                     ANTONIO                    00000000000000016092016     020000027055803  2                  9
Y605571210025159119798RAMOS                      SANTOS                     JUAN DE JESUS              00000000000000016092016     020000030096303  2                  9
Y605571210065897216654SOSA                       ZAMUDIO                    JAIME                      00000000000000019092016     020000030104903  2                  9
Y605571210067139002959ORTIZ                      PRIETO                     LUIS ANTONIO               00000000000000019092016     020000030109903  2                  9
Y605571210011169521256REYES                      FONSECA                    ERWIN BERTIN               00000000000000016092016     020000030119403  2                  9
Y605571210058169784103ROMERO                     TUFIÑO                     ILIANY DOLORES             00000000000000019092016     020000030120803  2                  9
