Y605571210021988263873FABIAN                     AMBRIZ                     DANIEL FRANCISCO           00000000000000013092016     020000002049803  2                  9
Y605571210003158231567CIRILO                     BARRERA                    MACRINA                    00000000000000013092016     020000002050603  2                  9
Y605571210021139656900HERNANDEZ                  GONZALEZ                   ABRAHAN                    00000000000000013092016     020000002050803  2                  9
Y605571210042139718151ALATRISTE                  COLUNGA                    ELIAS MOISES               00000000000000007092016     020000009642103  2                  9
Y605571210063907275257NORIEGA                    PLAZA                      DAMIAN                     00000000000000012092016     020000011063103  2                  9
Y605571210014897224268ONTIVEROS                  PRADO                      JOSE DE JESUS              00000000000000012092016     020000011083603  2                  9
Y605571210012128818874JIMENEZ                    VASQUEZ                    JORGE LUIS                 00000000000000012092016     020000011084303  2                  9
Y605571210012978070469VILLAVICENCIO              LOPEZ                      LUIS ERNESTO               00000000000000013092016     020000011089003  2                  9
Y605571210053078916409FLORES                     VENEGAS                    RAUL                       00000000000000013092016     020000016007703  2                  9
Y605571210003169464660HERNANDEZ                  PRIMITIVA                  JOSE SANTIAGO              00000000000000013092016     020000019084803  2                  9
Y605571210043109364844BELTRAN                    LOPEZ                      IGNACIO EDUARDO            00000000000000013092016     020000019086803  2                  9
Y605571210065119321480ESCRIBANO                  CUATZOZON                  MIGUEL ANGEL               00000000000000012092016     020000022047503  2                  9
Y605571210065119103615BUSTAMANTE                 BAXIN                      MAURICIO ANDRES            00000000000000012092016     020000022049903  2                  9
Y605571210053068711018PACHECO                    URIBE                      JOSUE                      00000000000000012092016     020000022050303  2                  9
Y605571210018159769266LEDEZMA                    SANCHEZ                    JORGE ALBERTO              00000000000000012092016     020000022050903  2                  9
Y605571210026149229960ESPINOZA                   CARABEO                    NOE                        00000000000000013092016     020000023027003  2                  9
Y605571210082108909498AYALA                      RINCON                     ANSELMO                    00000000000000007092016     020000023027103  2                  9
Y605571210082099108985AYALA                      RINCON                     AUSENCIO                   00000000000000007092016     020000023029303  2                  9
Y605571210082108706563AYALA                      RINCON                     ALVARO                     00000000000000010092016     020000023030703  2                  9
Y605571210058169709282YANES                      GOMEZ                      YESSICA DEL CARMEN         00000000000000007092016     020000023031503  2                  9
Y605571210069169764219CLIMACO                    TOLEDO                     JOSE LUIS                  00000000000000012092016     020000023032403  2                  9
Y605571210018169740026ESQUEDA                    DELGADO                    ANGEL                      00000000000000009092016     020000028034303  2                  9
