Y605571210042078103043CARBAJAL                   GUILLEN                    JOSE OSWALDO               00000000000000008082016     020000009027402  2                  9
Y605571210094078928929PALAFOX                    ORTEGA                     ADRIAN                     00000000000000009082016     020000009039102  2                  9
Y605571210001027900362CRUZ                       CHINO                      JAVIER                     00000000000000004082016     020000009434403  2                  9
Y605571210096139608010VAZQUEZ                    ATILANO                    JORGE EDWIN                00000000000000004082016     020000009617503  2                  9
Y605571210011038705478AVALOS                     GRIMALDO                   MARIA LUISA                00000000000000004082016     020000009621603  2                  9
Y605571210042109500019CRUZ                       NAVA                       BRENDA PAOLA               00000000000000009082016     020000009633703  2                  9
Y605571210045079000969SANCHEZ                    MORALES                    ISRAEL                     00000000000000009082016     020000009634303  2                  9
Y605571210012998179316MOSQUEDA                   MARTINEZ                   MARIA DEL ROSARIO          00000000000000009082016     020000011080303  2                  9
Y605571210035877122693GAXIOLA                    DEL HIERRO                 ALMA ROSA                  00000000000000009082016     020000015179303  2                  9
Y605571210003148068200CASTAÑON                   REVELES                    MIGUEL                     00000000000000009082016     020000016007503  2                  9
Y605571210010785946566DE LA VEGA                 ZERMEÑO                    GUILLERMO MARIANO          00000000000000009082016     020000022042803  2                  9
Y605571210057159739283ROJAS                      APARICIO                   JOSE ARTURO                00000000000000009082016     020000022046403  2                  9
Y605571210003146986546ROJAS                      COSME                      JORGE ANTONIO              00000000000000009082016     020000022046703  2                  9
Y605571210014109369588GARCIA                     OSORNIO                    CARLO EMILIO               00000000000000003082016     020000022048703  2                  9
Y605571210014108506180AGUILAR                    ZAMORANO                   KRISHNA ANGELINA           00000000000000009082016     020000022049003  2                  9
Y605571210071109018300VILLAFUERTE                VIDES                      NOE FERNANDO               00000000000000009082016     020000023031403  2                  9
