Y605571210059159643812CASTAÑEDA                  ARROYO                     JOSE ALFREDO               00000000000000011122016     020000006000703  2                  9
Y605571210045917359965CARRILLO                   TELLEZ                     JESUS                      00000000000000012122016     020000009612903  2                  9
Y605571210042866911433GONZALEZ                   HERNANDEZ                  JUAN MARCELO               00000000000000012122016     020000009645403  2                  9
Y605571210042967913387JUAREZ                     CAMACHO                    CRUZ ENRIQUE               00000000000000012122016     020000009654303  2                  9
Y605571210045088804666GARCIA                     ELIZARRARAS                MIGUEL                     00000000000000012122016     020000009660103  2                  9
Y605571210090129209889GARCIA                     SALADO                     JORGE LUIS                 00000000000000012122016     020000009662203  2                  9
Y605571210096129485197TORRES                     GONZALEZ                   MARIA DEL PILAR            00000000000000012122016     020000009662303  2                  9
Y605571210096917622852GASCA                      MEDRANO                    GABINO                     00000000000000012122016     020000009662703  2                  9
Y605571210003159512742HERNANDEZ                  DE LA CRUZ                 BARBARA MONTSERRATH        00000000000000012122016     020000009663303  2                  9
Y605571210045038328774HERNANDEZ                  HERNANDEZ                  DAVID                      00000000000000012122016     020000009666703  2                  9
Y605571210053027609667GAYTAN                     ALVARADO                   KARLA SELENE               00000000000000010122016     020000016008303  2                  9
Y605571210004129497634MEDRANO                    SOTO                       GERARDO                    00000000000000010122016     020000018000303  2                  9
Y605571210047947770997FLORES                     OLIVO                      NESTOR DAVID               00000000000000012122016     020000019087503  2                  9
Y605571210043887248326QUIROZ                     AGUIRRE                    ALMA DELIA                 00000000000000009122016     020000019093003  2                  9
Y605571210009996810140TORRES                     LEIJA                      MARGARITA                  00000000000000010122016     020000019096203  2                  9
Y605571210019159133537GOMEZ                      MOHENO                     OVIDIO                     00000000000000011122016     020000023039303  2                  9
Y605571210067988116025LOPEZ                      CHABLE                     GAMALIEL                   00000000000000012122016     020000027057103  2                  9
Y605571210025169669725SANTIAGO                   CRUZ                       SEBASTIAN                  00000000000000011122016     020000028037003  2                  9
