Y462621510902159016449PAZ                        JIMENEZ                    ELIUD                      00000000000000016012017     020000021153703  2                  9
Y462621510926159236988ROJAS                      FLORES                     ADOLFO                     00000000000000016012017     020000021158003  2                  9
Y462621510902166880498SANDOVAL                   AYALA                      MARIA CARMEN               00000000000000016012017     020000021159803  2                  9
