Y605571210006785967859MUÒOZ                      VILLASANA                  JOSE ANGEL                 00000000000000006052016     020000002047003  2                  9
Y605571210021058765187ROMERO                     CAMACHO                    JOSE MIGUEL                00000000000000008052016     020000002048703  2                  9
Y605571210096068829496LOPEZ                      FLORES                     JOSE LUIS                  00000000000000011052016     020000009036502  2                  9
Y605571210090028424050MONTIEL                    CARREON                    GEOVANNI                   00000000000000007052016     020000009418503  2                  9
Y605571210096018401867MARTINEZ                   FLORES                     JORGE ANTONIO              00000000000000011052016     020000009546003  2                  9
Y605571210028119300060AREVALO                    MACIAS                     LUIS EDUARDO               00000000000000011052016     020000009547203  2                  9
Y605571210090119370980PEREZ                      GARCIA                     BRHAYAM YOY XAVIER         00000000000000011052016     020000009592903  2                  9
Y605571210078007901354PEREZ                      MARTINEZ                   CLETA                      00000000000000011052016     020000009593903  2                  9
Y605571210037887038166BUITRON                    CRUZ                       RICARDO                    00000000000000011052016     020000009594103  2                  9
Y605571210007998104934NORIEGA                    BRAVO                      NELSON NETZER              00000000000000011052016     020000009596203  2                  9
Y605571210045047705673OJEDA                      GARCIA                     OSCAR                      00000000000000011052016     020000009596403  2                  9
Y605571210060816400505FLORES                     TINOCO                     GUILLERMO                  00000000000000011052016     020000009596903  2                  9
Y605571210094099126115ALLENDE                    ZAMORA                     PEDRO DAMIAN               00000000000000011052016     020000009597103  2                  9
Y605571210096876920164RODRIGUEZ                  CASTILLO                   MARTHA                     00000000000000011052016     020000009601603  2                  9
Y605571210094097801370PARDINEZ                   ORTIZ                      GICELA                     00000000000000007052016     020000009610603  2                  9
Y605571210053129311121ARELLANO                   REYNA                      JOSEFA TOMASA              00000000000000007052016     020000009611803  2                  9
Y605571210001129113682MEDINA                     OCHOA                      NATHALI LIZHAIRU           00000000000000010052016     020000009614003  2                  9
Y605571210096139513970BARRERA                    SALAS                      OMAR                       00000000000000011052016     020000009614103  2                  9
Y605571210096058703420HUERTA                     FUENTES                    JOSE ANTONIO               00000000000000011052016     020000009614903  2                  9
Y605571210013118833345ARELLANO                   CUENCA                     RODOLFO                    00000000000000011052016     020000013009803  2                  9
Y605571210054927825734BARAJAS                    HERNANDEZ                  VERONICA                   00000000000000006052016     020000014089103  2                  9
Y605571210042937503458DAVILA                     HERNANDEZ                  SANDRA                     00000000000000006052016     020000015151303  2                  9
Y605571210016755101975MARTINEZ                   JOSE MARIA                 OTILIO                     00000000000000010052016     020000015160103  2                  9
Y605571210011987311435GARAVITO                   HERNANDEZ                  ANA LUISA                  00000000000000008052016     020000015165803  2                  9
Y605571210006765860371SORIA                      PIÒA                       HOMERO                     00000000000000006052016     020000015169503  2                  9
Y605571210013786011265HERRERA                    LEA—OS                     FELIPE                     00000000000000006052016     020000019076003  2                  9
Y605571210013786011265HERRERA                    LEA—OS                     FELIPE                     00000000000000006052016     020000019076003  2                  9
Y605571210067068739753JIMENEZ                    SANDOVAL                   JAVIER                     00000000000000008052016     020000030095603  2                  9
Y605571210067077604188NIETO                      REYES                      ROGACIANO BONIFACIO        00000000000000006052016     020000030101303  2                  9
Y605571210049149402171RIVERA                     LEAL                       FRANCISCO                  00000000000000008052016     020000030107803  2                  9
Y605571210067078800397RODRIGUEZ                  AMADO                      IRVING OMAR                00000000000000008052016     020000030111603  2                  9
