Y605571210013128816629CAMPERO                    HERNANDEZ                  SAUL                       00000000000000028022017     020000013013403  2                  9
Y605571210023968000317ROMERO                     BUSTAMANTE                 CLAUDIO                    00000000000000028022017     020000025003403  2                  9
Y605571210023856603529ARENAS                     AVILA                      FREDY                      00000000000000028022017     020000025005503  2                  9
