Z064567510845886524227CONTRERAS                  JIMENEZ                    FIDEL                      00000000000000001032017     020000011092303  2                  9
Z064567510812058837431VEGA                       LONGORIA                   JUAN JESUS                 00000000000000002032017     020000011094903  2                  9
Z064567510812998427376DIAZ                       CHAGOYA                    VICTOR                     00000000000000002032017     020000011095603  2                  9
