Y605571210001139607400BOTELLO                    DIAZ                       PABLO                      00000000000000001022017     020000009460803  2                  9
Y605571210094896911990HERNANDEZ                  MARQUEZ                    FELIX SAUL                 00000000000000001022017     020000009565703  2                  9
Y605571210048018401769LOSANO                     NICOLAS                    SERGIO                     00000000000000001022017     020000009641203  2                  9
Y605571210050149606274ZAMORA                     LEON                       DANIEL                     00000000000000001022017     020000009666803  2                  9
Y605571210096098708330SERRALDE                   MOLOTLA                    CARLOS ALONSO              00000000000000001022017     020000009676303  2                  9
Y605571210042866835335MERLOS                     ARREOLA                    CESAR                      00000000000000001022017     020000015158403  2                  9
Y605571210094897212117PULIDO                     CERAFIN                    ABELARDO                   00000000000000001022017     020000015172403  2                  9
Y605571210006866902684GOMEZ                      NAVA                       FERNANDO                   00000000000000001022017     020000015184103  2                  9
Y605571210030078924658GONZALEZ                   RIOS                       JESUS                      00000000000000001022017     020000015184203  2                  9
Y605571210001926808971HIDALGO                    REYES                      HECTOR FRANCISCO           00000000000000001022017     020000015185303  2                  9
Y605571210071109009119MONTES                     VAZQUEZ                    AGUSTIN                    00000000000000001022017     020000015186203  2                  9
Y605571210016997305756MENDOZA                    CALDERON                   JOSE                       00000000000000001022017     020000015187403  2                  9
Y605571210016937648562LICONA                     NAVA                       LEONEL                     00000000000000001022017     020000015189903  2                  9
Y605571210009128710614CODINA                     PEREZ                      JORGE IVAN                 00000000000000001022017     020000028038703  2                  9
Y605571210008147802915VIDAÑA                     HERNANDEZ                  ROCIO                      00000000000000001022017     020000030071403  2                  9
Y605571210065119108994CLARA                      ALARCON                    ROBERTO                    00000000000000001022017     020000030131503  2                  9
