Y605571210037038209146GOMEZ                      ROJAS                      ALICIA KARINA              00000000000000016032017     020000009012702  2                  9
Y605571210020048302499CERNA                      VARGUEZ                    JOSUE GERMAIN              00000000000000016032017     020000009030702  2                  9
Y605571210045109208285ROJAS                      MARTINEZ                   IGNACIO ARES               00000000000000016032017     020000009033902  2                  9
Y605571210012977987895MARTINEZ                   LUVIAN                     JOSE GUADALUPE             00000000000000016032017     020000009039502  2                  9
Y605571210016109284683TREJO                      REYNAGA                    NANCY KAREN                00000000000000016032017     020000009039602  2                  9
Y605571210001927602688GONZALEZ                   GOMEZ                      JAVIER                     00000000000000016032017     020000009500003  2                  9
Y605571210007927525456BARCENAS                   MORQUECHO                  DANIEL                     00000000000000016032017     020000009500403  2                  9
Y605571210008149430095PEREZ                      NIETO                      JESUS ALEJANDRO            00000000000000016032017     020000009561003  2                  9
Y605571210001099200972GARCIA                     MARCOS                     ROSALIA                    00000000000000016032017     020000009607903  2                  9
Y605571210073149551670ALFARO                     ARRIAGA                    FELIPE DE JESUS            00000000000000016032017     020000009642603  2                  9
Y605571210090937806678JIMENEZ                    JIMENEZ                    RAYMUNDO                   00000000000000013032017     020000015194903  2                  9
Y605571210067087403431BERNARDO                   ACOSTA                     GABRIEL                    00000000000000016032017     020000015197603  2                  9
Y605571210049907270893MARTINEZ                   ENRIQUEZ                   AMILCAR                    00000000000000015032017     020000019043903  2                  9
Y605571210031099002490AVILA                      REYES                      JUAN PEDRO                 00000000000000016032017     020000019102303  2                  9
Y605571210009988301447VILLEGAS                   BAUTISTA                   TOMAS                      00000000000000016032017     020000019105203  2                  9
Y605571210012846414436CASTRO                     MORENO                     ANGEL                      00000000000000016032017     020000022039303  2                  9
Y605571210083957943158RUIZ                       OSORIO                     SALVADOR                   00000000000000016032017     020000027060703  2                  9
