A836767410949886546602SAENZ                      RIOS                       IRMA JULIA                 00000000000000020032017     020000008050703  2                  9
A836767410964159760483CABRERA                    CRUZ                       ITZEL YARELY               00000000000000018032017     020000008069903  2                  9
A836767410901138052368VILLA                      MARQUEZ                    CONSOLACION                00000000000000018032017     020000008070003  2                  9
