Y605571210089856903102PEREZ                      RESENDIZ                   MARCO ANTONIO              00000000000000025102016     020000009021802  2                  9
Y605571210001078302377CLARO                      GUTIERREZ                  ISRAEL                     00000000000000025102016     020000009639703  2                  9
Y605571210010846635182LOPEZ                      ORTIZ                      MA. FERNANDA               00000000000000024102016     020000009649303  2                  9
Y605571210096998125585GOMEZ                      GOMEZ                      SUSANA JACQUELINE          00000000000000025102016     020000009650803  2                  9
Y605571210096129780779ORTEGA                     AVALOS                     JESUS KEVIN                00000000000000024102016     020000009651603  2                  9
Y605571210092997904336CARMONA                    CRUZ                       IGNACIO                    00000000000000028102016     020000013016103  2                  9
Y605571210094129113935ZUÒIGA                     GALVEZ                     MIRIAM                     00000000000000027102016     020000015180803  2                  9
