Y605571210003158362248PEREZ                      CASTRO                     REY DAVID                  00000000000000022042016     020000007012803  2                  9
Y605571210026169751273SANTIZ                     SANTIZ                     JESUS ALBERTO              00000000000000022042016     020000007013203  2                  9
Y605571210045947618455LOPEZ                      GONZALEZ                   GEOVANNY                   00000000000000020042016     020000009483003  2                  9
Y605571210094129361310PI—A                       MERINO                     BRANDO                     00000000000000018042016     020000009582703  2                  9
Y605571210042108908999ORTIZ                      HERNANDEZ                  YONATHAN RAMSES            00000000000000018042016     020000009583203  2                  9
Y605571210096947645469RIOS                       PAREDES                    PEDRO                      00000000000000018042016     020000009592803  2                  9
Y605571210060149665550PARCERO                    JIMENEZ                    ANAYELI                    00000000000000020042016     020000009597303  2                  9
Y605571210030037602882LANDEROS                   RIVERA                     EDSON EDUARDO              00000000000000020042016     020000009599903  2                  9
Y605571210002158101614IBARRA                     VIOLANTE                   GUILLERMO                  00000000000000020042016     020000009605603  2                  9
Y605571210045988044801GONZALEZ                   PEREZ                      MAYRA                      00000000000000020042016     020000009607503  2                  9
Y605571210004137400612GUERRERO                   BENITEZ                    LUIS ALONSO                00000000000000022042016     020000014100503  2                  9
Y605571210004038658193ACEVES                     MERCADO                    LORENA                     00000000000000022042016     020000014101003  2                  9
Y605571210017159084346MARTINEZ                   ROSALES                    CRISTIAN YOHAN PRIMITIVO DE JESUS00000000000000022042016     020000014101103  2                  9
Y605571210034057101031ALFARO                     GUERRERO                   JACINTO                    00000000000000022042016     020000014101203  2                  9
Y605571210022107900627CASTA—EDA                  GARCIA                     FABIOLA                    00000000000000022042016     020000014102803  2                  9
Y605571210004048560991SANTOS                     MORALES                    HECTOR                     00000000000000022042016     020000014104903  2                  9
Y605571210075947743904VELAZQUEZ                  CAMPOS                     JUAN                       00000000000000022042016     020000014106203  2                  9
Y605571210004947551034HERRERA                    MIRANDA                    COLUMBA                    00000000000000022042016     020000014106303  2                  9
Y605571210006765860371SORIA                      PIÒA                       HOMERO                     00000000000000020042016     020000015169503  2                  9
Y605571210053089016256RIVERA                     AYALA                      MARISOL                    00000000000000018042016     020000016005903  2                  9
Y605571210014119449743MALDONADO                  TENORIO                    EDWIN ALEJANDRO            00000000000000022042016     020000022029103  2                  9
Y605571210014068604561RESENDIZ                   GUDI—O                     CARLOS ARNULFO             00000000000000020042016     020000022037603  2                  9
Y605571210014068955732MARTINEZ                   HERNANDEZ                  ANA LUCIA                  00000000000000020042016     020000022041203  2                  9
Y605571210014129312238CESAR                      JUAREZ                     EDGAR JOSUE                00000000000000020042016     020000022042003  2                  9
Y605571210065139400850ORTEGA                     HERNANDEZ                  MARTIN ISAAC               00000000000000018042016     020000023025803  2                  9
Y605571210003147336451BALCAZAR                   HERNANDEZ                  INES                       00000000000000018042016     020000023025903  2                  9
Y605571210002169223068HERNANDEZ                  LANDA                      JOSE FERNANDO              00000000000000019042016     020000023026103  2                  9
Y605571210002159342647VALLEJOS                   JIMENEZ                    MERCEDES NOEMI             00000000000000019042016     020000023026303  2                  9
Y605571210067118911287ROSAS                      ROJAS                      ERNESTO                    00000000000000022042016     020000030070503  2                  9
Y605571210067118718054RAMOS                      GONZALEZ                   VIVIANA                    00000000000000022042016     020000030075303  2                  9
Y605571210017159545254ROSAS                      ROJAS                      JUAN AGUSTIN               00000000000000022042016     020000030086403  2                  9
Y605571210008159586505QUINTANA                   CRUZ                       LUIS ALBERTO               00000000000000022042016     020000030091003  2                  9
Y605571210067987506903MARIN                      MARTINEZ                   IVAN                       00000000000000022042016     020000030094703  2                  9
Y605571210065048213733MORALES                    HERNANDEZ                  ANABEL DENISSE             00000000000000022042016     020000030104103  2                  9
Y605571210071998020052MAZA                       VILLALOBOS                 OCTAVIO                    00000000000000022042016     020000030108603  2                  9
Y605571210002168640742MENDOZA                    CARRERA                    ANA ROSA                   00000000000000022042016     020000030109103  2                  9
