Y605571210045119201809RIVERA                     HERRERA                    YAIR                       00000000000000021062017     020000009607703  2                  9
Y605571210044149328807BRAVO                      ARRIAGA                    LUIS                       00000000000000022062017     020000009616203  2                  9
Y605571210028089106943VALDEZ                     RAMIREZ                    MIGUEL ANGEL               00000000000000022062017     020000009711903  2                  9
Y605571210026148705515CORTES                     PACHECO                    GABRIELA                   00000000000000021062017     020000009712403  2                  9
Y605571210016997922048MEZA                       ARZATE                     LETICIA                    00000000000000022062017     020000015096103  2                  9
