Y605571210042139413506GALICIA                    LEON                       JANET                      00000000000000012082017     020000009043602  2                  9
Y605571210096078862131SOTO                       GOMEZ                      EDUARDO                    00000000000000011082017     020000009462303  2                  9
Y605571210042937601518CALDERON                   MORA                       LUIS JESUS                 00000000000000012082017     020000009683103  2                  9
Y605571210096088702749ORTIZ                      ARROYO                     JUAN ANTONIO               00000000000000012082017     020000009700403  2                  9
Y605571210096058737188PEREZ                      GUZMAN                     ELIAS                      00000000000000009082017     020000009723303  2                  9
Y605571210089846644089MEDINA                     PEREZ                      PEDRO                      00000000000000014082017     020000028004003  2                  9
