Y605571210026159262364GONZALEZ                   BARRERA                    ELIZABETH                  00000000000000027022017     020000009632103  2                  9
Y605571210002158262739LEON                       FLORES                     MAURICIO IVAN              00000000000000027022017     020000009674203  2                  9
Y605571210003158977433BENITEZ                    HERNANDEZ                  JONATHAN                   00000000000000025022017     020000009685103  2                  9
Y605571210025149761576MANUEL                     NIEVES                     RAFAEL                     00000000000000025022017     020000009685203  2                  9
Y605571210092129413123VEGA                       RIVERA                     CESAR OSWALDO              00000000000000027022017     020000015193703  2                  9
Y605571210065907127693MARURI                     GOMEZ                      JULIO CESAR                00000000000000025022017     020000019097003  2                  9
Y605571210094917412945BADILLO                    GUTIERREZ                  GUILLERMO                  00000000000000027022017     020000022036603  2                  9
Y605571210003169800905HERNANDEZ                  REYES                      GIOVANI                    00000000000000027022017     020000022057103  2                  9
Y605571210081088807011CASTILLO                   MAY                        ALEX                       00000000000000027022017     020000027057303  2                  9
Y605571210015937420808ALFARO                     JIMENEZ                    ANGEL                      00000000000000026022017     020000028033203  2                  9
Y605571210009089153184ZENDEJAS                   HERNANDEZ                  ABRAHAM                    00000000000000026022017     020000028036703  2                  9
