Y605571210001877014819VERA                       SUAREZ                     VICTOR HUGO                00000000000000006032017     020000009645503  2                  9
Y605571210096058433788VALDEZ                     RAMIREZ                    JORGE ERASMO               00000000000000006032017     020000009646203  2                  9
Y605571210096048600728LUNA                       SANCHEZ                    HECTOR                     00000000000000005032017     020000009648903  2                  9
Y605571210009169865004MARTINEZ                   HUERTA                     JOSE LUIS                  00000000000000009032017     020000009680103  2                  9
Y605571210092008250729LOPEZ                      MONTES                     ALINE JANET                00000000000000009032017     020000015191703  2                  9
Y605571210043119022606LOPEZ                      GUERRERO                   FRANCISCO JAVIER           00000000000000009032017     020000019095403  2                  9
Y605571210014089361134ESQUIVEL                   SANCHEZ                    LUIS RICARDO               00000000000000007032017     020000022057303  2                  9
