Y605571210052887017144GALVEZ                     ARMENTA                    HORACIO                    00000000000000027042016     020000002048403  2                  9
Y605571210018159563487MONROY                     LOPEZ                      JACQUELINE                 00000000000000003052016     020000009031702  2                  9
Y605571210096008222877MENDOZA                    HERNANDEZ                  IMELDA                     00000000000000003052016     020000009034802  2                  9
Y605571210045988051749PINEDA                     MARTINEZ                   GUADALUPE                  00000000000000002052016     020000009036302  2                  9
Y605571210096088202757ANDRES                     PEREZ                      LUIS EDUARDO               00000000000000002052016     020000009451903  2                  9
Y605571210007826505393SANCHEZ                    ALONSO                     BENJAMIN                   00000000000000001052016     020000009561203  2                  9
Y605571210057159513142CONCHA                     GALICIA                    MARIA DE JESUS             00000000000000001052016     020000009568303  2                  9
Y605571210096956904443CRUZ                       GUTIERREZ                  JUAN CARLOS                00000000000000001052016     020000009580203  2                  9
Y605571210075806311637ROJAS                      MORENO                     APOLINAR                   00000000000000001052016     020000009581403  2                  9
Y605571210028916805360MARIN                      HERNANDEZ                  MIGUEL                     00000000000000003052016     020000009595003  2                  9
Y605571210037907030292VELA                       RODRIGUEZ                  ULISES                     00000000000000003052016     020000009599303  2                  9
Y605571210042119244319SEGURA                     HERNANDEZ                  CESAR OSVALDO              00000000000000002052016     020000009602503  2                  9
Y605571210010169316592CISNEROS                   MARTINEZ                   ALFREDO ANTONIO            00000000000000003052016     020000009605403  2                  9
Y605571210045988044801GONZALEZ                   PEREZ                      MAYRA                      00000000000000001052016     020000009607503  2                  9
Y605571210096119168720ZARATE                     MEZA                       JUAN LUIS                  00000000000000030042016     020000009607603  2                  9
Y605571210045139460427CAMPOS                     ROJAS                      CRISTIAN ADAN              00000000000000001052016     020000009610503  2                  9
Y605571210096129401681FLORES                     ARRIETA                    JORGE ARMANDO              00000000000000003052016     020000009613903  2                  9
Y605571210033058731283HERNANDEZ                  BUGARINI                   HECTOR JAVIER              00000000000000001052016     020000014074603  2                  9
Y605571210039058910892VIDAL                      RAMIREZ                    LUCIANO                    00000000000000003052016     020000015140803  2                  9
Y605571210092967857266GRANILLO                   LUQUE                      JOEL                       00000000000000001052016     020000015156903  2                  9
Y605571210092947700040ANAYA                      DOMINGUEZ                  ROBERTO                    00000000000000030042016     020000015157003  2                  9
Y605571210043998225171TORRES                     CORTES                     ROGELIO                    00000000000000027042016     020000019073903  2                  9
Y605571210003968161905OLVERA                     REYES                      ARTURO                     00000000000000030042016     020000019074503  2                  9
Y605571210013786011265HERRERA                    LEAÑOS                     FELIPE                     00000000000000001052016     020000019076003  2                  9
Y605571210043008602690MARTINEZ                   SENA                       RAYMUNDO                   00000000000000002052016     020000019076603  2                  9
Y605571210082089111866BENITEZ                    ESCOTO                     MANUEL JESUS               00000000000000002052016     020000023026403  2                  9
