Y605571210045078824658SOLORIO                    ROQUE                      FRANCISCO JAVIER           00000000000000023052016     020000009465803  2                  9
Y605571210010836223890RUIZ                       BERNAL                     GERARDO ROBERTO            00000000000000023052016     020000009570903  2                  9
Y605571210042947401867VALENCIA                   MONTOYA                    VERONICA                   00000000000000018052016     020000009594203  2                  9
Y605571210096078530258CRUZ                       REYES                      ROSARIO                    00000000000000023052016     020000009602403  2                  9
Y605571210045887142607GARCIA                     BLANCARTE                  JOSE                       00000000000000023052016     020000009603303  2                  9
Y605571210037956700019DURAN                      CASTELAN                   FELIPE                     00000000000000017052016     020000009603803  2                  9
Y605571210020099008797GONZALEZ                   GARCIA                     VICTOR OMAR                00000000000000017052016     020000009606303  2                  9
Y605571210096129521280AVILA                      PEREZ                      RODRIGO GEOVANNY           00000000000000023052016     020000009609303  2                  9
Y605571210090048417639GARCIA                     MENDOZA                    SILVIA                     00000000000000017052016     020000009611203  2                  9
Y605571210030967906527SANCHEZ                    SILVA                      ELIZABETH                  00000000000000017052016     020000009612403  2                  9
Y605571210094118828923HERNANDEZ                  CRUZ                       NIDIA LIZETH               00000000000000023052016     020000009613203  2                  9
Y605571210018169558378CABELLO                    DORANTES                   DIEGO ARMANDO              00000000000000018052016     020000009613503  2                  9
Y605571210020119406674GIL                        ROMERO                     MIGUEL ANGEL               00000000000000017052016     020000009616103  2                  9
Y605571210004119303842BEATO                      GUTIERREZ                  SANDRA MARIA               00000000000000017052016     020000014103803  2                  9
Y605571210019149521643MUJICA                     ARCHUNDIA                  ANGEL                      00000000000000023052016     020000015094603  2                  9
Y605571210042038500155ROBERTO                    ARGUELLO                   CORAL                      00000000000000017052016     020000015167303  2                  9
Y605571210072008104381JIMENEZ                    OCHOA                      REY DAVID                  00000000000000023052016     020000015171003  2                  9
Y605571210043917454381NAVARRO                    LUNA                       FRANCISCO ROGELIO          00000000000000023052016     020000019070903  2                  9
Y605571210041119238628RODRIGUEZ                  HERNANDEZ                  VICTOR HUGO                00000000000000017052016     020000019079603  2                  9
Y605571210073169473136RAMOS                      ESTRADA                    FIDEL                      00000000000000021052016     020000023026503  2                  9
Y605571210060159689847HERNANDEZ                  HERNANDEZ                  HERMELINDA                 00000000000000019052016     020000030099003  2                  9
