Y605571210092018372323MARQUEZ                    REYES                      ALBERTO                    00000000000000011012017     020000009670403  2                  9
Y605571210001008308544GUTIERREZ                  OCAMPO                     RAUL                       00000000000000012012017     020000009674603  2                  9
Y605571210050159689624PUCHETA                    ALDANA                     ANA ISABEL                 00000000000000012012017     020000022048203  2                  9
Y605571210023089166609RODRIGUEZ                  ESPINOZA                   JAVIER ANTONIO             00000000000000012012017     020000025011903  2                  9
Y605571210046149564612CARDENAS                   DUEÑES                     SHAIN ALEJANDRA            00000000000000011012017     020000028022803  2                  9
Y605571210049856727901ZAPATA                     CELESTINOS                 RAUL                       00000000000000008012017     020000028032003  2                  9
Y605571210071118919399BARRUETA                   MORENO                     ISAIAS DIONICIO            00000000000000012012017     020000028035203  2                  9
Y605571210009058833162MARTINEZ                   CERDA                      JORGE LUIS                 00000000000000009012017     020000028037903  2                  9
