Y605571210075927416174VELAZQUEZ                  SOSA                       VICTOR MANUEL              00000000000000028062016     020000007008103  2                  9
Y605571210018169300706GARCIA                     LARA                       MARISELA                   00000000000000024062016     020000011000602  2                  9
Y605571210012796135684ESPARZA                    LOPEZ                      HECTOR MANUEL              00000000000000027062016     020000011082703  2                  9
Y605571210092129237043DELGADO                    SANCHEZ                    VERONICA                   00000000000000024062016     020000015170103  2                  9
Y605571210090098932602ROSALES                    VAZQUEZ                    GUADALUPE ANTONIO          00000000000000025062016     020000015176103  2                  9
Y605571210090109152083MARTINEZ                   ELIZALDE                   EDUARDO DE JESUS           00000000000000025062016     020000015176603  2                  9
