Y605571210056159549775CUAHUIZO                   CRUZ                       BERENICE                   00000000000000012082016     020000009631503  2                  9
Y605571210014897224268ONTIVEROS                  PRADO                      JOSE DE JESUS              00000000000000010082016     020000011083603  2                  9
Y605571210012886410617CANO                                                  JORGE JESUS                00000000000000012082016     020000011086703  2                  9
Y605571210023775915426RIOS                       RODRIGUEZ                  RAMON                      00000000000000012082016     020000025006103  2                  9
Y605571210049785811800GARCIA                     BAUTISTA                   JOSE FELIPE NERI           00000000000000011082016     020000028032603  2                  9
Y605571210034099207200FLORES                     PUGA                       CARLOS HUMBERTO            00000000000000009082016     020000032001003  2                  9
Y605571210034099207200FLORES                     PUGA                       CARLOS HUMBERTO            00000000000000009082016     020000032001003  2                  9
