Y605571210081018400572MIRANDA                    DIAZ                       ALAIN DEL CARMEN           00000000000000012032017     020000004008503  2                  9
Y605571210044169574538PERALTA                    MEDINA                     CARLOS DANIEL              00000000000000013032017     020000009687103  2                  9
Y605571210092129407679CERVANTES                  SAUCEDO                    BRANDON DANIEL             00000000000000014032017     020000015194103  2                  9
Y605571210004816401444DE LA TORRE                RODRIGUEZ                  PEDRO                      00000000000000011032017     020000016005503  2                  9
Y605571210053139235864AGUILAR                    MARTINEZ                   SALVADOR                   00000000000000011032017     020000016010203  2                  9
Y605571210053998138100ZAMORA                     GUTIERREZ                  YOLANDA                    00000000000000012032017     020000016010403  2                  9
Y605571210005179606651ROSALES                    VAZQUEZ                    JULISSA YOHANA             00000000000000013032017     020000019103903  2                  9
Y605571210004048017372FLORES                     RUIZ                       LEOPOLDO                   00000000000000009032017     020000032001403  2                  9
