R143868210304028681031AMBRIZ                     DIAZ                       ERIC ANDRES                00000000000000021122016     020000014124003  2                  9
R143868210375139317236LOPEZ                      MARTINEZ                   EDGAR JONATHAN             00000000000000020122016     020000014124203  2                  9
R143868210375089121257MARTINEZ                   CENTENO                    NICOLAS                    00000000000000021122016     020000014126603  2                  9
