D691959010178058618030AVENDAÑO                   RAMOS                      ALBERTO ANTONIO            00000000000000002062017     020000020027303  2                  9
D691959010119149549107CUEVAS                     MULATO                     RAFAEL                     00000000000000006062017     020000020029003  2                  9
D691959010105129662036CUELLAR                    PONCE                      JOSE ALFREDO               00000000000000002062017     020000020030103  2                  9
D691959010105129707518ESESARTE                   PONCE                      HAMOR                      00000000000000002062017     020000020030203  2                  9
