D172000910209098607469VILLA                      TORRES                     LUIS ALFREDO               00000000000000010012017     020000017030903  2                  9
D172000910205159039923GARCIA                     TOSCANO                    JORGE ALEJANDRO            00000000000000016012017     020000017048303  2                  9
D172000910215067500353JIMENEZ                    MARIN                      GENARO                     00000000000000016012017     020000017049503  2                  9
D172000910225169294433DOMINGUEZ                  JABANA                     FELIX                      00000000000000016012017     020000017049603  2                  9
