Y605571210021109350609GARCIA                     ALANIS                     JOSE MANUEL                00000000000000016082016     020000002045103  2                  9
Y605571210021998393223CISNEROS                   MORQUECHO                  SALVADOR                   00000000000000020082016     020000002049303  2                  9
Y605571210016139589655FLORES                     CRUZ                       AHIZER ELIAS               00000000000000020082016     020000002049603  2                  9
Y605571210025169761977FABIAN                     AMBRIZ                     MANUEL                     00000000000000020082016     020000002049903  2                  9
Y605571210027149568928VALLE                      MUÒOZ                      LUIS DANIEL                00000000000000020082016     020000002050003  2                  9
Y605571210025139520453PONCE                      PEREZ                      ROBERTO                    00000000000000020082016     020000002050103  2                  9
Y605571210021139658609ARGUELLES                  HERNANDEZ                  EDWIN EFRAIN               00000000000000020082016     020000002050203  2                  9
Y605571210025079047418RODRIGUEZ                  CALDERON                   VICTOR RAUL                00000000000000020082016     020000002050303  2                  9
Y605571210096078960992PALMA                      CAMARGO                    EDUARDO RODRIGO            00000000000000022082016     020000009542303  2                  9
Y605571210039058817204RIOS                       AGUIRRE                    CARLOS IGNACIO             00000000000000021082016     020000009558103  2                  9
Y605571210046119310418DAVALOS                    CRUZ                       VICTOR BRANDONN            00000000000000022082016     020000009612003  2                  9
Y605571210096937208393UBALDO                     SALAS                      AGUSTIN                    00000000000000022082016     020000009625203  2                  9
Y605571210044149381996GARCIA                     AGUILAR                    LUIS EDUARDO               00000000000000022082016     020000009639203  2                  9
Y605571210020906601792ESPINOZA                   SANCHEZ                    MARCOS                     00000000000000022082016     020000015178603  2                  9
Y605571210047139620380JIMENEZ                    CASTILLO                   JESUS ALEJANDRO            00000000000000018082016     020000019069503  2                  9
Y605571210032005902328SOLIZ                      REYES                      JOAQUIN                    00000000000000019082016     020000019080203  2                  9
Y605571210049876905529TORRES                     REQUENA                    RUBEN                      00000000000000018082016     020000019080703  2                  9
Y605571210043795968247RAMIREZ                    RAMIREZ                    RODRIGO                    00000000000000019082016     020000019082603  2                  9
Y605571210043886567940ESPINOSA                   CASTILLEJA                 ROGELIO                    00000000000000018082016     020000019083103  2                  9
Y605571210041068633753OLVERA                     MORALES                    VERONICA                   00000000000000018082016     020000019085103  2                  9
Y605571210027169576843SERVIN                     TREJO                      MARIO ALBERTO              00000000000000022082016     020000022049503  2                  9
Y605571210023069073288MARTINEZ                   BASTIDAS                   JOSE ALFREDO               00000000000000022082016     020000025007403  2                  9
Y605571210083927435681TORRES                     ALCAZAR                    ANTONIO                    00000000000000022082016     020000027056003  2                  9
Y605571210083099116754PEREZ                      RODRIGUEZ                  PEDRO DAVID                00000000000000022082016     020000027056903  2                  9
Y605571210065978057852VILLEDA                    CASTRO                     LUIS FELIPE                00000000000000022082016     020000028033603  2                  9
Y605571210065068541260PARDI—O                    RAMIREZ                    SULEIRA DEL ROSARIO        00000000000000020082016     020000030109803  2                  9
Y605571210065018242654VIGUERAS                   VARGAS                     DELFINO                    00000000000000020082016     020000030118603  2                  9
Y605571210065058325286GARCIA                     HERNANDEZ                  TANIA ESDEYNEB             00000000000000022082016     020000030119003  2                  9
Y605571210011037601066MORALES                    RAMIREZ                    JOSE ANTONIO               00000000000000020082016     020000030119503  2                  9
Y605571210003147497592GOMEZ                      MEJIA                      MARIA DE JESUS             00000000000000020082016     020000030119703  2                  9
Y605571210014038213691TRIANA                     SALGADO                    MOISES                     00000000000000020082016     020000030120303  2                  9
Y605571210039947585830JIMENEZ                    SALAZAR                    SEBASTIAN                  00000000000000020082016     020000030120603  2                  9
