Y462621510962967503624FLORES                     GONZALEZ                   SERGIO                     00000000000000001042017     020000021155503  2                  9
Y462621510935169459423HERNANDEZ                  LUCIANO                    ISAIAS                     00000000000000001042017     020000021158103  2                  9
Y462621510948068945459ANGELES                    SERRANO                    FERNANDO                   00000000000000001042017     020000021162603  2                  9
Y462621510962886737196LOZANO                     DELGADO                    MARINA                     00000000000000004042017     020000021164903  2                  9
