Z064567510812998122597VILLASEÑOR                 ARREDONDO                  ARTURO CESAR               00000000000000019072017     020000011045403  2                  9
Z064567510812846404619RODRIGUEZ                  BERMUDEZ                   FIDEL                      00000000000000019072017     020000011094303  2                  9
Z064567510810149744632ANDRADE                    MENDOZA                    GERARDO FRANCISCO          00000000000000019072017     020000011097503  2                  9
Z064567510812856740415DE JULIAN                                             SEBASTIAN                  00000000000000019072017     020000011097903  2                  9
Z064567510812896520884VELEZ                      MENDOZA                    MIGUEL                     00000000000000019072017     020000011098403  2                  9
Z064567510812066003042VILLA                      MORALES                    JUAN JOSE                  00000000000000020072017     020000011098603  2                  9
Z064567510812947351347RIOS                       FLORES                     MIGUEL ANGEL               00000000000000019072017     020000011098903  2                  9
Z064567510842916407580SALAZAR                    RAMIREZ                    MARIA CANDELARIA           00000000000000019072017     020000011101303  2                  9
Z064567510812129299009GOMEZ                      GOMEZ                      NERY MAURICIO              00000000000000020072017     020000011101503  2                  9
