R143868210309079159621TOSCANO                    AGUILAR                    ROGELIO                    00000000000000003042017     020000014126403  2                  9
R143868210304735111009HERNANDEZ                  LUNA                       SALVADOR                   00000000000000001042017     020000014128203  2                  9
R143868210304129386027CONTRERAS                  MALDONADO                  ABNER ELEAZAR              00000000000000003042017     020000014131403  2                  9
