A836767410921118408661HEREDIA                    RUIZ                       ANDRES                     00000000000000012062017     020000002051903  2                  9
A836767410955018101281CASTRO                     RUIZ                       LUIS ALBERTO               00000000000000010062017     020000002056203  2                  9
A836767410933978211580AGUILAR                    LEAL                       ABDIEL                     00000000000000013062017     020000008047803  2                  9
A836767410943806360434RUBALCAVA                  GALLEGOS                   EFRAIN MOISES              00000000000000013062017     020000008074803  2                  9
A836767410933987708956FLORIDO                    MONTERO                    JOSE ANGEL                 00000000000000013062017     020000008075203  2                  9
