Y605571210021028550214LOYA                       MANZO                      GILBERTO                   00000000000000005072016     020000002010503  2                  9
Y605571210003149482733DIAZ                       CARRILLO                   AZIEL JOAS                 00000000000000001072016     020000009585603  2                  9
Y605571210011775750901BUITRON                    CRUZ                       ANTONIO                    00000000000000005072016     020000009601903  2                  9
Y605571210039139203341MONDRAGON                  SANCHEZ                    SERGIO                     00000000000000001072016     020000009621403  2                  9
Y605571210067068716801MARTINEZ                   MARTINEZ                   TREJO JESUS                00000000000000006072016     020000023025203  2                  9
Y605571210082099113191CORDOVA                    ALBERT                     LAURA ISELA                00000000000000006072016     020000023026603  2                  9
Y605571210083967310653DIAZ                       JIMENEZ                    CATALINO                   00000000000000005072016     020000027043103  2                  9
Y605571210039139736555RICO                       ANDRES                     JOSE ENRIQUE               00000000000000006072016     020000030117003  2                  9
