D172000910218159308826AVILA                      GARCIA                     DIEGO AMANDO               00000000000000026082017     020000017040703  2                  9
D172000910218159508805GALVAN                     ROMERO                     JOSE ANTONIO               00000000000000026082017     020000017047503  2                  9
D172000910202166036612ROMANO                     NUBLAN                     ELIAS                      00000000000000026082017     020000017047603  2                  9
D172000910203168477382RODRIGUEZ                  COYOTE                     ALMA ANGELICA              00000000000000026082017     020000017048403  2                  9
D172000910220026000560PEREZ                      TORRES                     JUVENTINO                  00000000000000027082017     020000017050403  2                  9
D172000910292058519726LOPEZ                      ROJAS                      NORMA LETICIA              00000000000000027082017     020000017052603  2                  9
