Y462621510962907212849RODRIGUEZ                  RODRIGUEZ                  FRANCISCO                  00000000000000023042016     020000021135403  2                  9
Y462621510902156622074COYOTECATL                 RAMOS                      MARGARITA                  00000000000000026042016     020000021140403  2                  9
Y462621510961118904848GRACIA                     MORALES                    OSCAR                      00000000000000021042016     020000021144003  2                  9
Y462621510962988109179PEDRAZA                    ARROYO                     LEOPOLDO                   00000000000000025042016     020000021144903  2                  9
