Y605571210071118610923RODRIGUEZ                  GARDUZA                    BERNARDO                   00000000000000019102016     020000007016003  2                  9
Y605571210094078912139ESPAÒA                     DIAZ                       EFRAIN                     00000000000000019102016     020000009516203  2                  9
Y605571210094008119490BAUTISTA                   GARCIA                     JOEL                       00000000000000018102016     020000009565203  2                  9
Y605571210094998018975NU—EZ                      PEREZ                      EDUARDO                    00000000000000019102016     020000009609203  2                  9
Y605571210045907505486AVENDA—O                   LUNA                       MIGUEL ANGEL               00000000000000018102016     020000009621303  2                  9
Y605571210039028604112RUIZ                       TEJADA                     JULIO CESAR                00000000000000018102016     020000009632803  2                  9
Y605571210096119260485DIAZ                       GUTIERREZ                  SANDRA GUADALUPE           00000000000000018102016     020000009641103  2                  9
Y605571210096099024406PEREZ                      SANTANA                    EDUARDO                    00000000000000019102016     020000009643403  2                  9
Y605571210096078833363RAMIREZ                    VELASCO                    JANNETE MARLEN             00000000000000019102016     020000009646603  2                  9
Y605571210026149354040MENDOZA                    BARANDA                    LUIS ANTONIO               00000000000000018102016     020000009647903  2                  9
Y605571210018159311317HERNANDEZ                  ARRIETA                    BRANDON                    00000000000000019102016     020000009651303  2                  9
Y605571210012078315145LUNA                       LINARES                    LEONEL                     00000000000000019102016     020000011084603  2                  9
Y605571210005169320271LARA                       RODRIGUEZ                  GUSTAVO ALBERTO            00000000000000019102016     020000013015303  2                  9
Y605571210013099022371CABRERA                    NARANJO                    JONATHAN                   00000000000000019102016     020000013015903  2                  9
Y605571210020906601792ESPINOZA                   SANCHEZ                    MARCOS                     00000000000000019102016     020000015178603  2                  9
Y605571210090896820140GONZALEZ                   CHAVEZ                     GUILLERMO                  00000000000000019102016     020000022030803  2                  9
Y605571210014987402352GONZALEZ                   PEREZ                      JOSE SAMUEL                00000000000000019102016     020000022051303  2                  9
Y605571210070169847863GALLEGOS                   GONZAGA                    MIGUEL ANGEL               00000000000000019102016     020000022051403  2                  9
Y605571210049998115270SANCHEZ                    GONZALEZ                   JOSE ANTONIO               00000000000000019102016     020000028036003  2                  9
Y605571210067149501461BLAS                       SEBA                       JUAN DE DIOS               00000000000000019102016     020000030043303  2                  9
Y605571210065987108274YEPEZ                      PALACIOS                   RENE                       00000000000000019102016     020000030122303  2                  9
Y605571210011169067607MACARIO                    ALVARADO                   JOSE LUIS                  00000000000000019102016     020000030124503  2                  9
