Y605571210008179546281RAMOS                      LINARES                    ALFREDO                    00000000000000007082017     020000002055603  2                  9
Y605571210039937768024RIOS                       FLORES                     JOSEFINA                   00000000000000008082017     020000009042402  2                  9
Y605571210028916918619MARTINEZ                   RODRIGUEZ                  MARIO ALBERTO              00000000000000008082017     020000009663903  2                  9
Y605571210045139334051NABOR                      ZAMORA                     JOSE EDUARDO               00000000000000003082017     020000009704503  2                  9
Y605571210045119437528MARTINEZ                   CASTILLO                   HENN DONOVAN               00000000000000003082017     020000009704803  2                  9
Y605571210007007502763ROJAS                      ESQUIVEL                   ROBERTO CARLOS             00000000000000003082017     020000009721603  2                  9
Y605571210001129218523GARCIA                     SANTOS                     MARIA DE LOS ANGELES       00000000000000008082017     020000015217003  2                  9
Y605571210043038425567JAUREGUI                   TORRES                     ADRIAN                     00000000000000008082017     020000019115303  2                  9
Y605571210043816456495BUSTOS                     PEREZ                      JESUS                      00000000000000007082017     020000019121703  2                  9
Y605571210031119311681TORRES                     REYES                      JOSE ISMAEL                00000000000000008082017     020000025015003  2                  9
Y605571210025179823999GONZALEZ                   HERNANDEZ                  PEDRO SAULO                00000000000000008082017     020000025017003  2                  9
Y605571210038149158925FELIX                      VELARDE                    GRECIA YANURI              00000000000000008082017     020000025018103  2                  9
Y605571210067927104470JIMENEZ                    SOLANO                     JUAN ANTONIO               00000000000000008082017     020000030153303  2                  9
Y605571210050149426723PEREZ                      CRUZ                       YAHIR                      00000000000000006082017     020000030153403  2                  9
Y605571210067139549546CRUZ                       DOMINGUEZ                  PEDRO                      00000000000000006082017     020000030153503  2                  9
