Y605571210032099239462ROBLEDO                    DEL BOSQUE                 MARIO IVAN                 00000000000000006072016     020000005010803  2                  9
Y605571210012947882028GONZALEZ                   CALDERON                   JUAN GERARDO               00000000000000012072016     020000011040703  2                  9
Y605571210012048861194TOVAR                      JIMENEZ                    HECTOR DARIO               00000000000000009072016     020000011076303  2                  9
Y605571210007168942162AMBROSIO                   TOTO                       DAVID ISRAEL               00000000000000010072016     020000011083003  2                  9
Y605571210027159773194GUTIERREZ                                             JOSE CARMEN                00000000000000010072016     020000011085703  2                  9
Y605571210092997828220BENITEZ                    ALMARAZ                    ADRIAN                     00000000000000006072016     020000015170803  2                  9
Y605571210047139541925GLORIA                     SAAVEDRA                   ABELARDO                   00000000000000007072016     020000019079403  2                  9
Y605571210043927661777GARCIA                     RAMIREZ                    LAURA PATRICIA             00000000000000007072016     020000019082003  2                  9
Y605571210003907207892RODRIGUEZ                  RETA                       LUIS CARLOS                00000000000000010072016     020000019082103  2                  9
Y605571210065119297201ANTELE                     PALAYOT                    ANA VALERIA                00000000000000012072016     020000022042503  2                  9
Y605571210096128500939LULE                       CORNEJO                    BERNARDO                   00000000000000012072016     020000022044703  2                  9
Y605571210039169672373TOGA                       TEOBA                      GUSTAVO                    00000000000000012072016     020000022045103  2                  9
Y605571210063159700804COYOLT                     MEDEL                      SERGIO ALBERTO             00000000000000012072016     020000022045203  2                  9
Y605571210010169591491LARA                       PIO                        FELIPE DE JESUS            00000000000000012072016     020000022045303  2                  9
Y605571210065139433703ANTELE                     PALAYOT                    KARINA SUGEY               00000000000000012072016     020000022046603  2                  9
Y605571210072129009246RADILLA                    PANO                       NATALI                     00000000000000012072016     020000022047003  2                  9
Y605571210050149658085ORTEGA                     HERNANDEZ                  CRISTOBAL ALEJANDRO        00000000000000012072016     020000022047103  2                  9
Y605571210083998021014LOPEZ                      CANO                       ALEJANDRO                  00000000000000012072016     020000027052103  2                  9
