Y605571210002178656449CORTES                     NERI                       CARMELO                    00000000000000002062017     020000009690003  2                  9
Y605571210058149617456TRIANA                     ZARATE                     LUIS ANTONIO               00000000000000002062017     020000009692503  2                  9
Y605571210090138809935CASARES                    MARTINEZ                   GUILEBALDO                 00000000000000001062017     020000009695503  2                  9
Y605571210011997908253CORNEJO                    RODRIGUEZ                  MARCOS                     00000000000000002062017     020000009696003  2                  9
Y605571210074149569662SALAZAR                    HERNANDEZ                  LUIS EDUARDO               00000000000000001062017     020000015002702  2                  9
Y605571210043916962368TAMEZ                      CANIZALES                  EVER RAUL                  00000000000000002062017     020000019111703  2                  9
Y605571210005179619688CORTEZ                     JIMENEZ                    GERARDO ANDRES             00000000000000002062017     020000023044603  2                  9
