Y605571210071099031024SANCHEZ                    MORENO                     MARCO ANTONIO              00000000000000001052016     020000007013003  2                  9
Y605571210005169287165HERNANDEZ                  SANTIZ                     SILVIA                     00000000000000001052016     020000007013503  2                  9
Y605571210045129512559TRONCOSO                   GOMEZ                      MARIO ALEXIS               00000000000000028042016     020000009532103  2                  9
Y605571210030028436373TRONCOSO                   GOMEZ                      OSCAR ALBERTO              00000000000000028042016     020000009532203  2                  9
Y605571210017159028426ALTAMIRANO                 VELAZCO                    LUCILA ADELA               00000000000000029042016     020000009583303  2                  9
Y605571210042089007373LOPEZ                      OLIVARES                   ANGEL ULICES               00000000000000028042016     020000009606703  2                  9
Y605571210065947525625CHAGALA                    VICHI                      FEDERICO                   00000000000000002052016     020000011078303  2                  9
Y605571210016119425953ERNESTO                    HERNANDEZ                  RICARDO                    00000000000000001052016     020000015150203  2                  9
Y605571210016076301148ARCOS                      VILCHIS                    CATALINA GUADALUPE         00000000000000001052016     020000015156103  2                  9
Y605571210018977903980MENDOZA                    HERNANDEZ                  SALOMON                    00000000000000001052016     020000015162303  2                  9
Y605571210016926817038DE LA LUZ                  MENDOZA                    DAVID                      00000000000000001052016     020000015163603  2                  9
Y605571210003149678538SANCHEZ                    GONZALEZ                   OSVALDO                    00000000000000001052016     020000015166403  2                  9
Y605571210016109206546NAVARRETE                  ANAYA                      HECTOR JESUS               00000000000000001052016     020000015166803  2                  9
Y605571210005129669494MARIANO                    ISIDRO                     ERANGELIO                  00000000000000029042016     020000015168503  2                  9
Y605571210005159439156CIRILO                     GONZALEZ                   RAUL                       00000000000000001052016     020000015170603  2                  9
Y605571210003977853682ZUÑIGA                     RAMIREZ                    JAIME RENE                 00000000000000029042016     020000019046003  2                  9
Y605571210083119334809PEREZ                      RONSON                     JOSE DE JESUS              00000000000000027042016     020000019073403  2                  9
Y605571210014765801056GARCIA                     LOPEZ                      BERNARDINO                 00000000000000011042016     020000022042703  2                  9
Y605571210067988022603PEREZ                      MARQUEZ                    ALBERTO                    00000000000000001052016     020000030062203  2                  9
Y605571210048997710479VICTORIANO                 GIL                        ALEJANDRO                  00000000000000001052016     020000030062303  2                  9
Y605571210067088911127HERNANDEZ                  ROSALES                    LUIS ALBERTO               00000000000000001052016     020000030088503  2                  9
Y605571210067118301463BRAVO                      GRAJALES                   JUANA                      00000000000000001052016     020000030091703  2                  9
Y605571210005148837510REYES                      PEREZ                      FRANCISCO                  00000000000000001052016     020000030097603  2                  9
Y605571210067805924676ESPINOZA                   CORTES                     JULIO                      00000000000000001052016     020000030098603  2                  9
Y605571210065119359035MATA                       LOPEZ                      MIGUEL ANGEL               00000000000000001052016     020000030101103  2                  9
Y605571210067109210335RODRIGUEZ                  RAMIREZ                    JORGE ARMANDO              00000000000000001052016     020000030103103  2                  9
Y605571210065967926075ORELLINGS                  ROSAS                      JAVIER                     00000000000000001052016     020000030108303  2                  9
Y605571210067098205148DELFIN                     MENDOZA                    MARIANA                    00000000000000002052016     020000030111503  2                  9
Y605571210067118201937CARMONA                    ESPINOZA                   ADRIAN                     00000000000000001052016     020000030113203  2                  9
