Y605571210050149516937FLORES                     TELLEZ                     CARLOS ANTONIO             00000000000000015052017     020000009509803  2                  9
Y605571210045957624591GONZALEZ                   MIRANDA                    GABRIEL                    00000000000000010052017     020000009566603  2                  9
Y605571210045068600126OLASCUAGA                  VAZQUEZ                    MIGUEL ANGEL               00000000000000015052017     020000009682803  2                  9
Y605571210039068304581MENDEZ                     HERNANDEZ                  SAMUEL ADOLFO              00000000000000016052017     020000009694303  2                  9
Y605571210020988023253VILLAFUERTE                LULE                       EDGAR MAURICIO             00000000000000015052017     020000009702903  2                  9
Y605571210092008250729LOPEZ                      MONTES                     ALINE JANET                00000000000000016052017     020000015191703  2                  9
Y605571210014008302797RODRIGUEZ                  LOPEZ                      ANTONIO                    00000000000000016052017     020000015197403  2                  9
Y605571210053137702089RODRIGUEZ                  MELCHOR                    JOSE LUIS                  00000000000000016052017     020000016011103  2                  9
Y605571210053038337688ZUÒIGA                     VILLA                      CELESTINO                  00000000000000016052017     020000019108203  2                  9
Y605571210009108707283VEGA                       HERNANDEZ                  EFREN                      00000000000000016052017     020000028041103  2                  9
Y605571210065896823732PABLO                      GARCIA                     ALBERTO                    00000000000000016052017     020000030128903  2                  9
