A836767410933977917864DUARTE                     ORTIZ                      MARIO                      00000000000000009112016     020000008050603  2                  9
A836767410933867016926ROSAS                                                 RODOLFO                    00000000000000009112016     020000008055803  2                  9
A836767410933058965147RAMOS                      PEÒA                       FELIPE DE JESUS            00000000000000010112016     020000008056903  2                  9
A836767410933967718868GARCIA                     MUÒIZ                      CRISTINA                   00000000000000010112016     020000008058103  2                  9
A836767410935119211882PEREYRA                    RUIZ                       BRANDON MARCELO            00000000000000010112016     020000008061403  2                  9
A836767410933998262142CAMARGO                    TELLO                      CARLOS                     00000000000000010112016     020000008061803  2                  9
A836767410933806505435SOLANO                     LUJAN                      ROBERTO                    00000000000000010112016     020000008063903  2                  9
