R143868210367947673736LOPEZ                      MOLINA                     EDUARDO                    00000000000000004072017     020000014123503  2                  9
R143868210351967702682LUNA                       SANTAMARIA                 ARMANDO                    00000000000000003072017     020000014128903  2                  9
R143868210392048419524LOPEZ                      ACUÒA                      DONACIANO                  00000000000000007072017     020000014131803  2                  9
R143868210354806157167LEAÒOS                     RAMIREZ                    MARTIN                     00000000000000004072017     020000014134803  2                  9
