R143868210325149590652ALONSO                     NUÒO                       SOFIA                      00000000000000002092016     020000014001902  2                  9
R143868210354846397872CAMPOS                     JIMENEZ                    BERTHA ALICIA              00000000000000001092016     020000014002502  2                  9
R143868210375957615323BALBUENA                   GARCIA                     DAVID ALEJANDRO            00000000000000001092016     020000014109303  2                  9
R143868210304028164418ZAMORA                     CHAVEZ                     PABLO                      00000000000000002092016     020000014114103  2                  9
