Y605571210002169667645SALGADO                    ARTEAGA                    JESUS ANDRES               00000000000000011102016     020000009648103  2                  9
Y605571210043116800459RINCON                     MACARENO                   MA ELENA                   00000000000000012102016     020000019086403  2                  9
Y605571210047119205087HERNANDEZ                  HERNANDEZ                  JOSE LUCAS                 00000000000000013102016     020000019088003  2                  9
Y605571210043028526234AGUILERA                   RODRIGUEZ                  ELIUD ARMANDO              00000000000000012102016     020000019088403  2                  9
Y605571210014755704138PIÒA                       RICO                       MARIA                      00000000000000012102016     020000022043803  2                  9
Y605571210065139450012FLORES                     BAXIN                      RICARDO                    00000000000000012102016     020000022047403  2                  9
Y605571210065058900641FLORES                     BAXIN                      MARCO ANTONIO              00000000000000012102016     020000022050103  2                  9
Y605571210026169432387IXTEPAN                    CAMPOS                     ROBERTO JAVIER             00000000000000012102016     020000022050203  2                  9
Y605571210049967045086PECINA                     MARTINEZ                   HECTOR PAUL                00000000000000012102016     020000022050803  2                  9
Y605571210082129444566CASTILLO                   AKE                        LUIS FERNANDO              00000000000000007102016     020000023032703  2                  9
Y605571210065088739910LUNA                       PEREZ                      JOSE ANTONIO               00000000000000013102016     020000030117803  2                  9
Y605571210065109103369PEREZ                      ARROYO                     ISVAI                      00000000000000013102016     020000030122103  2                  9
Y605571210003149330957CELDO                      ZETINA                     GILBERTO                   00000000000000013102016     020000030124003  2                  9
