Y605571210045998223262RAYON                      MARILES                    ADRIANA                    00000000000000016022017     020000009568003  2                  9
Y605571210030048617143MERINO                     LEON                       WENDY                      00000000000000016022017     020000009655403  2                  9
Y605571210016109205365FUENTES                    ENRIQUEZ                   BRENDA SANDRA              00000000000000016022017     020000009679203  2                  9
Y605571210004856735347BECERRA                    JUAREZ                     JUAN ANTONIO               00000000000000016022017     020000009680603  2                  9
Y605571210020028321519ESQUIVEL                   SALDAÑA                    PEDRO DAVID                00000000000000015022017     020000015131203  2                  9
Y605571210016947604662SOTELO                     ZEPEDA                     MIGUEL ANGEL               00000000000000016022017     020000015183203  2                  9
Y605571210092058525954BENITEZ                    SANTOS                     ANA DELHI                  00000000000000014022017     020000015191903  2                  9
Y605571210047129330172ESTRADA                    MENDOZA                    YARELIA ANAHI              00000000000000016022017     020000019002702  2                  9
Y605571210047089029020TOBANCHE                   ACOSTA                     MARTIN GUADALUPE           00000000000000016022017     020000019095003  2                  9
Y605571210012018013149MARTINEZ                   ABARCA                     PASCUALITA                 00000000000000016022017     020000022053703  2                  9
Y605571210065027612152HERNANDEZ                  GUERRERO                   ISAAC                      00000000000000016022017     020000028035003  2                  9
