Y605571210032018212814NOLAZCO                    MONTOYA                    JUAN MANUEL                00000000000000006062017     020000005012703  2                  9
Y605571210028119223049HERNANDEZ                   MORALES                   CARLOS EDUARDO             00000000000000005062017     020000009042802  2                  9
Y605571210039937350971QUINTANA                   GONZALEZ                   ANDRES ERNESTO             00000000000000005062017     020000009685903  2                  9
Y605571210096986901914LLAMAS                     PACHECO                    CARMEN                     00000000000000006062017     020000009696203  2                  9
Y605571210062169576725VALENTIN                   PONCE                      DIEGO                      00000000000000001062017     020000009697903  2                  9
Y605571210096139435257VILLANUEVA                 MENDEZ                     FEDERICO                   00000000000000006062017     020000009703203  2                  9
Y605571210006795810545NAVA                       SANTOS                     FELIX JUAN                 00000000000000001062017     020000009704403  2                  9
Y605571210045067704721LUNA                       ESPINOSA                   MIGUEL GERARDO             00000000000000006062017     020000009710603  2                  9
Y605571210006776040799SANCHEZ                    GARCIA                     MOISES                     00000000000000006062017     020000015188503  2                  9
Y605571210032048608353NAJERA                     SALAZAR                    VICTOR HUGO                00000000000000006062017     020000019114603  2                  9
Y605571210013068719569GONZALEZ                   ALVAREZ                    LUIS FERNANDO              00000000000000006062017     020000022062803  2                  9
Y605571210010158966639CASTELLANOS                ROSAS                      RAYMUNDO                   00000000000000005062017     020000023025303  2                  9
Y605571210083087503682NIETO                      NIETO                      MARIA DE JESUS             00000000000000005062017     020000023044103  2                  9
