A482760210311805403513COLORADO                   MARTINEZ                   JUAN MANUEL                00000000000000001092016     020000006002503  2                  9
A482760210352129501731AVILA                      GARCIA                     CARLOS ALBERTO             00000000000000001092016     020000006002603  2                  9
A482760210352947615002RAMIREZ                    VILLA                      LUIS ALBERTO               00000000000000001092016     020000006003403  2                  9
A482760210384018303846ABAN                       UITZIL                     CANDELARIO                 00000000000000003092016     020000031029903  2                  9
A482760210384997900737ABAN                       UITZIL                     JULIO ALFREDO              00000000000000003092016     020000031030003  2                  9
