Z064567510805169009643GILES                      RAMIREZ                    JOSE ANTONIO               00000000000000003022017     020000011091203  2                  9
Z064567510812129375189TORRES                     HERNANDEZ                  CARLOS ALBERTO             00000000000000003022017     020000011092403  2                  9
Z064567510812998800119NORIEGA                    VELAZQUEZ                  JOSE RICARDO               00000000000000003022017     020000011093103  2                  9
Z064567510812967131199MORENO                     RAMIREZ                    EFREN DANIEL               00000000000000003022017     020000011094003  2                  9
