A836767410933836755695RAMIREZ                    ROMERO                     MARTHA ORALIA              00000000000000001112016     020000008008003  2                  9
A836767410921069007942MONTOYA                    SALAZAR                    ERICK JESUS                00000000000000001112016     020000008061203  2                  9
A836767410975816305652CASTELAN                   GUTIERREZ                  ADOLFO GUILLERMO           00000000000000001112016     020000008063203  2                  9
A836767410933128916815SIERRA                     FRANCO                     MARCO ANTONIO              00000000000000001112016     020000008063403  2                  9
A836767410933069065119 ALCANTAR                  SANTOS                     GILBERTO ANTONIO           00000000000000001112016     020000008063603  2                  9
