Y605571210013139115805MONROY                     ALVARADO                   ALEJANDRO                  00000000000000002062016     020000009503003  2                  9
Y605571210042139605549FRIAS                      AVILA                      LUIS DONALDO               00000000000000002062016     020000009594403  2                  9
Y605571210016027707260BENITEZ                    MARIN                      LETICIA                    00000000000000002062016     020000015134703  2                  9
Y605571210003917441606IBARRA                     CASTAÒEDA                  JAVIER                     00000000000000002062016     020000019064903  2                  9
Y605571210072128807525VELAZQUEZ                  ROMERO                     MARTIN                     00000000000000002062016     020000019078603  2                  9
Y605571210003978026130ROCHA                      FLORES                     PABLO ALBERTO              00000000000000002062016     020000019079803  2                  9
Y605571210078078905656MEDINA                     VASQUEZ                    ESTEBAN                    00000000000000002062016     020000020024503  2                  9
Y605571210062897398954TECALERO                   OCOTL                      LUCAS                      00000000000000001062016     020000020024903  2                  9
Y605571210067028307709TREJO                      TOLENTINO                  MIGUEL ANGEL               00000000000000001062016     020000030067103  2                  9
Y605571210067098411563LORENZO                    TOBON                      FELIPE                     00000000000000001062016     020000030093903  2                  9
Y605571210067108614545LORENZO                    TOBON                      ISRAEL                     00000000000000001062016     020000030094003  2                  9
Y605571210067119113297HERNANDEZ                  RUIZ                       ALEXANDER                  00000000000000001062016     020000030094603  2                  9
Y605571210024947640520MORALES                    PANTOJA                    ALTAGRACIO                 00000000000000001062016     020000030094803  2                  9
Y605571210003158021281CAZARES                    FLORES                     ANDRES                     00000000000000001062016     020000030095003  2                  9
Y605571210067936724144CAMPOS                     ZAMUDIO                    RAUL                       00000000000000001062016     020000030095303  2                  9
Y605571210067098407306VALDIVIA                   ROSALES                    JOSE ROMUALDO              00000000000000001062016     020000030099303  2                  9
Y605571210065099048228RAMIREZ                    CONTRERAS                  FABIOLA                    00000000000000001062016     020000030105803  2                  9
Y605571210005159251551MARTINEZ                   CORPEÒO                    FRANKLIN GUSTAVO           00000000000000001062016     020000030110703  2                  9
Y605571210065069001199MENDOZA                    HERNANDEZ                  ZULEIMA                    00000000000000002062016     020000030116603  2                  9
