Y607431310445068400147OCHOA                      RODRIGUEZ                  JAVIER                     00000000000000017022021     020000009005003  2                  9
Y607431310445957524171GARCIA                     GARCIA                     FREDY                      00000000000000017022021     020000009006303  2                  9
Y607431310437108904824MONTESINOS                 SANDOVAL                   VICTOR MIGUEL              00000000000000016022021     020000009008103  2                  9
