Y605571210044169653332VARGAS                     VARGAS                     ISAIAS                     00000000000000008102016     020000004007403  2                  9
Y605571210081119402246VARGAS                     VARGAS                     DIANA LAURA                00000000000000008102016     020000004007503  2                  9
Y605571210081129413779MISS                       ORTIZ                      CARLOS ENRIQUE             00000000000000008102016     020000004008203  2                  9
Y605571210092129126311ORTEGA                     ORTEGA                     JORGE                      00000000000000010102016     020000009622103  2                  9
Y605571210042119516484MEDINA                     ZENDEJAS                   MARISOL                    00000000000000007102016     020000009629703  2                  9
Y605571210008159064651APARICIO                   CANO                       FELICIANO                  00000000000000004102016     020000009642803  2                  9
Y605571210092967817294ALCARAZ                    ACOSTA                     JUAN FERNANDO              00000000000000009102016     020000009643003  2                  9
Y605571210096119108031LOPEZ                      RUEDA                      JOSE EDUARDO               00000000000000006102016     020000009644003  2                  9
Y605571210013129449057GARCIA                     BONETTA                    KEVIN OLAFF                00000000000000008102016     020000013012103  2                  9
Y605571210024957514482GARCIA                     HERNANDEZ                  ALVARO JOSE ALONSO         00000000000000005102016     020000015129603  2                  9
Y605571210092139411315ESPINOSA                   MORALES                    SASHA ATENAS               00000000000000010102016     020000015167003  2                  9
Y605571210092098810267HERRERA                    QUIROZ                     YESSICA IVONE              00000000000000008102016     020000015173703  2                  9
Y605571210021998223693VALDIVIA                   VILLANUEVA                 SERGIO                     00000000000000007102016     020000016007603  2                  9
Y605571210056956701710LOPEZ                      MARQUEZ                    JOSE RICARDO               00000000000000007102016     020000016008203  2                  9
Y605571210082068734985VILLEGAS                   GARCIA                     CARLOS MARIO               00000000000000010102016     020000027058003  2                  9
Y605571210049936710190ZUÒIGA                     LOPEZ                      ODIEL ROSENDO              00000000000000007102016     020000028035303  2                  9
Y605571210049169648000PEREZ                      CASTILLO                   MARLEN                     00000000000000009102016     020000030125003  2                  9
Y605571210028007907992CALIX                      CARLIN                     TANIA FABIOLA              00000000000000010102016     020000030125803  2                  9
