Y605571210096068763315GOMEZ                      BERNAL                     NAYELI GUADALUPE           00000000000000022052017     020000009036902  2                  9
Y605571210007967817961LIRA                       ESCAMILLA                  MARA ANGELICA              00000000000000017052017     020000009690303  2                  9
Y605571210090109500489RAMIREZ                    CRUZ                       RAFAEL                     00000000000000017052017     020000009697303  2                  9
Y605571210042078701788ABURTO                     DEL VALLE                  ROBERTO EMILIO             00000000000000021052017     020000009699603  2                  9
Y605571210008149808068TOVAR                      GARCIA                     ANA PATRICIA               00000000000000023052017     020000009699803  2                  9
Y605571210045129640483LOPEZ                      MUCIÒO                     LESLY FERNANDA             00000000000000021052017     020000009705203  2                  9
Y605571210012169875627ESTRADA                    RAMIREZ                    JOSE EDUARDO               00000000000000022052017     020000015202203  2                  9
Y605571210008179504249ALMAZAN                    CARRANZA                   JOSE RUBEN                 00000000000000019052017     020000015206003  2                  9
Y605571210092987725022TREJO                      RUIZ                       MARGARITA                  00000000000000023052017     020000015210603  2                  9
Y605571210003876911458MARTINEZ                   ROMERO                     JOSE CIRILIO               00000000000000023052017     020000019112003  2                  9
Y605571210009078974434CACERES                    HERNANDEZ                  NICOLAS                    00000000000000022052017     020000019113403  2                  9
Y605571210055169729054MORENO                     GARCIA                     JULIO CESAR                00000000000000020052017     020000023042703  2                  9
Y605571210082856813728ROBERTOS                   CETINA                     CARLOS MANUEL              00000000000000020052017     020000023045003  2                  9
Y605571210067119355617GONZALEZ                   PEREZ                      BRENDA YAZMIN DEL CARMEN   00000000000000023052017     020000030135503  2                  9
Y605571210065806417047PEREZ                      CAMACHO                    ERIC                       00000000000000022052017     020000030136403  2                  9
Y605571210067977903011GALVEZ                     BERISTAIN                  GONZALO                    00000000000000023052017     020000030137503  2                  9
