Y605571210071077808849RAMIREZ                    ALFARO                     MARICELIA                  00000000000000001122016     020000007014703  2                  9
Y605571210025149173780MOSHAN                     MARTINEZ                   MANUELA                    00000000000000001122016     020000007016403  2                  9
Y605571210062967408899DIAZ                       BAUTISTA                   GUILLERMO                  00000000000000001122016     020000009598503  2                  9
Y605571210096066401132SANGINES                   MARTINEZ                   MARINO                     00000000000000001122016     020000009659603  2                  9
Y605571210042856818739DIEGO                      HERNANDEZ                  MIGUEL ANGEL               00000000000000001122016     020000009662603  2                  9
Y605571210012976604830AGUILAR                    PEÒA                       UBALDO                     00000000000000001122016     020000011081903  2                  9
Y605571210019159838598ANTONIO                    JIMENEZ                    EDUARDO                    00000000000000001122016     020000011082103  2                  9
Y605571210008169269142CELIS                      VELAZQUEZ                  MAURICIO RAFAEL            00000000000000001122016     020000011082503  2                  9
Y605571210054149608207RODRIGUEZ                  GAMBOA                     RAMON EDUARDO              00000000000000001122016     020000030126003  2                  9
Y605571210018149546279GONZALEZ                   RAMOS                      ANGEL RENE                 00000000000000001122016     020000030128203  2                  9
