Y605571210045027910186CALDERON                   HERNANDEZ                  JOSE ANTONIO               00000000000000026092016     020000009633603  2                  9
Y605571210007078902397GUADARRAMA                 OVIN                       VICTOR EDUARDO             00000000000000027092016     020000009640003  2                  9
Y605571210096098915950MONROY                     RAMIREZ                    SAMUEL                     00000000000000026092016     020000009641303  2                  9
Y605571210005158676568MAYO                       HERNANDEZ                  VIVIANA                    00000000000000026092016     020000011085203  2                  9
Y605571210043887104925MARTINEZ                   ALVAREZ                    JORGE LUIS                 00000000000000026092016     020000019087303  2                  9
Y605571210043007401656PALOMO                     RIVERA                     ARACELI                    00000000000000026092016     020000019087603  2                  9
Y605571210043917406126LOPEZ                      VARGAS                     JUAN PATRICIO              00000000000000026092016     020000019087703  2                  9
