Y605571210045038622606LOPEZ                      AQUINO                     IDAILY                     00000000000000013062017     020000009631703  2                  9
Y605571210027169668251MANZANO                    GODEN                      JOSE ANGEL                 00000000000000013062017     020000009694603  2                  9
Y605571210096079109847FABIAN                     ALVARADO                   FERMIN                     00000000000000010062017     020000009711503  2                  9
Y605571210042886909094ESTRADA                    PEREZ                      RUBEN                      00000000000000013062017     020000009712103  2                  9
Y605571210012078421463LOPEZ                      LOMAS                      LAURA ALEJANDRA            00000000000000013062017     020000015203803  2                  9
Y605571210048008296377RAMOS                      SUAREZ                     ANGELICA LILIANA           00000000000000008062017     020000016011603  2                  9
Y605571210043008130973CORONA                     CAMACHO                    RAMON AMADO                00000000000000013062017     020000019066503  2                  9
Y605571210043886962141ALANIS                     MORENO                     LINO GUADALUPE             00000000000000012062017     020000019100003  2                  9
Y605571210073159785077LOPEZ                      ARIAS                      ULISES ALEJANDRO           00000000000000013062017     020000022061903  2                  9
Y605571210005169214003JIMENEZ                    AGUILAR                    OSCAR ARMANDO              00000000000000013062017     020000022062203  2                  9
Y605571210003149755211AYALA                      GRIMALDO                   ALAN MICHEL                00000000000000013062017     020000022062603  2                  9
Y605571210083088943671TIRADO                     CARRASCO                   ADOLFO                     00000000000000013062017     020000027062303  2                  9
