Y605571210051917514047GARCIA                     RAMIREZ                    JOSE                       00000000000000021082017     020000001009903  2                  9
Y605571210046159511818LOPEZ                      MANDUJANO                  NAYELY IVONNE              00000000000000018082017     020000009042102  2                  9
Y605571210030977305900SOLIS                      CORNEJO                    JUAN GABRIEL               00000000000000021082017     020000009723403  2                  9
Y605571210017169886987NAVA                       GONZALEZ                   LUIS FERNANDO              00000000000000022082017     020000009726503  2                  9
Y605571210062159812650SANTAMARIA                 FLORES                     BRIAN ALDAIR               00000000000000021082017     020000015198903  2                  9
Y605571210043129668513OLIVARES                   RAMIREZ                    DAVID ISAAC                00000000000000022082017     020000019123303  2                  9
Y605571210058159668175PEREZ                      RAMIREZ                    MARCIAL                    00000000000000020082017     020000024004503  2                  9
Y605571210083139002030ZAYAS                      MORALES                    JESUS ANTONIO              00000000000000022082017     020000027059903  2                  9
Y605571210083129448573BALAN                      MOSQUEDA                   JUAN ANTONIO               00000000000000022082017     020000027063803  2                  9
