Y605571210071027300194ZUVIRIE                    SANTOS                     GRINDELIO                  00000000000000021012017     020000007006503  2                  9
Y605571210071118708164AGUILAR                    HERNANDEZ                  EDUARDO JAVIER             00000000000000021012017     020000007016503  2                  9
Y605571210016018242517ALANIS                     CASTILLO                   ALBERTO MARTIN             00000000000000017012017     020000009034302  2                  9
Y605571210042866911433GONZALEZ                   HERNANDEZ                  JUAN MARCELO               00000000000000021012017     020000009645403  2                  9
Y605571210007048609346ZARATE                     CERON                      ARMANDO                    00000000000000020012017     020000009660503  2                  9
Y605571210090169817062JUAREZ                     ROJAS                      EDUARDO                    00000000000000020012017     020000009664103  2                  9
Y605571210096129362917BURGOS                     GUZMAN                     RICARDO DANIEL             00000000000000020012017     020000009667203  2                  9
Y605571210056169722123RODRIGUEZ                  MATAMOROS                  BRYAN ALEJANDRO            00000000000000018012017     020000009669703  2                  9
Y605571210030108302925GONZALEZ                   HERNANDEZ                  ENRIQUE                    00000000000000020012017     020000009673303  2                  9
Y605571210028068807362NORIEGA                    OLVERA                     LUIS EDSON                 00000000000000021012017     020000009674903  2                  9
Y605571210044169796271GARCIA                     MONTA—O                    JAVIER ALEJANDRO           00000000000000022012017     020000009676403  2                  9
Y605571210016987801822MAÒON                      GUTIERREZ                  JESUS ALBERTO              00000000000000021012017     020000011000802  2                  9
Y605571210012099336310MARTINEZ                   FLORES                     ISRAEL                     00000000000000021012017     020000011091903  2                  9
Y605571210094947629450OCHOA                      LOZANO                     JUAN CARLOS                00000000000000021012017     020000015182503  2                  9
Y605571210090987819282ESPINDOLA                  BASURTO                    MIGUEL ANGEL               00000000000000023012017     020000015182603  2                  9
Y605571210017159528300MONTENEGRO                 VALERO                     REYNA MARIBEL              00000000000000023012017     020000019060803  2                  9
Y605571210041089005478RESENDIZ                   MARTINEZ                   DONATO                     00000000000000023012017     020000019072503  2                  9
Y605571210009058504631GUZMAN                     MARTINEZ                   LEVI ISAIAS                00000000000000021012017     020000019096103  2                  9
Y605571210047998154927RODRIGUEZ                  SOLIS                       SANTIAGO                  00000000000000021012017     020000019098603  2                  9
Y605571210035149545135AZUETA                     AMBROSIO                   DANIEL                     00000000000000023012017     020000019099303  2                  9
Y605571210083138711664VAZQUEZ                    JIMENEZ                    JESUS ADRIAN               00000000000000021012017     020000027055503  2                  9
Y605571210083968141040HERNANDEZ                  PARCERO                    BENJAMIN                   00000000000000021012017     020000027056603  2                  9
Y605571210041896814864SAUCEDO                    BAUTISTA                   ADRIAN                     00000000000000023012017     020000028029003  2                  9
Y605571210049957175703TREJO                      VARGAS                     ADAN                       00000000000000020012017     020000028037603  2                  9
Y605571210058159566809GOMEZ                      HERNANDEZ                  REYNALDA                   00000000000000021012017     020000030131703  2                  9
Y605571210067866953689CAPORAL                    MAZABA                     GABINO                     00000000000000023012017     020000030133003  2                  9
Y605571210067977250918LAGUNAS                    SALINAS                    JULIO CESAR                00000000000000022012017     020000030133703  2                  9
Y605571210082118605862RAMOS                      CORDERO                    LUZ ARELY                  00000000000000022012017     020000030133803  2                  9
