Y607431310496058814128GALINDO                    LOPEZ                      ANA LAURA                  00000000000000008122023     020000009030103  2                  9
Y607431310445078805160RODRIGUEZ                  LOPEZ                      IVAN                       00000000000000011122023     020000009031103  2                  9
Y607431310492897209851ALVAREZ                    MENDOZA                    SERGIO                     00000000000000006122023     020000009031403  2                  9
