A836767410921048764076TAPIA                      MORENO                     JOSE LUIS                  00000000000000019052017     020000002055203  2                  9
A836767410913018336233SANTOS                     GONZALEZ                   LORENZO                    00000000000000020052017     020000008059503  2                  9
A836767410978917538585MOLINA                     SOSA                       VICTOR MANUEL              00000000000000022052017     020000008060103  2                  9
A836767410933018561143CHAPARRO                   ESTRADA                    LUIS MODESTO               00000000000000020052017     020000008074303  2                  9
