Z064567510812978164197RODRIGUEZ                  ROCHA                      JOSE ROBERTO               00000000000000020052017     020000011072203  2                  9
Z064567510862149649352OLIVARES                   HERNANDEZ                  DANIEL                     00000000000000020052017     020000011095803  2                  9
Z064567510875988152882ROCHA                      JIMENEZ                    MIGUEL ANGEL               00000000000000020052017     020000011098203  2                  9
