Y605571210039018103620ALBA                       HERNANDEZ                  MONICA                     00000000000000001042017     020000009204103  2                  9
Y605571210005159706745ZUÑIGA                     MOLINERO                   ROGELIO                    00000000000000005042017     020000009592203  2                  9
Y605571210045906232694FUENTES                    BAUTISTA                   VICTOR                     00000000000000003042017     020000009629103  2                  9
Y605571210090947608791HERNANDEZ                  FLORES                     JOSE                       00000000000000005042017     020000009663203  2                  9
Y605571210003179126184HERNANDEZ                  ARCIA                      FELIPE                     00000000000000003042017     020000009691203  2                  9
Y605571210012129446410ABREGO                     HERNANDEZ                  JOSE DE JESUS              00000000000000005042017     020000011092003  2                  9
Y605571210027169805135ORTELA                     ESTRADA                    ALESSANDRA MARLEN          00000000000000005042017     020000019102503  2                  9
Y605571210005179887517NIETO                      MORALES                    JOSE RODOLFO               00000000000000005042017     020000022057203  2                  9
Y605571210003179368232TORRES                     FELIX                      VALERIA                    00000000000000005042017     020000025014603  2                  9
Y605571210009037806347SANTIAGO                   OLMOS                      JACOBO                     00000000000000005042017     020000028040503  2                  9
