A836767410946149604350ZAMBRANO                   PINO                       SARAI                      00000000000000028052017     020000002052903  2                  9
A836767410925897405913VALDEZ                     VALDEZ                     RAFAEL                     00000000000000026052017     020000002054603  2                  9
A836767410971139307194MONROY                     CASTILLO                   JOSE EDUARDO               00000000000000028052017     020000002054803  2                  9
A836767410933138401998SIERRA                     SOTO                       RUBEN                      00000000000000029052017     020000008074703  2                  9
