A836767410925947810070CIGARROA                   SALVADOR                   JOEL                       00000000000000031072017     020000002059603  2                  9
A836767410902177668163ZARATE                     QUIROZ                     ARTURO                     00000000000000031072017     020000002059703  2                  9
A836767410908159828725MIRAMONTES                 OLIVAS                     JOSE ALEJANDRO             00000000000000029072017     020000008064603  2                  9
A836767410933796244904MENDOZA                    CASTILLO                   FILIBERTO                  00000000000000029072017     020000008074003  2                  9
A836767410927149764352ALVAREZ                    DE LA CRUZ                 JUAN EDUARDO               00000000000000031072017     020000008077703  2                  9
A836767410933139247457ESTRADA                    GUTIERREZ                  RAMON ADRIAN               00000000000000029072017     020000008078503  2                  9
A836767410933967160954ROJAS                      ESPINOZA                   JOSE REFUGIO               00000000000000031072017     020000008078803  2                  9
