Y462621510962947771234BABINES                    MORA                       RODOLFO                    00000000000000017112016     020000021125803  2                  9
Y462621510948028433414SANCHEZ                    RAMOS                      HECTOR MIGUEL              00000000000000014112016     020000021156403  2                  9
Y462621510959159503644FLORES                     RAMIREZ                    DANIEL ALFONSO             00000000000000016112016     020000021157403  2                  9
