Y462621510918149262232HERNANDEZ                  MARTINEZ                   SAUL                       00000000000000003072017     020000021100903  2                  9
Y462621510911068807780MEZA                       MEZA                       SILVANO                    00000000000000002072017     020000021102603  2                  9
Y462621510933169738490PANTOJA                    JIMENEZ                    SAUL                       00000000000000004072017     020000021159903  2                  9
Y462621510943127501872GUERRERO                   ORTUÑO                     SILVIA                     00000000000000004072017     020000021169003  2                  9
Y462621510948088745954CARDOSO                    ISIDORO                    ADALBERTO                  00000000000000004072017     020000021169803  2                  9
