Y605571210001088921638CHAVEZ                     VILLA                      BRANDON                    00000000000000005092016     020000001008003  2                  9
Y605571210096008224642ENRIQUEZ                   LUNA                       FERNANDO                   00000000000000008092016     020000009561703  2                  9
Y605571210003169032301RICA—O                     AVILA                      MICAELA                    00000000000000005092016     020000009602103  2                  9
Y605571210044149520635TORRES                     MARMOLEJO                  JUAN CARLOS                00000000000000006092016     020000009634403  2                  9
Y605571210096058622364JUAREZ                     GARCIA                     JONATHAN EMMANUEL          00000000000000004092016     020000009638503  2                  9
Y605571210032078943449TICANTE                    BERNARDINO                 DOMINGO                    00000000000000006092016     020000013013703  2                  9
Y605571210013099212907GARCIA                     RODRIGUEZ                  ROSALIO                    00000000000000006092016     020000013014003  2                  9
Y605571210010169653887CARRILLO                   PEREZ                      VICTOR ISIDRO              00000000000000006092016     020000015180503  2                  9
Y605571210094018407455BOLAÒOS                    GUTIERREZ                  JHANCARLO                  00000000000000004092016     020000015181403  2                  9
Y605571210065119036765PEREZ                      CASTILLO                   JOSE EDUARDO               00000000000000005092016     020000030031503  2                  9
Y605571210065119036765PEREZ                      CASTILLO                   JOSE EDUARDO               00000000000000005092016     020000030031503  2                  9
Y605571210065119036765PEREZ                      CASTILLO                   JOSE EDUARDO               00000000000000005092016     020000030031503  2                  9
