Y607431310418149578066COSMES                     HERNANDEZ                  JOSE LUIS                  00000000000000016102022     020000009021703  2                  9
Y607431310426159584742VEGA                       HERNANDEZ                  JESUS GABRIEL              00000000000000016102022     020000009021903  2                  9
Y607431310405149385774JIMENEZ                    MORALES                    ERICK ANDRES               00000000000000018102022     020000009022503  2                  9
