Y605571210092907010455MENDOZA                    BECERRA                    JULIO CESAR                00000000000000018072016     020000009030602  2                  9
Y605571210042978100313HERNANDEZ                  GARCIA                     OLGA LIDIA                 00000000000000016072016     020000009490203  2                  9
Y605571210096129506075MAYA                       DELGADO                    MARIA DEL CARMEN           00000000000000019072016     020000009585803  2                  9
Y605571210037897000487GONZALEZ                   RIVERA                     GERARDO                    00000000000000016072016     020000009605703  2                  9
Y605571210061118708710GARCIA                     GABRIEL                    CESAR                      00000000000000016072016     020000009618303  2                  9
Y605571210015937504486MORELOS                    VELAZQUEZ                  ULISES SALVADOR            00000000000000016072016     020000009619503  2                  9
Y605571210045079108846REA                        GONZALEZ                   CESAR ALEJANDRO            00000000000000017072016     020000009624803  2                  9
Y605571210007089002211MU—OZ                      FLORES                     JUAN ALBERTO               00000000000000018072016     020000009626403  2                  9
Y605571210063937407912MUÒOZ                      GARCIA                     ALEJANDRO                  00000000000000019072016     020000011084503  2                  9
Y605571210090138800512VALERIANO                  RIVEROS                    AGUSTIN VICENTE            00000000000000015072016     020000015177203  2                  9
Y605571210043866896889MARTINEZ                   RUVALCABA                  VICTOR MANUEL              00000000000000019072016     020000019070403  2                  9
Y605571210025159518858RESENDIZ                   BRE—A                      FERNANDO                   00000000000000018072016     020000022045603  2                  9
Y605571210017866407392ESTEBAN                    HERNANDEZ                  SIMON                      00000000000000019072016     020000028031403  2                  9
Y605571210009095800760GARZA                      MARTINEZ                   ORLANDO                    00000000000000019072016     020000028032903  2                  9
Y605571210065967355119CASTRO                     HERRERA                    JESIEL                     00000000000000019072016     020000030118803  2                  9
