A836767410902167477336PANDO                      BARRAZA                    BERNARDO ALONSO            00000000000000014072017     020000008076503  2                  9
A836767410909129495694PEREZ                      MENDEZ                     ERICK GUADALUPE            00000000000000017072017     020000008076903  2                  9
A836767410903149889341PRIMERO                    HAROS                      CRISTIAN ISSAC             00000000000000017072017     020000008077203  2                  9
A836767410910159839868PEREZ                      TARANGO                    IRVIN ALBERTO              00000000000000017072017     020000008077303  2                  9
A836767410927159792533NEVAREZ                    GARCIA                     MARIO FERNANDO             00000000000000017072017     020000008077403  2                  9
