Y605571210001038706733ANGELES                    BLANCAS                    DANIEL BRIAN               00000000000000025072016     020000009554003  2                  9
Y605571210094037100560TRUJILLO                   OLGUIN                     JUAN CARLOS                00000000000000022072016     020000009618403  2                  9
Y605571210094067400815MOLINA                     GOMEZ                      FRANCISCO RAMIRO           00000000000000022072016     020000009622403  2                  9
Y605571210012977740492MEDINA                     GONZALEZ                   RAYMUNDO                   00000000000000023072016     020000011085403  2                  9
Y605571210013098903753JUAREZ                     HERNANDEZ                  MARICELA                   00000000000000022072016     020000013013203  2                  9
Y605571210016058612199SANCHEZ                    GONZALEZ                   MARTIN                     00000000000000023072016     020000015133703  2                  9
Y605571210002156050870GOMEZ                      GARCIA                     JOSE LUIS                  00000000000000022072016     020000015158303  2                  9
Y605571210042866835335MERLOS                     ARREOLA                    CESAR                      00000000000000022072016     020000015158403  2                  9
Y605571210016088966276VALDES                     OCHOA                      ADRIANA                    00000000000000023072016     020000015170403  2                  9
Y605571210016917011286GUZMAN                     AYALA                      LUZ MARIA                  00000000000000025072016     020000015172003  2                  9
Y605571210072007900748MARICHE                    GARCIA                     VICTOR HUGO                00000000000000022072016     020000015176403  2                  9
Y605571210005169576419JIMENEZ                    HERNANDEZ                  AARON MARTIN               00000000000000023072016     020000016007103  2                  9
Y605571210032058816573MARRUFO                    ESCAREÑO                   AGUSTIN                    00000000000000022072016     020000019080503  2                  9
Y605571210044159578945DIAZ                       MEDINA                     JESSICA SARAHI             00000000000000025072016     020000019083703  2                  9
Y605571210014058762064TREJO                      ROJAS                      MARIA ZELENE               00000000000000025072016     020000022001602  2                  9
Y605571210065119224007VILLALOBOS                 ANTELE                     ABRAHAN                    00000000000000023072016     020000022046203  2                  9
Y605571210030038201932RAMIREZ                    ROSALES                    ZAIRA YADIRA               00000000000000025072016     020000030070403  2                  9
Y605571210067118911287ROSAS                      ROJAS                      ERNESTO                    00000000000000025072016     020000030070503  2                  9
