Y605571210081906701321VIDAL                      CABALLERO                  LUIS ALFONSO               00000000000000004032017     020000004007703  2                  9
Y605571210011108500148CARBALLO                   NAVA                       DANIA                      00000000000000003032017     020000009595603  2                  9
Y605571210096139204026POPOCA                     HERNANDEZ                  DIANA CATALINA             00000000000000004032017     020000009650303  2                  9
Y605571210096118411568REYES                      DIAZ                       ROGELIO                    00000000000000007032017     020000009677803  2                  9
Y605571210096088854664DE LA CRUZ                 GUDIÒO                     CRISTHIAN JESUS            00000000000000004032017     020000009684603  2                  9
Y605571210042018309353VALLES                     VALENCIA                   ALAN ANTONIO               00000000000000007032017     020000009686903  2                  9
Y605571210016907017137VALDES                     NIETO                      JORGE LUIS                 00000000000000004032017     020000015185803  2                  9
Y605571210016867100683ZEPEDA                     ARTEAGA                    LUIS                       00000000000000004032017     020000015186103  2                  9
Y605571210005179849756ESCOBAR                    VALLEJO                    EDWIN JONATHAN             00000000000000004032017     020000015191303  2                  9
Y605571210092018323391HERNANDEZ                  NAVA                       RUBEN                      00000000000000004032017     020000015195403  2                  9
Y605571210076159502426GAYTAN                     ALVARADO                   JOSE RAUL                  00000000000000006032017     020000016009203  2                  9
Y605571210001168709986AYALA                      ALVAREZ                    JOSE DE JESUS              00000000000000006032017     020000016009803  2                  9
Y605571210053926818369VEGA                       RODRIGUEZ                  RAFAEL                     00000000000000006032017     020000016009903  2                  9
Y605571210049169641849RODRIGUEZ                  REYES                      EDGAR ALEJANDRO            00000000000000006032017     020000016010303  2                  9
Y605571210043028564037YEPEZ                      GONZALEZ                   REYNA PATRICIA             00000000000000006032017     020000019103803  2                  9
Y605571210023038719094OROZCO                     ROSALES                    RICARDO                    00000000000000007032017     020000025011403  2                  9
Y605571210049976400827ANTU                       ROCHA                      FRANCISCO HORACIO          00000000000000007032017     020000028035503  2                  9
Y605571210049169708754CARRASCO                   VIDAÒA                     ARACELI                    00000000000000007032017     020000030002202  2                  9
