Y605571210016108818788AGUILAR                    NAJERA                     EFREN MIGUEL               00000000000000015042016     020000015001902  2                  9
Y605571210016907014902VEGA                       MARIN                      SERGIO                     00000000000000016042016     020000015111603  2                  9
Y605571210016129105942LEON                       HERNANDEZ                  JOSE ARMANDO               00000000000000015042016     020000015124003  2                  9
Y605571210016058612199SANCHEZ                    GONZALEZ                   MARTIN                     00000000000000016042016     020000015133703  2                  9
Y605571210016077304422ENGOMBIA                   ALVAREZ                    ADRIANA                    00000000000000016042016     020000015135203  2                  9
Y605571210016048521534GONZALEZ                   URBINA                     ADRIANA                    00000000000000016042016     020000015159903  2                  9
Y605571210016977911540VICTORIO                   GALVAN                     DANIEL                     00000000000000016042016     020000015161603  2                  9
Y605571210016078716640GONZALEZ                   CORREA                     ROSALIA                    00000000000000016042016     020000015162603  2                  9
Y605571210039917387423LEAL                       CARDENAS                   CRISTINA                   00000000000000016042016     020000015163503  2                  9
Y605571210016017400645VALDES                     VALENZUELA                 DIANA SOFIA                00000000000000019042016     020000015164103  2                  9
Y605571210010765764336RINCON                     GERARDO                    ROBERTO                    00000000000000016042016     020000015166703  2                  9
Y605571210016896983877GONZALEZ                   FIGUEROA                   MARIA ELENA                00000000000000016042016     020000015167603  2                  9
Y605571210054159529699REYES                      CABAL                      SALVADOR                   00000000000000016042016     020000015167903  2                  9
Y605571210016099062446PARRA                      MARTINEZ                   SUSANA GABRIELA            00000000000000016042016     020000015169603  2                  9
Y605571210059159719653SALGADO                    SALGADO                    HORACIO SANTIAGO           00000000000000016042016     020000015169903  2                  9
Y605571210016997905415GUERRERO                   ANAYA                      JOSE RAMON                 00000000000000019042016     020000022040403  2                  9
Y605571210049957614214ESCOBEDO                   ESCOBAR                    ALFREDO                    00000000000000019042016     020000028030903  2                  9
Y605571210009057501950COLUNGA                    DE LA FUENTE               LUIS ENRIQUE               00000000000000019042016     020000028031003  2                  9
Y605571210067836152776JARVIO                     OSORIO                     JUAN EFREN                 00000000000000016042016     020000030082903  2                  9
Y605571210065088711356JIMENEZ                    JIMENEZ                    JUAN MANUEL                00000000000000019042016     020000030094303  2                  9
Y605571210065906701480MARTINEZ                   COLORADO                   RAFAEL                     00000000000000016042016     020000030101703  2                  9
Y605571210082966002220FARJAS                     CASTAÑEDA                  JOSE DE JESUS              00000000000000019042016     020000030112003  2                  9
Y605571210049159538070CIPRIANO                   VICENTE                    MARTIN                     00000000000000016042016     020000030112703  2                  9
