Y605571210032008220876PUENTE                     RUIZ                       DANIEL                     00000000000000007072017     020000005013003  2                  9
Y605571210032028427360RIVERA                     ZAMORA                     CHRISTOPHER CESAR EDUARDO  00000000000000007072017     020000005013103  2                  9
Y605571210028077400688MARTINEZ                   GARCIA                     FERNANDO MARCIAL           00000000000000009072017     020000009713503  2                  9
Y605571210003149402053MARTINEZ                   CRUZ                       JENNIFER                   00000000000000008072017     020000015212203  2                  9
Y605571210049937780838ARTEAGA                                               JUAN DE DIOS               00000000000000010072017     020000019002602  2                  9
Y605571210024148900863CERVANTES                  ESCALANTE                  CARLOS                     00000000000000007072017     020000019116903  2                  9
Y605571210003169037672PEREZ                      PRIETO                     MARLENE                    00000000000000009072017     020000019117303  2                  9
Y605571210055077701237HERNANDEZ                  MENDOZA                    MARIA DEL CARMEN           00000000000000008072017     020000019117503  2                  9
Y605571210049927420882NUÒEZ                      DELGADO                    GUILLERMO ALEJANDRO        00000000000000010072017     020000028030503  2                  9
Y605571210027149772447TORRES                     MARQUEZ                    JUAN ANGEL                 00000000000000008072017     020000028034503  2                  9
Y605571210009129483377CHAPA                      SANCHEZ                    JESUS NATANAEL             00000000000000010072017     020000028036203  2                  9
Y605571210067008317694PEREZ                      CASTRO                     MOISES                     00000000000000009072017     020000030150403  2                  9
