Y605571210051139333267RANGEL                     DIAZ DE LEON               ERICK FERNANDO             00000000000000020012017     020000001007503  2                  9
Y605571210035149273464MELCHOR                    JIMAREZ                    JOSE LUIS                  00000000000000016012017     020000009527203  2                  9
Y605571210096119260485DIAZ                       GUTIERREZ                  SANDRA GUADALUPE           00000000000000019012017     020000009641103  2                  9
Y605571210045018013966RAYA                       BONILLA                    NANCY ARELI                00000000000000019012017     020000009656203  2                  9
Y605571210028056100044MANCILLA                   MARTINEZ                   MARIA ALEJANDRA            00000000000000019012017     020000009673403  2                  9
Y605571210045058640686PIMENTEL                   GONZALEZ                   JOSE DANIEL                00000000000000019012017     020000009674503  2                  9
Y605571210045018004775MENDOZA                    CHIRINOS                   JOSE ANTONIO               00000000000000018012017     020000009675603  2                  9
Y605571210043118400340OLVERA                     NAVARRO                    HULDA                      00000000000000016012017     020000019098103  2                  9
Y605571210023057235949PEREZ                      URIAS                      HUMBERTA ALICIA            00000000000000019012017     020000025008703  2                  9
Y605571210050887122658ROJO                       SANCHEZ                    ALFONSO                    00000000000000019012017     020000025008803  2                  9
Y605571210009937706647MARTINEZ                   PEDROZA                    MARTIN                     00000000000000016012017     020000028007903  2                  9
Y605571210009048760590CHAVIRA                    MIRELES                    LEONARDO                   00000000000000019012017     020000028038003  2                  9
Y605571210049867009125DE LEON                    DE LEON                    FRANCISCO JAVIER           00000000000000019012017     020000028038503  2                  9
