A836767410902179060906ZUÑIGA                     HERNANDEZ                  JORGE IGNACIO              00000000000000001062017     020000002054503  2                  9
A836767410971128719755RIOS                       MARROQUIN                  MARCO ANTONIO              00000000000000003062017     020000002055803  2                  9
A836767410941169774514MARROQUIN                  LOPEZ                      ABEL                       00000000000000003062017     020000002055903  2                  9
A836767410971047507646ALVAREZ                    MACIAS                     ANA MARIBEL                00000000000000003062017     020000002056103  2                  9
