R143868210356907088860JIMENEZ                    RODRIGUEZ                  ANTONIO                    00000000000000006092016     020000014109703  2                  9
R143868210354806264468ANGEL                      ORDORICA                   JUAN MARTIN                00000000000000007092016     020000014115203  2                  9
R143868210304005305166PEREZ                      GUTIERREZ                  ESTEBAN                    00000000000000007092016     020000014116603  2                  9
