Y462621510948129391214MEDRANO                    ORTIZ                      GABRIEL                    00000000000000004032017     020000021143203  2                  9
Y462621510962978019941VELAZQUEZ                  SANCHEZ                    LUIS ALBERTO               00000000000000004032017     020000021151603  2                  9
Y462621510962846543635ARVEA                      RIVERA                     OCTAVIO                    00000000000000004032017     020000021162503  2                  9
Y462621510948018036268QUINTOS                    RAMIREZ                    JAVIER                     00000000000000005032017     020000021164703  2                  9
