A836767410931139419555IBARRA                     YAÒEZ                      JOSE RICARDO               00000000000000016062016     020000008040903  2                  9
A836767410933886926964ONTIVEROS                  VENEGAS                    PEDRO                      00000000000000020062016     020000008042403  2                  9
A836767410933048430566DOMINGUEZ                  DOMINGUEZ                  JESUS MANUEL               00000000000000020062016     020000008042603  2                  9
A836767410950917512415MARQUEZ                    ORONA                      ISIDRA NOEMY               00000000000000020062016     020000008045203  2                  9
A836767410933907072681ARIAS                      MERAZ                      MARIO ALBERTO              00000000000000020062016     020000008046203  2                  9
A836767410908159231094TENA                       MORALES                    JOSUE SAMUEL               00000000000000016062016     020000008046903  2                  9
A836767410933026703026CRUZ                       DUARTE                     SILVIA                     00000000000000020062016     020000008047103  2                  9
A836767410933119443621RAMOS                      PROA                       OMAR ANTONIO               00000000000000020062016     020000008047303  2                  9
