A836767410931998307065HERRERA                    CUEVAS                     EDER                       00000000000000027092016     020000008058503  2                  9
A836767410933978049741CARBAJAL                   SAUCEDO                    ANGELA ARAONA              00000000000000028092016     020000008059403  2                  9
A836767410933038624996CIGARROA                   PEREZ                      KAREN IVONNE               00000000000000028092016     020000008059703  2                  9
