Y605571210067078714481GARCIA                     SOLANO                     JOSE NAHUM                 00000000000000014052016     020000005010503  2                  9
Y605571210082058853795ZAVALA                     GOMEZ                      GABRIEL                    00000000000000017052016     020000007005103  2                  9
Y605571210071017210072RODRIGUEZ                  OSORIO                     JOSE ANTONIO               00000000000000017052016     020000007006703  2                  9
Y605571210083078208549MEDINA                     MAGAÒA                     CONCEPCION UBALDO          00000000000000017052016     020000007009103  2                  9
Y605571210042815933470HERNANDEZ                  SANCHEZ                    RAMON                      00000000000000016052016     020000009541803  2                  9
Y605571210096119231056SANCHEZ                    MENDEZ                     YAZMIN YARELI              00000000000000017052016     020000009591903  2                  9
Y605571210042008004469MARTINEZ                   BALDERAS                   JUVENTINO                  00000000000000017052016     020000009592103  2                  9
Y605571210045119113657SERRANO                    CONTRERAS                  JULIO                      00000000000000014052016     020000009592503  2                  9
Y605571210045058653465SALAZAR                    BUENROSTRO                 ANDRES ERIK                00000000000000017052016     020000009593103  2                  9
Y605571210044159709227DAMASO                     RAMIREZ                    GABRIEL JEZIEL             00000000000000001052016     020000009600003  2                  9
Y605571210026149237138MARTINEZ                   VAZQUEZ                    ISAAC                      00000000000000015052016     020000009610003  2                  9
Y605571210030079015969RAMIREZ                    GARCIA                     JOSE ALBERTO               00000000000000016052016     020000009613303  2                  9
Y605571210002169315310CELEDONIO                  SANTIAGO                   LEOPOLDO                   00000000000000011052016     020000015159003  2                  9
Y605571210090099042633TORRES                     HERNANDEZ                  MARCO ANTONIO              00000000000000011052016     020000015160303  2                  9
Y605571210042897119113HERNANDEZ                  VELEZ                      JOSE GUILLERMO             00000000000000015052016     020000015164203  2                  9
Y605571210092977633178MUNIVE                     RODRIGUEZ                  PAULETTE                   00000000000000012052016     020000015172103  2                  9
Y605571210047937616085SAENZ                      CERVANTES                  GERARDO                    00000000000000013052016     020000019070703  2                  9
Y605571210043119558740JUAREZ                     SANCHEZ                    ELIUD                      00000000000000014052016     020000019071203  2                  9
Y605571210041917449575CARMONA                    CRUZ                       FRANCISCO RUBEN            00000000000000013052016     020000019071403  2                  9
Y605571210043755323938CUELLAR                    RIVERA                     GUADALUPE                  00000000000000013052016     020000019076203  2                  9
Y605571210043987512829BUTANDA                    RODRIGUEZ                  JOSE JUAN                  00000000000000014052016     020000019078403  2                  9
Y605571210083119206486CALCANEO                   PEREZ                      ATILANO                    00000000000000017052016     020000027045403  2                  9
Y605571210061977904574TRUJILLO                   FUENTES                    FELIPE                     00000000000000017052016     020000029005503  2                  9
