Y605571210020139513756TAPIA                      OSTO                       DALIA SINAI                00000000000000011082016     020000009629503  2                  9
Y605571210045917482049GUZMAN                     RAMIREZ                    MIRIAM ELIZABETH           00000000000000005082016     020000011076203  2                  9
Y605571210012129047945MORENO                     HERNANDEZ                  JOSE AURELIO               00000000000000005082016     020000011082603  2                  9
Y605571210004856936697PEREZ                      PADILLA                    JOSE MANUEL                00000000000000010082016     020000011083503  2                  9
Y605571210005158676568MAYO                       HERNANDEZ                  VIVIANA                    00000000000000010082016     020000011085203  2                  9
Y605571210012058838785PIÑA                       DUARTE                     LUIS ARMANDO               00000000000000010082016     020000011087003  2                  9
Y605571210090089123385MARTINEZ                   MARTINEZ                   DAVID HORACIO              00000000000000011082016     020000019083403  2                  9
