Y605571210011007719930PEREZ                      BALLIN                     FRANCISCO MISAEL           00000000000000009102016     020000009576803  2                  9
Y605571210020099008797GONZALEZ                   GARCIA                     VICTOR OMAR                00000000000000011102016     020000009606303  2                  9
Y605571210010159425858CRUZ                       VILLA                      UBALDO                     00000000000000011102016     020000009608003  2                  9
Y605571210098119233371REYES                      ROBLES                     ALEJANDRO IVAN             00000000000000010102016     020000009625703  2                  9
Y605571210053108936583RODRIGUEZ                  HERNANDEZ                  FELIPA                     00000000000000006102016     020000009633103  2                  9
Y605571210015099018382JIMENEZ                    SAAVEDRA                   JOSE ALFREDO               00000000000000006102016     020000009637603  2                  9
Y605571210030039200040MARTINEZ                   RIVERA                     JUAN ANTONIO               00000000000000011102016     020000009646303  2                  9
Y605571210096048600728LUNA                       SANCHEZ                    HECTOR                     00000000000000010102016     020000009648903  2                  9
Y605571210094917412945BADILLO                    GUTIERREZ                  GUILLERMO                  00000000000000007102016     020000022036603  2                  9
Y605571210014806202454MORALES                    VIDAL                      ALFREDO                    00000000000000007102016     020000022037403  2                  9
Y605571210083078805591MORALES                    LEON                       MIGUEL ANGEL               00000000000000006102016     020000023027303  2                  9
Y605571210071109221961GONZALEZ                   ROBLEDO                    BACILIO RUDIEL             00000000000000006102016     020000023028903  2                  9
Y605571210082068715646KUMUL                      PECH                       BENITO                     00000000000000006102016     020000023029003  2                  9
Y605571210004169307677CAHUICH                    EK                         YENIFER AZENETH            00000000000000006102016     020000023031003  2                  9
Y605571210067997807283GUZMAN                     GOMEZ                      ROBERTO                    00000000000000006102016     020000023032903  2                  9
Y605571210082119511416LOPEZ                      BRITO                      DIEGO                      00000000000000009102016     020000023033403  2                  9
Y605571210071038326782RODAS                      PEREZ                      EXAL                       00000000000000008102016     020000023033503  2                  9
Y605571210032169850560LOPEZ                      LOPEZ                      LUCIA                      00000000000000006102016     020000023033803  2                  9
Y605571210019169230703LOPEZ                      VAZQUEZ                    SIMON PEDRO                00000000000000006102016     020000023033903  2                  9
Y605571210034169842134MENDEZ                     GOMEZ                      NALLELY BARBARA            00000000000000006102016     020000023034003  2                  9
Y605571210082119329892MUKUL                      GOMEZ                      ANGEL JESUS                00000000000000006102016     020000023034503  2                  9
Y605571210066149694334GARCIA                     CRUZ                       FREDY HUMBERTO             00000000000000009102016     020000023035403  2                  9
Y605571210081139001895LOPEZ                      LUNA                       ARELY MIGUELINA            00000000000000006102016     020000023035603  2                  9
Y605571210009048424841ARREOLA                    MACIAS                     FROYLAN JESUS              00000000000000011102016     020000028036103  2                  9
