Y605571210009079090867CRUZ                       PEREZ                      ERIC DANIEL                00000000000000021062016     020000005010103  2                  9
Y605571210071028426311PONCE                      MENDOZA                    VICTOR MIGUEL              00000000000000027062016     020000007010703  2                  9
Y605571210020896603964DE LA TORRE                LAZO                       RAFAEL                     00000000000000023062016     020000009565303  2                  9
Y605571210042098200092FORTANEL                   MARTINEZ                   JUAN MICHEL                00000000000000027062016     020000009588303  2                  9
Y605571210037089204418SANCHEZ                    SANCHEZ                    ELIASIB                    00000000000000025062016     020000009620903  2                  9
Y605571210092119394580MENDOZA                    GARCIA                     ANGEL MANUEL               00000000000000021062016     020000015131003  2                  9
Y605571210090078802924AGUILAR                    RAMIREZ                    EDGAR EDUARDO              00000000000000021062016     020000015175203  2                  9
Y605571210094048101169TORRES                     GONZALEZ                   ERIK                       00000000000000021062016     020000019001602  2                  9
Y605571210043765907134ALONSO                     CUELLAR                    MARGARITO                  00000000000000024062016     020000019061703  2                  9
Y605571210003977661705RUBIO                      GARCIA                     LEONARDO                   00000000000000021062016     020000019077503  2                  9
Y605571210043047604459MORALES                    SEGOVIA                    LUIS                       00000000000000023062016     020000019077803  2                  9
Y605571210065027002289HERNANDEZ                  MARTINEZ                   JOSE LUIS                  00000000000000021062016     020000019078503  2                  9
Y605571210031978205420SANCHEZ                    GUERRERO                   MAURICIO                   00000000000000021062016     020000019079103  2                  9
Y605571210043887175776RAMIREZ                    RUIZ                       ADAN                       00000000000000021062016     020000019080303  2                  9
Y605571210066159763797ACEVEDO                    CUELLAR                    GUSTAVO ANGEL              00000000000000027062016     020000019081203  2                  9
Y605571210065108802607ANTELE                     PALAYOT                    ARMANDO                    00000000000000022062016     020000022043103  2                  9
Y605571210063907308348ROSALES                    GUEVARA                    PEDRO                      00000000000000022062016     020000022043903  2                  9
Y605571210014119618735JIMENEZ                    VELAZQUEZ                  ALONDRA                    00000000000000021062016     020000022044003  2                  9
Y605571210096058324110JARQUIN                    MANUEL                     ANGEL CHRISTIAN            00000000000000027062016     020000022044103  2                  9
Y605571210067109151695BOBADILLA                  CORTEZ                     MIGUEL ANGEL               00000000000000021062016     020000022045003  2                  9
Y605571210053088112957SUAREZ                     OCHOA                      JOSE ANTONIO               00000000000000021062016     020000022045803  2                  9
Y605571210062149694812SALGADO                    HUERTA                     HAMLET                     00000000000000023062016     020000022046003  2                  9
Y605571210049977890851ZAPUCHE                    GARCIA                     JOSE                       00000000000000024062016     020000028031803  2                  9
