Y462621510902177895626CEDILLO                    SANPEDRO                   JUAN CARLOS                00000000000000019052018     020000021173003  2                  9
Y462621510953876953588CORTES                     MORA                       ZAHUER                     00000000000000019052018     020000021173103  2                  9
Y462621510948159600674CARREÒO                    MOLINA                     VICTOR MANUEL              00000000000000019052018     020000021185203  2                  9
Y462621510948088856835CARRE—O                    MOLINA                     JEAN                       00000000000000019052018     020000021185303  2                  9
Y462621510917148692167RAMOS                      MARQUEZ                    MARICARMEN                 00000000000000019052018     020000021186703  2                  9
