Y605571210045058501516RAMIREZ                    CRUZ                       EDUARDO                    00000000000000021022017     020000009034902  2                  9
Y605571210042987919745PEREZ                      LIMA                       MARTIN                     00000000000000024022017     020000009160303  2                  9
Y605571210025149604982PATIÒO                     ORTIZ                      JUAN CARLOS                00000000000000020022017     020000009654703  2                  9
Y605571210096998010837JUAREZ                     RENTERIA                   MIGUEL ANGEL               00000000000000023022017     020000009670103  2                  9
Y605571210045119118623SOTO                       CRUZ                       SELVA MARIA                00000000000000020022017     020000009674103  2                  9
Y605571210096957500521ARENAS                     CORONA                     FLOR                       00000000000000020022017     020000009676103  2                  9
Y605571210013139859154TREJO                      ALVAREZ                    JOSUE IBRAIN               00000000000000023022017     020000015189703  2                  9
Y605571210003147143634TORRES                     CEDILLO                    ABEL                       00000000000000024022017     020000015189803  2                  9
Y605571210016118201637ENRIQUEZ                   ANGELES                    JOEL                       00000000000000021022017     020000015193003  2                  9
Y605571210083098823863GAMAS                      COLORADO                   JESUS ANTONIO              00000000000000024022017     020000027046803  2                  9
Y605571210065119417379UTRERA                     SANCHEZ                    MARCOS DAVID               00000000000000024022017     020000030127803  2                  9
Y605571210065987421107VELASCO                    VELASCO                    ISMAEL                     00000000000000024022017     020000030137003  2                  9
