Y462621510962947308185SAMANO                     PEREZ                      FERNANDO                   00000000000000025082017     020000021160403  2                  9
Y462621510925179961864CORTES                     ROJAS                      JOSE JAVIER                00000000000000029082017     020000021171403  2                  9
Y462621510960149415758GALINDO                    REYES                      ASCENCION                  00000000000000023082017     020000021172003  2                  9
