Y605571210045078923781GONZALEZ                   GONZALEZ                   MARIBEL                    00000000000000024042017     020000009041702  2                  9
Y605571210085169862282CRUZ                       CORTEZ                     JAVIER                     00000000000000024042017     020000015195203  2                  9
Y605571210090967917791BASILIO                    CORTES                     LEONARDO                   00000000000000024042017     020000015195303  2                  9
Y605571210043937427011CRUZ                       SANCHEZ                    REYNA GUADALUPE            00000000000000023042017     020000019053403  2                  9
Y605571210043937143030BADILLO                    ALVAREZ                    NORMA PATRICIA             00000000000000023042017     020000019107903  2                  9
Y605571210065139702818LOPEZ                      XOLO                       GERARDO ANTONIO            00000000000000021042017     020000022060303  2                  9
Y605571210023109318925BEJARANO                   ROMERO                     ANTONIO GUADALUPE          00000000000000024042017     020000025007603  2                  9
Y605571210071997403838BELTRAN                    LOPEZ                      JOSE JESUS                 00000000000000024042017     020000027060403  2                  9
Y605571210049746000287ESPARZA                    RODRIGUEZ                  RAFAEL                     00000000000000023042017     020000028038303  2                  9
Y605571210067107000415MARTINEZ                   CONZATTI                   FEDERICO                   00000000000000021042017     020000030132203  2                  9
Y605571210035149110237HERNANDEZ                  CAMPOS                     NEIBA LICIA                00000000000000022042017     020000030138703  2                  9
