Y607431310402188764969BUSTAMANTE                 ARENAS                     MARIA ELENA                00000000000000016082021     020000009002903  2                  9
Y607431310416109008116TADEO                      CHAVEZ                     ANGEL ANDRES               00000000000000016082021     020000009008203  2                  9
Y607431310445099901782GARCIA                     MEDINA                     ALDO YEUDIEL               00000000000000017082021     020000009012103  2                  9
Y607431310437947211936ROJAS                      TOLEDO                     MARGARITO                  00000000000000018082021     020000009012703  2                  9
