Y605571210051887220997DE LIRA                    DEL REAL                   CLEMENTE                   00000000000000014052017     020000001009303  2                  9
Y605571210094088923605GUZMAN                     FLORES                     DANIEL                     00000000000000015052017     020000009583503  2                  9
Y605571210019149508988CABALLERO                  LARA                       CLAUDIA BERENICE           00000000000000012052017     020000015197703  2                  9
Y605571210072098601676HILARIO                    MARTINEZ                   ARMANDO SISLER             00000000000000015052017     020000015209603  2                  9
Y605571210053138411607LEON                       HERNANDEZ                  ALFREDO                    00000000000000013052017     020000016010803  2                  9
Y605571210023846603423LOPEZ                      IBARRA                     RAFAEL                     00000000000000015052017     020000025014503  2                  9
Y605571210025159682704NAJERA                     SANTIAGO                   J. ASUNCION                00000000000000015052017     020000028035803  2                  9
