Y462621510967098413783ROSALES                    ALVAREZ                    ALBERTO                    00000000000000016112016     020000021147903  2                  9
Y462621510948119400934LOPEZ                      GALICIA                    VICTOR MANUEL              00000000000000021112016     020000021152403  2                  9
Y462621510924018309344ESTEBAN                    CHOMIT                     AARON                      00000000000000018112016     020000021152803  2                  9
Y462621510903168445637SALAZAR                    JIMENEZ                    GUADALUPE                  00000000000000021112016     020000021153603  2                  9
