A836767410935048705020BOCANEGRA                  CASTRO                     JOSE ALFREDO               00000000000000019102016     020000008058903  2                  9
A836767410904168818062HERRERA                    AGUILAR                    RAQUEL                     00000000000000019102016     020000008061503  2                  9
A836767410933998505060RIOS                       CABRAL                     ABEL                       00000000000000019102016     020000008061703  2                  9
