Y462621510937977630187ALVAREZ DEL CASTILLO       OLVERA                     ARTURO                     00000000000000005072017     020000021001602  2                  9
Y462621510917149480679ALVAREZ                    LEZA                       ALEJANDRO                  00000000000000007072017     020000021146303  2                  9
Y462621510967139432446RAMIREZ                    ALMANZA                    JOSUE                      00000000000000011072017     020000021148903  2                  9
Y462621510967118720852OCHOA                      GONZALEZ                   JESUS MICHEL               00000000000000005072017     020000021169503  2                  9
