Y605571210011957613018RODRIGUEZ                  MORALES                    SILVIA RUTH                00000000000000001092016     020000009626603  2                  9
Y605571210016998044842LAZCANO                    NUÒEZ                      JOSE HERIBERTO             00000000000000001092016     020000011083103  2                  9
Y605571210043028466464RAMIREZ                    VALLE                      JUAN RAMON                 00000000000000001092016     020000019083803  2                  9
Y605571210004917545529GONZALEZ                   ALVARADO                   ALEJANDRO EZEQUIEL         00000000000000026082016     020000026030603  2                  9
Y605571210010159006351PACHECO                    JIMENEZ                    MARBELLA AURORA            00000000000000001092016     020000027057403  2                  9
Y605571210083139500439SANCHEZ                    HERNANDEZ                  EDUARDO                    00000000000000001092016     020000027057803  2                  9
