Y605571210002169338668GARCIA                     GUTIERREZ                  LUIS FRANCISCO             00000000000000009052016     020000001006303  2                  9
Y605571210051008111471TISCAREÒO                  CISNEROS                   ARTURO                     00000000000000009052016     020000001006503  2                  9
Y605571210030947706765MENDEZ                     TORRES                     SUSANA                     00000000000000009052016     020000009036602  2                  9
Y605571210094109312036MENDOZA                    ROSAS                      LUIS FELIPE                00000000000000011052016     020000009458603  2                  9
Y605571210096139516981ROSAS                      ZAVALA                     ANTONIO EDWIN              00000000000000009052016     020000009470303  2                  9
Y605571210028119217652MARTINEZ                   GARRIDO                    GERARDO DAVID              00000000000000011052016     020000009541403  2                  9
Y605571210039117900736PEREZ                      GARCIA                     JOSE LUIS                  00000000000000011052016     020000009567003  2                  9
Y605571210011977942199CAMACHO                    OLGUIN                     JULIO CESAR                00000000000000009052016     020000009587503  2                  9
Y605571210094058600167TORRES                     RANGEL                     ERICK                      00000000000000011052016     020000009587603  2                  9
Y605571210092038522667MONROY                     ESCAMILLA                  JOSE ALEJANDRO             00000000000000009052016     020000009587703  2                  9
Y605571210007078711269ORTEGA                     ENRIQUEZ                   JUAN CARLOS                00000000000000009052016     020000009588003  2                  9
Y605571210042129628295MATU                       ROSADO                     OSCAR DANIEL               00000000000000009052016     020000009588403  2                  9
Y605571210020988008106CASTRO                     PUEBLA                     RUBEN                      00000000000000009052016     020000009590503  2                  9
Y605571210030997908444FLORES                     SILVA                      FRANCISCO                  00000000000000009052016     020000009592403  2                  9
Y605571210020967411115ZARATE                     MIGUEL                     ALBERTO                    00000000000000009052016     020000009594803  2                  9
Y605571210094957703344CASTELLANOS                MENDIOLA                   GUSTAVO                    00000000000000009052016     020000009595503  2                  9
Y605571210011088904344VALENCIA                   OROZCO                     ALBERTO                    00000000000000009052016     020000009595903  2                  9
Y605571210094007101556CASAS                      MEDINA                     AGUSTIN                    00000000000000009052016     020000009596603  2                  9
Y605571210090058816365MARTINEZ                   MARTINEZ                   BRAULIO                    00000000000000009052016     020000009600103  2                  9
Y605571210002168136691CHAVEZ                     OLVERA                     LETICIA                    00000000000000009052016     020000009600503  2                  9
Y605571210018159501628MEJIA                      ACOSTA                     JUAN MANUEL                00000000000000011052016     020000009602803  2                  9
Y605571210016856901240MAYA                       NU—EZ                      PALEMON                    00000000000000009052016     020000009604203  2                  9
Y605571210094068723405BRITO                      DE LA CRUZ                 EDGAR ALEJANDRO            00000000000000011052016     020000009606203  2                  9
Y605571210037876904634GAYTAN                     ORNAIZ                     MARICELA                   00000000000000009052016     020000009606903  2                  9
Y605571210030916901348TRINIDAD                   CERVANTES                  ANGELES TERESITA           00000000000000009052016     020000009609103  2                  9
Y605571210096139368086LOPEZ                      CRUZ                       DIANA                      00000000000000009052016     020000009609603  2                  9
Y605571210038149418923ROJAS                      BORGES                     ITZEL GUADALUPE            00000000000000009052016     020000009613403  2                  9
Y605571210030936908448HERNANDEZ                  RODRIGUEZ                  RUBEN                      00000000000000011052016     020000009613703  2                  9
Y605571210072058613372TORRES                     CARRANZA                   BLANCA NIEVES              00000000000000009052016     020000009615403  2                  9
Y605571210035149660074MENDOZA                    ROMO                       ERICK ANTONIO              00000000000000011052016     020000009615903  2                  9
Y605571210045917482049GUZMAN                     RAMIREZ                    MIRIAM ELIZABETH           00000000000000012052016     020000011076203  2                  9
Y605571210054876858124CALVILLO                   REYES                      OMAR FRANCISCO             00000000000000012052016     020000014070103  2                  9
Y605571210074917244803REYES                      VALDIVIA                   ISMAEL                     00000000000000009052016     020000014078003  2                  9
Y605571210004107301014PALOMINO                   ALCANTAR                   JAVIER                     00000000000000009052016     020000014092003  2                  9
Y605571210030876941219MARTINEZ                   DAVILA                     RAMIRO                     00000000000000009052016     020000014098403  2                  9
Y605571210049149684018SORIA                      SANTILLAN                  JOSE MARCOS                00000000000000009052016     020000014103003  2                  9
Y605571210075018205353JIMENEZ                    ORNELAS                    MARIO                      00000000000000009052016     020000014103103  2                  9
Y605571210004099080584ALVAREZ                    MENDOZA                    DIEGO OMAR                 00000000000000009052016     020000014104503  2                  9
Y605571210004138929734VALENZUELA                 PORTILLO                   SANDRA YADIRA              00000000000000009052016     020000014105703  2                  9
Y605571210060159602758JIMENEZ                    MENDEZ                     CLAUDIA BERENICE           00000000000000009052016     020000014106003  2                  9
Y605571210064159797576ALEJO                      GUTIERREZ                  NARCISO                    00000000000000009052016     020000014106403  2                  9
Y605571210055856820729ALMARAZ                    ZEPEDA                     JOSE CONCEPCION            00000000000000009052016     020000014106503  2                  9
Y605571210056936310731LOPEZ                      ARREOLA                    EDUARDO                    00000000000000009052016     020000014107003  2                  9
Y605571210004896353242GONZALEZ                   BETERAN                    ABIGAIL                    00000000000000009052016     020000014107103  2                  9
Y605571210054766300534JIMENEZ                    ARELLANO                   HIPOLITO                   00000000000000009052016     020000014107603  2                  9
Y605571210004047513959GUTIERREZ                  PONCE                      LUZ MARIA                  00000000000000009052016     020000014108003  2                  9
Y605571210075109283194JOYA                       ROMAN                      CRISTIAN RAUL              00000000000000009052016     020000014108103  2                  9
Y605571210026149746955JOYA                       ROMAN                      ANGEL ARTURO               00000000000000009052016     020000014108203  2                  9
Y605571210075028620823SANCHEZ                    SORIA                      EDUARDO                    00000000000000009052016     020000014108803  2                  9
Y605571210054887196688GUZMAN                     MONROY                     SERGIO ARTURO              00000000000000011052016     020000014109603  2                  9
Y605571210075058730658RIOS                       IBARRA                     ERNESTO                    00000000000000009052016     020000014110103  2                  9
Y605571210010169791489SALGADO                    AGUILAR                    MARIELA NAYELI             00000000000000009052016     020000014110303  2                  9
Y605571210054806135809VALLES                                                ANTONIO                    00000000000000009052016     020000014110503  2                  9
Y605571210075038570828MONTOYA                    SANCHEZ                    JOSE EMMANUEL              00000000000000009052016     020000014111203  2                  9
Y605571210004866724489ROBLES                     FLORES                     ALFREDO EDUARDO            00000000000000009052016     020000014111603  2                  9
Y605571210013139214632CORONA                     PADILLA                    IVAN                       00000000000000009052016     020000014111903  2                  9
Y605571210075947301786CHAVEZ                     ROBLES                     LETICIA                    00000000000000009052016     020000014112003  2                  9
Y605571210018159665662ALVARADO                   RAZO                       CHRISTIAN                  00000000000000009052016     020000016004703  2                  9
Y605571210018159665662ALVARADO                   RAZO                       CHRISTIAN                  00000000000000009052016     020000016004703  2                  9
Y605571210053109215490ANGELES                    ALVAREZ                    JUAN                       00000000000000009052016     020000016005103  2                  9
Y605571210053109215490ANGELES                    ALVAREZ                    JUAN                       00000000000000009052016     020000016005103  2                  9
Y605571210010169579462GARCIA                     VERA                       FABIOLA                    00000000000000009052016     020000016006003  2                  9
Y605571210094119143355ALVAREZ                    HERNANDEZ                  ISRAEL ALEJANDRO           00000000000000009052016     020000016006103  2                  9
Y605571210094119143355ALVAREZ                    HERNANDEZ                  ISRAEL ALEJANDRO           00000000000000009052016     020000016006103  2                  9
Y605571210054916935577LOPEZ                      VERGARA                    FRANCISCO JAVIER           00000000000000009052016     020000016006203  2                  9
Y605571210003169197310HERNANDEZ                  RANGEL                     JOSE JUAN                  00000000000000009052016     020000016006303  2                  9
Y605571210003169197310HERNANDEZ                  RANGEL                     JOSE JUAN                  00000000000000009052016     020000016006303  2                  9
Y605571210003169197310HERNANDEZ                  RANGEL                     JOSE JUAN                  00000000000000009052016     020000016006303  2                  9
Y605571210053836312800GONZALEZ                   RUIZ                       FRANCISCO JAVIER           00000000000000009052016     020000016006503  2                  9
Y605571210053139320161PEREZ                      DIAZ                       JORGE LUIS                 00000000000000009052016     020000016006603  2                  9
Y605571210023008444335BELTRAN                    RODRIGUEZ                  IVAN                       00000000000000010052016     020000025002103  2                  9
Y605571210061057100077DEL ANGEL                  DEL ANGEL                  GRACIANO                   00000000000000012052016     020000025002203  2                  9
