Y605571210032917377247SALAZAR                    DEL TORO                   MANUEL                     00000000000000016062017     020000005012503  2                  9
Y605571210045078812299FLORES                     ALMAZAN                    ANA LILIA                  00000000000000020062017     020000009043002  2                  9
Y605571210096997304827HERNANDEZ                  GALVAN                     ANTONIO ENRIQUE            00000000000000020062017     020000009650903  2                  9
Y605571210007018214135FIERRO                     GONZALEZ                   ARIEL CHRISTIAN            00000000000000021062017     020000009676803  2                  9
Y605571210045068763205GUEVARA                    ROMO                       VICTOR HUGO                00000000000000021062017     020000009704203  2                  9
Y605571210010179853311MIRANDA                    CRUZ                       VANESSA CITLALI            00000000000000021062017     020000015203503  2                  9
Y605571210017148667888PUCHETA                    FABIAN                     FREDDY                     00000000000000020062017     020000022048503  2                  9
Y605571210014018431933ALVARADO                   ESCAMILLA                  PEDRO                      00000000000000021062017     020000022053003  2                  9
Y605571210071107101181ANGEL                      OCAÒA                      GUILLERMO ALBERTO          00000000000000019062017     020000022062503  2                  9
Y605571210014089210489ANAYA                      TORRES                     JOSE LUIS                  00000000000000021062017     020000022063303  2                  9
Y605571210009078611903AGUILAR                    ROJAS                      ADRIAN MISSAEL             00000000000000020062017     020000028039003  2                  9
Y605571210065048101235CANO                       RASCON                     LUZ DELIA                  00000000000000021062017     020000030002002  2                  9
Y605571210002169197809GONZALEZ                   HERNANDEZ                  MARLEN DEL CARMEN          00000000000000021062017     020000030136203  2                  9
Y605571210067108917856GUATEMALA                  VAZQUEZ                    VICTOR ALBERTO             00000000000000021062017     020000030149503  2                  9
