D691959010135149478535MORALES                    HERNANDEZ                  GREGORIO NICOLAS           00000000000000017032017     020000020017603  2                  9
D691959010178129214173SOSA                       CHAVEZ                     HERIBERTO                  00000000000000017032017     020000020026203  2                  9
D691959010178139427799GARCIA                     RAMIREZ                    ANDRES                     00000000000000016032017     020000020028403  2                  9
D691959010178107301174GALLARDO                   RAMIREZ                    JORGE                      00000000000000017032017     020000020028503  2                  9
D691959010102178835266HERNANDEZ                  PEREZ                      JAIME                      00000000000000021032017     020000020028803  2                  9
D691959010167048204381ALVARADO                   VAZQUEZ                    JULIO CESAR                00000000000000017032017     020000020029103  2                  9
