Y605571210094988109115CERNA                      VARGUEZ                    EDUARDO ISIDRO             00000000000000022072016     020000009037902  2                  9
Y605571210042149600100SANCHEZ                    JILOTE                     JESUS ARTURO               00000000000000023072016     020000009501003  2                  9
Y605571210027149244199HERNANDEZ                  DE LA CRUZ                 CARLOS                     00000000000000024072016     020000009551203  2                  9
Y605571210045129360595MONDRAGON                  ROSAS                      JESUS ALBERTO              00000000000000020072016     020000009626803  2                  9
Y605571210096138821663RIVERA                     GIL                        JESUS ABRAHAM              00000000000000026072016     020000015169003  2                  9
Y605571210015169728712RAMOS                      LOPEZ                      KAREN ESTEPHANY            00000000000000026072016     020000027054103  2                  9
Y605571210048129046750RINCON                     BRAVO                      IRVIN                      00000000000000020072016     020000030111003  2                  9
