Y605571210047906816591VEGA                       IBARRA                     RAUL                       00000000000000019042016     020000002000702  2                  9
Y605571210019149437816SANCHEZ                    MADRID                     EDGAR ISMAEL               00000000000000020042016     020000009584803  2                  9
Y605571210042078806140DE LA ROSA                 ROSAS                      JOSE LUIS                  00000000000000019042016     020000009591403  2                  9
Y605571210054159796173RAMIREZ                    SALAZAR                    PEDRO                      00000000000000020042016     020000009604103  2                  9
Y605571210096139451015PEÑA                       PACHECO                    ARELI                      00000000000000023042016     020000009610103  2                  9
Y605571210030947540883LOYOLA                     SIERRA                     MIGUEL ANGEL               00000000000000024042016     020000009611603  2                  9
Y605571210004017963135COLIN                      VALDEZ                     SERGIO                     00000000000000025042016     020000014104603  2                  9
Y605571210016098607290GARCIA                     ROMERO                     JUANA ARACELI              00000000000000022042016     020000015115303  2                  9
Y605571210016119153175PEREA                      HERNANDEZ                  MARCO ANTONIO              00000000000000022042016     020000015155103  2                  9
Y605571210092068912267CALZADA                    OROPEZA                    ALBERTO                    00000000000000020042016     020000015165003  2                  9
Y605571210003169076175COLIN                      BERNAL                     LEOPOLDO                   00000000000000020042016     020000015169403  2                  9
Y605571210030967808129GONZALEZ                   MONROY                     MARICARMEN                 00000000000000019042016     020000015170003  2                  9
Y605571210043128614542LANDEROS                   BLANCO                     SONIA MARILU               00000000000000023042016     020000019001202  2                  9
Y605571210002159342647VALLEJOS                   JIMENEZ                    MERCEDES NOEMI             00000000000000019042016     020000023026303  2                  9
Y605571210002159342647VALLEJOS                   JIMENEZ                    MERCEDES NOEMI             00000000000000019042016     020000023026303  2                  9
