Y607431310496917312751ESTEBAN                    CARIÑO                     ROBERTO                    00000000000000017032022     020000009001603  2                  9
Y607431310439026401321LOPEZ                      CABRERA                    JAVIER                     00000000000000017032022     020000009008003  2                  9
Y607431310439027807732ANGUIANO                   ZUÑIGA                     JUAN JESUS                 00000000000000017032022     020000009015503  2                  9
