Y605571210051816203544CAMACHO                    NARVAEZ                    MARTIN                     00000000000000010062016     020000001006103  2                  9
Y605571210092997937575NUÒEZ                      CAJIGA                     LUIS ALBERTO               00000000000000010062016     020000015174403  2                  9
Y605571210089826430079RAMOS                      GUZMAN                     LUIS MANUEL                00000000000000011062016     020000015174703  2                  9
Y605571210053109237916DIAZ                       CASTRO                     ALFREDO                    00000000000000008062016     020000016006803  2                  9
Y605571210082058308600EROSA                      CANTO                      MERCEDES DEL CARMEN        00000000000000008062016     020000023027403  2                  9
Y605571210082129019004UITZIL                     CAUICH                     SARA YESSENIA              00000000000000008062016     020000023027503  2                  9
Y605571210011169405120MENDEZ                     PEREZ                      BILMA                      00000000000000008062016     020000023027803  2                  9
Y605571210064159705181GALVEZ                     MORALES                    YESENIA                    00000000000000008062016     020000023027903  2                  9
Y605571210040169773617GABRIEL                    PEREZ                      DAMARIS YANETH             00000000000000008062016     020000023028103  2                  9
Y605571210062169483666GARCIA                     GERONIMO                   LUIS ENRIQUE               00000000000000012062016     020000027054903  2                  9
Y605571210017866407392ESTEBAN                    HERNANDEZ                  SIMON                      00000000000000010062016     020000028031403  2                  9
Y605571210049927703956GARCIA                     BERNAL                     JESUS ABRAHAM              00000000000000012062016     020000028032303  2                  9
