Y605571210090018517491COLIN                      PIMENTEL                   JOSE RICARDO               00000000000000019112016     020000009612703  2                  9
Y605571210020106700709SANCHEZ                    CARDENAS                   MARIA EUGENIA MERCEDES     00000000000000019112016     020000009615803  2                  9
Y605571210019159109743MARTINEZ                   MEDINA                     GERMAN                     00000000000000016112016     020000009637303  2                  9
Y605571210009169444875LEON                       REYES                      SERGIO DENIS               00000000000000022112016     020000009656703  2                  9
Y605571210045129241357BRINGAS                    LUGOS                      MONTSERRAT                 00000000000000020112016     020000009657903  2                  9
Y605571210043139810030EGUIA                      TORRES                     ROBERTO EMMANUEL           00000000000000023112016     020000019093303  2                  9
Y605571210035149327195CORREA                     ESQUIVEL                   JESUS EMMANUEL             00000000000000019112016     020000032000803  2                  9
