Z064567510812088984963OLIVARES                   HERNANDEZ                  JORGE ADRIAN               00000000000000007072017     020000011094803  2                  9
Z064567510818159799503GOMEZ                      BARRON                     FLAVIO GUSTAVO             00000000000000007072017     020000011097403  2                  9
Z064567510832078968974RODRIGUEZ                  RAMIREZ                    SAULO ANDRES               00000000000000006072017     020000011097703  2                  9
Z064567510812896903908GARCIA                     SALAZAR                    JUAN FRANCISCO             00000000000000006072017     020000011100603  2                  9
Z064567510812947630443SERRANO                    PANTOJA                    VICTORINO                  00000000000000005072017     020000011100803  2                  9
Z064567510863937809257RAMIREZ                    PALACIOS                   MARIA DE JESUS             00000000000000005072017     020000011100903  2                  9
