Y605571210081967711706MORENO                     DELGADO                    MIGUEL ANGEL               00000000000000019122016     020000004009203  2                  9
Y605571210032008235221GODINES                    GUERRERO                   JAVIER ALEJANDRO           00000000000000018122016     020000005011703  2                  9
Y605571210038169660420CRISPIN                    PUENTE                     JESUS RAFAEL               00000000000000018122016     020000005011903  2                  9
Y605571210020917422295CASAS                      ALVAREZ                    MARIA ANGELICA             00000000000000014122016     020000009602203  2                  9
Y605571210096089111510PEREZ                      HERNANDEZ                  MARIO ANTONIO              00000000000000014122016     020000009610803  2                  9
Y605571210004169709955ORTIZ                      LIMA                       CESAR ADAN                 00000000000000018122016     020000009634603  2                  9
Y605571210030098810762IXTEPAN                    XOLO                       JOSE ANDRES                00000000000000016122016     020000009636503  2                  9
Y605571210037068721093BERNAL                     GARIBAY                    CESAR GABRIEL              00000000000000016122016     020000009643103  2                  9
Y605571210037067100125SALGADO                    CAREAGA                    ARTURO                     00000000000000018122016     020000009655703  2                  9
Y605571210018169160787LOPEZ                      RODRIGUEZ                  EDUARDO                    00000000000000016122016     020000009659703  2                  9
Y605571210076937201325MENDOZA                    HERNANDEZ                  VERONICA                   00000000000000019122016     020000009661103  2                  9
Y605571210064159838008AVENDAÑO                   MARTINEZ                   MANUEL                     00000000000000019122016     020000009667803  2                  9
Y605571210020018110542QUIROGA                    ESTRADA                    MARLEN                     00000000000000018122016     020000009668603  2                  9
Y605571210054159746541ESCAMILLA                  AGUILAR                    EMMANUEL IRVING GABRIEL    00000000000000018122016     020000009668703  2                  9
Y605571210001139312977MARTINEZ                   ROJAS                      ROSA IGNACIA               00000000000000019122016     020000009669403  2                  9
Y605571210019149809642GARCIA                     LOPEZ                      ANDRES                     00000000000000019122016     020000009669503  2                  9
Y605571210012058942801ZAVALA                     CABRERA                    JAZMIN                     00000000000000016122016     020000011001102  2                  9
Y605571210013139455177RUIZ                       MACIAS                     DIANA YADIRA               00000000000000013122016     020000013009903  2                  9
Y605571210065998307816RODRIGUEZ                  CRUZ                       JUAN RICHAR                00000000000000013122016     020000013015403  2                  9
Y605571210071775902969OLAZO                      VALENCIA                   TORIBIO                    00000000000000018122016     020000013015703  2                  9
Y605571210016126500103PEREZ                      GUEVARA                    ORLANDO                    00000000000000019122016     020000015144403  2                  9
Y605571210010169501284MONTES                     SANCHEZ                    RAUL                       00000000000000018122016     020000016009303  2                  9
Y605571210053917045725SANCHEZ                    CEJA                       RUBEN DARIO                00000000000000019122016     020000016009503  2                  9
Y605571210043089228720MARTINEZ                   ESCOBEDO                   DAVID RAMON AZAEL          00000000000000019122016     020000019002102  2                  9
Y605571210049907166711PEREZ                      RODRIGUEZ                  HILARIO                    00000000000000018122016     020000019073203  2                  9
Y605571210003149866331ESQUIVEL                   GONZALEZ                   RAFAEL                     00000000000000018122016     020000019080403  2                  9
Y605571210041139532729DIEGO                      ORTIZ                      CANDELARIO                 00000000000000018122016     020000019089003  2                  9
Y605571210043876207465SILVA                      LARA                       FELICIANO                  00000000000000018122016     020000019089203  2                  9
Y605571210047907017249FLORES                     VALLADAREZ                 IRMA LETICIA               00000000000000018122016     020000019092003  2                  9
Y605571210043028619294GARCIA                     SALAZAR                    HECTOR MARIO               00000000000000018122016     020000019092803  2                  9
Y605571210094008219951GONZALEZ                   MONTAÑO                    FELIX                      00000000000000018122016     020000019093603  2                  9
Y605571210043008313009DURAN                      ARREDONDO                  DAVID                      00000000000000018122016     020000019094403  2                  9
Y605571210003796208936MALDONADO                  SALAS                      ELIAS GUILLERMO            00000000000000018122016     020000019094803  2                  9
Y605571210043947618724VARGAS                     GONZALEZ                   GERMARIN GUILLERMO GUADALUPE00000000000000019122016     020000019094903  2                  9
Y605571210003886907793OSEGUEDA                   TAMEZ                      OSCAR                      00000000000000019122016     020000019095103  2                  9
Y605571210043119114957DE LA ROSA                 RANGEL                     JUAN CARLOS ANTONIO HECTOR 00000000000000018122016     020000019095803  2                  9
Y605571210043998389050CRUZ                       SILVESTRE                  LUIS ALBERTO               00000000000000018122016     020000019096903  2                  9
Y605571210046159625378CALLEJAS                   GARCIA                     MARCO ANTONIO              00000000000000019122016     020000022050503  2                  9
Y605571210021058337474RAIGOZA                    ROMERO                     OSCAR OMAR                 00000000000000019122016     020000022053203  2                  9
Y605571210043128305265MARTINEZ                   RUBIO                      JAIME                      00000000000000017122016     020000022053303  2                  9
Y605571210006735648708BALTIERRA                  ITA                        DOLORES                    00000000000000016122016     020000022053403  2                  9
Y605571210014008349400SOLARES                    OJEDA                      JONATHAN ENRIQUE           00000000000000016122016     020000022053503  2                  9
Y605571210023109509804LOPEZ                      ESPARZA                    JOSE FRANCISCO             00000000000000019122016     020000025005303  2                  9
Y605571210067836152776JARVIO                     OSORIO                     JUAN EFREN                 00000000000000016122016     020000030082903  2                  9
Y605571210065027907479MACARIO                    ALVARADO                   MARTIN                     00000000000000019122016     020000030124603  2                  9
Y605571210065977117434CERVANTES                  MORALES                    ALBERTO                    00000000000000019122016     020000030125703  2                  9
Y605571210065097300258RAMIREZ                    GONZALEZ                   IGNACIO EDILBERTO          00000000000000019122016     020000030128403  2                  9
Y605571210027169351627GARCIA                     VIVEROS                    RAFAEL                     00000000000000016122016     020000030130303  2                  9
Y605571210065977922676CEJA                       PICASSO                    EDUARDO                    00000000000000019122016     020000030131003  2                  9
