Y462621510918149343529LAUREANO                   CRUZ                       FRANCO GERMAN              00000000000000004062017     020000021134303  2                  9
Y462621510926169793648VILLARAUZ                  CRUZTITLA                  JOSE ADRIAN                00000000000000004062017     020000021154303  2                  9
Y462621510948139110315RUFINO                     MORALES                    LUIS ALFREDO               00000000000000005062017     020000021162003  2                  9
Y462621510905159648384VAZQUEZ                    BELLO                      OSCAR                      00000000000000005062017     020000021165403  2                  9
Y462621510903157850672BAUTISTA                   GAONA                      JOSE                       00000000000000005062017     020000021165703  2                  9
Y462621510948159702470MARTINEZ                   RAMOS                      RODOLFO                    00000000000000005062017     020000021168603  2                  9
