Y605571210051987700997SIGALA                     LOMELI                     RAYMUNDO                   00000000000000011112016     020000001004603  2                  9
Y605571210011907051558VARGAS                     GARCIA                     MARIA DEL CARMEN           00000000000000007112016     020000009040002  2                  9
Y605571210028967909848ZARATE                     MORENO                     PAOLA                      00000000000000011112016     020000009040102  2                  9
Y605571210059159696158MEJIA                      GONZALEZ                   GUILLERMO                  00000000000000011112016     020000009579403  2                  9
Y605571210042078700889CALDERON                   HERNANDEZ                  OSVALDO ULISES             00000000000000010112016     020000009655303  2                  9
Y605571210012017703310CABALLERO                  CALZADA                    MIGUEL ANGEL               00000000000000007112016     020000011082003  2                  9
Y605571210012008400926ZAMORA                     BUENO                      GUSTAVO IVAN               00000000000000011112016     020000011090503  2                  9
Y605571210032846682402DE ANDA                    MARTINEZ                   GERMAN                     00000000000000011112016     020000011090803  2                  9
Y605571210021067604906MARTINEZ                   BARRANCO                   CONSTANTINO                00000000000000008112016     020000013009203  2                  9
Y605571210013936617243DE LA ROSA                 PERALTA                    VENANCIO HERIBERTO         00000000000000009112016     020000013014703  2                  9
Y605571210021117504072ISLAS                      SOTO                       JESUS                      00000000000000009112016     020000013014903  2                  9
Y605571210038169720729DE JESUS                   HERNANDEZ                  CRISTIAN                   00000000000000008112016     020000013015503  2                  9
Y605571210001907256745MORALES                    MORALES                    ANGEL ALBERTO              00000000000000007112016     020000022045503  2                  9
Y605571210065937624925JIMENEZ                    ANDRADE                    MANUEL                     00000000000000011112016     020000030044103  2                  9
