Z064567510812947882028GONZALEZ                   CALDERON                   JUAN GERARDO               00000000000000020032017     020000011040703  2                  9
Z064567510827149680814RODRIGUEZ                  MONZON                     CARLOS DANIEL              00000000000000020032017     020000011070503  2                  9
Z064567510863927509644GARCIA                     BELMAN                     TOMAS                      00000000000000020032017     020000011094203  2                  9
Z064567510826169766537NAJAR                      GUTIERREZ                  FRANCISCO JAVIER           00000000000000020032017     020000011096403  2                  9
Z064567510863139303810GONZALEZ                   ROMAN                      FRANCISCO JAVIER           00000000000000020032017     020000011096603  2                  9
