Y605571210028057601164FLORES                     GARCIA                     ESTHER                     00000000000000008112016     020000009630103  2                  9
Y605571210092987805014BACA                       HERNANDEZ                  NICANDRO                   00000000000000010112016     020000015177103  2                  9
Y605571210051028536616RIVERA                     BECERRA                    OSCAR OMAR                 00000000000000008112016     020000016007203  2                  9
Y605571210002167270269GARCIA                     ALCUDIA                    MARIBEL                    00000000000000010112016     020000027057903  2                  9
Y605571210061876202286CUELLAR                    AGUILA                     FELIPE                     00000000000000007112016     020000029006203  2                  9
Y605571210061119309658LOPEZ                      HERNANDEZ                  EFREN                      00000000000000008112016     020000029006403  2                  9
