A836767410935947641219VELAZQUEZ                  GARCIA                     NANCY                      00000000000000018092016     020000008038603  2                  9
A836767410926169502338ZAVALA                     GONZALEZ                   JEYDI JUDITH               00000000000000015092016     020000008053003  2                  9
A836767410933998253620CAMACHO                    MARTINEZ                   AMANDA GABRIELA            00000000000000019092016     020000008053703  2                  9
A836767410933048717988PALACIOS                   JACOBO                     JESUS EFRAIN               00000000000000015092016     020000008054303  2                  9
A836767410933098927768MARTINEZ                   DELGADO                    JOEL EDUARDO               00000000000000019092016     020000008057603  2                  9
A836767410933806163755MONTES                     CORDOVA                    CAYETANO                   00000000000000015092016     020000008058803  2                  9
A836767410960967675905HERNANDEZ                  TORRES                     MIGUEL                     00000000000000018092016     020000008059203  2                  9
A836767410932089042009ZARZOZA                    AGUIRRE                    JOSE ANTONIO               00000000000000019092016     020000008059303  2                  9
