A836767410953139021629MENDEZ                     RIVERA                     JUANA RUBI                 00000000000000021072017     020000002058803  2                  9
A836767410923008548606BOJORQUEZ                  MELENDREZ                  MARIA EDUVIGES             00000000000000020072017     020000008078003  2                  9
A836767410903157638192CUADROS                    BOLAÒOS                    JORGE ALBERTO              00000000000000020072017     020000008078103  2                  9
