Y605571210044149632505MUÒOZ                      GARCIA                     IRVIN BLADIMIR             00000000000000009012017     020000004009703  2                  9
Y605571210071078204279LOPEZ                      JIMENEZ                    SANDRA                     00000000000000006012017     020000007001902  2                  9
Y605571210001138800444HIDARIO                    GONZALEZ                   HUGO                       00000000000000003012017     020000009038402  2                  9
Y605571210075846413666FLORES                     BARRETO                    PORFIRIO JORGE             00000000000000006012017     020000009467103  2                  9
Y605571210002155816651MARQUEZ                    MONTES                     MOISES                     00000000000000009012017     020000009620803  2                  9
Y605571210030078714794NAVARRETE                  ANDRADE                    ANALLELY MARISOL           00000000000000004012017     020000009638003  2                  9
Y605571210096048410698AVILA                      SANCHEZ                    LAURA LETICIA              00000000000000009012017     020000009666903  2                  9
Y605571210006805910558ESPINOSA                   ESCAMILLA                  JULIO                      00000000000000007012017     020000009668403  2                  9
Y605571210094997910768CASIANO                    CESAREO                    HUGO                       00000000000000009012017     020000009672003  2                  9
Y605571210096119513214GARCIA                     ESQUIVEL                   ANDRES DAVID               00000000000000008012017     020000009673603  2                  9
Y605571210005158578798FRANCO                     RIVERA                     ALCIA GUADALUPE            00000000000000009012017     020000015002402  2                  9
Y605571210043008544199MARTINEZ                   DE LUNA                    FERNANDO                   00000000000000005012017     020000019049303  2                  9
Y605571210043795968247RAMIREZ                    RAMIREZ                    RODRIGO                    00000000000000007012017     020000019082603  2                  9
Y605571210043106700487GAYOSSO                    MOLINA                     MARIA GENOVEVA             00000000000000009012017     020000019098303  2                  9
Y605571210009937706647MARTINEZ                   PEDROZA                    MARTIN                     00000000000000004012017     020000028007903  2                  9
Y605571210043897094033DEL VALLE                  MARTINEZ                   JESUS MARIO                00000000000000009012017     020000030049703  2                  9
Y605571210059159651450LUCHO                      PONCE                      JORGE ALBERTO              00000000000000009012017     020000030129003  2                  9
