Y605571210051916450078OCAMPO                     RIVERA                     MARCOS                     00000000000000016022017     020000001009103  2                  9
Y605571210054169711998PEREZ                      ARIAS                      LUIS MIGUEL                00000000000000020022017     020000004008103  2                  9
Y605571210083129213753LOPEZ                      DE DIOS                    LEYLA GABRIELA             00000000000000020022017     020000004009903  2                  9
Y605571210083865400408ZENTENO                    CARDEÒO                    ALFONSO                    00000000000000020022017     020000004010503  2                  9
Y605571210030119412895RICO                       ARJONA                     JOSE MANUEL                00000000000000020022017     020000009483403  2                  9
Y605571210025169406615GALICIA                    SEBASTIAN                  EDITH                      00000000000000018022017     020000009625403  2                  9
Y605571210045937416720VERTIZ                     GUTIERREZ                  SATURNINO CARLOS GUSTAVO   00000000000000019022017     020000009652403  2                  9
Y605571210020119310033MARTINEZ                   MORENO                     ALEJANDRA ABIGAIL          00000000000000020022017     020000009654903  2                  9
Y605571210042109119513SANCHEZ                    ANDERSON                   VICTOR IRVING              00000000000000019022017     020000009658303  2                  9
Y605571210045988125964CABALLERO                  OCAMPO                     RICARDO                    00000000000000020022017     020000009668103  2                  9
Y605571210028119502921SUAREZ                     ORTEGA                     DANIEL                     00000000000000020022017     020000009677903  2                  9
Y605571210003179702836GUZMAN                     ROJAS                      MIGUEL DE JESUS            00000000000000019022017     020000009678603  2                  9
Y605571210030976901378SAAVEDRA                   VALADEZ                    GRACIELA                   00000000000000015022017     020000009681303  2                  9
Y605571210062169705985ALEGRIA                    SAAVEDRA                   MARIANA                    00000000000000015022017     020000009681403  2                  9
Y605571210034169701223SALAZAR                    HERNANDEZ                  ADAIR SANTIAGO             00000000000000020022017     020000009683803  2                  9
Y605571210039937789905MENDOZA                    ESCOBAR                    MARILUZ                    00000000000000018022017     020000011001302  2                  9
Y605571210013068509564HERNANDEZ                  LORENZO                    CLARA                      00000000000000018022017     020000013014503  2                  9
Y605571210090068416743GALICIA                    VALDES                     FRANCISCO JAVIER           00000000000000020022017     020000015127803  2                  9
Y605571210061907207023CONTRERAS                  LAZCANO                    VALENTE                    00000000000000018022017     020000015137203  2                  9
Y605571210011018509510CERRILLO                   RAMIREZ                    JOSE LUIS                  00000000000000018022017     020000015176003  2                  9
Y605571210094068801003PEREZ                      MARTINEZ                   PABLO IVAN                 00000000000000020022017     020000015182703  2                  9
Y605571210007998301456REYES                      PEREZ                      JOSE ISRAEL                00000000000000017022017     020000015183503  2                  9
Y605571210020967716711HERNANDEZ                  ROCHA                      ANTONIO GUADALUPE          00000000000000017022017     020000015187703  2                  9
Y605571210094076200750ORTEGA                     ORTEGA                     ASUNCION                   00000000000000020022017     020000015187903  2                  9
Y605571210066159697136DIAZ                       UGARTE                     RAFAEL EFRAIN              00000000000000020022017     020000015192803  2                  9
Y605571210094058006415PEÒALOZA                   SALCEDO                    ADAN                       00000000000000018022017     020000015193103  2                  9
Y605571210043806345344HERRERA                    REZA                       OSCAR                      00000000000000018022017     020000019056903  2                  9
Y605571210003967752266GARCIA                     DELGADO                    RODOLFO                    00000000000000017022017     020000019089403  2                  9
Y605571210009008115058SANTIAGO                   HERNANDEZ                  ANTOLIN                    00000000000000020022017     020000019092303  2                  9
Y605571210043977651538LOPEZ                      HUERTA                     JORGE                      00000000000000018022017     020000019095503  2                  9
Y605571210047906836375RAMIREZ                    RAMIREZ                    EMMA LIDIA                 00000000000000019022017     020000019102203  2                  9
Y605571210093169889610PABLO                      PABLO                      ADELCINDO JULIAN           00000000000000020022017     020000023035903  2                  9
Y605571210082886841467WICAB                      PISTE                      JORGE                      00000000000000020022017     020000023041303  2                  9
Y605571210062917478935TAPIA                      LIBRADO                    CARLOS                     00000000000000019022017     020000023042103  2                  9
Y605571210084966901450LEON                       MORALES                    MARTIN                     00000000000000019022017     020000028035603  2                  9
