Y605571210027169680942AVENDA—O                   JIMENEZ                    DIEGO                      00000000000000016112016     020000009037602  2                  9
Y605571210094927433774RIOS                       QUINARD                    ERIKA JOSEFINA             00000000000000016112016     020000009039702  2                  9
Y605571210002158666996ZUÒIGA                     MOLINERO                   JESUS ADRIAN               00000000000000015112016     020000009593603  2                  9
Y605571210096109256915HERNANDEZ                  BOHORQUEZ                  MARTIN                     00000000000000016112016     020000009614403  2                  9
Y605571210013169894717MENDOZA                    RUIZ                       JESUS                      00000000000000010112016     020000009649203  2                  9
Y605571210096129003982FLORES                     CANO                       LUCERO                     00000000000000013112016     020000009652303  2                  9
Y605571210027169320895LEON                       REYES                      GABRIEL                    00000000000000015112016     020000009656803  2                  9
Y605571210028067900697HUERTA                     QUIROZ                     GUADALUPE ITZEL            00000000000000015112016     020000009657303  2                  9
Y605571210003968003784BECERRA                    TOVAR                      JOSE JUAN                  00000000000000010112016     020000019091303  2                  9
Y605571210014856710778REGALADO                   MARTINEZ                   JUAN MARCOS                00000000000000016112016     020000022051103  2                  9
Y605571210070149530076GONZALEZ                   RABELO                     VICTOR EDUARDO             00000000000000016112016     020000027056203  2                  9
Y605571210071118308510GIRON                      GUILLEN                    CRISTINA                   00000000000000016112016     020000027058503  2                  9
Y605571210067129364112BLAS                       SANCHEZ                    CECILIO                    00000000000000016112016     020000030072103  2                  9
Y605571210007907114701CEQUERA                    GOMEZ                      ALFREDO                    00000000000000015112016     020000030099403  2                  9
Y605571210078997908278HERNANDEZ                  MARCIAL                    AGUSTIN                    00000000000000016112016     020000030121303  2                  9
Y605571210025159161162CAÒEDO                     XALA                       JORGE ELIAS                00000000000000016112016     020000030121503  2                  9
Y605571210002169440134PEÒA                       ESTRADA                    LUIS ARTURO                00000000000000016112016     020000030124903  2                  9
Y605571210008169099770RAMOS                      SANTOS                     ITZEL IVONNE               00000000000000016112016     020000030125403  2                  9
Y605571210005159504769DELFIN                     ANGULO                     ALEXIS                     00000000000000016112016     020000030126103  2                  9
Y605571210027169466904RODRIGUEZ                  DOMINGUEZ                  ALEXANDER                  00000000000000016112016     020000030126203  2                  9
Y605571210067117600055CELDO                      IRINEO                     TOMAS                      00000000000000016112016     020000030126503  2                  9
