Y605571210071139517719GUZMAN                     DOMINGUEZ                  CLAUDIA ISABEL             00000000000000006092016     020000007015703  2                  9
Y605571210045028403751MONTA—O                    SOLIS                      LUCERITO                   00000000000000006092016     020000009627203  2                  9
Y605571210045129352840ALVARADO                   CASILDO                    JONATHAN                   00000000000000006092016     020000009627303  2                  9
Y605571210096129109086PEREDO                     FLORENTINO                 GUSTAVO ADOLFO             00000000000000006092016     020000009629003  2                  9
Y605571210042968002719MONTAÒO                    VARGAS                     CARLOS ALBERTO             00000000000000004092016     020000009630603  2                  9
Y605571210001937803003CISNEROS                   MURILLO                    LEONARDO DANA              00000000000000004092016     020000009632303  2                  9
Y605571210025159556486SANTIAGO                   VAZQUEZ                    JANETH                     00000000000000004092016     020000009633803  2                  9
Y605571210009037608628ZAPETA                     LOPEZ                      HECTOR                     00000000000000004092016     020000028029203  2                  9
Y605571210049887123054LIMA                       GOMEZ                      SANTOS MANUEL              00000000000000004092016     020000028033303  2                  9
Y605571210067866955536GUTIERREZ                  CORTES                     MIGUEL ANGEL               00000000000000004092016     020000028033403  2                  9
Y605571210049149616176DE JESUS                   HERRERA                    LEONARDO ALEXIS            00000000000000006092016     020000028033803  2                  9
Y605571210009129537438CARDENAS                   TOVAR                      NORBERTO                   00000000000000004092016     020000028033903  2                  9
Y605571210009109354820MONTES                     RIVERA                     LEONEL                     00000000000000004092016     020000028034003  2                  9
Y605571210049885809977NARVAEZ                    CANTERO                    RUFINO                     00000000000000006092016     020000028034103  2                  9
Y605571210030927626645MARTINEZ                   DE LA CRUZ                 NICOLAS                    00000000000000004092016     020000028034403  2                  9
