Z064567510812129262015ORTEGA                     FLORES                     FRANCISCO                  00000000000000008082017     020000011099503  2                  9
Z064567510812078933731HERNANDEZ                  MEDINA                     JULIO CESAR                00000000000000009082017     020000011100503  2                  9
Z064567510812866856532CAMARILLO                  SEGOVIA                    ARMANDO                    00000000000000009082017     020000011101003  2                  9
Z064567510853119023009PEREZ                      MARTINEZ                   RICARDO                    00000000000000008082017     020000011102403  2                  9
Z064567510812089025220HERNANDEZ                  RAMIREZ                    MARIO EDUARDO              00000000000000008082017     020000011102803  2                  9
Z064567510812907064898DELGADO                    PEREZ                      JOSE JUAN                  00000000000000009082017     020000011103003  2                  9
