Y462621510920169634803MENDEZ                     RIVERA                     LUCAS ANTONIO              00000000000000004012017     020000021150703  2                  9
Y462621510924098708910SALIDO                     TECPANECATL                LUZ MARIA                  00000000000000004012017     020000021157703  2                  9
Y462621510948129460902CONTRERAS                  CORTES                     ARIEL ARMANDO              00000000000000004012017     020000021160003  2                  9
Y462621510948008313719SALAZAR                    LEAL                       JAVIER                     00000000000000005012017     020000021161503  2                  9
Y462621510944149552315GARCIA                     GONZALEZ                   JOSE MANUEL                00000000000000004012017     020000021161603  2                  9
