Y605571210008179512283BALANZAR                   ZARAZUA                    CECILIA ELOINA             00000000000000012062017     020000009701603  2                  9
Y605571210030998126871ACOSTA                     PASTRANA                   RAUL                       00000000000000011062017     020000009710503  2                  9
Y605571210030897121627SANCHEZ                    GALVAN                     RICARDO                    00000000000000009062017     020000009711003  2                  9
Y605571210028078505964ROLDAN                     MIRANDA                    JUAN MANUEL                00000000000000012062017     020000009711403  2                  9
Y605571210003168451858MEJIA                      DE LA CRUZ                 LILIANA                    00000000000000012062017     020000015194303  2                  9
Y605571210006169877591AGUILAR                    MARTINEZ                   EMMANUEL                   00000000000000011062017     020000015196003  2                  9
Y605571210090129411170HERNANDEZ                  RICO                       SUSANA                     00000000000000012062017     020000015212503  2                  9
Y605571210003169142191SANCHEZ                    MONTOYA                    MARIO JOSE                 00000000000000011062017     020000015212803  2                  9
Y605571210003967892740PE—A                       SEPULVEDA                  RICARDO ADRIAN             00000000000000012062017     020000019061303  2                  9
Y605571210008179873032SANCHEZ                    CHAVEZ                     ANGEL URIEL                00000000000000012062017     020000025013503  2                  9
Y605571210003179368232TORRES                     FELIX                      VALERIA                    00000000000000012062017     020000025014603  2                  9
Y605571210083836701959VELAZQUEZ                  BAUTISTA                   ORNAN                      00000000000000010062017     020000027061803  2                  9
Y605571210009109100348CASTILLO                   VERGARA                    MIGUEL ANGEL               00000000000000011062017     020000030073603  2                  9
Y605571210037967404296ORDUÒO                     OBIL                       GERARDO                    00000000000000010062017     020000030114203  2                  9
Y605571210067978059722ZENTENO                    GONZALEZ                   GERMAN                     00000000000000012062017     020000030150703  2                  9
