Y605571210071098106876MONTOYA                    MONTOYA                    BERSAIN                    00000000000000024032017     020000007017603  2                  9
Y605571210002179335365CORDOVA                    HERNANDEZ                  MANUEL GUADALUPE           00000000000000024032017     020000010000603  2                  9
Y605571210016088966276VALDES                     OCHOA                      ADRIANA                    00000000000000024032017     020000015170403  2                  9
Y605571210078867006823RUIZ                       VILLALOBOS                 DIONICIO                   00000000000000024032017     020000015199003  2                  9
Y605571210065129268259CALIXTO                    LOPEZ                      ADRIAN                     00000000000000024032017     020000019103303  2                  9
Y605571210082088961428CANCHE                     CHAN                       EMMANUEL DE JESUS          00000000000000024032017     020000023038703  2                  9
Y605571210082109226991CHAN                       CANUL                      JESUS ALEJANDRO            00000000000000023032017     020000023039803  2                  9
Y605571210023735701098ALVAREZ                    BARRON                     JUAN ANTONIO               00000000000000024032017     020000025013003  2                  9
Y605571210065098818340GUTIERREZ                  MERCADO                    LUIS EDUARDO               00000000000000024032017     020000030122203  2                  9
Y605571210065007933818SAN JUAN                   HERNANDEZ                  GABRIELA                   00000000000000024032017     020000030132003  2                  9
