Y605571210011907036450AGUILAR                    SOLIS                      LUIS FERNANDO              00000000000000001072016     020000007008003  2                  9
Y605571210071038502150PAZ                        RAMIREZ                    RAMON                      00000000000000001072016     020000007011103  2                  9
Y605571210071098810642LOPEZ                      MONTEJO                    FRANCISCO                  00000000000000004072016     020000007012703  2                  9
Y605571210071098717102HERNANDEZ                  ZEA                        VALLELY RUFINA             00000000000000001072016     020000007015403  2                  9
Y605571210050149562238LOPEZ                      HERRERA                    PEDRO FRANCISCO            00000000000000028062016     020000009037502  2                  9
Y605571210090926906141VAZQUEZ                    RENTERIA                   JUAN ANGEL                 00000000000000004072016     020000009456003  2                  9
Y605571210098129311829ANTONIO                    HOMOBONO                   ADRIAN                     00000000000000004072016     020000009570003  2                  9
Y605571210058159671179MARTINEZ                   RODRIGUEZ                  JOSE                       00000000000000001072016     020000009582503  2                  9
Y605571210019149084212RODRIGUEZ                  ALASCAGUA                  OMAR                       00000000000000004072016     020000009599603  2                  9
Y605571210019169643939HERNANDEZ                  VASQUEZ                    JORGE ALEXIS               00000000000000004072016     020000009603503  2                  9
Y605571210007866802569VILLEDA                    AGUILAR                    SERGIO                     00000000000000002072016     020000009610703  2                  9
Y605571210045038603846GARATACHEA                 GARCIA                     AARON FABIAN               00000000000000004072016     020000009620103  2                  9
Y605571210094129238203ORDO—EZ                    CARBAJAL                   MARLENE                    00000000000000029062016     020000009621903  2                  9
Y605571210012846833353GONZALEZ                                              JUAN                       00000000000000004072016     020000011075803  2                  9
Y605571210012149703618JIMENEZ                    PATIÒO                     MAURICIO                   00000000000000004072016     020000011081703  2                  9
Y605571210035169669625GARCIA                     CARRILLO                   ALFREDO                    00000000000000004072016     020000011084403  2                  9
Y605571210065088710473ANTELE                     PALAYOT                    HUMBERTO                   00000000000000004072016     020000011084903  2                  9
Y605571210010169210365CAMPOS                     AYALA                      OLIVIA NAYELI              00000000000000004072016     020000013012503  2                  9
Y605571210007058703872PEREZ                      ALVARADO                   JULIO CESAR                00000000000000004072016     020000013012603  2                  9
Y605571210013129222348LOPEZ                      FUENTES                    LUIS ANTONIO               00000000000000004072016     020000013012703  2                  9
Y605571210043008449878LARA                       GARCIA                     FRANCISCO                  00000000000000004072016     020000019078303  2                  9
Y605571210047907449673ZAMORA                     RAMIREZ                    ALMA VERONICA              00000000000000004072016     020000019081803  2                  9
Y605571210023967814775DIAZ                       MIRELES                    JAVIER                     00000000000000004072016     020000025001903  2                  9
Y605571210054159666871GARCIA                     GARCIA                     MARIA CONCEPCION           00000000000000004072016     020000027045903  2                  9
Y605571210008159684755MORA                       MORALES                    LUIS FERNANDO              00000000000000002072016     020000027049403  2                  9
Y605571210083139601112LOPEZ                      GASPAR                     JUAN LUIS                  00000000000000002072016     020000027050603  2                  9
Y605571210033008025604CARRILLO                   HERNANDEZ                  ANGELICA                   00000000000000004072016     020000030068003  2                  9
Y605571210043947637559FUENTES                    VITE                       IVAN AXEL                  00000000000000004072016     020000030085903  2                  9
Y605571210067987927281GALLARDO                   ZAMUDIO                    JOSE ALFREDO               00000000000000004072016     020000030100203  2                  9
Y605571210067108511618MENDOZA                    CRUZ                       GERMAN                     00000000000000004072016     020000030111303  2                  9
Y605571210033987305084RODRIGUEZ                  FLORES                     LORENZO                    00000000000000004072016     020000030113503  2                  9
Y605571210065907282217TORRES                     BERNAL                     ARTURO                     00000000000000004072016     020000030115203  2                  9
