Y607431310407987506115ACOSTA                     BARTOLO                    JUAN CARLOS                00000000000000017062021     020000009007003  2                  9
Y607431310402207157963MORENO                     DURAN                      MOISES MARCO POLO          00000000000000017062021     020000009009003  2                  9
Y607431310445119200504TERCERO                    LEDEZMA                    ZURY SARAHI                00000000000000021062021     020000009009603  2                  9
Y607431310439159811957ALMONTE                    GALLEGOS                   ILIANA JATZIRY             00000000000000021062021     020000009010503  2                  9
Y607431310417866952108TERCERO                    VERGARA                    MANUEL                     00000000000000017062021     020000009010703  2                  9
Y607431310442119208579LOPEZ                      FONSECA                    MIGUEL ANGEL               00000000000000021062021     020000009011003  2                  9
