Y607431310462169749629GARCIA                     MARTINEZ                   EDUARDO                    00000000000000016062022     020000009019203  2                  9
Y607431310445119401805MENDEZ                     REYNA                      ALEXANDER                  00000000000000016062022     020000009019403  2                  9
Y607431310403189483294LARA                       ARRIOLA                    JESICA                     00000000000000016062022     020000009019503  2                  9
