Y605571210032886577884MARTINEZ                   BALDERAS                   SERGIO PRISCILIANO         00000000000000001072017     020000005012903  2                  9
Y605571210006816344326VAZQUEZ                    OLIVA                      LUIS                       00000000000000004072017     020000009489703  2                  9
Y605571210045079025065MAGADAN                    PUNTOS                     GUSTAVO                    00000000000000005072017     020000009551503  2                  9
Y605571210045098958072PEREZ                      DILIEGROS                  MIGUEL ANGEL               00000000000000005072017     020000009667503  2                  9
Y605571210015169900675ROSAS                      VALLE                      ADRIAN                     00000000000000004072017     020000009684103  2                  9
Y605571210050149435625ALCANTARA                  ROJAS                      NATALIA                    00000000000000005072017     020000009693803  2                  9
Y605571210045975801627RODRIGUEZ                  SANTILLAN                  JOSE ARTURO                00000000000000004072017     020000009697803  2                  9
Y605571210044159644200CONTRERAS                  FLORES                     RICARDO ADEMIR             00000000000000005072017     020000009703403  2                  9
Y605571210082876728716OLMOS                      HERNANDEZ                  JESUS ANGEL                00000000000000005072017     020000009703503  2                  9
Y605571210075856726536CELIS                      CAMACHO                    ALEJANDRO                  00000000000000030062017     020000009710303  2                  9
Y605571210016017706488NIETO                      FLORES                     NESTOR                     00000000000000005072017     020000009712303  2                  9
Y605571210045099156742MOSCO                      GUTIERREZ                  ANDRES                     00000000000000004072017     020000009713003  2                  9
Y605571210044149681643ESPINDOLA                  QUEZADA                    MARIA FERNANDA             00000000000000005072017     020000015213503  2                  9
Y605571210012169008948MORENO                     MORENO                     ROSALINO                   00000000000000004072017     020000019094703  2                  9
Y605571210043087301750YAÒEZ                      GUILLERMO                  NARCIZO                    00000000000000004072017     020000019109403  2                  9
Y605571210047078806164BECERRA                    REGINO                     JOSE ISAAC                 00000000000000004072017     020000019114303  2                  9
Y605571210043058844978IBARRA                     VILLARREAL                 ANA MARIA                  00000000000000005072017     020000019116103  2                  9
Y605571210012887170723VILLELA                    LUNA                       SERGIO                     00000000000000005072017     020000019116203  2                  9
Y605571210025038609167RODRIGUEZ                  SALTO                      BRYAN SERGIO               00000000000000005072017     020000025016703  2                  9
Y605571210004139889812IÒIGUEZ                    SALAZAR                    JOSE ADALBERTO             00000000000000005072017     020000025017703  2                  9
