Y605571210014008249261MORALES                    ACOSTA                     MIGUEL ANGEL               00000000000000017042017     020000022058403  2                  9
Y605571210047169860807VALENZUELA                 MORENO                     JUAN CARLOS                00000000000000020042017     020000023043603  2                  9
Y605571210082976801256CARRERA                    VALDOVINOS                 JOSE                       00000000000000020042017     020000023044203  2                  9
Y605571210013169627356LUNA                       GONZALEZ                   PATRICIA                   00000000000000020042017     020000023044303  2                  9
Y605571210081058506841LOPEZ                      SILVAN                     GAMALIEL                   00000000000000020042017     020000023044803  2                  9
