Y462621510948998001159MANZANO                    ARELLANO                   FRANCISCO JAVIER           00000000000000023012017     020000021130103  2                  9
Y462621510948139219207JIMENEZ                    OREA                       JOSE LUIS                  00000000000000022012017     020000021133403  2                  9
Y462621510902907425819VAZQUEZ                    SANCHEZ                    JORGE                      00000000000000022012017     020000021153103  2                  9
Y462621510948008509613CASTILLO                   MUÒOZ                      FARID                      00000000000000023012017     020000021163503  2                  9
