A836767410933119253335MACIAS                     JURADO                     ILIANA LIZDEBETH           00000000000000019072016     020000008001502  2                  9
A836767410933937686708RAMOS                      BUSTAMANTE                 RAUL ARTURO                00000000000000023072016     020000008037403  2                  9
A836767410903146643436BACA                       ESCARCEGA                  JUAN NEPONUCENO            00000000000000025072016     020000008039503  2                  9
A836767410903159214885VILLALOBOS                 ESTRADA                    JOEL                       00000000000000019072016     020000008044503  2                  9
A836767410944159649258BACA                       LOPEZ                      AMERICA                    00000000000000019072016     020000008045603  2                  9
A836767410933058893828AVITIA                     FRESCAS                    ANDREA GUADALUPE           00000000000000019072016     020000008045803  2                  9
A836767410908149674080CHACON                     ROJAS                      FERNANDO OMAR              00000000000000022072016     020000008046003  2                  9
A836767410933986003185LAZOS                      HERRERA                    ESTEVAN                    00000000000000021072016     020000008047003  2                  9
A836767410971068727149LOPEZ                      HERNANDEZ                  MARTIN DE JESUS            00000000000000019072016     020000008047203  2                  9
A836767410901695017200DIAZ                       SANTANA                    TEOFANES                   00000000000000019072016     020000008049003  2                  9
A836767410933139203922CARRILLO                   ROJAS                      CHRISTIAN IVAN             00000000000000019072016     020000008049803  2                  9
A836767410933119299825REYES                      ORTIZ                      JOSE ENRIQUE               00000000000000019072016     020000008050803  2                  9
A836767410933867131956REYES                      ORTIZ                      MARIA GABRIELA             00000000000000019072016     020000008051103  2                  9
A836767410905169485330REYES                      ORTIZ                      CRISTINA ITZEL             00000000000000019072016     020000008051403  2                  9
