A836767410903168635278GARIBALDI                  CARBAJAL                   DIANA PATRICIA             00000000000000004072016     020000008001902  2                  9
A836767410933996915097LOPEZ                      RIVERA                     MIRNA TERESA               00000000000000007072016     020000008044203  2                  9
A836767410933846743723LOPEZ                      CHAVEZ                     JAIME MARTIN               00000000000000005072016     020000008048303  2                  9
A836767410933988306776GONZALEZ                   VADILLO                    ALEJO                      00000000000000007072016     020000008048703  2                  9
