A836767410933079147667CASTRO                     MENDOZA                    RUTH CELESTE               00000000000000003082016     020000008002402  2                  9
A836767410933078921351CAMPOS                     MUÒOZ                      LUIS ENRIQUE               00000000000000003082016     020000008047703  2                  9
A836767410932947512458GALINDO                    VALERIO                    PORFIRIO                   00000000000000003082016     020000008052403  2                  9
