A836767410912998021831BENITEZ                    MORENO                     ARTURO                     00000000000000027122016     020000008051903  2                  9
A836767410913018336233SANTOS                     GONZALEZ                   LORENZO                    00000000000000027122016     020000008059503  2                  9
A836767410933107502164HARVEY                     GUTIERREZ                  MODESTO RODOLFO            00000000000000027122016     020000008061303  2                  9
A836767410908159001935ARGUELLES                  DELGADO                    ERNESTO                    00000000000000027122016     020000008063503  2                  9
A836767410933976504689OLIVAS                     STIRK                      OLIVIA                     00000000000000027122016     020000008065903  2                  9
A836767410923978007740CARAVEO                    TREVIZO                    EFRAIN GUADALUPE           00000000000000027122016     020000008066903  2                  9
