Y462621510910149543067HERNANDEZ                  ARELLANO                   EDWING YOEL                00000000000000001052017     020000021002402  2                  9
Y462621510948077407848PEREZ                      GONZALEZ                   MARCELINO                  00000000000000001052017     020000021163603  2                  9
Y462621510972946626115HERNANDEZ                  RAMIREZ                    ENRIQUE                    00000000000000001052017     020000021164003  2                  9
Y462621510948967963777MARQUEZ                    ANZALDO                    JUAN DANIEL                00000000000000001052017     020000021168503  2                  9
