A836767410934018314715ESTUPIÒAN                  SALAZAR                    JESUS                      00000000000000016082016     020000008053603  2                  9
A836767410917159244171FLORES                     HERNANDEZ                  JESUS MANUEL               00000000000000016082016     020000008054603  2                  9
A836767410933028532969RUIZ                       DIAZ                       AMALIA IVONNE              00000000000000016082016     020000008055003  2                  9
A836767410935947740110HAROS                      DE LA TORRE                ROGELIO                    00000000000000016082016     020000008055203  2                  9
