Y605571210058169866322PALMA                      RODRIGUEZ                  JUAN                       00000000000000029062017     020000009664003  2                  9
Y605571210092078901698MEDINA                     VIEYRA                     VICTOR HUGO                00000000000000026062017     020000015213303  2                  9
Y605571210010159113694SOREQUE                    DIAZ                       DAVID                      00000000000000028062017     020000016011503  2                  9
Y605571210017169544925RODRIGUEZ                  GONZALEZ                   ALONDRA                    00000000000000029062017     020000022060803  2                  9
Y605571210040169845886PEREZ                      DE SANTIAGO                IRVIN ISAAC                00000000000000028062017     020000024004703  2                  9
Y605571210065087705102FLORES                     CONTRERAS                  MARINA                     00000000000000029062017     020000030127903  2                  9
