A836767410967937583531HERNANDEZ                  SANCHEZ                    CONCEPCION                 00000000000000017052016     020000008032603  2                  9
A836767410933038717329GARCIA                     HERNANDEZ                  RAUL                       00000000000000017052016     020000008040703  2                  9
A836767410933886926964ONTIVEROS                  VENEGAS                    PEDRO                      00000000000000016052016     020000008042403  2                  9
A836767410933129455623SIMOTA                     MARROQUIN                  PEDRO                      00000000000000017052016     020000008042703  2                  9
