Y605571210038149489932ESCOBAR                    MONTERO                    SOCORRO                    00000000000000005082017     020000009029102  2                  9
Y605571210092897120934VAZQUEZ                    GUTIERREZ                  ALBERTO                    00000000000000004082017     020000009043802  2                  9
Y605571210045088919779VILLAR                     ALEJALDRE                  FRANCISCO JAVIER           00000000000000005082017     020000009519203  2                  9
Y605571210030917151935NUÑEZ                      MARTINEZ                   JUANA                      00000000000000007082017     020000009530903  2                  9
Y605571210018139917431TREJO                      CERVANTES                  VALERIA JAQUELINE          00000000000000006082017     020000009709903  2                  9
Y605571210045129136243RAMOS                      QUINTANA                   BOGAR JHONATHAN            00000000000000007082017     020000009721303  2                  9
Y605571210045089101815VAZQUEZ                    BECERRIL                   LUIS ENRIQUE               00000000000000007082017     020000009722703  2                  9
Y605571210010159188241GONZALEZ                   SANCHEZ                    GUSTAVO                    00000000000000005082017     020000009723003  2                  9
Y605571210045089051820SARDENETA                  PAREDES                    CARLOS IVAN                00000000000000005082017     020000015184703  2                  9
Y605571210092078954507GARCIA                     MANCILLA                   MARCO ANTONIO              00000000000000006082017     020000015201403  2                  9
Y605571210092139404732MEDINA                     ROJAS                      EDITH GUADALUPE            00000000000000004082017     020000015215903  2                  9
Y605571210072078503231VARGAS                     MONTOR                     ONELI                      00000000000000005082017     020000016011203  2                  9
Y605571210065128719161NUÑEZ                      CARDEÑA                    BALDEMAR                   00000000000000007082017     020000019088303  2                  9
Y605571210043725536551GONZALEZ                   RODRIGUEZ                  JULIAN                     00000000000000004082017     020000019098803  2                  9
Y605571210032058849293HERNANDEZ                  GONZALEZ                   RODRIGO                    00000000000000007082017     020000019113303  2                  9
Y605571210005149443342ARREDONDO                  ESTRELLA                   LORENA                     00000000000000007082017     020000019119303  2                  9
Y605571210021099212868PEREZ                      DIAZ                       AMELIA                     00000000000000007082017     020000019119403  2                  9
Y605571210009058919797CERVANTES                  HERNANDEZ                  MARIA GUADALUPE            00000000000000007082017     020000019119803  2                  9
Y605571210009139202296DE LA ROSA                 ARELLANO                   JUAN JOSE                  00000000000000007082017     020000019119903  2                  9
Y605571210098169815242HERNANDEZ                  ESTEBAN                    IVONNE                     00000000000000007082017     020000019121003  2                  9
Y605571210033078882801HERNANDEZ                  VILLAR                     LUIS ENRIQUE               00000000000000001082017     020000020025403  2                  9
Y605571210019169786183COTO                       REAL                       SILVI GEOVANNI             00000000000000004082017     020000023048203  2                  9
Y605571210075169636463MENDEZ                     ALCUDIA                    CLAUDIA                    00000000000000003082017     020000023049203  2                  9
Y605571210003159068679SANCHEZ                    SANTOS                     JAIR                       00000000000000006082017     020000030084703  2                  9
Y605571210038159268895SANCHEZ                    SANTOS                     CUTBERTO                   00000000000000005082017     020000030102603  2                  9
Y605571210009169766277DOMINGUEZ                  ESPRONCEDA                 JOSE GUILLERMO             00000000000000005082017     020000030151703  2                  9
Y605571210067139505068MONTIEL                    GUILLEN                    ERICK IVAN                 00000000000000007082017     020000030152203  2                  9
