Y605571210096109269967TORRES                     GARCIA                     MARCOS GUILLERMO           00000000000000003012017     020000009395903  2                  9
Y605571210045119113657SERRANO                    CONTRERAS                  JULIO                      00000000000000004012017     020000009592503  2                  9
Y605571210030037602882LANDEROS                   RIVERA                     EDSON EDUARDO              00000000000000004012017     020000009599903  2                  9
Y605571210096109229243GALINDO                    RIVERA                     DANIEL ERNESTO             00000000000000004012017     020000009603203  2                  9
Y605571210098129409771PEREZ                      AMBROCIO                   CARLOS ALBERTO             00000000000000005012017     020000009620603  2                  9
Y605571210096967845114MONTES                     RIVERA                     EMILIANO                   00000000000000004012017     020000009633203  2                  9
Y605571210039907302333GONZALEZ                   CARRASCO                   JORGE                      00000000000000004012017     020000009639103  2                  9
Y605571210011937023577TORRES                     GARIBAY                    PEDRO                      00000000000000004012017     020000009649003  2                  9
Y605571210033987829851DELGADO                    MARTINEZ                   TOBIAS                     00000000000000004012017     020000009653703  2                  9
Y605571210001816107815MENESES                    GARCIA                     SILVERIO ALFREDO           00000000000000005012017     020000009661603  2                  9
Y605571210007917508272AGUILAR                    CALDERON                   JOSE ENRIQUE               00000000000000004012017     020000009665303  2                  9
Y605571210020098908609URIBE                      MARTINEZ                   MIGUEL ANGEL               00000000000000005012017     020000009668003  2                  9
Y605571210059169735350PINTO                      HERNANDEZ                  JHOANY                     00000000000000004012017     020000009669803  2                  9
Y605571210096088936719PINTO                      HERNANDEZ                  ALAN GABRIEL               00000000000000004012017     020000009670003  2                  9
Y605571210045937716525GOMEZ                      FLORES                     ELSA MIRELLA               00000000000000002012017     020000009671803  2                  9
Y605571210020978017018ZAMORA                     OCHOA                      JAZMIN                     00000000000000004012017     020000015183803  2                  9
Y605571210094998003811BASTIDA                    FLORES                     ISMAEL                     00000000000000004012017     020000015184503  2                  9
Y605571210014937522044PEGUEROS                   HERNANDEZ                  ISMAEL                     00000000000000004012017     020000022054303  2                  9
Y605571210014089305271ROMERO                     CHAVEZ                     JOSE DANIEL                00000000000000005012017     020000022054603  2                  9
Y605571210034956930118RODRIGUEZ                  RAMOS                      RITA                       00000000000000005012017     020000032000703  2                  9
Y605571210005168627692ALMEIDA                    MARTINEZ                   GERARDO                    00000000000000005012017     020000032001603  2                  9
