Y605571210001088921638CHAVEZ                     VILLA                      BRANDON                    00000000000000003082016     020000001008003  2                  9
Y605571210017169294075LEDEZMA                    PINEDA                     MARIANA ARACELI            00000000000000003082016     020000001008103  2                  9
Y605571210015077503389GARCIA                     SANCHEZ                    EDGAR                      00000000000000002082016     020000002049703  2                  9
Y605571210045038514639RAMIREZ                    ESCOBEDO                   DULCE RAQUEL               00000000000000005082016     020000009007402  2                  9
Y605571210039917154120SANCHEZ                    SANCHEZ                    BLANCA                     00000000000000005082016     020000009036102  2                  9
Y605571210094099079348DE LOS SANTOS              GARCIA                     JOSE                       00000000000000004082016     020000009353403  2                  9
Y605571210007998400019ARENAS                     RIVERO                     NATALIA                    00000000000000008082016     020000009559803  2                  9
Y605571210045886611206DEL TORO                   MENDEZ                     RICARDO                    00000000000000003082016     020000009603903  2                  9
Y605571210039129426043FERNANDEZ                  MAYA                       ERICK                      00000000000000008082016     020000009611303  2                  9
Y605571210096038408843VALDEZ                     SANCHEZ                    CHRISTIAN EMMANUEL         00000000000000004082016     020000009613003  2                  9
Y605571210094089042173HERNANDEZ                  BERRIOS                    RICARDO ALONSO             00000000000000004082016     020000009622203  2                  9
Y605571210045139126549TOMAS                      MENDEZ                     RUBEN MARCOS               00000000000000008082016     020000009624603  2                  9
Y605571210096159400702MUÑOZ                      MOCIÑOS                    FERNANDO                   00000000000000005082016     020000009626103  2                  9
Y605571210045129360595MONDRAGON                  ROSAS                      JESUS ALBERTO              00000000000000008082016     020000009626803  2                  9
Y605571210026159262364GONZALEZ                   BARRERA                    ELIZABETH                  00000000000000008082016     020000009632103  2                  9
Y605571210030917238039MOJICA                     GARDUÑO                    JOSE LUIS                  00000000000000007082016     020000009632703  2                  9
Y605571210060008203816HERNANDEZ                  HERNANDEZ                  EFRAIN                     00000000000000004082016     020000013013003  2                  9
Y605571210013139511540HERNANDEZ                  OLVERA                     JUAN CARLOS                00000000000000005082016     020000013013803  2                  9
Y605571210043796134484DIAZ                       ESTRADA                    DANIEL                     00000000000000006082016     020000019071803  2                  9
Y605571210047907472345DUARTE                     RIVERA                     JESUS ROSALIO              00000000000000007082016     020000019080103  2                  9
Y605571210047058806036ROBLEDO                    CASTAÑEDA                  JULIO CESAR                00000000000000006082016     020000019084003  2                  9
Y605571210082078519921DE LA CRUZ                 MARQUEZ                    ADAN                       00000000000000005082016     020000023030003  2                  9
Y605571210005158565266GARCIA                     MORALES                    ABDI LENIN                 00000000000000005082016     020000023030803  2                  9
Y605571210017169409699ACOSTA                     OSUNA                      JULIO FRANCISCO            00000000000000008082016     020000025004203  2                  9
Y605571210023139455457SAUCEDA                    QUEVEDO                    CESAR GEOVANNI             00000000000000008082016     020000025004803  2                  9
Y605571210002168257398RAMIREZ                    VALDES                     JORGE ALEJANDRO            00000000000000008082016     020000030114803  2                  9
Y605571210060149434262VAZQUEZ                    DELGADO                    JOSE EDUARDO               00000000000000003082016     020000032000103  2                  9
Y605571210050159711162RODARTE                    AVILA                      CARLOS ALBERTO             00000000000000003082016     020000032000303  2                  9
Y605571210034109210574ACUÑA                      GUZMAN                     RICARDO SALVADOR           00000000000000003082016     020000032000503  2                  9
Y605571210034079002746PINEDO                     PEREZ                      OSCAR                      00000000000000003082016     020000032000603  2                  9
