Y605571210010149458084VIDAL                      CUETO                      JOSE ARMANDO               00000000000000020032017     020000004011103  2                  9
Y605571210071098618920LOPEZ                      SANTIZ                     JOSE LUIS                  00000000000000020032017     020000007016803  2                  9
Y605571210007816103373ARROYO                     GUERRA                     JOSE ALBERTO               00000000000000021032017     020000009482303  2                  9
Y605571210062856211719DOMINGUEZ                  HERNANDEZ                  JOSE HECTOR RAYMUNDO       00000000000000017032017     020000009484403  2                  9
Y605571210094957600250CARDENAS                   CRUZ                       JOSE CARLOS                00000000000000020032017     020000009606103  2                  9
Y605571210094109011349JAIMEZ                     TOLEDO                     HUMBERTO DE JESUS          00000000000000019032017     020000009628003  2                  9
Y605571210085149506090REYES                      SANTA CRUZ                 JUAN CARLOS                00000000000000019032017     020000009654103  2                  9
Y605571210048998127160SANTOS                     JIMENEZ                    OSCAR                      00000000000000019032017     020000009654503  2                  9
Y605571210026169530628VEGA                       JIMENEZ                    PEDRO                      00000000000000016032017     020000009658903  2                  9
Y605571210096139545188DIAS                       PEREZ                      ALEJANDRO                  00000000000000021032017     020000009679603  2                  9
Y605571210045886842173VERA                       VALENCIA                   FERNANDO                   00000000000000019032017     020000009683203  2                  9
Y605571210005129551049BARTOLO                    CARRETERO                  CARLOS ALBERTO             00000000000000019032017     020000009685003  2                  9
Y605571210045098806883GUTIERREZ                  GASPAR                     ERIK                       00000000000000021032017     020000009686703  2                  9
Y605571210065846625757SALAZAR                    TICANTE                    HERMINIO                   00000000000000020032017     020000009688403  2                  9
Y605571210094099022611PEREZ                      VELEZ                      FERNANDO                   00000000000000019032017     020000009690203  2                  9
Y605571210012079063504NAJAR                      LARA                       JUAN ANTONIO               00000000000000020032017     020000011091603  2                  9
Y605571210071037804359RODRIGUEZ                  TRINIDAD                   JOSE MELQUIADES            00000000000000020032017     020000015194703  2                  9
Y605571210037007405923HERNANDEZ                  GONZALEZ                   LAURA                      00000000000000020032017     020000015197003  2                  9
Y605571210064169324031CORONA                     RUFINO                     FRANCISCO                  00000000000000016032017     020000015197103  2                  9
Y605571210092087400559RODRIGUEZ                  VAZQUEZ                    MARIA GRISELDA             00000000000000021032017     020000015197203  2                  9
Y605571210037067700734CALLEJAS                   PALMA                      MANUEL                     00000000000000020032017     020000015198003  2                  9
Y605571210065897037761ZAVALA                     CHINO                      ENRIQUE                    00000000000000020032017     020000015198103  2                  9
Y605571210049937780838ARTEAGA                                               JUAN DE DIOS               00000000000000018032017     020000019002602  2                  9
Y605571210047907116645ROJAS                      NU—EZ                      VICTOR HUGO                00000000000000018032017     020000019047903  2                  9
Y605571210043805902111GARCIA                     GONZALEZ                   ALBERTO                    00000000000000018032017     020000019098503  2                  9
Y605571210043785828088VASQUEZ                    CORONADO                   MARIA DE LOURDES           00000000000000020032017     020000019099403  2                  9
Y605571210043986200830TRUJILLO                   VILLARREAL                 DORA ELIA                  00000000000000020032017     020000019099603  2                  9
Y605571210043845902105RODRIGUEZ                  MONTAÒO                    MANUEL                     00000000000000018032017     020000019101903  2                  9
Y605571210047068703116GARCIA                     CANO                       EDMUNDO IVAN               00000000000000018032017     020000019102603  2                  9
Y605571210047988011004MEDRANO                    HERNANDEZ                  OSCAR                      00000000000000018032017     020000019105803  2                  9
Y605571210009028461888TORRES                     MARTINEZ                   JOSE LUIS                  00000000000000018032017     020000022050403  2                  9
Y605571210065129271568BAXIN                      MACARIO                    MIGUEL ANGEL               00000000000000018032017     020000022056203  2                  9
Y605571210078058707163RUIZ                       CABRERA                    JOSE ARMANDO               00000000000000018032017     020000022056403  2                  9
Y605571210005179802839BAXIN                      AMBROCIO                   LUIS ENRIQUE               00000000000000018032017     020000022056503  2                  9
Y605571210014957501696VELAZQUEZ                  SANCHEZ                    JOSE MANUEL                00000000000000018032017     020000022056903  2                  9
Y605571210047119322015RUIZ                       PEREZ                      GABINO                     00000000000000018032017     020000022057703  2                  9
Y605571210043119048171RUIZ                       PEREZ                      LUCIO                      00000000000000018032017     020000022057803  2                  9
Y605571210014937714377LLACA                      PEREZ                      RODOLFO                    00000000000000016032017     020000022058603  2                  9
Y605571210021119411466VAZQUEZ                    CISNEROS                   JOSE DAVID                 00000000000000021032017     020000023040403  2                  9
Y605571210023876705056FELIX                      REATIGA                    HECTOR MANUEL              00000000000000021032017     020000025010403  2                  9
Y605571210023116200835AMADOR                     APODACA                    MARIA MAGDALENA            00000000000000021032017     020000025014003  2                  9
Y605571210023119104067MEDINA                     GARCIA                     MIRNA CECILIA              00000000000000021032017     020000025014103  2                  9
Y605571210083097701961MORALES                    MARTINEZ                   NATALIA                    00000000000000020032017     020000027060303  2                  9
Y605571210005147509821LEAL                       RAMOS                      JOSE RICARDO               00000000000000018032017     020000028036903  2                  9
Y605571210009927624164RAMIREZ                    TORRES                     JORGE LUIS                 00000000000000018032017     020000028038403  2                  9
Y605571210009036904010GAYTAN                                                JUAN CARLOS                00000000000000018032017     020000028039203  2                  9
Y605571210049856762049HERNANDEZ                  SALAZAR                    RAFAEL                     00000000000000018032017     020000028039903  2                  9
Y605571210078937612949MALPICA                    CHAVEZ                     HUMBERTO                   00000000000000018032017     020000030130103  2                  9
Y605571210065018207236GARCIA                     VIVEROS                    LEOPOLDO                   00000000000000018032017     020000030131903  2                  9
Y605571210002957971621CASIANO                    GARCIA                     RENE                       00000000000000018032017     020000030132303  2                  9
Y605571210065048506003MANUEL                     RIOS                       CHRISTIAN                  00000000000000019032017     020000030132903  2                  9
Y605571210039997917099NOCHEBUENA                 DE LA CRUZ                 JOSE ANTONIO               00000000000000019032017     020000030134903  2                  9
Y605571210067129337019GARCIA                     IZQUIERDO                  JOSE DAVID                 00000000000000019032017     020000030135403  2                  9
Y605571210067078622098SOLANO                     RODRIGUEZ                  JOSE LUIS                  00000000000000020032017     020000030137403  2                  9
Y605571210067968071331FRANCISCO                  POLICARPIO                 JOSE LUIS                  00000000000000021032017     020000030141303  2                  9
