Y605571210042907144432MATEO                      SOLANO                     JOSE LUIS                  00000000000000009022017     020000009557203  2                  9
Y605571210096057000869MOSQUEDA                   OCHOA                      LUIS                       00000000000000007022017     020000009675503  2                  9
Y605571210012866219020BARAJAS                    LOZA                       J JESUS                    00000000000000005022017     020000011091703  2                  9
Y605571210043058641580SANCHEZ                    CAMPOS                     JUAN EDUARDO               00000000000000009022017     020000019101303  2                  9
Y605571210023098311469NUÒES                      FELIX                      ESTERIA ESPERANZA          00000000000000009022017     020000025011803  2                  9
