Y605571210037058306137ALVAREZ                    CAMPOS                     MARIA DEL CARMEN           00000000000000030082017     020000009718503  2                  9
Y605571210019836305755GONZALEZ                   MIRANDA                    ARCADIO                    00000000000000030082017     020000009719203  2                  9
Y605571210037988119592CRUZ                       ROMERO                     GUSTAVO MIGUEL             00000000000000029082017     020000009725003  2                  9
Y605571210045028320419GONZALEZ                   AYALA                      NIDIA ANGELICA             00000000000000030082017     020000009727903  2                  9
Y605571210002169777477MACEDONIO                  HERNANDEZ                  JOSE LUIS                  00000000000000030082017     020000019124703  2                  9
