Y605571210094048642055MONTES                     LOPEZ                      JONATHAN YAMANI            00000000000000022042017     020000009535903  2                  9
Y605571210045139105253ROJAS                      QUINTERO                   MAURICIO                   00000000000000019042017     020000009656603  2                  9
Y605571210063159814373CAZARES                    HERRERA                    ALEXIS FERNANDO            00000000000000021042017     020000009660903  2                  9
Y605571210011917407188FRANCISCO                  DEL VALLE                  ARNULFO                    00000000000000019042017     020000009666203  2                  9
Y605571210048099026113GONZALEZ                   QUINTERO                   ARMANDO                    00000000000000019042017     020000009674003  2                  9
Y605571210060169898578CRESCENCIO                 ALANIS                     ALEJANDRO                  00000000000000023042017     020000009691003  2                  9
Y605571210039097900219PEREZ                      BERRUECOS                  ELISA MARGARITA            00000000000000019042017     020000009694103  2                  9
Y605571210001177846009ESPINOSA                   GONZALEZ                   JORGE ARMANDO              00000000000000021042017     020000009698303  2                  9
Y605571210042806700151CRUZ                       BARRON                     JORGE                      00000000000000019042017     020000015113103  2                  9
Y605571210092896910806MARTINEZ                   OLGUIN                     RICARDO                    00000000000000025042017     020000015188703  2                  9
Y605571210090129401320MARTINEZ                   MARTINEZ                   ELVIN                      00000000000000020042017     020000015196103  2                  9
Y605571210092139513425CRUZ                       GRANADA                    DAVID                      00000000000000023042017     020000015202703  2                  9
Y605571210043725536551GONZALEZ                   RODRIGUEZ                  JULIAN                     00000000000000024042017     020000019098803  2                  9
Y605571210078119316657ARANJO                     DIAZ                       LEOPOLDO                   00000000000000023042017     020000023041903  2                  9
Y605571210009109420514ARREOLA                    GONZALEZ                   ISAI ALEJANDRO             00000000000000025042017     020000028039403  2                  9
