A836767410925048739756FLORES                     INZUNZA                    SALVADOR                   00000000000000001052017     020000002051803  2                  9
A836767410921805912231RIVERA                     HERNANDEZ                  ENRIQUE                    00000000000000003052017     020000002052303  2                  9
A836767410902178152357CERVANTES                  RINCON                     J. JESUS                   00000000000000002052017     020000002052603  2                  9
A836767410921099056471LOPEZ                      OJEDA                      JESUS OMAR                 00000000000000002052017     020000002053403  2                  9
A836767410925048808346LOPEZ                      GUTIERREZ                  YURIDIANA                  00000000000000002052017     020000002053803  2                  9
A836767410921129633935MORENO                     RIVERA                     JUAN MANUEL                00000000000000002052017     020000002054003  2                  9
A836767410921079014490VENTURA                    VELARDE                    RICARDO ALONSO             00000000000000003052017     020000002054103  2                  9
