Y605571210068907430315GUDIÒO                     BENAVIDES                  ANA LILIA                  00000000000000003052017     020000009671003  2                  9
Y605571210017159866288BAUTISTA                   JAIMES                     DANIEL                     00000000000000003052017     020000009674803  2                  9
Y605571210059109047868HERMOSILLO                 HERNANDEZ                  LAURA AURORA               00000000000000004052017     020000009698403  2                  9
Y605571210092109036324GONZALEZ                   ALCEDA                     IRENE                      00000000000000003052017     020000015195603  2                  9
Y605571210005158405547PAZ                        DIAZ                       DANIEL                     00000000000000004052017     020000015200803  2                  9
Y605571210016066300639SANCHEZ                    RUFINO                     AGUSTINA                   00000000000000004052017     020000015202503  2                  9
Y605571210043089232698ROMAN                      ORTEGA                     JOSE IGNACIO               00000000000000001052017     020000019107403  2                  9
Y605571210043119127926PULIDO                     GONZALEZ                   MARTHA CECILIA             00000000000000001052017     020000019108403  2                  9
Y605571210003967965801SILVA                      GUTIERREZ                  HUGO ALEJANDRO             00000000000000001052017     020000019108503  2                  9
Y605571210018179842838CADENA                     NIÒO                       LUIS ALEJANDRO             00000000000000004052017     020000019110203  2                  9
Y605571210003149591152VELAZQUEZ                  ULIN                       ALEXANDER                  00000000000000003052017     020000023034903  2                  9
Y605571210023027009093VALENCIA                   ROJO                       ANTONIO CANDELARIO         00000000000000003052017     020000025012603  2                  9
Y605571210023987714286DE LA ROCHA                VALENZUELA                 LAMBERTO                   00000000000000004052017     020000025015503  2                  9
