Y607431310445128801391MARTINEZ                   RAMIREZ                    JUAN CARLOS                00000000000000021072021     020000009009803  2                  9
Y607431310442028218388RAZO                       MONTAÒO                    DAVID IVAN                 00000000000000021072021     020000009011103  2                  9
Y607431310445129119736ALCANTARA                  GUZMAN                     OTHONIEL                   00000000000000021072021     020000009011203  2                  9
Y607431310494088954162NICOLAS                    HUERTA                     MARISELA                   00000000000000021072021     020000009011503  2                  9
Y607431310420119627980CHAVEZ                     CASTILLO                   HECTOR                     00000000000000021072021     020000009012003  2                  9
