Y605571210017826013108GARCIA                     SANCHEZ                    CARLOS                     00000000000000010052017     020000002050703  2                  9
Y605571210071119036177GOMEZ                      SANTIZ                     OLIVERIO                   00000000000000011052017     020000007016903  2                  9
Y605571210071128510964LOPEZ                      MENDEZ                     ALFONSO                    00000000000000011052017     020000007018003  2                  9
Y605571210005159706745ZU—IGA                     MOLINERO                   ROGELIO                    00000000000000010052017     020000009592203  2                  9
Y605571210017159068984MELO                       GASPAR                     YESENIA                    00000000000000005052017     020000009659403  2                  9
Y605571210017169777327CERON                      DURAN                      JUAN LUIS                  00000000000000007052017     020000009693003  2                  9
Y605571210045129449356MARTINEZ                   BALTAZAR                   ERICK DANIEL               00000000000000005052017     020000009699503  2                  9
Y605571210008149808068TOVAR                      GARCIA                     ANA PATRICIA               00000000000000011052017     020000009699803  2                  9
Y605571210019149217911JUAN                       BERNABE                    GAMALIEL                   00000000000000007052017     020000009699903  2                  9
Y605571210002179361171GONZALEZ                   MONJARDIN                  JOSE LUIS                  00000000000000005052017     020000015189603  2                  9
Y605571210059159526611VENTURA                    JUANA                      ALEJANDRA                  00000000000000011052017     020000019106003  2                  9
Y605571210008169206698MARTINEZ                   CASTAÒEDA                  LUIS ALFREDO               00000000000000010052017     020000022057603  2                  9
Y605571210064159870415CRUZ                       MARTINEZ                   NOE ALEJANDRO              00000000000000009052017     020000022060403  2                  9
Y605571210067109223460RODRIGUEZ                  DIAZ                       ROGER                      00000000000000009052017     020000023046003  2                  9
Y605571210078169853161ZEPAHUA                    HUERTA                     JANET                      00000000000000009052017     020000030139503  2                  9
Y605571210054159772778VELASCO                    PLIEGO                     FRANCISCO JAVIER           00000000000000010052017     020000030147103  2                  9
