A836767410933129137593GONZALEZ                   RAMIREZ                    BRENDA ESMERALDA           00000000000000009112016     020000008056203  2                  9
A836767410933028487396OLMOS                      MALDONADO                  EDGAR ORLANDO              00000000000000009112016     020000008062803  2                  9
A836767410933139555263SANCHEZ                    MUÑOZ                      JUAN CARLOS                00000000000000009112016     020000008062903  2                  9
A836767410933078858819ACUÑA                      ORNELAS                    JAFET ADRIAN               00000000000000009112016     020000008063703  2                  9
