Y605571210001796070397GARCIA                     MATAMOROS                  VICTOR JOSE                00000000000000016082016     020000009052503  2                  9
Y605571210017846201378CARDENAS                   CORONA                     ANGEL                      00000000000000016082016     020000009179503  2                  9
Y605571210045917219128GUERRERO                   TORRES                     RAUL                       00000000000000016082016     020000009477803  2                  9
Y605571210039008418715GONZALEZ                   ZARAGOZA                   MARIO                      00000000000000016082016     020000009492403  2                  9
Y605571210094109317258PAZOS                      GONZALEZ                   BRUNO JESUS                00000000000000017082016     020000009543003  2                  9
Y605571210096109229243GALINDO                    RIVERA                     DANIEL ERNESTO             00000000000000012082016     020000009603203  2                  9
Y605571210096089106064CRUZ                       VADO                       JORGE IVAN                 00000000000000017082016     020000009617203  2                  9
Y605571210015139871279YARZA                      PEREZ                      KARLA PATRICIA             00000000000000016082016     020000009624303  2                  9
Y605571210008159527871ROMERO                     PEREZ                      TERRY A.                   00000000000000016082016     020000009624503  2                  9
Y605571210037129306496SOTELO                     PEREZ                      EDUARDO NOE                00000000000000017082016     020000009627803  2                  9
Y605571210045139315704JIMENEZ                     DAMIAN                    REYNALDO                   00000000000000017082016     020000009632403  2                  9
Y605571210003147851327GONZALEZ                   GUTIERREZ                  VERONICA                   00000000000000017082016     020000009632503  2                  9
Y605571210020058702711RAMOS                      GONZALEZ                   ALEJANDRO                  00000000000000017082016     020000009633903  2                  9
Y605571210008148030128GARCIA                     CHAVEZ                     ROBERTO                    00000000000000017082016     020000009634203  2                  9
Y605571210007977904304MARTINEZ                   PANDURO                    ALEJANDRO                  00000000000000016082016     020000009636103  2                  9
Y605571210049149536176ESTRADA                    JUAREZ                     ROBERTO CARLOS             00000000000000016082016     020000015170703  2                  9
Y605571210044159774171POSADAS                    GARCIA                     ERIKA                      00000000000000012082016     020000015179803  2                  9
Y605571210082008223974YAÑEZ                      GOMEZ                      RICARDO FERNANDO           00000000000000012082016     020000023030403  2                  9
Y605571210008148570453DOMINGUEZ                  HIDALGO                    JANET                      00000000000000013082016     020000023031303  2                  9
Y605571210023119342501HERAS                      GONZALEZ                   MANUEL                     00000000000000017082016     020000025003503  2                  9
