Y605571210092896814578AMBROSIO                   ROBLES                     DELFINO                    00000000000000007112016     020000009582803  2                  9
Y605571210042907011037ROSAS                      HERNANDEZ                  CARLOS                     00000000000000005112016     020000009624703  2                  9
Y605571210045057910239GARCIA                     TELLEZ                     FREDY                      00000000000000007112016     020000009630503  2                  9
Y605571210005169051017MEJIA                      REYES                      AIDEE ABIGAIL              00000000000000007112016     020000009631203  2                  9
Y605571210037876930720AGUILAR                    HERNANDEZ                  TOMAS                      00000000000000007112016     020000009635503  2                  9
Y605571210006169870414ARIAZ                      LARRONDO                   CRISTOPHER                 00000000000000004112016     020000009644403  2                  9
Y605571210030907352733BELMONT                    HERNANDEZ                  VICTOR                     00000000000000005112016     020000009648803  2                  9
Y605571210096089036840ANTONIO                    GONZALEZ                   MARIA DE LOS ANGELES       00000000000000001112016     020000009650703  2                  9
Y605571210096089036840ANTONIO                    GONZALEZ                   MARIA DE LOS ANGELES       00000000000000001112016     020000009650703  2                  9
Y605571210094947724202MARTINEZ                   RUIZ                       MINERVA                    00000000000000001112016     020000009651003  2                  9
Y605571210042876520059ROSALES                    RIVERA                     VICTOR RUBEN               00000000000000007112016     020000009652703  2                  9
Y605571210005159302834BAUTISTA                   ROMERO                     ERIKA                      00000000000000007112016     020000009652903  2                  9
Y605571210053099051657BARAJAS                    ZIRATE                     ISMAEL                     00000000000000007112016     020000016004803  2                  9
Y605571210043016704546PIÒA                       GUEVARA                    EDNA MARCELA               00000000000000005112016     020000019088903  2                  9
Y605571210014119322148PEREZ                      MELO                       LUIS ENRIQUE               00000000000000005112016     020000022045703  2                  9
Y605571210050159689624PUCHETA                    ALDANA                     ANA ISABEL                 00000000000000005112016     020000022048203  2                  9
Y605571210067977819332HERNANDEZ                  PUCHETA                    JOSE ANTONIO               00000000000000005112016     020000022048303  2                  9
Y605571210045007502557PEREZ                      RANGEL                     LOURDES ARACELI            00000000000000007112016     020000022051903  2                  9
Y605571210023856906377CORTES                     TORRES                     LUIS                       00000000000000007112016     020000025006303  2                  9
Y605571210083058002466RUIZ                       OSORIO                     DULCE MARIA                00000000000000007112016     020000027051503  2                  9
Y605571210065099205786APARICIO                   GUZMAN                     DANIEL EDUARDO             00000000000000004112016     020000030089403  2                  9
Y605571210004897389104FLORES                     CASILLAS                   BERNARDO                   00000000000000005112016     020000032001103  2                  9
