A482760210353866660086MEDINA                     GOMEZ                      EDUARDO                    00000000000000009062016     020000006001503  2                  9
A482760210356159629676HERNANDEZ                  BRAVO                      LUCI YANETH                00000000000000010062016     020000007015203  2                  9
A482760210312454789631GALLARDO                   BAUTISTA                   NETZA JOVANI               00000000000000008062016     020000015174903  2                  9
