A836767410903169730136DE LA CRUZ                 DE LA CRUZ                 JORGE ALBERTO              00000000000000025052017     020000002055303  2                  9
A836767410950968028980TENA                       GONZALEZ                   GUADALUPE                  00000000000000026052017     020000008074503  2                  9
A836767410933079129491CONTRERAS                  ACEVEDO                    FERNANDO                   00000000000000026052017     020000008074603  2                  9
