Y462621510944159622826GARCIA                     MARTINEZ                   LUIS ANTONIO               00000000000000003052016     020000021142903  2                  9
Y462621510948068754182MAYOR                      HERNANDEZ                  EDUARDO ERIK               00000000000000003052016     020000021143003  2                  9
Y462621510948119161429MARCIAL                    ROMERO                     MARTIN                     00000000000000003052016     020000021147303  2                  9
