Y462621510948139106974CAMPOHERMOSO               MARTINEZ DE ESCOBAR        SHIRLEY                    00000000000000006072017     020000021002002  2                  9
Y462621510962917595282HERNANDEZ                  FELIPE                     JOSE MANUEL                00000000000000005072017     020000021068903  2                  9
Y462621510978129650962GARCIA                     ANTONIO                    RAUL                       00000000000000002072017     020000021168303  2                  9
