Y607431310404180269815FLORES                     SOTO                       IMANOL                     00000000000000004082023     020000009029403  2                  9
Y607431310402178114449DE LA CRUZ                 DE LA CRUZ                 ADALBERTO                  00000000000000005082023     020000009029503  2                  9
Y607431310404190412157DE LA CRUZ                 DE LA CRUZ                 JOSE ALBERTO               00000000000000005082023     020000009029603  2                  9
