Y605571210045027405633ZAPOTECA                   AGUILLON                   GUADALUPE                  00000000000000014062017     020000009573203  2                  9
Y605571210045058324174PEREZ                      GARCIA                     FERNANDO                   00000000000000013062017     020000009712003  2                  9
Y605571210005179481758LUNA                       GODOY                      JULIO CESAR                00000000000000013062017     020000022062903  2                  9
Y605571210017179771013LUNA                       GODOY                      JORGE ALEJANDRO            00000000000000014062017     020000022063003  2                  9
Y605571210002169367014HERNANDEZ                  VELAZQUEZ                  OMAR                       00000000000000014062017     020000022063103  2                  9
Y605571210023099235832VALENZUELA                 FELIX                      ALEXIS ALAN                00000000000000014062017     020000025016403  2                  9
