Y605571210010826521782MENDOZA                    NIETO                      JOVITA                     00000000000000020102016     020000009606603  2                  9
Y605571210083088723073HERNANDEZ                  MADRIGAL                   JOSE FRANCISCO             00000000000000020102016     020000009643303  2                  9
Y605571210084138401215CARDOZA                    ANOTA                      WENDY PAOLA                00000000000000019102016     020000011087603  2                  9
Y605571210065089028750MARTINEZ                   ATEN                       ELIAS EFRAIN               00000000000000019102016     020000011087903  2                  9
Y605571210092028405980ALBA                       SIFUENTES                  ANTONIO ARTURO             00000000000000014102016     020000015172703  2                  9
Y605571210043857009062VALADEZ                    VILLALON                   NORMA ELIZABET             00000000000000020102016     020000019086003  2                  9
Y605571210043806504338RIOS                       VALLEJO                    JESUS                      00000000000000020102016     020000019086703  2                  9
Y605571210078107000990GUZMAN                     PRIETO                     HILDA                      00000000000000019102016     020000030121803  2                  9
