Z064567510812907043686CERRITOS                   HERNANDEZ                  JOSE GUADALUPE             00000000000000001062017     020000011089503  2                  9
Z064567510812068926091GUTIERREZ                  RODRIGUEZ                  JUAN MANUEL                00000000000000001062017     020000011092203  2                  9
Z064567510812109118518DURAN                      GONZALEZ                   DANIEL                     00000000000000001062017     020000011097203  2                  9
Z064567510812058227112MARTINEZ                   REA                        PEDRO OSVALDO              00000000000000001062017     020000011098503  2                  9
Z064567510826159722573TOVAR                      ROJAS                      JOVANI                     00000000000000001062017     020000011099403  2                  9
Z064567510854927277175ZAMORA                     MEJIA                      JOSE GUADALUPE             00000000000000001062017     020000011099703  2                  9
