Y605571210017866948254ESCOBAR                    RUBI                       JAIME                      00000000000000001052017     020000009640703  2                  9
Y605571210003179702836GUZMAN                     ROJAS                      MIGUEL DE JESUS            00000000000000001052017     020000009678603  2                  9
Y605571210002157277118GUTIERREZ                  TORRES                     MIGUEL ANGEL               00000000000000001052017     020000009692203  2                  9
Y605571210096946600234YESCAS                     RAMIREZ                    VERONICA                   00000000000000002052017     020000009693403  2                  9
Y605571210075806227916ESQUIVEL                   GARCIA                     GRACIELA                   00000000000000001052017     020000009693603  2                  9
Y605571210039026900827OBREGON                    FONSECA                    ROLANDO JAVIER             00000000000000001052017     020000009696303  2                  9
Y605571210001119217766SOLACHE                    HERNANDEZ                  MANOLO MARTIN              00000000000000002052017     020000009700003  2                  9
Y605571210092129505316CASTRO                     PALACIOS                   JOBANI                     00000000000000002052017     020000015130603  2                  9
Y605571210092978151139ORNELAS                    CAMPOS                     SILVIA ARACELI             00000000000000001052017     020000015195003  2                  9
Y605571210057149604241ROSANO                     DOMINGUEZ                  KEVIN ADAM                 00000000000000001052017     020000015200303  2                  9
Y605571210030977313987CERECEDO                   MAGDALENA                  HERMILO                    00000000000000002052017     020000015203303  2                  9
Y605571210026169727141SANCHEZ                    GUTIERREZ                  VICENTE                    00000000000000002052017     020000015205303  2                  9
Y605571210047058931826FLORES                     FACUNDO                    JESUS CARLOS               00000000000000001052017     020000019082503  2                  9
Y605571210009017801169REYES                      QUINTERO                   ADALBERTO                  00000000000000001052017     020000019094103  2                  9
Y605571210043978136695LUCIANO                    MARIANO                    DAMIAN                     00000000000000002052017     020000019100603  2                  9
Y605571210034937204906DELGADO                    CISNEROS                   JOSE ANGEL                 00000000000000001052017     020000019105303  2                  9
Y605571210048058828962HERNANDEZ                  HERNANDEZ                  HUMBERTO                   00000000000000001052017     020000019107003  2                  9
Y605571210064159869607TEOBAL                     OLMOS                      AHEVITH                    00000000000000001052017     020000019109003  2                  9
Y605571210047028530120BENAVIDES                  SERNA                      LIZMARIA                   00000000000000001052017     020000019109103  2                  9
Y605571210031836007356QUINTANILLA                IBARRA                     JUAN ANTONIO               00000000000000001052017     020000019109503  2                  9
Y605571210055017505094TORRES                     HELENES                    RODRIGO WILFREDO           00000000000000002052017     020000022059103  2                  9
Y605571210014978020775ESPINOZA                   LUGO                       NANCY LETICIA              00000000000000002052017     020000022059603  2                  9
Y605571210094038501345JUAREZ                     AVILA                      ERNESTO                    00000000000000002052017     020000022059803  2                  9
Y605571210010159493963OCAÒA                      NAVARRETE                  LUIS ENRIQUE               00000000000000002052017     020000022060503  2                  9
Y605571210002169804487FERMIN                     PEREZ                      PERLA YADIRA               00000000000000002052017     020000028038603  2                  9
Y605571210048008347717MARTINEZ                   BELLO                      ARTURO GEOVANNI            00000000000000001052017     020000030139903  2                  9
Y605571210006139621186ESTEVEZ                    GONZALEZ                   SERGIO ANTONIO             00000000000000001052017     020000030143403  2                  9
Y605571210005149529595GASCA                      CRESPO                     NASAHY ARELY               00000000000000001052017     020000030145503  2                  9
Y605571210067108918441CONTRERAS                  ONOFRE                     JUAN VALENTIN              00000000000000001052017     020000030146303  2                  9
Y605571210067796211976JUAREZ                     RAMIREZ                    RAUL                       00000000000000001052017     020000030146503  2                  9
