A836767410937068907189FLORES                     BARRIOS                    MIGUEL ANGEL               00000000000000026072017     020000002001302  2                  9
A836767410921038686198MENDEZ                     HERNANDEZ                  LUIS ENRIQUE               00000000000000026072017     020000002059203  2                  9
A836767410909139679048MENDEZ                     HERNANDEZ                  GABRIELA                   00000000000000026072017     020000002059503  2                  9
A836767410902156347763VARGAS                     SALAZAR                    LUIS                       00000000000000026072017     020000002059803  2                  9
A836767410971139446539REYES                      GONZALEZ                   FORTINO SERGIO             00000000000000025072017     020000002059903  2                  9
A836767410937169828086MORALES                    MORALES                    DANIEL ERNESTO             00000000000000025072017     020000002060003  2                  9
A836767410943976607036RUBALCABA                  ESPINOSA                   JOSE LUIS                  00000000000000026072017     020000008067503  2                  9
A836767410923129329589SALMERON                   ARCUVIA                    JOSE LUIS                  00000000000000026072017     020000008078203  2                  9
