Y605571210052038613213FLORES                     JORDAN                     EFRAIN                     00000000000000006102016     020000006001603  2                  9
Y605571210096129401681FLORES                     ARRIETA                    JORGE ARMANDO              00000000000000005102016     020000009613903  2                  9
Y605571210011068711370AMADOR                     MEDINA                     JUAN MANUEL                00000000000000005102016     020000009640803  2                  9
Y605571210012937203045CAMACHO                    GUERRERO                   ARTURO                     00000000000000005102016     020000011089403  2                  9
Y605571210015008216978MARTINEZ                   PLIEGO                     RAUL                       00000000000000006102016     020000015157603  2                  9
Y605571210060149592838GUTIERREZ                  SILVA                      RUBY MONSERRAT             00000000000000006102016     020000015179003  2                  9
Y605571210082099221127CAB                        AGUILAR                    AARON ISAI                 00000000000000001102016     020000023029103  2                  9
Y605571210083139419341BERNARDO                   JIMENEZ                    MARIO ARTURO               00000000000000006102016     020000023032503  2                  9
Y605571210084139321370MARTIN                     POOL                       LILIA ESTHER               00000000000000001102016     020000023033703  2                  9
Y605571210023917469795LEON                       BRINGAS                    JOAQUIN ENRIQUE            00000000000000006102016     020000025006003  2                  9
