Y605571210045097104330MONTES                     DOMINGUEZ                  ESTELA                     00000000000000016012017     020000009549803  2                  9
Y605571210039117900736PEREZ                      GARCIA                     JOSE LUIS                  00000000000000014012017     020000009567003  2                  9
Y605571210009008445430ROBLES                     DEL ANGEL                  RUBICEL                    00000000000000016012017     020000009579003  2                  9
Y605571210020028406575LEAL                       OSORIO                     NESTOR ALEJANDRO           00000000000000015012017     020000009635203  2                  9
Y605571210011887028485LOPEZ                      TORRES                     MARTHA PATRICIA            00000000000000010012017     020000009636903  2                  9
Y605571210037987719517FLORES                     AGUILERA                   ORLANDO JAVIER             00000000000000016012017     020000009654403  2                  9
Y605571210045138915728MARTINEZ                   GARCIA                     VICTOR                     00000000000000012012017     020000009660203  2                  9
Y605571210045937642853LOPEZ                      MARTINEZ                   JOSE MIGUEL                00000000000000010012017     020000009668803  2                  9
Y605571210042876904014AGUILAR                    CARDENAS                   LUIS                       00000000000000012012017     020000009670503  2                  9
Y605571210048098902785CORREA                     GUZMAN                     VICTOR MANUEL              00000000000000016012017     020000009675403  2                  9
Y605571210012109139019ALVAREZ                    ORTEGA                     MARIO ALBERTO JORGE        00000000000000016012017     020000011091503  2                  9
Y605571210096058434687GARCIA                     DIAZ                       RUBEN                      00000000000000016012017     020000013016003  2                  9
Y605571210010149402587HERNANDEZ                  GUERRERO                   LUIS FERNANDO              00000000000000016012017     020000013016303  2                  9
Y605571210042038500155ROBERTO                    ARGUELLO                   CORAL                      00000000000000016012017     020000015167303  2                  9
Y605571210007129309089MARTINEZ                   NIEVES                     OCTAVIO ALBERTO            00000000000000016012017     020000015185103  2                  9
Y605571210043926642380MARTINEZ                   GARCIA                     VICTOR                     00000000000000014012017     020000019077403  2                  9
Y605571210043887127587DOMINGUEZ                  VILLARREAL                 MANUEL FRANCISCO           00000000000000016012017     020000019086603  2                  9
Y605571210047937565308CAVAZOS                    CARDENAS                   JUAN LUIS                  00000000000000016012017     020000019091803  2                  9
Y605571210043755848900LUPERCIO                   GONZALEZ                   NOE                        00000000000000016012017     020000019093103  2                  9
Y605571210032997918183SALAZAR                    PUENTE                     MOISES RIGOBERTO           00000000000000014012017     020000019098303  2                  9
Y605571210005158750629RODRIGUEZ                  CASTILLO                   MARISOL                    00000000000000016012017     020000022054503  2                  9
Y605571210023907022471HERNANDEZ                  DIAZ                       JOSE CANDELARIO            00000000000000016012017     020000025003103  2                  9
