Y605571210051137800879REYES                      VILLALOBOS                 ANA LUZ                    00000000000000026042016     020000001007703  2                  9
Y605571210042078806140DE LA ROSA                 ROSAS                      JOSE LUIS                  00000000000000021042016     020000009591403  2                  9
Y605571210096089100927DE LA CRUZ                 SALDIVAR                   ALBERTO                    00000000000000020042016     020000009592003  2                  9
Y605571210092048506742MARTINEZ                   MARTINEZ                   LUIS ALBERTO               00000000000000025042016     020000009608703  2                  9
Y605571210004896708577VALDIVIA                   MEJIA                      MARTIN                     00000000000000020042016     020000014095603  2                  9
Y605571210056957814397FIERROS                    VELAZQUEZ                  ALEJANDRO                  00000000000000020042016     020000014102903  2                  9
Y605571210025927556933GARCIA                     MUÒOZ                      SAUL ISAAC                 00000000000000020042016     020000014106603  2                  9
Y605571210004068764168OCHOA                      CHAVEZ                     ESTEBAN                    00000000000000020042016     020000014106903  2                  9
Y605571210056927265878GONZALEZ                   MELENDEZ                   GREGORIO                   00000000000000020042016     020000014107303  2                  9
Y605571210004088227220RAMIREZ                    PULIDO                     JORGE MIGUEL               00000000000000020042016     020000014107703  2                  9
Y605571210075927517187MAGALLON                   GOMEZ                      HECTOR FERNANDO            00000000000000020042016     020000014111303  2                  9
Y605571210030967808129GONZALEZ                   MONROY                     MARICARMEN                 00000000000000020042016     020000015170003  2                  9
Y605571210005169458147SILVA                      TORRES                     ANDREA GUADALUPE           00000000000000020042016     020000016005303  2                  9
Y605571210032089161460PEREZ                      ZU—IGA                     JUAN JESUS                 00000000000000020042016     020000019076103  2                  9
Y605571210065986707795SALINAS                    CASTILLO                   NAHU                       00000000000000021042016     020000020023703  2                  9
Y605571210014038405198AGUILAR                    PALACIOS                   LUIS ARMANDO               00000000000000025042016     020000022036103  2                  9
Y605571210014947133618CRUZ                       ARELLANO                   JOSE JESUS                 00000000000000022042016     020000022040203  2                  9
Y605571210013098903654LOPEZ                      HERNANDEZ                  JOSE DE JESUS              00000000000000022042016     020000022040503  2                  9
Y605571210014058649543SANCHEZ                    RIVERA                     JUAN ANTONIO               00000000000000025042016     020000022041803  2                  9
