R143868210327149290283GONZALEZ                   CARRILLO                   CESAR                      00000000000000010022017     020000014125203  2                  9
R143868210346169527952RAMIREZ                    NAVA                       AARON EZEQUIEL             00000000000000010022017     020000014125303  2                  9
R143868210334149704586CEBALLOS                   RODRIGUEZ                  MANUEL ALEJANDRO           00000000000000011022017     020000014125403  2                  9
R143868210363159873965ORTIZ                      SOLIS                      JOSE FERNANDO              00000000000000011022017     020000014125603  2                  9
