Y605571210067866757452ALEGRIA                    MATHEY                     CESAR                      00000000000000001022019     020000030134403  2                  9
Y605571210067967650366CUEVAS                     CARLOS                     DANIEL ALBERTO             00000000000000001022019     020000030134803  2                  9
Y605571210067785920967HUERVO                     HERNANDEZ                  PEDRO                      00000000000000001022019     020000030135103  2                  9
Y605571210067028306552MARTINEZ                   PALOMARES                  GUILLERMO                  00000000000000001022019     020000030135303  2                  9
