Y605571210042867019988CAMPOS                     SALINAS                    CLARA                      00000000000000005052016     020000009508803  2                  9
Y605571210017159723240FLORES                     GARCIA                     ANTHONY AXEL               00000000000000005052016     020000009599803  2                  9
Y605571210017169449885ROSAS                      FERNANDEZ                  VICTOR                     00000000000000005052016     020000009614503  2                  9
Y605571210012089006154GUTIERREZ                  LOPEZ                      GERARDO ENRIQUE            00000000000000005052016     020000011051903  2                  9
Y605571210012149703618JIMENEZ                    PATIÒO                     MAURICIO                   00000000000000005052016     020000011081703  2                  9
Y605571210092028005988ROMERO                     PEREZ                      MIGUEL ANGEL               00000000000000002052016     020000015097403  2                  9
Y605571210090896618569LOPEZ                      RAMIREZ                    ROSA MARIA                 00000000000000005052016     020000015151503  2                  9
Y605571210094988117241MARTINEZ                   BAUTISTA                   ALEXANDER                  00000000000000002052016     020000015167503  2                  9
Y605571210043109358861ALVAREZ                    MARTINEZ                   ABRAHAM                    00000000000000003052016     020000019076803  2                  9
Y605571210067107001124CHAMU                      PIOQUINTO                  BARTOLOME                  00000000000000002052016     020000022026203  2                  9
Y605571210003146800770FLORES                     DIAZ                       MARIA EUGENIA              00000000000000002052016     020000022026303  2                  9
