Y605571210009108717423SANTIAGO                   GARCIA                     ROSA MARIA                 00000000000000020122016     020000009626703  2                  9
Y605571210061917700710VAZQUEZ                    SANCHEZ                    QUIRINA                    00000000000000019122016     020000009628803  2                  9
Y605571210028109108598DOLORES                    GARCIA                     MARCO ANTONIO              00000000000000017122016     020000009636303  2                  9
Y605571210003168023202ROBLERO                    PEREZ                      OSIEL                      00000000000000020122016     020000009648003  2                  9
Y605571210045967811691PONCE                      HERNANDEZ                  GERARDO                    00000000000000019122016     020000009668303  2                  9
Y605571210012018039359REYES                      COLIN                      JOSE RICARDO               00000000000000019122016     020000015186303  2                  9
Y605571210053937662822GARCIA                     PULIDO                     DAVID                      00000000000000019122016     020000016003803  2                  9
Y605571210002167267109GOMEZ                      GOMEZ                      JULIO CESAR                00000000000000019122016     020000016007303  2                  9
Y605571210076159502426GAYTAN                     ALVARADO                   JOSE RAUL                  00000000000000018122016     020000016009203  2                  9
Y605571210047089029020TOBANCHE                   ACOSTA                     MARTIN GUADALUPE           00000000000000020122016     020000019095003  2                  9
Y605571210071968012220ESTRADA                    RODAS                      GERARDO                    00000000000000020122016     020000023036203  2                  9
Y605571210067917076373DOMINGUEZ                  CONTRERAS                  ZACARIAS                   00000000000000017122016     020000023038603  2                  9
Y605571210082068211257CRUZ                       GUZMAN                     CARLOS                     00000000000000018122016     020000023039603  2                  9
Y605571210082088968142CANDELERO                  CHICO                      LUIS ENRIQUE               00000000000000020122016     020000023039703  2                  9
Y605571210082008111260NAVARRETE                  ZETINA                     JAIME                      00000000000000020122016     020000023040203  2                  9
Y605571210009109110149URBINA                     VALLADARES                 FELIX JAVIER               00000000000000019122016     020000028017003  2                  9
Y605571210009095800323LUPERCIO                   VILLASEÑOR                 FRANCISCO MANUEL           00000000000000019122016     020000028036403  2                  9
Y605571210067057805268LEON                       ROQUE                      JORGE                      00000000000000020122016     020000030055903  2                  9
