Y605571210017149667168SOTO                       ARENAS                     ADRIAN                     00000000000000027062017     020000009680003  2                  9
Y605571210045907126770ALICEA                     LOPEZ                      OSCAR                      00000000000000028062017     020000009690603  2                  9
Y605571210003149309225MUÒOZ                      REYES                      RICARDO                    00000000000000027062017     020000009704603  2                  9
Y605571210014078957199AGUILAR                    ROBLES                     JOSE ALFREDO               00000000000000027062017     020000022062703  2                  9
Y605571210082139466062ORTIZ                      MORALES                    EULISES                    00000000000000024062017     020000023046103  2                  9
