A836767410950927535430ROQUE                      AGUIRRE                    ABEL GERARDO               00000000000000019052016     020000008001302  2                  9
A836767410933937671999ESTRADA                    AVALOS                     GAMALIEL HERIBERTO         00000000000000018052016     020000008038403  2                  9
A836767410933816080148MARTINEZ                   CHAIRES                    MARCO ANTONIO              00000000000000018052016     020000008043503  2                  9
