A836767410912705906258MARTINEZ                                              LUIS                       00000000000000005122016     020000008001703  2                  9
A836767410933866840847SANDOVAL                   HERNANDEZ                  GERARDO                    00000000000000003122016     020000008014503  2                  9
A836767410933866512685ASUA                       NUÑEZ                      JESUS                      00000000000000005122016     020000008038203  2                  9
A836767410950897256405HERRERA                    CONTRERAS                  ENRIQUE                    00000000000000005122016     020000008065603  2                  9
