A836767410921129394546PACHECO                    CORRALES                   REYNA ISABEL               00000000000000005052017     020000002051603  2                  9
A836767410921099264000GUZMAN                     CARRILLO                   ALEJANDRO                  00000000000000004052017     020000002052003  2                  9
A836767410921119205769MARTINEZ                   RAVELO                     CARLOS ALBERTO             00000000000000007052017     020000002052203  2                  9
A836767410923998308268SAÒUDO                     ZAVALA                     BEATRIZ SELENE             00000000000000008052017     020000002052403  2                  9
