Y462621510919149611691JARDINEZ                   ZAMBRANO                   ARMANDO GUSTAVO            00000000000000022032017     020000021129003  2                  9
Y462621510967058900902ROJAS                      GARCIA                     EMMANUEL                   00000000000000024032017     020000021148603  2                  9
Y462621510962786024778HERNANDEZ                  ABRAJAN                    JOSE                       00000000000000023032017     020000021164303  2                  9
Y462621510918159184912VALENCIA                   FLORES                     JHOAN ANGEL                00000000000000024032017     020000021165303  2                  9
Y462621510962907018758TLALMIS                    DOMINGUEZ                  MARIA DEL ROCIO            00000000000000023032017     020000021166603  2                  9
