Y702574710184047803774TEC                        TUYUB                      JOSE ENRIQUE               00000000000000005082016     020000031010103  2                  9
Y702574710125159567855HOIL                       PEÑA                       LUIS JADIEL                00000000000000005082016     020000031017003  2                  9
Y702574710182795902558CANTO                      PERAZA                     IRENE GRENDELINA           00000000000000005082016     020000031019103  2                  9
