Y605571210003148841822HERNANDEZ                  RICO                       JOSE FREDDY                00000000000000007052016     020000002027003  2                  9
Y605571210020917519272LOPEZ                      TIRADO                     MARICELA                   00000000000000007052016     020000002047603  2                  9
Y605571210021816104109MENDOZA                    ORTIZ                      JUAN ISIDRO                00000000000000007052016     020000002047703  2                  9
Y605571210019148598766ROSAS                      GONZALEZ                   EDUARDO                    00000000000000005052016     020000009542403  2                  9
Y605571210092896814578AMBROSIO                   ROBLES                     DELFINO                    00000000000000003052016     020000009582803  2                  9
Y605571210012119100761VELAZQUEZ                  CRUZ                       ANAHI                      00000000000000009052016     020000009606503  2                  9
Y605571210090108805624VALVERDE                   MORENO                     RAFAEL JONATHAN            00000000000000003052016     020000009611503  2                  9
Y605571210008159616229CADENA                     CASTILLO                   JOSE ALEJANDRO             00000000000000005052016     020000009614303  2                  9
Y605571210020988006001DURAN                      TORRES                     MIGUEL ANGEL               00000000000000005052016     020000009615703  2                  9
Y605571210012129565003MARTINEZ                   CASIQUE                    HERIBERTO                  00000000000000007052016     020000011079803  2                  9
Y605571210071129403003HERNANDEZ                  ARIAS                      LUIS FELIPE                00000000000000003052016     020000015158803  2                  9
Y605571210019806223046RUIZ                       MARTINEZ                   ROMULO                     00000000000000007052016     020000015162503  2                  9
Y605571210005907090871LOZADA                     LOPEZ                      CESAR EDUARDO              00000000000000006052016     020000015171403  2                  9
Y605571210043775821473CALVILLO                   VANEGAS                    DEMETRIO                   00000000000000006052016     020000019074103  2                  9
Y605571210003704910789IRACHETA                   RIVERA                     SALVADOR                   00000000000000006052016     020000019074303  2                  9
Y605571210003675125136SALDA—A                    CORTES                     SANTOS                     00000000000000006052016     020000019075103  2                  9
Y605571210003675125136SALDA—A                    CORTES                     SANTOS                     00000000000000006052016     020000019075103  2                  9
Y605571210043109428649LOPEZ                      CORONADO                   SERGIO DE JESUS            00000000000000003052016     020000019076903  2                  9
Y605571210065876934277VARGAS                     SANTIAGO                   HUGO                       00000000000000006052016     020000019077103  2                  9
Y605571210023027619537FLORES                     BURGOS                     BENIGNO                    00000000000000006052016     020000025001703  2                  9
Y605571210001786096279CONTRERAS                  JIMENEZ                    JAVIER                     00000000000000006052016     020000025001803  2                  9
Y605571210001786096279CONTRERAS                  JIMENEZ                    JAVIER                     00000000000000006052016     020000025001803  2                  9
Y605571210009987866663RIVAS                      RODRIGUEZ                  ROBERTO                    00000000000000008052016     020000028031203  2                  9
Y605571210003147824597LARA                       MUÒOZ                      FRANCISCO                  00000000000000005052016     020000030087903  2                  9
Y605571210002169218829GARCIA                     ABURTO                     SANDRA RUBI                00000000000000005052016     020000030104603  2                  9
Y605571210045936607444CHAGA                      MERLIN                     FRANCISCO                  00000000000000005052016     020000030107103  2                  9
Y605571210065089206083HERNANDEZ                  MORALES                    MARIA DE LOS ANGELES       00000000000000005052016     020000030110403  2                  9
Y605571210065066902787DOMINGUEZ                  FALFAN                     ARTURO                     00000000000000005052016     020000030111103  2                  9
Y605571210065118825267ACOSTA                     MOTA                       SERGIO                     00000000000000005052016     020000030111203  2                  9
Y605571210065109236599ZAVALA                     VARGAS                     BLANCA SARAHI              00000000000000005052016     020000030113603  2                  9
