Y605571210039119304390VILLEDA                    HERNANDEZ                  DANIEL AVINADI             00000000000000016052016     020000009552103  2                  9
Y605571210098129311829ANTONIO                    HOMOBONO                   ADRIAN                     00000000000000016052016     020000009570003  2                  9
Y605571210045098835981DOMINGO                    DAMASO                     PEDRO                      00000000000000016052016     020000009574203  2                  9
Y605571210030129413735MENCHACA                   RAZO                       JESUS                      00000000000000013052016     020000009611903  2                  9
Y605571210082139501546LLANO                      MEZA                       DIEGO                      00000000000000013052016     020000009615003  2                  9
Y605571210072058613372TORRES                     CARRANZA                   BLANCA NIEVES              00000000000000007052016     020000009615403  2                  9
Y605571210072058613372TORRES                     CARRANZA                   BLANCA NIEVES              00000000000000007052016     020000009615403  2                  9
Y605571210008169381038VELAZQUEZ                  PEÒUELAS                   JORGE ALBERTO              00000000000000016052016     020000011082803  2                  9
Y605571210092108305837RAMIREZ                    MORAN                      HUGO ADRIAN                00000000000000012052016     020000015001702  2                  9
Y605571210058159749926TOME                       OSORIO                     LUIS RICARDO               00000000000000015052016     020000015154203  2                  9
Y605571210016927556932BERNAL                     VIVANCO                    JOSE LUIS                  00000000000000016052016     020000015172203  2                  9
Y605571210053048817190CARDONA                    RAZO                       JOSE ALFREDO               00000000000000012052016     020000016004003  2                  9
Y605571210078996100737NOLASCO                    X                          MARCOLINO                  00000000000000015052016     020000020020403  2                  9
Y605571210004996708170TORRES                     RAMIREZ                    MARTIN                     00000000000000010052016     020000022039903  2                  9
Y605571210010169617494RODRIGUEZ                  NAVA                       PABLO                      00000000000000016052016     020000022041403  2                  9
Y605571210066159661777BAXIN                      PEREZ                      MARIANO                    00000000000000016052016     020000022042403  2                  9
Y605571210092088953226DOMINGUEZ                  LERDO                      ANDRES                     00000000000000016052016     020000022043203  2                  9
Y605571210092109407913SANTOS                     MIL                        ANTONIO                    00000000000000016052016     020000022043303  2                  9
Y605571210092895901947GONZALEZ                   CHAVEZ                     LUCAS ANTONIO              00000000000000016052016     020000022043403  2                  9
Y605571210009089007067ANOTA                      XOLO                       ULISES                     00000000000000016052016     020000022043603  2                  9
Y605571210002159394069POOL                       CANCHE                     INGRID MARIBEL             00000000000000016052016     020000023026003  2                  9
Y605571210082139418261PECH                       UC                         HENRY MARTIN               00000000000000016052016     020000023026903  2                  9
Y605571210013169119016RAMIREZ                    LOPEZ                      GUSTAVO                    00000000000000016052016     020000023027203  2                  9
Y605571210083099111383GARCIA                     GOMEZ                      LUIS MANUEL                00000000000000014052016     020000028030703  2                  9
