R143868210375058819378GUTIERREZ                  LOPEZ                      SINHUE VICENTE             00000000000000028062016     020000014105903  2                  9
R143868210304987842921RIVERA                     GARCIA                     JOSE                       00000000000000028062016     020000014114003  2                  9
R143868210304038485159GUZMAN                     LOPEZ                      JUAN JOSE                  00000000000000028062016     020000014116303  2                  9
