Y462621510948138101497JIMENEZ                    MARTINEZ                   JOSE ELOY                  00000000000000019042016     020000021135303  2                  9
Y462621510948098925026SARMIENTO                  LOPEZ                      RAFAEL                     00000000000000018042016     020000021140203  2                  9
Y462621510902169762099CAPILLA                    CAPILLA                    SERGIO                     00000000000000021042016     020000021147003  2                  9
