Y605571210025887064431LOPEZ                      CASTRO                     LUIS ADOLFO                00000000000000011102016     020000002051103  2                  9
Y605571210058169839261NAVARRO                    RUIZ                       CHRISTIAN JAVIER           00000000000000011102016     020000002051203  2                  9
Y605571210011977843835ANGELES                    MENDEZ                     NOE                        00000000000000010102016     020000009640303  2                  9
Y605571210096129315501NAVA                       GARCIA                     KEVIN MICHAEL              00000000000000007102016     020000009648303  2                  9
Y605571210012896705386ALARCON                    ZENDEJAS                   FRANCISCO                  00000000000000009102016     020000011088803  2                  9
Y605571210012976113816LOPEZ                      TORRES                     JUAN                       00000000000000011102016     020000011089303  2                  9
Y605571210075078958826ZARAGOZA                   BERNACHE                   EDGAR                      00000000000000011102016     020000014112403  2                  9
Y605571210014099413289SANCHEZ                    PINEDA                     DIANA LAURA                00000000000000011102016     020000022001702  2                  9
