Y605571210071018001967LOPEZ                      PEREZ                      MARIA DEL ROSARIO          00000000000000019052017     020000007017503  2                  9
Y605571210020109304210ZEPEDA                     PUEBLA                     OMAR                       00000000000000019052017     020000009648603  2                  9
Y605571210001866635061OLMOS                      HERNANDEZ                  JUAN CARLOS                00000000000000017052017     020000009682603  2                  9
Y605571210028089202163MARTINEZ                   PERALTA                    MIGUEL ANGEL               00000000000000019052017     020000009702303  2                  9
Y605571210006169877591AGUILAR                    MARTINEZ                   EMMANUEL                   00000000000000019052017     020000015196003  2                  9
Y605571210094028317900MARTINEZ                   TORRES                     MARIO                      00000000000000019052017     020000015200403  2                  9
Y605571210016028507594MARIN                      MERCADO                    KARINA                     00000000000000019052017     020000015203203  2                  9
Y605571210010179853311MIRANDA                    CRUZ                       VANESSA CITLALI            00000000000000019052017     020000015203503  2                  9
Y605571210043008313009DURAN                      ARREDONDO                  DAVID                      00000000000000019052017     020000019094403  2                  9
Y605571210003158651814GONZALEZ                   FLORES                     SILVINA                    00000000000000019052017     020000019095303  2                  9
Y605571210009038110525RIOS                       HERNANDEZ                  MATUSALEM                  00000000000000019052017     020000019100703  2                  9
Y605571210067089017213TOLEDO                     SOTO                       FREDDY                     00000000000000019052017     020000019106903  2                  9
Y605571210002155701374ADORNO                     BAUTISTA                   BARTOLO                    00000000000000019052017     020000019111103  2                  9
Y605571210043058526112DELGADO                    ALFARO                     JOSE ARIEL                 00000000000000015052017     020000019112403  2                  9
Y605571210043867052060SEPULVEDA                  CHAVEZ                     RUBEN                      00000000000000017052017     020000019112903  2                  9
Y605571210083008124287RODRIGUEZ                  GUZMAN                     BARTOLO                    00000000000000019052017     020000027059303  2                  9
Y605571210009079211141ARMENDARIZ                 ALMAGUER                   CHRISTIAN ALEJANDRO        00000000000000019052017     020000028041003  2                  9
Y605571210006786216447ALONSO                     ORDAZ                      IGNACIO                    00000000000000018052017     020000030142903  2                  9
Y605571210065856902963CALLEJAS                   CEBALLOS                   JOSE LUIS                  00000000000000019052017     020000030147503  2                  9
