Y605571210081138804026VARGAS                     VARGAS                     VERONICA                   00000000000000002122016     020000004007603  2                  9
Y605571210076916400625CORONA                     PEREZ                      MARCO ANTONIO              00000000000000005122016     020000009040502  2                  9
Y605571210019159838481VARGAS                     MARTINEZ                   ARTURO JORDI               00000000000000004122016     020000009632903  2                  9
Y605571210011887028485LOPEZ                      TORRES                     MARTHA PATRICIA            00000000000000004122016     020000009636903  2                  9
Y605571210010149638495LEOCADIO                   GARCIA                     JORGE                      00000000000000005122016     020000009643903  2                  9
Y605571210020109304210ZEPEDA                     PUEBLA                     OMAR                       00000000000000005122016     020000009648603  2                  9
Y605571210092129421308GARCIA                     RIVERA                     JESUS                      00000000000000005122016     020000009659003  2                  9
Y605571210042119100859MORALES                    RAMIREZ                    MARIO ENRIQUE              00000000000000005122016     020000009664603  2                  9
Y605571210005159291789ESPINOSA                   RESENDIZ                   KARINA                     00000000000000003122016     020000015002302  2                  9
Y605571210001856755960MARIN                      PINEDO                     DAVID CRISTOBAL            00000000000000005122016     020000015123703  2                  9
Y605571210010149521170VARGAS                     TORRES                     MARIO ISMAEL               00000000000000005122016     020000019093403  2                  9
Y605571210014957722748LOPEZ                      ROJAS                      JOSE GUADALUPE             00000000000000004122016     020000022052903  2                  9
Y605571210023977704446RODELA                     MOLINA                     SALVADOR                   00000000000000005122016     020000025009903  2                  9
Y605571210023068970013ARIAS                      MENDOZA                    JOSE LUIS                  00000000000000005122016     020000025010803  2                  9
Y605571210049978147780SERNA                      INFANTE                    NESTOR DANIEL              00000000000000004122016     020000028035103  2                  9
Y605571210049856814345RODRIGUEZ                  CASTAÒON                   JUAN                       00000000000000004122016     020000028036603  2                  9
Y605571210033987001865DELFIN                     COLINA                     JULIO                      00000000000000005122016     020000030065503  2                  9
Y605571210026169583122MARCIAL                    ROMAN                      JUAN CARLOS                00000000000000003122016     020000030119603  2                  9
Y605571210071896850550VILLATORO                  VAZQUEZ                    JOSE LUIS                  00000000000000003122016     020000030120403  2                  9
Y605571210004089141396VARGAS                     SAAVEDRA                   JOSE REYES                 00000000000000002122016     020000032000203  2                  9
Y605571210034139012297SAUCEDO                    MARTINEZ                   URIEL                      00000000000000002122016     020000032001203  2                  9
