Y605571210096136902424CAMPOS                     HERNANDEZ                  ROBERTO                    00000000000000024062016     020000009424403  2                  9
Y605571210096916713389AYALA                      SANDOVAL                   RAFAEL                     00000000000000024062016     020000009524103  2                  9
Y605571210002156614550CORTES                     CARDENAS                   ABEL                       00000000000000021062016     020000009602603  2                  9
Y605571210096018232692DIAZ                       CARDENAS                   JUAN MANUEL                00000000000000024062016     020000009620003  2                  9
Y605571210054169764286GARCIA                     GARCIA                     OTTONIEL                   00000000000000024062016     020000009621203  2                  9
Y605571210039977735172RODRIGUEZ                  GONZALEZ                   MOISES                     00000000000000024062016     020000015176303  2                  9
Y605571210083139427963CHABLE                     SANCHEZ                    EDWIN ALBERTO              00000000000000021062016     020000023028503  2                  9
Y605571210083139427963CHABLE                     SANCHEZ                    EDWIN ALBERTO              00000000000000021062016     020000023028503  2                  9
Y605571210082109018943VILLANUEVA                 CAMBRANES                  SERGIO GUILLERMO           00000000000000020062016     020000023028703  2                  9
Y605571210082109018943VILLANUEVA                 CAMBRANES                  SERGIO GUILLERMO           00000000000000020062016     020000023028703  2                  9
Y605571210082099203984BAEZA                      SERRALTA                   WILBERT CRISTIANI          00000000000000021062016     020000023029203  2                  9
Y605571210082099203984BAEZA                      SERRALTA                   WILBERT CRISTIANI          00000000000000021062016     020000023029203  2                  9
Y605571210071109137936MENDOZA                    LUNA                       JUAN LEONARDO              00000000000000024062016     020000030115003  2                  9
