R143868210314988154259UGALDE                     TORRES                     FERNANDO                   00000000000000020102016     020000014002202  2                  9
R143868210325149155860ALVAREZ                    MORALES                    DIEGO                      00000000000000019102016     020000014002302  2                  9
R143868210304128964493GOMEZ                      SANDOVAL                   MIGUEL ANGEL               00000000000000019102016     020000014121503  2                  9
R143868210304058728132PIÒON                      RAMIREZ                    MIGUEL                     00000000000000020102016     020000014122203  2                  9
