Y605571210042846527010MARTINEZ                   CHAVEZ                     SERGIO                     00000000000000011042017     020000009660703  2                  9
Y605571210083088708314CHABLE                     HERNANDEZ                  PEDRO                      00000000000000012042017     020000027060003  2                  9
Y605571210065099220785CAMPOS                     CASANOVA                   EDGAR IVAN                 00000000000000008042017     020000028040903  2                  9
