R143868210331927551312NUÒEZ                      SOTO                       JUAN CARLOS                00000000000000016082016     020000014099503  2                  9
R143868210304048465688GUTIERREZ                  CABRERA                    ROSA SOLEDAD DE JESUS      00000000000000017082016     020000014109003  2                  9
R143868210354008115617MARTINEZ                   AGUILAR                    MARCO ANTONIO              00000000000000017082016     020000014118203  2                  9
R143868210375018212391FLORES                     LOPEZ                      DANIEL                     00000000000000017082016     020000014118803  2                  9
R143868210375988094308ROSALES                    JUAREZ                     ROCIO DE JESUS             00000000000000017082016     020000014119203  2                  9
