Y605571210071118708164AGUILAR                    HERNANDEZ                  EDUARDO JAVIER             00000000000000020072017     020000007016503  2                  9
Y605571210094937511890MARTINEZ                   CAMACHO                    LUCIO                      00000000000000015072017     020000009709103  2                  9
Y605571210096139458390HERNANDEZ                  RAMOS                      JESUS URIEL                00000000000000019072017     020000009719503  2                  9
Y605571210016066300639SANCHEZ                    RUFINO                     AGUSTINA                   00000000000000018072017     020000015202503  2                  9
Y605571210035159758636ANTONIO                    FLORES                     ALEJANDRO                  00000000000000016072017     020000015208103  2                  9
Y605571210049906935900PEREZ                      TRISTAN                    ANA LAURA                  00000000000000020072017     020000019096303  2                  9
Y605571210009968031196CARRANZA                   MESTA                      JUAN ANGEL                 00000000000000020072017     020000019117903  2                  9
Y605571210062159755362VAZQUEZ                    LOPEZ                      IMELDA                     00000000000000019072017     020000023047303  2                  9
Y605571210023059006934CASTRO                     ORDUÒO                     GERARDO                    00000000000000020072017     020000025017803  2                  9
