R143868210349149684018SORIA                      SANTILLAN                  JOSE MARCOS                00000000000000005072016     020000014103003  2                  9
R143868210304887160952TOVAR                      GARCIA                     JULIO ANTONIO              00000000000000011072016     020000014105603  2                  9
R143868210304129596385RUIZ                       PATIÒO                     SERGIO ALFONSO             00000000000000007072016     020000014109903  2                  9
R143868210304058898794GUERRERO                   DOMINGUEZ                  ARMANDO                    00000000000000010072016     020000014112103  2                  9
