Y605571210046159559072SANTIZ                     SANTIZ                     BENJAMIN                   00000000000000026102016     020000007013403  2                  9
Y605571210071108919714GOMEZ                      SANTIZ                     AURELIO                    00000000000000026102016     020000007014603  2                  9
Y605571210035169501984GIRON                      GOMEZ                      JOSE MANUEL                00000000000000026102016     020000007015903  2                  9
Y605571210053997307128PEREZ                      VARGAS                     CUAUHTEMOC                 00000000000000027102016     020000016008803  2                  9
Y605571210019159402825SILVA                      DE LA ROSA                 JOSE ANGEL                 00000000000000027102016     020000016009003  2                  9
Y605571210082078864939GATICA                     PALMA                      IRVING MANUEL              00000000000000021102016     020000023033603  2                  9
Y605571210083998206201PALACIOS                   HERNANDEZ                  ARMANDO ARTURO             00000000000000021102016     020000023034303  2                  9
Y605571210082129510473AKE                        MAY                        JORGE ALEJANDRO            00000000000000026102016     020000023034803  2                  9
Y605571210071008002645LOPEZ                      SANTIAGO                   ADELINA GUADALUPE          00000000000000026102016     020000027058603  2                  9
Y605571210034089011034AVILA                      RODRIGUEZ                  ERICK                      00000000000000027102016     020000032000403  2                  9
