Y605571210051038608553DIAZ                       REVELES                    OSVALDO ABEL               00000000000000029052017     020000001009403  2                  9
Y605571210042017808686ESPINOZA                   RODRIGUEZ                  FELIX CESAR                00000000000000029052017     020000009474203  2                  9
Y605571210090139014501MONTES                     LOPEZ                      CARLOS IVAN                00000000000000031052017     020000009707903  2                  9
Y605571210026149464187RIVERA                     SANZORES                   JEEFERSON                  00000000000000031052017     020000009708703  2                  9
Y605571210017846206831SANCHEZ                    RAMIREZ                    MARIANO                    00000000000000030052017     020000009709003  2                  9
Y605571210092079103161SANCHEZ                    CASTRO                     CLAUDIA                    00000000000000031052017     020000015194803  2                  9
Y605571210030007612572RIOS                       ESPINOSA                   IMELDA                     00000000000000028052017     020000015207203  2                  9
Y605571210093119326929ALONSO                     ALDANA                     VICTOR ALFONSO             00000000000000030052017     020000015210803  2                  9
Y605571210002176127278MARTINEZ                   REYES                      JUAN MANUEL                00000000000000028052017     020000016011403  2                  9
Y605571210043129623385ORTIZ                      DIAZ                       MIGUEL ANGEL               00000000000000030052017     020000019107703  2                  9
Y605571210014119322148PEREZ                      MELO                       LUIS ENRIQUE               00000000000000031052017     020000022045703  2                  9
Y605571210013857006640ROJO                       HERNANDEZ                  VERONICA                   00000000000000031052017     020000022052703  2                  9
Y605571210020978111704PEREZ                      VILLALOBOS                 EDUARDO                    00000000000000031052017     020000022061403  2                  9
