Y605571210005159706745ZUÑIGA                     MOLINERO                   ROGELIO                    00000000000000019052016     020000009592203  2                  9
Y605571210016077603914MORALES                    ALBARRAN                   MONICA                     00000000000000020052016     020000015168203  2                  9
Y605571210039109010304SANCHEZ                    VAZQUEZ                    EDUARDO                    00000000000000020052016     020000015170903  2                  9
Y605571210069149630340MOLINA                     MEDINA                     MIGUEL ANGEL               00000000000000020052016     020000015172503  2                  9
