Y605571210001916904558PEREZ                      GARCIA                     MARVIN ORLANDO             00000000000000026012017     020000009641703  2                  9
Y605571210027149413265GARIBAY                    SANCHEZ                    ERICK SIMPLICIO            00000000000000023012017     020000009644103  2                  9
Y605571210085169803542GARCIA                     GARCIA                     YIBRAN CESAR               00000000000000024012017     020000009650503  2                  9
Y605571210011018321213LINARES                    SANCHEZ                    CRISTIAN ALEXANDER         00000000000000026012017     020000009652203  2                  9
Y605571210092978064159ALDACO                     MOSQUEDA                   ESPERANZA                  00000000000000024012017     020000015189003  2                  9
Y605571210003927368658MARTINEZ                   ROSALES                    JUAN ALBERTO               00000000000000026012017     020000019099803  2                  9
Y605571210068149572973AVALOS                     GARCIA                     RUBI ALEJANDRA             00000000000000026012017     020000019099903  2                  9
Y605571210013927405855TORRES                     ROJAS                      GUILLERMO                  00000000000000025012017     020000022055703  2                  9
