Y605571210002179643156VALENCIA                   CHAN                       JESUS GABRIEL              00000000000000004042017     020000004010603  2                  9
Y605571210003168321325CASTRO                     QUIÒONES                   DANIEL                     00000000000000004042017     020000005012103  2                  9
Y605571210096876825637RAMIREZ                    QUIROZ                     ELEAZAR                    00000000000000004042017     020000009619203  2                  9
Y605571210096099300574BUENDIA                    AGUILAR                    RAYMUNDO RODRIGO           00000000000000004042017     020000009668203  2                  9
Y605571210045129250002CRUZ                       DELGADILLO                 BRENDA LILIANA             00000000000000004042017     020000009678003  2                  9
Y605571210073159706362VIZCAINO                   MENDOZA                    MIGUEL ANGEL               00000000000000004042017     020000009682903  2                  9
Y605571210001018305902MEJIA                      SOTELO                     JOSE ERNESTO               00000000000000004042017     020000009685303  2                  9
Y605571210092897059116LOMELI                     RAMIREZ                    MIGUEL ANGEL               00000000000000004042017     020000009686203  2                  9
Y605571210096048300717CARRE—O                    TOVAR                      ALBERTO GUADALUPE          00000000000000004042017     020000009686503  2                  9
Y605571210094139609120MONJE                      HERNANDEZ                  FRANCISCO JAVIER           00000000000000003042017     020000009689803  2                  9
Y605571210005179512065VIZCAINO                   MENDOZA                    YEYETZI LIZBETH            00000000000000004042017     020000009690703  2                  9
Y605571210031129427709FERNANDEZ                  CHAVEZ                     JUAN                       00000000000000004042017     020000010000303  2                  9
Y605571210031947565052SEVILLA                    PEREYRA                    JOSE ALFREDO               00000000000000004042017     020000010000503  2                  9
Y605571210092089008541ESTRADA                    RIVERA                     PAUL                       00000000000000004042017     020000015188603  2                  9
Y605571210092977963591SOLANO                     RUIZ                       ALFREDO                    00000000000000004042017     020000015197503  2                  9
Y605571210094007302642RODRIGUEZ                  MIRANDA                    SANTOS APOLONIA            00000000000000004042017     020000015198603  2                  9
Y605571210010169353777VILLALVA                   FELIPE                     JESUS                      00000000000000004042017     020000015200203  2                  9
Y605571210032089161460PEREZ                      ZU—IGA                     JUAN JESUS                 00000000000000004042017     020000019076103  2                  9
Y605571210002157705282HERNANDEZ                  RAMOS                      ADRIANA ARACELI            00000000000000004042017     020000019091003  2                  9
Y605571210067947692322AMBROSIO                   CAMPECHANO                 JOSE GUADALUPE             00000000000000004042017     020000019092603  2                  9
Y605571210043857025597MARTINEZ                   MEDINA                     JUAN                       00000000000000004042017     020000019093703  2                  9
Y605571210009119303015CERVANTES                  MONTOYA                    JOSE ARMANDO               00000000000000004042017     020000019105103  2                  9
Y605571210071088721825DE LA CRUZ                 MEJIA                      CARLOS                     00000000000000004042017     020000022053603  2                  9
Y605571210014997304325ANACLETO                   JERONIMO                   CANDIDO                    00000000000000004042017     020000022054003  2                  9
Y605571210014008001399CONTRERAS                  LOPEZ VELARDE              OSCAR                      00000000000000004042017     020000022058903  2                  9
Y605571210014137000627GONZALEZ                   MIRANDA                    BERNARDO                   00000000000000004042017     020000022060103  2                  9
Y605571210014078830917QUEZADA                    RIVERA                     FRANCISCO JAVIER           00000000000000004042017     020000022060203  2                  9
Y605571210023886200585BEJARANO                   SILVAS                     JOSE JESUS                 00000000000000004042017     020000025014803  2                  9
Y605571210062149439044CRUZ                       LOPEZ                      CONRADO                    00000000000000004042017     020000027052303  2                  9
Y605571210067119335031VAZQUEZ                    PIMENTEL                   OSCAR                      00000000000000003042017     020000030123203  2                  9
Y605571210038159688779ISIDORO                    VILLEGAS                   GEOVANNY                   00000000000000003042017     020000030140603  2                  9
Y605571210067048510233CRUZ                       REYES                      ABRAHAM                    00000000000000003042017     020000030140903  2                  9
Y605571210067129305982CRUZ                       JIMENEZ                    JOSE ROBERTO               00000000000000003042017     020000030141103  2                  9
Y605571210067977901569SANCHEZ                    POCEROS                    ALFREDO                    00000000000000003042017     020000030141803  2                  9
Y605571210067109209675TRINIDAD                   PEREZ                      MOISES GUSTAVO             00000000000000003042017     020000030143703  2                  9
Y605571210065129244219HERNANDEZ                  LEAL                       CARLOS ALBERTO             00000000000000004042017     020000030144103  2                  9
Y605571210002179558008BERNAL                     DURAN                      JESUS BRAHYAN              00000000000000004042017     020000030144203  2                  9
Y605571210067917106238RODRIGUEZ                  PANTOJA                    ADRIAN                     00000000000000003042017     020000030144603  2                  9
