Y605571210020048503781CRUZ                       SANCHEZ                    JOSE                       00000000000000006012017     020000009609803  2                  9
Y605571210030109200383NAVARRETE                  ANDRADE                    LUIS ERNESTO               00000000000000002012017     020000009637903  2                  9
Y605571210030078714794NAVARRETE                  ANDRADE                    ANALLELY MARISOL           00000000000000006012017     020000009638003  2                  9
Y605571210017836608475VIDALES                    GUTIERREZ                  LETICIA                    00000000000000006012017     020000009672303  2                  9
Y605571210092088815573NIÒO                       GARCIA                     EFRAIN                     00000000000000006012017     020000015182103  2                  9
Y605571210021008239291NUCAMENDI                  RUIZ                       JOSE LUIS                  00000000000000006012017     020000019090203  2                  9
Y605571210043977947159GUERRERO                   HERNANDEZ                  JUAN FRANCISCO             00000000000000006012017     020000019094303  2                  9
Y605571210043877064220MARTINEZ                   GALLEGOS                   FRANCISCO JAVIER           00000000000000006012017     020000019097403  2                  9
Y605571210014866817803SANCHEZ                    RESENDIZ                   SANTIAGO                   00000000000000004012017     020000022047303  2                  9
Y605571210014997304325ANACLETO                   JERONIMO                   CANDIDO                    00000000000000004012017     020000022054003  2                  9
