Y605571210007876934394CABELLERO                  CELIS                      ANDRES                     00000000000000022032017     020000009687803  2                  9
Y605571210005179600720ALBINO                     LUCIANO                    MARTIN URIEL               00000000000000028032017     020000009689703  2                  9
Y605571210095119301109MARTINEZ                   ROSAS                      GERARDO                    00000000000000027032017     020000015196303  2                  9
Y605571210092109127404HERNANDEZ                  ZAVALA                     VICTOR                     00000000000000027032017     020000015199203  2                  9
Y605571210094926401293GARCIA                     SANTIAGO                   BASILIA                    00000000000000028032017     020000015199303  2                  9
Y605571210065926971543SANTOS                     MARTINEZ                   MIGUEL MOISES              00000000000000027032017     020000023041803  2                  9
