Y462621510962977703016SALAS                      URIBE                      NARCISO                    00000000000000022122016     020000021122103  2                  9
Y462621510948109265503SOLIS                      CAJAS                      MARCO ANTONIO              00000000000000022122016     020000021142503  2                  9
Y462621510910169708467BERNABE                    HERNANDEZ                  JUAN MANUEL                00000000000000021122016     020000021153003  2                  9
