A836767410971008404668ESTRADA                    DIAZ                       DIDIER                     00000000000000020062017     020000002056503  2                  9
A836767410933845831453NAVARRETE                  TARIN                      ESTEVAN                    00000000000000020062017     020000008070103  2                  9
A836767410962149601924ORTIZ                      MARTINEZ                   JULIO GUADALUPE            00000000000000020062017     020000008074903  2                  9
A836767410950887151095CHAVEZ                     REYES                      JOSE DE LA LUZ             00000000000000020062017     020000008075303  2                  9
A836767410933058952483VALVERDE                   CASTILLO                   JULIO CESAR                00000000000000020062017     020000008075503  2                  9
A836767410926169536203RAMIREZ                    MARTINEZ                   JESUS EDUARDO              00000000000000020062017     020000008075603  2                  9
A836767410933119448943RUIZ                       ASTORGA                    LUIS CARLOS                00000000000000020062017     020000008075803  2                  9
