Y605571210045109232061ZAVALA                     CASTILLO                   MIGUEL ANGEL               00000000000000006052017     020000009537203  2                  9
Y605571210028927400227FLORES                     ALVA                       JESUS CARLOS               00000000000000002052017     020000009676203  2                  9
Y605571210017179897107TORRES                     DIAZ                       ANDRES MICHELL             00000000000000006052017     020000009696703  2                  9
Y605571210045139546449TAPIA                      BECERRA                    DANIEL                     00000000000000004052017     020000009699103  2                  9
Y605571210094897144690RAMIREZ                    BRAVO                      JOSE EDUARDO               00000000000000005052017     020000009699203  2                  9
Y605571210054169816847RAMIREZ                    ESPINOZA                   JULIO CESAR                00000000000000008052017     020000009700803  2                  9
Y605571210061937414334BECERRA                    ORTIZ                      RAQUEL                     00000000000000008052017     020000009702203  2                  9
Y605571210002179475559CARRILLO                   HERNANDEZ                  DANIELA                    00000000000000008052017     020000015192203  2                  9
Y605571210016099312445HUERTA                     CESAR                      JOSE ANTONIO               00000000000000006052017     020000015204703  2                  9
Y605571210031129718313DIAZ                       HERNANDEZ                  PEDRO ADOLFO               00000000000000008052017     020000019111203  2                  9
Y605571210014826305568GARCIA                     ARTEAGA                    SERGIO                     00000000000000004052017     020000022000203  2                  9
Y605571210014099351604GARCIA                     SANCHEZ                    JESUS EMMANUEL             00000000000000005052017     020000022002102  2                  9
Y605571210023876508369BERNAL                     BELTRAN                    ERNESTO                    00000000000000008052017     020000025015303  2                  9
Y605571210057927665075DELGADO                    VEGA                       JESUS ANTONIO              00000000000000008052017     020000025015403  2                  9
Y605571210009128605459VILLA                      TEJERO                     MIGUEL ANGEL               00000000000000008052017     020000027061103  2                  9
Y605571210057159664929HERNANDEZ                  CAMPOS                     JUAN ANTONIO               00000000000000008052017     020000030140103  2                  9
Y605571210025159239604FLORES                     TRINIDAD                   RUBEN                      00000000000000008052017     020000030147203  2                  9
