R143868210304108533805LOZANO                     VAZQUEZ                    JOSE MANUEL                00000000000000022082017     020000014131603  2                  9
R143868210375119407049MONCADA                    MACIAS                     SERGIO ALBERTO             00000000000000022082017     020000014135503  2                  9
R143868210358169718309CASTAÑEDA                  MATA                       BRYAN JOAQUIN              00000000000000022082017     020000014136703  2                  9
R143868210333988095551VARGAS                     RICO                       JESUS ELIAS                00000000000000022082017     020000014136803  2                  9
