Y605571210045038502881VALLEJO                    LOPEZ                      RAFAEL ALEJANDRO           00000000000000012072017     020000009529503  2                  9
Y605571210067988100441BAUTISTA                   GARCIA                     ALICIA                     00000000000000006072017     020000009588903  2                  9
Y605571210096089111510PEREZ                      HERNANDEZ                  MARIO ANTONIO              00000000000000012072017     020000009610803  2                  9
Y605571210010179747968MARTINEZ                   PERALTA                    ENRIQUE                    00000000000000012072017     020000009700203  2                  9
Y605571210002156459113VILLEDA                    BONILLA                    MARIA ISABEL               00000000000000012072017     020000009704703  2                  9
Y605571210037946100072NAVA                       GUZMAN                     MARIA GUADALUPE            00000000000000012072017     020000009707003  2                  9
Y605571210046169867168NIÒO                       SANTIAGO                   LEONARDO                   00000000000000012072017     020000009715903  2                  9
Y605571210030987817605ALVAREZ                    HERNANDEZ                  ERIKA MIREYA               00000000000000012072017     020000009717003  2                  9
Y605571210016129251274DE LA CRUZ                 ROMERO                     JOSE EDUARDO               00000000000000010072017     020000015205403  2                  9
Y605571210090887027861AVELAR                     GUTIERREZ                  MARIA GUADALUPE            00000000000000012072017     020000015214303  2                  9
Y605571210014128913465ROSAS                      CABALLERO                  NOE                        00000000000000010072017     020000022055103  2                  9
Y605571210083048540666MORALES                    GONZALEZ                   CONCEPCION                 00000000000000009072017     020000022064103  2                  9
