Y605571210071098007595RUIZ                       SANTIAGO                   ADELA DEL RAYO             00000000000000017052017     020000007018803  2                  9
Y605571210096109034528ARTEAGA                    LOPEZ                      JESUS EDER                 00000000000000016052017     020000009033702  2                  9
Y605571210010836223890RUIZ                       BERNAL                     GERARDO ROBERTO            00000000000000017052017     020000009570903  2                  9
Y605571210004169709955ORTIZ                      LIMA                       CESAR ADAN                 00000000000000015052017     020000009634603  2                  9
Y605571210065109309297GOMEZ                      ESCAMILLA                  FAUSTINO                   00000000000000017052017     020000009672203  2                  9
Y605571210045047605196GOMEZ                      CARMONA                    LUCILA                     00000000000000015052017     020000009685403  2                  9
Y605571210094119294836ALVAREZ                    ESTRELLA                   ALEXIS ARTURO              00000000000000016052017     020000009685803  2                  9
Y605571210018169246727DIAZ                       NICOLAS                    KAREN TATIANA              00000000000000017052017     020000009691903  2                  9
Y605571210039998301442SALDIVAR                   MARTINEZ                   VICTOR                     00000000000000014052017     020000009697003  2                  9
Y605571210045089113273LARIOS                     OLVERA                     NORMA ELIZA                00000000000000011052017     020000009697103  2                  9
Y605571210084907252443YAH                        KOYOC                      MOISES                     00000000000000014052017     020000009697703  2                  9
Y605571210096088947013OLGUIN                     AVELAR                     MARTIN                     00000000000000012052017     020000009698903  2                  9
Y605571210045119105018RIVERA                     MUÑOZ                      GABRIELA ANAI              00000000000000016052017     020000009702003  2                  9
Y605571210045058819462ARANDIA                    RIVERA                     JORGE ALBERTO              00000000000000015052017     020000009702103  2                  9
Y605571210013139859154TREJO                      ALVAREZ                    JOSUE IBRAIN               00000000000000016052017     020000015189703  2                  9
Y605571210001047602071MENDOZA                    GUZMAN                     PABLO REYNALDO             00000000000000016052017     020000015198703  2                  9
Y605571210043076402809ESPARZA                    DANIEL                     MARTHA ALICIA              00000000000000016052017     020000019112103  2                  9
Y605571210043129683314TOSTADO                    ESPARZA                    ANA ALICIA                 00000000000000016052017     020000019112203  2                  9
Y605571210041816011955LUGO                       CORTES                     GERARDO                    00000000000000016052017     020000019112303  2                  9
Y605571210014048414990FERNANDEZ                  GONZALEZ                   ALMA GABRIELA              00000000000000016052017     020000022002202  2                  9
Y605571210023139556502GUTIERREZ                  NOYOLA                     VICTOR MANUEL              00000000000000016052017     020000022055503  2                  9
Y605571210071129124500SANCHEZ                    CONTRERAS                  JEREMIAS                   00000000000000015052017     020000023036403  2                  9
Y605571210002178607277SANTIAGO                   ANTONIO                    OTILIA                     00000000000000016052017     020000023042003  2                  9
Y605571210023068861626CEVALLOS                   CERVERA                    GERARDO DE JESUS           00000000000000012052017     020000025010903  2                  9
Y605571210002159425368ESTEBAN                    GONZALEZ                   SAMUEL FERNANDO            00000000000000012052017     020000027059603  2                  9
Y605571210019148843535CHAVEZ                     AVILA                      JUAN MANUEL                00000000000000017052017     020000030114303  2                  9
Y605571210042169697986ESTEBAN                    SANTOS                     JOSE ANDRES                00000000000000017052017     020000030123003  2                  9
Y605571210067118909109DE LA ROSA                 CRUZ                       ARGENIS MANUEL             00000000000000017052017     020000030127103  2                  9
Y605571210067129511399CRUZ                       SANCHEZ                    LUIS ANTONIO               00000000000000017052017     020000030131403  2                  9
Y605571210074159707749CRUZ                       LEON                       JONADAT ALEJANDRO          00000000000000017052017     020000030144503  2                  9
Y605571210067048412356ARROYO                     LOPEZ                      FRANCISCO                  00000000000000017052017     020000030146103  2                  9
