Y605571210042028301291ESCARCEGA                  MATA                       ENRIQUE                    00000000000000021072017     020000009042902  2                  9
Y605571210096057000869MOSQUEDA                   OCHOA                      LUIS                       00000000000000018072017     020000009675503  2                  9
Y605571210096048411969SANTOS                     TORRES                     JONATHAN CRISTOPHER        00000000000000019072017     020000009691503  2                  9
Y605571210042886502519HERNANDEZ                  MORALES                    FLAVIO DAVID               00000000000000020072017     020000009695903  2                  9
Y605571210045897340266SALVADOR                   SALGUERO                   EDAILIE                    00000000000000017072017     020000009706703  2                  9
Y605571210045038536269ONTIVEROS                  MORALES                    GIOVANI                    00000000000000021072017     020000009709303  2                  9
Y605571210045937629447GONZALEZ                   GALINDO                    GLORIA AGUEDA              00000000000000019072017     020000009710203  2                  9
Y605571210045058426615RAMIREZ                    RAMOS                      JESUS ENRIQUE              00000000000000020072017     020000009710803  2                  9
Y605571210096876824721OSORIO                     SANTIAGO                   MARIA DEL CARMEN           00000000000000019072017     020000009711203  2                  9
Y605571210002169335623GONZALEZ                   MARTINEZ                   JOSE MANUEL                00000000000000021072017     020000009713903  2                  9
Y605571210002177259039SANCHEZ                    ANGELES                    ALEJANDRO                  00000000000000017072017     020000009714703  2                  9
Y605571210020068700689FLORES                     LOPEZ                      TANIA LUCIA                00000000000000017072017     020000009715703  2                  9
Y605571210096038306047ANDRADE                    HURTADO                    DANIEL                     00000000000000021072017     020000009717903  2                  9
Y605571210096058667062RAMIREZ                    LOZANO                     IVAN                       00000000000000017072017     020000009718003  2                  9
Y605571210030028432687JUAREZ                     JUAREZ                     ERIK IVAN                  00000000000000017072017     020000009718103  2                  9
Y605571210028927415761LIRA                       GARCIA                     ALBERTO                    00000000000000017072017     020000009718203  2                  9
Y605571210096927100782SANCHEZ                    MARTINEZ                   ADOLFO                     00000000000000020072017     020000009718903  2                  9
Y605571210025149379221ESTRADA                    DAMAZO                     FREDY                      00000000000000018072017     020000009719303  2                  9
Y605571210047048719588CASTILLO                   RODRIGUEZ                  MAYRA DENISSE              00000000000000017072017     020000019118603  2                  9
Y605571210014079149523NIEVES                     GONZALEZ                   HUMBERTO                   00000000000000019072017     020000022063703  2                  9
Y605571210081077502425HERNANDEZ                  VERA                       AURELIO                    00000000000000021072017     020000030123503  2                  9
Y605571210048997807804HERRERA                    ROMERO                     ALONSO                     00000000000000021072017     020000030145103  2                  9
