Y462621510962977703016SALAS                      URIBE                      NARCISO                    00000000000000009042017     020000021122103  2                  9
Y462621510948018013432CARDENAS                   TOBIAS                     CARLOS                     00000000000000008042017     020000021161303  2                  9
Y462621510948129267935GARCIA                     LOPEZ                      OMAR                       00000000000000010042017     020000021166003  2                  9
