A836767410923816239372RENDON                     SANTOS                     EFRAIN                     00000000000000009082017     020000002053003  2                  9
A836767410971119322452AREBALO                    PEREZ                      DANIEL                     00000000000000009082017     020000002058703  2                  9
A836767410922806403501GONZALEZ                   WONG                       ERI                        00000000000000009082017     020000002058903  2                  9
A836767410921886630835MARTINEZ                   ENRIQUEZ                   JOSE                       00000000000000009082017     020000002061303  2                  9
A836767410972088935431CONTRERAS                  GONZALEZ                   INOEL                      00000000000000009082017     020000002061503  2                  9
A836767410903178946905CONTRERAS                  GONZALEZ                   ABEL                       00000000000000009082017     020000002061603  2                  9
A836767410933129252418GUTIERREZ                  BELTRAN                    JESUS ADRIAN               00000000000000009082017     020000008079903  2                  9
