R143868210354836536364HERNANDEZ                  LOPEZ                      RAFAEL                     00000000000000031072017     020000014134903  2                  9
R143868210355078612318ALVAREZ                    GODINEZ                    JOSE ARTURO                00000000000000031072017     020000014135103  2                  9
R143868210358169749833RODRIGUEZ                  RUELAS                     JOSE MARIA                 00000000000000031072017     020000014135203  2                  9
R143868210303178411900DIAZ                       ARROYO                     ELIZABETH                  00000000000000031072017     020000014135703  2                  9
