Y462621510902917501054GALINDO                    HERNANDEZ                  SARA                       00000000000000001022017     020000021120603  2                  9
Y462621510938149509879CALZADA                    AMBROSIO                   FRANCISCO JAVIER           00000000000000001022017     020000021146703  2                  9
Y462621510948987985891GONZALEZ                   ENRIQUEZ                   LUIS                       00000000000000001022017     020000021155003  2                  9
Y462621510933118919613DIEGO                      DIEGO                      LUIS                       00000000000000001022017     020000021158303  2                  9
Y462621510962786002006HUERTA                     LEON                       JOSE                       00000000000000002022017     020000021159303  2                  9
Y462621510963159850351CUAQUENTZI                 ALVARADO                   EVELIN                     00000000000000001022017     020000021159703  2                  9
Y462621510962876204926LOAEZA                     HERNANDEZ                  JORGE                      00000000000000001022017     020000021160303  2                  9
