Y605571210051896910224ZAMORA                     ORTIZ                      MARIA GUILLERMINA          00000000000000018082016     020000001008503  2                  9
Y605571210083927406716ESTEBAN                    JAVIER                     JOSE MANUEL                00000000000000019082016     020000004006903  2                  9
Y605571210071077808849RAMIREZ                    ALFARO                     MARICELIA                  00000000000000019082016     020000007014703  2                  9
Y605571210030936913455REYES                      FERIA                      BRUNO                      00000000000000019082016     020000009497003  2                  9
Y605571210090099303100JIMENEZ                    LOPEZ                      JOSE RAUL                  00000000000000019082016     020000009606403  2                  9
Y605571210017866803681OYOLA                      ARROYO                     ANGELICA                   00000000000000019082016     020000009632603  2                  9
Y605571210048018460401SALAZAR                    MACARIO                    REYES                      00000000000000019082016     020000011085003  2                  9
Y605571210065988248897COTO                       POXTAN                     RAUL ANTONIO               00000000000000019082016     020000011085603  2                  9
Y605571210015088309347BALMACEDA                  ROSALES                    MIGUEL                     00000000000000019082016     020000011087103  2                  9
Y605571210065108921811GALLARDO                   GOXCON                     CLARA JANEHT               00000000000000019082016     020000011088403  2                  9
Y605571210094129323690RODRIGUEZ                  UGALDE                     KARLA DANIELA              00000000000000018082016     020000015178503  2                  9
Y605571210044149589697FRAGOSO                    MENDOZA                    ANTONIO REYES              00000000000000016082016     020000015180003  2                  9
Y605571210043725513881RODRIGUEZ                  DELGADO                    ALEJO                      00000000000000016082016     020000019072803  2                  9
Y605571210043139607543LOPEZ                      VASQUEZ                    ALEJANDRO SALOMON          00000000000000016082016     020000019082203  2                  9
Y605571210043896882693CASIANO                    GONZALEZ                   SAMUEL                     00000000000000018082016     020000019085403  2                  9
Y605571210065139400850ORTEGA                     HERNANDEZ                  MARTIN ISAAC               00000000000000019082016     020000023025803  2                  9
Y605571210094927208374RAMOS                      PEREZ                      FELIX ALFREDO              00000000000000019082016     020000023028003  2                  9
Y605571210083078801905JIMENEZ                    GAMAS                      IGNACIO                    00000000000000019082016     020000023031703  2                  9
Y605571210038159268895SANCHEZ                    SANTOS                     CUTBERTO                   00000000000000019082016     020000030102603  2                  9
Y605571210067967552695FERNANDEZ                  HERNANDEZ                  FELIPE                     00000000000000019082016     020000030114403  2                  9
Y605571210082078828017FERNANDEZ                  SANTIAGO                   JUAN CARLOS                00000000000000019082016     020000030114503  2                  9
Y605571210067987813622HERNANDEZ                  GARCIA                     ENRIQUE                    00000000000000019082016     020000030118103  2                  9
Y605571210067977851459REYES                      LANDERO                    JOSE ALFREDO               00000000000000019082016     020000030118203  2                  9
Y605571210017169842212CRUZ                       MARTINEZ                   ANYOR FERNANDO             00000000000000019082016     020000030118303  2                  9
Y605571210056159613415SOTO                       PAVON                      RAMSES DOMINGO             00000000000000019082016     020000030119303  2                  9
Y605571210005158984335MARTINEZ                   PASCUAL                    GLORIA IVON                00000000000000019082016     020000030120203  2                  9
Y605571210067109130095COVARRUBIAS                HERNANDEZ                  RICARDO                    00000000000000019082016     020000030121003  2                  9
