A836767410933078922201ANCHONDO                   VENZOR                     MONICA                     00000000000000028082017     020000008002202  2                  9
A836767410933038445038GUZMAN                     SANCHEZ                    WENDY GUADALUPE            00000000000000028082017     020000008002302  2                  9
A836767410973159777967ATIENSO                    AVILA                      EDUARDO ALEJANDRO          00000000000000028082017     020000008078303  2                  9
A836767410933967277477DOMINGUEZ                  OLIVAS                     EDUARDO                    00000000000000028082017     020000008079403  2                  9
A836767410935998311613CRUZ                       CRUZ                       ARTURO                     00000000000000028082017     020000008080203  2                  9
A836767410933028527928PALACIOS                   CABALLERO                  ROEL                       00000000000000028082017     020000008080803  2                  9
