Y607431310439089005399ZUÑIGA                     VICTORIA                   FABIOLA                    00000000000000016062025     020000009039803  2                  9
Y607431310439917511907CAMPOS                     ACOSTA                     VICENTE ROBERTO            00000000000000016062025     020000009040003  2                  9
Y607431310416017812542CONTRERAS                  GARCIA                     CONSTANTINO                00000000000000016062025     020000015002103  2                  9
