A836767410933805806348MORALES                    VILLASEÑOR                 LUIS HECTOR                00000000000000030112016     020000008022803  2                  9
A836767410933937014026CASTELLANOS                CHAVEZ                     RAUL                       00000000000000030112016     020000008032703  2                  9
A836767410994996200625KUSULAS                    TAMAYO                     JUANA MINERVA              00000000000000030112016     020000008036903  2                  9
A836767410933026101585AGUIRRE                    ROMERO                     CATALINA                   00000000000000030112016     020000008038703  2                  9
A836767410933684913123MARTINEZ                   GAONA                      JOSE                       00000000000000030112016     020000008040503  2                  9
A836767410933139666797SOTO                       MONJARAZ                   RICARDO ANTONIO            00000000000000030112016     020000008053103  2                  9
