Y607431310445119401805MENDEZ                     REYNA                      ALEXANDER                  00000000000000018032024     020000009019403  2                  9
Y607431310462168712305SEVILLA                    MENDEZ                     JULIO CESAR                00000000000000018032024     020000009032503  2                  9
Y607431310492149701564CANALES                    POZOS                      MARIA GUADALUPE            00000000000000018032024     020000009032903  2                  9
