Y702574710184915603165AGUILAR                    KANTUN                     MYRNA ELIZABETH DEL SOCORRO00000000000000016122016     020000031025603  2                  9
Y702574710171169843902MONTALVO                   MOLINA                     ISRAEL                     00000000000000016122016     020000031031603  2                  9
Y702574710127148922316NOTARIO                    ARCOS                      MARISELIT                  00000000000000016122016     020000031033103  2                  9
