Y605571210051886706921SUAREZ                     RODRIGUEZ                  MARIA RAMONA               00000000000000028042016     020000001007303  2                  9
Y605571210058159669801HERNANDEZ                  SALVADOR                   CARLOS ALBERTO             00000000000000004052016     020000007014003  2                  9
Y605571210033008458300MORALES                    REYES                      ROSA AURELIA               00000000000000004052016     020000007014503  2                  9
Y605571210090058618878QUINTANILLA                GONZALEZ                   LUIS ALDO                  00000000000000028042016     020000009600303  2                  9
Y605571210094128100784RODRIGUEZ                  ZAVALA                     CESAR RAFAEL               00000000000000003052016     020000009610903  2                  9
Y605571210054886762357RIZO                       HERNANDEZ                  FRANCISCO JAVIER           00000000000000028042016     020000014073403  2                  9
Y605571210004038386456FRIAS                      ARROYO                     JOSE RENE                  00000000000000028042016     020000014104803  2                  9
Y605571210021835813086MAGAÒA                     MELCHOR                    JOAQUIN                    00000000000000028042016     020000014105003  2                  9
Y605571210004987303890CANDELARIO                 AZPEITIA                   SILVIA                     00000000000000004052016     020000014106803  2                  9
Y605571210004129502219GARCIA                     TAPIA                      JUAN GERARDO               00000000000000028042016     020000014107803  2                  9
Y605571210054796166756RAMIREZ                    DE LA CRUZ                 BERNARDINO                 00000000000000028042016     020000014108703  2                  9
Y605571210004978100081ESPARZA                    COLLAZO                    LUIS ALBERTO               00000000000000028042016     020000014109403  2                  9
Y605571210051998320751RAMIREZ                    SEGOVIA                    ELSA LILIANA               00000000000000028042016     020000014110003  2                  9
Y605571210005169153094ARAUJO                     MARTINEZ                   CECILIA                    00000000000000028042016     020000014110203  2                  9
Y605571210075129496933GOMEZ                      GUZMAN                     ALFONSO                    00000000000000028042016     020000014110403  2                  9
Y605571210004997603743GONZALEZ                   GOMEZ                      MARIO EDUARDO              00000000000000028042016     020000014110703  2                  9
Y605571210075129497386SALGADO                    RIOS                       LUIS IGNACIO               00000000000000028042016     020000014111503  2                  9
Y605571210016028518542JUAREZ                     PEREZ                      ANAID                      00000000000000004052016     020000015115403  2                  9
Y605571210027159475808VARGAS                     RAZO                       ANA FABIOLA                00000000000000028042016     020000016004903  2                  9
Y605571210003158344410OREGEL                     MARTINEZ                   AHUDOMARO                  00000000000000028042016     020000016005603  2                  9
Y605571210043998308779GONZALEZ                   HERNANDEZ                  JUAN MANUEL                00000000000000003052016     020000019031803  2                  9
Y605571210072926305763CRUZ                       ESPEJO                     ESTEBAN                    00000000000000004052016     020000028030303  2                  9
Y605571210009067105636PULIDO                     TREJO                      EDUARDO                    00000000000000004052016     020000028030403  2                  9
Y605571210009139526983MENDEZ                     OLMEDO                     ADRIAN ULISES              00000000000000004052016     020000030099803  2                  9
Y605571210002169348865GOMEZ                      ROMERO                     JOSE MANUEL                00000000000000004052016     020000030112803  2                  9
Y605571210065977963746MELGAREJO                  GARCIA                     CLAUDIA                    00000000000000004052016     020000030112903  2                  9
Y605571210065139242997RIOS                       TICANTE                    PEDRO ERASTO               00000000000000004052016     020000030113703  2                  9
Y605571210017148929767HERNANDEZ                  ZEPETA                     JOSE MARTIN                00000000000000004052016     020000030113803  2                  9
Y605571210017149098190NOSTROZA                   CEJA                       YURIDIA                    00000000000000004052016     020000030114103  2                  9
