A836767410933119158476HERNANDEZ                  RUIZ                       JOCELIN                    00000000000000024072017     020000008073903  2                  9
A836767410908179220705ADRIANO                    RAMOS                      JUAN CARLOS                00000000000000024072017     020000008077003  2                  9
A836767410933877276775FONSECA                    LOPEZ                      MIGUEL ANGEL               00000000000000024072017     020000008077503  2                  9
A836767410945927510789MARTINEZ                   ESCAMILLA                  BERENICE                   00000000000000024072017     020000008078403  2                  9
