A836767410933805900850AVILA                      X                          GUADALUPE                  00000000000000022092016     020000008025803  2                  9
A836767410965129318419DEL CORTE                  BUSTOS                     JORGE LUIS                 00000000000000022092016     020000008029903  2                  9
A836767410935139564229ARIAS                      PEREZ                      MARIA REBECA               00000000000000022092016     020000008052503  2                  9
A836767410933068964676DE LA TORRE                QUINTERO                   VICTOR                     00000000000000022092016     020000008055303  2                  9
A836767410933078811016MADRID                     GARZA                      BEATRIZ YOLANDA            00000000000000022092016     020000008057003  2                  9
A836767410933048803812GONZALEZ                   MONTES                     OSVALDO                    00000000000000022092016     020000008058003  2                  9
A836767410933806345618RINCON                     GONZALEZ                   CESAR ALFONSO              00000000000000022092016     020000008058303  2                  9
