Y605571210021927699310PONCE                      GONZALEZ                   JUAN ABDON                 00000000000000031052016     020000002047203  2                  9
Y605571210002166914172NORIEGA                    CASTAÒEDA                  BENJAMIN                   00000000000000031052016     020000002047903  2                  9
Y605571210025139432394MARTINEZ                   JAUREGUI                   OMAN IDAIR                 00000000000000031052016     020000002048803  2                  9
Y605571210021129552663ROBLES                     HERNANDEZ                  JESUS EMMANUEL             00000000000000031052016     020000002048903  2                  9
Y605571210063149604470ZENTENO                    DE LA CRUZ                 RAUL DE JESUS              00000000000000006062016     020000007008903  2                  9
Y605571210071069001353MEZA                       BARRIOS                    VICTOR ALFONSO             00000000000000006062016     020000007011403  2                  9
Y605571210071896900546LOPEZ                      GOMEZ                      MARIA EUGENIA              00000000000000006062016     020000007013903  2                  9
Y605571210045138000588CORTES                     MARTINEZ                   LUCINA                     00000000000000001062016     020000009541703  2                  9
Y605571210027149034764JASPEADO                   CRUZ                       ARTURO                     00000000000000006062016     020000009554703  2                  9
Y605571210096098922196LAGOS                      FABIAN                     NATALI                     00000000000000004062016     020000009568703  2                  9
Y605571210003159574650TLAPECHCO                  MARTINEZ                   ANDREA                     00000000000000001062016     020000009604803  2                  9
Y605571210046119310418DAVALOS                    CRUZ                       VICTOR BRANDONN            00000000000000001062016     020000009612003  2                  9
Y605571210005169041109DOMINGUEZ                  CARMONA                    CARLOS ESTEBAN             00000000000000006062016     020000009616303  2                  9
Y605571210004129185932VAZQUEZ                    BOITES                     PABLO                      00000000000000031052016     020000014072203  2                  9
Y605571210054846217690MORONES                    DE LA CERDA                MIGUEL ANGEL               00000000000000031052016     020000014076103  2                  9
Y605571210004067915431VARGAS                     MORENO                     LUIS ALBERTO               00000000000000031052016     020000014077203  2                  9
Y605571210071876607061JIMENEZ                    ESPINOZA                   ANTONIO                    00000000000000031052016     020000014077303  2                  9
Y605571210004028737585HERNANDEZ                  VILLARRUEL                 ISRAEL                     00000000000000031052016     020000014085003  2                  9
Y605571210002159062534VAZQUEZ                    VALENTIN                   JOSE LUIS                  00000000000000031052016     020000014085603  2                  9
Y605571210054816612409HERNANDEZ                  AGUILAR                    J. DE JESUS                00000000000000031052016     020000014087503  2                  9
Y605571210075129457208MUÒOZ                      MADRIGAL                   MARIO                      00000000000000031052016     020000014088703  2                  9
Y605571210054946805360VARGAS                     CAMPOS                     RIGOBERTO                  00000000000000031052016     020000014092403  2                  9
Y605571210072926404905MENDEZ                     NUÒEZ                      INES                       00000000000000031052016     020000014094103  2                  9
Y605571210004048014239AGUIIRRE                   HERNANDEZ                  ERNESTO ALONSO             00000000000000031052016     020000014094203  2                  9
Y605571210008158808074HERNANDEZ                  ROJAS                      JONATHAN                   00000000000000031052016     020000014094303  2                  9
Y605571210056887023523BALBUENA                   GARCIA                     LUIS FERNANDO              00000000000000031052016     020000014097103  2                  9
Y605571210031927551312NUÒEZ                      SOTO                       JUAN CARLOS                00000000000000031052016     020000014099503  2                  9
Y605571210004139559027ESQUIVEL                   GONZALEZ                   VICTOR ALFONSO             00000000000000031052016     020000014100103  2                  9
Y605571210004137400612GUERRERO                   BENITES                    LUIS ALONSO                00000000000000031052016     020000014100503  2                  9
Y605571210004038658193ACEVES                     MERCADO                    LORENA                     00000000000000031052016     020000014101003  2                  9
Y605571210034057101031ALFARO                     GUERRERO                   JACINTO                    00000000000000031052016     020000014101203  2                  9
Y605571210004987942978CASTELLANOS                ABASCAL                    JOSE DE JESUS ADRIAN       00000000000000031052016     020000014101603  2                  9
Y605571210004088975570AGUIÒIGA                   PONCE                      SANDRA ARACELI             00000000000000031052016     020000014102003  2                  9
Y605571210004917320956SANCHEZ                    CHAVEZ                     FERNANDO                   00000000000000031052016     020000014103303  2                  9
Y605571210004136602655GUTIERREZ                  RAMOS                      SERGIO MARTIN              00000000000000031052016     020000014104103  2                  9
Y605571210004106602503SALMERON                   ARREGUIN                   RAMON                      00000000000000031052016     020000014104303  2                  9
Y605571210025998146937ARMENTA                    RUELAS                     JUAN CARLOS                00000000000000031052016     020000014104703  2                  9
Y605571210004887160952TOVAR                      GARCIA                     JULIO ANTONIO              00000000000000031052016     020000014105603  2                  9
Y605571210004058783905GONZALEZ                   MEDINA                     ROSENDO ISMAEL             00000000000000031052016     020000014105803  2                  9
Y605571210075058819378GUTIERREZ                  LOPEZ                      SINHUE VICENTE             00000000000000031052016     020000014105903  2                  9
Y605571210075947743904VELAZQUEZ                  CAMPOS                     JUAN                       00000000000000031052016     020000014106203  2                  9
Y605571210008169340083MARIN                      MEJIA                      GUADALUPE                  00000000000000031052016     020000014107203  2                  9
Y605571210054967900215CARDENAS                   CHAPULA                    LUIS ALBERTO               00000000000000031052016     020000014107403  2                  9
Y605571210060159742794BARBA                      HERNANDEZ                  MARIA ESTHER               00000000000000031052016     020000014108503  2                  9
Y605571210066159672832CORDOBA                    RAMOS                      ALEXANDRA                  00000000000000031052016     020000014108603  2                  9
Y605571210004139437885PRECIADO                   CORTES                     SELENE NOEMI               00000000000000031052016     020000014108903  2                  9
Y605571210004048465688GUTIERREZ                  CABRERA                    ROSA SOLEDAD DE JESUS      00000000000000031052016     020000014109003  2                  9
Y605571210004119608281JIMENEZ                    NAVARRO                    ADAN ALEJANDRO             00000000000000031052016     020000014109503  2                  9
Y605571210056907088860JIMENEZ                    RODRIGUEZ                  ANTONIO                    00000000000000031052016     020000014109703  2                  9
Y605571210004129596385RUIZ                       PATIÒO                     SERGIO ALFONSO             00000000000000031052016     020000014109903  2                  9
Y605571210078028212104AGUDO                      CANSECO                    AMADOR                     00000000000000031052016     020000014110603  2                  9
Y605571210053937804556HERNANDEZ                  CHAVEZ                     BRENDA YADIRA              00000000000000031052016     020000014110903  2                  9
Y605571210075937010009RIVERA                     JUAN                       MANUEL                     00000000000000031052016     020000014111103  2                  9
Y605571210004048354569ARIAS                      VILLICA—A                  JOSE MANUEL                00000000000000001062016     020000014111703  2                  9
Y605571210004058898794GUERRERO                   DOMINGUEZ                  ARMANDO                    00000000000000031052016     020000014112103  2                  9
Y605571210075129337442HERNANDEZ                  QUIRINO                    JAVIER                     00000000000000031052016     020000014112203  2                  9
Y605571210004118631144ARMENTA                    AMBRIZ                     JOSE MANUEL                00000000000000031052016     020000014112503  2                  9
Y605571210035149647006FLORES                     LEYVA                      DALIA VANESSA              00000000000000031052016     020000014112603  2                  9
Y605571210082987812235ALVARADO                   CORDOVA                    ALFREDO                    00000000000000031052016     020000014112703  2                  9
Y605571210004876874431CHAVEZ                     IBARRA                     JUAN JOSE                  00000000000000031052016     020000014112803  2                  9
Y605571210004129462844I—IGUEZ                    GARCIA                     JUDAS MANUEL               00000000000000031052016     020000014113103  2                  9
Y605571210041806228080PUENTE                     RUIZ                       ENRIQUE                    00000000000000031052016     020000014113403  2                  9
Y605571210085149547169CONTRERAS                  NAVARRO                    ERNESTO ALONSO             00000000000000031052016     020000014113503  2                  9
Y605571210002168695928RAFAEL                     BECERRA                    CARLOS                     00000000000000031052016     020000014113603  2                  9
Y605571210004006208757SANDOVAL                   ESCOBAR                    JORGE ALBERTO              00000000000000031052016     020000014113903  2                  9
Y605571210004987842921RIVERA                     GARCIA                     JOSE                       00000000000000031052016     020000014114003  2                  9
Y605571210004028164418ZAMORA                     CHAVEZ                     PABLO                      00000000000000031052016     020000014114103  2                  9
Y605571210075998111142ZEFERINO                   SALAZAR                    RICARDO                    00000000000000031052016     020000014114203  2                  9
Y605571210033996707932GARCIA                     FLORES                     ARMANDO                    00000000000000031052016     020000014114303  2                  9
Y605571210004877016669VARGAS                     SALDIVAR                   ALBERTO                    00000000000000031052016     020000014114403  2                  9
Y605571210052867103229CARMONA                    PALOMARES                  SOCORRO                    00000000000000031052016     020000014114503  2                  9
Y605571210052028101153OLVIRA                     MEDINA                     JOSE                       00000000000000031052016     020000014114603  2                  9
Y605571210025966805878HERNANDEZ                  HERNANDEZ                  JOSE DE JESUS              00000000000000031052016     020000014114703  2                  9
Y605571210016027707260BENITEZ                    MARIN                      LETICIA                    00000000000000001062016     020000015134703  2                  9
Y605571210016027707260BENITEZ                    MARIN                      LETICIA                    00000000000000001062016     020000015134703  2                  9
Y605571210026159290266GUADARRAMA                 MONTANTE                   XOCHITL MONSERRATH         00000000000000006062016     020000015169103  2                  9
Y605571210019149815789URIBE                      LUNA                       BRAYAN URIEL               00000000000000001062016     020000015173403  2                  9
Y605571210092099152693MONTEJO                    RUIZ                       NANCY                      00000000000000001062016     020000015173503  2                  9
Y605571210019856720180RANGEL                     TAPIA                      AURORA                     00000000000000004062016     020000015173603  2                  9
Y605571210094977303315GUZMAN                     HUIDOBRO                   ANICETO                    00000000000000002062016     020000015173903  2                  9
Y605571210065927473259FERNANDEZ                  GONZALEZ                   JOSE LUIS                  00000000000000004062016     020000030096703  2                  9
Y605571210029169723540MENDEZ                     MANUEL                     EDUARDO                    00000000000000004062016     020000030113303  2                  9
Y605571210003148720141SANCHEZ                    AGUILAR                    ELISEO DE JESUS            00000000000000006062016     020000030114703  2                  9
Y605571210078109009692ESPINOZA                   CORTES                     TITO                       00000000000000004062016     020000030115603  2                  9
