D172000910202159788013BENITEZ                    SANTOS                     EDGAR DAVID                00000000000000015042016     020000017036103  2                  9
D172000910215028316204SALAZAR                    MAZON                      EDGAR AARON                00000000000000015042016     020000017042203  2                  9
D172000910215119123303MAGAÒA                     OCAMPO                     ERIC                       00000000000000015042016     020000017042303  2                  9
D172000910276149601239AROLLO                     PERALTA                    DANIEL                     00000000000000015042016     020000017042503  2                  9
D172000910215846310785FLORES                     GARCIA                     FELIX AURELIO              00000000000000015042016     020000017042903  2                  9
D172000910215088912967FITZ                       FLORES                     FRANCIA LIZ                00000000000000015042016     020000017043003  2                  9
D172000910217149062758PINEDA                     CRUZ                       NEXALY                     00000000000000015042016     020000017043103  2                  9
D172000910215917402396CRUZ                       PINEDA                     SANTIAGO                   00000000000000015042016     020000017043203  2                  9
D172000910203159366164VELAZQUEZ                  BENITEZ                    DIANA LIYONETH             00000000000000015042016     020000017043303  2                  9
D172000910248987747739VALENCIA                   MENDEZ                     ANGEL ELVIS                00000000000000015042016     020000017043403  2                  9
D172000910202169248453FLORES                     CARVAJAL                   CRISTOPHER EMMANUEL        00000000000000015042016     020000017045003  2                  9
