Y702574710148119349677PEREZ                      FLORES                     LUIS ESTEBAN               00000000000000010092016     020000021108403  2                  9
Y702574710184018115547CAMARA                     GONZALEZ                   JOSE AUGUSTO               00000000000000014092016     020000031028103  2                  9
Y702574710184967529573PEREZ                      GURUBEL                    AUGUSTO MARGARITO REYES    00000000000000009092016     020000031029403  2                  9
