Y605571210071107600257DE LA CRUZ                 GARCIA                     MINERVA DEL CARMEN         00000000000000024112016     020000007014803  2                  9
Y605571210071038020815BONIFAZ                    VAZQUEZ                    JUAN PABLO                 00000000000000024112016     020000007015803  2                  9
Y605571210035149318855JIMENEZ                    GUILLEN                    CARLOS HUMBERTO            00000000000000024112016     020000007016203  2                  9
Y605571210048028543469GARCIA                     GARCIA                     ARNULFO                    00000000000000023112016     020000009627703  2                  9
Y605571210012038568452MUÑOZ                      ARREDONDO                  FIDENCIO                   00000000000000024112016     020000011088903  2                  9
Y605571210092977880670BARCENAS                   LARGO                      JUAN CARLOS                00000000000000023112016     020000015116403  2                  9
Y605571210089856823854GONZALEZ                   PEREZ                      ANTONIO                    00000000000000023112016     020000015141803  2                  9
Y605571210003148155751RODRIGUEZ                  RIVERO                     JESUS ENRIQUE              00000000000000024112016     020000015175103  2                  9
Y605571210043916872203MARTINEZ                   ORTEGA                     HUMBERTO ANGEL             00000000000000024112016     020000019080603  2                  9
Y605571210015048403172HERNANDEZ                  ELIAS                      MARIA GUADALUPE            00000000000000021112016     020000022050703  2                  9
Y605571210023796238634DIAZ                       GAXIOLA                    GABINO ISAAC               00000000000000024112016     020000025011103  2                  9
