Y462621510948089038854CRUZ                       MONTIEL                    JOSE DE JESUS              00000000000000026062017     020000021000102  2                  9
Y462621510903147832855BAUTISTA                   LUCAS                      GONZALO                    00000000000000021062017     020000021144803  2                  9
Y462621510937038311322LOPEZ                      MARTINEZ                   REYES                      00000000000000027062017     020000021166303  2                  9
