R143868210334139416852SAUCEDO                    MARTINEZ                   DANIEL                     00000000000000022122016     020000014117703  2                  9
R143868210304008013403RAMIREZ                    CHAVEZ                     JUAN JOSE                  00000000000000023122016     020000014122403  2                  9
R143868210334139313646SANTOS                     GARCIA                     MISSAEL                    00000000000000022122016     020000014125503  2                  9
R143868210311169536395RODRIGUEZ                  ROMERO                     DANIEL                     00000000000000022122016     020000014125703  2                  9
