Y605571210011068910113VILLAR                     HERNANDEZ                  ALLAN HAATHAR              00000000000000020012017     020000009015602  2                  9
Y605571210042977609165CARDENAS                   LEONOR                     JUAN LUIS                  00000000000000024012017     020000009648203  2                  9
Y605571210001169867411ESCOBAR                    ESTEVES                    ISMAEL                     00000000000000024012017     020000009677203  2                  9
Y605571210001028424362SANCHEZ                    CHAVEZ                     SALVADOR                   00000000000000024012017     020000013016403  2                  9
Y605571210039028410189GOMEZ                      CAMACHO                    MARTHA VIRIDIANA           00000000000000025012017     020000015189303  2                  9
Y605571210043988035119HERNANDEZ                  LOPEZ                      JOSE EDUARDO               00000000000000025012017     020000019095603  2                  9
Y605571210047988190063MORENO                     GARZA                      MARIA GUADALUPE            00000000000000025012017     020000019096703  2                  9
Y605571210007916906782MORENO                     BURGOS                     GERARDO ARTURO             00000000000000019012017     020000027058803  2                  9
