Y605571210071027300194ZUVIRIE                    SANTOS                     GRINDELIO                  00000000000000001072016     020000007006503  2                  9
Y605571210071038217437DE LEON                    PUAC                       EVERARDO                   00000000000000001072016     020000007011903  2                  9
Y605571210071088805875ARGUELLO                   CALVO                      MARIA GUADALUPE            00000000000000001072016     020000007012103  2                  9
Y605571210071927532755HERNANDEZ                  FIGUEROA                   JUAN CARLOS                00000000000000001072016     020000007014303  2                  9
Y605571210071957503288CEBALLOS                   LOPEZ                      FRANCISCO JAVIER           00000000000000001072016     020000007015103  2                  9
Y605571210062159690148MARTINEZ                   FLORES                     ESTEBAN                    00000000000000001072016     020000009565603  2                  9
Y605571210016755101975MARTINEZ                   JOSE MARIA                 OTILIO                     00000000000000001072016     020000015160103  2                  9
Y605571210065016700406BARBON                     CRUZ                       JOSE ARMANDO               00000000000000001072016     020000030067203  2                  9
Y605571210065016700406BARBON                     CRUZ                       JOSE ARMANDO               00000000000000001072016     020000030067203  2                  9
Y605571210065018600646MENDOZA                    CARVAJAL                   VALENTIN                   00000000000000001072016     020000030102803  2                  9
Y605571210065018600646MENDOZA                    CARVAJAL                   VALENTIN                   00000000000000001072016     020000030102803  2                  9
