Y607431310420099126839ARIAS                      VEGA                       MARIO ALAN                 00000000000000025012022     020000009010803  2                  9
Y607431310496067605079MORALES                    RODRIGUEZ                  ESPERANZA                  00000000000000025012022     020000009013303  2                  9
Y607431310445048618859TRUJILLO                   FONSECA                    ANA LILIA                  00000000000000025012022     020000009015803  2                  9
