Y605571210051836616741SIGALA                     LOMELI                     JORGE                      00000000000000018082016     020000001005203  2                  9
Y605571210067078714481GARCIA                     SOLANO                     JOSE NAHUM                 00000000000000017082016     020000005010503  2                  9
Y605571210002169216146MARTINEZ                                              JONATHAN EDUARDO           00000000000000018082016     020000009604303  2                  9
Y605571210045129458035JUAREZ                     PACHECO                    ANTONIO VIVALDI            00000000000000016082016     020000009627503  2                  9
Y605571210020058301258HERNANDEZ                  DOMINGUEZ                  ANGELA                     00000000000000017082016     020000009628103  2                  9
Y605571210096129459275AROSQUETA                  RIVAS                      LUIS ENRIQUE               00000000000000016082016     020000009628303  2                  9
Y605571210054169851760CRUZ                       AVILA                      ANA ITZEL                  00000000000000018082016     020000009630803  2                  9
Y605571210068967800795CHAVEZ                     LOPEZ                      ROBERTO                    00000000000000018082016     020000013013903  2                  9
Y605571210094109178353VICTORIA                   RIVERA                     NATALIA JULIETA            00000000000000017082016     020000015002102  2                  9
Y605571210013079109214GARCIA                     PASTRANA                   YONATHAN MICHEL            00000000000000015082016     020000015132303  2                  9
Y605571210090896925402ESCOBAR                    CORRAL                     LETICIA                    00000000000000015082016     020000015179103  2                  9
Y605571210043776207128LUCIO                      CAVAZOS                    JAIME                      00000000000000017082016     020000019064503  2                  9
Y605571210049886992087VALADEZ                                               DAVID                      00000000000000018082016     020000019074203  2                  9
Y605571210043775931470GONZALEZ                   RESENDIZ                   JOSE ANASTACIO             00000000000000018082016     020000019080803  2                  9
Y605571210012917277472SANABRIA                   JIMENEZ                    LUIS MANUEL                00000000000000018082016     020000022049303  2                  9
Y605571210021695241741BUSTAMANTE                 CARRERAS                   LUIS ANTONIO               00000000000000018082016     020000025007203  2                  9
Y605571210009008404924AZUARA                     ADRIAN                     LUIS MANUEL                00000000000000018082016     020000028033703  2                  9
