A836767410933129457256VARGAS                     MEZA                       JOSE FRANCISCO             00000000000000013062016     020000008001102  2                  9
A836767410925149243666MENDOZA                    HERNANDEZ                  SAMUEL                     00000000000000013062016     020000008039303  2                  9
A836767410935947670515REYES                      ORNELAS                    JESUS                      00000000000000013062016     020000008042803  2                  9
