Y605571210030897052913CRUZ                       MORALES                    JAIME                      00000000000000019072016     020000009484903  2                  9
Y605571210045917359965CARRILLO                   TELLEZ                     JESUS                      00000000000000021072016     020000009612903  2                  9
Y605571210043089221949MONTANTE                   TORRES                     ADELA                      00000000000000021072016     020000009620403  2                  9
Y605571210045957718864RODRIGUEZ                  CORTOA                     CARLOS ANTONIO             00000000000000021072016     020000009625103  2                  9
Y605571210043018405241DELMAS                     TORRES                     YADIRA DEL ROCIO           00000000000000016072016     020000019001002  2                  9
Y605571210049907166711PEREZ                      RODRIGUEZ                  HILARIO                    00000000000000020072016     020000019073203  2                  9
Y605571210009917523970CRUZ                       HERNANDEZ                  ROSALINO                   00000000000000019072016     020000019077603  2                  9
Y605571210043997843149GARZA                      ROSALES                    RUBEN                      00000000000000020072016     020000019081903  2                  9
Y605571210043139607543LOPEZ                      VASQUEZ                    ALEJANDRO SALOMON          00000000000000019072016     020000019082203  2                  9
Y605571210043139724710RAMOS                      LOPEZ                      RUBEN                      00000000000000020072016     020000019083203  2                  9
Y605571210083078805591MORALES                    LEON                       MIGUEL ANGEL               00000000000000021072016     020000023027303  2                  9
