Y605571210020028406575LEAL                       OSORIO                     NESTOR ALEJANDRO           00000000000000026102016     020000009635203  2                  9
Y605571210042119423269PINEDA                     HERNANDEZ                  SEBASTIAN                  00000000000000023102016     020000009649903  2                  9
Y605571210016139704395TAHUILAN                   RUIZ                       LUIS FRANCISCO             00000000000000026102016     020000015184003  2                  9
Y605571210023058625775GARCIA                     RAMIREZ                    JUAN CARLOS                00000000000000026102016     020000025008003  2                  9
