Y605571210051856405983LUCERO                     REYES                      MARIA GRACIELA             00000000000000025102016     020000001006703  2                  9
Y605571210039906948730GARCIA                     RAMIREZ                    FELIPE                     00000000000000024102016     020000009516003  2                  9
Y605571210062159730183ARZOLA                     SOTO                       YANKO ZENYAO               00000000000000019102016     020000009572503  2                  9
Y605571210042886875139PEREZ                      DEVIANA                    IGNACIO                    00000000000000024102016     020000009625603  2                  9
Y605571210010866626210PEREZ                      AGUILLON                   RAFAEL                     00000000000000025102016     020000009625803  2                  9
Y605571210096917376079GOMEZ                      GARCIA                     RAFAEL                     00000000000000021102016     020000009633303  2                  9
Y605571210090119101013RUIZ                       CRUZ                       JOSUE                      00000000000000022102016     020000009645003  2                  9
Y605571210078119344402RIVERA                     ZUÑIGA                     ROBERTO                    00000000000000021102016     020000009646803  2                  9
Y605571210096988024129GUZMAN                     ROQUE                      FANNY                      00000000000000025102016     020000009651503  2                  9
Y605571210096977301207RODRIGUEZ                  MORALES                    ALBERTO                    00000000000000025102016     020000009651703  2                  9
Y605571210096047902398OSORIO                     CORTES                     LAURA                      00000000000000025102016     020000009651803  2                  9
Y605571210042897118966ROMERO                     MARTINEZ                   JOSE LUIS                  00000000000000022102016     020000011089203  2                  9
Y605571210041826200572CASTELLANOS                NARVAEZ                    JOSE ALFREDO               00000000000000022102016     020000011089803  2                  9
Y605571210014785800476PEREZ                      BUSTAMANTE                 ROBERTO                    00000000000000025102016     020000022038503  2                  9
Y605571210019159845221MOLINA                     ESPINOZA                   AMAURY ADALBERTO           00000000000000025102016     020000022051503  2                  9
Y605571210084108917679KUMUL                      UCAN                       MARCOS                     00000000000000020102016     020000023036803  2                  9
Y605571210023976903387RAMIREZ                    DIMAS                      FRANCISCA                  00000000000000025102016     020000025004103  2                  9
