Y605571210014998109608UGALDE                     TORRES                     JORGE ANTONIO              00000000000000030062016     020000014001402  2                  9
Y605571210075109155681RUVALCABA                  MORALES                    ZULEMA ELIZABETH           00000000000000030062016     020000014001602  2                  9
Y605571210008148202149GARCIA                     ARANDA                     JOSE ALEJANDRO             00000000000000030062016     020000014001702  2                  9
Y605571210054927825734BARAJAS                    HERNANDEZ                  VERONICA                   00000000000000030062016     020000014089103  2                  9
