Y605571210011937107008SOSA                       BADILLO                    LUIS FERNANDO              00000000000000007092016     020000009579703  2                  9
Y605571210096059300168ESTRADA                    OROPEZA                    MARIA EUGENIA              00000000000000005092016     020000009586503  2                  9
Y605571210060149665550PARCERO                    JIMENEZ                    ANAYELI                    00000000000000005092016     020000009597303  2                  9
Y605571210020139613879PEREZ                      ESPINOSA                   ALDO IRVIN                 00000000000000007092016     020000009627403  2                  9
Y605571210045139889963LUCAS                      COLIN                      GERARDO                    00000000000000006092016     020000009636003  2                  9
Y605571210071897104783MARTINEZ                   SALAZAR                    PEDRO                      00000000000000006092016     020000009636403  2                  9
Y605571210059169786676HERNANDEZ                  LOPEZ                      OLIVIA                     00000000000000005092016     020000009636603  2                  9
Y605571210001937420642GONZALEZ                   ESPARZA                    DELFINO HUMBERTO           00000000000000007092016     020000015178803  2                  9
Y605571210092087501521BLANCAS                    LARA                       LEONARDO                   00000000000000007092016     020000015179403  2                  9
Y605571210023957803135LERMA                      OSUNA                      WENDY ROSARIO              00000000000000007092016     020000025006603  2                  9
Y605571210023068783242AISPURO                    NEGRETE                    JESUS RAMON                00000000000000007092016     020000025008103  2                  9
