A836767410966149686033GONZALEZ                   TORRES                     VICTOR MANUEL              00000000000000017072017     020000002059003  2                  9
A836767410925957931444MARISCAL                   PEREO                      ROSALINDA                  00000000000000017072017     020000002059303  2                  9
A836767410921119283899LEON                       ALONSO                     DANIEL                     00000000000000017072017     020000002059403  2                  9
A836767410933786031873GRIEGO                     LUJAN                      LUCIA ANTONIA              00000000000000018072017     020000008037103  2                  9
A836767410933079052214OROZCO                     MINJARES                   JOSE LUIS                  00000000000000018072017     020000008073803  2                  9
A836767410927159563868GUAJARDO                   DE LUNA                    HECTOR ABIEL               00000000000000018072017     020000008076603  2                  9
A836767410933139663042ACOSTA                     LOYA                       NIVER DANIEL               00000000000000018072017     020000008076803  2                  9
