Y462621510948139219207JIMENEZ                    OREA                       JOSE LUIS                  00000000000000005032017     020000021133403  2                  9
Y462621510948139566045JIMENEZ                    OREA                       RICARDO                    00000000000000005032017     020000021141703  2                  9
Y462621510948068860229OCAÑA                      FLORES                     GAMALIEL                   00000000000000005032017     020000021144603  2                  9
Y462621510948139244882CARRILLO                   HERNANDEZ                  CARLOS ALBERTO             00000000000000003032017     020000021161103  2                  9
Y462621510981129100418SANCHEZ                    BUSTAMANTE                 MARTHA PATRICIA            00000000000000003032017     020000021164103  2                  9
Y462621510948129479167VARELA                     DOMINGUEZ                  ADELA GUADALUPE            00000000000000003032017     020000021164203  2                  9
