A836767410931846400187CALZADA                    SANCHEZ                    TORIBIO                    00000000000000004072016     020000008010103  2                  9
A836767410931036700842FAVELA                     RIVAS                      JOSE GUADALUPE             00000000000000004072016     020000008043103  2                  9
A836767410915937433132CASILLAS                   BARRIOS                    KARLA CECILIA              00000000000000007072016     020000008047403  2                  9
A836767410933139328257GONZALEZ                   RAMIREZ                    ROGELIO ALEJANDRO          00000000000000007072016     020000008048003  2                  9
A836767410919169471026MENDOZA                    GUTIERREZ                  ADRIAN                     00000000000000007072016     020000008048903  2                  9
A836767410933887235001OLAYO                      MARTINEZ                   CLAUDIA BEATRIZ            00000000000000006072016     020000008049403  2                  9
