Y605571210081028600252MU—OZ                      CASANOVA                   ROMERITO DEL JESUS         00000000000000001092017     020000004011303  2                  9
Y605571210001957711433PEREZ                      HUERTA                     DANIEL                     00000000000000003092017     020000009658203  2                  9
Y605571210035149588770VAZQUEZ                    MATEOS                     ROSARIO                    00000000000000004092017     020000009684303  2                  9
Y605571210045088930636MORALES                    GIRON                      LUCIA GUADALUPE            00000000000000003092017     020000009703103  2                  9
Y605571210045129231390MUÒOZ                      PEDRERO                    SILVIA ANGELICA            00000000000000004092017     020000009710903  2                  9
Y605571210042018004012LOPEZ                      BOCARDO                    HUGO RAFAEL                00000000000000004092017     020000009717803  2                  9
Y605571210092957673863TORRES                     PE—ALOZA                   JOSE ALBERTO               00000000000000004092017     020000015203903  2                  9
Y605571210025149306927OCA—A                      GURROLA                    ERICK                      00000000000000001092017     020000015212103  2                  9
Y605571210042806306033GARRIDO                    GARCIA                     SAUL                       00000000000000001092017     020000015218703  2                  9
Y605571210043089329346PEREYRA                    MARTINEZ                   JOSE ALONSO                00000000000000004092017     020000019082303  2                  9
Y605571210047058931826FLORES                     FACUNDO                    JESUS CARLOS               00000000000000004092017     020000019082503  2                  9
Y605571210018159236951VICENCIO                   JUAREZ                     JORGE LUIS                 00000000000000003092017     020000019115803  2                  9
Y605571210018179744687RAMIREZ                    VIDAL                      HECTOR DANIEL              00000000000000001092017     020000019118303  2                  9
Y605571210043765518097FERNANDEZ                  LOPEZ                      SANTOS                     00000000000000002092017     020000019119203  2                  9
Y605571210008148321519FELIPE                     GUTIERREZ                  LETICIA                    00000000000000004092017     020000019119503  2                  9
Y605571210010149480708COSCATL                    CORIA                      APOLINAR                   00000000000000001092017     020000019121603  2                  9
Y605571210043917446643CASTA—ON                   COMPEAN                    ENRIQUE                    00000000000000004092017     020000019123403  2                  9
Y605571210043109447847RANGEL                     NICOLAS                    SILVERIO                   00000000000000004092017     020000019124103  2                  9
Y605571210018179664786VILLATE                    RAMOS                      JUAN DANIEL                00000000000000004092017     020000019124203  2                  9
Y605571210035149687374LARA                       CLAUDIO                    MIGUEL ALEJANDRO           00000000000000004092017     020000023044703  2                  9
Y605571210001138868755RAMOS                      HERNANDEZ                  ANA ISABEL                 00000000000000004092017     020000023046503  2                  9
Y605571210067056702060MEJIA                      ALTAMIRANO                 GABRIEL MANUEL             00000000000000004092017     020000023049403  2                  9
Y605571210082058837038DE LA CRUZ                 RUIZ                       NATALIA                    00000000000000004092017     020000023051103  2                  9
Y605571210068149677459JAVIER                     HERRERA                    ANGEL                      00000000000000004092017     020000023052103  2                  9
Y605571210023007808761FLORES                     MAYORQUIN                  RAYMUNDO                   00000000000000004092017     020000025010503  2                  9
Y605571210005168410420TEYSSIER                   RODRIGUEZ                  RAFAEL                     00000000000000001092017     020000029006903  2                  9
Y605571210067947451083OROZCO                     HERNANDEZ                  ANIBAL                     00000000000000003092017     020000030134703  2                  9
Y605571210003148922697SANTIAGO                   SANTOS                     ANA MARINA                 00000000000000003092017     020000030141603  2                  9
Y605571210002178513269MARTIN                     REGALADO                   LIZ YESENIA                00000000000000003092017     020000030147003  2                  9
Y605571210065088432375SALAS                      MENDEZ                     SILVIO EDUARDO             00000000000000003092017     020000030151303  2                  9
Y605571210067119144854SOTO                       DAVILA                     GABRIEL ANTONIO            00000000000000003092017     020000030152403  2                  9
Y605571210021129458879MEDINA                     BLANCO                     FLAVIO ISAI                00000000000000003092017     020000030153703  2                  9
