Y605571210082068705118CRUZ                       MALPICA                    LUIS ANGEL                 00000000000000008112016     020000004006803  2                  9
Y605571210003159294341APARICIO                   CANO                       CARLOS                     00000000000000003112016     020000009626003  2                  9
Y605571210037048514808OROZCO                     MATEO                      VICTOR ALFONSO             00000000000000002112016     020000009634803  2                  9
Y605571210039048404477LUCAS                      PATI—O                     JUAN                       00000000000000004112016     020000009641503  2                  9
Y605571210096098944661RUIZ                       TEJADA                     SAMANTA                    00000000000000006112016     020000009642003  2                  9
Y605571210096139232514GONZALEZ                   CAÒONGO                    MARIELLY                   00000000000000004112016     020000009650203  2                  9
Y605571210082129517353DZUL                       UC                         DENNYS MANUEL              00000000000000007112016     020000023037003  2                  9
Y605571210083057801769GONZALEZ                   MARTINEZ                   MIGUEL ANGEL               00000000000000008112016     020000027052203  2                  9
Y605571210083048304691PALACIO                    GARCIA                     ADAN                       00000000000000008112016     020000027055903  2                  9
Y605571210049866108977HERNANDEZ                  ALVAREZ                    EUSTACIO                   00000000000000002112016     020000028032803  2                  9
Y605571210049856542581PUGA                       DELGADO                    GERMAN                     00000000000000002112016     020000028034803  2                  9
Y605571210072138707160SUAREZ                     MERLAN                     JOSE NOE                   00000000000000006112016     020000028035703  2                  9
Y605571210067058802405AGUIRRE                    MENDEZ                     JOSE MANUEL                00000000000000002112016     020000030115503  2                  9
Y605571210067917515420CHARREZ                    BAUTISTA                   ROBERTO                    00000000000000002112016     020000030115703  2                  9
Y605571210078906719964PALMA                      ROSAS                      JESUS MACARIO              00000000000000002112016     020000030116103  2                  9
Y605571210003149189395TRINIDAD                   GRANDA                     NANCY YARELY               00000000000000002112016     020000030119803  2                  9
Y605571210065027304909RIVERA                     VITE                       SANTIAGO                   00000000000000008112016     020000030121403  2                  9
Y605571210002167470190HERNANDEZ                  HEREDIA                    IRENE                      00000000000000008112016     020000030121903  2                  9
Y605571210065097701356JUAREZ                     HERNANDEZ                  CLAUDIA                    00000000000000008112016     020000030123703  2                  9
Y605571210065068912347AQUINO                     ESPINOZA                   REYNALDO                   00000000000000008112016     020000030123903  2                  9
