R143868210325149155860ALVAREZ                    MORALES                    DIEGO                      00000000000000009092016     020000014002302  2                  9
R143868210320078821145DORANTES                   DIAZ                       HUGO                       00000000000000008092016     020000014118603  2                  9
R143868210356139413761VITE                       ESTRADA                    HARVEY YAMIL               00000000000000009092016     020000014119103  2                  9
