Y605571210032998296266DEGOLLADO                  PADILLA                    FELIPE DE JESUS            00000000000000017072017     020000005013203  2                  9
Y605571210010159425858CRUZ                       VILLA                      UBALDO                     00000000000000017072017     020000009608003  2                  9
Y605571210045129104399ROMERO                     DAVILA                     FERNANDO                   00000000000000015072017     020000009708403  2                  9
Y605571210092128705875TRUJILLO                   GUTIERREZ                  CARLOS GERMAN              00000000000000013072017     020000009718603  2                  9
Y605571210094098501094HERRERA                    LOPEZ                      OMAR                       00000000000000017072017     020000015002502  2                  9
Y605571210045907219419SANCHEZ                    REYES                      JOSE AGUSTIN               00000000000000017072017     020000015146703  2                  9
Y605571210094109279649CORREA                     SANCHEZ                    ERIK JONATHAN              00000000000000014072017     020000015188403  2                  9
Y605571210094057802616BAUTISTA                   SOTO                       JANET                      00000000000000017072017     020000015195803  2                  9
Y605571210094907219979MACIAS                     RODRIGUEZ                  FELIPE                     00000000000000016072017     020000015195903  2                  9
Y605571210092907065947MARTINEZ                   GONZALEZ                   SAN JUANA                  00000000000000016072017     020000015199103  2                  9
Y605571210043917454381NAVARRO                    LUNA                       FRANCISCO ROGELIO          00000000000000017072017     020000019070903  2                  9
Y605571210009068892778ROJAS                      ABREGO                     JUAN CARLOS                00000000000000017072017     020000019118403  2                  9
Y605571210082058416189MOO                        CHUC                       MARCIAL                    00000000000000017072017     020000023042803  2                  9
Y605571210083129360034ROMERO                     ESCALANTE                  FRANCISCO                  00000000000000017072017     020000023048103  2                  9
Y605571210083058528585MONTEJO                    RAMIREZ                    CRISTOBAL                  00000000000000017072017     020000023048503  2                  9
Y605571210082058003508REYES                      GARCIA                     EDUARDO                    00000000000000017072017     020000023048903  2                  9
Y605571210023785916455SANCHEZ                    MONJARDIN                  SAUL IGNACIO               00000000000000017072017     020000025014203  2                  9
Y605571210058169738521RODRIGUEZ                  CORONEL                    CHARLIS                    00000000000000017072017     020000027062003  2                  9
Y605571210083129306425VIDAL                      MIRANDA                    MARIO                      00000000000000017072017     020000027062603  2                  9
Y605571210049886516951GARCIA                     FRANCISCO                  CARLOS                     00000000000000016072017     020000028021703  2                  9
Y605571210049957015651CANO                       CONDE                      FERMIN                     00000000000000016072017     020000028022603  2                  9
Y605571210009037608628ZAPETA                     LOPEZ                      HECTOR                     00000000000000016072017     020000028029203  2                  9
Y605571210002165516176REYES                      MELIAN                     JUAN MANUEL                00000000000000016072017     020000028032103  2                  9
Y605571210049836370921RAZO                       AGUILAR                    SIMON PEDRO                00000000000000016072017     020000028033103  2                  9
Y605571210049976306511SALAS                      CORTES                     LEOPOLDO ANICETO           00000000000000016072017     020000028033503  2                  9
Y605571210003816304467GOVEA                      CARREON                    ILDEFONSO                  00000000000000016072017     020000028038103  2                  9
Y605571210002155833227ESTRADA                    MARTINEZ                   TIRZO RAMON                00000000000000016072017     020000028041703  2                  9
