Y605571210071018331919SOTO                       MENDEZ                     JOAQUIN                    00000000000000016042016     020000007013803  2                  9
Y605571210012128508327VARGAS                     LOA                        JOSE DE JESUS              00000000000000016042016     020000009519003  2                  9
Y605571210007896708067ESLAVA                     VARGAS                     RICARDO                    00000000000000015042016     020000009569003  2                  9
Y605571210020008104232RUIZ                       TOLENTINO                  BENITO                     00000000000000016042016     020000009590603  2                  9
Y605571210019169698388BOLLAS                     ZAMORA                     JOSE ALBERTO               00000000000000015042016     020000009607103  2                  9
Y605571210012066305520CARRILLO                   GOMEZ                      ALFREDO                    00000000000000018042016     020000011081603  2                  9
Y605571210020068511250MACHUCHO                   MACARIO                    FERNANDO                   00000000000000016042016     020000011082303  2                  9
Y605571210092119293808BADILLO                    ECHEVERRIA                 ANAHI                      00000000000000012042016     020000013011403  2                  9
Y605571210054008404433NORZAGARAY                 MONTES                     CRUZ ALBERTO               00000000000000016042016     020000014001302  2                  9
Y605571210092068845897SANTILLAN                  ORTEGA                     SERGIO ALBERTO             00000000000000014042016     020000015161103  2                  9
Y605571210018169697630GARCIA                     LOPEZ                      ALDO                       00000000000000013042016     020000015167703  2                  9
Y605571210023898182000FELIX                      PARDO                      MARIO                      00000000000000018042016     020000019002003  2                  9
Y605571210023898182000FELIX                      PARDO                      MARIO                      00000000000000018042016     020000019002003  2                  9
Y605571210023898182000FELIX                      PARDO                      MARIO                      00000000000000018042016     020000019002003  2                  9
Y605571210013089210242VAZQUEZ                    DUARTE                     MICHAEL                    00000000000000018042016     020000022040703  2                  9
Y605571210010169617494RODRIGUEZ                  NAVA                       PABLO                      00000000000000018042016     020000022041403  2                  9
Y605571210083048433219DE LA CRUZ                 SANCHEZ                    MANACES                    00000000000000016042016     020000027044603  2                  9
Y605571210083018005856HERNANDEZ                  DE LOS SANTOS              MARIA DEL CARMEN           00000000000000016042016     020000027053103  2                  9
Y605571210083089013532TRINIDAD                   DE LA CRUZ                 CHRISTOPHER MICHAEL        00000000000000016042016     020000027054003  2                  9
Y605571210049926611507ABUNDIS                    GARCIA                     ANTONIO                    00000000000000018042016     020000028024803  2                  9
Y605571210067947750757LORENZO                    SANTAMAN                   ULISES                     00000000000000014042016     020000030066303  2                  9
Y605571210067906727283PEREZ                      HERNANDEZ                  ALEJANDRO                  00000000000000016042016     020000030099703  2                  9
Y605571210065988129188TOTO                       SOSME                      JORGE                      00000000000000018042016     020000030103903  2                  9
Y605571210032119344227CASTRO                     AVENDAÑO                   ALFREDO                    00000000000000016042016     020000030106903  2                  9
