Y605571210032967983704BAZALDUA                   GAMEZ                      JOSE DEL REFUGIO           00000000000000001022017     020000005012303  2                  9
Y605571210045988051749PINEDA                     MARTINEZ                   GUADALUPE                  00000000000000002022017     020000009036302  2                  9
Y605571210011796111638GARCIA                     RODRIGUEZ                  MARIO                      00000000000000002022017     020000009656503  2                  9
Y605571210020987820618DIAZ                       VARGAS                     JORGE ALBERTO              00000000000000001022017     020000009660403  2                  9
Y605571210096119104741MARTINEZ                   MARBAN                     CARLOS IGNACIO             00000000000000001022017     020000009660603  2                  9
Y605571210046169573667ROJAS                      MARTINEZ                   MARY KARLA                 00000000000000002022017     020000009670203  2                  9
Y605571210096056601394ALVAREZ                    BURGOS                     ROGELIO                    00000000000000002022017     020000009671903  2                  9
Y605571210096139612962MARTINEZ                   GASCA                      MIGUEL ANGEL               00000000000000001022017     020000009675903  2                  9
Y605571210039947749337HERRERA                    NERIA                      OLGA                       00000000000000001022017     020000009679303  2                  9
Y605571210010149402140COLIN                      SANCHEZ                    CARLOS EMILIO              00000000000000001022017     020000009679803  2                  9
Y605571210049169897151MERCENARIO                 PROCOPIO                   LUIS DAVID                 00000000000000001022017     020000011085903  2                  9
Y605571210003967830872CARDENAS                   LOPEZ                      JAVIER                     00000000000000002022017     020000019085503  2                  9
Y605571210065078432393GUERRERO                   GARCIA                     GLORIA                     00000000000000002022017     020000019088203  2                  9
Y605571210043876207465SILVA                      LARA                       FELICIANO                  00000000000000002022017     020000019089203  2                  9
Y605571210041997926179 RODRIGUEZ                 PAZARAN                    MIZAEL                     00000000000000002022017     020000019096503  2                  9
Y605571210005168530367MONTOYA                    VITALES                    CLARIBEL                   00000000000000002022017     020000019097103  2                  9
Y605571210043028703007MENDEZ                     CISNEROS                   MANUEL ISRAEL              00000000000000002022017     020000019097703  2                  9
Y605571210043139206338CARMONA                    MARTINEZ                   MONICA ALEJANDRA           00000000000000002022017     020000019101003  2                  9
Y605571210014109453002SANTIAGO                   GUERRERO                   DIANA LAURA                00000000000000001022017     020000022046903  2                  9
Y605571210083109121489CORDOVA                    CLEMENTE                   ESMERALDA                  00000000000000002022017     020000023025603  2                  9
Y605571210025169250807GUTIERREZ                  VILLEGAS                   GUADALUPE                  00000000000000001022017     020000023038303  2                  9
Y605571210024855901989RAMOS                      SANCHEZ                    ALMA ROSA                  00000000000000002022017     020000025008603  2                  9
Y605571210002169804487FERMIN                     PEREZ                      PERLA YADIRA               00000000000000001022017     020000028038603  2                  9
Y605571210067976725530MARTINEZ                   MENDEZ                     ROBERTO ONESIMO            00000000000000001022017     020000030085503  2                  9
Y605571210067099208869PERFECTO                   RODRIGUEZ                  ENRIQUE                    00000000000000001022017     020000030094903  2                  9
Y605571210065937205220CASTILLO                   GUZMAN                     ROBERTO                    00000000000000001022017     020000030104303  2                  9
Y605571210065965805032TEPO                       HERNANDEZ                  JUAN VENANCIO              00000000000000001022017     020000030128503  2                  9
Y605571210092998158452ALARCON                    MUNGUIA                    MIGUEL ALFREDO             00000000000000001022017     020000030133503  2                  9
