Y605571210006169709182TUFIÒO                     MADARIAGA                  FRANCISCO JAVIER           00000000000000015082016     020000009635903  2                  9
Y605571210016856200643DE LA CRUZ                 MARTINEZ                   SALVADOR                   00000000000000015082016     020000015143803  2                  9
Y605571210016048552612CABALLERO                  SAUCEDO                    MARIA NANCY                00000000000000015082016     020000015173003  2                  9
Y605571210053057606542SALAZAR                    ROSALES                    ISRAEL                     00000000000000015082016     020000015173103  2                  9
Y605571210023937403733VALENZUELA                 ZEPEDA                     JOSE ANTONIO               00000000000000015082016     020000025003803  2                  9
Y605571210023139330866SALAZAR                    OLMEDA                     JOSE JUAN                  00000000000000012082016     020000025005803  2                  9
