Y605571210016139489385VALDEZ                     REYES                      MIGUEL ANGEL               00000000000000019072016     020000015171203  2                  9
Y605571210016139489385VALDEZ                     REYES                      MIGUEL ANGEL               00000000000000019072016     020000015171203  2                  9
Y605571210016139489385VALDEZ                     REYES                      MIGUEL ANGEL               00000000000000019072016     020000015171203  2                  9
Y605571210014088917811GODINEZ                    TRUEBA                     MIGUEL ANGEL               00000000000000022072016     020000022043503  2                  9
Y605571210065088819837LARA                       PIO                        JUAN FERNANDO              00000000000000022072016     020000022045403  2                  9
Y605571210014876404311MAQUEDA                    GUEVARA                    ARMANDO ALEJANDRO          00000000000000022072016     020000022045903  2                  9
Y605571210034088407696GOMEZ                      HERNANDEZ                  JUAN CARLOS                00000000000000022072016     020000022047803  2                  9
