A836767410978855900912MARTINEZ                   ORTIZ                      DANIEL                     00000000000000017042017     020000008049303  2                  9
A836767410923069115139RAMIREZ                    TELLES                     MOISES                     00000000000000017042017     020000008071803  2                  9
A836767410933119420009CHAVEZ                     IBARRA                     PEDRO EFRAIN               00000000000000015042017     020000008073203  2                  9
