A836767410921129474504SANCHEZ                    CABRALES                   CHRISTOPHER MAGDALENO      00000000000000009052017     020000002053103  2                  9
A836767410972877300953SALGADO                    VAZQUEZ                    DAVID                      00000000000000012052017     020000002053703  2                  9
A836767410918169320746YAÑEZ                      ESPINO                     EYDER JAVIER               00000000000000015052017     020000008071603  2                  9
A836767410931038611047JIMENEZ                    ALCALA                     MAURICIO                   00000000000000015052017     020000008073603  2                  9
