Y605571210018159582180MARTINEZ                   PAVANA                     GONZALO                    00000000000000024072017     020000015163203  2                  9
Y605571210094129138486RESENDIZ                   CERVANTES                  JOSE AGUSTIN               00000000000000024072017     020000015206603  2                  9
Y605571210009068990077CONTRERAS                  SILVA                      LAURA ALEXANDRA            00000000000000022072017     020000015211603  2                  9
Y605571210094118302879GUERRERO                   GARCIA                     ROCIO MIREYA               00000000000000021072017     020000015214703  2                  9
Y605571210043846622587HEREDIA                    BERNAL                     LUCIO                      00000000000000021072017     020000019074703  2                  9
Y605571210067119409984ORTIZ                      DIAZ                       CANDELARIA GYSELL          00000000000000022072017     020000019114703  2                  9
Y605571210050159729685SANTIAGO                   MARTINEZ                   ENRIQUE MARTIN             00000000000000022072017     020000019117403  2                  9
Y605571210010159167070MORA                       GUZMAN                     LUZ CONSUELO               00000000000000022072017     020000025000202  2                  9
Y605571210048117704758MARTINEZ                   PASCUAL                    VALENTIN                   00000000000000024072017     020000030134303  2                  9
Y605571210067129227681CARRERA                    AGUILAR                    ANAYELLI                   00000000000000022072017     020000030145303  2                  9
