A836767410933907354873REYES                      GALLEGOS                   MARIO ALBERTO              00000000000000030112016     020000008048103  2                  9
A836767410933927325481RAMIREZ                    GONZALEZ                   JOSE LUIS                  00000000000000030112016     020000008060903  2                  9
A836767410933117100470VAZQUEZ                    VILLA                      DAVID ALEJANDRO            00000000000000030112016     020000008064403  2                  9
A836767410933048860572LOPEZ                      GUZMAN                     JOSE ARTURO                00000000000000030112016     020000008065703  2                  9
A836767410933109209222MORENO                     VIDALES                    JUAN MANUEL                00000000000000030112016     020000008066203  2                  9
A836767410974159736268MORENO                     VIDALES                    BRAYAN HIPOLITO            00000000000000030112016     020000008066303  2                  9
