Y605571210051947954205ORTIZ                      TORRES                     FERNANDO                   00000000000000020062017     020000001009603  2                  9
Y605571210019148818412FLORES                     RAMIREZ                    MANUEL                     00000000000000021062017     020000009538103  2                  9
Y605571210078109107470BAUTISTA                   CRUZ                       VICTOR MANUEL              00000000000000021062017     020000009692303  2                  9
Y605571210017179750207ARROYO                     ARREOLA                    DIANA YAMILE               00000000000000025062017     020000009709403  2                  9
Y605571210025179812638ESTRADA                    HERNANDEZ                  CRISTHIAN CARLOS           00000000000000020062017     020000009712203  2                  9
Y605571210003178913616BADILLO                    GONZALEZ                   KAREN ADRIANA              00000000000000026062017     020000015204303  2                  9
Y605571210092038625544GARCIA                     OSNAYA                     ALEJANDRO                  00000000000000024062017     020000015211703  2                  9
Y605571210053139608300SANCHEZ                    OSORIO                     BRYAND                     00000000000000026062017     020000016010903  2                  9
Y605571210043109309807VAZQUEZ                    ROJAS                      JOSE ANTONIO               00000000000000024062017     020000019002302  2                  9
Y605571210083118305842LOPEZ                      DE LA CRUZ                 MAGALYS                    00000000000000025062017     020000019101403  2                  9
Y605571210043078983624TORRES                     MEAVE                      VICTOR VIDAL               00000000000000024062017     020000019103503  2                  9
Y605571210043806413365VAZQUEZ                    FRANCO                     JORGE                      00000000000000024062017     020000019114903  2                  9
Y605571210021048114488ALMARAZ                    MIRANDA                    MARCOS                     00000000000000026062017     020000022059003  2                  9
Y605571210014025600710ALACIO                     CHAVEZ                     MARCOS VINICIO             00000000000000025062017     020000022059203  2                  9
Y605571210071866601421GUILLEN                    PEREZ                      ARIOSTO                    00000000000000024062017     020000023046803  2                  9
Y605571210023856513942RODRIGUEZ                  SANCHEZ                    VICTOR MANUEL              00000000000000026062017     020000025017503  2                  9
Y605571210017149415394CABRERA                    GARCIA                     JORGE LUIS                 00000000000000026062017     020000027062803  2                  9
Y605571210009018421983OBREGON                    MARTINEZ                   HECTOR JESUS               00000000000000026062017     020000028041303  2                  9
