Y605571210015077503389GARCIA                     SANCHEZ                    EDGAR                      00000000000000031072016     020000002049703  2                  9
Y605571210081119304000GOMEZ                      CARRASCO                   JOSE                       00000000000000001082016     020000007015503  2                  9
Y605571210001886800018ROMERO                     HUESCA                     CLAUDIO JOAQUIN            00000000000000001082016     020000009038002  2                  9
Y605571210020129626246VALDOVINOS                 FLORES                     YAIR URIEL                 00000000000000002082016     020000009609703  2                  9
Y605571210090917324676GOMEZ                      RIVERA                     ARMANDO                    00000000000000001082016     020000009617103  2                  9
Y605571210045068755250GUTIERREZ                  PADRON                     JULIO ADRIAN               00000000000000002082016     020000009619603  2                  9
Y605571210037006600516SAN MIGUEL                 PINEDA                     JUAN MANUEL                00000000000000002082016     020000009620303  2                  9
Y605571210092906936163SALINAS                    MENDEZ                     MARIO                      00000000000000031072016     020000009624103  2                  9
Y605571210096048532160FRANCO                     BECERRIL                   IGNACIO FIDEL              00000000000000001082016     020000009627003  2                  9
Y605571210045008241866HERNANDEZ                  FUENTES                    JOSE ANTONIO               00000000000000001082016     020000009629403  2                  9
Y605571210045008241866HERNANDEZ                  FUENTES                    JOSE ANTONIO               00000000000000001082016     020000009629403  2                  9
Y605571210030947318223FLORES                     ESCANDON                   FRANCISCO                  00000000000000002082016     020000009631303  2                  9
Y605571210012796135684ESPARZA                    LOPEZ                      HECTOR MANUEL              00000000000000001082016     020000011082703  2                  9
Y605571210054169769434ESCOTO                     CANO                       LUIS ANGEL                 00000000000000001082016     020000011084703  2                  9
Y605571210012109153879BOLAÑOS                    RIVERA                     TOMAS                      00000000000000001082016     020000011086803  2                  9
Y605571210068149527001VELA                       GUZMAN                     SAUL                       00000000000000002082016     020000016006403  2                  9
Y605571210043927604587CASTAÑEDA                  GONZALEZ                   JOSE PEDRO                 00000000000000002082016     020000019084403  2                  9
Y605571210083129328114HERNANDEZ                  SANCHEZ                    JOCABETH                   00000000000000002082016     020000027047003  2                  9
Y605571210021087707689RODRIGUEZ                  MERCADO                    MIGUEL                     00000000000000002082016     020000028030603  2                  9
