Y605571210039927379857RODRIGUEZ                  VAZQUEZ                    ROCIO ELENA                00000000000000028032017     020000009040402  2                  9
Y605571210028048407531PLATA                      GARCIA                     PEDRO ABRAHAM              00000000000000029032017     020000009686303  2                  9
Y605571210071038118635IBARIAS                    GONZALEZ                   DIDIER                     00000000000000029032017     020000009691403  2                  9
Y605571210094038417153RAMIREZ                    ROMERO                     LUIS ENRIQUE               00000000000000025032017     020000009691603  2                  9
Y605571210092139510462PONCE                      TORRES                     AARON                      00000000000000028032017     020000015138803  2                  9
Y605571210043048861470ROJAS                      AMARO                      LAURA STEPHANIE            00000000000000029032017     020000019100203  2                  9
Y605571210045968028931OPENGO                     RUIZ                       CHRISTIAN MAR              00000000000000028032017     020000022001902  2                  9
Y605571210014028540962HERNANDEZ                  JUAREZ                     MIGUEL ANGEL               00000000000000028032017     020000022059303  2                  9
Y605571210067058734574TREJO                      GONZALEZ                   AHIAS MISAEL               00000000000000029032017     020000030141403  2                  9
Y605571210078109200259REBOLLEDO                  DIAZ                       ENRIQUE DE JESUS           00000000000000028032017     020000030142803  2                  9
