Y605571210094088802759URIBE                      MARTINEZ                   YAIR EDUARDO               00000000000000006022019     020000009639803  2                  9
Y605571210003907240778VILLA                      DE LA CRUZ                 MARISOL                    00000000000000011032019     020000019003802  2                  9
Y605571210009099024417PALOMARES                  CEDILLO                    EDUARDO                    00000000000000007022019     020000028044503  2                  9
