R143868210304129176006MELCHOR                    DEL ANGEL                  JONATHAN                   00000000000000019082017     020000014107503  2                  9
R143868210357159680164GARCIA                     GARCIA                     DANIEL                     00000000000000019082017     020000014135303  2                  9
R143868210363169204235DE ASIS                    NEMECIO                    AMBROCIO                   00000000000000019082017     020000014136103  2                  9
