A482760210352078901916CORONADO                   TREJO                      RAFAEL DE JESUS            00000000000000004122016     020000006002903  2                  9
A482760210352089000526RODRIGUEZ                  HERNANDEZ                  ADAN                       00000000000000004122016     020000006003103  2                  9
A482760210352128700797OSEGUERA                   MENDOZA                    JOSE EDUARDO               00000000000000004122016     020000006003303  2                  9
A482760210352139408075AVALOS                     AMEZCUA                    JAIME                      00000000000000004122016     020000006003603  2                  9
A482760210352967907552MEDINA                     RAMIREZ                    CLAUDIA MIREYA             00000000000000004122016     020000006003803  2                  9
A482760210352075700212SANCHEZ                    GOMEZ                      JOSE RAFAEL                00000000000000004122016     020000006003903  2                  9
A482760210304906203155FIGUEROA                   OROZCO                     JOSE LUIS                  00000000000000004122016     020000006004203  2                  9
A482760210352977808691RAMIREZ                    CASILLAS                   SAUL                       00000000000000004122016     020000006004303  2                  9
