Z064567510812068800999TORRES                     MACIAS                     JUAN MANUEL                00000000000000019122016     020000011087303  2                  9
Z064567510822169853789CRUZ                       PAXTIAN                    MARIA ALEJANDRA            00000000000000019122016     020000011087703  2                  9
Z064567510876149601239ARROLLO                    PERALTA                    DANIEL                     00000000000000019122016     020000017042503  2                  9
