A836767410962149490435NAVARRO                    ACOSTA                     JUAN MANUEL                00000000000000031052017     020000002001002  2                  9
A836767410923856650579LOREDO                     VAZQUEZ                    FRANCISCO JAVIER           00000000000000029052017     020000002054703  2                  9
A836767410925967525319LOZA                       IBARRA                     HIGINIO                    00000000000000028052017     020000002054903  2                  9
A836767410932897298215ZAVALA                     GUTIERREZ                  EDUARDO                    00000000000000028052017     020000002055103  2                  9
