Y605571210024927645077PEREZ                      ALVAREZ                    ANGEL                      00000000000000001032017     020000009596303  2                  9
Y605571210045987719783GALICIA                    XOLALPA                    CONCEPCION                 00000000000000028022017     020000009671303  2                  9
Y605571210027159209702RANGEL                     RIVERA                     HUGO ORLANDO               00000000000000001032017     020000009683303  2                  9
Y605571210022139825933SOLIS                      AVILA                      AMERICA ABIGAIL            00000000000000027022017     020000015190003  2                  9
Y605571210026169549776LOPEZ                      PE—A                       MIGUEL ANGEL               00000000000000001032017     020000015190603  2                  9
Y605571210016048419077FLORES                     SANTAMARIA                 YESICA                     00000000000000001032017     020000015190703  2                  9
Y605571210002177821721ROMERO                     TURIN                      REBECA                     00000000000000027022017     020000015193603  2                  9
Y605571210002166827937ZALETA                     GONZALEZ                   CRISPIN                    00000000000000001032017     020000019077303  2                  9
Y605571210043988149217MALAGON                    HERNANDEZ                  RODRIGO                    00000000000000001032017     020000019093503  2                  9
Y605571210014119309681PATIÒO                     ALVAREZ                    FRANCISCO JAVIER           00000000000000001032017     020000022054703  2                  9
Y605571210053038538723QUEVEDO                    ZEPEDA                     RAMIRO                     00000000000000001032017     020000028038803  2                  9
