Y605571210030927111580AVILES                     GALVEZ                     ALFREDO                    00000000000000023082016     020000009038102  2                  9
Y605571210008148417663RODRIGUEZ                  MACEDO                     ENRIQUE                    00000000000000023082016     020000009566803  2                  9
Y605571210045139421395MERINO                     PEDRO                      RAMON ALBERTO              00000000000000023082016     020000009619803  2                  9
Y605571210096028420790GARZON                     GARCIA                     ROBERTO ANTONIO            00000000000000029082016     020000009637403  2                  9
Y605571210001856755960MARIN                      PINEDO                     DAVID CRISTOBAL            00000000000000023082016     020000015123703  2                  9
Y605571210094119226507GONZALEZ                   MORO                       ANDRES FAUSTINO            00000000000000026082016     020000015173303  2                  9
Y605571210016068518386HERRERA                    ARCOS                      JOSE GUILLERMO             00000000000000028082016     020000015174503  2                  9
Y605571210042917335459AYALA                      VILLARRUEL                 CLARA                      00000000000000023082016     020000015180403  2                  9
Y605571210013079110501MONTOYA                    RODRIGUEZ                  JOSE GABRIEL               00000000000000029082016     020000015181203  2                  9
Y605571210051028536616RIVERA                     BECERRA                    OSCAR OMAR                 00000000000000028082016     020000016007203  2                  9
Y605571210017149519724TORRES                     CASTAÑEDA                  FLAVIO CESAR               00000000000000028082016     020000016007803  2                  9
Y605571210003159542582VELAZQUEZ                  CRISOSTOMO                 DIANA LIZBETH              00000000000000024082016     020000023030103  2                  9
Y605571210083997307406GOMEZ                      HERNANDEZ                  ARACELI                    00000000000000025082016     020000023030903  2                  9
Y605571210082977917002BURGOS                     CABRERA                    JESUS ARTURO               00000000000000023082016     020000023031803  2                  9
Y605571210023927503435HERNANDEZ                  DIAZ                       JOSE FRANCISCO             00000000000000023082016     020000025005403  2                  9
Y605571210049977138749GARCIA                     MARCOS                     RODRIGO                    00000000000000027082016     020000030074403  2                  9
