Y605571210051109113889RODRIGUEZ                  PEREZ                      ISMAEL                     00000000000000025112016     020000001002503  2                  9
Y605571210030947706765MENDEZ                     TORRES                     SUSANA                     00000000000000028112016     020000009036602  2                  9
Y605571210078119539662RIVERA                     LOPEZ                      ANGELICA JAZMIN            00000000000000028112016     020000009646703  2                  9
Y605571210013169894717MENDOZA                    RUIZ                       JESUS                      00000000000000024112016     020000009649203  2                  9
Y605571210039957705062GALAN                      DIAZ                       JUAN DE DIOS               00000000000000025112016     020000009656103  2                  9
Y605571210041129419960MARTINEZ                   HERNANDEZ                  BENIGNO                    00000000000000024112016     020000009657603  2                  9
Y605571210003168347247SANCHEZ                    GARCIA                     TANIA                      00000000000000028112016     020000009660303  2                  9
Y605571210090977840819RODRIGUEZ                  ARGAEZ                     EINERD OMAR                00000000000000029112016     020000015002202  2                  9
Y605571210092109161809APODACA                    MORENO                     FERNANDO                   00000000000000024112016     020000015185703  2                  9
Y605571210055089004786CASAS                      LOPEZ                      OMAR ALEJANDRO             00000000000000025112016     020000018001103  2                  9
Y605571210018169777853SANCHEZ                    HERNANDEZ                  MEHIDA YUSET               00000000000000024112016     020000023039103  2                  9
Y605571210023917532162VALDERRAMA                 VEGA                       JAZMIN DE JESUS            00000000000000030112016     020000025004003  2                  9
Y605571210078138503111RINCON                     BRAVO                      LEONEL                     00000000000000024112016     020000030113003  2                  9
