Y605571210004138842556GUTIERREZ                  ENRIQUEZ                   JOSE MANUEL                00000000000000028042016     020000014098503  2                  9
Y605571210018169697630GARCIA                     LOPEZ                      ALDO                       00000000000000025042016     020000015167703  2                  9
Y605571210084907020741PICAZO                     BARRERAS                   FAUSTO EDUARDO             00000000000000027042016     020000015170203  2                  9
Y605571210032089161460PEREZ                      ZUÑIGA                     JUAN JESUS                 00000000000000025042016     020000019076103  2                  9
Y605571210003168903973MARTINEZ                   FRANCISCO                  ADRIANA                    00000000000000026042016     020000022040903  2                  9
Y605571210012108702437VEGA                       RAMIREZ                    JORGE FRANCISCO            00000000000000025042016     020000022041903  2                  9
Y605571210082886707288ALARCON                    DEGANTE                    LIBRADO                    00000000000000023042016     020000023024703  2                  9
