Y605571210096058748334ROJAS                      TENORIO                    DAGOBERTO                  00000000000000008072016     020000009622303  2                  9
Y605571210071099303506CORDERO                    AGUIRRE                    JOSE DANIEL                00000000000000008072016     020000015142103  2                  9
Y605571210043745511865MARQUEZ                    CUARENTA                   RODOLFO                    00000000000000004072016     020000019033103  2                  9
Y605571210032048605979PUENTE                     FLORES                     JESUS EDUARDO              00000000000000004072016     020000019081403  2                  9
Y605571210083129433567HERNANDEZ                  GARCIA                     JOSE EDUARDO               00000000000000008072016     020000027051803  2                  9
Y605571210009139485370SANCHEZ                    PEREZ                      PAULINO                    00000000000000008072016     020000028012503  2                  9
