Y605571210045129357229FLORES                     TELLEZ                     PEDRO JESUS                00000000000000029092016     020000009585103  2                  9
Y605571210017169166414GARCIA                     SANTOS                     MARIA ELENA                00000000000000027092016     020000009646903  2                  9
Y605571210096907230963GIL                        MORAN                      MOISES RUFINO              00000000000000027092016     020000009647403  2                  9
