Y605571210096119242954GUZMAN                     ANTONIO                    RICARDO                    00000000000000007072016     020000009605303  2                  9
Y605571210030056900555PINEDA                     DIAZ                       SERGIO                     00000000000000004072016     020000009618703  2                  9
Y605571210003146569649SALDAÒA                    CRUZ                       IRMA SANDRA                00000000000000007072016     020000009625003  2                  9
Y605571210090129116365SALAZAR                    ALVARADO                   RICARDO DE JESUS           00000000000000004072016     020000015076303  2                  9
Y605571210081038300810OLIVA                      NARANJO                    SAMUEL                     00000000000000007072016     020000028032403  2                  9
