Y605571210021008400174LANDA                      MAGAÑA                     MIGUEL ANGEL               00000000000000001102016     020000002050503  2                  9
Y605571210096927438976LUNA                       NORIEGA                    JULIO                      00000000000000001102016     020000009590203  2                  9
Y605571210012795817316RODRIGUEZ                  BELTRAN                    PEDRO                      00000000000000001102016     020000011082203  2                  9
Y605571210012826440690MORALES                                               RAUL                       00000000000000001102016     020000011088703  2                  9
Y605571210013089107802MENDEZ                     CORONA                     YESENIA                    00000000000000001102016     020000013012403  2                  9
Y605571210010169210365CAMPOS                     AYALA                      OLIVIA NAYELI              00000000000000001102016     020000013012503  2                  9
Y605571210016088966276VALDES                     OCHOA                      ADRIANA                    00000000000000003102016     020000015170403  2                  9
Y605571210018159533522DIAZ                       MARTINEZ                   JOSUE IVAN                 00000000000000003102016     020000015182003  2                  9
Y605571210025977915955LOPEZ                      SOTO                       AUDEL                      00000000000000003102016     020000018000403  2                  9
Y605571210013786011265HERRERA                    LEAÑOS                     FELIPE                     00000000000000003102016     020000019076003  2                  9
Y605571210043089091086LOPEZ                      LOPEZ                      JOSE ALFREDO               00000000000000003102016     020000019085803  2                  9
Y605571210023866706221LOPEZ                      MARTINEZ                   JUAN HUMBERTO              00000000000000001102016     020000025003003  2                  9
Y605571210083917621316RUIZ                       LARA                       MANUEL HUMBERTO            00000000000000001102016     020000027048803  2                  9
Y605571210083129125122GARCIA                     GERONIMO                   FRANCISCO JAVIER           00000000000000001102016     020000027052703  2                  9
Y605571210025169791180PEREGRINO                  CASTILLO                   CARLOS MARIO               00000000000000001102016     020000027053803  2                  9
Y605571210025169791180PEREGRINO                  CASTILLO                   CARLOS MARIO               00000000000000001102016     020000027053803  2                  9
Y605571210083139538983YSIDRO                     GERONIMO                   JOSE DARINEL               00000000000000001102016     020000027054703  2                  9
Y605571210083129328254CRUZ                       GARCIA                     ERICK                      00000000000000001102016     020000027055203  2                  9
Y605571210083129328254CRUZ                       GARCIA                     ERICK                      00000000000000001102016     020000027055203  2                  9
Y605571210083119232508FRIAS                      DIAZ                       RENE                       00000000000000001102016     020000027057003  2                  9
Y605571210083128908213VILLEGAS                   GARCIA                     BALBINA                    00000000000000001102016     020000027058203  2                  9
Y605571210083128908213VILLEGAS                   GARCIA                     BALBINA                    00000000000000001102016     020000027058203  2                  9
Y605571210083129303448MARIN                      MORALES                    DAVID                      00000000000000001102016     020000027058403  2                  9
Y605571210083129303448MARIN                      MORALES                    DAVID                      00000000000000001102016     020000027058403  2                  9
