A836767410925149243666MENDOZA                    HERNANDEZ                  SAMUEL                     00000000000000025012017     020000008039303  2                  9
A836767410933058990632ORTEGA                     GARCIA                     CLAUDIA                    00000000000000025012017     020000008068603  2                  9
A836767410935897229619ESPINOZA                   MURUATO                    NATIVIDAD                  00000000000000025012017     020000008069103  2                  9
A836767410933089055520MURO                       CERECERES                  JOSE EDUARDO               00000000000000025012017     020000008069203  2                  9
