Y605571210096927448371PATI—O                     LOZANO                     MARCOS                     00000000000000011072016     020000009618503  2                  9
Y605571210035149571438CERVANTES                  RODRIGUEZ                  MARCO ANTONIO              00000000000000011072016     020000009621103  2                  9
Y605571210096987602024DE LA PAZ                  CARMONA                    JOSE MANUEL                00000000000000011072016     020000009623003  2                  9
Y605571210009998338736IBARRA                     CABOS                      SALVADOR                   00000000000000010072016     020000013012903  2                  9
Y605571210049159767778ACUÒA                      CASTILLO                   KEILA IVON                 00000000000000010072016     020000013013303  2                  9
Y605571210009099409014SANTIAGO                   DEL ANGEL                  JOSE LUIS                  00000000000000008072016     020000019071503  2                  9
Y605571210082058308600EROSA                      CANTO                      MERCEDES DEL CARMEN        00000000000000005072016     020000023027403  2                  9
Y605571210082139104416ALBORNOZ                   CHAN                       FILIBERTO                  00000000000000007072016     020000023029803  2                  9
Y605571210072057900432FERNANDEZ                  ONTIVEROS                  ANTONIO                    00000000000000010072016     020000023030603  2                  9
Y605571210003169003930GARCIA                     OCA—A                      DULCE KARINA               00000000000000009072016     020000027052903  2                  9
