Y605571210043008411233ESPINOZA                   MOLINA                     FIDEL                      00000000000000006042017     020000019101503  2                  9
Y605571210071048211826HERNANDEZ                  PEREZ                      LAURO IVAN                 00000000000000004042017     020000023041003  2                  9
Y605571210023897221208JACOBO                     SANDOVAL                   JOSE FELIX                 00000000000000006042017     020000025006803  2                  9
Y605571210023745718355CUEN                       VELAZQUEZ                  JOSE ANTONIO               00000000000000006042017     020000025012403  2                  9
Y605571210019169589652GOMEZ                      CAMACHO                    JUAN MANUEL                00000000000000004042017     020000027059103  2                  9
Y605571210049976913373RODRIGUEZ                  MARTINEZ                   MARIANO ALEJANDRO          00000000000000006042017     020000028040003  2                  9
Y605571210067957650590GONZALEZ                   BAEZA                      JUAN ANTONIO               00000000000000006042017     020000030133203  2                  9
Y605571210067089118623JUAREZ                     BAROJAS                    LUIS DANIEL                00000000000000006042017     020000030133403  2                  9
