Y605571210010846719606SOBERANES                  MONTERRUBIO                REYES                      00000000000000006042017     020000009658403  2                  9
Y605571210003169800905HERNANDEZ                  REYES                      GIOVANI                    00000000000000008042017     020000022057103  2                  9
Y605571210049937731658CERDA                      MARTINEZ                   OMAR ALEJANDRO             00000000000000010042017     020000028039503  2                  9
Y605571210041075901383LARA                       PALMA                      ANGEL DE JESUS             00000000000000010042017     020000028040603  2                  9
Y605571210065078402255DELGADO                    SALINAS                    ABEL                       00000000000000010042017     020000030129703  2                  9
Y605571210067886100543RODRIGUEZ                  SOLANOT                    ROBERTO                    00000000000000010042017     020000030137603  2                  9
