Y607431310420957423245ROSALES                    SILVA                      OSCAR                      00000000000000017062023     020000009008503  2                  9
Y607431310445068211528MARTINEZ                   MIJANGOS                   JUAN                       00000000000000020062023     020000009024103  2                  9
Y607431310401139506651ANGELES                    DURAN                      MARCO ANTONIO              00000000000000017062023     020000009026403  2                  9
