A836767410933048794292SANCHEZ                    CASTRO                     IVAN ADRIAN                00000000000000025052016     020000008041503  2                  9
A836767410918149228365PORRAS                     ORTEGA                     AGUSTIN                    00000000000000028052016     020000008043003  2                  9
A836767410933058757874BANDA                      MERAZ                      MANUEL DE JESUS            00000000000000028052016     020000008043703  2                  9
