Y462621510948089113806JIMENEZ                    VELASCO                    JOSE EFREN                 00000000000000006042017     020000021098503  2                  9
Y462621510948088744734QUINTERO                   GORDILLO                   MIGUEL ANGEL               00000000000000005042017     020000021162703  2                  9
Y462621510962957803364GONZALEZ                   GOMEZ                      NORBERTO                   00000000000000005042017     020000021162903  2                  9
Y462621510948119034097FERNANDEZ                  FLORES                     JUAN CARLOS                00000000000000005042017     020000021166803  2                  9
Y462621510992129471444BAUTISTA                   VELAZQUEZ                  ISRAEL                     00000000000000005042017     020000021167603  2                  9
