Y607431310445088832873TORRES                     DE LUCIO                   JUAN CARLOS                00000000000000006022025     020000009017203  2                  9
Y607431310496058814128GALINDO                    LOPEZ                      ANA LAURA                  00000000000000006022025     020000009030103  2                  9
Y607431310496129623136PARRA                      DOMINGUEZ                  MARISOL                    00000000000000006022025     020000009035003  2                  9
Y607431310408158745060LOPEZ                      REYES                      MARIA ARACELI              00000000000000006022025     020000009036203  2                  9
Y607431310420078719026VARGAS                     RUIZ                       ALLAN HIRAHIR              00000000000000005022025     020000009036503  2                  9
Y607431310425170309055HERNANDEZ                  SANTOS                     JESUS RAFAEL               00000000000000005022025     020000009036603  2                  9
