Z064567510832088621241COMPEAN                    CRUZ                       JOSE LUIS                  00000000000000006032017     020000011001502  2                  9
Z064567510812836545173ALVAREZ                    LEDEZMA                    GUILLERMO                  00000000000000004032017     020000011076603  2                  9
Z064567510865028018995MALDONADO                  DURAN                      JOSE LUIS                  00000000000000006032017     020000011087803  2                  9
