Z064567510812886769848ROMO                       RODRIGUEZ                  JULIO CESAR                00000000000000007022017     020000011091103  2                  9
Z064567510812866506426NAVARRO                    MARES                      MIGUEL                     00000000000000004022017     020000011092103  2                  9
Z064567510812987807000ONTIVEROS                  JAUREGUI                   HUGO                       00000000000000003022017     020000011092603  2                  9
Z064567510867018215623CASTRO                     PALAYOT                    LORENZO ANTONIO            00000000000000004022017     020000030077303  2                  9
Z064567510865129240852MAZABA                     ALEMAN                     EDGAR                      00000000000000001022017     020000030089903  2                  9
