A836767410933106300875SOTO                       MONTES                     GERARDO                    00000000000000003042017     020000008057803  2                  9
A836767410931816518042SIQUEIROS                  VALLE                      GUSTAVO                    00000000000000003042017     020000008070403  2                  9
A836767410927149330840GONZALEZ                   CORDERO                    FLAVIO REYNALDO            00000000000000003042017     020000008070603  2                  9
A836767410903147646636LOZANIA                                               JOSE ALFREDO               00000000000000003042017     020000008071703  2                  9
A836767410933087103074SAUCEDO                    ASTORGA                    RAUL                       00000000000000003042017     020000008072003  2                  9
A836767410902168054480GUTIERREZ                                             ALBERT                     00000000000000003042017     020000008072103  2                  9
A836767410911988030240HERNANDEZ                  RUIZ                       JOEL MARTIN                00000000000000003042017     020000008072303  2                  9
