D691959010172947748181MORALES                    GUATEMALA                  HUGO                       00000000000000005102016     020000020022903  2                  9
D691959010178958023794CRUZ                       HERNANDEZ                  EFRAIN                     00000000000000005102016     020000020026503  2                  9
D691959010178088407602RODRIGUEZ                  RAMIREZ                    JOSE LUIS                  00000000000000005102016     020000020026703  2                  9
D691959010163159615945AGUILAR                    GARCIA                     ELMER MADAI                00000000000000005102016     020000020027503  2                  9
