R143868210333996707932GARCIA                     FLORES                     ARMANDO                    00000000000000003102016     020000014114303  2                  9
R143868210354796245147RAFAEL                     GOMEZ                      JOSE GUADALUPE             00000000000000001102016     020000014115603  2                  9
R143868210354776100767SOLANO                     PULIDO                     JOSE JESUS                 00000000000000001102016     020000014118903  2                  9
