Y605571210045987200909CONSTANTINO                RAMIREZ                    RODRIGO JUAN DE DIOS       00000000000000022122016     020000009661803  2                  9
Y605571210096058419373ORTIZ                      ESPARZA                    JESUS DAVID                00000000000000022122016     020000009664703  2                  9
Y605571210047119422005ALVAREZ                    SANDOVAL                   ALBERTO FAVIAN             00000000000000022122016     020000019096003  2                  9
Y605571210043028439115TICANTE                    HERRERA                    JULIO                      00000000000000022122016     020000019096603  2                  9
Y605571210065977848798QUINO                      BAXIN                      IGNACIO                    00000000000000022122016     020000022048103  2                  9
Y605571210065007815759BARRIOS                    FERNANDEZ                  JOSE ULISES                00000000000000022122016     020000022049803  2                  9
Y605571210003149123717DORIA                      TORRES                     JOSE LUIS                  00000000000000021122016     020000028036803  2                  9
