Z064567510812058227112MARTINEZ                   REA                        PEDRO OSVALDO              00000000000000024082017     020000011098503  2                  9
Z064567510812138614768RAMIREZ                    RAMIREZ                    PEDRO                      00000000000000023082017     020000011102103  2                  9
Z064567510812947743774PACHECO                    ALONSO                     ARMANDO                    00000000000000023082017     020000011102203  2                  9
Z064567510833897049012HERNANDEZ                  BANDA                      JUAN PEDRO                 00000000000000024082017     020000011103503  2                  9
