Y605571210010149268996FRANCISCO                  FLORES                     PATRICIA                   00000000000000022052017     020000009644203  2                  9
Y605571210002179590803JIMENEZ                    LARA                       KEILA ANAHI                00000000000000025052017     020000009691703  2                  9
Y605571210028068806166ROJAS                      RUIZ                       JESUS                      00000000000000023052017     020000009706303  2                  9
Y605571210092119318506ESPINOSA                   DIAZ                       RICARDO ENRIQUE            00000000000000026052017     020000015166303  2                  9
Y605571210023735701098ALVAREZ                    BARRON                     JUAN ANTONIO               00000000000000026052017     020000025013003  2                  9
