Y462621510924169402286FLORES                     MARTINEZ                   EMMANUEL                   00000000000000001012017     020000021150403  2                  9
Y462621510948138501860ROBLES                     VILLANTES                  FRANCISCO                  00000000000000001012017     020000021155203  2                  9
Y462621510948138936033RUFINO                     VAZQUEZ                    IRVIN                      00000000000000001012017     020000021156503  2                  9
Y462621510948169801015CUANETL                    VIDAL                      FRANCISCO IVAN             00000000000000001012017     020000021157203  2                  9
Y462621510948008170689TORRES                     PEREZ                      AXEL                       00000000000000001012017     020000021159403  2                  9
Y462621510956169796036LIMON                      BARRANCO                   EYDMAR ANTONIO             00000000000000001012017     020000021160103  2                  9
