Y605571210071968112467PALACIOS                   RABANALES                  YESENIA                    00000000000000024052016     020000007006203  2                  9
Y605571210071057000219GOMEZ                      RAMIREZ                    ELIZABETH                  00000000000000024052016     020000007007203  2                  9
Y605571210071078619583RAMIREZ                    PEREZ                      SAMUEL                     00000000000000024052016     020000007010903  2                  9
Y605571210071826205073ALFARO                     OCAÒA                      AGUSTIN                    00000000000000024052016     020000007011503  2                  9
Y605571210067986607819LOPEZ                      MENDEZ                     EMILIANO                   00000000000000024052016     020000007011803  2                  9
Y605571210035159752233LEDEZMA                    JOSE                       CRISTIAN OMAR              00000000000000024052016     020000007012203  2                  9
Y605571210021038689960RIVERA                     GOMEZ                      MISHAEL                    00000000000000024052016     020000007012403  2                  9
Y605571210027169762757CRUZ                       PEREZ                      JORGE ANTONIO              00000000000000024052016     020000007014203  2                  9
Y605571210042129415404GIL                        BRAVO                      GUILLERMO ISRAEL           00000000000000024052016     020000009553203  2                  9
Y605571210003169547878VAZQUEZ                    ARROYO                     ANA FRANCISCA              00000000000000022052016     020000009586703  2                  9
Y605571210045129102377HERRERA                    ISLAS                      EDGAR FABIAN               00000000000000018052016     020000009615603  2                  9
Y605571210002156105666SANDOVAL                   GRIMALDO                   JUAN FRANCISCO             00000000000000024052016     020000019056703  2                  9
Y605571210043987901618DAVILA                     SANDOVAL                   JOSE ROBERTO               00000000000000018052016     020000019078103  2                  9
Y605571210078117800157GUZMAN                     ALLENDE                    JORGE LUIS                 00000000000000024052016     020000020025103  2                  9
Y605571210013089210242VAZQUEZ                    DUARTE                     MICHAEL                    00000000000000024052016     020000022040703  2                  9
Y605571210096977946613GUTIERREZ                  MARTINEZ                   EFREN                      00000000000000024052016     020000022044503  2                  9
Y605571210096129443352CABELLO                    RUEDA                      JOSE PABLO                 00000000000000024052016     020000023000302  2                  9
