D172000910228128500767GONZALEZ                   GALINDO                    FRANCISCO JAVIER           00000000000000018082017     020000017038403  2                  9
D172000910215058305325SANTIAGO                   GUTIERREZ                  MAYRA NANCY                00000000000000018082017     020000017052503  2                  9
D172000910215048420952RODRIGUEZ                  GARCIA                     HERMENEGILDA               00000000000000019082017     020000017052803  2                  9
