Y605571210003148067758RAMIREZ                    GUTIERREZ                  MIGUEL ANGEL               00000000000000001022017     020000009483103  2                  9
Y605571210006786113230RAMIREZ                    ESCOBEDO                   GERARDO                    00000000000000007022017     020000009560903  2                  9
Y605571210042907011037ROSAS                      HERNANDEZ                  CARLOS                     00000000000000004022017     020000009624703  2                  9
Y605571210011988002108MENDOZA                    ORTIZ                      ALBERTA                    00000000000000006022017     020000009639403  2                  9
Y605571210098169821497HERNANDEZ                  HERNANDEZ                  DIANEL BENICIO             00000000000000001022017     020000009647703  2                  9
Y605571210068169735815AGUILAR                    RODRIGUEZ                  ALFREDO ANTONIO            00000000000000005022017     020000009658503  2                  9
Y605571210096138912249PINTO                      AGUILAR                    DIANA VERENICE             00000000000000007022017     020000009662903  2                  9
Y605571210096139833436GALVAN                     MORENO                     GUSTAVO                    00000000000000006022017     020000009664203  2                  9
Y605571210045937642853LOPEZ                      MARTINEZ                   JOSE MIGUEL                00000000000000007022017     020000009668803  2                  9
Y605571210096139525206APARICIO                   SANCHEZ                    MARIANA DE JESUS           00000000000000006022017     020000009669103  2                  9
Y605571210039008012518HERNANDEZ                  GONZALEZ                   YENNY                      00000000000000007022017     020000009673003  2                  9
Y605571210072968014133LOPEZ                      ROQUE                      ANDRES                     00000000000000004022017     020000009676703  2                  9
Y605571210039907223869HERNANDEZ                  GARCIA                     JOSE ANTONIO               00000000000000007022017     020000009680903  2                  9
Y605571210078998209379CORTES                     LINARES                    GUSTAVO                    00000000000000007022017     020000015186903  2                  9
Y605571210090109509043TOVAR                      MARTINEZ                   MONTSERRAT                 00000000000000004022017     020000015188003  2                  9
Y605571210003146725605CASTELLANOS                HERRERA                    ROLANDO                    00000000000000007022017     020000015190403  2                  9
Y605571210012017704631RAMIREZ                    GONZALEZ                   ABRAHAM                    00000000000000003022017     020000019090103  2                  9
Y605571210009017801169REYES                      QUINTERO                   ADALBERTO                  00000000000000003022017     020000019094103  2                  9
Y605571210047058930232SALINAS                    VELAZQUEZ                  JULIO ALBERTO              00000000000000003022017     020000019095203  2                  9
Y605571210043008304255BARRON                     SAUCEDO                    MARTIN ANGEL               00000000000000004022017     020000019097803  2                  9
Y605571210043786171769ESPINOSA                   FRAGA                      JAVIER                     00000000000000004022017     020000019098903  2                  9
Y605571210043785828088VASQUEZ                    CORONADO                   MARIA DE LOURDES           00000000000000004022017     020000019099403  2                  9
Y605571210043846821551MARTINEZ                   LOPEZ                      JUAN MANUEL                00000000000000006022017     020000019099703  2                  9
Y605571210041068904469CRUZ                       LOPEZ                      FLORENCIO                  00000000000000006022017     020000019101103  2                  9
Y605571210043956901094VAZQUEZ                    VILLARREAL                 HECTOR                     00000000000000004022017     020000019101203  2                  9
Y605571210014087301413ESTRELLA                   GUTIERREZ                  JOSE JAVIER                00000000000000007022017     020000022018303  2                  9
Y605571210014129329208SALAZAR                    ESCOBEDO                   CESAR IVAN                 00000000000000006022017     020000022055203  2                  9
Y605571210026149534005DEL TORO                   VILLARREAL                 JOSE CRUZ                  00000000000000006022017     020000022056003  2                  9
Y605571210014129408770VELAZQUEZ                  PILAR                      WALDO JAVIER               00000000000000004022017     020000022056303  2                  9
Y605571210014896610467JIMENEZ                    GONZALEZ                   MARTIN                     00000000000000006022017     020000022056603  2                  9
Y605571210047038615309VALADEZ                    QUINTANILLA                DEYANIRA                   00000000000000003022017     020000023041103  2                  9
Y605571210023906002037AYALA                      IBARRA                     RAFAEL                     00000000000000007022017     020000025010603  2                  9
Y605571210023816403374CASTAÒEDA                  VILLA                      ROBERTO AGUSTIN            00000000000000007022017     020000025012203  2                  9
Y605571210023046711992PANTOJA                    SALAZAR                    GUSTAVO                    00000000000000007022017     020000025012303  2                  9
Y605571210065119239153GOXCON                     AMBROSIO                   JAIRO ALEJANDRO            00000000000000004022017     020000030089803  2                  9
Y605571210013815905156RAMOS                      RAMIREZ                    ADRIAN                     00000000000000004022017     020000030130903  2                  9
