Y605571210096076502259SANTAELLA                  ZAMORA                     FERNANDO                   00000000000000016022017     020000009436403  2                  9
Y605571210096008009159LOPEZ                      SANCHEZ                    VICENTE MARTIN             00000000000000013022017     020000009617903  2                  9
Y605571210040937708838HERNANDEZ                  ORNELAS                    MONICA                     00000000000000017022017     020000009633403  2                  9
Y605571210030109204104QUEZADA                    BOTELLO                    GILBERTO                   00000000000000017022017     020000009633503  2                  9
Y605571210045068846497BARRERA                    VAZQUEZ                    JIMENA                     00000000000000017022017     020000009680403  2                  9
Y605571210094998101425RAMIREZ                    CEDILLO                    ERICK                      00000000000000017022017     020000015189503  2                  9
Y605571210072029803086CERVANTES                  MARTINEZ                   JESUS OMAR                 00000000000000017022017     020000022055303  2                  9
