Y462621510939038011290EVANGELISTA                ARAGON                     RIGOBERTO                  00000000000000005092016     020000021088303  2                  9
Y462621510939038011290EVANGELISTA                ARAGON                     RIGOBERTO                  00000000000000005092016     020000021088303  2                  9
Y462621510903168665234VALENCIA                   SAN MARTIN                 JOHNATTAN                  00000000000000006092016     020000021152503  2                  9
