Y605571210096099213645LOPEZ                      RAMIRO                     LOURDES BELEN              00000000000000009062017     020000009683603  2                  9
Y605571210064159712955APARICIO                   CORTES                     VICTOR DANIEL              00000000000000006062017     020000009701903  2                  9
Y605571210039896624374CABRERA                    MARTINEZ                   SALVADOR                   00000000000000009062017     020000009705103  2                  9
Y605571210001856755960MARIN                      PINEDO                     DAVID CRISTOBAL            00000000000000009062017     020000015123703  2                  9
