Y462621510926169552010GARCIA                     LEON                       EDUARDO GABRIEL            00000000000000004112016     020000021150003  2                  9
Y462621510948027510832NUÑEZ                      GONZALEZ                   HECTOR                     00000000000000004112016     020000021156803  2                  9
Y462621510948008323544ROJAS                      MORENO                     HECTOR OSWALDO             00000000000000004112016     020000021157003  2                  9
