R143868210354876858124CALVILLO                   REYES                      OMAR FRANCISCO             00000000000000004022017     020000014070103  2                  9
R143868210333996707932GARCIA                     FLORES                     ARMANDO                    00000000000000003022017     020000014114303  2                  9
R143868210354836227675SANCHEZ                    CONTRERAS                  JOSE LUIS                  00000000000000004022017     020000014126903  2                  9
R143868210304139656583MUÑOZ                      MEDINA                     BRYAN ALBERTO              00000000000000006022017     020000014128603  2                  9
R143868210304169544824ALVAREZ                    CHAVEZ                     PABLO ALEJANDRO            00000000000000003022017     020000014130403  2                  9
