Z064567510812836901699MIRANDA                    ZARAGOZA                   ABEL                       00000000000000007062017     020000011096903  2                  9
Z064567510812937316342PEREZ                      GARNICA                    GERARDO                    00000000000000005062017     020000011097603  2                  9
Z064567510873169980791BERNAL                     MARTINEZ                   VICTOR MANUEL ALEJANDRO    00000000000000004062017     020000011099103  2                  9
Z064567510812977530059LUGO                       NUÒEZ                      VICTOR EMILIO              00000000000000005062017     020000011099903  2                  9
Z064567510863139454076RICO                       ZAVALA                     VICTOR SAMUEL              00000000000000005062017     020000011100103  2                  9
