Y605571210039947656367VERA                       MARTINEZ                   JESUS                      00000000000000017082017     020000009040802  2                  9
Y605571210011947506538MARTINEZ                   HERNANDEZ                  ELOY                       00000000000000023082017     020000009722003  2                  9
Y605571210005169855656SALAZAR                    FRANCISCO                  ABRAHAM                    00000000000000022082017     020000009724803  2                  9
Y605571210096056600289HERRERA                    ANGELES                    ARTURO                     00000000000000022082017     020000009725303  2                  9
Y605571210069159792238HERNANDEZ                  TELLEZ                     JOSE ALBERTO               00000000000000023082017     020000015212603  2                  9
Y605571210044149661900RUIZ                       SALGUERO                   JESUS ALEJANDRO            00000000000000019082017     020000015216703  2                  9
Y605571210020109557403CAMACHO                    GUARNEROS                  PEDRO                      00000000000000020082017     020000015217603  2                  9
Y605571210037169615202PEREZ                      GOMEZ                      GREGORIO SALOMON           00000000000000023082017     020000016012003  2                  9
Y605571210014704411512RIOS                       DIAZ                       PAULINO                    00000000000000023082017     020000019090503  2                  9
Y605571210023907022471HERNANDEZ                  DIAZ                       JOSE CANDELARIO            00000000000000023082017     020000025003103  2                  9
