Y605571210071116500522MENDOZA                    ORTIZ                      FIDELINO                   00000000000000001092017     020000007001702  2                  9
Y605571210026149214210RAMIREZ                    MEJIA                      LUIS FELIPE                00000000000000001092017     020000007019103  2                  9
Y605571210045967507612ACEVEDO                    TORRES                     MARIO TOMAS                00000000000000001092017     020000009674703  2                  9
Y605571210045048201532SON                        DELGADO                    JOSE ANGEL                 00000000000000030082017     020000009684403  2                  9
Y605571210096129222715PERALTA                    BELLO                      JUAN ANTONIO               00000000000000001092017     020000009700303  2                  9
Y605571210096129441083HERNANDEZ                  OLIVARES                   OMAR                       00000000000000001092017     020000009704003  2                  9
Y605571210023947611325MENDEZ                     SERRANO                    FRANCISCO JAVIER           00000000000000001092017     020000025010303  2                  9
Y605571210010179635817GIL                        ORTIZ                      JESUS ALBERTO              00000000000000001092017     020000025017103  2                  9
Y605571210027149205810FRAGOZO                    BOJORQUEZ                  HECTOR AARON               00000000000000001092017     020000025017403  2                  9
Y605571210083037701170SANCHEZ                    CEFERINO                   ANA MARIA                  00000000000000001092017     020000027051403  2                  9
Y605571210083108903127HERNANDEZ                  VALENCIA                   ELIAS                      00000000000000001092017     020000027063003  2                  9
Y605571210083048513036MENDEZ                     CASTELLANOS                JESUS                      00000000000000001092017     020000027063303  2                  9
Y605571210065129441856DELGADO                    ENRIQUEZ                   JAQUELINE                  00000000000000031082017     020000030154203  2                  9
