R143868210371876607061JIMENEZ                    ESPINOZA                   ANTONIO                    00000000000000012072016     020000014077303  2                  9
R143868210375937010009RIVERA                     JUAN                       MANUEL                     00000000000000013072016     020000014111103  2                  9
R143868210304119563841AGUILA                     AVALOS                     IGNACIO SALVADOR           00000000000000013072016     020000014115703  2                  9
R143868210394976400641COLIN                      OLVERA                     JOSE LUIS                  00000000000000007072016     020000014116403  2                  9
R143868210320997605520GALINDO                    NAVARRO                    FELIPE                     00000000000000013072016     020000014117003  2                  9
