A836767410908169741686ZACARIAS                   FLORES                     LUIS FERNANDO              00000000000000005072017     020000002056903  2                  9
A836767410972088723043CAMACHO                    MALDONADO                  EDGAR                      00000000000000005072017     020000002057403  2                  9
A836767410921896004666MADRIZ                                                BERTHA ALICIA              00000000000000005072017     020000002058203  2                  9
