Y605571210025169588537CASTILLO                   TREJO                      FLORENCIO                  00000000000000012092016     020000013012203  2                  9
Y605571210092099103225VIDAL                      GALEANA                    MARIO                      00000000000000014092016     020000015178403  2                  9
Y605571210043138300231HERNANDEZ                  RAMIREZ                    JOSE LUIS                  00000000000000014092016     020000019079003  2                  9
