Y605571210001806146393RAYA                       BRIONES                    ALEJANDRO                  00000000000000025112016     020000009608203  2                  9
Y605571210048089046295PAISANO                    ENRIQUEZ                   JOEL                       00000000000000023112016     020000009644903  2                  9
Y605571210088826510666ROSAS                      RODRIGUEZ                  ROGELIO                    00000000000000024112016     020000009648503  2                  9
Y605571210019159057686GARCIA                     OVANDO                     JOSE ANGEL                 00000000000000025112016     020000009659203  2                  9
Y605571210019149534299HERNANDEZ                  DORANTES                   HECTOR                     00000000000000024112016     020000015179703  2                  9
Y605571210092038333511JIMENEZ                    REYES                      ANDRES                     00000000000000021112016     020000015185403  2                  9
