Y462621510945988129065AQUINO                     LUIS                       MARIA DE LOURDES           00000000000000018082017     020000021171503  2                  9
Y462621510949149679620MARTINEZ                   RAMIREZ                    ADOLFO                     00000000000000014082017     020000021171603  2                  9
Y462621510916129513038LARA                       CEBALLOS                   CARLOS ALBERTO             00000000000000018082017     020000021172803  2                  9
