R143868210356907088860JIMENEZ                    RODRIGUEZ                  ANTONIO                    00000000000000016062017     020000014109703  2                  9
R143868210304745407512GARCIA                     BEDOY                      JOAQUIN                    00000000000000019062017     020000014129703  2                  9
R143868210304906848124SANTOYO                    RAMIREZ                    ROSA MARIA                 00000000000000016062017     020000014134003  2                  9
