A836767410925927433810GARCIA                     RAMIREZ                    MONICA                     00000000000000028082017     020000002058003  2                  9
A836767410939139406977RUIZ                       FIGUEROA                   JOSE EDUARDO               00000000000000028082017     020000002062903  2                  9
A836767410925887217468MADRIGAL                   OCHOA                      ALFREDO                    00000000000000028082017     020000002063003  2                  9
