Y605571210096129322499ESPINOZA                   HERNANDEZ                  ALFREDO                    00000000000000019122016     020000009656903  2                  9
Y605571210010836320928GONZALEZ                   RODRIGUEZ                  PASCUAL                    00000000000000023122016     020000009670703  2                  9
Y605571210005158676568MAYO                       HERNANDEZ                  VIVIANA                    00000000000000023122016     020000011085203  2                  9
Y605571210072967404616MORA                       MARTINEZ                   LEONEL                     00000000000000023122016     020000012011503  2                  9
Y605571210032109029580VAZQUEZ                    ALVAREZ                    ZULEYMA                    00000000000000020122016     020000023038203  2                  9
Y605571210065977655219BERNAL                     HERRERA                    GONZALO                    00000000000000023122016     020000030126303  2                  9
Y605571210034137401195ESPINOZA                   ESPINOZA                   MARTIN                     00000000000000022122016     020000032001503  2                  9
