Y605571210081058402611VELUETA                    SANCHEZ                    MANUEL ALFREDO             00000000000000020092016     020000004006503  2                  9
Y605571210027169508416SERRAT                     MIZET                      JOHAN MANUEL               00000000000000020092016     020000004006703  2                  9
Y605571210096129258339SOLIS                      PEREZ                      JESSICA MARGARITA          00000000000000020092016     020000009037802  2                  9
Y605571210096129258339SOLIS                      PEREZ                      JESSICA MARGARITA          00000000000000020092016     020000009037802  2                  9
Y605571210030079015969RAMIREZ                    GARCIA                     JOSE ALBERTO               00000000000000016092016     020000009613303  2                  9
Y605571210096108409226MARTINEZ                   MEJORADA                   CRISTIAN JOVAN             00000000000000020092016     020000009623703  2                  9
Y605571210045058745253TEJEDA                     GORDILLO                   ALEJANDRO                  00000000000000020092016     020000009644303  2                  9
Y605571210004078328954RIVERA                     CERON                      CARLOS ALBERTO             00000000000000019092016     020000009645103  2                  9
Y605571210096139478729RODRIGUEZ                  LOPEZ                      GUSTAVO ARMANDO            00000000000000016092016     020000015171903  2                  9
Y605571210003148155751RODRIGUEZ                  RIVERO                     JESUS ENRIQUE              00000000000000019092016     020000015175103  2                  9
Y605571210001987800768DIAZ                       DOMINGUEZ                  OMAR DARIO                 00000000000000019092016     020000015175803  2                  9
Y605571210065027002289HERNANDEZ                  MARTINEZ                   JOSE LUIS                  00000000000000020092016     020000019078503  2                  9
Y605571210083846801500DE LOS SANTOS              ZAPATA                     OSCAR                      00000000000000020092016     020000027056303  2                  9
Y605571210083088402900XICOTENCALT                TORRES                     SARA                       00000000000000020092016     020000027057603  2                  9
Y605571210009007930077ACOSTA                     RIVAS                      GUADALUPE                  00000000000000020092016     020000028023103  2                  9
Y605571210049886808739ARAUJO                     CORONADO                   ROBERTO                    00000000000000019092016     020000028031703  2                  9
Y605571210009096601290SOTO                       RODRIGUEZ                  LORENZO                    00000000000000019092016     020000028032703  2                  9
Y605571210027149772447TORRES                     MARQUEZ                    JUAN ANGEL                 00000000000000019092016     020000028034503  2                  9
Y605571210049978147780SERNA                      INFANTE                    NESTOR DANIEL              00000000000000019092016     020000028035103  2                  9
