Y605571210096028327029ALVARADO                   CONTRERAS                  AMADO GIOVANNI             00000000000000013072017     020000009716603  2                  9
Y605571210043715332250SANCHEZ                    RUIZ                       LUCIANO                    00000000000000007072017     020000019117803  2                  9
Y605571210043987946134TORRES                     GALVAN                     JOSE ANTONIO               00000000000000013072017     020000019118003  2                  9
Y605571210043997822952GARCIA                     LUGO                       MARIA DEL REFUGIO          00000000000000013072017     020000019118103  2                  9
