Y605571210051978150350DE LA ROSA                 CASTILLO                   JOSE ALEJANDRO             00000000000000028072016     020000001006403  2                  9
Y605571210081068900158FUENTES                    MARTINEZ                   ANTONIO DEL JESUS          00000000000000028072016     020000004006603  2                  9
Y605571210092906918104ALVAREZ                    CHAVANDO                   J DOLORES                  00000000000000028072016     020000009620203  2                  9
Y605571210096108409226MARTINEZ                   MEJORADA                   CRISTIAN JOVAN             00000000000000028072016     020000009623703  2                  9
Y605571210009129419959MOJICA                     SANDOVAL                   ALFREDO JAVIER             00000000000000028072016     020000009625903  2                  9
Y605571210083119321806MONTEJO                    POT                        EDDY ALBERTO               00000000000000028072016     020000011085503  2                  9
Y605571210043886307651LAGOS                      MARTINEZ                   GERMAN MARTIN              00000000000000028072016     020000019042003  2                  9
Y605571210067058636951MARTINEZ                   ANTONIO                    GERARDO                    00000000000000023072016     020000023024803  2                  9
Y605571210003159542582VELAZQUEZ                  CRISOSTOMO                 DIANA LIZBETH              00000000000000027072016     020000023030103  2                  9
Y605571210084048705929SABIDO                     MEX                        RODOLFO GABRIEL            00000000000000027072016     020000031027203  2                  9
