Y605571210008169450593DAVILA                     ORTIZ                      FRANCISCO                  00000000000000018052016     020000001007903  2                  9
Y605571210041099307849RODRIGUEZ                  AGUILAR                    ISAC                       00000000000000017052016     020000005010903  2                  9
Y605571210045099301983SOLIS                      GONZALEZ                   JULIO CESAR                00000000000000018052016     020000009608503  2                  9
Y605571210090038310232ESTRADA                    ZEPEDA                     IGNACIO                    00000000000000014052016     020000009612503  2                  9
Y605571210053139613151GODOY                      GUERRERO                   LUIS                       00000000000000019052016     020000009613803  2                  9
Y605571210028129108974TAPIA                      ZAMORANO                   OCTAVIO DANIEL             00000000000000019052016     020000009614803  2                  9
Y605571210025169691406GONZALEZ                   RAMIREZ                    ERICK OMAR                 00000000000000016052016     020000009615503  2                  9
Y605571210004068767344ANTON                      ORTIZ                      KARLA NATALIA              00000000000000018052016     020000014102703  2                  9
Y605571210016068401286DOMINGUEZ                  TORRES                     ALMA                       00000000000000019052016     020000015161303  2                  9
Y605571210065028352147GUZMAN                     GOMEZ                      CAMILO ANTONIO             00000000000000019052016     020000022042603  2                  9
Y605571210083078927320GUTIERREZ                  MARTINEZ                   ANGEL IVAN                 00000000000000019052016     020000027053903  2                  9
Y605571210055088510908AVALOS                     GARCIA                     ANA ALEXIS                 00000000000000019052016     020000030109003  2                  9
