Y607431310496079000780MARTINEZ                   RODRIGUEZ                  ZEUS                       00000000000000001072024     020000009028903  2                  9
Y607431310402230419331JUAREZ                     CAMPOS                     ABY EMMANUEL               00000000000000001072024     020000009033203  2                  9
Y607431310494119046558FLORES                     CRUZ                       KARLA NAYELI               00000000000000001072024     020000009034403  2                  9
