Y605571210096937720942VAZQUEZ                    OLVERA                     ALBERTO                    00000000000000005052017     020000009672703  2                  9
Y605571210020008125005CARRILLO                   CARREÒO                    MARIA XOCHITL              00000000000000004052017     020000009685703  2                  9
Y605571210002179996125ABURTO                     CRISANTO                   EDGAR GERARDO              00000000000000001052017     020000009692803  2                  9
Y605571210096139613549AGUIRRE                    MENDEZ                     DIEGO ALEJANDRO            00000000000000001052017     020000009698503  2                  9
Y605571210042988106474MAYER                      ROJAS                      MARIO                      00000000000000005052017     020000009701303  2                  9
Y605571210001007704529CORREA                     RANGEL                     PABLO                      00000000000000004052017     020000015200903  2                  9
Y605571210096069000113CARRILLO                   HERNANDEZ                  MARIA GUADALUPE            00000000000000004052017     020000015201103  2                  9
Y605571210043139513626MEJORADO                   HERNANDEZ                  ANDREA                     00000000000000005052017     020000019002902  2                  9
Y605571210023109346058RODRIGUEZ                  ACOSTA                     JOSE IGNACIO               00000000000000005052017     020000025013803  2                  9
Y605571210067137301916REYES                      MENDEZ                     JOSE MARGARITO             00000000000000005052017     020000030093603  2                  9
Y605571210067079021597LOPEZ                      BAZAN                      PABLO                      00000000000000005052017     020000030135803  2                  9
