Y605571210058159684222MERINO                     DIAZ                       JULIO ANDRES               00000000000000023062017     020000009704103  2                  9
Y605571210053987924478GARCIA                     CHAVEZ                     CARLOS                     00000000000000019062017     020000016011003  2                  9
Y605571210031906400028VEGA                       LOPEZ                      HUMBERTO                   00000000000000023062017     020000019089503  2                  9
Y605571210043099107989MENDOZA                    SALAZAR                    DAVID ENRIQUE              00000000000000023062017     020000019100903  2                  9
Y605571210043775955065GRIMALDO                   GALLARDO                   ALEJANDRO                  00000000000000023062017     020000019107203  2                  9
Y605571210023037113612CHAVEZ                                                MARIA LUZ                  00000000000000023062017     020000025016603  2                  9
Y605571210023917427892SANCHEZ                    MARQUEZ                    JUAN DAMIAN                00000000000000023062017     020000025017203  2                  9
Y605571210047018439928FLORES                     GUERRERO                   JORGE ALBERTO              00000000000000022062017     020000028037103  2                  9
