Y462621510962896917853ZEMPOALTECA                DIAZ                       ARTURO                     00000000000000026082017     020000021123103  2                  9
Y462621510967927411990GARCIA                     CAMACHO                    MARIA ANGELICA             00000000000000026082017     020000021141403  2                  9
Y462621510948038531421VAZQUEZ                    MORALES                    WILBERTH                   00000000000000026082017     020000021151303  2                  9
Y462621510948139446750PEREZ                      DURAN                      JOSE LUIS                  00000000000000026082017     020000021164503  2                  9
Y462621510910169030557GONZALEZ                   BELTRAN                    MILAGRO DEL CARMEN         00000000000000026082017     020000021171903  2                  9
Y462621510902179869686ROJAS                      DE JESUS                   JUAN CARLOS                00000000000000026082017     020000021172103  2                  9
Y462621510920169478995SANCHEZ                    REYES                      IMELDA                     00000000000000026082017     020000021172703  2                  9
