Z064567510854785965788LOPEZ                      RODRIGUEZ                  ELEUTERIO                  00000000000000024042017     020000011073403  2                  9
Z064567510812826007614CASTILLO                   NEGRETE                    RICARDO                    00000000000000024042017     020000011086903  2                  9
Z064567510812068800999TORRES                     MACIAS                     JUAN MANUEL                00000000000000021042017     020000011087303  2                  9
Z064567510812976113816LOPEZ                      TORRES                     JUAN                       00000000000000021042017     020000011089303  2                  9
Z064567510812997319764PEDROZA                    GODINEZ                    J GUADALUPE                00000000000000021042017     020000011096303  2                  9
Z064567510843845002310BLANCO                     FLORES                     MARIO AMADO                00000000000000021042017     020000011096703  2                  9
