Y605571210045078633356RAMIREZ                    MINISTRO                   ALMA DELIA                 00000000000000027012017     020000009659803  2                  9
Y605571210018937706440MEDINA                     MOLINA                     MARIO                      00000000000000023012017     020000009665903  2                  9
Y605571210002169112477ORTIZ                      TERAN                      SERGIO                     00000000000000025012017     020000009667903  2                  9
Y605571210037098907993CARDENAS                   HERNANDEZ                  LUIS ADRIAN                00000000000000026012017     020000009675203  2                  9
Y605571210092907210949ARMENTA                    GONZALEZ                   FERNANDO                   00000000000000025012017     020000015189403  2                  9
