A836767410933109009218MELENDEZ                   MACIAS                     BLANCA GUADALUPE           00000000000000006092016     020000008053203  2                  9
A836767410933099205164CAMPA                      ARMENDARIZ                 JOSE HUMBERTO              00000000000000006092016     020000008054403  2                  9
A836767410933119401645GONZALEZ                   BALOIS                     DANIEL                     00000000000000006092016     020000008055603  2                  9
A836767410933079188505RUBIO                      URQUIZA                    LUIS MIGUEL                00000000000000006092016     020000008057203  2                  9
A836767410933109410838MENDOZA                    SILVA                      MARIO ALBERTO              00000000000000006092016     020000008057303  2                  9
