Y605571210045048434190AMADOR                     GALLARDO                   NAYELI                     00000000000000026052016     020000009602003  2                  9
Y605571210013129447242GONZALEZ                   MUÒOZ                      FELIPE DE JESUS            00000000000000025052016     020000013009703  2                  9
Y605571210013027603128GOMEZ                      PERALTA                    JAVIER ANTONIO             00000000000000025052016     020000013011603  2                  9
Y605571210067866620106RAMIREZ                    JUAREZ                     BENIGNO                    00000000000000025052016     020000013011803  2                  9
Y605571210083109201562ALCUDIA                    GOMEZ                      ABEL                       00000000000000023052016     020000023026803  2                  9
Y605571210049846212451POOL                       GONZALEZ                   SANTIAGO REYNALDO          00000000000000023052016     020000031023903  2                  9
