Y605571210090099303100JIMENEZ                    LOPEZ                      JOSE RAUL                  00000000000000020052017     020000009606403  2                  9
Y605571210042169699503GONZALEZ                   CASTILLO                   LUIS ANTONIO               00000000000000020052017     020000009705303  2                  9
Y605571210094108603815CASTRO                     GONZALEZ                   ANGEL                      00000000000000021052017     020000015188203  2                  9
Y605571210002177435506ROMAN                      NAJERA                     YOLANDA                    00000000000000016052017     020000015209003  2                  9
Y605571210043108208877PEREZ                      GONZALEZ                   ALEJANDRA                  00000000000000019052017     020000019106403  2                  9
Y605571210043917551723ROMERO                     LIMON                      MIGUEL ANGEL               00000000000000020052017     020000019110703  2                  9
Y605571210043875208886FLORES                     RAMOS                      ROSA MARIA                 00000000000000019052017     020000019110903  2                  9
Y605571210043139726376BARRIENTOS                 GARCIA                     MARTIN ALEJANDRO           00000000000000019052017     020000019111603  2                  9
Y605571210082086700372DOMINGUEZ                  PAREDES                    CORNELIO                   00000000000000021052017     020000022059503  2                  9
Y605571210014057102486SUSTAITA                   GONZALEZ                   MARIA DEL CARMEN           00000000000000022052017     020000022060603  2                  9
Y605571210005179603674GARCIA                     MAYO                       JESUS                      00000000000000021052017     020000022061303  2                  9
Y605571210012735300738NAVARRETE                  CAMARGO                    J CRUZ                     00000000000000021052017     020000022061803  2                  9
Y605571210082028451480LOPEZ                      RAMIREZ                    ADIN                       00000000000000022052017     020000023031903  2                  9
Y605571210024088815501SANTIAGO                   MARTINEZ                   MARIANA                    00000000000000022052017     020000025013903  2                  9
Y605571210073947701097SEPULVEDA                  CARDENAS                   ELVIA KARINA               00000000000000022052017     020000025014403  2                  9
Y605571210023037107127VILLEGAS                   ANDRADE                    RAUL MARIO                 00000000000000022052017     020000025015603  2                  9
Y605571210023796306225LOPEZ                      ROSAS                      MARCO ANTONIO              00000000000000022052017     020000025015703  2                  9
Y605571210083078609738HERNANDEZ                  RODAS                      GUSTAVO                    00000000000000020052017     020000027061603  2                  9
Y605571210083139013631NOTARIO                    VAZQUEZ                    ARTURO                     00000000000000022052017     020000030132703  2                  9
Y605571210067006901754MARQUEZ                    VELAZQUEZ                  MARIELA                    00000000000000022052017     020000030134603  2                  9
Y605571210067126100881MALDONADO                  RIVERA                     FRANCISCO                  00000000000000022052017     020000030142103  2                  9
Y605571210067896801247HEREDIA                    COLOHUA                    AGUSTIN                    00000000000000021052017     020000030144003  2                  9
Y605571210067058509059CARRERA                    REYES                      AARON                      00000000000000022052017     020000030145203  2                  9
Y605571210067907452956DIAZ                                                  GERMAN                     00000000000000022052017     020000030148003  2                  9
