Y605571210061138806551GARCIA                     CONTRERAS                  JUAN CARLOS                00000000000000027122016     020000009670603  2                  9
Y605571210065139450343COYOLT                     BELTRAN                    OSCAR ALONSO               00000000000000027122016     020000011079303  2                  9
Y605571210094926911671CORONA                     MARTINEZ                   FELIPE                     00000000000000027122016     020000015036903  2                  9
Y605571210008149458781TEJEDA                     HERNANDEZ                  PABLO                      00000000000000021122016     020000015186003  2                  9
Y605571210007987404345DIAZ                       CARRERA                    GABRIEL                    00000000000000027122016     020000022046803  2                  9
