A836767410971947811718VELASQUEZ                  DIAS                       CLAUDIO EFRAILAN           00000000000000021082017     020000002022003  2                  9
A836767410921008360147RAMOS                      PEREZ                      FRANCISCO ISRAEL           00000000000000021082017     020000002058403  2                  9
A836767410956169961986AMEZCUA                    CRUZ                       PAUL ANDRES                00000000000000021082017     020000002060703  2                  9
A836767410923947870368GONZALEZ                   CABRERA                    PABLO                      00000000000000021082017     020000002062003  2                  9
A836767410918179908175CHAVEZ                     VAZQUEZ                    FERNANDO MANUEL            00000000000000021082017     020000002062303  2                  9
A836767410953079121215PANIAGUA                   LARA                       ROBERTO CARLOS             00000000000000021082017     020000002062403  2                  9
A836767410933086900652OCHOA                      GOMEZ                      JUAN MANUEL                00000000000000021082017     020000008072503  2                  9
A836767410902177972292AGREDA                     MENDEZ                     MAURICIO EDGARDO           00000000000000021082017     020000008077903  2                  9
