A482760210316058612199SANCHEZ                    GONZALEZ                   MARTIN                     00000000000000001062016     020000015133703  2                  9
A482760210316058612199SANCHEZ                    GONZALEZ                   MARTIN                     00000000000000001062016     020000015133703  2                  9
A482760210316058612199SANCHEZ                    GONZALEZ                   MARTIN                     00000000000000001062016     020000015133703  2                  9
