Y605571210011018409786MEDINA                     GONZALEZ                   HECTOR ESTEBAN             00000000000000008062017     020000009710003  2                  9
Y605571210039058715192MARTINEZ                   VALLADARES                 EDUARDO                    00000000000000008062017     020000009711603  2                  9
Y605571210045018431465RODRIGUEZ                  FLORES                     JOAQUIN                    00000000000000008062017     020000009711703  2                  9
Y605571210092907266560MACIAS                     LOERA                      JOSE GUADALUPE             00000000000000008062017     020000015209803  2                  9
Y605571210016058706330HERNANDEZ                  SALGADO                    ROBERTO CARLOS             00000000000000008062017     020000015209903  2                  9
Y605571210081137600896DIAZ                       SANTIAGO                   ESPERANZA                  00000000000000008062017     020000023046903  2                  9
Y605571210023886808346NIEBLA                     GUTIERREZ                  ANA CECILIA                00000000000000008062017     020000025016003  2                  9
