A836767410933785204851MEZA                       GARCIA                     EMMANUEL                   00000000000000008062016     020000008039703  2                  9
A836767410933907093299NAVARRO                    CASTRO                     LUIS VIDAL                 00000000000000008062016     020000008045403  2                  9
A836767410933095100088MAYNEZ                     TORRES                     ANTONIO                    00000000000000006062016     020000008045503  2                  9
A836767410933845400366REYES                                                 JUAN ANTONIO               00000000000000008062016     020000008046103  2                  9
