A836767410933079173101FLORES                     VAZQUEZ                    JORGE ADRIAN               00000000000000023082016     020000008055403  2                  9
A836767410931998101583DE LARA                    FLORES                     JOSE FRANCISCO             00000000000000019082016     020000008056103  2                  9
A836767410933978118504ESPARZA                    BARRAZA                    VICTOR CARLOS              00000000000000023082016     020000008056403  2                  9
