Y605571210067078714481GARCIA                     SOLANO                     JOSE NAHUM                 00000000000000024082016     020000005010503  2                  9
Y605571210020906601792ESPINOZA                   SANCHEZ                    MARCOS                     00000000000000024082016     020000015178603  2                  9
Y605571210023917539092GARCIA                     FLORES                     HECTOR ALFONSO             00000000000000030082016     020000025007103  2                  9
Y605571210065119357476BAUTISTA                   HERNANDEZ                  LUIS ALFREDO               00000000000000024082016     020000030121703  2                  9
Y605571210065129201631ESPINOZA                   VELAZQUEZ                  LUIS ALBERTO               00000000000000030082016     020000030123603  2                  9
