Y605571210019866918865HERNANDEZ                  RAMIREZ                    ALFONSO                    00000000000000026122016     020000009516803  2                  9
Y605571210042968002719MONTAÒO                    VARGAS                     CARLOS ALBERTO             00000000000000028122016     020000009630603  2                  9
Y605571210016169719628VALDEZ                                                JUANFER                    00000000000000026122016     020000009651903  2                  9
Y605571210078129303885GUZMAN                     HERNANDEZ                  OSCAR AGUSTIN              00000000000000023122016     020000009657103  2                  9
Y605571210045018008248VAZQUEZ                    GUZMAN                     ARMANDO                    00000000000000023122016     020000009663603  2                  9
Y605571210096079102644SANCHEZ                    GUERRERO                   FERNANDO                   00000000000000025122016     020000009668503  2                  9
Y605571210003159636236DORANTES                   FABELA                     CARLOS RAMSES              00000000000000027122016     020000009671203  2                  9
Y605571210090119231745LIMA                       BAUTISTA                   OSCAR                      00000000000000023122016     020000015187003  2                  9
Y605571210009129483377CHAPA                      SANCHEZ                    JESUS NATANAEL             00000000000000028122016     020000028036203  2                  9
Y605571210009139602685ENRIQUEZ                   GONZALEZ                   JUAN CARLOS                00000000000000028122016     020000028036503  2                  9
Y605571210065108919997DOMINGUEZ                  CRUZ                       MARIO                      00000000000000029122016     020000028037403  2                  9
