Y605571210023987633460RUBIO                      CHAIDEZ                    LUIS OMAR                  00000000000000023032016     020000002048603  2                  9
Y605571210071927532755HERNANDEZ                  FIGUEROA                   JUAN CARLOS                00000000000000020042016     020000007014303  2                  9
Y605571210002167308812RUIZ                       OSORIO                     NORMA ANGELICA             00000000000000018042016     020000009592603  2                  9
Y605571210045048434190AMADOR                     GALLARDO                   NAYELI                     00000000000000015042016     020000009602003  2                  9
Y605571210002166722278FUENTES                    GARCIA                     LAURA JULISA               00000000000000018042016     020000009605003  2                  9
Y605571210014129215175MARTINEZ                   HERNANDEZ                  LUIS FERNANDO              00000000000000016042016     020000011081303  2                  9
Y605571210039968095552VARGAS                     OROZCO                     HEYDI LIDUVINA             00000000000000019042016     020000015162103  2                  9
Y605571210092006903030ZUÒIGA                     DIAZ                       PEDRO GABRIEL              00000000000000019042016     020000015164903  2                  9
Y605571210043078615531ORTEGA                     GUERRA                     BENITO                     00000000000000020042016     020000019070303  2                  9
Y605571210041089005478RESENDIZ                   MARTINEZ                   DONATO                     00000000000000016042016     020000019072503  2                  9
Y605571210009129545548CANTU                      MEDRANO                    JAVIER                     00000000000000016042016     020000019073003  2                  9
Y605571210043099332868GARCIA                     PEREZ                      PEDRO ANTONIO              00000000000000016042016     020000019073503  2                  9
Y605571210043796081032CARDONA                    TORRES                     FRANCISCO JAVIER           00000000000000016042016     020000019075003  2                  9
Y605571210043877091199ALANIS                     ESPINOZA                   ZENON RAFAEL               00000000000000020042016     020000019075503  2                  9
Y605571210043008509101REQUENA                    ROSALES                    RICARDO OMAR               00000000000000016042016     020000019075603  2                  9
Y605571210067139030422OSORIO                     PI—ERA                     ABEL GREGORIO              00000000000000019042016     020000030102503  2                  9
Y605571210003169784653ZAPOT                      AMBROSIO                   SURI SADAY                 00000000000000019042016     020000030103703  2                  9
