Y605571210045078824658SOLORIO                    ROQUE                      FRANCISCO JAVIER           00000000000000018112016     020000009465803  2                  9
Y605571210016119001333ALCARAZ                    BOLAÒOS                    MIGUEL ANGEL               00000000000000019112016     020000009627103  2                  9
Y605571210020937701272ESCOBAR                    CORRAL                     ALEJANDRO                  00000000000000019112016     020000009630203  2                  9
Y605571210005159722775AVENDAÒO                   FERNANDEZ                  JUAN ANTONIO               00000000000000022112016     020000009657403  2                  9
Y605571210092018302288MOLINA                     VEGA                       FABIAN                     00000000000000019112016     020000015184903  2                  9
Y605571210056159628702LOREDO                     AGUILAR                    ALONSO ALEJANDRO           00000000000000020112016     020000019088503  2                  9
Y605571210043796219673MEZA                       CASTA—EDA                  RICARDO                    00000000000000022112016     020000019090003  2                  9
Y605571210012017704631RAMIREZ                    GONZALEZ                   ABRAHAM                    00000000000000019112016     020000019090103  2                  9
Y605571210043786231357ALANIS                     MATA                       JOSE MANUEL                00000000000000019112016     020000019091403  2                  9
Y605571210067755702429GONZALEZ                   SANCHEZ                    JOSE LUIS ARTURO           00000000000000019112016     020000022052203  2                  9
Y605571210082068850559CETZ                       BOLIO                      JORGE EFRAIN               00000000000000017112016     020000023023703  2                  9
Y605571210082007700220CANCHE                     ACOSTA                     ANI DE ROSAURA             00000000000000021112016     020000023028803  2                  9
Y605571210065835825707MAZABA                     COMI                       JUAN                       00000000000000021112016     020000023032003  2                  9
Y605571210092896934996TORRES                     MU—OZ                      ANTONIO                    00000000000000016112016     020000023034603  2                  9
Y605571210064169296148MENDEZ                     GOMEZ                      DARVEY                     00000000000000016112016     020000023035203  2                  9
Y605571210059149434124BALAM                      SULU                       JOSE DEMETRIO              00000000000000021112016     020000023036103  2                  9
Y605571210082058613330PEREZ                      DE LA CRUZ                 BENJAMIN                   00000000000000016112016     020000023036903  2                  9
Y605571210082109226850CETZ                       BOLIO                      NANCY MARILY               00000000000000016112016     020000023037203  2                  9
Y605571210083027400445CAPDEPON                   MORENO                     JESUS                      00000000000000016112016     020000023038003  2                  9
Y605571210002158624441FLORES                     SOLIS                      DOMINGO LUIS               00000000000000018112016     020000023038103  2                  9
Y605571210062169485265GARCIA                     SANDOVAL                   ANTONIO DE JESUS           00000000000000020112016     020000027057703  2                  9
Y605571210003169784653ZAPOT                      AMBROSIO                   SURI SADAY                 00000000000000020112016     020000030103703  2                  9
Y605571210067007308389LOPEZ                      CARLIN                     JUAN ALBERTO               00000000000000016112016     020000030109703  2                  9
Y605571210078138503111RINCON                     BRAVO                      LEONEL                     00000000000000020112016     020000030113003  2                  9
Y605571210065128703538DIAZ                       ZEFERINO                   YESICA YAZMIN              00000000000000022112016     020000030116403  2                  9
Y605571210003168618241RIVERA                     MANUEL                     SEVERO                     00000000000000020112016     020000030117103  2                  9
Y605571210011169576573VAZQUEZ                    RAMOS                      IMELDA                     00000000000000020112016     020000030117203  2                  9
Y605571210005168968211FLORES                     OCAMPO                     ABELARDO                   00000000000000020112016     020000030121203  2                  9
Y605571210067128000162HERNANDEZ                  SANTO                      MARBELLA                   00000000000000020112016     020000030124103  2                  9
Y605571210067866775744GABRIEL                    ORTIZ                      ESTEBAN                    00000000000000020112016     020000030125103  2                  9
Y605571210067119338597MORALES                    ALFONSO                    EZEQUIEL                   00000000000000020112016     020000030125303  2                  9
Y605571210065967975841TOME                       ZAPO                       JORGE                      00000000000000019112016     020000030127003  2                  9
