Y605571210006806210255REYES                      PEREZ                      JOSE LUIS                  00000000000000005072017     020000009706903  2                  9
Y605571210016077605521JIMENEZ                    MARTINEZ                   CECILIA                    00000000000000006072017     020000015170303  2                  9
Y605571210071118906222OCA—A                      LOPEZ                      JOSE RAMON                 00000000000000003072017     020000015184803  2                  9
Y605571210016927412847ROMERO                     LOPEZ                      ANTONIO                    00000000000000004072017     020000015201203  2                  9
Y605571210003149571311BALTAZAR                   JIMENEZ                    ARMANDO                    00000000000000006072017     020000015207803  2                  9
Y605571210016119120661GUTIERREZ                  HERNANDEZ                  SERGIO                     00000000000000006072017     020000015211103  2                  9
Y605571210016078908254CRUZ                       MARIANO                    ANALLELY                   00000000000000006072017     020000015213003  2                  9
Y605571210018169663921MARTINEZ                   DE JESUS                   ERIK DAMIAN                00000000000000005072017     020000022062103  2                  9
Y605571210044169637616GUILLEN                    PIÒA                       PEDRO ERNESTO              00000000000000006072017     020000023036603  2                  9
Y605571210023089101358MENDEZ                     GODOY                      FRANCISCO ADOLFO           00000000000000006072017     020000025017303  2                  9
Y605571210049826458231LOPEZ                      MARTINEZ                   MIGUEL                     00000000000000006072017     020000028013803  2                  9
Y605571210067127901899CONTLA                     MOYA                       ELEAZAR                    00000000000000006072017     020000030129403  2                  9
