Y605571210007109002431BUSTAMANTE                 ZARATE                     JESUS MARIO                00000000000000011062016     020000009610403  2                  9
Y605571210012108908869ONOFRE                     RAMIREZ                    MIGUEL ANGEL               00000000000000014062016     020000011084203  2                  9
Y605571210004109141178BARRERA                    PALOMINO                   LUIS ALBERTO               00000000000000009062016     020000015170503  2                  9
Y605571210092109401288HERNANDEZ                  DE JESUS                   GUSTAVO                    00000000000000012062016     020000015174103  2                  9
Y605571210032806264134SILVA                      ORTIZ                      CARMELO                    00000000000000008062016     020000019059703  2                  9
Y605571210043119558740JUAREZ                     SANCHEZ                    ELIUD                      00000000000000008062016     020000019071203  2                  9
Y605571210049907166711PEREZ                      RODRIGUEZ                  HILARIO                    00000000000000008062016     020000019073203  2                  9
Y605571210083129423790PEREZ                      RONSON                     SALVADOR                   00000000000000008062016     020000019074903  2                  9
Y605571210043008602690MARTINEZ                   SENA                       REYMUNDO                   00000000000000008062016     020000019076603  2                  9
Y605571210047987924306BURGOS                     RODRIGUEZ                  GUILLERMO                  00000000000000008062016     020000019076703  2                  9
Y605571210049785718799IBARRA                     SALAS                      SANTIAGO                   00000000000000012062016     020000019077203  2                  9
Y605571210043109457754GARCIA                     DAVILA                     ABRAHAM                    00000000000000008062016     020000019077903  2                  9
Y605571210010149193236RAMIREZ                    ESTRADA                    ALEJANDRO                  00000000000000008062016     020000019078003  2                  9
Y605571210050149435492SANCHEZ                    VERA                       LUIS EDUARDO               00000000000000008062016     020000019078703  2                  9
Y605571210043138300231HERNANDEZ                  RAMIREZ                    JOSE LUIS                  00000000000000010062016     020000019079003  2                  9
Y605571210043886511146PEREZ                      ZAMORANO                   JUAN ANGEL                 00000000000000008062016     020000019079303  2                  9
Y605571210047139541925GLORIA                     SAAVEDRA                   ABELARDO                   00000000000000008062016     020000019079403  2                  9
Y605571210043805818481LOZANO                     LIZCANO                    EDUARDO                    00000000000000008062016     020000019079703  2                  9
Y605571210003149866331ESQUIVEL                   GONZALEZ                   RAFAEL                     00000000000000015062016     020000019080403  2                  9
Y605571210014755704138PIÒA                       RICO                       MARIA                      00000000000000014062016     020000022043803  2                  9
Y605571210025159518858RESENDIZ                   BRE—A                      FERNANDO                   00000000000000014062016     020000022045603  2                  9
Y605571210019169683927GONZALEZ                   SIMBRON                    LUIS ANGEL                 00000000000000014062016     020000030113903  2                  9
