Y462621510916048416404SALAZAR                    TIRADO                     ADOLFO                     00000000000000024102016     020000021101003  2                  9
Y462621510948988063938MAXIMO                     PONCE                      JAVIER                     00000000000000024102016     020000021149203  2                  9
Y462621510966159689505ANTONAR                    DE LA CRUZ                 ANICASIO                   00000000000000024102016     020000021154703  2                  9
