D691959010121896624612PACHECO                    BORJA                      ARGIMIRO EVELIO            00000000000000001082017     020000020011003  2                  9
D691959010178977682430CRUZ                       ALBERTO                    SABEL                      00000000000000001082017     020000020015703  2                  9
D691959010178107901213RUIZ                       LOPES                      TOMAS                      00000000000000001082017     020000020015803  2                  9
D691959010178128200827DIAZ                       RAMIREZ                    REYNALDO                   00000000000000001082017     020000020019503  2                  9
D691959010178957709484CRUZ                       CRUZ                       JESUS ANTONIO              00000000000000001082017     020000020021303  2                  9
D691959010178107201945PEREZ                      HERNANDEZ                  SALOMON                    00000000000000001082017     020000020029903  2                  9
