Y605571210096088505522ALARCON                    CRUZ                       MARTHA GABRIELA            00000000000000009022017     020000009649103  2                  9
Y605571210096068810256GALVAN                     ALVAREZ                    JORGE ALBERTO              00000000000000009022017     020000009660803  2                  9
Y605571210094886910523GARCIA                     PALOMARES                  FREDY                      00000000000000010022017     020000009662803  2                  9
Y605571210001755808803SAGAL                      ANDRADE                    RENE                       00000000000000009022017     020000009665403  2                  9
Y605571210039008016782ALONSO                     ALVARADO                   EDUARDO                    00000000000000009022017     020000009665603  2                  9
Y605571210096109422483BARRERA                    BACA                       JOVANI                     00000000000000014022017     020000009677703  2                  9
Y605571210054169873640DOMINGUEZ                  NERIA                      KARLA GUADALUPE            00000000000000012022017     020000009680303  2                  9
Y605571210001169698618MARTINEZ                   RODRIGUEZ                  EDWIN ANTONIO              00000000000000012022017     020000009681903  2                  9
Y605571210090129452885PALAFOX                    HERMENEGILDO               ANGELICA                   00000000000000009022017     020000015185503  2                  9
