Y462621510962907211163LEDO                       MENDOZA                    LUIS FERNANDO              00000000000000004042019     020000021214503  2                  9
Y462621510935170179549ORBE                       HUERTA                     JONATHAN HAYAME            00000000000000006042019     020000021215803  2                  9
Y462621510962927320390ROMERO                     GONZALEZ                   JOSE JESUS                 00000000000000007042019     020000021216903  2                  9
