Y605571210003158385462VEGA                       GOMEZ                      JOSE SANTIAGO              00000000000000025082016     020000001008603  2                  9
Y605571210003169300781SALDIVAR                   REYES                      RAMIRO                     00000000000000025082016     020000001008703  2                  9
Y605571210050149503083BACILIO                    MARTINEZ                   GONZALO MAURICIO           00000000000000025082016     020000009586003  2                  9
Y605571210045977604573LAZCANO                    ORTEGA                     DANIEL ISRAEL              00000000000000025082016     020000009638303  2                  9
Y605571210001907334526ROJAS                      CANO                       NORBERTO                   00000000000000021082016     020000015174603  2                  9
Y605571210032005902328SOLIZ                      REYES                      JOAQUIN                    00000000000000020082016     020000019080203  2                  9
Y605571210047018537978VAZQUEZ                    RODRIGUEZ                  MARIA GUADALUPE            00000000000000025082016     020000019085203  2                  9
Y605571210023997134343ARIAS                      ARIZQUETA                  ADELMO                     00000000000000025082016     020000025004703  2                  9
Y605571210023967711286VALENZUELA                 ARCE                       JOSE ANGEL                 00000000000000022082016     020000025007703  2                  9
Y605571210023887246066CORTES                     TORRES                     VALENTIN                   00000000000000023082016     020000025007903  2                  9
Y605571210065048710571CISNEROS                   MORALES                    MARIO                      00000000000000025082016     020000030051403  2                  9
Y605571210067077605870DELFIN                     ESCOBAR                    JOAQUIN                    00000000000000025082016     020000030115903  2                  9
