Y605571210096108817410LOPEZ                      GARDU—O                    JUAN MANUEL                00000000000000003082017     020000009703803  2                  9
Y605571210043109397224ALVAREZ                    OBREGON                    STEPHANIE                  00000000000000004082017     020000009719603  2                  9
Y605571210020028503249SANCHEZ                    RIAÒO                      CESAR                      00000000000000008082017     020000009722503  2                  9
Y605571210009139874078PEREZ                      MALDONADO                  JAVIER ALEXIS              00000000000000010082017     020000009724303  2                  9
Y605571210006836506268FLORES                     REYES                      VICENTE                    00000000000000009082017     020000015216603  2                  9
Y605571210053058305300GAMIÒO                     SAUCEDO                    MARCO ANTONIO              00000000000000009082017     020000016011903  2                  9
Y605571210067897272067IZQUIERDO                  IBARRA                     IGNACIO                    00000000000000010082017     020000023050803  2                  9
Y605571210062169477460CAYETANO                   CHAN                       ALEJANDRA                  00000000000000009082017     020000023050903  2                  9
Y605571210048069012770FLORES                     ORTEGA                     JOSE EDER                  00000000000000009082017     020000030151903  2                  9
