Y462621510925149261544ORTEGA                     JULIAN                     EDUARDO                    00000000000000012062017     020000021117303  2                  9
Y462621510962998111074CARDENAS                   TOBIAS                     JOSE                       00000000000000010062017     020000021163103  2                  9
Y462621510907166140207TEPOX                      MAHUIS                     JOSE JOEL FORTUNATO        00000000000000007062017     020000021168203  2                  9
Y462621510948088505515PALACIOS                   ROMERO                     ENRIQUE MARTIN             00000000000000013062017     020000021169903  2                  9
