A836767410931068922322SIMENTAL                   HERNANDEZ                  ANA GRISELDA               00000000000000014042016     020000008037603  2                  9
A836767410933967170581RAMIREZ                    SANCHEZ                    EULOGIA                    00000000000000017042016     020000008041203  2                  9
A836767410935998324038NORIS                      COBOS                      MYRNA ISELA                00000000000000018042016     020000008041703  2                  9
