Y605571210062169520483FRANCO                     GOMEZ                      USSIEL                     00000000000000022022017     020000009622703  2                  9
Y605571210004167952961FLORES                     DOMINGO                    ELPIDIO                    00000000000000022022017     020000009622803  2                  9
Y605571210020008400200CRUZ                       CARRILLO                   DAVID                      00000000000000022022017     020000009650403  2                  9
Y605571210045098811818CRUZ                       RUIZ                       ALFREDO                    00000000000000020022017     020000009663703  2                  9
Y605571210004169345206AVILA                      SANCHEZ                    PEDRO ADRIAN               00000000000000022022017     020000009665703  2                  9
Y605571210013937537085HERNANDEZ                  CASTRO                     MAGNO                      00000000000000022022017     020000013012803  2                  9
Y605571210019856306105MARTINEZ                   BAUTISTA                   SALOMON                    00000000000000021022017     020000015175603  2                  9
Y605571210092109249893MARTINEZ                   ARREGUIN                   JUAN CARLOS                00000000000000022022017     020000015189103  2                  9
Y605571210094119626748FRANCO                     MELENDREZ                  OSVALDO                    00000000000000021022017     020000015190903  2                  9
Y605571210065997515542ROJAS                      COBOS                      SATURNINO                  00000000000000022022017     020000030116803  2                  9
