Y605571210008158746761REBOLLEDO                  OLVERA                     SERGIO                     00000000000000015082017     020000009039402  2                  9
Y605571210013968010614HERNANDEZ                  CARDOSO                    MARGARITO                  00000000000000016082017     020000009677003  2                  9
Y605571210045896827669VENEGAS                    NAVA                       ARNULFO                    00000000000000015082017     020000009692003  2                  9
Y605571210003148393253RUIZ                       REYES                      BENITA                     00000000000000016082017     020000015214503  2                  9
Y605571210004068030479BOCANEGRA                  NUÒEZ                      FRANCISCO JAVIER           00000000000000010082017     020000018001303  2                  9
Y605571210005159790244GONZALEZ                   SANCHEZ                    MANRIQUE                   00000000000000016082017     020000019113803  2                  9
Y605571210012169305294BARTOLO                    CRUZ                       RUBICELIA                  00000000000000016082017     020000019122603  2                  9
Y605571210003179221753LANDA                      LAGUNES                    ISABEL MONSERRAT           00000000000000014082017     020000030002302  2                  9
