Y605571210051836616741SIGALA                     LOMELI                     JORGE                      00000000000000003032017     020000001005203  2                  9
Y605571210011977810255GARCIA                     HERNANDEZ                  JOSE DE JESUS              00000000000000002032017     020000009643703  2                  9
Y605571210017169213414MONTES DE OCA              ALMEIDA                    GUADALUPE                  00000000000000001032017     020000009664503  2                  9
Y605571210096998215584PEREZ                      SANCHEZ                    DANIEL                     00000000000000006032017     020000009672103  2                  9
Y605571210045128714388LUNA                       CASTELLANOS                ARMANDO                    00000000000000006032017     020000009675303  2                  9
Y605571210042956600599FLORES                     HERNANDEZ                  TEODORO                    00000000000000006032017     020000009676603  2                  9
Y605571210096139316051MARTINEZ                   AMARO                      FRANCISCO JAVIER           00000000000000005032017     020000009678703  2                  9
Y605571210096038107510OLIVAREZ                   GONZALEZ                   CESAR                      00000000000000006032017     020000009679703  2                  9
Y605571210048998285448GARCIA                     PINEDA                     TEODULO                    00000000000000005032017     020000009681603  2                  9
Y605571210096088945900ENCISO                     MARQUEZ                    JOSE LUIS                  00000000000000006032017     020000009682703  2                  9
Y605571210045008402914ORTIZ                      BECERRA                    ARMANDO OBETH              00000000000000003032017     020000013016603  2                  9
Y605571210026169522005MELITON                    OLGUIN                     MARIANA MARTHA             00000000000000003032017     020000013016703  2                  9
Y605571210043106801301GALAVIZ                    LIRA                       JOSE GUADALUPE             00000000000000005032017     020000019038903  2                  9
Y605571210047089124029DE LA GARZA                CORPUS                     JUAN ROMAN                 00000000000000004032017     020000019083503  2                  9
Y605571210043119415396FARRERA                    HERNANDEZ                  FLAVIO CESAR               00000000000000004032017     020000019098703  2                  9
Y605571210043998041180VALADEZ                    MARTINEZ                   EDGAR                      00000000000000005032017     020000019100103  2                  9
Y605571210043139417505ESCOBAR                    CANDANOSA                  LUIS ARMANDO               00000000000000004032017     020000019102003  2                  9
Y605571210047089143219ZAPATA                     BERNAL                     JESUS EDUARDO              00000000000000004032017     020000019103103  2                  9
Y605571210009058706541GONZALEZ                   ALEMAN                     BRENDA JUDITH              00000000000000006032017     020000019103403  2                  9
Y605571210046159753584VARGAS                     HERNANDEZ                  ABEL ALBERTO               00000000000000003032017     020000022055003  2                  9
Y605571210089846626979PEREZ                      GOMEZ                      DAVID                      00000000000000004032017     020000022057903  2                  9
Y605571210011967318467CRUZ                       MEZA                       JOSE LUIS                  00000000000000005032017     020000022058303  2                  9
Y605571210014068933903ARROYO                     GARCIA                     JOSE ELIAS                 00000000000000005032017     020000022058503  2                  9
Y605571210082088966971RODRIGUEZ                  GARCIA                     SERAPIO                    00000000000000005032017     020000023042303  2                  9
Y605571210002169446313CRISTIN                    BARRAZA                    JESUS ALBERTO              00000000000000006032017     020000025009803  2                  9
Y605571210023755626720CERVANTES                  MENDOZA                    BENJAMIN                   00000000000000001032017     020000025012703  2                  9
Y605571210091169819900PLATA                      MACIAS                     JESUS RUBEN                00000000000000006032017     020000025013303  2                  9
Y605571210056169615145RIOS                       DOMINGUEZ                  LUIS FERNANDO              00000000000000006032017     020000025013403  2                  9
Y605571210058159740370BENGOCHEA                  HERNANDEZ                  JESUS ALEJANDRO            00000000000000004032017     020000030136003  2                  9
