Y462621510948058446641HERNANDEZ                  JUSTO                      MARIA                      00000000000000025072016     020000021001902  2                  9
Y462621510948028605508SANCHEZ                    GONZALEZ                   ARTURO                     00000000000000025072016     020000021125303  2                  9
Y462621510961906805884ACOLTZI                    GARCIA                     ANGEL                      00000000000000022072016     020000021144103  2                  9
Y462621510967129409305DE LA ROSA                 HERNANDEZ                  ALEJANDRO                  00000000000000021072016     020000021149603  2                  9
