Y462621510948058900738PEREZ                      HERNANDEZ                  JOSE ALBERTO               00000000000000022072017     020000021143403  2                  9
Y462621510962887303824HERNANDEZ                  JIMENEZ                    NOEMI                      00000000000000024072017     020000021166903  2                  9
Y462621510939007919184HERNANDEZ                  PEREZ                      ERASMO SEVERIANO           00000000000000024072017     020000021167003  2                  9
