A836767410933996915097LOPEZ                      RIVERA                     MIRNA TERESA               00000000000000026072016     020000008044203  2                  9
A836767410959159661277MACIAS                     JURADO                     RUBEN                      00000000000000028072016     020000008047503  2                  9
A836767410924856742879CASTRO                     ARREDONDO                  RAFAEL                     00000000000000029072016     020000008050303  2                  9
A836767410935119302681VILLALBA                   SOTO                       JESUS JOSE                 00000000000000028072016     020000008052003  2                  9
A836767410933148800635MARTINEZ                   FLORES                     SERGIO ALBERTO             00000000000000028072016     020000008052703  2                  9
