Y605571210038149428203SANCHEZ                    NOPALTITLA                 JOSE GABRIEL               00000000000000030102016     020000009617803  2                  9
Y605571210007018210877PEREZ                      HERNANDEZ                  MARIA DE LOS ANGELES       00000000000000031102016     020000009639903  2                  9
Y605571210094088823276ESQUIVEL                   GOMEZ                      EDGAR IVAN                 00000000000000031102016     020000009650003  2                  9
Y605571210012068964555MELENDEZ                   PADILLA                    LUZ ADRIANA                00000000000000031102016     020000011000902  2                  9
Y605571210065109110000BLAS                       CHAGALA                    JAVIER                     00000000000000031102016     020000011073103  2                  9
Y605571210012907043686CERRITOS                   HERNANDEZ                  JOSE GUADALUPE             00000000000000025102016     020000011089503  2                  9
