R143868210375109155681RUVALCABA                  MORALES                    ZULEMA ELIZABETH           00000000000000016082016     020000014001602  2                  9
R143868210304896708577VALDIVIA                   MEJIA                      MARTIN                     00000000000000016082016     020000014095603  2                  9
R143868210304826540967SOLIS                      DE LA CRUZ                 JOSE ANTONIO               00000000000000016082016     020000014115103  2                  9
