Y605571210008159664047CORTES                     YAÑEZ                      LUIS ENRIQUE               00000000000000016072016     020000009570603  2                  9
Y605571210039088808751RUIZ                       MACHUCA                    JESUS RAUL                 00000000000000016072016     020000009622003  2                  9
Y605571210045057203452GONZALEZ                   BOLAÑOS                    MARIA DEL CARMEN           00000000000000019072016     020000009626303  2                  9
Y605571210059159630884PEREZ                      AGUILAR                    GUSTAVO FERMIN             00000000000000016072016     020000015168803  2                  9
Y605571210043078615531ORTEGA                     GUERRA                     BENITO                     00000000000000020072016     020000019070303  2                  9
Y605571210025149427798GARCIA                     GARCIA                     SERGIO                     00000000000000020072016     020000027055003  2                  9
Y605571210065008332432ROMERO                     CRUZ                       AGUSTIN                    00000000000000020072016     020000030116703  2                  9
