A836767410921089267898DEVORA                     VILLALBA                   LUIS ENRIQUE               00000000000000020052017     020000002054203  2                  9
A836767410954159552618GONZALEZ                   MEJIA                      JESSICA JEANNET            00000000000000020052017     020000002054403  2                  9
A836767410911169514111RAMOS                      ACOSTA                     JESUS ELI                  00000000000000023052017     020000008074103  2                  9
