A836767410933887033570GARIBAY                    ROSALES                    PATRICIA                   00000000000000018072016     020000008007603  2                  9
A836767410931846400187CALZADA                    SANCHEZ                    TORIBIO                    00000000000000001072016     020000008010103  2                  9
A836767410931846400187CALZADA                    SANCHEZ                    TORIBIO                    00000000000000001072016     020000008010103  2                  9
A836767410931036700842FAVELA                     RIVAS                      JOSE GUADALUPE             00000000000000004072016     020000008043103  2                  9
A836767410931036700842FAVELA                     RIVAS                      JOSE GUADALUPE             00000000000000004072016     020000008043103  2                  9
A836767410933139328257GONZALEZ                   RAMIREZ                    ROGELIO ALEJANDRO          00000000000000007062016     020000008048003  2                  9
A836767410935978188288MATA                       CHAPARRO                   OSCAR                      00000000000000013072016     020000008048803  2                  9
A836767410935978188288MATA                       CHAPARRO                   OSCAR                      00000000000000013072016     020000008048803  2                  9
A836767410919169471026MENDOZA                    GUTIERREZ                  ADRIAN                     00000000000000007072016     020000008048903  2                  9
A836767410919169471026MENDOZA                    GUTIERREZ                  ADRIAN                     00000000000000007072016     020000008048903  2                  9
A836767410933887235001OLAYO                      MARTINEZ                   CLAUDIA BEATRIZ            00000000000000006072016     020000008049403  2                  9
A836767410933887235001OLAYO                      MARTINEZ                   CLAUDIA BEATRIZ            00000000000000006072016     020000008049403  2                  9
A836767410933119382670LUJAN                      MARTINEZ                   ANDRES IGNACIO             00000000000000011072016     020000008049503  2                  9
A836767410933119382670LUJAN                      MARTINEZ                   ANDRES IGNACIO             00000000000000011072016     020000008049503  2                  9
A836767410944149308486ENRIQUEZ                   CISNEROS                   MIGUEL ANGEL               00000000000000013072016     020000008049903  2                  9
A836767410944149308486ENRIQUEZ                   CISNEROS                   MIGUEL ANGEL               00000000000000013072016     020000008049903  2                  9
A836767410933998246285GALLEGOS                   HERRERA                    ABRAHAM                    00000000000000018072016     020000008050503  2                  9
