Y605571210003158726665HERNANDEZ                  VALENCIA                   KATIA MARLEN               00000000000000003072017     020000009521703  2                  9
Y605571210045966900552RAMIREZ                    OCAMPO                     JUAN                       00000000000000003072017     020000009618903  2                  9
Y605571210094087600543MENDIETA                   GARCIA                     MARIA ANGELICA             00000000000000003072017     020000009645803  2                  9
Y605571210042876913197CONTRERAS                  GARDUÒO                    SILVANO                    00000000000000003072017     020000009666403  2                  9
Y605571210096119117339CHAVEZ                     LOPEZ                      DULCE VIRIDIANA            00000000000000001072017     020000009679503  2                  9
Y605571210094109563638CORTES                     RANGEL                     TANIA MARINA               00000000000000003072017     020000013015103  2                  9
Y605571210001907005597CARMONA                    SANCHEZ                    MARTIN                     00000000000000003072017     020000015153403  2                  9
Y605571210019169852290CAMACHO                    BORJA                      GERARDO                    00000000000000002072017     020000015190203  2                  9
Y605571210092978151139ORNELAS                    CAMPOS                     SILVIA ARACELI             00000000000000002072017     020000015195003  2                  9
Y605571210094129316132VILLEGAS                   AGUIRRE                    SARAI                      00000000000000003072017     020000015204003  2                  9
Y605571210094109204951ORTEGA                     BALDERAS                   JOSE GIOVANNI              00000000000000002072017     020000015204203  2                  9
Y605571210018169810969VASQUEZ                    GARCIA                     LIZBETH                    00000000000000003072017     020000015206803  2                  9
Y605571210044159763273SUAREZ                     GUTIERREZ                  FERNANDO IORY ADDI         00000000000000003072017     020000015211403  2                  9
Y605571210021067405346PACHECO                    MARQUEZ                    JUDITH                     00000000000000001072017     020000015213403  2                  9
Y605571210043776207128LUCIO                      CAVAZOS                    JAIME                      00000000000000003072017     020000019064503  2                  9
Y605571210043008221905GOMEZ                      DUARTE                     JOSE CASIMIRO              00000000000000001072017     020000019097903  2                  9
Y605571210043109258996CARRILLO                   MARTINEZ                   EMANUEL RODRIGO            00000000000000001072017     020000019115903  2                  9
Y605571210043018471763VILLAZANA                  HERNANDEZ                  CARLOS                     00000000000000001072017     020000019116403  2                  9
Y605571210043047504808PAZARAN                    VEGA                       ESTHELA MARGARITA          00000000000000002072017     020000019116503  2                  9
Y605571210043866726656ROLDAN                     LOPEZ                      LINO ALBERTO               00000000000000003072017     020000019116703  2                  9
Y605571210034998202021HERNANDEZ                  CORONADO                   JUAN CARLOS                00000000000000003072017     020000022063503  2                  9
Y605571210082018212801GARCIA                     AES                        DORIS DEL CARMEN           00000000000000003072017     020000023040603  2                  9
Y605571210019149561235MENDEZ                     VELAZCO                    FRANCISCO                  00000000000000003072017     020000023044403  2                  9
Y605571210001786096279CONTRERAS                  JIMENEZ                    JAVIER                     00000000000000003072017     020000025001803  2                  9
Y605571210023099235832VALENZUELA                 FELIX                      ALEXIS ALAN                00000000000000003072017     020000025016403  2                  9
Y605571210067816361868JOAQUIN                    MARGARITO                  TRINIDAD                   00000000000000003072017     020000030077703  2                  9
Y605571210067129431093SALAZAR                    DURAN                      JOSE DANIEL                00000000000000001072017     020000030090203  2                  9
Y605571210067987927281GALLARDO                   ZAMUDIO                    JOSE ALFREDO               00000000000000001072017     020000030100203  2                  9
Y605571210065988129188TOTO                       SOSME                      JORGE                      00000000000000001072017     020000030103903  2                  9
Y605571210078018504916DE JESUS                   LOPEZ                      ARGENIS DANIEL             00000000000000001072017     020000030115403  2                  9
Y605571210012168977242CASTILLO                   DELGADO                    JULIO                      00000000000000001072017     020000030117903  2                  9
Y605571210067129460266PEREZ                      LEON                       ABEL                       00000000000000001072017     020000030118003  2                  9
Y605571210067139451149CRUZ                       CORONADO                   ANGEL DE JESUS             00000000000000001072017     020000030127403  2                  9
Y605571210065007801429GONZALEZ                   SANCHEZ                    CARLOS AMADO               00000000000000001072017     020000030129203  2                  9
Y605571210056169647239LOPEZ                      BAZAN                      ROBERTO                    00000000000000001072017     020000030129503  2                  9
Y605571210067886703064ARIZA                      FLORES                     ISIDRO                     00000000000000001072017     020000030142503  2                  9
Y605571210067008118548HERNANDEZ                  BLANCO                     JUAN PABLO                 00000000000000001072017     020000030143503  2                  9
Y605571210067107600826IGNACIO                    GOMEZ                      FLORIANA                   00000000000000003072017     020000030145903  2                  9
Y605571210035159686258GALMICH                    LUNA                       EDSON                      00000000000000003072017     020000030146903  2                  9
Y605571210067937650116MARTINEZ                   BARRIOS                    JESUS                      00000000000000003072017     020000030150803  2                  9
Y605571210065846600313MUÒOZ                      ALVAREZ                    JUSTINO                    00000000000000001072017     020000030151003  2                  9
