Y605571210028038700739AVIÑA                      ACEVEDO                    WENDY KARINA               00000000000000010012017     020000009032602  2                  9
Y605571210042907327839DAVALOS                    FLORES                     CARLOS ULISES              00000000000000010012017     020000009664403  2                  9
Y605571210001806433148BOLAÑOS                    NORIEGA                    ROBERTO                    00000000000000006012017     020000009664903  2                  9
Y605571210002156969517MELCHOR                    HERNANDEZ                  FROYLAN                    00000000000000009012017     020000009667603  2                  9
Y605571210039917237701RAMIREZ                    BENITEZ                    FRANCISCO                  00000000000000010012017     020000009671503  2                  9
Y605571210053887203056PACHECO                    LEON                       OSCAR                      00000000000000004012017     020000016009403  2                  9
Y605571210047907017249FLORES                     VALLADAREZ                 IRMA LETICIA               00000000000000007012017     020000019092003  2                  9
Y605571210043028699528CASTILLO                   MARTINEZ                   CARLOS FRANCISCO           00000000000000009012017     020000019097203  2                  9
Y605571210014099122237NIEVES                     FALCON                     JESUS URIEL                00000000000000009012017     020000022053803  2                  9
Y605571210023917800304MURRIETA                   LOPEZ                      MANUEL ENRIQUE             00000000000000010012017     020000025011203  2                  9
