Y605571210024927645077PEREZ                      ALVAREZ                    ANGEL                      00000000000000009062016     020000009596303  2                  9
Y605571210013139106556QUEZADA                    CORNELIO                   KAREN                      00000000000000009062016     020000011000402  2                  9
Y605571210072068706455BELTRAN                    RIVERA                     JUAN                       00000000000000009062016     020000011079503  2                  9
Y605571210002168853253MANCINES                   TERAN                      FRANCISCO                  00000000000000009062016     020000011080003  2                  9
Y605571210003169113275MASTACHE                   BELTRAN                    JUAN                       00000000000000009062016     020000011080103  2                  9
Y605571210027149307673MASTACHE                   BELTRAN                    ANGEL                      00000000000000009062016     020000011080203  2                  9
Y605571210010169404950NAVA                       MARTINEZ                   RICARDO                    00000000000000009062016     020000011080803  2                  9
Y605571210092078901300AGUADO                     AMADOR                     OSCAR ALEJANDRO            00000000000000007062016     020000015171603  2                  9
Y605571210043088632781ALVARADO                   GARCIA                     ALEJANDRO CESAR            00000000000000008062016     020000019077703  2                  9
Y605571210014088823506RAMIREZ                    CERVANTES                  MIGUEL ANGEL               00000000000000009062016     020000022001502  2                  9
Y605571210014897100732DORANTES                   GARCIA                     ADRIAN                     00000000000000008062016     020000022041603  2                  9
Y605571210009967714958HERRERA                                               JOSE DAVID                 00000000000000009062016     020000022043003  2                  9
Y605571210019148481351ROSALES                    SALAZAR                    KATIA CRISTINA             00000000000000009062016     020000030070303  2                  9
Y605571210065856664019RIVERA                     BELTRAN                    ANGEL                      00000000000000009062016     020000030105103  2                  9
Y605571210065977816217COVARRUBIAS                SOTO                       JULIO                      00000000000000009062016     020000030116903  2                  9
