Y605571210045108615746MORENO                     CABELLO                    CHRISTIAN                  00000000000000006072017     020000009042202  2                  9
Y605571210003148813458SALAS                      PRUDENCIO                  FRANCISCO MANUEL           00000000000000011072017     020000009566103  2                  9
Y605571210005179490619CAMPOS                     ALVAREZ                    BRAYAN EDIVANI             00000000000000010072017     020000009706603  2                  9
Y605571210011967409514BENAVIDES                  ALVA                       SANDRA                     00000000000000009072017     020000009712503  2                  9
Y605571210042907342549HERNANDEZ                  FLORES                     ARACELI                    00000000000000011072017     020000009715403  2                  9
Y605571210096048513038RAMIREZ                    PEREZ                      BLANCA ESTELA              00000000000000009072017     020000009716203  2                  9
Y605571210096077402434ORTEGA                     FLORES                     VIRGINIA                   00000000000000011072017     020000009716303  2                  9
Y605571210030027304796AGUILAR                    CASTRO                     MARIA GRISELDA             00000000000000010072017     020000009717303  2                  9
Y605571210026159862460REYES                      RIVERA                     STEPHANY                   00000000000000011072017     020000015214403  2                  9
Y605571210043028466464RAMIREZ                    VALLE                      JUAN RAMON                 00000000000000011072017     020000019083803  2                  9
Y605571210035149565802MOO                        ALANIS                     EDUARDO ROMAN              00000000000000009072017     020000023044503  2                  9
Y605571210046169611335SUMUANO                    JIMENEZ                    JOSE GABRIEL               00000000000000008072017     020000023047503  2                  9
