Y605571210081947632253LARA                       GARCIA                     ALBINO                     00000000000000026112016     020000004008403  2                  9
Y605571210054149528900CHAN                       RUIZ                       JOSE EDUARDO               00000000000000026112016     020000004008803  2                  9
Y605571210083058701810CARBONELL                  LOPEZ                      JULIO ADRIAN               00000000000000022112016     020000004008903  2                  9
Y605571210096139516981ROSAS                      ZAVALA                     ANTONIO EDWIN              00000000000000024112016     020000009470303  2                  9
Y605571210096099313825MARTINEZ                   ESCOBAR                    CARLOS                     00000000000000028112016     020000009545703  2                  9
Y605571210094068611477ALVARADO                   MARTINEZ                   RUBEN                      00000000000000026112016     020000009608603  2                  9
Y605571210037098905682ENCISO                     MARTINEZ                   GEOVANI                    00000000000000026112016     020000009608803  2                  9
Y605571210096927454700CAYETANO                   CRUZ                       JORGE                      00000000000000024112016     020000009632203  2                  9
Y605571210066149626203JIMENEZ                    RIVERA                     MARIA DE JESUS             00000000000000028112016     020000009639003  2                  9
Y605571210090906932687MURILLO                    NAVARRO                    BERTHA MARGARITA           00000000000000022112016     020000009647203  2                  9
Y605571210019149640419MONTALVO                   FRAUSTO                    LUIS ANDRES                00000000000000025112016     020000009647803  2                  9
Y605571210090897157708BAENA                      ZUÑIGA                     JUAN ANTONIO               00000000000000024112016     020000009653803  2                  9
Y605571210012978164197RODRIGUEZ                  ROCHA                      JOSE ROBERTO               00000000000000022112016     020000011072203  2                  9
Y605571210012128818874JIMENEZ                    VASQUEZ                    JORGE LUIS                 00000000000000022112016     020000011084303  2                  9
Y605571210057078905767MUÑOZ                      ARREDONDO                  DAVID                      00000000000000026112016     020000011090403  2                  9
Y605571210012038726563VELOZ                      MANRIQUEZ                  EDGAR JOSUE ABRAHAM        00000000000000025112016     020000011090603  2                  9
Y605571210094128803700GAMBOA                     MATIAS                     MARIANA                    00000000000000028112016     020000015150403  2                  9
Y605571210068149617273CHAROLA                    HERMENEGILDO               ANA FERNANDA               00000000000000028112016     020000015182303  2                  9
Y605571210094129034529AGUILAR                    GONZALEZ                   MARIA ALEJANDRA            00000000000000028112016     020000015184403  2                  9
Y605571210001856631765CERVANTES                  NAVA                       TOMAS                      00000000000000022112016     020000015185903  2                  9
Y605571210023977859497AMADOR                     QUEVEDO                    MARCOS ANTONIO             00000000000000028112016     020000025011003  2                  9
Y605571210065099022280CRESCENCIO                 LOPEZ                      OMAR                       00000000000000026112016     020000030128603  2                  9
