D691959010178139310425LOPEZ                      MARTINEZ                   MARCO ANTONIO              00000000000000018122016     020000020022103  2                  9
D691959010178139333690VAZQUEZ                    GALLEGOS                   FRANCISCO JAVIER           00000000000000016122016     020000020023203  2                  9
D691959010178129240624MARTINEZ                   GARNICA                    GUILLERMO                  00000000000000018122016     020000020023603  2                  9
D691959010178129230872MONTES                     VAZQUEZ                    GUILLERMO ENRIQUE          00000000000000018122016     020000020023903  2                  9
D691959010110836439769JUAREZ                     DE LOS SANTOS              JULIO CESAR                00000000000000018122016     020000020025203  2                  9
D691959010178906921768VAZQUEZ                    LOPEZ                      JAVIER                     00000000000000016122016     020000020025303  2                  9
D691959010178017507274MARTINEZ                   APARICIO                   LEONARDO                   00000000000000019122016     020000020026903  2                  9
D691959010178947900011SILVESTRE                  HERNANDEZ                  ANTELMO                    00000000000000019122016     020000020028103  2                  9
