A836767410902169409808MENA                       ALDANA                     JOCELYN JUDITH             00000000000000025022017     020000008002802  2                  9
A836767410950917207735STILLMAN                   ROBLES                     RAFAEL ANGEL               00000000000000027022017     020000008067203  2                  9
A836767410933129290350RASCON                     MORALES                    MANUEL ANGEL               00000000000000027022017     020000008070703  2                  9
