Y605571210045108511150DIAZ                       CRUZ                       JOSE DE JESUS              00000000000000019022017     020000009275503  2                  9
Y605571210045109116751MARAVILLA                  SABINO                     CESAR ALEJANDRO            00000000000000020022017     020000009456903  2                  9
Y605571210096109273142SILLERO                    CASTILLO                   RUBI CITLALI               00000000000000019022017     020000009572403  2                  9
Y605571210005168938958CARRERA                    MONTALVO                   MIGUEL ANGEL               00000000000000018022017     020000009623503  2                  9
Y605571210001906924400HUITRON                    CALLEJAS                   FABIOLA                    00000000000000018022017     020000009650103  2                  9
Y605571210096159802626MORALES                    DIAZ                       JAVIER                     00000000000000021022017     020000009653903  2                  9
Y605571210020987815576BURGOA                     TAPIA                      ENRIQUE                    00000000000000021022017     020000009657503  2                  9
Y605571210096129389415MENDOZA                    ROMERO                     ERICK ALEJANDRO            00000000000000019022017     020000009672603  2                  9
Y605571210016866701036FERNANDEZ                  RIVERA                     FERMIN                     00000000000000016022017     020000015189203  2                  9
Y605571210003179417245CASTAÑEDA                  SERRANO                    KARLA                      00000000000000017022017     020000015192103  2                  9
Y605571210014089305271ROMERO                     CHAVEZ                     JOSE DANIEL                00000000000000021022017     020000022054603  2                  9
Y605571210071907204987RODRIGUEZ                  ORTIZ                      VALENTIN                   00000000000000021022017     020000023009003  2                  9
Y605571210082088819527ROSADO                     VAZQUEZ                    SAIDY MARIEL               00000000000000021022017     020000023038503  2                  9
