A482760210352118808030PEREDIA                    GUERRERO                   JOSE LUIS                  00000000000000009052016     020000006000303  2                  9
A482760210352109206202LOPEZ                      RAZO                       JOSE ALFREDO               00000000000000009052016     020000006000603  2                  9
A482760210370159691180LOPEZ                      SERRATOS                   JONATHAN XAVIER            00000000000000009052016     020000006000903  2                  9
A482760210352149603749FARIAS                     RODRIGUEZ                  JULIO CESAR                00000000000000009052016     020000006001003  2                  9
A482760210352109008657RAMIREZ                    DUARTE                     JOSE ANTONIO               00000000000000009052016     020000006001303  2                  9
