Y605571210011866602961ZENTENO                    ROJAS                      JAIME                      00000000000000017042017     020000009568503  2                  9
Y605571210017826609608MORALES                    VALENCIA                   JUAN                       00000000000000016042017     020000009636803  2                  9
Y605571210045139414788GARDU—O                    PALOMINO                   JOVANNI                    00000000000000017042017     020000009686803  2                  9
Y605571210039028402707JUAREZ                     MAQUITICO                  NOE                        00000000000000011042017     020000009687603  2                  9
Y605571210002159660998PEÒA                       MARTINEZ                   FILIBERTO                  00000000000000011042017     020000009690403  2                  9
Y605571210094129502178CESPEDES                   RAMIREZ                    MARCO ANTONIO              00000000000000016042017     020000009694203  2                  9
Y605571210002176929079SANCHEZ                    MONTIEL                    PATRICIA                   00000000000000017042017     020000009695303  2                  9
Y605571210020129759302ROMERO                     FUENTES                    ISRAEL EMMANUEL            00000000000000016042017     020000009695403  2                  9
Y605571210046149203542GERMAN                     JIMENEZ                    MARIA FERNANDA             00000000000000017042017     020000013010103  2                  9
Y605571210090129116365SALAZAR                    ALVARADO                   RICARDO DE JESUS           00000000000000013042017     020000015076303  2                  9
Y605571210045986703630MIRANDA                    CALZADILLA                 ALEJANDRO                  00000000000000016042017     020000015154903  2                  9
Y605571210021996400681BOMBELA                    FLORES                     JESUS BENITO               00000000000000016042017     020000015194603  2                  9
Y605571210092129300254MARTINEZ                   MARTINEZ                   URIEL                      00000000000000016042017     020000015195503  2                  9
Y605571210026169862476GUTIERREZ                  BLANCAS                    SELINA                     00000000000000017042017     020000015196503  2                  9
Y605571210037007405923HERNANDEZ                  GONZALEZ                   LAURA                      00000000000000016042017     020000015197003  2                  9
Y605571210094906202547RIZO                       SOLORIO                    DELFINA                    00000000000000017042017     020000015199403  2                  9
Y605571210092069008354MORALES                    MAGUEYAL                   DOLORES MONTSERRAT         00000000000000016042017     020000015199603  2                  9
Y605571210022087202044REYES                      LOPEZ                      REYNA                      00000000000000017042017     020000015200003  2                  9
Y605571210006139803529LOREDO                     GONZALEZ                   JOSE DE JESUS              00000000000000017042017     020000015200703  2                  9
Y605571210090129607447SAGUILAN                   CRUZ                       JUAN ALAN                  00000000000000016042017     020000015201903  2                  9
Y605571210002166827937ZALETA                     GONZALEZ                   CRISPIN                    00000000000000017042017     020000019077303  2                  9
Y605571210043745630004RODRIGUEZ                  CRUZ                       ENRIQUE                    00000000000000013042017     020000019088703  2                  9
Y605571210003977490196NU—O                       ELVER                      TEODULO                    00000000000000017042017     020000019091503  2                  9
Y605571210024169581121ESTEVEZ                    LUGO                       EDER YAITH                 00000000000000016042017     020000019107103  2                  9
Y605571210002166449781ALONZO                     GARCIA                     ADAN                       00000000000000015042017     020000019107503  2                  9
Y605571210043977884311SIFUENTES                  GARCIA                     MARIA EUGENIA              00000000000000015042017     020000019107803  2                  9
Y605571210003148303112GARCIA                     PEREZ                      BEATRIZ ADRIANA            00000000000000017042017     020000022052803  2                  9
Y605571210026149534005DEL TORO                   VILLARREAL                 JOSE CRUZ                  00000000000000017042017     020000022056003  2                  9
Y605571210053058812230GARCIA                     PASTOR                     EFREN                      00000000000000013042017     020000022058803  2                  9
Y605571210017179802594MARIN                      SALAZAR                    PEDRO ERNESTO              00000000000000017042017     020000022059903  2                  9
Y605571210081028403491LOPEZ                      ACOSTA                     LUIS ALBERTO               00000000000000016042017     020000023045103  2                  9
Y605571210065836703762ROSILES                    GONZALEZ                   JUAN ELISEO                00000000000000016042017     020000030129303  2                  9
Y605571210037997409422PEREZ                      VERGARA                    GUADALUPE                  00000000000000017042017     020000030137703  2                  9
Y605571210067088525562ESPINOSA                   HERNANDEZ                  OMAR                       00000000000000017042017     020000030144703  2                  9
