Y605571210002169786460MORALES                    SIFUENTES                  LISANDRO                   00000000000000012052017     020000009663803  2                  9
Y605571210096937423588PEREZ                      MORENO                     GONZALO JAVIER             00000000000000008052017     020000009694903  2                  9
Y605571210001018224855MU—OZ                      HUERTA                     MOISES FRANCISCO           00000000000000012052017     020000009698603  2                  9
Y605571210005168501335VALDEZ                     RECENDIZ                   GIAN CARLOS                00000000000000011052017     020000015205203  2                  9
Y605571210016897068306NARVAEZ                    VALERIANO                  FRANCISCO                  00000000000000009052017     020000015207903  2                  9
Y605571210043907377725JERONIMO                   RODRIGUEZ                  OLGA LIDIA                 00000000000000012052017     020000019108703  2                  9
Y605571210010169394045REYES                      BARRIENTOS                 YIMY JEOVANNY              00000000000000011052017     020000019109203  2                  9
Y605571210043119262905YAÒEZ                      MARTINEZ                   CLAUDIA YANET              00000000000000011052017     020000019109303  2                  9
Y605571210013068106684MARTINEZ                   GONZALEZ                   JAIME                      00000000000000012052017     020000022039803  2                  9
Y605571210014139332408MUÒOZ                      MANCILLA                   MIGUEL ANGEL               00000000000000011052017     020000022061103  2                  9
Y605571210005179519425MANCILLA                   AVILA                      IVAN                       00000000000000011052017     020000022061203  2                  9
Y605571210005179209878HERNANDEZ                  PABLO                      DIONICIO                   00000000000000012052017     020000027061403  2                  9
