A836767410919149485278CARRILLO                   MANCINAS                   ANGEL ULISES               00000000000000024102016     020000008053303  2                  9
A836767410933048524814HERNANDEZ                  HERNANDEZ                  CESAR DAVID                00000000000000025102016     020000008059003  2                  9
A836767410935988039869GURROLA                    VALENZUELA                 FERNANDO                   00000000000000025102016     020000008060203  2                  9
A836767410933119212117LUNA                       RAMIREZ                    JESUS ALBERTO              00000000000000025102016     020000008061903  2                  9
A836767410909967706228VILLA                                                 IRENE VERONICA             00000000000000025102016     020000008062103  2                  9
