Y605571210045906508457MEDINA                     MENDEZ                     SOCORRO                    00000000000000002082017     020000009538903  2                  9
Y605571210030896600316SANCHEZ                                               MIGUEL                     00000000000000002082017     020000009716703  2                  9
Y605571210042139702213ALVARADO                   PACHECO                    ALAN DE JESUS              00000000000000001082017     020000009721203  2                  9
Y605571210096136800925CASTILLO                   TAMAYO                     JORGE                      00000000000000002082017     020000009721403  2                  9
Y605571210067109018597AGUILAR                    PADUA                      EDGAR ALFREDO              00000000000000001082017     020000015198203  2                  9
Y605571210042917420087PALMA                      HERNANDEZ                  AGUSTIN                    00000000000000001082017     020000015206403  2                  9
Y605571210092907207994RODRIGUEZ                  BASURTO                    LILIANA                    00000000000000001082017     020000015214103  2                  9
Y605571210092139867656ESPINOSA                   REYES                      PEDRO RICARDO              00000000000000002082017     020000015215503  2                  9
Y605571210003907329696FLORES                     LARA                       ISAIAS                     00000000000000002082017     020000019119003  2                  9
Y605571210047119444272BONILLA                    HERNANDEZ                  JUAN PABLO                 00000000000000002082017     020000019120503  2                  9
Y605571210003157513718QUINTERO                   PEREZ                      CLAUDIA CECILIA            00000000000000001082017     020000025009003  2                  9
Y605571210083139333781TORREZ                     GAMAS                      RICARDO                    00000000000000002082017     020000027060103  2                  9
