Y605571210002167284492ARREGUIN                   GONZALEZ                   SALVADOR                   00000000000000008032017     020000009647503  2                  9
Y605571210042887223099DE LA ROSA                 LUNA                       BRENDA                     00000000000000010032017     020000009653103  2                  9
Y605571210042108902117ZAMORA                     DE LA ROSA                 ADALBERTO                  00000000000000009032017     020000009666103  2                  9
Y605571210016998044842LAZCANO                    NUÒEZ                      JOSE HERIBERTO             00000000000000010032017     020000011083103  2                  9
Y605571210012976113816LOPEZ                      TORRES                     JUAN                       00000000000000010032017     020000011089303  2                  9
Y605571210049946610281SAENZ                      GONZALEZ                   JAIME                      00000000000000009032017     020000028038203  2                  9
Y605571210017169610452VERGARA                    TAGAL                      LUIS ALBERTO               00000000000000009032017     020000030126703  2                  9
Y605571210067119239910VIDAL                      PEREZ                      MARIA DE GUADALUPE         00000000000000009032017     020000030126803  2                  9
Y605571210065078203869CARRERA                    RAYGOZA                    PETRA                      00000000000000009032017     020000030135703  2                  9
