Y605571210051856909497LEYVA                      LOPEZ                      LUIS ALFONSO               00000000000000006092016     020000001007203  2                  9
Y605571210001088921638CHAVEZ                     VILLA                      BRANDON                    00000000000000006092016     020000001008003  2                  9
Y605571210001088921638CHAVEZ                     VILLA                      BRANDON                    00000000000000006092016     020000001008003  2                  9
Y605571210062826510406LARA                       ELIAS                      SERGIO RUBEN               00000000000000008092016     020000001008803  2                  9
Y605571210007028408917DORANTES                   DIAZ                       DIEGO                      00000000000000008092016     020000009037102  2                  9
Y605571210045128001182BELTRAN                    HERNANDEZ                  SAMANTHA                   00000000000000010092016     020000009618803  2                  9
Y605571210030977312682ROMERO                     REYES                      LUCIANO                    00000000000000006092016     020000009621503  2                  9
Y605571210035149265874PEREZ                      GUERRA                     LUCERO RUBI                00000000000000012092016     020000009629803  2                  9
Y605571210017856512698ISLAS                      CONTRERAS                  HECTOR ENRIQUE             00000000000000010092016     020000009631103  2                  9
Y605571210019149439895MERINO                     MONTERO                    OMAR                       00000000000000006092016     020000009634503  2                  9
Y605571210030129417702AGUAYO                     TREJO                      SERGIO                     00000000000000006092016     020000009638103  2                  9
Y605571210096078602420CRUZ                       CORTES                     SONIA ELIZABETH            00000000000000009092016     020000009638403  2                  9
Y605571210045897245242FRIAS                      MENDOZA                    VICTOR MANUEL              00000000000000009092016     020000009640603  2                  9
Y605571210042866941083SUAREZ                     RAMIREZ                    LUIS OSCAR                 00000000000000008092016     020000015156803  2                  9
Y605571210016138400185LOPEZ                      VEGA                       AZUCENA                    00000000000000011092016     020000015168003  2                  9
Y605571210053078810768LOPEZ                      MACIAS                     JESUS                      00000000000000006092016     020000016008003  2                  9
Y605571210003977693658CASTILLO                   CORTEZ                     FRANCISCO                  00000000000000012092016     020000019046503  2                  9
