Y605571210027149157011ANTONIO                    FELIX                      JUAN CARLOS                00000000000000023092016     020000016008103  2                  9
Y605571210005158668268CANELA                     GONZALEZ                   JESUS FLORENCIO            00000000000000025092016     020000016008703  2                  9
Y605571210023129312411BAUTISTA                   HERNANDEZ                  RODOLFO                    00000000000000028092016     020000025009703  2                  9
