Y605571210025159895736DE LIRA                    LUNA                       LUIS DANIEL                00000000000000014042017     020000001009203  2                  9
Y605571210032129003409CASTRO                     HERNANDEZ                  LUIS ORLANDO               00000000000000017042017     020000005009803  2                  9
Y605571210045916903391AGUILAR                    HERNANDEZ                  LUIS ESTEBAN               00000000000000016042017     020000009677303  2                  9
Y605571210018129302321MUÒIZ                      JUAREZ                     MARCO ANTONIO              00000000000000016042017     020000015199803  2                  9
Y605571210020927144491HERNANDEZ                  GONZALEZ                   MARIA ELVIRA               00000000000000018042017     020000015202903  2                  9
Y605571210043755918117RAMIREZ                    MACIAS                     JOSE                       00000000000000018042017     020000019083303  2                  9
Y605571210006856531923VILLENA                    DIAZ                       ENRIQUE                    00000000000000017042017     020000019088603  2                  9
Y605571210009119103035CAMPOS                     CASANOVA                   HECTOR GERARDO             00000000000000018042017     020000028040703  2                  9
Y605571210003178903369FERNANDEZ                  REYES                      VICTOR DANIEL              00000000000000018042017     020000028040803  2                  9
