Y605571210045139101203GONZALEZ                   ANGEL                      HERALDO                    00000000000000024082016     020000009602903  2                  9
Y605571210003169644394RAMOS                      RENDON                     LUIS ANGEL                 00000000000000024082016     020000009628703  2                  9
Y605571210094038518745LEDEZMA                    PALMAS                     MARIANO                    00000000000000024082016     020000009630003  2                  9
Y605571210028139420229YARZA                      PEREZ                      JESSICA MARLEN             00000000000000023082016     020000009632003  2                  9
Y605571210028078702223MACIAS                     TRUJANO                    LILIA CAROLINA             00000000000000024082016     020000009638203  2                  9
Y605571210010169278693ONOFRE                     RAMIREZ                    CESAR IVAN                 00000000000000024082016     020000011083903  2                  9
Y605571210012047205088RUIZ                       VARGAS                     SARA                       00000000000000024082016     020000011088503  2                  9
Y605571210020129307870CASTELLANOS                GONZALEZ                   HECTOR ESTEBAN             00000000000000024082016     020000015179603  2                  9
Y605571210083988026239DE LA CRUZ                 SUAREZ                     LEONARDO                   00000000000000022082016     020000023026703  2                  9
Y605571210082017511179MONTIEL                    LOPEZ                      JOSE ALBERTO               00000000000000024082016     020000023029703  2                  9
Y605571210071109116682AGUILAR                    CARBALLO                   HUGO CESAR                 00000000000000022082016     020000023032103  2                  9
Y605571210009987428902HERNANDEZ                  OCHOA                      TOMAS                      00000000000000023082016     020000028034203  2                  9
