Y462621510962947496527PADILLA                    FRANCO                     PAULO CESAR                00000000000000001082017     020000021121703  2                  9
Y462621510962886514645HERNANDEZ                  PELAEZ                     JOSE ALEJANDRO             00000000000000001082017     020000021169103  2                  9
Y462621510917179783067HERRERA                    GONZALEZ                   YOSELIN                    00000000000000001082017     020000021170003  2                  9
