Y605571210019149665200LOEZA                      PEREZ                      JOSE ALFONSO               00000000000000001082017     020000004010803  2                  9
Y605571210017169055377GUADARRAMA                 DIAZ                       HERMINIA                   00000000000000001082017     020000015206103  2                  9
Y605571210049866327627TORRES                     CRUZ                       JOSE MANUEL                00000000000000001082017     020000019104303  2                  9
Y605571210003148201316MENDEZ                     CASARES                    RICARDO                    00000000000000001082017     020000019109803  2                  9
Y605571210046159683898ALVAREZ                    ORTIZ                      CESAR MACARIO              00000000000000001082017     020000019120903  2                  9
Y605571210083109213252JIMENEZ                    JIMENEZ                    MARIA FERNANDA             00000000000000031072017     020000023042503  2                  9
Y605571210082078701065MONTIEL                    HERNANDEZ                  KARINA SARAHI              00000000000000031072017     020000023048703  2                  9
Y605571210071169945079ARREVILLEGA                UITZIL                     JOSE EMMANUEL              00000000000000031072017     020000023049703  2                  9
Y605571210082069018263ZAPATA                     ZAPATA                     DIANA PATRICIA             00000000000000031072017     020000023050003  2                  9
Y605571210049149556075IGNACIO                    SANTIAGO                   JUAN CARLOS                00000000000000031072017     020000023050103  2                  9
