Z064567510832816349180GARCIA                     MONTENEGRO                 MARTIN GABRIEL             00000000000000007052017     020000011046603  2                  9
Z064567510815109136026CARDENAS                   GOMEZ                      ANDRES                     00000000000000008052017     020000011087403  2                  9
Z064567510812089088517TERAN                      TERAN                      LUIS ANGEL                 00000000000000008052017     020000011093403  2                  9
Z064567510865118620908JIMENEZ                    ZOTELO                     ORNALDY                    00000000000000008052017     020000011095303  2                  9
Z064567510888816601384CARDENAS                   FLORES                     JAVIER                     00000000000000008052017     020000011098003  2                  9
Z064567510812018358619TERRONES                   MANDUJANO                  JAFET NICOLAS              00000000000000007052017     020000011098303  2                  9
