Y605571210071118919514SANCHEZ                    HERNANDEZ                  VLADIMIR                   00000000000000007072017     020000007017203  2                  9
Y605571210092987941892VARGAS                     ZABALA                     RUBEN                      00000000000000006072017     020000015187103  2                  9
Y605571210054169644082XOLO                       COBAXIN                    IRENE                      00000000000000007072017     020000015205103  2                  9
Y605571210043846821551MARTINEZ                   LOPEZ                      JUAN MANUEL                00000000000000007072017     020000019099703  2                  9
Y605571210043775733082VAZQUEZ                    VAZQUEZ                    RUBEN                      00000000000000006072017     020000019107603  2                  9
Y605571210071139411426GONZALEZ                   GUTIERREZ                  CARLOS GEOVANNY            00000000000000006072017     020000023045503  2                  9
Y605571210083987411051LOPEZ                      VALENCIA                   MANUEL ANTONIO             00000000000000007072017     020000027061703  2                  9
