Y605571210051806208644ALVARADO                   CERBANTES                  J LUIZ                     00000000000000021082016     020000001008303  2                  9
Y605571210081018401273LEON                       DE LA CRUZ                 ARTURO DEL CARMEN          00000000000000021082016     020000004007803  2                  9
Y605571210033088911277RIOS                       NUÒEZ                      JOSE ROBERTO               00000000000000023082016     020000008056803  2                  9
Y605571210094977824336GONZALEZ                   PEDRO                      ANTONIO                    00000000000000022082016     020000009624003  2                  9
Y605571210098119222234HERNANDEZ                  HERNANDEZ                  ALFONSO                    00000000000000022082016     020000009637203  2                  9
Y605571210092038308091CONTRERAS                  GONZALEZ                   JOSE EVARISTO              00000000000000021082016     020000015163103  2                  9
Y605571210002159090139FERNANDEZ                  RAMIREZ                    PEDRO                      00000000000000022082016     020000015176903  2                  9
Y605571210021896953342VALDEZ                     CABRERA                    HUGO                       00000000000000021082016     020000016007903  2                  9
Y605571210007169787442CANTABRANA                 REYES                      JUAN YAEL                  00000000000000021082016     020000018000103  2                  9
Y605571210004048651337GORDIAN                    CASTILLON                  JOSE FRANCISCO             00000000000000021082016     020000018000503  2                  9
Y605571210002159659669SAENZ                      ARMENTA                    JESUS ELISEO               00000000000000021082016     020000019050703  2                  9
Y605571210009008392715RAMOS                      MADRID                     HERNAN                     00000000000000021082016     020000019074603  2                  9
Y605571210021977616529RAMIREZ                    BAZAN                      JOSE MANUEL                00000000000000022082016     020000025007803  2                  9
Y605571210076138200290HERNANDEZ                  CORNELIO                   JUANA                      00000000000000023082016     020000027052403  2                  9
Y605571210067038607585OCAÒA                                                 FELICIANO                  00000000000000023082016     020000030118403  2                  9
