Y605571210090038711611HERNANDEZ                  CAMERO                     MARIO                      00000000000000014122016     020000009517503  2                  9
Y605571210008149534706RAMIREZ                    LOPEZ                      CHRISTIAN ALFREDO          00000000000000014122016     020000009657203  2                  9
Y605571210096108414903MILL                       MARTINEZ                   MISAEL                     00000000000000008122016     020000009661303  2                  9
