A836767410925957813873ARVIZU                     CHAVEZ                     ARACELI                    00000000000000010072017     020000002051703  2                  9
A836767410921068988399LEYVA                      LOPEZ                      EMMA KARELY GUADALUPE      00000000000000010072017     020000002055403  2                  9
A836767410927169537738GONZALEZ                   GONZALEZ                   DEUSDEDIT                  00000000000000010072017     020000002057303  2                  9
A836767410921007634591CASTRO                     VALENZUELA                 MARLEN                     00000000000000010072017     020000002057803  2                  9
A836767410925977705968CORREA                     NUÒEZ                      JORGE ALBERTO              00000000000000010072017     020000002058303  2                  9
A836767410971119322452AREBALO                    PEREZ                      DANIEL                     00000000000000010072017     020000002058703  2                  9
