A836767410933776105695GARAY                      VELEZ                      EVARISTO                   00000000000000010082016     020000008053903  2                  9
A836767410933079115466SANCHEZ                    VALENCIA                   VICTOR HUGO                00000000000000010082016     020000008054503  2                  9
A836767410935998254938TRUJILLO                   CASTILLO                   MANUEL DAVID               00000000000000010082016     020000008054803  2                  9
