Y605571210003816407542MARTINEZ                   ZUBIRIAS                   GUSTAVO                    00000000000000011032017     020000005012203  2                  9
Y605571210028119300060AREVALO                    MACIAS                     LUIS EDUARDO               00000000000000011032017     020000009547203  2                  9
Y605571210020937701272ESCOBAR                    CORRAL                     ALEJANDRO                  00000000000000007032017     020000009630203  2                  9
Y605571210096139525206APARICIO                   SANCHEZ                    MARIANA DE JESUS           00000000000000011032017     020000009669103  2                  9
Y605571210094028314782PLASCENCIA                 HERNANDEZ                  SANDRA                     00000000000000012032017     020000009677603  2                  9
Y605571210035169603996FERNANDEZ                  HERNANDEZ                  JORGE EDUARDO              00000000000000010032017     020000009680203  2                  9
Y605571210092129304389GONZALEZ                   BURGOS                     PAOLA MONTSERRAT           00000000000000013032017     020000015190503  2                  9
Y605571210037018506420DAVILA                     PEREZ                      MARLENE                    00000000000000013032017     020000015197803  2                  9
Y605571210025169224083RAMIREZ                    RODRIGUEZ                  DANIELA MARIBEL            00000000000000010032017     020000019104603  2                  9
Y605571210041109407415OCHOA                      ROJAS                      EINAR ZURIEL               00000000000000011032017     020000024004903  2                  9
Y605571210073008104694BENITEZ                    LOPEZ                      ROSALIO                    00000000000000013032017     020000025013603  2                  9
Y605571210065138201663DELGADO                    ROMERO                     LORENZO ANTONIO            00000000000000013032017     020000030104003  2                  9
