Y605571210033846333244BAILON                     VASQUEZ                    PABLO                      00000000000000006102016     020000001008903  2                  9
Y605571210030937548425ALANIS                     TORRES                     MARIA TERESA               00000000000000007102016     020000009601403  2                  9
Y605571210090018517491COLIN                      PIMENTEL                   JOSE RICARDO               00000000000000005102016     020000009612703  2                  9
Y605571210096127602256MENDEZ                     MARTINEZ                   PATRICIA                   00000000000000007102016     020000009624203  2                  9
Y605571210003147673531LUJANO                     PINEDA                     FELISA                     00000000000000007102016     020000009630303  2                  9
Y605571210010169153383PRIETO                     BAUTISTA                   MARIELA                    00000000000000007102016     020000009630403  2                  9
Y605571210007129400730JUAREZ                     OCAÒA                      EMMA ANGELICA              00000000000000007102016     020000009640103  2                  9
Y605571210053088838387GUTIERREZ                  GALVAN                     LUIS FERNANDO              00000000000000006102016     020000016008403  2                  9
Y605571210043846303899ZARATE                     BELTRAN                    JOSE LUIS                  00000000000000007102016     020000019083603  2                  9
Y605571210023887116053GARCIA                     VALENZUELA                 JOSE GUADALUPE             00000000000000007102016     020000025009403  2                  9
Y605571210032119421454BARRIENTOS                 SALAS                      JERONIMO                   00000000000000006102016     020000028034603  2                  9
