R143868210356927369357GARCIA                     ROSALES                    JOSE GERARDO               00000000000000020062016     020000014078603  2                  9
R143868210360159742794BARBA                      HERNANDEZ                  MARIA ESTHER               00000000000000015062016     020000014108503  2                  9
R143868210366159672832CORDOBA                    RAMOS                      ALEXANDRA                  00000000000000015062016     020000014108603  2                  9
R143868210304139437885PRECIADO                   CORTES                     SELENE NOEMI               00000000000000020062016     020000014108903  2                  9
R143868210304876874431CHAVEZ                     IBARRA                     JUAN JOSE                  00000000000000017062016     020000014112803  2                  9
R143868210304006208757SANDOVAL                   ESCOBAR                    JORGE ALBERTO              00000000000000015062016     020000014113903  2                  9
R143868210304038150514JIMENEZ                    HERNANDEZ                  ALEJANDRO                  00000000000000016062016     020000014114803  2                  9
R143868210374907294933CASTILLO                   PEREZ                      JUAN JOSE                  00000000000000020062016     020000014115003  2                  9
