Y605571210083816126433HERNANDEZ                  HERNANDEZ                  GUADALUPE                  00000000000000006032017     020000004007103  2                  9
Y605571210081975701392DE LA CRUZ                 SUAREZ                     LUIS                       00000000000000006032017     020000004010203  2                  9
Y605571210002179643156VALENCIA                   CHAN                       JESUS GABRIEL              00000000000000005032017     020000004010603  2                  9
Y605571210081028400059PEREZ                      HERNANDEZ                  REYNALDO DEL JESUS         00000000000000006032017     020000004010703  2                  9
Y605571210081048305445GOMEZ                      CHAN                       MARCOS                     00000000000000006032017     020000004011003  2                  9
Y605571210020088706674CORONA                     AGUILERA                   VICTOR MANUEL              00000000000000008032017     020000009031802  2                  9
Y605571210020079201073ALCANTARA                  HINOJOSA                   CARLOS ANTONIO             00000000000000002032017     020000009520903  2                  9
Y605571210096067806297MEJIA                      ORDUÑA                     JUAN MARTIN                00000000000000004032017     020000009608403  2                  9
Y605571210018149803423MARTINEZ                   AMARO                      ERICK                      00000000000000006032017     020000009658803  2                  9
Y605571210045977754360GOMEZ                      GOMEZ                      RAUL                       00000000000000007032017     020000009659103  2                  9
Y605571210096119413662ORTIZ                      HERNANDEZ                  JOSE JAVIER                00000000000000007032017     020000009673803  2                  9
Y605571210089866526513GIL                        MONROY                     ESPERANZA                  00000000000000007032017     020000009678503  2                  9
Y605571210002179988585RAMOS                      TREJO                      AGUSTIN                    00000000000000007032017     020000009680503  2                  9
Y605571210008179830768AVILA                      GARCIA                     LUIS MAURO                 00000000000000005032017     020000009684203  2                  9
Y605571210096119452488PACHECO                    MORGADO                    EDWIN ALBERTO              00000000000000006032017     020000009686103  2                  9
Y605571210045129441098ARGUETA                    GOMEZ                      JUAN CARLOS                00000000000000008032017     020000009687003  2                  9
Y605571210013129506476MENDEZ                     GARCIA                     MIRIAM MARLEN              00000000000000005032017     020000013013103  2                  9
Y605571210013008007844MENESES                    DEL ANGEL                  IRMA OLIVIA                00000000000000005032017     020000013014103  2                  9
Y605571210018149105704CANO                       JUAREZ                     JOSE ALFREDO               00000000000000005032017     020000013014403  2                  9
Y605571210043088509922GONZALEZ                   ESPINOZA                   EDGAR                      00000000000000005032017     020000013015203  2                  9
Y605571210039937785358MORALES                    CELIS                      JUAN MANUEL                00000000000000005032017     020000015194403  2                  9
Y605571210003927532816ORTIZ                      TORRES                     MARIA GUADALUPE            00000000000000008032017     020000019002802  2                  9
Y605571210065027002289HERNANDEZ                  MARTINEZ                   JOSE LUIS                  00000000000000005032017     020000019078503  2                  9
Y605571210043109445171LEDEZMA                    CRUZ                       CHRISTIAN ANGELY ISMAEL    00000000000000008032017     020000019104003  2                  9
