A836767410923089145637LOPEZ                      SALAS                      JOSE FRANCISCO             00000000000000015082017     020000002053603  2                  9
A836767410910179515423BENITEZ                    BLANCAS                    FRANCISCO JAVIER           00000000000000015082017     020000002057003  2                  9
A836767410972735700428HERNANDEZ                  MIRANDA                    PEDRO                      00000000000000015082017     020000002060103  2                  9
A836767410961007900717CARMONA                    YAUTENTZI                  ANDRES                     00000000000000015082017     020000002060203  2                  9
A836767410924127600112ONTIVEROS                  RAMIREZ                    JOSE EUGENIO               00000000000000015082017     020000002061903  2                  9
A836767410925937708375LORA                       CARREÒO                    LEOBARDO                   00000000000000015082017     020000002062203  2                  9
A836767410935988130403PONCE                      GALLEGOS                   BRIAN                      00000000000000015082017     020000008069003  2                  9
