Y605571210096947509384ANTONIO                    TRUJILLO                   LUIS                       00000000000000024122016     020000009469803  2                  9
Y605571210094018005721LUNA                       LOPEZ                      MARIA LUISA                00000000000000025122016     020000009496103  2                  9
Y605571210082079034144LOPEZ                      TELLEZ                     JUAN                       00000000000000026122016     020000009637103  2                  9
Y605571210013129506476MENDEZ                     GARCIA                     MIRIAM MARLEN              00000000000000025122016     020000013013103  2                  9
Y605571210013008007844MENESES                    DEL ANGEL                  IRMA OLIVA                 00000000000000025122016     020000013014103  2                  9
Y605571210018149105704CANO                       JUAREZ                     JOSE ALFREDO               00000000000000025122016     020000013014403  2                  9
Y605571210044159470309CASTILLO                   PASCUAL                    FLORENCIO                  00000000000000025122016     020000013014603  2                  9
Y605571210013856757607MENDEZ                     LEDEZMA                    FELIPE                     00000000000000024122016     020000013015003  2                  9
Y605571210043088509922GONZALEZ                   ESPINOZA                   EDGAR                      00000000000000025122016     020000013015203  2                  9
Y605571210094088845360SALAZAR                    MERCADO                    JOSUE FELIPE               00000000000000024122016     020000015181503  2                  9
Y605571210082119009692HERNANDEZ                  PEREZ                      LUIS ALBERTO               00000000000000020122016     020000015183303  2                  9
Y605571210001947703466CHAVEZ                     CUEVAS                     MIREYA                     00000000000000024122016     020000015183403  2                  9
Y605571210094116700363CASTILLO                   MARQUEZ                    JOSE JUAN                  00000000000000025122016     020000015185203  2                  9
Y605571210043897272779ESQUIVEL                   CERVANTES                  JESUS RAMON                00000000000000024122016     020000019081103  2                  9
Y605571210065907127693MARURI                     GOMEZ                      JULIO CESAR                00000000000000026122016     020000019097003  2                  9
Y605571210023826305098GOMEZ                      MELLADO                    JOSEFINA                   00000000000000026122016     020000025006203  2                  9
Y605571210023018171977VERDUGO                    TORRES                     HUGO ENRIQUE               00000000000000026122016     020000025008503  2                  9
Y605571210023068707894IRIBE                      RENTERIA                   JOSE CRUZ                  00000000000000026122016     020000025011303  2                  9
Y605571210065109132467GONZALEZ                   MARTINEZ                   MOISES                     00000000000000026122016     020000030129803  2                  9
