Y605571210003148841822HERNANDEZ                  RICO                       JOSE FREDDY                00000000000000003012017     020000002027003  2                  9
Y605571210023846810028GARCIA                     RIVERA                     JULIAN JAVIER              00000000000000003012017     020000002051003  2                  9
Y605571210021877199154MENDEZ                     SANCHEZ                    GILBERTO ISRAEL            00000000000000003012017     020000002051403  2                  9
Y605571210081017907601SALVADOR                   LOPEZ                      DORIS CECILIA              00000000000000004012017     020000004008703  2                  9
Y605571210069159777858ACOSTA                     MARTINEZ                   ANGEL OSIRIZ               00000000000000004012017     020000004009103  2                  9
Y605571210081139314959MENDEZ                     CARDENA                    ELIAS                      00000000000000004012017     020000004009803  2                  9
Y605571210042078901669HERNANDEZ                  MONTA—O                    OMAR OSIRIS ATLETL         00000000000000001012017     020000009039902  2                  9
Y605571210017815601962MARTINEZ                   ANDRES                     RAMON                      00000000000000004012017     020000009589003  2                  9
Y605571210007168926777ANDRADE                    FERNANDEZ                  RODOLFO ANTONIO            00000000000000001012017     020000009634903  2                  9
Y605571210001897048227PORTILLO                   SALAZAR                    ALEJANDRA                  00000000000000004012017     020000009649403  2                  9
Y605571210009168706704GOMEZ                      HERNANDEZ                  ANTONIA                    00000000000000004012017     020000009671603  2                  9
Y605571210067927501626SAUCEDO                    TRUJILLO                   FRANCISCO JAVIER           00000000000000001012017     020000015081503  2                  9
Y605571210038169412566DE JESUS                   PAVON                      CAROLINA                   00000000000000001012017     020000015186603  2                  9
Y605571210001139502171DIAZ                       GONZALEZ                   ERICK DANIEL               00000000000000001012017     020000015186803  2                  9
Y605571210016997305756MENDOZA                    CALDERON                   JOSE                       00000000000000001012017     020000015187403  2                  9
Y605571210043088805619ROMERO                     BRETADO                    LINO ALEJANDRO             00000000000000004012017     020000019093203  2                  9
Y605571210014856709309SANCHEZ                    TORRES                     J GUADALUPE                00000000000000003012017     020000022054103  2                  9
Y605571210081119006567ACOSTA                     GONZALEZ                   ENRIQUETA                  00000000000000003012017     020000023034203  2                  9
Y605571210067018106913SOTO                       GALLEGOS                   MARIO JULIAN               00000000000000003012017     020000023040903  2                  9
Y605571210065088614683TEOBA                      HERRERA                    JULIO CESAR                00000000000000004012017     020000030086203  2                  9
Y605571210025159161162CAÒEDO                     XALA                       JORGE ELIAS                00000000000000004012017     020000030121503  2                  9
Y605571210003147907442INFANTE                    CRUZ                       ARMANDO                    00000000000000004012017     020000030122003  2                  9
Y605571210065139506102HERRERA                    GARCIA                     BENJAMIN                   00000000000000004012017     020000030125903  2                  9
Y605571210067856659791MENDOZA                    ANDRADE                    MARIO                      00000000000000004012017     020000030128003  2                  9
Y605571210065057506670MARTINEZ                   ZARATE                     ISABEL                     00000000000000004012017     020000030130703  2                  9
Y605571210015887106415MARTINEZ                   RODRIGUEZ                  ANGEL                      00000000000000004012017     020000030130803  2                  9
Y605571210067968003433TINOCO                     FLORES                     MIGUEL ANGEL               00000000000000004012017     020000030132503  2                  9
