A836767410950169777922BRISEÒO                    MARTINEZ                   AMAIRANI                   00000000000000007072017     020000002058603  2                  9
A836767410933805806438MORALES                    VILLASE—OR                 LUIS HECTOR                00000000000000007072017     020000008022803  2                  9
A836767410943976607036RUBALCABA                  ESPINOSA                   JOSE LUIS                  00000000000000007072017     020000008067503  2                  9
