Y605571210059159643812CASTAÑEDA                  ARROYO                     JOSE ALFREDO               00000000000000011122016     020000006000703  2                  9
Y605571210096048627697CUEVAS                     RAMIREZ                    LUIS FERNANDO              00000000000000013122016     020000009502403  2                  9
Y605571210020139507352ANTONIO                    DE LA CRUZ                 ERIKC                      00000000000000013122016     020000009645203  2                  9
Y605571210010856718795BAENA                      GAMA                       JAVIER                     00000000000000013122016     020000009648403  2                  9
Y605571210045048603810GONZALEZ                   PASCUAL                    LETICIA                    00000000000000013122016     020000009652103  2                  9
Y605571210049159751285CALDERON                   ANTONIO                    CESAR DANIEL               00000000000000013122016     020000009655103  2                  9
Y605571210096129362917BURGOS                     GUZMAN                     RICARDO DANIEL             00000000000000011122016     020000009667203  2                  9
Y605571210096129112395PALACIOS                   GAMERO                     MICHAEL                    00000000000000013122016     020000009667703  2                  9
Y605571210011058111326CORDOBA                    MEDINA                     MARY ANGEL                 00000000000000007122016     020000022050003  2                  9
Y605571210005148765711FELIX                      ECHALA                     EVARISTO                   00000000000000013122016     020000023037903  2                  9
Y605571210084887029043PEREZ                      PEREGRINO                  SATURNINO ELEAZAR          00000000000000013122016     020000023039203  2                  9
Y605571210023856906377CORTES                     TORRES                     LUIS                       00000000000000013122016     020000025006303  2                  9
Y605571210063159661840PACHECO                    BAUDOUIN                   RODRIGO DE JESUS           00000000000000007122016     020000030128703  2                  9
