A836767410933816553938VILLALBA                   BACA                       JESUS MANUEL               00000000000000008092016     020000008048603  2                  9
A836767410935159268586RAMOS                      MENDOZA                    SALVADOR OSBALDO           00000000000000008092016     020000008054103  2                  9
A836767410933099113863SOSA                       MEDINA                     LUIS ANTONIO               00000000000000008092016     020000008057703  2                  9
