Y605571210021089040451SILVA                      ESPINOZA                   RUBI GISSEL                00000000000000016062016     020000002000602  2                  9
Y605571210006826415835ROMANO                     CARMONA                    FLORENCIO                  00000000000000020062016     020000009504503  2                  9
Y605571210098109116966LOPEZ                      JIMENEZ                    JOSE FABIAN                00000000000000016062016     020000009511403  2                  9
Y605571210028058801086MARCOS                     MARCOS                     SEVERIANO                  00000000000000016062016     020000009531203  2                  9
Y605571210005158500321GUTIERREZ                  LOPEZ                      REBECA                     00000000000000017062016     020000009550803  2                  9
Y605571210045149600087ZAMORA                     NIEVES                     JUAN CARLOS                00000000000000020062016     020000009554103  2                  9
Y605571210057159594498ESCALANTE                  MARTINEZ                   ALFREDO                    00000000000000016062016     020000009574803  2                  9
Y605571210045048643378URBINA                     DE JESUS                   JESUS                      00000000000000016062016     020000009593803  2                  9
Y605571210045139105592CHAMORRO                   HERNANDEZ                  JOSE MIGUEL                00000000000000020062016     020000009603403  2                  9
Y605571210022058908165CRUZ                       PEREZ                      NAUM                       00000000000000020062016     020000009607003  2                  9
Y605571210010169369468MORALES                    OLAYO                      LUIS ENRIQUE               00000000000000020062016     020000009612803  2                  9
Y605571210020927456093GARCIA                     MORALES                    ISRAEL                     00000000000000014062016     020000009616503  2                  9
Y605571210096109227684OJEDA                      ESCALANTE                  BEATRIZ ADRIANA            00000000000000016062016     020000009617603  2                  9
Y605571210090108800575GARCIA                     VERA                       JOSE JUAN                  00000000000000016062016     020000009618103  2                  9
Y605571210096109202224CRUZ                       LOPEZ                      LUIS FERNANDO              00000000000000016062016     020000009619403  2                  9
Y605571210012096800714TOVAR                      TOVAR                      FILOGONIO                  00000000000000018062016     020000011068003  2                  9
Y605571210025149610245PANTOJA                    BENITEZ                    JOSE MANUEL                00000000000000019062016     020000011083203  2                  9
Y605571210002159486543DOMINGUEZ                  RODRIGUEZ                  LUIS MARIO                 00000000000000017062016     020000011084003  2                  9
Y605571210012917266103ESTRADA                    ALAMILLA                   JUAN                       00000000000000018062016     020000011084103  2                  9
Y605571210054008404433NORZAGARAY                 MONTES                     CRUZ ALBERTO               00000000000000020062016     020000014001302  2                  9
Y605571210002169076656TOMAS                      RAMIREZ                    ESTEFANY ALEJANDRA         00000000000000020062016     020000014001502  2                  9
Y605571210037947413052GARCIA                     JUSTO                      JUAN ARTURO                00000000000000014062016     020000015171303  2                  9
Y605571210020907329914RIVERA                     PEREZ                      NOE                        00000000000000016062016     020000020024703  2                  9
Y605571210058159631900JIMENEZ                    MARIN                      ALEXIS                     00000000000000016062016     020000023027603  2                  9
Y605571210082088949399LOPEZ                      MORALES                    NEHEMIAS                   00000000000000016062016     020000023028403  2                  9
Y605571210041876500434PEREZ                      ZUÒIGA                     HECTOR                     00000000000000018062016     020000028029903  2                  9
Y605571210012887143407MENDOZA                    TENIENTE                   JUAN ANTONIO               00000000000000020062016     020000028032203  2                  9
Y605571210009887036516CONTRERAS                  CRUZ                       LUIS LAURO                 00000000000000019062016     020000028032503  2                  9
Y605571210061998002028MONTES                     MORALES                    MAURICIO                   00000000000000020062016     020000029005403  2                  9
Y605571210061887108340PARRA                      RODRIGUEZ                  JUAN JOSE                  00000000000000020062016     020000029005803  2                  9
Y605571210056159546946RAMIREZ                    MORENO                     JESUS                      00000000000000020062016     020000029005903  2                  9
Y605571210065066500318AGUILAR                    CARRILES                   JACINTO LUCIANO            00000000000000020062016     020000030091503  2                  9
Y605571210003147308203CAAMAL                     OXTE                       DADY DEIBER                00000000000000020062016     020000030096503  2                  9
Y605571210065028105727VILLEGAS                   HERNANDEZ                  EFRAIN                     00000000000000019062016     020000030104503  2                  9
Y605571210067907258882JIMENEZ                    DE LA CRUZ                 DOMINGO                    00000000000000020062016     020000030114603  2                  9
Y605571210005159450682HERMOSO                    GONZALEZ                   KASANDRA LETICIA           00000000000000020062016     020000030116203  2                  9
