Y462621510948028103108IGNACIO                    TOMAS                      ROBERTO                    00000000000000028112016     020000021153203  2                  9
Y462621510948099209404JIMENEZ                    CARCAMO                    IVAN                       00000000000000026112016     020000021154003  2                  9
Y462621510948018243625MARTINEZ                   CERVANTES                  JOSE LUIS                  00000000000000028112016     020000021158403  2                  9
Y462621510948119211315MORAN                      SANCHEZ                    ERICK ALAN                 00000000000000028112016     020000021158803  2                  9
Y462621510950149455904PEREZ                      GONZALEZ                   CELSO ALEJANDRO            00000000000000022112016     020000021159003  2                  9
Y462621510954149415504MARTINEZ                   HERNANDEZ                  JOSE MANUEL                00000000000000028112016     020000021159203  2                  9
