Y605571210001846603924ORTEGA                     RAMIREZ                    JULIO                      00000000000000024032017     020000009040602  2                  9
Y605571210044149420992MORALES                    LAZARO                     JESUS                      00000000000000030032017     020000009682003  2                  9
Y605571210089816600905ALMARAS                    FLORES                     EDUARDO                    00000000000000030032017     020000030111403  2                  9
