Y605571210002156575462CADENA                     CORONA                     BRAULIO                    00000000000000030062017     020000009689103  2                  9
Y605571210042129217628GARCIA                     MARTINEZ                   ROBERTO GAEL               00000000000000028062017     020000009712703  2                  9
Y605571210021078885205MELLADO                    SAINZ                      SOFIA MICHELLE             00000000000000030062017     020000025005203  2                  9
