R143868210304079036028PEREZ                      OSUNA                      JOSE ADAN                  00000000000000004102016     020000014002702  2                  9
R143868210334057101031ALFARO                     GUERRERO                   JACINTO                    00000000000000004102016     020000014101203  2                  9
R143868210304947707123CHAVEZ                     RIVERA                     ISAIAS                     00000000000000003102016     020000014116103  2                  9
R143868210304028696666RODRIGUEZ                  RODRIGUEZ                  GUSTAVO ARMANDO            00000000000000004102016     020000014121003  2                  9
