Y605571210090907003504GUARRO                     GONZALEZ                   GEORGINA                   00000000000000018072017     020000009618203  2                  9
Y605571210018159452707HERNANDEZ                  GUTIERREZ                  MONICA YADIRA              00000000000000018072017     020000009677103  2                  9
Y605571210096008407767AVILA                      RODRIGUEZ                  CESAR                      00000000000000018072017     020000009718303  2                  9
Y605571210039967756766JAIME                      PRADO                      TALINA                     00000000000000018072017     020000009718803  2                  9
Y605571210092906619298ZERMEÒO                    VILLALPANDO                FRANCISCO                  00000000000000018072017     020000015193803  2                  9
Y605571210030109507704CORTES                     LUVIANOS                   LUIS ERNESTO               00000000000000016072017     020000015196203  2                  9
Y605571210047058930232SALINAS                    VELAZQUEZ                  JULIO ALBERTO              00000000000000018072017     020000019095203  2                  9
Y605571210043805902111GARCIA                     GONZALEZ                   ALBERTO                    00000000000000018072017     020000019098503  2                  9
Y605571210043957072143GOMEZ                      LOPEZ                      LAURA NELLY                00000000000000018072017     020000019116803  2                  9
Y605571210003967820527ORTIZ                      MORENO                     MIGUEL ANGEL               00000000000000017072017     020000019117003  2                  9
Y605571210005168818739CORONEL                    PEREZ                      MARIA JESUS                00000000000000018072017     020000019117203  2                  9
Y605571210013169666792MONTERO                    VARGAS                     ERIK                       00000000000000017072017     020000023047203  2                  9
Y605571210018179979440GARCIA                     RAMIREZ                    EDGAR MARGARITO            00000000000000018072017     020000024005103  2                  9
Y605571210070149530076GONZALEZ                   RABELO                     VICTOR EDUARDO             00000000000000018072017     020000027056203  2                  9
Y605571210003148922697SANTIAGO                   SANTOS                     ANA MARINA                 00000000000000018072017     020000030141603  2                  9
Y605571210067127502234HERNANDEZ                  FERNANDEZ                  GELACIO                    00000000000000018072017     020000030146803  2                  9
Y605571210002178513269MARTIN                     REGALADO                   LIZ YESENIA                00000000000000018072017     020000030147003  2                  9
Y605571210067937450541LEON                       RIVERA                     JUAN CARLOS                00000000000000018072017     020000030151803  2                  9
