A836767410933906414553MARIN                      MARIN                      ANTONIO                    00000000000000009052016     020000008036803  2                  9
A836767410933937686708RAMOS                      BUSTAMANTE                 RAUL ARTURO                00000000000000009052016     020000008037403  2                  9
A836767410933805602167DIAZ                       ESPINOZA                   JESUS ANTONIO              00000000000000010052016     020000008038503  2                  9
A836767410933119444413CORTES                     TARANGO                    ANGEL HERIBERTO            00000000000000009052016     020000008038903  2                  9
A836767410931836300991PARGAS                     SUMARAN                    RUBEN                      00000000000000011052016     020000008042003  2                  9
A836767410947998013347DUARTE                     SOSA                       GREGORIO                   00000000000000009052016     020000008042203  2                  9
A836767410933907500640CARDIEL                    JIMENEZ                    OSCAR                      00000000000000009052016     020000008042303  2                  9
