Y605571210039129732937DE LA CRUZ                 ARRATIA                    LUIS SANTIAGO              00000000000000016112016     020000009635703  2                  9
Y605571210023089028858RIOS                       QUINTERO                   LUIS FERNANDO              00000000000000016112016     020000025005703  2                  9
Y605571210046159721128RODRIGUEZ                  PEREZ                      CESAR                      00000000000000017112016     020000027050303  2                  9
Y605571210083937210587MORALES                    GARCIA                     SERGIO                     00000000000000017112016     020000027056403  2                  9
Y605571210065058433445GARCIA                     AMOS                       JOSE ANTONIO               00000000000000016112016     020000030121103  2                  9
