D691959010178866706563BOHORQUEZ                  RODRIGUEZ                  GABINO                     00000000000000011112016     020000020024203  2                  9
D691959010105129550835PURA                       CORTES                     MANUEL                     00000000000000011112016     020000020027803  2                  9
D691959010119796102416MARAVER                    MOYA                       MIGUEL                     00000000000000011112016     020000020028203  2                  9
