Y605571210051927401722GOMEZ                      RAMOS                      MIGUEL                     00000000000000010062016     020000001006903  2                  9
Y605571210018169695089SANTIZ                     GOMEZ                      HUGO IVAN                  00000000000000016062016     020000007014103  2                  9
Y605571210056149572762LOPEZ                      SANTIZ                     MARIO                      00000000000000016062016     020000007015003  2                  9
Y605571210092099058791GARCIA                     PARAMO                     MARIA TERESA               00000000000000016062016     020000009037202  2                  9
Y605571210096058305929HUERTA                     BACA                       MARTIN                     00000000000000016062016     020000009500103  2                  9
Y605571210096937900890VAZQUEZ                    RUIZ                       HUGO                       00000000000000016062016     020000009568403  2                  9
Y605571210090058636052RAMIREZ                    ARCOS                      SEBASTIAN                  00000000000000010062016     020000009606803  2                  9
Y605571210028069002971CADENA                     CASTILLO                   ANA LUISA                  00000000000000014062016     020000009607203  2                  9
Y605571210012058305967RAMIREZ                    HERNANDEZ                  HECTOR                     00000000000000016062016     020000011083803  2                  9
Y605571210017149452561CASTILLO                   MARIN                      LEONEL                     00000000000000016062016     020000015113403  2                  9
Y605571210049159687836PEREZ                      GARCIA                     JONATHAN                   00000000000000016062016     020000015148803  2                  9
Y605571210058159717881MARTINEZ                   SANCHEZ                    CHRISTIAN ANTONIO          00000000000000016062016     020000015161003  2                  9
Y605571210053068732782CEJA                       CARDENAS                   JOSE DE JESUS              00000000000000015062016     020000016004203  2                  9
Y605571210053047300099GUTIERREZ                  GALLEGOS                   SERGIO                     00000000000000015062016     020000016005203  2                  9
Y605571210018169618867LOZOYA                     ZEPEDA                     IVAN                       00000000000000015062016     020000016006903  2                  9
Y605571210025159120069GUIJON                     GARCIA                     GUILLERMO ALONSO           00000000000000016062016     020000022044803  2                  9
Y605571210026149229960ESPINOSA                   CARABEO                    NOE                        00000000000000010062016     020000023027003  2                  9
Y605571210083138402371FALCON                     RUIZ                       DELIO                      00000000000000016062016     020000027052803  2                  9
Y605571210083887226492ROMERO                     REYES                      VENANCIO                   00000000000000015062016     020000027053303  2                  9
