Y462621510948127002789BERMUDEZ                   OLGUIN                     FRANCISCO                  00000000000000001052017     020000021151203  2                  9
Y462621510962988001103BOLAÑOS                    HERNANDEZ                  DOMINGO                    00000000000000004052017     020000021156703  2                  9
Y462621510948139346430BUENRROSTRO                BERNARDINO                 RICARDO                    00000000000000004052017     020000021165003  2                  9
Y462621510948988076260TRUJILLO                   TRUJILLO                   RIGOBERTO                  00000000000000003052017     020000021165203  2                  9
