Y605571210064865702043MORENO                     LECHUGA                    JOSE LUIS                  00000000000000019032017     020000009671403  2                  9
Y605571210026169739997MAGALLON                   MONTES                     EDGAR                      00000000000000022032017     020000009677503  2                  9
Y605571210013169875393VILLEGAS                   BAUTISTA                   RAYMUNDO                   00000000000000021032017     020000009678103  2                  9
Y605571210045098817294CABRERA                    VERA                       CARMEN SARA                00000000000000021032017     020000009679903  2                  9
Y605571210045068843908BARRERA                    RODRIGUEZ                  JUAN CARLOS                00000000000000020032017     020000009684803  2                  9
Y605571210045058307922HERNANDEZ                  RAMIREZ                    VIRIDIANA                  00000000000000022032017     020000009689503  2                  9
Y605571210016947119083VICENTE                    GONZALEZ                   ISABEL                     00000000000000023032017     020000015194203  2                  9
Y605571210013786011265HERRERA                    LEAÑOS                     FELIPE                     00000000000000023032017     020000019076003  2                  9
Y605571210003158011837ANACLETO                   JERONIMO                   IGNACIO                    00000000000000023032017     020000022059703  2                  9
Y605571210067907307507HERRERA                    OCHOA                      ROBERTO                    00000000000000022032017     020000030143303  2                  9
