Y462621510938159625342ALVAREZ                    ROMERO                     JOSE ARMANDO               00000000000000004022017     020000021114103  2                  9
Y462621510928907227293MARIN                      MORENO                     MAXIMINO                   00000000000000004022017     020000021154203  2                  9
Y462621510948119241031GALAN                      LEON                       JESUS                      00000000000000004022017     020000021160203  2                  9
Y462621510971109315227ESPINOZA                   CANTE                      EDY ALBERTO                00000000000000004022017     020000021160503  2                  9
Y462621510975058725047CAMPOS                     RODRIGUEZ                  JUAN MANUEL                00000000000000004022017     020000021162203  2                  9
Y462621510967977475283ALEMAN                     GARCIA                     DARINEL                    00000000000000004022017     020000021162403  2                  9
