Y605571210002177969983MARTINEZ                   SANCHEZ                    LUIS ALBERTO               00000000000000019072017     020000001009703  2                  9
Y605571210096129038897RUIZ ESPARZA               GARCIA                     LUCIA ITZEL                00000000000000019072017     020000009014002  2                  9
Y605571210092097301268PEREZ                      FLORES                     JOSE DANIEL                00000000000000019072017     020000009680803  2                  9
Y605571210017846429680BURGOS                     RIVERA                     JULIO                      00000000000000019072017     020000009706803  2                  9
Y605571210094109025042REYES                      ALFARO                     JORGE ALBERTO              00000000000000019072017     020000009713303  2                  9
Y605571210092038421712LIN                        CASTRO                     GUADALUPE                  00000000000000019072017     020000015182803  2                  9
Y605571210027149732193SANCHEZ                    DELGADO                    JUAN ALBERTO               00000000000000017072017     020000019108003  2                  9
Y605571210078077804439GONZALEZ                                              DOMENICA                   00000000000000019072017     020000019117603  2                  9
Y605571210043058542994ESPARZA                    GUERRERO                   YADIRA JANETTE             00000000000000018072017     020000019118803  2                  9
Y605571210062149466385ROMERO                     ALONSO                     EMILIO                     00000000000000018072017     020000019118903  2                  9
Y605571210019159845221MOLINA                     ESPINOZA                   AMAURY ADALBERTO           00000000000000017072017     020000022051503  2                  9
Y605571210072836623263POSADAS                    QUINTANA                   ADOLFO                     00000000000000017072017     020000023046703  2                  9
Y605571210041117600357SANTILLAN                  PEREZ                      JOSE MANUEL                00000000000000019072017     020000024005003  2                  9
Y605571210067068915544ALVAREZ                    OLAN                       ANDRES                     00000000000000019072017     020000030135003  2                  9
Y605571210084008240990CANTE                      EUAN                       GENER GUALBERTO            00000000000000019072017     020000031027303  2                  9
