Y605571210037977502519LARA                       CASTRO                     OSCAR                      00000000000000031012017     020000009601003  2                  9
Y605571210042119109660PADILLA                    DELGADO                    OSCAR                      00000000000000029012017     020000009679003  2                  9
Y605571210042978100800DIAZ                       MINO                       OMAR JAVIER                00000000000000031012017     020000009679103  2                  9
Y605571210013976704885CRUZ                       FLORES                     NOEL                       00000000000000029012017     020000013009503  2                  9
Y605571210092109318987GARCIA                     BASURTO                    MIGUEL ANGEL               00000000000000031012017     020000015171503  2                  9
Y605571210014917326333MANRIQUEZ                  PEREZ                      JOSE LUIS                  00000000000000031012017     020000022054903  2                  9
Y605571210010159512432DELGADO                    BAUTISTA                   JULIO CESAR                00000000000000031012017     020000022055403  2                  9
