Y605571210021149849818TORRES                     MORA                       LUCIO ALBERTO              00000000000000004082016     020000002049203  2                  9
Y605571210004998137899LOPEZ                      QUEZADA                    PEDRO                      00000000000000004082016     020000002049503  2                  9
Y605571210015077503389GARCIA                     SANCHEZ                    EDGAR                      00000000000000001082016     020000002049703  2                  9
Y605571210072028213964GARNELO                    DOLORES                    MANUEL                     00000000000000005082016     020000009612103  2                  9
Y605571210007826508389PINZON                     VALLEJO                    RAYMUNDO SHINNE            00000000000000004082016     020000009625303  2                  9
Y605571210042149800692ALMAZAN                    VELAZQUEZ                  MARTIN ALEJANDRO           00000000000000005082016     020000009631403  2                  9
Y605571210090028417518CABRERA                    FLORES                     JAVIER                     00000000000000003082016     020000009631803  2                  9
Y605571210090099044647RESENDIS                   IBARRA                     LESLIE ANGELICA            00000000000000003082016     020000015176703  2                  9
Y605571210092129600778CRUZ                       GONZALEZ                   JHOSELINE ARLETTE          00000000000000001082016     020000015177503  2                  9
Y605571210090008347107MARTINEZ                   SOSA                       MIGUEL ANGEL               00000000000000003082016     020000015177603  2                  9
Y605571210002166544805HORTA                      HERNANDEZ                  LEONARDO                   00000000000000003082016     020000016007403  2                  9
Y605571210023129440840LOPEZ                      SALAZAR                    ELIAN EDUARDO              00000000000000005082016     020000025002803  2                  9
Y605571210023119516526ZUÒIGA                     NUÒEZ                      CLAUDIA GUADALUPE          00000000000000005082016     020000025004903  2                  9
Y605571210023946201342MANJARREZ                  CAMACHO                    JESUS ANTEMIO              00000000000000005082016     020000025005003  2                  9
Y605571210023139343935GARCIA                     GOMEZ                      FRANCISCO SAMUEL           00000000000000005082016     020000025005103  2                  9
Y605571210065139507506ALVARADO                   FELIPE                     JAIME SANTIAGO             00000000000000003082016     020000030087103  2                  9
Y605571210007988017864MARTINEZ                   CRUZ                       ELEAZAR                    00000000000000004082016     020000030106603  2                  9
Y605571210065007928594HERNANDEZ                  ZAVALETA                   NERY                       00000000000000004082016     020000030108903  2                  9
Y605571210025169450472ALVARADO                   HERNANDEZ                  EVER                       00000000000000005082016     020000030120003  2                  9
