Y605571210090998000799VARGAS                     SANTIAGO                   OSCAR                      00000000000000001102016     020000009616003  2                  9
Y605571210027169564419TORRES                     TRUJILLO                   ABIGAIL DENI               00000000000000004102016     020000009638703  2                  9
Y605571210096098708009PEREZ                      VILLANUEVA                 ARMANDO                    00000000000000004102016     020000009638803  2                  9
Y605571210094048546512ALVARADO                   MARTINEZ                   VIRIDIANA BRISEIDA         00000000000000004102016     020000009645903  2                  9
Y605571210011007813949FERNANDEZ                  SANTILLAN                  CARLOS ALBERTO             00000000000000003102016     020000009647603  2                  9
Y605571210067946315073PEREZ                      SAMAYOA                    YXSANDRO                   00000000000000001102016     020000011089703  2                  9
Y605571210016098309509NAVARRETE                  PLATA                      HUGO                       00000000000000004102016     020000015160003  2                  9
Y605571210049886921441MENDEZ                     MARTINEZ                   ROSENDO                    00000000000000004102016     020000028034903  2                  9
Y605571210065016700406BARBON                     CRUZ                       JOSE ARMANDO               00000000000000004102016     020000030067203  2                  9
Y605571210008148247896ACOSTA                     ESTRADA                    SERGIO ARTURO              00000000000000004102016     020000030116003  2                  9
Y605571210075088971777ORTIZ                      ESPINOSA                   ALBERTO                    00000000000000004102016     020000030120503  2                  9
Y605571210067128924759LARA                       ORTEGA                     VICTOR ABRAHAM             00000000000000004102016     020000030125603  2                  9
