Y605571210007846403587FEREGRINO                  BUSTAMANTE                 EDMUNDO                    00000000000000003052017     020000009420603  2                  9
Y605571210028937521582RAMOS                      HERNANDEZ                  JUAN MANUEL                00000000000000002052017     020000009645603  2                  9
Y605571210018119310987MARTINEZ                   ROSALES                    JAVIER                     00000000000000002052017     020000015198303  2                  9
Y605571210016037304579IGLESIAS                   RODRIGUEZ                  ROSA ELENA                 00000000000000002052017     020000015202403  2                  9
Y605571210016028600076GONZALEZ                   ROSALES                    JUAN                       00000000000000001052017     020000015204603  2                  9
Y605571210047988190063MORENO                     GARZA                      MARIA GUADALUPE            00000000000000003052017     020000019096703  2                  9
Y605571210043805902111GARCIA                     GONZALEZ                   ALBERTO                    00000000000000003052017     020000019098503  2                  9
Y605571210002178003691RAMIREZ                    ALEJANDRO                  IRAN                       00000000000000002052017     020000019105503  2                  9
Y605571210047927567751URBINA                     GUERRERO                   NORBERTO                   00000000000000002052017     020000019105703  2                  9
Y605571210043998507180SALVADOR                   CRUZ                       SANDRA NELLY               00000000000000003052017     020000019109703  2                  9
Y605571210053089132236ORDUÑA                     GONZALEZ                   MARIA DEL ROCIO            00000000000000003052017     020000022002002  2                  9
Y605571210003148058823ALMAZAN                    PEREZ                      LESBY NOEMI                00000000000000002052017     020000023018403  2                  9
Y605571210002178021370MARTINEZ                   MENDEZ                     ROBERTO                    00000000000000002052017     020000023042603  2                  9
Y605571210005159583623PEREGRINO                  DOMINGUEZ                  PEDRO                      00000000000000002052017     020000023045203  2                  9
Y605571210083098910033VILCHIS                    RAMOS                      CHRISTOPHER GIOVANY        00000000000000003052017     020000027054303  2                  9
Y605571210050149501608WOOD                       NIETO                      JOSE CARLOS                00000000000000003052017     020000030122903  2                  9
Y605571210002169841984TORRES                     MENDEZ                     GUSTAVO                    00000000000000003052017     020000030133603  2                  9
Y605571210067058606129HERNANDEZ                  BARRERA                    ELIAS                      00000000000000003052017     020000030138003  2                  9
Y605571210067139307796PALMA                      SARAO                      PABLO                      00000000000000003052017     020000030138103  2                  9
