Y702574710184046500157TAPIA                      CANTO                      VICTOR FABIAN DE JESUS     00000000000000006112016     020000031023303  2                  9
Y702574710184917331112DOMINGUEZ                  CANTO                      MIGUEL ANGEL               00000000000000007112016     020000031030503  2                  9
Y702574710184028437790SANTANA                    ESPINOSA                   JORGE ALBERTO DE ATOCHA    00000000000000006112016     020000031030603  2                  9
