Y605571210064159631585FERNANDEZ                  VALENCIA                   GABRIEL ALEXIS             00000000000000003082017     020000015215103  2                  9
Y605571210031916500197ORTEGA                     ANDRADE                    MARIA                      00000000000000002082017     020000019118703  2                  9
Y605571210049806226269PULIDO                     TREJO                      ANDRES                     00000000000000003082017     020000028017803  2                  9
Y605571210008159117657MARTINEZ                   SOSA                       JOSE MANUEL                00000000000000003082017     020000030106203  2                  9
Y605571210065876878821BAEZ                       CORICHI                    VICENTE                    00000000000000003082017     020000030127203  2                  9
Y605571210067038007125MACAL                      CHAVEZ                     DIEGO ANSELMO              00000000000000003082017     020000030133103  2                  9
Y605571210044169559612OLAN                       JIMENEZ                    RODIBER                    00000000000000003082017     020000030141703  2                  9
Y605571210067988112727ORDINOLA                   TRUJILLO                   ANA ISABEL                 00000000000000003082017     020000030143803  2                  9
Y605571210005169247193BARRANCA                   HERNANDEZ                  AZAREL                     00000000000000003082017     020000030145403  2                  9
Y605571210063159717899INFANZON                   MOLINA                     DAVID EDUARDO              00000000000000003082017     020000030150103  2                  9
