Y605571210038149489932ESCOBAR                    MONTERO                    SOCORRO                    00000000000000031032017     020000009029102  2                  9
Y605571210096078746102CRUZ                       GARCIA                     CAROLINA                   00000000000000031032017     020000009035802  2                  9
Y605571210045106600476RODRIGUEZ                  HERNANDEZ                  MARIO ALFONSO              00000000000000031032017     020000009462703  2                  9
Y605571210006816344326VAZQUEZ                    OLIVA                      LUIS                       00000000000000031032017     020000009489703  2                  9
Y605571210007058200408CASTILLO                   SANCHEZ                    JUAN                       00000000000000031032017     020000009540403  2                  9
Y605571210010836627520SANCHEZ                    VAZQUEZ                    JOSE JAVIER                00000000000000031032017     020000009580803  2                  9
Y605571210096109281327VILLEGAS                   FLORES                     IRVING JOSE                00000000000000031032017     020000009649803  2                  9
Y605571210009169802031GUZMAN                     MORALES                    LILIA                      00000000000000031032017     020000009674403  2                  9
Y605571210013967724058LOPEZ                      FLORES                     HECTOR                     00000000000000031032017     020000013014203  2                  9
Y605571210094109563638CORTES                     RANGEL                     TANIA MARINA               00000000000000031032017     020000013015103  2                  9
Y605571210013856555563RAMIREZ                    RIVEROS                    LETICIA                    00000000000000031032017     020000013016203  2                  9
Y605571210094998106275BENITEZ                    HERNANDEZ                  JUAN                       00000000000000031032017     020000015087803  2                  9
Y605571210090896919280GODINEZ                                               PEDRO                      00000000000000031032017     020000015130503  2                  9
Y605571210064816318394VILLEGAS                   MONTIEL                    ALEJANDRO                  00000000000000031032017     020000015131703  2                  9
Y605571210089846213984SALAS                      LOPEZ                      ARACELI                    00000000000000031032017     020000015147003  2                  9
Y605571210094138605939PONCE                      LOPEZ                      SAUL                       00000000000000031032017     020000015180703  2                  9
Y605571210016957903400ARRIAGA                    GARCIA                     JAIR SANTIAGO              00000000000000031032017     020000015187603  2                  9
Y605571210002179361171GONZALEZ                   MONJARDIN                  JOSE LUIS                  00000000000000031032017     020000015189603  2                  9
Y605571210002179040189MEJIA                      GARCIA                     OMAR DE JESUS              00000000000000031032017     020000015190303  2                  9
Y605571210002179475559CARRILLO                   HERNANDEZ                  DANIELA                    00000000000000031032017     020000015192203  2                  9
