Y605571210067128903332CALVO                      LOZANO                     LEONARDO DANIEL            00000000000000020062016     020000023028203  2                  9
Y605571210082099108985AYALA                      RINCON                     AUSENCIO                   00000000000000022062016     020000023029303  2                  9
Y605571210082097602534ESPINOZA                   CARAVEO                    MARCOS                     00000000000000021062016     020000023029403  2                  9
Y605571210083098910033VILCHIS                    RAMOS                      CHRISTOPHER GIOVANY        00000000000000029062016     020000027054303  2                  9
