R143868210396139221111ROSALES                    RODRIGUEZ                  ALMA ROSA                  00000000000000020122016     020000014002902  2                  9
R143868210304058890023LARA                       VALDERRAMA                 MARITZA ELIZABETH          00000000000000019122016     020000014003102  2                  9
R143868210353937804556HERNANDEZ                  CHAVEZ                     BRENDA YADIRA              00000000000000018122016     020000014110903  2                  9
