Y605571210042028203380SOTELO                     FERIA                      GABRIEL                    00000000000000025042017     020000009690503  2                  9
Y605571210042028600676ANGELES                    PEÑALOZA                   YESSENIA                   00000000000000020042017     020000009694403  2                  9
Y605571210020967906866MATIAS                     NICOLAS                    OTILIO                     00000000000000020042017     020000009695103  2                  9
Y605571210092119318506ESPINOZA                   DIAZ                       RICARDO ENRIQUE            00000000000000026042017     020000015166303  2                  9
Y605571210016957903400ARRIAGA                    GARCIA                     JAIR SANTIAGO              00000000000000024042017     020000015187603  2                  9
Y605571210002159257480RODRIGUEZ                  DOMINGUEZ                  MARIA LIZBETH              00000000000000020042017     020000015196903  2                  9
Y605571210092119232715FLANDES                    MARCOS                     CLAUDIA                    00000000000000020042017     020000015201603  2                  9
Y605571210094087701788ORTIZ                      QUIROZ                     RITA AURORA                00000000000000020042017     020000015201703  2                  9
Y605571210026169474850CABELLO                    COYOTE                     ALEJANDRO                  00000000000000024042017     020000016009703  2                  9
Y605571210045129412438DURAN                      OCHOA                      JONATHAN FERNANDO          00000000000000025042017     020000022060703  2                  9
Y605571210065866726618GRAJALES                   FLORES                     RAMON                      00000000000000026042017     020000030130603  2                  9
Y605571210067876855924CONTRERAS                  HERNANDEZ                  LUIS FELIPE                00000000000000020042017     020000030145603  2                  9
