R143868210375988130110OCHOA                      MAGALLON                   MANUEL SALVADOR            00000000000000028092016     020000014002802  2                  9
R143868210308169340083MARIN                      MEJIA                      GUADALUPE                  00000000000000027092016     020000014107203  2                  9
R143868210360159742794BARBA                      HERNANDEZ                  MARIA ESTHER               00000000000000027092016     020000014108503  2                  9
R143868210366159672832CORDOVA                    RAMOS                      ALEXANDRA                  00000000000000027092016     020000014108603  2                  9
