Y605571210096048325557FUENTES                    LOPEZ                      VIOLETA                    00000000000000017012017     020000009040702  2                  9
Y605571210056159543695HERNANDEZ                  AMBROSIO                   RICARDO                    00000000000000017012017     020000009620703  2                  9
Y605571210066149626203JIMENEZ                    RIVERA                     MARIA DE JESUS             00000000000000017012017     020000009639003  2                  9
Y605571210045139821990CAMACHO                    ESPINOSA                   EDJHAIR                    00000000000000016012017     020000009640903  2                  9
Y605571210096139357790ESPINOZA                   DOMINGUEZ                  JESUS SALVADOR             00000000000000016012017     020000009645303  2                  9
Y605571210096876401801HERNANDEZ                  BECERRIL                   ABEL                       00000000000000017012017     020000009663403  2                  9
Y605571210037118200882CRUZ                       ROSALINO                   NADIA                      00000000000000016012017     020000009665203  2                  9
Y605571210037068902099MAYORGA                    YAÒEZ                      MIGUEL ANGEL               00000000000000017012017     020000009676003  2                  9
Y605571210094987706804MANDUJANO                  PE—A                       JAIME ARMANDO              00000000000000017012017     020000015181603  2                  9
Y605571210065129493527GOMEZ                      ORTIZ                      LUIS REY                   00000000000000016012017     020000019096403  2                  9
Y605571210043886767870GONZALEZ                   RAMIREZ                    JAVIER                     00000000000000016012017     020000019098403  2                  9
Y605571210082008110007OLIVA                      ZETINA                     ELIXITO PEDRO PABLO        00000000000000017012017     020000030127703  2                  9
