Y462621510962917595282HERNANDEZ                  FELIPE                     JOSE MANUEL                00000000000000019072016     020000021068903  2                  9
Y462621510907998205731HERNANDEZ                  DE LA LUZ                  JAVIER                     00000000000000019072016     020000021128703  2                  9
Y462621510948139492671HERNANDEZ                  DE LA ROSA                 MARCO ANTONIO              00000000000000019072016     020000021140303  2                  9
Y462621510948129269568CAMPOS                     ORTIZ                      ALFONSO                    00000000000000019072016     020000021143303  2                  9
Y462621510948139227184DURAN                      REYES                      HEDIBERTO                  00000000000000019072016     020000021148003  2                  9
Y462621510948078915625VALENCIA                   MENDIETA                   ALEJANDRO                  00000000000000019072016     020000021148803  2                  9
