Y605571210023169791995ANTEMATE                   ROMERO                     MARICRUZ                   00000000000000027082017     020000015216003  2                  9
Y605571210014856710778REGALADO                   MARTINEZ                   JUAN MARCOS                00000000000000029082017     020000022051103  2                  9
Y605571210002175928296SILVA                      GUERRERO                   JUAN JOSE                  00000000000000029082017     020000022063403  2                  9
Y605571210014129708617RICO                       SANCHEZ                    ANA CECILIA                00000000000000029082017     020000022065003  2                  9
Y605571210023988278166RUBIO                      JAIME                      LUIS ANGEL                 00000000000000029082017     020000025012503  2                  9
Y605571210021975607066ARELLANO                   ARREDONDO                  JOSE GUADALUPE             00000000000000029082017     020000025018603  2                  9
