Y462621510939038011290EVANGELISTA                ARAGON                     RIGOBERTO                  00000000000000005092016     020000021088303  2                  9
Y462621510921098203397BAUTISTA                   LOPEZ                      FELICIANO                  00000000000000005092016     020000021145803  2                  9
Y462621510948139542079CUATLAXAHUE                ZAPOTITLA                  ALEJANDRO                  00000000000000002092016     020000021152103  2                  9
