Y605571210081876002049VELUETA                    GUZMAN                     MANUEL                     00000000000000001112016     020000004007203  2                  9
Y605571210081906701321VIDAL                      CABALLERO                  LUIS ALFONSO               00000000000000001112016     020000004007703  2                  9
Y605571210003149558094DOMINGUEZ                  GARCIA                     JUAN CARLOS                00000000000000003112016     020000009467803  2                  9
Y605571210007876207619PADILLA                    MENDOZA                    INES ANGELICA              00000000000000001112016     020000009574503  2                  9
Y605571210028109118498SOLIS                      SOTO                       GIOVVANA JANNET            00000000000000001112016     020000009636203  2                  9
Y605571210008169349266CHICO                      HERNANDEZ                  OSMAR                      00000000000000002112016     020000009647303  2                  9
Y605571210096089102733RODRIGUEZ                  RAMON                      RODOLFO                    00000000000000001112016     020000009650603  2                  9
Y605571210028097400841CARVAJAL                   ALVARADO                   RAFAEL                     00000000000000002112016     020000009651203  2                  9
Y605571210018149046932HERNANDEZ                  MOJICA                     RODRIGO                    00000000000000003112016     020000009652803  2                  9
Y605571210019159402171FIGUEROA                   TREJO                      JUAN RAMON                 00000000000000001112016     020000011074403  2                  9
Y605571210056149421721ARREOLA                    GARCIA                     JESUS MIGUEL               00000000000000003112016     020000011083403  2                  9
Y605571210044169605860BENITEZ                    PATIÑO                     JOSE REFUGIO               00000000000000003112016     020000011086003  2                  9
Y605571210012099500626RUIZ                       FAJARDO                    GERARDO FRANCISCO          00000000000000003112016     020000011086103  2                  9
Y605571210005168758000TORRES                     CAMACHO                    VIRGINIA                   00000000000000003112016     020000011090303  2                  9
Y605571210002168236335ESCOBEDO                   MORENO                     MARTIN                     00000000000000003112016     020000013011703  2                  9
Y605571210092946704464RAMIREZ                    GONZALEZ                   JOSE CARLOS                00000000000000002112016     020000015181003  2                  9
Y605571210092927506219LARA                       GOMEZ                      KARIM                      00000000000000003112016     020000015182403  2                  9
Y605571210020978017018ZAMORA                     OCHOA                      JAZMIN                     00000000000000001112016     020000015183803  2                  9
Y605571210043089155055FLORES                     RODRIGUEZ                  LUIS ROMAN                 00000000000000003112016     020000019087203  2                  9
Y605571210003148058823ALMAZAN                    PEREZ                      LESBY NOEMI                00000000000000001112016     020000023018403  2                  9
Y605571210011998125360LOPEZ                      GOMEZ                      FLOR VERONICA              00000000000000001112016     020000023019903  2                  9
Y605571210083047502634PALMA                      CORONEL                    GRACIELA                   00000000000000001112016     020000023031603  2                  9
Y605571210034169856092MENDEZ                     MENDEZ                     GABRIEL                    00000000000000001112016     020000023037403  2                  9
Y605571210010159575405ROMERO                     PEREZ                      JOSE DAVID                 00000000000000001112016     020000023037803  2                  9
Y605571210023967201155LOPEZ                      GARCIA                     JESUS                      00000000000000003112016     020000025009303  2                  9
Y605571210023007808761FLORES                     MAYORQUIN                  RAYMUNDO                   00000000000000003112016     020000025010503  2                  9
Y605571210061068405309POZOS                      VELAZQUEZ                  DIONISIO                   00000000000000003112016     020000029006303  2                  9
Y605571210061876912470HERNANDEZ                  DOMINGUEZ                  EVARISTO                   00000000000000001112016     020000029006503  2                  9
Y605571210061977815390HERNANDEZ                  LOPEZ                      OSCAR                      00000000000000003112016     020000029006603  2                  9
Y605571210003159068679SANCHEZ                    SANTOS                     JAIR                       00000000000000001112016     020000030084703  2                  9
Y605571210065937205220CASTILLO                   GUZMAN                     ROBERTO                    00000000000000003112016     020000030104303  2                  9
Y605571210065119035916GALICIA                    MORALES                    JOSE EDUARDO               00000000000000003112016     020000030104403  2                  9
Y605571210078916920917LOPEZ                      MARTINEZ                   GERMAN                     00000000000000001112016     020000030112603  2                  9
Y605571210067119255262ALCANTARA                  FERNANDEZ                  WILBERT                    00000000000000003112016     020000030121603  2                  9
Y605571210067109122639MARCIAL                    SANCHEZ                    JOSE LUIS                  00000000000000001112016     020000030126403  2                  9
