R143868210325998146937ARMENTA                    RUELAS                     JUAN CARLOS                00000000000000010062016     020000014104703  2                  9
R143868210304129462844IÑIGUEZ                    GARCIA                     JUDAS MANUEL               00000000000000009062016     020000014113103  2                  9
R143868210352028101153OLVIRA                     MEDINA                     JOSE                       00000000000000010062016     020000014114603  2                  9
