Y605571210078887308373DEHESA                     MARQUEZ                    ARTURO                     00000000000000024052017     020000009595703  2                  9
Y605571210002177716632ROMO                       ALVARADO                   SERGIO                     00000000000000025052017     020000009682403  2                  9
Y605571210037987511492AGUIRRE                    ANAYA                      JOSE EMILIO                00000000000000025052017     020000009697603  2                  9
Y605571210067967915058PEREZ                      LOZANO                     SANDRA                     00000000000000024052017     020000023045803  2                  9
Y605571210022796006850QUINTERO                   MARTINEZ                   BRUNO                      00000000000000025052017     020000025014903  2                  9
Y605571210067078317244MARTINEZ                   GARCIA                     LIZETTE VERONICA           00000000000000025052017     020000030148903  2                  9
