Y607431310496967923911HERNANDEZ                  CORTES                     GERARDO                    00000000000000031082021     020000009000602  2                  9
Y607431310439018407336QUINTANA                   LOPEZ                      MARIA DE LOURDES           00000000000000031082021     020000009000702  2                  9
Y607431310439927207041RAMIREZ                    MOLINERO                   GABRIELA                   00000000000000031082021     020000009006503  2                  9
Y607431310428937506922HERNANDEZ                  CORTES                     MIGUEL ANGEL               00000000000000031082021     020000009006703  2                  9
Y607431310411765776726TENA                       TAPIA                      RAFAEL                     00000000000000031082021     020000009006803  2                  9
Y607431310411038102106HERNANDEZ                  ZURITA                     JACQUELINE ARLETT          00000000000000031082021     020000009009403  2                  9
